{
  "address": "0x7aDf5BAaA63E51AB3649C17CbC55bAA215C87Ab4",
  "abi": [
    {
      "inputs": [
        {
          "internalType": "address",
          "name": "worldAddress",
          "type": "address"
        },
        {
          "internalType": "uint256",
          "name": "epochNumber",
          "type": "uint256"
        },
        {
          "internalType": "string",
          "name": "assetName",
          "type": "string"
        },
        {
          "internalType": "address",
          "name": "settlementAddress",
          "type": "address"
        }
      ],
      "name": "create",
      "outputs": [
        {
          "internalType": "address",
          "name": "",
          "type": "address"
        }
      ],
      "stateMutability": "nonpayable",
      "type": "function"
    }
  ],
  "transactionHash": "0xff4c54cf4a0e5206fc87d44230d0615df61717a17202b0b678c2a97dfa790831",
  "args": [],
  "numDeployments": 1,
  "solcInputHash": "d40fd766cc3fa0d4c836779e74bc4f2f",
  "bytecode": "0x608060405234801561001057600080fd5b506109bd806100206000396000f3fe608060405234801561001057600080fd5b506004361061002b5760003560e01c80633ddd5a8214610030575b600080fd5b61004361003e3660046102bb565b61005f565b6040516001600160a01b03909116815260200160405180910390f35b60008061008b868660405180604001604052806005815260200164736965676560d81b815250876100f4565b60405163066ad14f60e21b81526001600160a01b038581166004830152919250908216906319ab453c90602401600060405180830381600087803b1580156100d257600080fd5b505af11580156100e6573d6000803e3d6000fd5b509298975050505050505050565b60008484336001600160a01b038316148061017f5750604051633aefa00d60e21b8152600481018290523360248201526000906001600160a01b0384169063ebbe803490604401602060405180830381865afa158015610158573d6000803e3d6000fd5b505050506040513d601f19601f8201168201806040525081019061017c9190610397565b14155b6101c05760405162461bcd60e51b815260206004820152600e60248201526d1bdb9b1e55dbdc9b19105cdcd95d60921b604482015260640160405180910390fd5b6000878787876040516101d29061027c565b6101df94939291906103f6565b604051809103906000f0801580156101fb573d6000803e3d6000fd5b508651602088012060405163909a853160e01b8152600481018a90526001600160a01b038084166024830152604482019290925291925089169063909a853190606401600060405180830381600087803b15801561025857600080fd5b505af115801561026c573d6000803e3d6000fd5b50929a9950505050505050505050565b61054c8061043c83390190565b80356001600160a01b03811681146102a057600080fd5b919050565b634e487b7160e01b600052604160045260246000fd5b600080600080608085870312156102d157600080fd5b6102da85610289565b935060208501359250604085013567ffffffffffffffff808211156102fe57600080fd5b818701915087601f83011261031257600080fd5b813581811115610324576103246102a5565b604051601f8201601f19908116603f0116810190838211818310171561034c5761034c6102a5565b816040528281528a602084870101111561036557600080fd5b82602086016020830137600060208483010152809650505050505061038c60608601610289565b905092959194509250565b6000602082840312156103a957600080fd5b5051919050565b6000815180845260005b818110156103d6576020818501810151868301820152016103ba565b506000602082860101526020601f19601f83011685010191505092915050565b6001600160a01b038516815283602082015260806040820152600061041e60808301856103b0565b828103606084015261043081856103b0565b97965050505050505056fe608060405234801561001057600080fd5b5060405161054c38038061054c83398101604081905261002f916101a6565b7f6c85b93e587873fbe6712f3b438d42c2945689b262f7bd34b8ea4e3f832a89e680546001600160a01b0319166001600160a01b0386161781557f6c85b93e587873fbe6712f3b438d42c2945689b262f7bd34b8ea4e3f832a89e78490556040516100a09084908490602001610232565b60408051601f1981840301815291905280516020909101206002820155600381016100cb84826102ea565b50600481016100da83826102ea565b5050505050506103a9565b634e487b7160e01b600052604160045260246000fd5b60005b838110156101165781810151838201526020016100fe565b50506000910152565b600082601f83011261013057600080fd5b81516001600160401b038082111561014a5761014a6100e5565b604051601f8301601f19908116603f01168101908282118183101715610172576101726100e5565b8160405283815286602085880101111561018b57600080fd5b61019c8460208301602089016100fb565b9695505050505050565b600080600080608085870312156101bc57600080fd5b84516001600160a01b03811681146101d357600080fd5b6020860151604087015191955093506001600160401b03808211156101f757600080fd5b6102038883890161011f565b9350606087015191508082111561021957600080fd5b506102268782880161011f565b91505092959194509250565b600083516102448184602088016100fb565b8351908301906102588183602088016100fb565b01949350505050565b600181811c9082168061027557607f821691505b60208210810361029557634e487b7160e01b600052602260045260246000fd5b50919050565b601f8211156102e557600081815260208120601f850160051c810160208610156102c25750805b601f850160051c820191505b818110156102e1578281556001016102ce565b5050505b505050565b81516001600160401b03811115610303576103036100e5565b610317816103118454610261565b8461029b565b602080601f83116001811461034c57600084156103345750858301515b600019600386901b1c1916600185901b1785556102e1565b600085815260208120601f198616915b8281101561037b5788860151825594840194600190910190840161035c565b50858210156103995787850151600019600388901b60f8161c191681555b5050505050600190811b01905550565b610194806103b86000396000f3fe608060408190527f6c85b93e587873fbe6712f3b438d42c2945689b262f7bd34b8ea4e3f832a89e68054637b10399960e01b835290916000916001600160a01b031690637b10399990608490602090600481865afa158015610065573d6000803e3d6000fd5b505050506040513d601f19601f82011682018060405250810190610089919061013a565b6001600160a01b03166302cfeaca83600201546040518263ffffffff1660e01b81526004016100ba91815260200190565b602060405180830381865afa1580156100d7573d6000803e3d6000fd5b505050506040513d601f19601f820116820180604052508101906100fb919061013a565b905060405136600082376000803683855af43d806000843e81801561011e578184f35b8184fd5b6001600160a01b038116811461013757600080fd5b50565b60006020828403121561014c57600080fd5b815161015781610122565b939250505056fea2646970667358221220374e1937f2bf99be3693e7ab89cd0a1eefca30729bc5983f5a5623284b8a900b64736f6c63430008100033a2646970667358221220ed92a9362186f05fa2a8f9f106df8e7d97df69fc5c9827b106b0333ae214fc8964736f6c63430008100033",
  "devdoc": {
    "kind": "dev",
    "methods": {
      "create(address,uint256,string,address)": {
        "details": "Even though this function is opened, it can only be called by world or world asset",
        "params": {
          "assetName": "Name of the battle type (Currently only 'BASIC')",
          "epochNumber": "Epoch number",
          "settlementAddress": "Address of the related settlement",
          "worldAddress": "World address"
        },
        "returns": {
          "_0": "Created instance address"
        }
      }
    },
    "version": 1
  },
  "userdoc": {
    "kind": "user",
    "methods": {
      "create(address,uint256,string,address)": {
        "notice": "Creates Siege instance and initializes it with specified parameters"
      }
    },
    "version": 1
  },
  "storageLayout": {
    "storage": [],
    "types": null
  }
}