{
  "address": "0x1b9580C6e5BB8260b2c38b975EE59528Ee12476D",
  "abi": [
    {
      "inputs": [],
      "stateMutability": "nonpayable",
      "type": "constructor"
    },
    {
      "anonymous": false,
      "inputs": [
        {
          "indexed": true,
          "internalType": "address",
          "name": "owner",
          "type": "address"
        },
        {
          "indexed": true,
          "internalType": "address",
          "name": "spender",
          "type": "address"
        },
        {
          "indexed": false,
          "internalType": "uint256",
          "name": "value",
          "type": "uint256"
        }
      ],
      "name": "Approval",
      "type": "event"
    },
    {
      "anonymous": false,
      "inputs": [
        {
          "indexed": false,
          "internalType": "uint8",
          "name": "version",
          "type": "uint8"
        }
      ],
      "name": "Initialized",
      "type": "event"
    },
    {
      "anonymous": false,
      "inputs": [
        {
          "indexed": true,
          "internalType": "address",
          "name": "from",
          "type": "address"
        },
        {
          "indexed": true,
          "internalType": "address",
          "name": "to",
          "type": "address"
        },
        {
          "indexed": false,
          "internalType": "uint256",
          "name": "value",
          "type": "uint256"
        }
      ],
      "name": "Transfer",
      "type": "event"
    },
    {
      "inputs": [
        {
          "internalType": "address",
          "name": "owner",
          "type": "address"
        },
        {
          "internalType": "address",
          "name": "spender",
          "type": "address"
        }
      ],
      "name": "allowance",
      "outputs": [
        {
          "internalType": "uint256",
          "name": "",
          "type": "uint256"
        }
      ],
      "stateMutability": "view",
      "type": "function"
    },
    {
      "inputs": [
        {
          "internalType": "address",
          "name": "spender",
          "type": "address"
        },
        {
          "internalType": "uint256",
          "name": "amount",
          "type": "uint256"
        }
      ],
      "name": "approve",
      "outputs": [
        {
          "internalType": "bool",
          "name": "",
          "type": "bool"
        }
      ],
      "stateMutability": "nonpayable",
      "type": "function"
    },
    {
      "inputs": [],
      "name": "assetGroup",
      "outputs": [
        {
          "internalType": "string",
          "name": "",
          "type": "string"
        }
      ],
      "stateMutability": "view",
      "type": "function"
    },
    {
      "inputs": [],
      "name": "assetType",
      "outputs": [
        {
          "internalType": "string",
          "name": "",
          "type": "string"
        }
      ],
      "stateMutability": "view",
      "type": "function"
    },
    {
      "inputs": [
        {
          "internalType": "address",
          "name": "account",
          "type": "address"
        }
      ],
      "name": "balanceOf",
      "outputs": [
        {
          "internalType": "uint256",
          "name": "",
          "type": "uint256"
        }
      ],
      "stateMutability": "view",
      "type": "function"
    },
    {
      "inputs": [
        {
          "internalType": "uint256",
          "name": "amount",
          "type": "uint256"
        }
      ],
      "name": "burn",
      "outputs": [],
      "stateMutability": "nonpayable",
      "type": "function"
    },
    {
      "inputs": [
        {
          "internalType": "address",
          "name": "from",
          "type": "address"
        },
        {
          "internalType": "uint256",
          "name": "amount",
          "type": "uint256"
        }
      ],
      "name": "burnFrom",
      "outputs": [],
      "stateMutability": "nonpayable",
      "type": "function"
    },
    {
      "inputs": [],
      "name": "decimals",
      "outputs": [
        {
          "internalType": "uint8",
          "name": "",
          "type": "uint8"
        }
      ],
      "stateMutability": "view",
      "type": "function"
    },
    {
      "inputs": [
        {
          "internalType": "address",
          "name": "spender",
          "type": "address"
        },
        {
          "internalType": "uint256",
          "name": "subtractedValue",
          "type": "uint256"
        }
      ],
      "name": "decreaseAllowance",
      "outputs": [
        {
          "internalType": "bool",
          "name": "",
          "type": "bool"
        }
      ],
      "stateMutability": "nonpayable",
      "type": "function"
    },
    {
      "inputs": [],
      "name": "epoch",
      "outputs": [
        {
          "internalType": "contract IEpoch",
          "name": "",
          "type": "address"
        }
      ],
      "stateMutability": "view",
      "type": "function"
    },
    {
      "inputs": [],
      "name": "epochNumber",
      "outputs": [
        {
          "internalType": "uint256",
          "name": "",
          "type": "uint256"
        }
      ],
      "stateMutability": "view",
      "type": "function"
    },
    {
      "inputs": [
        {
          "internalType": "address",
          "name": "spender",
          "type": "address"
        },
        {
          "internalType": "uint256",
          "name": "addedValue",
          "type": "uint256"
        }
      ],
      "name": "increaseAllowance",
      "outputs": [
        {
          "internalType": "bool",
          "name": "",
          "type": "bool"
        }
      ],
      "stateMutability": "nonpayable",
      "type": "function"
    },
    {
      "inputs": [],
      "name": "init",
      "outputs": [],
      "stateMutability": "nonpayable",
      "type": "function"
    },
    {
      "inputs": [
        {
          "internalType": "address",
          "name": "to",
          "type": "address"
        },
        {
          "internalType": "uint256",
          "name": "amount",
          "type": "uint256"
        }
      ],
      "name": "mint",
      "outputs": [],
      "stateMutability": "nonpayable",
      "type": "function"
    },
    {
      "inputs": [],
      "name": "name",
      "outputs": [
        {
          "internalType": "string",
          "name": "",
          "type": "string"
        }
      ],
      "stateMutability": "view",
      "type": "function"
    },
    {
      "inputs": [],
      "name": "registry",
      "outputs": [
        {
          "internalType": "contract IRegistry",
          "name": "",
          "type": "address"
        }
      ],
      "stateMutability": "view",
      "type": "function"
    },
    {
      "inputs": [],
      "name": "symbol",
      "outputs": [
        {
          "internalType": "string",
          "name": "",
          "type": "string"
        }
      ],
      "stateMutability": "view",
      "type": "function"
    },
    {
      "inputs": [],
      "name": "totalSupply",
      "outputs": [
        {
          "internalType": "uint256",
          "name": "",
          "type": "uint256"
        }
      ],
      "stateMutability": "view",
      "type": "function"
    },
    {
      "inputs": [
        {
          "internalType": "address",
          "name": "to",
          "type": "address"
        },
        {
          "internalType": "uint256",
          "name": "amount",
          "type": "uint256"
        }
      ],
      "name": "transfer",
      "outputs": [
        {
          "internalType": "bool",
          "name": "",
          "type": "bool"
        }
      ],
      "stateMutability": "nonpayable",
      "type": "function"
    },
    {
      "inputs": [
        {
          "internalType": "address",
          "name": "from",
          "type": "address"
        },
        {
          "internalType": "address",
          "name": "to",
          "type": "address"
        },
        {
          "internalType": "uint256",
          "name": "amount",
          "type": "uint256"
        }
      ],
      "name": "transferFrom",
      "outputs": [
        {
          "internalType": "bool",
          "name": "",
          "type": "bool"
        }
      ],
      "stateMutability": "nonpayable",
      "type": "function"
    },
    {
      "inputs": [],
      "name": "world",
      "outputs": [
        {
          "internalType": "contract IWorld",
          "name": "",
          "type": "address"
        }
      ],
      "stateMutability": "view",
      "type": "function"
    }
  ],
  "transactionHash": "0xf426ee7e7d9a927f3288b3a16c40120496dae47ff25e8a27872a24f3d7a376fd",
  "args": [],
  "numDeployments": 1,
  "solcInputHash": "d40fd766cc3fa0d4c836779e74bc4f2f",
  "bytecode": "0x60806040523480156200001157600080fd5b506040805160208082018352600080835283519182019093529182529060036200003c8382620000f9565b5060046200004b8282620000f9565b505050620001c5565b634e487b7160e01b600052604160045260246000fd5b600181811c908216806200007f57607f821691505b602082108103620000a057634e487b7160e01b600052602260045260246000fd5b50919050565b601f821115620000f457600081815260208120601f850160051c81016020861015620000cf5750805b601f850160051c820191505b81811015620000f057828155600101620000db565b5050505b505050565b81516001600160401b0381111562000115576200011562000054565b6200012d816200012684546200006a565b84620000a6565b602080601f8311600181146200016557600084156200014c5750858301515b600019600386901b1c1916600185901b178555620000f0565b600085815260208120601f198616915b82811015620001965788860151825594840194600190910190840162000175565b5085821015620001b55787850151600019600388901b60f8161c191681555b5050505050600190811b01905550565b611abe80620001d56000396000f3fe608060405234801561001057600080fd5b50600436106101475760003560e01c806370a08231116100c85780639abb3cae1161008c578063dd62ed3e11610066578063dd62ed3e146102a6578063e1c7392a146102df578063f4145a83146102e757600080fd5b80639abb3cae14610278578063a457c2d714610280578063a9059cbb1461029357600080fd5b806370a082311461022457806379cc67901461024d5780637b10399914610260578063900cf0cf1461026857806395d89b411461027057600080fd5b8063313ce5671161010f578063313ce567146101d257806339509351146101e15780633fe3347a146101f457806340c10f19146101fc57806342966c681461021157600080fd5b806306fdde031461014c578063095ea7b31461016a57806318160ddd1461018d57806323b872dd1461019f57806330b67baa146101b2575b600080fd5b6101546102fc565b60405161016191906117b7565b60405180910390f35b61017d6101783660046117ff565b610340565b6040519015158152602001610161565b6002545b604051908152602001610161565b61017d6101ad36600461182b565b61035a565b6101ba610392565b6040516001600160a01b039091168152602001610161565b60405160128152602001610161565b61017d6101ef3660046117ff565b6103ca565b610154610409565b61020f61020a3660046117ff565b6104bd565b005b61020f61021f36600461186c565b6105d5565b610191610232366004611885565b6001600160a01b031660009081526020819052604090205490565b61020f61025b3660046117ff565b6105e1565b6101ba610603565b6101ba61066e565b6101546106d7565b610154610702565b61017d61028e3660046117ff565b610733565b61017d6102a13660046117ff565b6107d0565b6101916102b43660046118a2565b6001600160a01b03918216600090815260016020908152604080832093909416825291909152205490565b61020f6107de565b600080516020611a6983398151915254610191565b606061031c610317600080516020611a698339815191525490565b6108e6565b60405160200161032c91906118db565b604051602081830303815290604052905090565b60003361034e8185856109ef565b60019150505b92915050565b600061036533610b14565b1561037d57610375848484610bdd565b50600161038b565b610388848484610db8565b90505b9392505050565b60006103c57f6c85b93e587873fbe6712f3b438d42c2945689b262f7bd34b8ea4e3f832a89e6546001600160a01b031690565b905090565b3360008181526001602090815260408083206001600160a01b038716845290915281205490919061034e9082908690610404908790611922565b6109ef565b60607f6c85b93e587873fbe6712f3b438d42c2945689b262f7bd34b8ea4e3f832a89e6600401805461043a90611935565b80601f016020809104026020016040519081016040528092919081815260200182805461046690611935565b80156104b35780601f10610488576101008083540402835291602001916104b3565b820191906000526020600020905b81548152906001019060200180831161049657829003601f168201915b5050505050905090565b6104c5610392565b6001600160a01b0316336001600160a01b03161480610576575060006104e9610392565b6001600160a01b031663ebbe803461050d600080516020611a698339815191525490565b6040516001600160e01b031960e084901b1681526004810191909152336024820152604401602060405180830381865afa15801561054f573d6000803e3d6000fd5b505050506040513d601f19601f82011682018060405250810190610573919061196f565b14155b6105c75760405162461bcd60e51b815260206004820152601b60248201527f6f6e6c79576f726c64417373657446726f6d53616d6545706f6368000000000060448201526064015b60405180910390fd5b6105d18282610dd1565b5050565b6105de81610ebc565b50565b6105ea33610b14565b156105f9576105d18282610ec2565b6105d18282611014565b600061060d610392565b6001600160a01b0316637b1039996040518163ffffffff1660e01b8152600401602060405180830381865afa15801561064a573d6000803e3d6000fd5b505050506040513d601f19601f820116820180604052508101906103c59190611988565b6000610678610392565b6001600160a01b031663c6b61e4c61069c600080516020611a698339815191525490565b6040518263ffffffff1660e01b81526004016106ba91815260200190565b602060405180830381865afa15801561064a573d6000803e3d6000fd5b60606106f2610317600080516020611a698339815191525490565b60405160200161032c91906119a5565b60607f6c85b93e587873fbe6712f3b438d42c2945689b262f7bd34b8ea4e3f832a89e6600301805461043a90611935565b3360008181526001602090815260408083206001600160a01b0387168452909152812054909190838110156107b85760405162461bcd60e51b815260206004820152602560248201527f45524332303a2064656372656173656420616c6c6f77616e63652062656c6f77604482015264207a65726f60d81b60648201526084016105be565b6107c582868684036109ef565b506001949350505050565b60003361034e818585610bdd565b600554610100900460ff16158080156107fe5750600554600160ff909116105b806108185750303b158015610818575060055460ff166001145b61087b5760405162461bcd60e51b815260206004820152602e60248201527f496e697469616c697a61626c653a20636f6e747261637420697320616c72656160448201526d191e481a5b9a5d1a585b1a5e995960921b60648201526084016105be565b6005805460ff19166001179055801561089e576005805461ff0019166101001790555b80156105de576005805461ff0019169055604051600181527f7f26b83ff96e1f2b6a682f133852f6798a09c465da95921460cefb38474024989060200160405180910390a150565b60608160000361090d5750506040805180820190915260018152600360fc1b602082015290565b8160005b81156109375780610921816119d2565b91506109309050600a83611a01565b9150610911565b60008167ffffffffffffffff81111561095257610952611a15565b6040519080825280601f01601f19166020018201604052801561097c576020820181803683370190505b5090505b84156109e757610991600183611a2b565b915061099e600a86611a3e565b6109a9906030611922565b60f81b8183815181106109be576109be611a52565b60200101906001600160f81b031916908160001a9053506109e0600a86611a01565b9450610980565b949350505050565b6001600160a01b038316610a515760405162461bcd60e51b8152602060048201526024808201527f45524332303a20617070726f76652066726f6d20746865207a65726f206164646044820152637265737360e01b60648201526084016105be565b6001600160a01b038216610ab25760405162461bcd60e51b815260206004820152602260248201527f45524332303a20617070726f766520746f20746865207a65726f206164647265604482015261737360f01b60648201526084016105be565b6001600160a01b0383811660008181526001602090815260408083209487168084529482529182902085905590518481527f8c5be1e5ebec7d5bd14f71427d1e84f3dd0314c0f7b2291e5b200ac8c7c3b92591015b60405180910390a3505050565b6000610b1e610392565b6001600160a01b0316826001600160a01b0316148061035457506000610b42610392565b6001600160a01b031663ebbe8034610b66600080516020611a698339815191525490565b6040516001600160e01b031960e084901b16815260048101919091526001600160a01b0386166024820152604401602060405180830381865afa158015610bb1573d6000803e3d6000fd5b505050506040513d601f19601f82011682018060405250810190610bd5919061196f565b141592915050565b6001600160a01b038316610c415760405162461bcd60e51b815260206004820152602560248201527f45524332303a207472616e736665722066726f6d20746865207a65726f206164604482015264647265737360d81b60648201526084016105be565b6001600160a01b038216610ca35760405162461bcd60e51b815260206004820152602360248201527f45524332303a207472616e7366657220746f20746865207a65726f206164647260448201526265737360e81b60648201526084016105be565b610cae838383611029565b6001600160a01b03831660009081526020819052604090205481811015610d265760405162461bcd60e51b815260206004820152602660248201527f45524332303a207472616e7366657220616d6f756e7420657863656564732062604482015265616c616e636560d01b60648201526084016105be565b6001600160a01b03808516600090815260208190526040808220858503905591851681529081208054849290610d5d908490611922565b92505081905550826001600160a01b0316846001600160a01b03167fddf252ad1be2c89b69c2b068fc378daa952ba7f163c4a11628f55a4df523b3ef84604051610da991815260200190565b60405180910390a35b50505050565b600033610dc68582856116a3565b6107c5858585610bdd565b6001600160a01b038216610e275760405162461bcd60e51b815260206004820152601f60248201527f45524332303a206d696e7420746f20746865207a65726f20616464726573730060448201526064016105be565b610e3360008383611029565b8060026000828254610e459190611922565b90915550506001600160a01b03821660009081526020819052604081208054839290610e72908490611922565b90915550506040518181526001600160a01b038316906000907fddf252ad1be2c89b69c2b068fc378daa952ba7f163c4a11628f55a4df523b3ef9060200160405180910390a35050565b6105de33825b6001600160a01b038216610f225760405162461bcd60e51b815260206004820152602160248201527f45524332303a206275726e2066726f6d20746865207a65726f206164647265736044820152607360f81b60648201526084016105be565b610f2e82600083611029565b6001600160a01b03821660009081526020819052604090205481811015610fa25760405162461bcd60e51b815260206004820152602260248201527f45524332303a206275726e20616d6f756e7420657863656564732062616c616e604482015261636560f01b60648201526084016105be565b6001600160a01b0383166000908152602081905260408120838303905560028054849290610fd1908490611a2b565b90915550506040518281526000906001600160a01b038516907fddf252ad1be2c89b69c2b068fc378daa952ba7f163c4a11628f55a4df523b3ef90602001610b07565b61101f8233836116a3565b6105d18282610ec2565b604080518082018252600b81526a1ddbdc9ad95c9cd41bdbdb60aa1b60209182015281518083018352600a8152691cd95d1d1b195b595b9d60b21b90820152815180830190925260088252676275696c64696e6760c01b9101527f6dd10f5694032abddf028b131aa9186f0ec727b5d419b1e0623133ed6f1229287f6522b1ac0c0c078f1fcc696b9cf72c59bb3624b7d2a9d82059b2f3832fd9973d7f010b6fd4eff8a0ca8c7925f2d29e6173e90462d56ae99e39fa817c79f402851860006110f0610392565b9050600061110a600080516020611a698339815191525490565b604051633aefa00d60e21b8152600481018290526001600160a01b038a8116602483015291925060009187919085169063ebbe803490604401602060405180830381865afa158015611160573d6000803e3d6000fd5b505050506040513d601f19601f82011682018060405250810190611184919061196f565b149050600085846001600160a01b031663ebbe8034858d6040518363ffffffff1660e01b81526004016111ca9291909182526001600160a01b0316602082015260400190565b602060405180830381865afa1580156111e7573d6000803e3d6000fd5b505050506040513d601f19601f8201168201806040525081019061120b919061196f565b149050600085856001600160a01b031663ebbe8034868e6040518363ffffffff1660e01b81526004016112519291909182526001600160a01b0316602082015260400190565b602060405180830381865afa15801561126e573d6000803e3d6000fd5b505050506040513d601f19601f82011682018060405250810190611292919061196f565b1490506001600160a01b038b1615806112a85750825b806112b05750815b806112b85750805b6112f35760405162461bcd60e51b815260206004820152600c60248201526b696e76616c69642066726f6d60a01b60448201526064016105be565b604051633aefa00d60e21b8152600481018590526001600160a01b038b81166024830152600091899188169063ebbe803490604401602060405180830381865afa158015611345573d6000803e3d6000fd5b505050506040513d601f19601f82011682018060405250810190611369919061196f565b149050600087876001600160a01b031663ebbe8034888f6040518363ffffffff1660e01b81526004016113af9291909182526001600160a01b0316602082015260400190565b602060405180830381865afa1580156113cc573d6000803e3d6000fd5b505050506040513d601f19601f820116820180604052508101906113f0919061196f565b1490506001600160a01b038c1615806114065750815b8061140e5750805b6114475760405162461bcd60e51b815260206004820152600a602482015269696e76616c696420746f60b01b60448201526064016105be565b6001600160a01b038c166114645750505050505050505050505050565b6001600160a01b038d161580156114785750815b1561148c5750505050505050505050505050565b8380156114965750805b80156114bb57508c6001600160a01b03166114b08d61172f565b6001600160a01b0316145b15611522578b6001600160a01b0316631d8557d76040518163ffffffff1660e01b8152600401600060405180830381600087803b1580156114fb57600080fd5b505af115801561150f573d6000803e3d6000fd5b5050505050505050505050505050505050565b82801561152c5750815b801561155157508b6001600160a01b03166115468e61172f565b6001600160a01b0316145b15611591578c6001600160a01b0316631d8557d76040518163ffffffff1660e01b8152600401600060405180830381600087803b1580156114fb57600080fd5b82801561159b5750805b80156115c857506115ab8c61172f565b6001600160a01b03166115bd8e61172f565b6001600160a01b0316145b1561165b578c6001600160a01b0316631d8557d76040518163ffffffff1660e01b8152600401600060405180830381600087803b15801561160857600080fd5b505af115801561161c573d6000803e3d6000fd5b505050508b6001600160a01b0316631d8557d76040518163ffffffff1660e01b8152600401600060405180830381600087803b1580156114fb57600080fd5b60405162461bcd60e51b815260206004820152601860248201527f576f726b6572207472616e736665722064697361626c6564000000000000000060448201526064016105be565b6001600160a01b038381166000908152600160209081526040808320938616835292905220546000198114610db257818110156117225760405162461bcd60e51b815260206004820152601d60248201527f45524332303a20696e73756666696369656e7420616c6c6f77616e636500000060448201526064016105be565b610db284848484036109ef565b6000816001600160a01b031663fe7f15ef6040518163ffffffff1660e01b8152600401602060405180830381865afa15801561176f573d6000803e3d6000fd5b505050506040513d601f19601f820116820180604052508101906103549190611988565b60005b838110156117ae578181015183820152602001611796565b50506000910152565b60208152600082518060208401526117d6816040850160208701611793565b601f01601f19169190910160400192915050565b6001600160a01b03811681146105de57600080fd5b6000806040838503121561181257600080fd5b823561181d816117ea565b946020939093013593505050565b60008060006060848603121561184057600080fd5b833561184b816117ea565b9250602084013561185b816117ea565b929592945050506040919091013590565b60006020828403121561187e57600080fd5b5035919050565b60006020828403121561189757600080fd5b813561038b816117ea565b600080604083850312156118b557600080fd5b82356118c0816117ea565b915060208301356118d0816117ea565b809150509250929050565b68015dbdc9ad95c9cc8160be1b8152600082516118ff816009850160208701611793565b9190910160090192915050565b634e487b7160e01b600052601160045260246000fd5b808201808211156103545761035461190c565b600181811c9082168061194957607f821691505b60208210810361196957634e487b7160e01b600052602260045260246000fd5b50919050565b60006020828403121561198157600080fd5b5051919050565b60006020828403121561199a57600080fd5b815161038b816117ea565b64015d492c8160de1b8152600082516119c5816005850160208701611793565b9190910160050192915050565b6000600182016119e4576119e461190c565b5060010190565b634e487b7160e01b600052601260045260246000fd5b600082611a1057611a106119eb565b500490565b634e487b7160e01b600052604160045260246000fd5b818103818111156103545761035461190c565b600082611a4d57611a4d6119eb565b500690565b634e487b7160e01b600052603260045260246000fdfe6c85b93e587873fbe6712f3b438d42c2945689b262f7bd34b8ea4e3f832a89e7a2646970667358221220955a45d5c7897cbc82726b152974a46ae6a60da304c63e46ed7aa88c268cb55b64736f6c63430008100033",
  "devdoc": {
    "kind": "dev",
    "methods": {
      "allowance(address,address)": {
        "details": "See {IERC20-allowance}."
      },
      "approve(address,uint256)": {
        "details": "See {IERC20-approve}. NOTE: If `amount` is the maximum `uint256`, the allowance is not updated on `transferFrom`. This is semantically equivalent to an infinite approval. Requirements: - `spender` cannot be the zero address."
      },
      "assetGroup()": {
        "details": "Reads data from proxy's storage",
        "returns": {
          "_0": "World asset group"
        }
      },
      "assetType()": {
        "details": "Reads data from proxy's storage",
        "returns": {
          "_0": "World asset type"
        }
      },
      "balanceOf(address)": {
        "details": "See {IERC20-balanceOf}."
      },
      "constructor": {
        "details": "Removes error for compiling, default constructor does nothing because its a proxy"
      },
      "decimals()": {
        "details": "Returns the number of decimals used to get its user representation. For example, if `decimals` equals `2`, a balance of `505` tokens should be displayed to a user as `5.05` (`505 / 10 ** 2`). Tokens usually opt for a value of 18, imitating the relationship between Ether and Wei. This is the value {ERC20} uses, unless this function is overridden; NOTE: This information is only used for _display_ purposes: it in no way affects any of the arithmetic of the contract, including {IERC20-balanceOf} and {IERC20-transfer}."
      },
      "decreaseAllowance(address,uint256)": {
        "details": "Atomically decreases the allowance granted to `spender` by the caller. This is an alternative to {approve} that can be used as a mitigation for problems described in {IERC20-approve}. Emits an {Approval} event indicating the updated allowance. Requirements: - `spender` cannot be the zero address. - `spender` must have allowance for the caller of at least `subtractedValue`."
      },
      "epoch()": {
        "details": "Value is dereferenced from proxy storage and world"
      },
      "epochNumber()": {
        "details": "Reads data from proxy's storage",
        "returns": {
          "_0": "Epoch number"
        }
      },
      "increaseAllowance(address,uint256)": {
        "details": "Atomically increases the allowance granted to `spender` by the caller. This is an alternative to {approve} that can be used as a mitigation for problems described in {IERC20-approve}. Emits an {Approval} event indicating the updated allowance. Requirements: - `spender` cannot be the zero address."
      },
      "init()": {
        "details": "Called by factory contract which creates current instance"
      },
      "mint(address,uint256)": {
        "details": "Even though function is opened, it can only be called by world asset",
        "params": {
          "amount": "Amount of units to mint",
          "to": "Address which will receive workers"
        }
      },
      "name()": {
        "details": "Returns the name of the token."
      },
      "registry()": {
        "details": "Value is dereferenced from world"
      },
      "symbol()": {
        "details": "Returns the symbol of the token."
      },
      "totalSupply()": {
        "details": "See {IERC20-totalSupply}."
      },
      "transfer(address,uint256)": {
        "details": "See {IERC20-transfer}. Requirements: - `to` cannot be the zero address. - the caller must have a balance of at least `amount`."
      },
      "transferFrom(address,address,uint256)": {
        "details": "Moves `amount` tokens from `from` to `to` using the allowance mechanism. `amount` is then deducted from the caller's allowance. Returns a boolean value indicating whether the operation succeeded. Emits a {Transfer} event."
      },
      "world()": {
        "details": "Value is dereferenced from proxy storage"
      }
    },
    "version": 1
  },
  "userdoc": {
    "kind": "user",
    "methods": {
      "assetGroup()": {
        "notice": "Returns world asset group"
      },
      "assetType()": {
        "notice": "Returns world asset type"
      },
      "epoch()": {
        "notice": "Epoch"
      },
      "epochNumber()": {
        "notice": "Returns epoch number"
      },
      "init()": {
        "notice": "Proxy initializer"
      },
      "mint(address,uint256)": {
        "notice": "Mints workers to specified address"
      },
      "registry()": {
        "notice": "Registry"
      },
      "world()": {
        "notice": "World"
      }
    },
    "version": 1
  },
  "storageLayout": {
    "storage": [
      {
        "astId": 1754,
        "contract": "contracts/core/assets/tokens/workers/Workers.sol:Workers",
        "label": "_balances",
        "offset": 0,
        "slot": "0",
        "type": "t_mapping(t_address,t_uint256)"
      },
      {
        "astId": 1760,
        "contract": "contracts/core/assets/tokens/workers/Workers.sol:Workers",
        "label": "_allowances",
        "offset": 0,
        "slot": "1",
        "type": "t_mapping(t_address,t_mapping(t_address,t_uint256))"
      },
      {
        "astId": 1762,
        "contract": "contracts/core/assets/tokens/workers/Workers.sol:Workers",
        "label": "_totalSupply",
        "offset": 0,
        "slot": "2",
        "type": "t_uint256"
      },
      {
        "astId": 1764,
        "contract": "contracts/core/assets/tokens/workers/Workers.sol:Workers",
        "label": "_name",
        "offset": 0,
        "slot": "3",
        "type": "t_string_storage"
      },
      {
        "astId": 1766,
        "contract": "contracts/core/assets/tokens/workers/Workers.sol:Workers",
        "label": "_symbol",
        "offset": 0,
        "slot": "4",
        "type": "t_string_storage"
      },
      {
        "astId": 119,
        "contract": "contracts/core/assets/tokens/workers/Workers.sol:Workers",
        "label": "_initialized",
        "offset": 0,
        "slot": "5",
        "type": "t_uint8"
      },
      {
        "astId": 122,
        "contract": "contracts/core/assets/tokens/workers/Workers.sol:Workers",
        "label": "_initializing",
        "offset": 1,
        "slot": "5",
        "type": "t_bool"
      }
    ],
    "types": {
      "t_address": {
        "encoding": "inplace",
        "label": "address",
        "numberOfBytes": "20"
      },
      "t_bool": {
        "encoding": "inplace",
        "label": "bool",
        "numberOfBytes": "1"
      },
      "t_mapping(t_address,t_mapping(t_address,t_uint256))": {
        "encoding": "mapping",
        "key": "t_address",
        "label": "mapping(address => mapping(address => uint256))",
        "numberOfBytes": "32",
        "value": "t_mapping(t_address,t_uint256)"
      },
      "t_mapping(t_address,t_uint256)": {
        "encoding": "mapping",
        "key": "t_address",
        "label": "mapping(address => uint256)",
        "numberOfBytes": "32",
        "value": "t_uint256"
      },
      "t_string_storage": {
        "encoding": "bytes",
        "label": "string",
        "numberOfBytes": "32"
      },
      "t_uint256": {
        "encoding": "inplace",
        "label": "uint256",
        "numberOfBytes": "32"
      },
      "t_uint8": {
        "encoding": "inplace",
        "label": "uint8",
        "numberOfBytes": "1"
      }
    }
  }
}