{
  "address": "0x5B78FAf5E017AE2ef68A0aEfeDFA5186248E40d4",
  "abi": [
    {
      "anonymous": false,
      "inputs": [
        {
          "indexed": false,
          "internalType": "address",
          "name": "battleAddress",
          "type": "address"
        }
      ],
      "name": "ExitedFromBattle",
      "type": "event"
    },
    {
      "anonymous": false,
      "inputs": [
        {
          "indexed": false,
          "internalType": "uint8",
          "name": "version",
          "type": "uint8"
        }
      ],
      "name": "Initialized",
      "type": "event"
    },
    {
      "anonymous": false,
      "inputs": [
        {
          "indexed": true,
          "internalType": "address",
          "name": "battleAddress",
          "type": "address"
        },
        {
          "indexed": false,
          "internalType": "uint256",
          "name": "side",
          "type": "uint256"
        }
      ],
      "name": "JoinedBattle",
      "type": "event"
    },
    {
      "anonymous": false,
      "inputs": [
        {
          "indexed": true,
          "internalType": "address",
          "name": "destinationSettlement",
          "type": "address"
        },
        {
          "indexed": true,
          "internalType": "uint256",
          "name": "movementStartTime",
          "type": "uint256"
        },
        {
          "indexed": true,
          "internalType": "uint256",
          "name": "movementFinishTime",
          "type": "uint256"
        },
        {
          "indexed": false,
          "internalType": "uint32[]",
          "name": "path",
          "type": "uint32[]"
        }
      ],
      "name": "MovingTo",
      "type": "event"
    },
    {
      "anonymous": false,
      "inputs": [
        {
          "indexed": false,
          "internalType": "address",
          "name": "battleAddress",
          "type": "address"
        },
        {
          "indexed": false,
          "internalType": "address",
          "name": "targetArmyAddress",
          "type": "address"
        }
      ],
      "name": "NewBattle",
      "type": "event"
    },
    {
      "anonymous": false,
      "inputs": [
        {
          "indexed": false,
          "internalType": "string",
          "name": "unitName",
          "type": "string"
        },
        {
          "indexed": false,
          "internalType": "uint256",
          "name": "value",
          "type": "uint256"
        }
      ],
      "name": "UnitsChanged",
      "type": "event"
    },
    {
      "anonymous": false,
      "inputs": [
        {
          "indexed": false,
          "internalType": "address",
          "name": "settlementAddress",
          "type": "address"
        },
        {
          "indexed": false,
          "internalType": "uint32",
          "name": "position",
          "type": "uint32"
        }
      ],
      "name": "UpdatedPosition",
      "type": "event"
    },
    {
      "inputs": [],
      "name": "assetGroup",
      "outputs": [
        {
          "internalType": "string",
          "name": "",
          "type": "string"
        }
      ],
      "stateMutability": "view",
      "type": "function"
    },
    {
      "inputs": [],
      "name": "assetType",
      "outputs": [
        {
          "internalType": "string",
          "name": "",
          "type": "string"
        }
      ],
      "stateMutability": "view",
      "type": "function"
    },
    {
      "inputs": [],
      "name": "battle",
      "outputs": [
        {
          "internalType": "contract IBattle",
          "name": "",
          "type": "address"
        }
      ],
      "stateMutability": "view",
      "type": "function"
    },
    {
      "inputs": [
        {
          "internalType": "string[]",
          "name": "unitNames",
          "type": "string[]"
        },
        {
          "internalType": "uint256[]",
          "name": "unitsCount",
          "type": "uint256[]"
        }
      ],
      "name": "burnUnits",
      "outputs": [],
      "stateMutability": "nonpayable",
      "type": "function"
    },
    {
      "inputs": [
        {
          "internalType": "address",
          "name": "buildingAddress",
          "type": "address"
        },
        {
          "internalType": "uint256",
          "name": "_points",
          "type": "uint256"
        }
      ],
      "name": "claimResources",
      "outputs": [],
      "stateMutability": "nonpayable",
      "type": "function"
    },
    {
      "inputs": [],
      "name": "currentPosition",
      "outputs": [
        {
          "internalType": "uint32",
          "name": "",
          "type": "uint32"
        }
      ],
      "stateMutability": "view",
      "type": "function"
    },
    {
      "inputs": [],
      "name": "currentSettlement",
      "outputs": [
        {
          "internalType": "contract ISettlement",
          "name": "",
          "type": "address"
        }
      ],
      "stateMutability": "view",
      "type": "function"
    },
    {
      "inputs": [
        {
          "internalType": "string[]",
          "name": "unitTypes",
          "type": "string[]"
        },
        {
          "internalType": "uint256[]",
          "name": "unitsAmounts",
          "type": "uint256[]"
        }
      ],
      "name": "demilitarize",
      "outputs": [],
      "stateMutability": "nonpayable",
      "type": "function"
    },
    {
      "inputs": [],
      "name": "destinationPosition",
      "outputs": [
        {
          "internalType": "uint32",
          "name": "",
          "type": "uint32"
        }
      ],
      "stateMutability": "view",
      "type": "function"
    },
    {
      "inputs": [],
      "name": "epoch",
      "outputs": [
        {
          "internalType": "contract IEpoch",
          "name": "",
          "type": "address"
        }
      ],
      "stateMutability": "view",
      "type": "function"
    },
    {
      "inputs": [],
      "name": "epochNumber",
      "outputs": [
        {
          "internalType": "uint256",
          "name": "",
          "type": "uint256"
        }
      ],
      "stateMutability": "view",
      "type": "function"
    },
    {
      "inputs": [],
      "name": "getCurrentPosition",
      "outputs": [
        {
          "internalType": "uint32",
          "name": "",
          "type": "uint32"
        }
      ],
      "stateMutability": "view",
      "type": "function"
    },
    {
      "inputs": [],
      "name": "getMovementPath",
      "outputs": [
        {
          "internalType": "uint32[]",
          "name": "",
          "type": "uint32[]"
        }
      ],
      "stateMutability": "view",
      "type": "function"
    },
    {
      "inputs": [],
      "name": "getOwner",
      "outputs": [
        {
          "internalType": "address",
          "name": "",
          "type": "address"
        }
      ],
      "stateMutability": "view",
      "type": "function"
    },
    {
      "inputs": [],
      "name": "getTotalSiegeSupport",
      "outputs": [
        {
          "internalType": "uint256",
          "name": "totalSiegeSupport",
          "type": "uint256"
        }
      ],
      "stateMutability": "view",
      "type": "function"
    },
    {
      "inputs": [
        {
          "internalType": "address",
          "name": "settlementAddress",
          "type": "address"
        }
      ],
      "name": "init",
      "outputs": [],
      "stateMutability": "nonpayable",
      "type": "function"
    },
    {
      "inputs": [],
      "name": "isHomePosition",
      "outputs": [
        {
          "internalType": "bool",
          "name": "",
          "type": "bool"
        }
      ],
      "stateMutability": "view",
      "type": "function"
    },
    {
      "inputs": [
        {
          "internalType": "address",
          "name": "battleAddress",
          "type": "address"
        },
        {
          "internalType": "uint256",
          "name": "side",
          "type": "uint256"
        }
      ],
      "name": "joinBattle",
      "outputs": [],
      "stateMutability": "nonpayable",
      "type": "function"
    },
    {
      "inputs": [],
      "name": "lastDemilitarizationTime",
      "outputs": [
        {
          "internalType": "uint256",
          "name": "",
          "type": "uint256"
        }
      ],
      "stateMutability": "view",
      "type": "function"
    },
    {
      "inputs": [
        {
          "internalType": "uint32[]",
          "name": "path",
          "type": "uint32[]"
        },
        {
          "internalType": "uint256",
          "name": "foodToSpendOnFeeding",
          "type": "uint256"
        }
      ],
      "name": "move",
      "outputs": [],
      "stateMutability": "nonpayable",
      "type": "function"
    },
    {
      "inputs": [
        {
          "internalType": "uint256",
          "name": "",
          "type": "uint256"
        }
      ],
      "name": "movementPath",
      "outputs": [
        {
          "internalType": "uint32",
          "name": "",
          "type": "uint32"
        }
      ],
      "stateMutability": "view",
      "type": "function"
    },
    {
      "inputs": [],
      "name": "movementTiming",
      "outputs": [
        {
          "internalType": "uint64",
          "name": "startTime",
          "type": "uint64"
        },
        {
          "internalType": "uint64",
          "name": "endTime",
          "type": "uint64"
        }
      ],
      "stateMutability": "view",
      "type": "function"
    },
    {
      "inputs": [
        {
          "internalType": "address",
          "name": "targetArmyAddress",
          "type": "address"
        },
        {
          "internalType": "string[]",
          "name": "maxUnitTypesToAttack",
          "type": "string[]"
        },
        {
          "internalType": "uint256[]",
          "name": "maxUnitsToAttack",
          "type": "uint256[]"
        }
      ],
      "name": "newBattle",
      "outputs": [],
      "stateMutability": "nonpayable",
      "type": "function"
    },
    {
      "inputs": [],
      "name": "registry",
      "outputs": [
        {
          "internalType": "contract IRegistry",
          "name": "",
          "type": "address"
        }
      ],
      "stateMutability": "view",
      "type": "function"
    },
    {
      "inputs": [
        {
          "internalType": "address",
          "name": "battleAddress",
          "type": "address"
        }
      ],
      "name": "setBattle",
      "outputs": [],
      "stateMutability": "nonpayable",
      "type": "function"
    },
    {
      "inputs": [
        {
          "internalType": "address",
          "name": "_siegeAddress",
          "type": "address"
        }
      ],
      "name": "setSiege",
      "outputs": [],
      "stateMutability": "nonpayable",
      "type": "function"
    },
    {
      "inputs": [
        {
          "internalType": "string[]",
          "name": "_addUnitsNames",
          "type": "string[]"
        },
        {
          "internalType": "uint256[]",
          "name": "_addUnitsCount",
          "type": "uint256[]"
        },
        {
          "internalType": "string[]",
          "name": "_removeUnitsNames",
          "type": "string[]"
        },
        {
          "internalType": "uint256[]",
          "name": "_removeUnitsCount",
          "type": "uint256[]"
        }
      ],
      "name": "setUnitsInSiege",
      "outputs": [],
      "stateMutability": "nonpayable",
      "type": "function"
    },
    {
      "inputs": [],
      "name": "siege",
      "outputs": [
        {
          "internalType": "contract ISiege",
          "name": "",
          "type": "address"
        }
      ],
      "stateMutability": "view",
      "type": "function"
    },
    {
      "inputs": [],
      "name": "stunTiming",
      "outputs": [
        {
          "internalType": "uint64",
          "name": "startTime",
          "type": "uint64"
        },
        {
          "internalType": "uint64",
          "name": "endTime",
          "type": "uint64"
        }
      ],
      "stateMutability": "view",
      "type": "function"
    },
    {
      "inputs": [],
      "name": "updateState",
      "outputs": [],
      "stateMutability": "nonpayable",
      "type": "function"
    },
    {
      "inputs": [],
      "name": "world",
      "outputs": [
        {
          "internalType": "contract IWorld",
          "name": "",
          "type": "address"
        }
      ],
      "stateMutability": "view",
      "type": "function"
    }
  ],
  "transactionHash": "0x6eefd92677b2e46746fb85efbcf93565f5e17562071e30b464fa88db91b8580a",
  "args": [],
  "numDeployments": 1,
  "solcInputHash": "d40fd766cc3fa0d4c836779e74bc4f2f",
  "bytecode": "0x608060405234801561001057600080fd5b50615cc580620000216000396000f3fe608060405234801561001057600080fd5b50600436106101e55760003560e01c8063789642691161010f578063a74bd4f6116100a2578063ee74a60711610071578063ee74a6071461040e578063f4145a8314610421578063fd29f88414610436578063fe7f15ef1461044d57600080fd5b8063a74bd4f6146103be578063ab6a9acb146103dc578063b3f66aa3146103e4578063d534d636146103f757600080fd5b80639abb3cae116100de5780639abb3cae1461037d5780639c6d5f24146103855780639cba43f814610398578063a0fee4f2146103ab57600080fd5b806378964269146103525780637b10399914610365578063893d20e81461036d578063900cf0cf1461037557600080fd5b806330b67baa11610187578063418f35cc11610156578063418f35cc14610311578063446bd3291461031957806344e445451461032c5780634dcb7bd01461033f57600080fd5b806330b67baa1461029e5780633b81149d146102a65780633cb9758a146102be5780633fe3347a146102fc57600080fd5b806319ab453c116101c357806319ab453c146102435780631d8557d7146102585780632de7e9b01461026057806330b5894e1461028b57600080fd5b806302ad37ba146101ea5780630444172f146102175780631765cab91461022e575b600080fd5b6101fd6101f8366004615131565b610466565b60405163ffffffff90911681526020015b60405180910390f35b61022060065481565b60405190815260200161020e565b6102366104a0565b60405161020e919061514a565b6102566102513660046151a9565b610524565b005b6102566106f1565b600254610273906001600160a01b031681565b6040516001600160a01b03909116815260200161020e565b610256610299366004615211565b610f39565b61027361150b565b6102ae611543565b604051901515815260200161020e565b6004546102dc906001600160401b0380821691600160401b90041682565b604080516001600160401b0393841681529290911660208301520161020e565b610304611674565b60405161020e91906152e3565b6101fd61171f565b6102566103273660046151a9565b611782565b600154610273906001600160a01b031681565b61025661034d3660046154af565b6118a9565b610256610360366004615512565b611c51565b610273611ea8565b610273611f13565b610273611f67565b610304611fd0565b6102566103933660046155be565b612001565b6102566103a63660046155be565b612299565b6102566103b93660046155fc565b61283b565b6003546102dc906001600160401b0380821691600160401b90041682565b610220613112565b6102566103f23660046154af565b6134c0565b6000546101fd90600160b01b900463ffffffff1681565b61025661041c3660046151a9565b613cc2565b600080516020615c7083398151915254610220565b6000546101fd90600160d01b900463ffffffff1681565b600054610273906201000090046001600160a01b031681565b6005818154811061047657600080fd5b9060005260206000209060089182820401919006600402915054906101000a900463ffffffff1681565b6060600580548060200260200160405190810160405280929190818152602001828054801561051a57602002820191906000526020600020906000905b82829054906101000a900463ffffffff1663ffffffff16815260200190600401906020826003010492830192600103820291508084116104dd5790505b5050505050905090565b600054610100900460ff16158080156105445750600054600160ff909116105b8061055e5750303b15801561055e575060005460ff166001145b6105c65760405162461bcd60e51b815260206004820152602e60248201527f496e697469616c697a61626c653a20636f6e747261637420697320616c72656160448201526d191e481a5b9a5d1a585b1a5e995960921b60648201526084015b60405180910390fd5b6000805460ff1916600117905580156105e9576000805461ff0019166101001790555b81600060026101000a8154816001600160a01b0302191690836001600160a01b03160217905550600060029054906101000a90046001600160a01b03166001600160a01b03166309218e916040518163ffffffff1660e01b8152600401602060405180830381865afa158015610663573d6000803e3d6000fd5b505050506040513d601f19601f82011682018060405250810190610687919061569b565b600060166101000a81548163ffffffff021916908363ffffffff16021790555080156106ed576000805461ff0019169055604051600181527f7f26b83ff96e1f2b6a682f133852f6798a09c465da95921460cefb38474024989060200160405180910390a15b5050565b60006106fb61150b565b6001600160a01b0316637aa873346040518163ffffffff1660e01b8152600401602060405180830381865afa158015610738573d6000803e3d6000fd5b505050506040513d601f19601f8201168201806040525081019061075c91906156b8565b905080158061076a57508042105b6107865760405162461bcd60e51b81526004016105bd906156d1565b6001546001600160a01b031615610c6557600160009054906101000a90046001600160a01b03166001600160a01b031663b8bfe0616040518163ffffffff1660e01b8152600401602060405180830381865afa1580156107ea573d6000803e3d6000fd5b505050506040513d601f19601f8201168201806040525081019061080e919061570b565b15801561088d5750600160009054906101000a90046001600160a01b03166001600160a01b031663591e8db46040518163ffffffff1660e01b8152600401602060405180830381865afa158015610869573d6000803e3d6000fd5b505050506040513d601f19601f8201168201806040525081019061088d919061570b565b156108fb57600160009054906101000a90046001600160a01b03166001600160a01b031663241f349e6040518163ffffffff1660e01b8152600401600060405180830381600087803b1580156108e257600080fd5b505af11580156108f6573d6000803e3d6000fd5b505050505b600160009054906101000a90046001600160a01b03166001600160a01b031663b8bfe0616040518163ffffffff1660e01b8152600401602060405180830381865afa15801561094e573d6000803e3d6000fd5b505050506040513d601f19601f82011682018060405250810190610972919061570b565b15610c65576001546001600160a01b0316806109c05760405162461bcd60e51b815260206004820152600d60248201526c6e6f7420696e20626174746c6560981b60448201526064016105bd565b600154604051635b94dd7b60e01b81523060048201526001600160a01b0390911690635b94dd7b90602401600060405180830381600087803b158015610a0557600080fd5b505af1158015610a19573d6000803e3d6000fd5b5050505060008190506000816001600160a01b031663fbf063386040518163ffffffff1660e01b8152600401602060405180830381865afa158015610a62573d6000803e3d6000fd5b505050506040513d601f19601f82011682018060405250810190610a8691906156b8565b60405163f4f67fc160e01b81523060048201526001600160a01b0384169063f4f67fc190602401602060405180830381865afa158015610aca573d6000803e3d6000fd5b505050506040513d601f19601f82011682018060405250810190610aee91906156b8565b14905080610c25576000806000846001600160a01b0316634fba5adf6040518163ffffffff1660e01b8152600401608060405180830381865afa158015610b39573d6000803e3d6000fd5b505050506040513d601f19601f82011682018060405250810190610b5d919061573d565b50919450925090506000610b7182846157a7565b90506000610b7f82866157a7565b90506000670de0b6b3a7640000610b94611ea8565b6001600160a01b03166309f04f1c6040518163ffffffff1660e01b8152600401602060405180830381865afa158015610bd1573d6000803e3d6000fd5b505050506040513d601f19601f82011682018060405250810190610bf591906156b8565b610c08906001600160401b0386166157ce565b610c1291906157ed565b9050610c1e8282613de9565b5050505050505b6040516001600160a01b03841681527ffebc8def56488478b478cd17f7881ec8fd12fce9906b0c458a4612ab4e338f799060200160405180910390a15050505b610c6d613e53565b15610eed57600354600090610c95906001600160401b0380821691600160401b90041661580f565b600354909150600160401b90046001600160401b03166000670de0b6b3a7640000610cbe611ea8565b6001600160a01b031663493d458f6040518163ffffffff1660e01b8152600401602060405180830381865afa158015610cfb573d6000803e3d6000fd5b505050506040513d601f19601f82011682018060405250810190610d1f91906156b8565b610d32906001600160401b0386166157ce565b610d3c91906157ed565b6005805491925090610d509060019061582f565b81548110610d6057610d60615842565b60009182526020808320600883040154835463ffffffff60b01b191660079093166004026101000a900463ffffffff16600160b01b029190911782556040805180820190915282815201819052600380546001600160801b0319169055604051908082528060200260200182016040528015610de6578160200160208202803683370190505b508051610dfb9160059160209091019061506d565b506000805463ffffffff60d01b19169055610e168282613de9565b7f11be96ff86b29b6ac69d4008c2b93e729d5df3283e63b1b03cb6cc012d94fed4610e3f611f67565b600054604051633615c1b560e11b8152600160b01b90910463ffffffff1660048201526001600160a01b039190911690636c2b836a90602401602060405180830381865afa158015610e95573d6000803e3d6000fd5b505050506040513d601f19601f82011682018060405250810190610eb99190615858565b600054604080516001600160a01b039093168352600160b01b90910463ffffffff1660208301520160405180910390a15050505b600454600160401b90046001600160401b031615801590610f205750600454600160401b90046001600160401b03164210155b15610f3657600480546001600160801b03191690555b50565b6000610f4361150b565b6001600160a01b0316637aa873346040518163ffffffff1660e01b8152600401602060405180830381865afa158015610f80573d6000803e3d6000fd5b505050506040513d601f19601f82011682018060405250810190610fa491906156b8565b9050801580610fb257508042105b610fce5760405162461bcd60e51b81526004016105bd906156d1565b600054604051631b0b969d60e01b8152336004820152620100009091046001600160a01b031690631b0b969d90602401602060405180830381865afa15801561101b573d6000803e3d6000fd5b505050506040513d601f19601f8201168201806040525081019061103f919061570b565b80611062575061104d61150b565b6001600160a01b0316336001600160a01b0316145b806110ff5750600061107261150b565b6001600160a01b031663ebbe8034611096600080516020615c708339815191525490565b6040516001600160e01b031960e084901b1681526004810191909152336024820152604401602060405180830381865afa1580156110d8573d6000803e3d6000fd5b505050506040513d601f19601f820116820180604052508101906110fc91906156b8565b14155b61111b5760405162461bcd60e51b81526004016105bd90615875565b6111236106f1565b6000869050806001600160a01b0316631d8557d76040518163ffffffff1660e01b8152600401600060405180830381600087803b15801561116357600080fd5b505af1158015611177573d6000803e3d6000fd5b505050506000816001600160a01b031663418f35cc6040518163ffffffff1660e01b8152600401602060405180830381865afa1580156111bb573d6000803e3d6000fd5b505050506040513d601f19601f820116820180604052508101906111df919061569b565b600454909150600160401b90046001600160401b0316156112345760405162461bcd60e51b815260206004820152600f60248201526e185c9b5e481a5cc81cdd1d5b9b9959608a1b60448201526064016105bd565b600354600160401b90046001600160401b0316156112945760405162461bcd60e51b815260206004820152601a60248201527f63616e6e6f742061747461636b207768696c65206d6f76696e6700000000000060448201526064016105bd565b60005463ffffffff828116600160b01b90920416146112e95760405162461bcd60e51b815260206004820152601160248201527032b732b6bc9034b9903737ba103732b0b960791b60448201526064016105bd565b6112f68888888888613e9a565b156113435760405162461bcd60e51b815260206004820152601560248201527f61726d79206861732067726f776e20626967676572000000000000000000000060448201526064016105bd565b600061134d611ea8565b6040805180820182526006815265626174746c6560d01b602090910152516350b345b560e01b81527f1d3e47c3991e843d528c0f9f043ad863de6aeee16578e4fc478e274804caf7e260048201526001600160a01b0391909116906350b345b590602401602060405180830381865afa1580156113ce573d6000803e3d6000fd5b505050506040513d601f19601f820116820180604052508101906113f29190615858565b90506000816001600160a01b0316639954b52b61140d61150b565b600080516020615c70833981519152546040516001600160e01b031960e085901b1681526001600160a01b039283166004820152602481019190915260a06044820152600560a482015264424153494360d81b60c4820152306064820152908d16608482015260e4016020604051808303816000875af1158015611495573d6000803e3d6000fd5b505050506040513d601f19601f820116820180604052508101906114b99190615858565b604080516001600160a01b0380841682528d1660208201529192507fc2f0b4bf85ae608938d7c5dc325c3e9beb6629c73cdd7e0ce39466ee78e1c53b910160405180910390a150505050505050505050565b600061153e7f6c85b93e587873fbe6712f3b438d42c2945689b262f7bd34b8ea4e3f832a89e6546001600160a01b031690565b905090565b600061154d613e53565b156115e357600060029054906101000a90046001600160a01b03166001600160a01b03166309218e916040518163ffffffff1660e01b8152600401602060405180830381865afa1580156115a5573d6000803e3d6000fd5b505050506040513d601f19601f820116820180604052508101906115c9919061569b565b600054600160d01b900463ffffffff908116911614919050565b600060029054906101000a90046001600160a01b03166001600160a01b03166309218e916040518163ffffffff1660e01b8152600401602060405180830381865afa158015611636573d6000803e3d6000fd5b505050506040513d601f19601f8201168201806040525081019061165a919061569b565b600054600160b01b900463ffffffff908116911614919050565b60607f6c85b93e587873fbe6712f3b438d42c2945689b262f7bd34b8ea4e3f832a89e660040180546116a5906158b7565b80601f01602080910402602001604051908101604052809291908181526020018280546116d1906158b7565b801561051a5780601f106116f35761010080835404028352916020019161051a565b820191906000526020600020905b81548152906001019060200180831161170157509395945050505050565b600354600090600160401b90046001600160401b0316158015906117555750600354600160401b90046001600160401b03164210155b1561176e5750600054600160d01b900463ffffffff1690565b50600054600160b01b900463ffffffff1690565b61178a61150b565b6001600160a01b0316336001600160a01b0316148061183b575060006117ae61150b565b6001600160a01b031663ebbe80346117d2600080516020615c708339815191525490565b6040516001600160e01b031960e084901b1681526004810191909152336024820152604401602060405180830381865afa158015611814573d6000803e3d6000fd5b505050506040513d601f19601f8201168201806040525081019061183891906156b8565b14155b6118875760405162461bcd60e51b815260206004820152601b60248201527f6f6e6c79576f726c64417373657446726f6d53616d6545706f6368000000000060448201526064016105bd565b600180546001600160a01b0319166001600160a01b0392909216919091179055565b6118b161150b565b6001600160a01b0316336001600160a01b03161480611962575060006118d561150b565b6001600160a01b031663ebbe80346118f9600080516020615c708339815191525490565b6040516001600160e01b031960e084901b1681526004810191909152336024820152604401602060405180830381865afa15801561193b573d6000803e3d6000fd5b505050506040513d601f19601f8201168201806040525081019061195f91906156b8565b14155b6119ae5760405162461bcd60e51b815260206004820152601b60248201527f6f6e6c79576f726c64417373657446726f6d53616d6545706f6368000000000060448201526064016105bd565b60006119b861150b565b6001600160a01b0316637aa873346040518163ffffffff1660e01b8152600401602060405180830381865afa1580156119f5573d6000803e3d6000fd5b505050506040513d601f19601f82011682018060405250810190611a1991906156b8565b9050801580611a2757508042105b611a435760405162461bcd60e51b81526004016105bd906156d1565b60005b8351811015611c4b57828181518110611a6157611a61615842565b602002602001015160000315611c39576000611a7b611f67565b6001600160a01b031663fe01e782868481518110611a9b57611a9b615842565b60200260200101516040518263ffffffff1660e01b8152600401611abf91906152e3565b602060405180830381865afa158015611adc573d6000803e3d6000fd5b505050506040513d601f19601f82011682018060405250810190611b009190615858565b9050806001600160a01b03166342966c68858481518110611b2357611b23615842565b60200260200101516040518263ffffffff1660e01b8152600401611b4991815260200190565b600060405180830381600087803b158015611b6357600080fd5b505af1158015611b77573d6000803e3d6000fd5b505050507f5acc8e95648efaec7a15748d31cf3ae31e6abd52a31317011a4578ed330d992c858381518110611bae57611bae615842565b60209081029190910101516040516370a0823160e01b81523060048201526001600160a01b038416906370a0823190602401602060405180830381865afa158015611bfd573d6000803e3d6000fd5b505050506040513d601f19601f82011682018060405250810190611c2191906156b8565b604051611c2f9291906158f1565b60405180910390a1505b80611c4381615913565b915050611a46565b50505050565b6000611c5b61150b565b6001600160a01b0316637aa873346040518163ffffffff1660e01b8152600401602060405180830381865afa158015611c98573d6000803e3d6000fd5b505050506040513d601f19601f82011682018060405250810190611cbc91906156b8565b9050801580611cca57508042105b611ce65760405162461bcd60e51b81526004016105bd906156d1565b600054604051631b0b969d60e01b8152336004820152620100009091046001600160a01b031690631b0b969d90602401602060405180830381865afa158015611d33573d6000803e3d6000fd5b505050506040513d601f19601f82011682018060405250810190611d57919061570b565b80611d7a5750611d6561150b565b6001600160a01b0316336001600160a01b0316145b80611e1757506000611d8a61150b565b6001600160a01b031663ebbe8034611dae600080516020615c708339815191525490565b6040516001600160e01b031960e084901b1681526004810191909152336024820152604401602060405180830381865afa158015611df0573d6000803e3d6000fd5b505050506040513d601f19601f82011682018060405250810190611e1491906156b8565b14155b611e335760405162461bcd60e51b81526004016105bd90615875565b611e3b6106f1565b600454600160401b90046001600160401b031615611e8d5760405162461bcd60e51b815260206004820152600f60248201526e185c9b5e481a5cc81cdd1d5b9b9959608a1b60448201526064016105bd565b611e978383613ffb565b611ea18585614070565b5050505050565b6000611eb261150b565b6001600160a01b0316637b1039996040518163ffffffff1660e01b8152600401602060405180830381865afa158015611eef573d6000803e3d6000fd5b505050506040513d601f19601f8201168201806040525081019061153e9190615858565b60008060029054906101000a90046001600160a01b03166001600160a01b031663b5acd4566040518163ffffffff1660e01b8152600401602060405180830381865afa158015611eef573d6000803e3d6000fd5b6000611f7161150b565b6001600160a01b031663c6b61e4c611f95600080516020615c708339815191525490565b6040518263ffffffff1660e01b8152600401611fb391815260200190565b602060405180830381865afa158015611eef573d6000803e3d6000fd5b60607f6c85b93e587873fbe6712f3b438d42c2945689b262f7bd34b8ea4e3f832a89e660030180546116a5906158b7565b600061200b61150b565b6001600160a01b0316637aa873346040518163ffffffff1660e01b8152600401602060405180830381865afa158015612048573d6000803e3d6000fd5b505050506040513d601f19601f8201168201806040525081019061206c91906156b8565b905080158061207a57508042105b6120965760405162461bcd60e51b81526004016105bd906156d1565b600054604051631b0b969d60e01b8152336004820152620100009091046001600160a01b031690631b0b969d90602401602060405180830381865afa1580156120e3573d6000803e3d6000fd5b505050506040513d601f19601f82011682018060405250810190612107919061570b565b8061212a575061211561150b565b6001600160a01b0316336001600160a01b0316145b806121c75750600061213a61150b565b6001600160a01b031663ebbe803461215e600080516020615c708339815191525490565b6040516001600160e01b031960e084901b1681526004810191909152336024820152604401602060405180830381865afa1580156121a0573d6000803e3d6000fd5b505050506040513d601f19601f820116820180604052508101906121c491906156b8565b14155b6121e35760405162461bcd60e51b81526004016105bd90615875565b6121eb6106f1565b6002546001600160a01b031661222e5760405162461bcd60e51b81526020600482015260086024820152676e6f20736965676560c01b60448201526064016105bd565b60025460405163271b57c960e21b81526001600160a01b0385811660048301526024820185905290911690639c6d5f2490604401600060405180830381600087803b15801561227c57600080fd5b505af1158015612290573d6000803e3d6000fd5b50505050505050565b60006122a361150b565b6001600160a01b0316637aa873346040518163ffffffff1660e01b8152600401602060405180830381865afa1580156122e0573d6000803e3d6000fd5b505050506040513d601f19601f8201168201806040525081019061230491906156b8565b905080158061231257508042105b61232e5760405162461bcd60e51b81526004016105bd906156d1565b600054604051631b0b969d60e01b8152336004820152620100009091046001600160a01b031690631b0b969d90602401602060405180830381865afa15801561237b573d6000803e3d6000fd5b505050506040513d601f19601f8201168201806040525081019061239f919061570b565b806123c257506123ad61150b565b6001600160a01b0316336001600160a01b0316145b8061245f575060006123d261150b565b6001600160a01b031663ebbe80346123f6600080516020615c708339815191525490565b6040516001600160e01b031960e084901b1681526004810191909152336024820152604401602060405180830381865afa158015612438573d6000803e3d6000fd5b505050506040513d601f19601f8201168201806040525081019061245c91906156b8565b14155b61247b5760405162461bcd60e51b81526004016105bd90615875565b6124836106f1565b600354600160401b90046001600160401b0316156125b957604080518082019091526006815265626174746c6560d01b6020909101527f1d3e47c3991e843d528c0f9f043ad863de6aeee16578e4fc478e274804caf7e26124e261150b565b6001600160a01b031663ebbe8034612506600080516020615c708339815191525490565b6040516001600160e01b031960e084901b1681526004810191909152336024820152604401602060405180830381865afa158015612548573d6000803e3d6000fd5b505050506040513d601f19601f8201168201806040525081019061256c91906156b8565b146125b95760405162461bcd60e51b815260206004820152601860248201527f63616e6e6f74206a6f696e207768696c65206d6f76696e67000000000000000060448201526064016105bd565b600454600160401b90046001600160401b0316156126ef57604080518082019091526006815265626174746c6560d01b6020909101527f1d3e47c3991e843d528c0f9f043ad863de6aeee16578e4fc478e274804caf7e261261861150b565b6001600160a01b031663ebbe803461263c600080516020615c708339815191525490565b6040516001600160e01b031960e084901b1681526004810191909152336024820152604401602060405180830381865afa15801561267e573d6000803e3d6000fd5b505050506040513d601f19601f820116820180604052508101906126a291906156b8565b146126ef5760405162461bcd60e51b815260206004820181905260248201527f63616e6e6f74206a6f696e20626174746c65207768696c65207374756e6e656460448201526064016105bd565b6001546001600160a01b03161561273c5760405162461bcd60e51b8152602060048201526011602482015270616c726561647920696e20626174746c6560781b60448201526064016105bd565b6000612746614557565b116127935760405162461bcd60e51b815260206004820152601860248201527f302061726d792063616e2774206a6f696e20626174746c65000000000000000060448201526064016105bd565b6040516308f5803f60e41b8152306004820152602481018390526001600160a01b03841690638f5803f090604401600060405180830381600087803b1580156127db57600080fd5b505af11580156127ef573d6000803e3d6000fd5b50505050826001600160a01b03167f47fe3458f42ceb5e6af6aa6b78401c3bf85a6d44e984b1a84ebf6546f6d8b7618360405161282e91815260200190565b60405180910390a2505050565b600061284561150b565b6001600160a01b0316637aa873346040518163ffffffff1660e01b8152600401602060405180830381865afa158015612882573d6000803e3d6000fd5b505050506040513d601f19601f820116820180604052508101906128a691906156b8565b90508015806128b457508042105b6128d05760405162461bcd60e51b81526004016105bd906156d1565b600054604051631b0b969d60e01b8152336004820152620100009091046001600160a01b031690631b0b969d90602401602060405180830381865afa15801561291d573d6000803e3d6000fd5b505050506040513d601f19601f82011682018060405250810190612941919061570b565b80612964575061294f61150b565b6001600160a01b0316336001600160a01b0316145b80612a015750600061297461150b565b6001600160a01b031663ebbe8034612998600080516020615c708339815191525490565b6040516001600160e01b031960e084901b1681526004810191909152336024820152604401602060405180830381865afa1580156129da573d6000803e3d6000fd5b505050506040513d601f19601f820116820180604052508101906129fe91906156b8565b14155b612a1d5760405162461bcd60e51b81526004016105bd90615875565b612a256106f1565b600454600160401b90046001600160401b031615612a775760405162461bcd60e51b815260206004820152600f60248201526e185c9b5e481a5cc81cdd1d5b9b9959608a1b60448201526064016105bd565b600354600160401b90046001600160401b031615612ad75760405162461bcd60e51b815260206004820152601860248201527f63616e6e6f74206d6f7665207768696c65206d6f76696e67000000000000000060448201526064016105bd565b6001546001600160a01b031615612b305760405162461bcd60e51b815260206004820152601b60248201527f63616e6e6f74206d6f7665207768696c6520696e20626174746c65000000000060448201526064016105bd565b6002546001600160a01b031615612b895760405162461bcd60e51b815260206004820152601b60248201527f63616e6e6f74206d6f7665207768696c6520626573696567696e67000000000060448201526064016105bd565b612b9161150b565b6001600160a01b031663f5f026a36040518163ffffffff1660e01b8152600401602060405180830381865afa158015612bce573d6000803e3d6000fd5b505050506040513d601f19601f82011682018060405250810190612bf29190615858565b6001600160a01b031663be37f3de600060169054906101000a900463ffffffff1685600081518110612c2657612c26615842565b60200260200101516040518363ffffffff1660e01b8152600401612c5d92919063ffffffff92831681529116602082015260400190565b602060405180830381865afa158015612c7a573d6000803e3d6000fd5b505050506040513d601f19601f82011682018060405250810190612c9e919061570b565b612cea5760405162461bcd60e51b815260206004820152601b60248201527f696e76616c6964206669727374207061746820706f736974696f6e000000000060448201526064016105bd565b6000612cf4614557565b90506000612d00611f67565b6001600160a01b0316636c2b836a8660018851612d1d919061582f565b81518110612d2d57612d2d615842565b60200260200101516040518263ffffffff1660e01b8152600401612d5d919063ffffffff91909116815260200190565b602060405180830381865afa158015612d7a573d6000803e3d6000fd5b505050506040513d601f19601f82011682018060405250810190612d9e9190615858565b905081158015612dc257506000546001600160a01b03828116620100009092041614155b15612e0f5760405162461bcd60e51b815260206004820181905260248201527f656d7074792061726d792063616e206d6f7665206f6e6c7920746f20686f6d6560448201526064016105bd565b6001600160a01b038116612e6f5760405162461bcd60e51b815260206004820152602160248201527f63616e206d6f7665206f6e6c7920746f206f7468657220736574746c656d656e6044820152601d60fa1b60648201526084016105bd565b612e7761150b565b6001600160a01b031663f5f026a36040518163ffffffff1660e01b8152600401602060405180830381865afa158015612eb4573d6000803e3d6000fd5b505050506040513d601f19601f82011682018060405250810190612ed89190615858565b6001600160a01b031663f5485a95866040518263ffffffff1660e01b8152600401612f03919061514a565b602060405180830381865afa158015612f20573d6000803e3d6000fd5b505050506040513d601f19601f82011682018060405250810190612f44919061570b565b612f7f5760405162461bcd60e51b815260206004820152600c60248201526b0d2dcecc2d8d2c840e0c2e8d60a31b60448201526064016105bd565b8315612fd55760008211612fd55760405162461bcd60e51b815260206004820152601c60248201527f63616e6e6f7420616363656c657261746520656d7074792061726d790000000060448201526064016105bd565b6000612feb612fe3876146ef565b875187614778565b90506040518060400160405280426001600160401b031681526020018242613013919061592c565b6001600160401b039081169091528151600380546020948501518416600160401b026001600160801b031990911692909316919091179190911790558651613061916005919089019061506d565b508560018751613071919061582f565b8151811061308157613081615842565b60209081029190910101516000805463ffffffff909216600160d01b0263ffffffff60d01b199092169190911790556003546040516001600160401b03600160401b830481169216906001600160a01b038516907fff8c7cff2630504e59d5f6393fed3f2685ec3cc670982d5b1f003f9f6aa6ce0390613102908b9061514a565b60405180910390a4505050505050565b60008061311d611ea8565b6001600160a01b031663027aa9f56040518163ffffffff1660e01b8152600401600060405180830381865afa15801561315a573d6000803e3d6000fd5b505050506040513d6000823e601f3d908101601f191682016040526131829190810190615984565b9050600081516001600160401b0381111561319f5761319f6152f6565b6040519080825280602002602001820160405280156131c8578160200160208202803683370190505b506001549091506001600160a01b0316158015906132585750600160009054906101000a90046001600160a01b03166001600160a01b031663591e8db46040518163ffffffff1660e01b8152600401602060405180830381865afa158015613234573d6000803e3d6000fd5b505050506040513d601f19601f82011682018060405250810190613258919061570b565b156132d1576001546040516339a88e0160e11b81523060048201526001600160a01b03909116906373511c0290602401600060405180830381865afa1580156132a5573d6000803e3d6000fd5b505050506040513d6000823e601f3d908101601f191682016040526132cd9190810190615a34565b9150505b60005b82518110156134ba5760008382815181106132f1576132f1615842565b602002602001015190506000613305611ea8565b6001600160a01b031663cf0c5017836040518263ffffffff1660e01b815260040161333091906152e3565b60e060405180830381865afa15801561334d573d6000803e3d6000fd5b505050506040513d601f19601f820116820180604052508101906133719190615ad7565b9650505050505050670de0b6b3a76400008185858151811061339557613395615842565b60200260200101516133a5611f67565b6001600160a01b031663fe01e782866040518263ffffffff1660e01b81526004016133d091906152e3565b602060405180830381865afa1580156133ed573d6000803e3d6000fd5b505050506040513d601f19601f820116820180604052508101906134119190615858565b6040516370a0823160e01b81523060048201526001600160a01b0391909116906370a0823190602401602060405180830381865afa158015613457573d6000803e3d6000fd5b505050506040513d601f19601f8201168201806040525081019061347b91906156b8565b613485919061582f565b61348f91906157ce565b61349991906157ed565b6134a3908761592c565b9550505080806134b290615913565b9150506132d4565b50505090565b60006134ca61150b565b6001600160a01b0316637aa873346040518163ffffffff1660e01b8152600401602060405180830381865afa158015613507573d6000803e3d6000fd5b505050506040513d601f19601f8201168201806040525081019061352b91906156b8565b905080158061353957508042105b6135555760405162461bcd60e51b81526004016105bd906156d1565b600054604051631b0b969d60e01b8152336004820152620100009091046001600160a01b031690631b0b969d90602401602060405180830381865afa1580156135a2573d6000803e3d6000fd5b505050506040513d601f19601f820116820180604052508101906135c6919061570b565b806135e957506135d461150b565b6001600160a01b0316336001600160a01b0316145b80613686575060006135f961150b565b6001600160a01b031663ebbe803461361d600080516020615c708339815191525490565b6040516001600160e01b031960e084901b1681526004810191909152336024820152604401602060405180830381865afa15801561365f573d6000803e3d6000fd5b505050506040513d601f19601f8201168201806040525081019061368391906156b8565b14155b6136a25760405162461bcd60e51b81526004016105bd90615875565b6136aa6106f1565b60006136b4611ea8565b6001600160a01b031663beaa602d6040518163ffffffff1660e01b8152600401602060405180830381865afa1580156136f1573d6000803e3d6000fd5b505050506040513d601f19601f8201168201806040525081019061371591906156b8565b61371d611ea8565b6001600160a01b031663b5b41bb66040518163ffffffff1660e01b8152600401602060405180830381865afa15801561375a573d6000803e3d6000fd5b505050506040513d601f19601f8201168201806040525081019061377e91906156b8565b61378891906157ed565b600454909150600160401b90046001600160401b0316156137dd5760405162461bcd60e51b815260206004820152600f60248201526e185c9b5e481a5cc81cdd1d5b9b9959608a1b60448201526064016105bd565b806006546137eb919061592c565b42116138395760405162461bcd60e51b815260206004820152601960248201527f64656d696c69746172697a6174696f6e20636f6f6c646f776e0000000000000060448201526064016105bd565b825184511461387a5760405162461bcd60e51b815260206004820152600d60248201526c1a5b9d985b1a59081a5b9c1d5d609a1b60448201526064016105bd565b6001546001600160a01b0316156138df5760405162461bcd60e51b815260206004820152602360248201527f63616e6e6f742064656d696c69746172697a65207768696c6520696e20626174604482015262746c6560e81b60648201526084016105bd565b60006138e9611f67565b6001600160a01b0316636c2b836a6138ff61171f565b6040516001600160e01b031960e084901b16815263ffffffff919091166004820152602401602060405180830381865afa158015613941573d6000803e3d6000fd5b505050506040513d601f19601f820116820180604052508101906139659190615858565b90506000816001600160a01b03166341c525536040518163ffffffff1660e01b8152600401602060405180830381865afa1580156139a7573d6000803e3d6000fd5b505050506040513d601f19601f820116820180604052508101906139cb9190615858565b90506000805b8751811015613b885760008782815181106139ee576139ee615842565b60200260200101519050600081118015613a8557506040516314188b1d60e11b815260048101829052670de0b6b3a764000060248201527314CEC82DA1FF11B4d01fD6E078f83781037dfa9090632831163a90604401602060405180830381865af4158015613a61573d6000803e3d6000fd5b505050506040513d601f19601f82011682018060405250810190613a85919061570b565b613abf5760405162461bcd60e51b815260206004820152600b60248201526a1ddc9bdb99c81a5b9c1d5d60aa1b60448201526064016105bd565b613ac7611ea8565b6001600160a01b0316634161d4ec8a8481518110613ae757613ae7615842565b60200260200101516040518263ffffffff1660e01b8152600401613b0b91906152e3565b602060405180830381865afa158015613b28573d6000803e3d6000fd5b505050506040513d601f19601f82011682018060405250810190613b4c91906156b8565b613b5e670de0b6b3a7640000836157ed565b613b6891906157ce565b613b72908461592c565b9250508080613b8090615913565b9150506139d1565b506040516304dcb7bd60e41b81523090634dcb7bd090613bae908a908a90600401615b2b565b600060405180830381600087803b158015613bc857600080fd5b505af1158015613bdc573d6000803e3d6000fd5b50505050826001600160a01b0316826001600160a01b031663c20c92506040518163ffffffff1660e01b8152600401602060405180830381865afa158015613c28573d6000803e3d6000fd5b505050506040513d601f19601f82011682018060405250810190613c4c9190615858565b6001600160a01b031614613cb557604051631fd4ad2560e11b8152600481018290526001600160a01b03841690633fa95a4a90602401600060405180830381600087803b158015613c9c57600080fd5b505af1158015613cb0573d6000803e3d6000fd5b505050505b5050426006555050505050565b613cca61150b565b6001600160a01b0316336001600160a01b03161480613d7b57506000613cee61150b565b6001600160a01b031663ebbe8034613d12600080516020615c708339815191525490565b6040516001600160e01b031960e084901b1681526004810191909152336024820152604401602060405180830381865afa158015613d54573d6000803e3d6000fd5b505050506040513d601f19601f82011682018060405250810190613d7891906156b8565b14155b613dc75760405162461bcd60e51b815260206004820152601b60248201527f6f6e6c79576f726c64417373657446726f6d53616d6545706f6368000000000060448201526064016105bd565b600280546001600160a01b0319166001600160a01b0392909216919091179055565b6000613df582846157a7565b6004549091506001600160401b03600160401b90910481169082161115613e4e57600480546001600160801b031916600160401b6001600160401b038481169190910267ffffffffffffffff1916919091179085161790555b505050565b600354600090600160401b90046001600160401b031615801590613e895750600354600160401b90046001600160401b03164210155b15613e945750600190565b50600090565b6000805b84811015613fec576000613eb0611f67565b6001600160a01b031663fe01e782888885818110613ed057613ed0615842565b9050602002810190613ee29190615bc6565b6040518363ffffffff1660e01b8152600401613eff929190615c0c565b602060405180830381865afa158015613f1c573d6000803e3d6000fd5b505050506040513d601f19601f82011682018060405250810190613f409190615858565b6040516370a0823160e01b81526001600160a01b038a8116600483015291909116906370a0823190602401602060405180830381865afa158015613f88573d6000803e3d6000fd5b505050506040513d601f19601f82011682018060405250810190613fac91906156b8565b9050848483818110613fc057613fc0615842565b90506020020135811115613fd957600192505050613ff2565b5080613fe481615913565b915050613e9e565b50600090505b95945050505050565b8051600003614008575050565b60025460405163277ca5a360e11b81526001600160a01b0390911690634ef94b469061403a9085908590600401615b2b565b600060405180830381600087803b15801561405457600080fd5b505af1158015614068573d6000803e3d6000fd5b505050505050565b80518251146140c15760405162461bcd60e51b815260206004820152601960248201527f737461727453696567653a20696e76616c696420696e7075740000000000000060448201526064016105bd565b80516000036140ce575050565b600354600160401b90046001600160401b03161561412e5760405162461bcd60e51b815260206004820152601960248201527f63616e6e6f74207369656765207768696c65206d6f76696e670000000000000060448201526064016105bd565b6001546001600160a01b0316156141925760405162461bcd60e51b815260206004820152602260248201527f63616e6e6f74207374617274207369656765207768696c6520696e20626174746044820152616c6560f01b60648201526084016105bd565b600061419c611f67565b6001600160a01b0316636c2b836a6141b261171f565b6040516001600160e01b031960e084901b16815263ffffffff919091166004820152602401602060405180830381865afa1580156141f4573d6000803e3d6000fd5b505050506040513d601f19601f820116820180604052508101906142189190615858565b90506001600160a01b03811661427a5760405162461bcd60e51b815260206004820152602160248201527f6e6f20736574746c656d656e7420696e2063757272656e7420706f736974696f6044820152603760f91b60648201526084016105bd565b6000546001600160a01b03620100009091048116908216036142de5760405162461bcd60e51b815260206004820152601c60248201527f63616e6e6f742061747461636b206f776e20736574746c656d656e740000000060448201526064016105bd565b600081905060006001600160a01b0316816001600160a01b0316632de7e9b06040518163ffffffff1660e01b8152600401602060405180830381865afa15801561432c573d6000803e3d6000fd5b505050506040513d601f19601f820116820180604052508101906143509190615858565b6001600160a01b0316036143b257806001600160a01b03166363e575b16040518163ffffffff1660e01b8152600401600060405180830381600087803b15801561439957600080fd5b505af11580156143ad573d6000803e3d6000fd5b505050505b806001600160a01b0316632de7e9b06040518163ffffffff1660e01b8152600401602060405180830381865afa1580156143f0573d6000803e3d6000fd5b505050506040513d601f19601f820116820180604052508101906144149190615858565b600280546001600160a01b0319166001600160a01b0392909216918217905560405163db0ea56160e01b815263db0ea561906144569087908790600401615b2b565b600060405180830381600087803b15801561447057600080fd5b505af1158015614484573d6000803e3d6000fd5b505060025460405163b9f4ff5560e01b81523060048201526001600160a01b03909116925063b9f4ff559150602401602060405180830381865afa1580156144d0573d6000803e3d6000fd5b505050506040513d601f19601f820116820180604052508101906144f4919061570b565b15611c4b5760405162461bcd60e51b815260206004820152602d60248201527f796f752063616e6e6f742061646420756e70726f74656374656420756e69747360448201526c20746f2074686520736965676560981b60648201526084016105bd565b600080614562611ea8565b6001600160a01b031663027aa9f56040518163ffffffff1660e01b8152600401600060405180830381865afa15801561459f573d6000803e3d6000fd5b505050506040513d6000823e601f3d908101601f191682016040526145c79190810190615984565b905060005b81518110156146ea576145dd611f67565b6001600160a01b031663fe01e7828383815181106145fd576145fd615842565b60200260200101516040518263ffffffff1660e01b815260040161462191906152e3565b602060405180830381865afa15801561463e573d6000803e3d6000fd5b505050506040513d601f19601f820116820180604052508101906146629190615858565b6040516370a0823160e01b81523060048201526001600160a01b0391909116906370a0823190602401602060405180830381865afa1580156146a8573d6000803e3d6000fd5b505050506040513d601f19601f820116820180604052508101906146cc91906156b8565b6146d6908461592c565b9250806146e281615913565b9150506145cc565b505090565b60006146f9611ea8565b6001600160a01b031663781e0efe6040518163ffffffff1660e01b8152600401602060405180830381865afa158015614736573d6000803e3d6000fd5b505050506040513d601f19601f8201168201806040525081019061475a91906156b8565b8251614768906146506157ce565b61477291906157ed565b92915050565b600081600003614789575082614c38565b600061479484614c3f565b9050808311156147f95760405162461bcd60e51b815260206004820152602a60248201527f6578636565646564206d617820666f6f6420616d6f756e7420666f72206d61786044820152691a5b5d5b481cdc19595960b21b60648201526084016105bd565b6000614803611f67565b600054604051633615c1b560e11b8152600160b01b90910463ffffffff1660048201526001600160a01b039190911690636c2b836a90602401602060405180830381865afa158015614859573d6000803e3d6000fd5b505050506040513d601f19601f8201168201806040525081019061487d9190615858565b90506000816001600160a01b03166399258aef6040518163ffffffff1660e01b81526004016148c4906020808252600490820152634641524d60e01b604082015260600190565b602060405180830381865afa1580156148e1573d6000803e3d6000fd5b505050506040513d601f19601f820116820180604052508101906149059190615858565b9050806001600160a01b0316631d8557d76040518163ffffffff1660e01b8152600401600060405180830381600087803b15801561494257600080fd5b505af1158015614956573d6000803e3d6000fd5b505050506000614b79614967611f67565b6001600160a01b03166304f86f3c846001600160a01b03166324db272a6040518163ffffffff1660e01b8152600401600060405180830381865afa1580156149b3573d6000803e3d6000fd5b505050506040513d6000823e601f3d908101601f191682016040526149db9190810190615c3b565b6040518263ffffffff1660e01b81526004016149f791906152e3565b602060405180830381865afa158015614a14573d6000803e3d6000fd5b505050506040513d601f19601f82011682018060405250810190614a389190615858565b6040516375719b0160e11b81526001600160a01b038581166004830152919091169063eae3360290602401602060405180830381865afa158015614a80573d6000803e3d6000fd5b505050506040513d601f19601f82011682018060405250810190614aa491906156b8565b836001600160a01b0316633c084b8b856001600160a01b0316638545bc586040518163ffffffff1660e01b8152600401602060405180830381865afa158015614af1573d6000803e3d6000fd5b505050506040513d601f19601f82011682018060405250810190614b1591906156b8565b6040518263ffffffff1660e01b8152600401614b3391815260200190565b602060405180830381865afa158015614b50573d6000803e3d6000fd5b505050506040513d601f19601f82011682018060405250810190614b7491906156b8565b614f3a565b905085811015614bcb5760405162461bcd60e51b815260206004820181905260248201527f657863656564656420666f6f6420616d6f756e7420696e20747265617375727960448201526064016105bd565b604051632de344e160e21b8152600481018790526001600160a01b0383169063b78d138490602401600060405180830381600087803b158015614c0d57600080fd5b505af1158015614c21573d6000803e3d6000fd5b50505050614c3187898887614f50565b9450505050505b9392505050565b600080614c4a611ea8565b6001600160a01b031663027aa9f56040518163ffffffff1660e01b8152600401600060405180830381865afa158015614c87573d6000803e3d6000fd5b505050506040513d6000823e601f3d908101601f19168201604052614caf9190810190615984565b90506000805b8251811015614e8d576000614cc8611f67565b6001600160a01b031663fe01e782858481518110614ce857614ce8615842565b60200260200101516040518263ffffffff1660e01b8152600401614d0c91906152e3565b602060405180830381865afa158015614d29573d6000803e3d6000fd5b505050506040513d601f19601f82011682018060405250810190614d4d9190615858565b6040516370a0823160e01b81523060048201526001600160a01b0391909116906370a0823190602401602060405180830381865afa158015614d93573d6000803e3d6000fd5b505050506040513d601f19601f82011682018060405250810190614db791906156b8565b905085614dc2611ea8565b6001600160a01b031663267a02bf868581518110614de257614de2615842565b60200260200101516040518263ffffffff1660e01b8152600401614e0691906152e3565b602060405180830381865afa158015614e23573d6000803e3d6000fd5b505050506040513d601f19601f82011682018060405250810190614e4791906156b8565b614e59670de0b6b3a7640000846157ed565b614e6391906157ce565b614e6d91906157ce565b614e77908461592c565b9250508080614e8590615913565b915050614cb5565b50633b9aca007314CEC82DA1FF11B4d01fD6E078f83781037dfa9063677342ce614ebf87670de0b6b3a76400006157ce565b6040518263ffffffff1660e01b8152600401614edd91815260200190565b602060405180830381865af4158015614efa573d6000803e3d6000fd5b505050506040513d601f19601f82011682018060405250810190614f1e91906156b8565b614f2890836157ce565b614f3291906157ed565b949350505050565b6000818310614f495781614c38565b5090919050565b600080633b9aca007314CEC82DA1FF11B4d01fD6E078f83781037dfa9063677342ce614f8489670de0b6b3a76400006157ce565b6040518263ffffffff1660e01b8152600401614fa291815260200190565b602060405180830381865af4158015614fbf573d6000803e3d6000fd5b505050506040513d601f19601f82011682018060405250810190614fe391906156b8565b614ff587670de0b6b3a76400006157ce565b614fff91906157ed565b61500991906157ed565b90506000615017828761582f565b905060008461502e87670de0b6b3a76400006157ce565b61503891906157ed565b9050670de0b6b3a764000061504d82846157ce565b61505791906157ed565b615061908861582f565b98975050505050505050565b8280548282559060005260206000209060070160089004810192821561510c5791602002820160005b838211156150da57835183826101000a81548163ffffffff021916908363ffffffff1602179055509260200192600401602081600301049283019260010302615096565b801561510a5782816101000a81549063ffffffff02191690556004016020816003010492830192600103026150da565b505b5061511892915061511c565b5090565b5b80821115615118576000815560010161511d565b60006020828403121561514357600080fd5b5035919050565b6020808252825182820181905260009190848201906040850190845b8181101561518857835163ffffffff1683529284019291840191600101615166565b50909695505050505050565b6001600160a01b0381168114610f3657600080fd5b6000602082840312156151bb57600080fd5b8135614c3881615194565b60008083601f8401126151d857600080fd5b5081356001600160401b038111156151ef57600080fd5b6020830191508360208260051b850101111561520a57600080fd5b9250929050565b60008060008060006060868803121561522957600080fd5b853561523481615194565b945060208601356001600160401b038082111561525057600080fd5b61525c89838a016151c6565b9096509450604088013591508082111561527557600080fd5b50615282888289016151c6565b969995985093965092949392505050565b60005b838110156152ae578181015183820152602001615296565b50506000910152565b600081518084526152cf816020860160208601615293565b601f01601f19169290920160200192915050565b602081526000614c3860208301846152b7565b634e487b7160e01b600052604160045260246000fd5b604051601f8201601f191681016001600160401b0381118282101715615334576153346152f6565b604052919050565b60006001600160401b03821115615355576153556152f6565b5060051b60200190565b60006001600160401b03821115615378576153786152f6565b50601f01601f191660200190565b600082601f83011261539757600080fd5b813560206153ac6153a78361533c565b61530c565b82815260059290921b840181019181810190868411156153cb57600080fd5b8286015b848110156154495780356001600160401b038111156153ee5760008081fd5b8701603f810189136154005760008081fd5b8481013560406154126153a78361535f565b8281528b828486010111156154275760008081fd5b82828501898301376000928101880192909252508452509183019183016153cf565b509695505050505050565b600082601f83011261546557600080fd5b813560206154756153a78361533c565b82815260059290921b8401810191818101908684111561549457600080fd5b8286015b848110156154495780358352918301918301615498565b600080604083850312156154c257600080fd5b82356001600160401b03808211156154d957600080fd5b6154e586838701615386565b935060208501359150808211156154fb57600080fd5b5061550885828601615454565b9150509250929050565b6000806000806080858703121561552857600080fd5b84356001600160401b038082111561553f57600080fd5b61554b88838901615386565b9550602087013591508082111561556157600080fd5b61556d88838901615454565b9450604087013591508082111561558357600080fd5b61558f88838901615386565b935060608701359150808211156155a557600080fd5b506155b287828801615454565b91505092959194509250565b600080604083850312156155d157600080fd5b82356155dc81615194565b946020939093013593505050565b63ffffffff81168114610f3657600080fd5b6000806040838503121561560f57600080fd5b82356001600160401b0381111561562557600080fd5b8301601f8101851361563657600080fd5b803560206156466153a78361533c565b82815260059290921b8301810191818101908884111561566557600080fd5b938201935b8385101561568c57843561567d816155ea565b8252938201939082019061566a565b98969091013596505050505050565b6000602082840312156156ad57600080fd5b8151614c38816155ea565b6000602082840312156156ca57600080fd5b5051919050565b6020808252600b908201526a19d85b594818db1bdcd95960aa1b604082015260600190565b8051801515811461570657600080fd5b919050565b60006020828403121561571d57600080fd5b614c38826156f6565b80516001600160401b038116811461570657600080fd5b6000806000806080858703121561575357600080fd5b61575c85615726565b935061576a60208601615726565b925061577860408601615726565b915061578660608601615726565b905092959194509250565b634e487b7160e01b600052601160045260246000fd5b6001600160401b038181168382160190808211156157c7576157c7615791565b5092915050565b60008160001904831182151516156157e8576157e8615791565b500290565b60008261580a57634e487b7160e01b600052601260045260246000fd5b500490565b6001600160401b038281168282160390808211156157c7576157c7615791565b8181038181111561477257614772615791565b634e487b7160e01b600052603260045260246000fd5b60006020828403121561586a57600080fd5b8151614c3881615194565b60208082526022908201527f6f6e6c794f776e65724f72576f726c64417373657446726f6d53616d6545706f6040820152610c6d60f31b606082015260800190565b600181811c908216806158cb57607f821691505b6020821081036158eb57634e487b7160e01b600052602260045260246000fd5b50919050565b60408152600061590460408301856152b7565b90508260208301529392505050565b60006001820161592557615925615791565b5060010190565b8082018082111561477257614772615791565b600082601f83011261595057600080fd5b815161595e6153a78261535f565b81815284602083860101111561597357600080fd5b614f32826020830160208701615293565b6000602080838503121561599757600080fd5b82516001600160401b03808211156159ae57600080fd5b818501915085601f8301126159c257600080fd5b81516159d06153a78261533c565b81815260059190911b830184019084810190888311156159ef57600080fd5b8585015b83811015615a2757805185811115615a0b5760008081fd5b615a198b89838a010161593f565b8452509186019186016159f3565b5098975050505050505050565b60008060408385031215615a4757600080fd5b615a50836156f6565b91506020808401516001600160401b03811115615a6c57600080fd5b8401601f81018613615a7d57600080fd5b8051615a8b6153a78261533c565b81815260059190911b82018301908381019088831115615aaa57600080fd5b928401925b82841015615ac857835182529284019290840190615aaf565b80955050505050509250929050565b600080600080600080600060e0888a031215615af257600080fd5b5050855160208701516040880151606089015160808a015160a08b015160c0909b0151949c939b50919990985090965094509092509050565b6000604082016040835280855180835260608501915060608160051b8601019250602080880160005b83811015615b8257605f19888703018552615b708683516152b7565b95509382019390820190600101615b54565b50508584038187015286518085528782019482019350915060005b82811015615bb957845184529381019392810192600101615b9d565b5091979650505050505050565b6000808335601e19843603018112615bdd57600080fd5b8301803591506001600160401b03821115615bf757600080fd5b60200191503681900382131561520a57600080fd5b60208152816020820152818360408301376000818301604090810191909152601f909201601f19160101919050565b600060208284031215615c4d57600080fd5b81516001600160401b03811115615c6357600080fd5b614f328482850161593f56fe6c85b93e587873fbe6712f3b438d42c2945689b262f7bd34b8ea4e3f832a89e7a26469706673582212201a9a1c1c1a273faed45e38c05d9bd7c55c1744f00b77c66fadf3f5cee4258b5b64736f6c63430008100033",
  "deployedBytecode": "0x608060405234801561001057600080fd5b50600436106101e55760003560e01c8063789642691161010f578063a74bd4f6116100a2578063ee74a60711610071578063ee74a6071461040e578063f4145a8314610421578063fd29f88414610436578063fe7f15ef1461044d57600080fd5b8063a74bd4f6146103be578063ab6a9acb146103dc578063b3f66aa3146103e4578063d534d636146103f757600080fd5b80639abb3cae116100de5780639abb3cae1461037d5780639c6d5f24146103855780639cba43f814610398578063a0fee4f2146103ab57600080fd5b806378964269146103525780637b10399914610365578063893d20e81461036d578063900cf0cf1461037557600080fd5b806330b67baa11610187578063418f35cc11610156578063418f35cc14610311578063446bd3291461031957806344e445451461032c5780634dcb7bd01461033f57600080fd5b806330b67baa1461029e5780633b81149d146102a65780633cb9758a146102be5780633fe3347a146102fc57600080fd5b806319ab453c116101c357806319ab453c146102435780631d8557d7146102585780632de7e9b01461026057806330b5894e1461028b57600080fd5b806302ad37ba146101ea5780630444172f146102175780631765cab91461022e575b600080fd5b6101fd6101f8366004615131565b610466565b60405163ffffffff90911681526020015b60405180910390f35b61022060065481565b60405190815260200161020e565b6102366104a0565b60405161020e919061514a565b6102566102513660046151a9565b610524565b005b6102566106f1565b600254610273906001600160a01b031681565b6040516001600160a01b03909116815260200161020e565b610256610299366004615211565b610f39565b61027361150b565b6102ae611543565b604051901515815260200161020e565b6004546102dc906001600160401b0380821691600160401b90041682565b604080516001600160401b0393841681529290911660208301520161020e565b610304611674565b60405161020e91906152e3565b6101fd61171f565b6102566103273660046151a9565b611782565b600154610273906001600160a01b031681565b61025661034d3660046154af565b6118a9565b610256610360366004615512565b611c51565b610273611ea8565b610273611f13565b610273611f67565b610304611fd0565b6102566103933660046155be565b612001565b6102566103a63660046155be565b612299565b6102566103b93660046155fc565b61283b565b6003546102dc906001600160401b0380821691600160401b90041682565b610220613112565b6102566103f23660046154af565b6134c0565b6000546101fd90600160b01b900463ffffffff1681565b61025661041c3660046151a9565b613cc2565b600080516020615c7083398151915254610220565b6000546101fd90600160d01b900463ffffffff1681565b600054610273906201000090046001600160a01b031681565b6005818154811061047657600080fd5b9060005260206000209060089182820401919006600402915054906101000a900463ffffffff1681565b6060600580548060200260200160405190810160405280929190818152602001828054801561051a57602002820191906000526020600020906000905b82829054906101000a900463ffffffff1663ffffffff16815260200190600401906020826003010492830192600103820291508084116104dd5790505b5050505050905090565b600054610100900460ff16158080156105445750600054600160ff909116105b8061055e5750303b15801561055e575060005460ff166001145b6105c65760405162461bcd60e51b815260206004820152602e60248201527f496e697469616c697a61626c653a20636f6e747261637420697320616c72656160448201526d191e481a5b9a5d1a585b1a5e995960921b60648201526084015b60405180910390fd5b6000805460ff1916600117905580156105e9576000805461ff0019166101001790555b81600060026101000a8154816001600160a01b0302191690836001600160a01b03160217905550600060029054906101000a90046001600160a01b03166001600160a01b03166309218e916040518163ffffffff1660e01b8152600401602060405180830381865afa158015610663573d6000803e3d6000fd5b505050506040513d601f19601f82011682018060405250810190610687919061569b565b600060166101000a81548163ffffffff021916908363ffffffff16021790555080156106ed576000805461ff0019169055604051600181527f7f26b83ff96e1f2b6a682f133852f6798a09c465da95921460cefb38474024989060200160405180910390a15b5050565b60006106fb61150b565b6001600160a01b0316637aa873346040518163ffffffff1660e01b8152600401602060405180830381865afa158015610738573d6000803e3d6000fd5b505050506040513d601f19601f8201168201806040525081019061075c91906156b8565b905080158061076a57508042105b6107865760405162461bcd60e51b81526004016105bd906156d1565b6001546001600160a01b031615610c6557600160009054906101000a90046001600160a01b03166001600160a01b031663b8bfe0616040518163ffffffff1660e01b8152600401602060405180830381865afa1580156107ea573d6000803e3d6000fd5b505050506040513d601f19601f8201168201806040525081019061080e919061570b565b15801561088d5750600160009054906101000a90046001600160a01b03166001600160a01b031663591e8db46040518163ffffffff1660e01b8152600401602060405180830381865afa158015610869573d6000803e3d6000fd5b505050506040513d601f19601f8201168201806040525081019061088d919061570b565b156108fb57600160009054906101000a90046001600160a01b03166001600160a01b031663241f349e6040518163ffffffff1660e01b8152600401600060405180830381600087803b1580156108e257600080fd5b505af11580156108f6573d6000803e3d6000fd5b505050505b600160009054906101000a90046001600160a01b03166001600160a01b031663b8bfe0616040518163ffffffff1660e01b8152600401602060405180830381865afa15801561094e573d6000803e3d6000fd5b505050506040513d601f19601f82011682018060405250810190610972919061570b565b15610c65576001546001600160a01b0316806109c05760405162461bcd60e51b815260206004820152600d60248201526c6e6f7420696e20626174746c6560981b60448201526064016105bd565b600154604051635b94dd7b60e01b81523060048201526001600160a01b0390911690635b94dd7b90602401600060405180830381600087803b158015610a0557600080fd5b505af1158015610a19573d6000803e3d6000fd5b5050505060008190506000816001600160a01b031663fbf063386040518163ffffffff1660e01b8152600401602060405180830381865afa158015610a62573d6000803e3d6000fd5b505050506040513d601f19601f82011682018060405250810190610a8691906156b8565b60405163f4f67fc160e01b81523060048201526001600160a01b0384169063f4f67fc190602401602060405180830381865afa158015610aca573d6000803e3d6000fd5b505050506040513d601f19601f82011682018060405250810190610aee91906156b8565b14905080610c25576000806000846001600160a01b0316634fba5adf6040518163ffffffff1660e01b8152600401608060405180830381865afa158015610b39573d6000803e3d6000fd5b505050506040513d601f19601f82011682018060405250810190610b5d919061573d565b50919450925090506000610b7182846157a7565b90506000610b7f82866157a7565b90506000670de0b6b3a7640000610b94611ea8565b6001600160a01b03166309f04f1c6040518163ffffffff1660e01b8152600401602060405180830381865afa158015610bd1573d6000803e3d6000fd5b505050506040513d601f19601f82011682018060405250810190610bf591906156b8565b610c08906001600160401b0386166157ce565b610c1291906157ed565b9050610c1e8282613de9565b5050505050505b6040516001600160a01b03841681527ffebc8def56488478b478cd17f7881ec8fd12fce9906b0c458a4612ab4e338f799060200160405180910390a15050505b610c6d613e53565b15610eed57600354600090610c95906001600160401b0380821691600160401b90041661580f565b600354909150600160401b90046001600160401b03166000670de0b6b3a7640000610cbe611ea8565b6001600160a01b031663493d458f6040518163ffffffff1660e01b8152600401602060405180830381865afa158015610cfb573d6000803e3d6000fd5b505050506040513d601f19601f82011682018060405250810190610d1f91906156b8565b610d32906001600160401b0386166157ce565b610d3c91906157ed565b6005805491925090610d509060019061582f565b81548110610d6057610d60615842565b60009182526020808320600883040154835463ffffffff60b01b191660079093166004026101000a900463ffffffff16600160b01b029190911782556040805180820190915282815201819052600380546001600160801b0319169055604051908082528060200260200182016040528015610de6578160200160208202803683370190505b508051610dfb9160059160209091019061506d565b506000805463ffffffff60d01b19169055610e168282613de9565b7f11be96ff86b29b6ac69d4008c2b93e729d5df3283e63b1b03cb6cc012d94fed4610e3f611f67565b600054604051633615c1b560e11b8152600160b01b90910463ffffffff1660048201526001600160a01b039190911690636c2b836a90602401602060405180830381865afa158015610e95573d6000803e3d6000fd5b505050506040513d601f19601f82011682018060405250810190610eb99190615858565b600054604080516001600160a01b039093168352600160b01b90910463ffffffff1660208301520160405180910390a15050505b600454600160401b90046001600160401b031615801590610f205750600454600160401b90046001600160401b03164210155b15610f3657600480546001600160801b03191690555b50565b6000610f4361150b565b6001600160a01b0316637aa873346040518163ffffffff1660e01b8152600401602060405180830381865afa158015610f80573d6000803e3d6000fd5b505050506040513d601f19601f82011682018060405250810190610fa491906156b8565b9050801580610fb257508042105b610fce5760405162461bcd60e51b81526004016105bd906156d1565b600054604051631b0b969d60e01b8152336004820152620100009091046001600160a01b031690631b0b969d90602401602060405180830381865afa15801561101b573d6000803e3d6000fd5b505050506040513d601f19601f8201168201806040525081019061103f919061570b565b80611062575061104d61150b565b6001600160a01b0316336001600160a01b0316145b806110ff5750600061107261150b565b6001600160a01b031663ebbe8034611096600080516020615c708339815191525490565b6040516001600160e01b031960e084901b1681526004810191909152336024820152604401602060405180830381865afa1580156110d8573d6000803e3d6000fd5b505050506040513d601f19601f820116820180604052508101906110fc91906156b8565b14155b61111b5760405162461bcd60e51b81526004016105bd90615875565b6111236106f1565b6000869050806001600160a01b0316631d8557d76040518163ffffffff1660e01b8152600401600060405180830381600087803b15801561116357600080fd5b505af1158015611177573d6000803e3d6000fd5b505050506000816001600160a01b031663418f35cc6040518163ffffffff1660e01b8152600401602060405180830381865afa1580156111bb573d6000803e3d6000fd5b505050506040513d601f19601f820116820180604052508101906111df919061569b565b600454909150600160401b90046001600160401b0316156112345760405162461bcd60e51b815260206004820152600f60248201526e185c9b5e481a5cc81cdd1d5b9b9959608a1b60448201526064016105bd565b600354600160401b90046001600160401b0316156112945760405162461bcd60e51b815260206004820152601a60248201527f63616e6e6f742061747461636b207768696c65206d6f76696e6700000000000060448201526064016105bd565b60005463ffffffff828116600160b01b90920416146112e95760405162461bcd60e51b815260206004820152601160248201527032b732b6bc9034b9903737ba103732b0b960791b60448201526064016105bd565b6112f68888888888613e9a565b156113435760405162461bcd60e51b815260206004820152601560248201527f61726d79206861732067726f776e20626967676572000000000000000000000060448201526064016105bd565b600061134d611ea8565b6040805180820182526006815265626174746c6560d01b602090910152516350b345b560e01b81527f1d3e47c3991e843d528c0f9f043ad863de6aeee16578e4fc478e274804caf7e260048201526001600160a01b0391909116906350b345b590602401602060405180830381865afa1580156113ce573d6000803e3d6000fd5b505050506040513d601f19601f820116820180604052508101906113f29190615858565b90506000816001600160a01b0316639954b52b61140d61150b565b600080516020615c70833981519152546040516001600160e01b031960e085901b1681526001600160a01b039283166004820152602481019190915260a06044820152600560a482015264424153494360d81b60c4820152306064820152908d16608482015260e4016020604051808303816000875af1158015611495573d6000803e3d6000fd5b505050506040513d601f19601f820116820180604052508101906114b99190615858565b604080516001600160a01b0380841682528d1660208201529192507fc2f0b4bf85ae608938d7c5dc325c3e9beb6629c73cdd7e0ce39466ee78e1c53b910160405180910390a150505050505050505050565b600061153e7f6c85b93e587873fbe6712f3b438d42c2945689b262f7bd34b8ea4e3f832a89e6546001600160a01b031690565b905090565b600061154d613e53565b156115e357600060029054906101000a90046001600160a01b03166001600160a01b03166309218e916040518163ffffffff1660e01b8152600401602060405180830381865afa1580156115a5573d6000803e3d6000fd5b505050506040513d601f19601f820116820180604052508101906115c9919061569b565b600054600160d01b900463ffffffff908116911614919050565b600060029054906101000a90046001600160a01b03166001600160a01b03166309218e916040518163ffffffff1660e01b8152600401602060405180830381865afa158015611636573d6000803e3d6000fd5b505050506040513d601f19601f8201168201806040525081019061165a919061569b565b600054600160b01b900463ffffffff908116911614919050565b60607f6c85b93e587873fbe6712f3b438d42c2945689b262f7bd34b8ea4e3f832a89e660040180546116a5906158b7565b80601f01602080910402602001604051908101604052809291908181526020018280546116d1906158b7565b801561051a5780601f106116f35761010080835404028352916020019161051a565b820191906000526020600020905b81548152906001019060200180831161170157509395945050505050565b600354600090600160401b90046001600160401b0316158015906117555750600354600160401b90046001600160401b03164210155b1561176e5750600054600160d01b900463ffffffff1690565b50600054600160b01b900463ffffffff1690565b61178a61150b565b6001600160a01b0316336001600160a01b0316148061183b575060006117ae61150b565b6001600160a01b031663ebbe80346117d2600080516020615c708339815191525490565b6040516001600160e01b031960e084901b1681526004810191909152336024820152604401602060405180830381865afa158015611814573d6000803e3d6000fd5b505050506040513d601f19601f8201168201806040525081019061183891906156b8565b14155b6118875760405162461bcd60e51b815260206004820152601b60248201527f6f6e6c79576f726c64417373657446726f6d53616d6545706f6368000000000060448201526064016105bd565b600180546001600160a01b0319166001600160a01b0392909216919091179055565b6118b161150b565b6001600160a01b0316336001600160a01b03161480611962575060006118d561150b565b6001600160a01b031663ebbe80346118f9600080516020615c708339815191525490565b6040516001600160e01b031960e084901b1681526004810191909152336024820152604401602060405180830381865afa15801561193b573d6000803e3d6000fd5b505050506040513d601f19601f8201168201806040525081019061195f91906156b8565b14155b6119ae5760405162461bcd60e51b815260206004820152601b60248201527f6f6e6c79576f726c64417373657446726f6d53616d6545706f6368000000000060448201526064016105bd565b60006119b861150b565b6001600160a01b0316637aa873346040518163ffffffff1660e01b8152600401602060405180830381865afa1580156119f5573d6000803e3d6000fd5b505050506040513d601f19601f82011682018060405250810190611a1991906156b8565b9050801580611a2757508042105b611a435760405162461bcd60e51b81526004016105bd906156d1565b60005b8351811015611c4b57828181518110611a6157611a61615842565b602002602001015160000315611c39576000611a7b611f67565b6001600160a01b031663fe01e782868481518110611a9b57611a9b615842565b60200260200101516040518263ffffffff1660e01b8152600401611abf91906152e3565b602060405180830381865afa158015611adc573d6000803e3d6000fd5b505050506040513d601f19601f82011682018060405250810190611b009190615858565b9050806001600160a01b03166342966c68858481518110611b2357611b23615842565b60200260200101516040518263ffffffff1660e01b8152600401611b4991815260200190565b600060405180830381600087803b158015611b6357600080fd5b505af1158015611b77573d6000803e3d6000fd5b505050507f5acc8e95648efaec7a15748d31cf3ae31e6abd52a31317011a4578ed330d992c858381518110611bae57611bae615842565b60209081029190910101516040516370a0823160e01b81523060048201526001600160a01b038416906370a0823190602401602060405180830381865afa158015611bfd573d6000803e3d6000fd5b505050506040513d601f19601f82011682018060405250810190611c2191906156b8565b604051611c2f9291906158f1565b60405180910390a1505b80611c4381615913565b915050611a46565b50505050565b6000611c5b61150b565b6001600160a01b0316637aa873346040518163ffffffff1660e01b8152600401602060405180830381865afa158015611c98573d6000803e3d6000fd5b505050506040513d601f19601f82011682018060405250810190611cbc91906156b8565b9050801580611cca57508042105b611ce65760405162461bcd60e51b81526004016105bd906156d1565b600054604051631b0b969d60e01b8152336004820152620100009091046001600160a01b031690631b0b969d90602401602060405180830381865afa158015611d33573d6000803e3d6000fd5b505050506040513d601f19601f82011682018060405250810190611d57919061570b565b80611d7a5750611d6561150b565b6001600160a01b0316336001600160a01b0316145b80611e1757506000611d8a61150b565b6001600160a01b031663ebbe8034611dae600080516020615c708339815191525490565b6040516001600160e01b031960e084901b1681526004810191909152336024820152604401602060405180830381865afa158015611df0573d6000803e3d6000fd5b505050506040513d601f19601f82011682018060405250810190611e1491906156b8565b14155b611e335760405162461bcd60e51b81526004016105bd90615875565b611e3b6106f1565b600454600160401b90046001600160401b031615611e8d5760405162461bcd60e51b815260206004820152600f60248201526e185c9b5e481a5cc81cdd1d5b9b9959608a1b60448201526064016105bd565b611e978383613ffb565b611ea18585614070565b5050505050565b6000611eb261150b565b6001600160a01b0316637b1039996040518163ffffffff1660e01b8152600401602060405180830381865afa158015611eef573d6000803e3d6000fd5b505050506040513d601f19601f8201168201806040525081019061153e9190615858565b60008060029054906101000a90046001600160a01b03166001600160a01b031663b5acd4566040518163ffffffff1660e01b8152600401602060405180830381865afa158015611eef573d6000803e3d6000fd5b6000611f7161150b565b6001600160a01b031663c6b61e4c611f95600080516020615c708339815191525490565b6040518263ffffffff1660e01b8152600401611fb391815260200190565b602060405180830381865afa158015611eef573d6000803e3d6000fd5b60607f6c85b93e587873fbe6712f3b438d42c2945689b262f7bd34b8ea4e3f832a89e660030180546116a5906158b7565b600061200b61150b565b6001600160a01b0316637aa873346040518163ffffffff1660e01b8152600401602060405180830381865afa158015612048573d6000803e3d6000fd5b505050506040513d601f19601f8201168201806040525081019061206c91906156b8565b905080158061207a57508042105b6120965760405162461bcd60e51b81526004016105bd906156d1565b600054604051631b0b969d60e01b8152336004820152620100009091046001600160a01b031690631b0b969d90602401602060405180830381865afa1580156120e3573d6000803e3d6000fd5b505050506040513d601f19601f82011682018060405250810190612107919061570b565b8061212a575061211561150b565b6001600160a01b0316336001600160a01b0316145b806121c75750600061213a61150b565b6001600160a01b031663ebbe803461215e600080516020615c708339815191525490565b6040516001600160e01b031960e084901b1681526004810191909152336024820152604401602060405180830381865afa1580156121a0573d6000803e3d6000fd5b505050506040513d601f19601f820116820180604052508101906121c491906156b8565b14155b6121e35760405162461bcd60e51b81526004016105bd90615875565b6121eb6106f1565b6002546001600160a01b031661222e5760405162461bcd60e51b81526020600482015260086024820152676e6f20736965676560c01b60448201526064016105bd565b60025460405163271b57c960e21b81526001600160a01b0385811660048301526024820185905290911690639c6d5f2490604401600060405180830381600087803b15801561227c57600080fd5b505af1158015612290573d6000803e3d6000fd5b50505050505050565b60006122a361150b565b6001600160a01b0316637aa873346040518163ffffffff1660e01b8152600401602060405180830381865afa1580156122e0573d6000803e3d6000fd5b505050506040513d601f19601f8201168201806040525081019061230491906156b8565b905080158061231257508042105b61232e5760405162461bcd60e51b81526004016105bd906156d1565b600054604051631b0b969d60e01b8152336004820152620100009091046001600160a01b031690631b0b969d90602401602060405180830381865afa15801561237b573d6000803e3d6000fd5b505050506040513d601f19601f8201168201806040525081019061239f919061570b565b806123c257506123ad61150b565b6001600160a01b0316336001600160a01b0316145b8061245f575060006123d261150b565b6001600160a01b031663ebbe80346123f6600080516020615c708339815191525490565b6040516001600160e01b031960e084901b1681526004810191909152336024820152604401602060405180830381865afa158015612438573d6000803e3d6000fd5b505050506040513d601f19601f8201168201806040525081019061245c91906156b8565b14155b61247b5760405162461bcd60e51b81526004016105bd90615875565b6124836106f1565b600354600160401b90046001600160401b0316156125b957604080518082019091526006815265626174746c6560d01b6020909101527f1d3e47c3991e843d528c0f9f043ad863de6aeee16578e4fc478e274804caf7e26124e261150b565b6001600160a01b031663ebbe8034612506600080516020615c708339815191525490565b6040516001600160e01b031960e084901b1681526004810191909152336024820152604401602060405180830381865afa158015612548573d6000803e3d6000fd5b505050506040513d601f19601f8201168201806040525081019061256c91906156b8565b146125b95760405162461bcd60e51b815260206004820152601860248201527f63616e6e6f74206a6f696e207768696c65206d6f76696e67000000000000000060448201526064016105bd565b600454600160401b90046001600160401b0316156126ef57604080518082019091526006815265626174746c6560d01b6020909101527f1d3e47c3991e843d528c0f9f043ad863de6aeee16578e4fc478e274804caf7e261261861150b565b6001600160a01b031663ebbe803461263c600080516020615c708339815191525490565b6040516001600160e01b031960e084901b1681526004810191909152336024820152604401602060405180830381865afa15801561267e573d6000803e3d6000fd5b505050506040513d601f19601f820116820180604052508101906126a291906156b8565b146126ef5760405162461bcd60e51b815260206004820181905260248201527f63616e6e6f74206a6f696e20626174746c65207768696c65207374756e6e656460448201526064016105bd565b6001546001600160a01b03161561273c5760405162461bcd60e51b8152602060048201526011602482015270616c726561647920696e20626174746c6560781b60448201526064016105bd565b6000612746614557565b116127935760405162461bcd60e51b815260206004820152601860248201527f302061726d792063616e2774206a6f696e20626174746c65000000000000000060448201526064016105bd565b6040516308f5803f60e41b8152306004820152602481018390526001600160a01b03841690638f5803f090604401600060405180830381600087803b1580156127db57600080fd5b505af11580156127ef573d6000803e3d6000fd5b50505050826001600160a01b03167f47fe3458f42ceb5e6af6aa6b78401c3bf85a6d44e984b1a84ebf6546f6d8b7618360405161282e91815260200190565b60405180910390a2505050565b600061284561150b565b6001600160a01b0316637aa873346040518163ffffffff1660e01b8152600401602060405180830381865afa158015612882573d6000803e3d6000fd5b505050506040513d601f19601f820116820180604052508101906128a691906156b8565b90508015806128b457508042105b6128d05760405162461bcd60e51b81526004016105bd906156d1565b600054604051631b0b969d60e01b8152336004820152620100009091046001600160a01b031690631b0b969d90602401602060405180830381865afa15801561291d573d6000803e3d6000fd5b505050506040513d601f19601f82011682018060405250810190612941919061570b565b80612964575061294f61150b565b6001600160a01b0316336001600160a01b0316145b80612a015750600061297461150b565b6001600160a01b031663ebbe8034612998600080516020615c708339815191525490565b6040516001600160e01b031960e084901b1681526004810191909152336024820152604401602060405180830381865afa1580156129da573d6000803e3d6000fd5b505050506040513d601f19601f820116820180604052508101906129fe91906156b8565b14155b612a1d5760405162461bcd60e51b81526004016105bd90615875565b612a256106f1565b600454600160401b90046001600160401b031615612a775760405162461bcd60e51b815260206004820152600f60248201526e185c9b5e481a5cc81cdd1d5b9b9959608a1b60448201526064016105bd565b600354600160401b90046001600160401b031615612ad75760405162461bcd60e51b815260206004820152601860248201527f63616e6e6f74206d6f7665207768696c65206d6f76696e67000000000000000060448201526064016105bd565b6001546001600160a01b031615612b305760405162461bcd60e51b815260206004820152601b60248201527f63616e6e6f74206d6f7665207768696c6520696e20626174746c65000000000060448201526064016105bd565b6002546001600160a01b031615612b895760405162461bcd60e51b815260206004820152601b60248201527f63616e6e6f74206d6f7665207768696c6520626573696567696e67000000000060448201526064016105bd565b612b9161150b565b6001600160a01b031663f5f026a36040518163ffffffff1660e01b8152600401602060405180830381865afa158015612bce573d6000803e3d6000fd5b505050506040513d601f19601f82011682018060405250810190612bf29190615858565b6001600160a01b031663be37f3de600060169054906101000a900463ffffffff1685600081518110612c2657612c26615842565b60200260200101516040518363ffffffff1660e01b8152600401612c5d92919063ffffffff92831681529116602082015260400190565b602060405180830381865afa158015612c7a573d6000803e3d6000fd5b505050506040513d601f19601f82011682018060405250810190612c9e919061570b565b612cea5760405162461bcd60e51b815260206004820152601b60248201527f696e76616c6964206669727374207061746820706f736974696f6e000000000060448201526064016105bd565b6000612cf4614557565b90506000612d00611f67565b6001600160a01b0316636c2b836a8660018851612d1d919061582f565b81518110612d2d57612d2d615842565b60200260200101516040518263ffffffff1660e01b8152600401612d5d919063ffffffff91909116815260200190565b602060405180830381865afa158015612d7a573d6000803e3d6000fd5b505050506040513d601f19601f82011682018060405250810190612d9e9190615858565b905081158015612dc257506000546001600160a01b03828116620100009092041614155b15612e0f5760405162461bcd60e51b815260206004820181905260248201527f656d7074792061726d792063616e206d6f7665206f6e6c7920746f20686f6d6560448201526064016105bd565b6001600160a01b038116612e6f5760405162461bcd60e51b815260206004820152602160248201527f63616e206d6f7665206f6e6c7920746f206f7468657220736574746c656d656e6044820152601d60fa1b60648201526084016105bd565b612e7761150b565b6001600160a01b031663f5f026a36040518163ffffffff1660e01b8152600401602060405180830381865afa158015612eb4573d6000803e3d6000fd5b505050506040513d601f19601f82011682018060405250810190612ed89190615858565b6001600160a01b031663f5485a95866040518263ffffffff1660e01b8152600401612f03919061514a565b602060405180830381865afa158015612f20573d6000803e3d6000fd5b505050506040513d601f19601f82011682018060405250810190612f44919061570b565b612f7f5760405162461bcd60e51b815260206004820152600c60248201526b0d2dcecc2d8d2c840e0c2e8d60a31b60448201526064016105bd565b8315612fd55760008211612fd55760405162461bcd60e51b815260206004820152601c60248201527f63616e6e6f7420616363656c657261746520656d7074792061726d790000000060448201526064016105bd565b6000612feb612fe3876146ef565b875187614778565b90506040518060400160405280426001600160401b031681526020018242613013919061592c565b6001600160401b039081169091528151600380546020948501518416600160401b026001600160801b031990911692909316919091179190911790558651613061916005919089019061506d565b508560018751613071919061582f565b8151811061308157613081615842565b60209081029190910101516000805463ffffffff909216600160d01b0263ffffffff60d01b199092169190911790556003546040516001600160401b03600160401b830481169216906001600160a01b038516907fff8c7cff2630504e59d5f6393fed3f2685ec3cc670982d5b1f003f9f6aa6ce0390613102908b9061514a565b60405180910390a4505050505050565b60008061311d611ea8565b6001600160a01b031663027aa9f56040518163ffffffff1660e01b8152600401600060405180830381865afa15801561315a573d6000803e3d6000fd5b505050506040513d6000823e601f3d908101601f191682016040526131829190810190615984565b9050600081516001600160401b0381111561319f5761319f6152f6565b6040519080825280602002602001820160405280156131c8578160200160208202803683370190505b506001549091506001600160a01b0316158015906132585750600160009054906101000a90046001600160a01b03166001600160a01b031663591e8db46040518163ffffffff1660e01b8152600401602060405180830381865afa158015613234573d6000803e3d6000fd5b505050506040513d601f19601f82011682018060405250810190613258919061570b565b156132d1576001546040516339a88e0160e11b81523060048201526001600160a01b03909116906373511c0290602401600060405180830381865afa1580156132a5573d6000803e3d6000fd5b505050506040513d6000823e601f3d908101601f191682016040526132cd9190810190615a34565b9150505b60005b82518110156134ba5760008382815181106132f1576132f1615842565b602002602001015190506000613305611ea8565b6001600160a01b031663cf0c5017836040518263ffffffff1660e01b815260040161333091906152e3565b60e060405180830381865afa15801561334d573d6000803e3d6000fd5b505050506040513d601f19601f820116820180604052508101906133719190615ad7565b9650505050505050670de0b6b3a76400008185858151811061339557613395615842565b60200260200101516133a5611f67565b6001600160a01b031663fe01e782866040518263ffffffff1660e01b81526004016133d091906152e3565b602060405180830381865afa1580156133ed573d6000803e3d6000fd5b505050506040513d601f19601f820116820180604052508101906134119190615858565b6040516370a0823160e01b81523060048201526001600160a01b0391909116906370a0823190602401602060405180830381865afa158015613457573d6000803e3d6000fd5b505050506040513d601f19601f8201168201806040525081019061347b91906156b8565b613485919061582f565b61348f91906157ce565b61349991906157ed565b6134a3908761592c565b9550505080806134b290615913565b9150506132d4565b50505090565b60006134ca61150b565b6001600160a01b0316637aa873346040518163ffffffff1660e01b8152600401602060405180830381865afa158015613507573d6000803e3d6000fd5b505050506040513d601f19601f8201168201806040525081019061352b91906156b8565b905080158061353957508042105b6135555760405162461bcd60e51b81526004016105bd906156d1565b600054604051631b0b969d60e01b8152336004820152620100009091046001600160a01b031690631b0b969d90602401602060405180830381865afa1580156135a2573d6000803e3d6000fd5b505050506040513d601f19601f820116820180604052508101906135c6919061570b565b806135e957506135d461150b565b6001600160a01b0316336001600160a01b0316145b80613686575060006135f961150b565b6001600160a01b031663ebbe803461361d600080516020615c708339815191525490565b6040516001600160e01b031960e084901b1681526004810191909152336024820152604401602060405180830381865afa15801561365f573d6000803e3d6000fd5b505050506040513d601f19601f8201168201806040525081019061368391906156b8565b14155b6136a25760405162461bcd60e51b81526004016105bd90615875565b6136aa6106f1565b60006136b4611ea8565b6001600160a01b031663beaa602d6040518163ffffffff1660e01b8152600401602060405180830381865afa1580156136f1573d6000803e3d6000fd5b505050506040513d601f19601f8201168201806040525081019061371591906156b8565b61371d611ea8565b6001600160a01b031663b5b41bb66040518163ffffffff1660e01b8152600401602060405180830381865afa15801561375a573d6000803e3d6000fd5b505050506040513d601f19601f8201168201806040525081019061377e91906156b8565b61378891906157ed565b600454909150600160401b90046001600160401b0316156137dd5760405162461bcd60e51b815260206004820152600f60248201526e185c9b5e481a5cc81cdd1d5b9b9959608a1b60448201526064016105bd565b806006546137eb919061592c565b42116138395760405162461bcd60e51b815260206004820152601960248201527f64656d696c69746172697a6174696f6e20636f6f6c646f776e0000000000000060448201526064016105bd565b825184511461387a5760405162461bcd60e51b815260206004820152600d60248201526c1a5b9d985b1a59081a5b9c1d5d609a1b60448201526064016105bd565b6001546001600160a01b0316156138df5760405162461bcd60e51b815260206004820152602360248201527f63616e6e6f742064656d696c69746172697a65207768696c6520696e20626174604482015262746c6560e81b60648201526084016105bd565b60006138e9611f67565b6001600160a01b0316636c2b836a6138ff61171f565b6040516001600160e01b031960e084901b16815263ffffffff919091166004820152602401602060405180830381865afa158015613941573d6000803e3d6000fd5b505050506040513d601f19601f820116820180604052508101906139659190615858565b90506000816001600160a01b03166341c525536040518163ffffffff1660e01b8152600401602060405180830381865afa1580156139a7573d6000803e3d6000fd5b505050506040513d601f19601f820116820180604052508101906139cb9190615858565b90506000805b8751811015613b885760008782815181106139ee576139ee615842565b60200260200101519050600081118015613a8557506040516314188b1d60e11b815260048101829052670de0b6b3a7640000602482015273__$b96f6cc754b665f2373f69c32648f7914e$__90632831163a90604401602060405180830381865af4158015613a61573d6000803e3d6000fd5b505050506040513d601f19601f82011682018060405250810190613a85919061570b565b613abf5760405162461bcd60e51b815260206004820152600b60248201526a1ddc9bdb99c81a5b9c1d5d60aa1b60448201526064016105bd565b613ac7611ea8565b6001600160a01b0316634161d4ec8a8481518110613ae757613ae7615842565b60200260200101516040518263ffffffff1660e01b8152600401613b0b91906152e3565b602060405180830381865afa158015613b28573d6000803e3d6000fd5b505050506040513d601f19601f82011682018060405250810190613b4c91906156b8565b613b5e670de0b6b3a7640000836157ed565b613b6891906157ce565b613b72908461592c565b9250508080613b8090615913565b9150506139d1565b506040516304dcb7bd60e41b81523090634dcb7bd090613bae908a908a90600401615b2b565b600060405180830381600087803b158015613bc857600080fd5b505af1158015613bdc573d6000803e3d6000fd5b50505050826001600160a01b0316826001600160a01b031663c20c92506040518163ffffffff1660e01b8152600401602060405180830381865afa158015613c28573d6000803e3d6000fd5b505050506040513d601f19601f82011682018060405250810190613c4c9190615858565b6001600160a01b031614613cb557604051631fd4ad2560e11b8152600481018290526001600160a01b03841690633fa95a4a90602401600060405180830381600087803b158015613c9c57600080fd5b505af1158015613cb0573d6000803e3d6000fd5b505050505b5050426006555050505050565b613cca61150b565b6001600160a01b0316336001600160a01b03161480613d7b57506000613cee61150b565b6001600160a01b031663ebbe8034613d12600080516020615c708339815191525490565b6040516001600160e01b031960e084901b1681526004810191909152336024820152604401602060405180830381865afa158015613d54573d6000803e3d6000fd5b505050506040513d601f19601f82011682018060405250810190613d7891906156b8565b14155b613dc75760405162461bcd60e51b815260206004820152601b60248201527f6f6e6c79576f726c64417373657446726f6d53616d6545706f6368000000000060448201526064016105bd565b600280546001600160a01b0319166001600160a01b0392909216919091179055565b6000613df582846157a7565b6004549091506001600160401b03600160401b90910481169082161115613e4e57600480546001600160801b031916600160401b6001600160401b038481169190910267ffffffffffffffff1916919091179085161790555b505050565b600354600090600160401b90046001600160401b031615801590613e895750600354600160401b90046001600160401b03164210155b15613e945750600190565b50600090565b6000805b84811015613fec576000613eb0611f67565b6001600160a01b031663fe01e782888885818110613ed057613ed0615842565b9050602002810190613ee29190615bc6565b6040518363ffffffff1660e01b8152600401613eff929190615c0c565b602060405180830381865afa158015613f1c573d6000803e3d6000fd5b505050506040513d601f19601f82011682018060405250810190613f409190615858565b6040516370a0823160e01b81526001600160a01b038a8116600483015291909116906370a0823190602401602060405180830381865afa158015613f88573d6000803e3d6000fd5b505050506040513d601f19601f82011682018060405250810190613fac91906156b8565b9050848483818110613fc057613fc0615842565b90506020020135811115613fd957600192505050613ff2565b5080613fe481615913565b915050613e9e565b50600090505b95945050505050565b8051600003614008575050565b60025460405163277ca5a360e11b81526001600160a01b0390911690634ef94b469061403a9085908590600401615b2b565b600060405180830381600087803b15801561405457600080fd5b505af1158015614068573d6000803e3d6000fd5b505050505050565b80518251146140c15760405162461bcd60e51b815260206004820152601960248201527f737461727453696567653a20696e76616c696420696e7075740000000000000060448201526064016105bd565b80516000036140ce575050565b600354600160401b90046001600160401b03161561412e5760405162461bcd60e51b815260206004820152601960248201527f63616e6e6f74207369656765207768696c65206d6f76696e670000000000000060448201526064016105bd565b6001546001600160a01b0316156141925760405162461bcd60e51b815260206004820152602260248201527f63616e6e6f74207374617274207369656765207768696c6520696e20626174746044820152616c6560f01b60648201526084016105bd565b600061419c611f67565b6001600160a01b0316636c2b836a6141b261171f565b6040516001600160e01b031960e084901b16815263ffffffff919091166004820152602401602060405180830381865afa1580156141f4573d6000803e3d6000fd5b505050506040513d601f19601f820116820180604052508101906142189190615858565b90506001600160a01b03811661427a5760405162461bcd60e51b815260206004820152602160248201527f6e6f20736574746c656d656e7420696e2063757272656e7420706f736974696f6044820152603760f91b60648201526084016105bd565b6000546001600160a01b03620100009091048116908216036142de5760405162461bcd60e51b815260206004820152601c60248201527f63616e6e6f742061747461636b206f776e20736574746c656d656e740000000060448201526064016105bd565b600081905060006001600160a01b0316816001600160a01b0316632de7e9b06040518163ffffffff1660e01b8152600401602060405180830381865afa15801561432c573d6000803e3d6000fd5b505050506040513d601f19601f820116820180604052508101906143509190615858565b6001600160a01b0316036143b257806001600160a01b03166363e575b16040518163ffffffff1660e01b8152600401600060405180830381600087803b15801561439957600080fd5b505af11580156143ad573d6000803e3d6000fd5b505050505b806001600160a01b0316632de7e9b06040518163ffffffff1660e01b8152600401602060405180830381865afa1580156143f0573d6000803e3d6000fd5b505050506040513d601f19601f820116820180604052508101906144149190615858565b600280546001600160a01b0319166001600160a01b0392909216918217905560405163db0ea56160e01b815263db0ea561906144569087908790600401615b2b565b600060405180830381600087803b15801561447057600080fd5b505af1158015614484573d6000803e3d6000fd5b505060025460405163b9f4ff5560e01b81523060048201526001600160a01b03909116925063b9f4ff559150602401602060405180830381865afa1580156144d0573d6000803e3d6000fd5b505050506040513d601f19601f820116820180604052508101906144f4919061570b565b15611c4b5760405162461bcd60e51b815260206004820152602d60248201527f796f752063616e6e6f742061646420756e70726f74656374656420756e69747360448201526c20746f2074686520736965676560981b60648201526084016105bd565b600080614562611ea8565b6001600160a01b031663027aa9f56040518163ffffffff1660e01b8152600401600060405180830381865afa15801561459f573d6000803e3d6000fd5b505050506040513d6000823e601f3d908101601f191682016040526145c79190810190615984565b905060005b81518110156146ea576145dd611f67565b6001600160a01b031663fe01e7828383815181106145fd576145fd615842565b60200260200101516040518263ffffffff1660e01b815260040161462191906152e3565b602060405180830381865afa15801561463e573d6000803e3d6000fd5b505050506040513d601f19601f820116820180604052508101906146629190615858565b6040516370a0823160e01b81523060048201526001600160a01b0391909116906370a0823190602401602060405180830381865afa1580156146a8573d6000803e3d6000fd5b505050506040513d601f19601f820116820180604052508101906146cc91906156b8565b6146d6908461592c565b9250806146e281615913565b9150506145cc565b505090565b60006146f9611ea8565b6001600160a01b031663781e0efe6040518163ffffffff1660e01b8152600401602060405180830381865afa158015614736573d6000803e3d6000fd5b505050506040513d601f19601f8201168201806040525081019061475a91906156b8565b8251614768906146506157ce565b61477291906157ed565b92915050565b600081600003614789575082614c38565b600061479484614c3f565b9050808311156147f95760405162461bcd60e51b815260206004820152602a60248201527f6578636565646564206d617820666f6f6420616d6f756e7420666f72206d61786044820152691a5b5d5b481cdc19595960b21b60648201526084016105bd565b6000614803611f67565b600054604051633615c1b560e11b8152600160b01b90910463ffffffff1660048201526001600160a01b039190911690636c2b836a90602401602060405180830381865afa158015614859573d6000803e3d6000fd5b505050506040513d601f19601f8201168201806040525081019061487d9190615858565b90506000816001600160a01b03166399258aef6040518163ffffffff1660e01b81526004016148c4906020808252600490820152634641524d60e01b604082015260600190565b602060405180830381865afa1580156148e1573d6000803e3d6000fd5b505050506040513d601f19601f820116820180604052508101906149059190615858565b9050806001600160a01b0316631d8557d76040518163ffffffff1660e01b8152600401600060405180830381600087803b15801561494257600080fd5b505af1158015614956573d6000803e3d6000fd5b505050506000614b79614967611f67565b6001600160a01b03166304f86f3c846001600160a01b03166324db272a6040518163ffffffff1660e01b8152600401600060405180830381865afa1580156149b3573d6000803e3d6000fd5b505050506040513d6000823e601f3d908101601f191682016040526149db9190810190615c3b565b6040518263ffffffff1660e01b81526004016149f791906152e3565b602060405180830381865afa158015614a14573d6000803e3d6000fd5b505050506040513d601f19601f82011682018060405250810190614a389190615858565b6040516375719b0160e11b81526001600160a01b038581166004830152919091169063eae3360290602401602060405180830381865afa158015614a80573d6000803e3d6000fd5b505050506040513d601f19601f82011682018060405250810190614aa491906156b8565b836001600160a01b0316633c084b8b856001600160a01b0316638545bc586040518163ffffffff1660e01b8152600401602060405180830381865afa158015614af1573d6000803e3d6000fd5b505050506040513d601f19601f82011682018060405250810190614b1591906156b8565b6040518263ffffffff1660e01b8152600401614b3391815260200190565b602060405180830381865afa158015614b50573d6000803e3d6000fd5b505050506040513d601f19601f82011682018060405250810190614b7491906156b8565b614f3a565b905085811015614bcb5760405162461bcd60e51b815260206004820181905260248201527f657863656564656420666f6f6420616d6f756e7420696e20747265617375727960448201526064016105bd565b604051632de344e160e21b8152600481018790526001600160a01b0383169063b78d138490602401600060405180830381600087803b158015614c0d57600080fd5b505af1158015614c21573d6000803e3d6000fd5b50505050614c3187898887614f50565b9450505050505b9392505050565b600080614c4a611ea8565b6001600160a01b031663027aa9f56040518163ffffffff1660e01b8152600401600060405180830381865afa158015614c87573d6000803e3d6000fd5b505050506040513d6000823e601f3d908101601f19168201604052614caf9190810190615984565b90506000805b8251811015614e8d576000614cc8611f67565b6001600160a01b031663fe01e782858481518110614ce857614ce8615842565b60200260200101516040518263ffffffff1660e01b8152600401614d0c91906152e3565b602060405180830381865afa158015614d29573d6000803e3d6000fd5b505050506040513d601f19601f82011682018060405250810190614d4d9190615858565b6040516370a0823160e01b81523060048201526001600160a01b0391909116906370a0823190602401602060405180830381865afa158015614d93573d6000803e3d6000fd5b505050506040513d601f19601f82011682018060405250810190614db791906156b8565b905085614dc2611ea8565b6001600160a01b031663267a02bf868581518110614de257614de2615842565b60200260200101516040518263ffffffff1660e01b8152600401614e0691906152e3565b602060405180830381865afa158015614e23573d6000803e3d6000fd5b505050506040513d601f19601f82011682018060405250810190614e4791906156b8565b614e59670de0b6b3a7640000846157ed565b614e6391906157ce565b614e6d91906157ce565b614e77908461592c565b9250508080614e8590615913565b915050614cb5565b50633b9aca0073__$b96f6cc754b665f2373f69c32648f7914e$__63677342ce614ebf87670de0b6b3a76400006157ce565b6040518263ffffffff1660e01b8152600401614edd91815260200190565b602060405180830381865af4158015614efa573d6000803e3d6000fd5b505050506040513d601f19601f82011682018060405250810190614f1e91906156b8565b614f2890836157ce565b614f3291906157ed565b949350505050565b6000818310614f495781614c38565b5090919050565b600080633b9aca0073__$b96f6cc754b665f2373f69c32648f7914e$__63677342ce614f8489670de0b6b3a76400006157ce565b6040518263ffffffff1660e01b8152600401614fa291815260200190565b602060405180830381865af4158015614fbf573d6000803e3d6000fd5b505050506040513d601f19601f82011682018060405250810190614fe391906156b8565b614ff587670de0b6b3a76400006157ce565b614fff91906157ed565b61500991906157ed565b90506000615017828761582f565b905060008461502e87670de0b6b3a76400006157ce565b61503891906157ed565b9050670de0b6b3a764000061504d82846157ce565b61505791906157ed565b615061908861582f565b98975050505050505050565b8280548282559060005260206000209060070160089004810192821561510c5791602002820160005b838211156150da57835183826101000a81548163ffffffff021916908363ffffffff1602179055509260200192600401602081600301049283019260010302615096565b801561510a5782816101000a81549063ffffffff02191690556004016020816003010492830192600103026150da565b505b5061511892915061511c565b5090565b5b80821115615118576000815560010161511d565b60006020828403121561514357600080fd5b5035919050565b6020808252825182820181905260009190848201906040850190845b8181101561518857835163ffffffff1683529284019291840191600101615166565b50909695505050505050565b6001600160a01b0381168114610f3657600080fd5b6000602082840312156151bb57600080fd5b8135614c3881615194565b60008083601f8401126151d857600080fd5b5081356001600160401b038111156151ef57600080fd5b6020830191508360208260051b850101111561520a57600080fd5b9250929050565b60008060008060006060868803121561522957600080fd5b853561523481615194565b945060208601356001600160401b038082111561525057600080fd5b61525c89838a016151c6565b9096509450604088013591508082111561527557600080fd5b50615282888289016151c6565b969995985093965092949392505050565b60005b838110156152ae578181015183820152602001615296565b50506000910152565b600081518084526152cf816020860160208601615293565b601f01601f19169290920160200192915050565b602081526000614c3860208301846152b7565b634e487b7160e01b600052604160045260246000fd5b604051601f8201601f191681016001600160401b0381118282101715615334576153346152f6565b604052919050565b60006001600160401b03821115615355576153556152f6565b5060051b60200190565b60006001600160401b03821115615378576153786152f6565b50601f01601f191660200190565b600082601f83011261539757600080fd5b813560206153ac6153a78361533c565b61530c565b82815260059290921b840181019181810190868411156153cb57600080fd5b8286015b848110156154495780356001600160401b038111156153ee5760008081fd5b8701603f810189136154005760008081fd5b8481013560406154126153a78361535f565b8281528b828486010111156154275760008081fd5b82828501898301376000928101880192909252508452509183019183016153cf565b509695505050505050565b600082601f83011261546557600080fd5b813560206154756153a78361533c565b82815260059290921b8401810191818101908684111561549457600080fd5b8286015b848110156154495780358352918301918301615498565b600080604083850312156154c257600080fd5b82356001600160401b03808211156154d957600080fd5b6154e586838701615386565b935060208501359150808211156154fb57600080fd5b5061550885828601615454565b9150509250929050565b6000806000806080858703121561552857600080fd5b84356001600160401b038082111561553f57600080fd5b61554b88838901615386565b9550602087013591508082111561556157600080fd5b61556d88838901615454565b9450604087013591508082111561558357600080fd5b61558f88838901615386565b935060608701359150808211156155a557600080fd5b506155b287828801615454565b91505092959194509250565b600080604083850312156155d157600080fd5b82356155dc81615194565b946020939093013593505050565b63ffffffff81168114610f3657600080fd5b6000806040838503121561560f57600080fd5b82356001600160401b0381111561562557600080fd5b8301601f8101851361563657600080fd5b803560206156466153a78361533c565b82815260059290921b8301810191818101908884111561566557600080fd5b938201935b8385101561568c57843561567d816155ea565b8252938201939082019061566a565b98969091013596505050505050565b6000602082840312156156ad57600080fd5b8151614c38816155ea565b6000602082840312156156ca57600080fd5b5051919050565b6020808252600b908201526a19d85b594818db1bdcd95960aa1b604082015260600190565b8051801515811461570657600080fd5b919050565b60006020828403121561571d57600080fd5b614c38826156f6565b80516001600160401b038116811461570657600080fd5b6000806000806080858703121561575357600080fd5b61575c85615726565b935061576a60208601615726565b925061577860408601615726565b915061578660608601615726565b905092959194509250565b634e487b7160e01b600052601160045260246000fd5b6001600160401b038181168382160190808211156157c7576157c7615791565b5092915050565b60008160001904831182151516156157e8576157e8615791565b500290565b60008261580a57634e487b7160e01b600052601260045260246000fd5b500490565b6001600160401b038281168282160390808211156157c7576157c7615791565b8181038181111561477257614772615791565b634e487b7160e01b600052603260045260246000fd5b60006020828403121561586a57600080fd5b8151614c3881615194565b60208082526022908201527f6f6e6c794f776e65724f72576f726c64417373657446726f6d53616d6545706f6040820152610c6d60f31b606082015260800190565b600181811c908216806158cb57607f821691505b6020821081036158eb57634e487b7160e01b600052602260045260246000fd5b50919050565b60408152600061590460408301856152b7565b90508260208301529392505050565b60006001820161592557615925615791565b5060010190565b8082018082111561477257614772615791565b600082601f83011261595057600080fd5b815161595e6153a78261535f565b81815284602083860101111561597357600080fd5b614f32826020830160208701615293565b6000602080838503121561599757600080fd5b82516001600160401b03808211156159ae57600080fd5b818501915085601f8301126159c257600080fd5b81516159d06153a78261533c565b81815260059190911b830184019084810190888311156159ef57600080fd5b8585015b83811015615a2757805185811115615a0b5760008081fd5b615a198b89838a010161593f565b8452509186019186016159f3565b5098975050505050505050565b60008060408385031215615a4757600080fd5b615a50836156f6565b91506020808401516001600160401b03811115615a6c57600080fd5b8401601f81018613615a7d57600080fd5b8051615a8b6153a78261533c565b81815260059190911b82018301908381019088831115615aaa57600080fd5b928401925b82841015615ac857835182529284019290840190615aaf565b80955050505050509250929050565b600080600080600080600060e0888a031215615af257600080fd5b5050855160208701516040880151606089015160808a015160a08b015160c0909b0151949c939b50919990985090965094509092509050565b6000604082016040835280855180835260608501915060608160051b8601019250602080880160005b83811015615b8257605f19888703018552615b708683516152b7565b95509382019390820190600101615b54565b50508584038187015286518085528782019482019350915060005b82811015615bb957845184529381019392810192600101615b9d565b5091979650505050505050565b6000808335601e19843603018112615bdd57600080fd5b8301803591506001600160401b03821115615bf757600080fd5b60200191503681900382131561520a57600080fd5b60208152816020820152818360408301376000818301604090810191909152601f909201601f19160101919050565b600060208284031215615c4d57600080fd5b81516001600160401b03811115615c6357600080fd5b614f328482850161593f56fe6c85b93e587873fbe6712f3b438d42c2945689b262f7bd34b8ea4e3f832a89e7a26469706673582212201a9a1c1c1a273faed45e38c05d9bd7c55c1744f00b77c66fadf3f5cee4258b5b64736f6c63430008100033",
  "libraries": {
    "MathExtension": "0x14CEC82DA1FF11B4d01fD6E078f83781037dfa90"
  },
  "devdoc": {
    "kind": "dev",
    "methods": {
      "assetGroup()": {
        "details": "Reads data from proxy's storage",
        "returns": {
          "_0": "World asset group"
        }
      },
      "assetType()": {
        "details": "Reads data from proxy's storage",
        "returns": {
          "_0": "World asset type"
        }
      },
      "burnUnits(string[],uint256[])": {
        "details": "Can only be called by world or world asset",
        "params": {
          "unitAmounts": "Amount of units for burning for every unit type",
          "unitTypes": "Unit types for burning"
        }
      },
      "claimResources(address,uint256)": {
        "details": "Amount of points will be taken may be lesser if building does not have resources in its treasury",
        "params": {
          "buildingAddress": "Address of the building treasury of which will be robbed",
          "points": "Amount of points to spend for resources"
        }
      },
      "demilitarize(string[],uint256[])": {
        "details": "Even though demilitarization of 0 units may seem reasonable, it is disabled",
        "params": {
          "unitNames": "Names of the unit types for demilitarization",
          "unitsCount": "Amount of units for demilitarization for every unit type"
        }
      },
      "epoch()": {
        "details": "Value is dereferenced from proxy storage and world"
      },
      "epochNumber()": {
        "details": "Reads data from proxy's storage",
        "returns": {
          "_0": "Epoch number"
        }
      },
      "getCurrentPosition()": {
        "details": "This method should be used to determine real army position",
        "returns": {
          "_0": "Position"
        }
      },
      "getMovementPath()": {
        "details": "Useful to get entire movement path rather than querying each path item by index. It does not take into account if army is finished move by time",
        "returns": {
          "_0": "Entire path army is taken during movement"
        }
      },
      "getOwner()": {
        "details": "Same as owner of the settlement to which this army belongs",
        "returns": {
          "_0": "Address of the owner of the army"
        }
      },
      "getTotalSiegeSupport()": {
        "details": "For every unit type placed in siege calculates sum of all of them",
        "returns": {
          "totalSiegeSupport": "Total siege support of the army"
        }
      },
      "init(address)": {
        "details": "Called by factory contract which creates current instance",
        "params": {
          "settlementAddress": "Settlement address"
        }
      },
      "isHomePosition()": {
        "details": "Takes into account if army movement is finished",
        "returns": {
          "_0": "Is army on home position"
        }
      },
      "joinBattle(address,uint256)": {
        "details": "Moving army is able to join battle only if caller is another army (drags it into battle)",
        "params": {
          "battleAddress": "Battle address army will join",
          "side": "Side of the battle army will join (sideA = 1, sideB = 2)"
        }
      },
      "move(uint32[],uint256)": {
        "details": "Even though path can be provided artificial only allowed movement to a settlement",
        "params": {
          "foodToSpendOnFeeding": "Amount of food army will take from current position settlements FARM in order to decrease total time army will take to get to destination position",
          "path": "Path army will take to the settlement"
        }
      },
      "newBattle(address,string[],uint256[])": {
        "details": "Creates IBattle and sets both armies in created battle",
        "params": {
          "armyAddress": "Address of the army this army will attack",
          "maxUnitTypesToAttack": "Max units types to attack",
          "maxUnitsToAttack": "Max units to attack"
        }
      },
      "registry()": {
        "details": "Value is dereferenced from world"
      },
      "setBattle(address)": {
        "details": "Can only be called by world or world asset",
        "params": {
          "battleAddress": "Battle address"
        }
      },
      "setSiege(address)": {
        "details": "Can only be called by world or world asset",
        "params": {
          "siegeAddress": "Siege address"
        }
      },
      "setUnitsInSiege(string[],uint256[],string[],uint256[])": {
        "details": "Provides ability to atomically setup/re-setup siege",
        "params": {
          "addUnitsCount": "Amount of units to put in siege for every unit type",
          "addUnitsNames": "Names of the unit types to put in siege",
          "removeUnitsCount": "Amount of units to withdraw from siege for every unit type",
          "removeUnitsNames": "Names of the unit types to withdraw from siege"
        }
      },
      "updateState()": {
        "details": "Called on every action which are based on army state and time"
      },
      "world()": {
        "details": "Value is dereferenced from proxy storage"
      }
    },
    "stateVariables": {
      "battle": {
        "details": "If army is not in battle returns address(0). It does not take into account if battle is finished but army is not left the battle"
      },
      "currentPosition": {
        "details": "Updated when army updates position. It does not take into account if army is movingTo proper query current position use #getCurrentPosition"
      },
      "currentSettlement": {
        "details": "Immutable, initialized on the army creation"
      },
      "destinationPosition": {
        "details": "Updated when army starts moving. It does not take into account if army is finished move by timeTo proper calculate destination position you need to check if army finished movement by comparing current time and movementTiming.endTime"
      },
      "lastDemilitarizationTime": {
        "details": "Updated when #demilitarize is called"
      },
      "movementPath": {
        "details": "Updated when army starts moving. It does not take into account if army is finished move by timeTo proper query entire movementPath use #getMovementPath"
      },
      "movementTiming": {
        "details": "Updated when army starts moving. It does not take into account if army is finished move by time"
      },
      "siege": {
        "details": "If army is not in siege returns address(0)"
      },
      "stunTiming": {
        "details": "Updated when army finishes move or when army loses battle"
      }
    },
    "version": 1
  },
  "userdoc": {
    "events": {
      "ExitedFromBattle(address)": {
        "notice": "Emitted when #updateState is called (even though event can be emitted only on the next action related to the current army, de-facto army will exit battle when battle is finished)"
      },
      "JoinedBattle(address,uint256)": {
        "notice": "Emitted when army joins battle. At the battle creation both armies (attacker and attacked) will emit this event. Attacker army will be side A and at attacked army will be sideB"
      },
      "MovingTo(address,uint256,uint256,uint32[])": {
        "notice": "Emitted when #move is called"
      },
      "NewBattle(address,address)": {
        "notice": "Emitted when #newBattle is called. Army which attacks another army will emit this event."
      },
      "UnitsChanged(string,uint256)": {
        "notice": "Emitted when #burnUnits is called (#demilitarize or #exitBattle)"
      },
      "UpdatedPosition(address,uint32)": {
        "notice": "Emitted when #updatePosition is called (even though event can be emitted only on the next action related to the current army, de-facto army will update position based on 'movementTiming.endTime'"
      }
    },
    "kind": "user",
    "methods": {
      "assetGroup()": {
        "notice": "Returns world asset group"
      },
      "assetType()": {
        "notice": "Returns world asset type"
      },
      "battle()": {
        "notice": "Battle in which army is on"
      },
      "burnUnits(string[],uint256[])": {
        "notice": "Burns units from the army"
      },
      "claimResources(address,uint256)": {
        "notice": "Swaps accumulated robbery tokens in siege for resource"
      },
      "currentPosition()": {
        "notice": "Position where army currently stands on"
      },
      "currentSettlement()": {
        "notice": "Settlement address to which this army belongs"
      },
      "demilitarize(string[],uint256[])": {
        "notice": "Demilitarizes part of the army. Demilitarization provides prosperity to the settlement army is currently staying on"
      },
      "destinationPosition()": {
        "notice": "Position to which are is moving to"
      },
      "epoch()": {
        "notice": "Epoch"
      },
      "epochNumber()": {
        "notice": "Returns epoch number"
      },
      "getCurrentPosition()": {
        "notice": "Calculates current position taking to the account #movementTimings"
      },
      "getMovementPath()": {
        "notice": "Path army is taken during movement"
      },
      "getOwner()": {
        "notice": "Return owner of the army"
      },
      "getTotalSiegeSupport()": {
        "notice": "Calculates total siege support of the army"
      },
      "init(address)": {
        "notice": "Proxy initializer"
      },
      "isHomePosition()": {
        "notice": "Calculates is army on its home position"
      },
      "joinBattle(address,uint256)": {
        "notice": "Joins current army in battle to the provided side"
      },
      "lastDemilitarizationTime()": {
        "notice": "Time at which last demilitarization occured"
      },
      "move(uint32[],uint256)": {
        "notice": "Initiates army movement to the settlement"
      },
      "movementPath(uint256)": {
        "notice": "Path army is taken during movement"
      },
      "movementTiming()": {
        "notice": "Movement timings"
      },
      "newBattle(address,string[],uint256[])": {
        "notice": "Initiates battle with another army is both are not in battle"
      },
      "registry()": {
        "notice": "Registry"
      },
      "setBattle(address)": {
        "notice": "Sets battle"
      },
      "setSiege(address)": {
        "notice": "Sets siege"
      },
      "setUnitsInSiege(string[],uint256[],string[],uint256[])": {
        "notice": "Sets and withdraw units to/from siege"
      },
      "siege()": {
        "notice": "Siege in which are army is on"
      },
      "stunTiming()": {
        "notice": "Stun timings"
      },
      "updateState()": {
        "notice": "Updates army state to the current block"
      },
      "world()": {
        "notice": "World"
      }
    },
    "version": 1
  },
  "storageLayout": {
    "storage": [
      {
        "astId": 119,
        "contract": "contracts/core/assets/army/Army.sol:Army",
        "label": "_initialized",
        "offset": 0,
        "slot": "0",
        "type": "t_uint8"
      },
      {
        "astId": 122,
        "contract": "contracts/core/assets/army/Army.sol:Army",
        "label": "_initializing",
        "offset": 1,
        "slot": "0",
        "type": "t_bool"
      },
      {
        "astId": 10249,
        "contract": "contracts/core/assets/army/Army.sol:Army",
        "label": "currentSettlement",
        "offset": 2,
        "slot": "0",
        "type": "t_contract(ISettlement)20787"
      },
      {
        "astId": 10253,
        "contract": "contracts/core/assets/army/Army.sol:Army",
        "label": "currentPosition",
        "offset": 22,
        "slot": "0",
        "type": "t_uint32"
      },
      {
        "astId": 10257,
        "contract": "contracts/core/assets/army/Army.sol:Army",
        "label": "destinationPosition",
        "offset": 26,
        "slot": "0",
        "type": "t_uint32"
      },
      {
        "astId": 10262,
        "contract": "contracts/core/assets/army/Army.sol:Army",
        "label": "battle",
        "offset": 0,
        "slot": "1",
        "type": "t_contract(IBattle)14669"
      },
      {
        "astId": 10267,
        "contract": "contracts/core/assets/army/Army.sol:Army",
        "label": "siege",
        "offset": 0,
        "slot": "2",
        "type": "t_contract(ISiege)22927"
      },
      {
        "astId": 10272,
        "contract": "contracts/core/assets/army/Army.sol:Army",
        "label": "movementTiming",
        "offset": 0,
        "slot": "3",
        "type": "t_struct(MovementTiming)12147_storage"
      },
      {
        "astId": 10277,
        "contract": "contracts/core/assets/army/Army.sol:Army",
        "label": "stunTiming",
        "offset": 0,
        "slot": "4",
        "type": "t_struct(StunTiming)12152_storage"
      },
      {
        "astId": 10282,
        "contract": "contracts/core/assets/army/Army.sol:Army",
        "label": "movementPath",
        "offset": 0,
        "slot": "5",
        "type": "t_array(t_uint32)dyn_storage"
      },
      {
        "astId": 10286,
        "contract": "contracts/core/assets/army/Army.sol:Army",
        "label": "lastDemilitarizationTime",
        "offset": 0,
        "slot": "6",
        "type": "t_uint256"
      }
    ],
    "types": {
      "t_array(t_uint32)dyn_storage": {
        "base": "t_uint32",
        "encoding": "dynamic_array",
        "label": "uint32[]",
        "numberOfBytes": "32"
      },
      "t_bool": {
        "encoding": "inplace",
        "label": "bool",
        "numberOfBytes": "1"
      },
      "t_contract(IBattle)14669": {
        "encoding": "inplace",
        "label": "contract IBattle",
        "numberOfBytes": "20"
      },
      "t_contract(ISettlement)20787": {
        "encoding": "inplace",
        "label": "contract ISettlement",
        "numberOfBytes": "20"
      },
      "t_contract(ISiege)22927": {
        "encoding": "inplace",
        "label": "contract ISiege",
        "numberOfBytes": "20"
      },
      "t_struct(MovementTiming)12147_storage": {
        "encoding": "inplace",
        "label": "struct IArmy.MovementTiming",
        "members": [
          {
            "astId": 12144,
            "contract": "contracts/core/assets/army/Army.sol:Army",
            "label": "startTime",
            "offset": 0,
            "slot": "0",
            "type": "t_uint64"
          },
          {
            "astId": 12146,
            "contract": "contracts/core/assets/army/Army.sol:Army",
            "label": "endTime",
            "offset": 8,
            "slot": "0",
            "type": "t_uint64"
          }
        ],
        "numberOfBytes": "32"
      },
      "t_struct(StunTiming)12152_storage": {
        "encoding": "inplace",
        "label": "struct IArmy.StunTiming",
        "members": [
          {
            "astId": 12149,
            "contract": "contracts/core/assets/army/Army.sol:Army",
            "label": "startTime",
            "offset": 0,
            "slot": "0",
            "type": "t_uint64"
          },
          {
            "astId": 12151,
            "contract": "contracts/core/assets/army/Army.sol:Army",
            "label": "endTime",
            "offset": 8,
            "slot": "0",
            "type": "t_uint64"
          }
        ],
        "numberOfBytes": "32"
      },
      "t_uint256": {
        "encoding": "inplace",
        "label": "uint256",
        "numberOfBytes": "32"
      },
      "t_uint32": {
        "encoding": "inplace",
        "label": "uint32",
        "numberOfBytes": "4"
      },
      "t_uint64": {
        "encoding": "inplace",
        "label": "uint64",
        "numberOfBytes": "8"
      },
      "t_uint8": {
        "encoding": "inplace",
        "label": "uint8",
        "numberOfBytes": "1"
      }
    }
  }
}