{
  "address": "0xCACd171B2Cb4c0467DF408Df16DfEBe7DCD01B87",
  "abi": [
    {
      "anonymous": false,
      "inputs": [
        {
          "indexed": false,
          "internalType": "uint8",
          "name": "version",
          "type": "uint8"
        }
      ],
      "name": "Initialized",
      "type": "event"
    },
    {
      "anonymous": false,
      "inputs": [
        {
          "indexed": false,
          "internalType": "address",
          "name": "prosperityAddress",
          "type": "address"
        }
      ],
      "name": "NewProsperity",
      "type": "event"
    },
    {
      "anonymous": false,
      "inputs": [
        {
          "indexed": false,
          "internalType": "address",
          "name": "resourceAddress",
          "type": "address"
        },
        {
          "indexed": false,
          "internalType": "string",
          "name": "resourceName",
          "type": "string"
        }
      ],
      "name": "NewResource",
      "type": "event"
    },
    {
      "anonymous": false,
      "inputs": [
        {
          "indexed": true,
          "internalType": "address",
          "name": "contractAddress",
          "type": "address"
        },
        {
          "indexed": false,
          "internalType": "string",
          "name": "scriptName",
          "type": "string"
        },
        {
          "indexed": false,
          "internalType": "address",
          "name": "zoneAddress",
          "type": "address"
        },
        {
          "indexed": false,
          "internalType": "uint32",
          "name": "position",
          "type": "uint32"
        }
      ],
      "name": "NewSettlement",
      "type": "event"
    },
    {
      "anonymous": false,
      "inputs": [
        {
          "indexed": false,
          "internalType": "address",
          "name": "tileCapturingSystemAddress",
          "type": "address"
        }
      ],
      "name": "NewTileCapturingSystem",
      "type": "event"
    },
    {
      "anonymous": false,
      "inputs": [
        {
          "indexed": false,
          "internalType": "address",
          "name": "unitsAddress",
          "type": "address"
        },
        {
          "indexed": false,
          "internalType": "string",
          "name": "unitsName",
          "type": "string"
        }
      ],
      "name": "NewUnits",
      "type": "event"
    },
    {
      "anonymous": false,
      "inputs": [
        {
          "indexed": false,
          "internalType": "address",
          "name": "workersAddress",
          "type": "address"
        }
      ],
      "name": "NewWorkers",
      "type": "event"
    },
    {
      "anonymous": false,
      "inputs": [
        {
          "indexed": false,
          "internalType": "address",
          "name": "zoneAddress",
          "type": "address"
        },
        {
          "indexed": false,
          "internalType": "uint256",
          "name": "zoneId",
          "type": "uint256"
        }
      ],
      "name": "NewZoneActivated",
      "type": "event"
    },
    {
      "inputs": [
        {
          "internalType": "uint16",
          "name": "zoneId",
          "type": "uint16"
        }
      ],
      "name": "activateZone",
      "outputs": [],
      "stateMutability": "nonpayable",
      "type": "function"
    },
    {
      "inputs": [],
      "name": "assetGroup",
      "outputs": [
        {
          "internalType": "string",
          "name": "",
          "type": "string"
        }
      ],
      "stateMutability": "view",
      "type": "function"
    },
    {
      "inputs": [],
      "name": "assetType",
      "outputs": [
        {
          "internalType": "string",
          "name": "",
          "type": "string"
        }
      ],
      "stateMutability": "view",
      "type": "function"
    },
    {
      "inputs": [
        {
          "internalType": "address",
          "name": "cultistsArmyAddress",
          "type": "address"
        },
        {
          "internalType": "uint256",
          "name": "value",
          "type": "uint256"
        }
      ],
      "name": "decreaseTotalCultists",
      "outputs": [],
      "stateMutability": "nonpayable",
      "type": "function"
    },
    {
      "inputs": [],
      "name": "epoch",
      "outputs": [
        {
          "internalType": "contract IEpoch",
          "name": "",
          "type": "address"
        }
      ],
      "stateMutability": "view",
      "type": "function"
    },
    {
      "inputs": [],
      "name": "epochNumber",
      "outputs": [
        {
          "internalType": "uint256",
          "name": "",
          "type": "uint256"
        }
      ],
      "stateMutability": "view",
      "type": "function"
    },
    {
      "inputs": [
        {
          "internalType": "address",
          "name": "cultistsArmyAddress",
          "type": "address"
        },
        {
          "internalType": "uint256",
          "name": "value",
          "type": "uint256"
        }
      ],
      "name": "increaseTotalCultists",
      "outputs": [],
      "stateMutability": "nonpayable",
      "type": "function"
    },
    {
      "inputs": [
        {
          "internalType": "uint256",
          "name": "epochNumber",
          "type": "uint256"
        }
      ],
      "name": "init",
      "outputs": [],
      "stateMutability": "nonpayable",
      "type": "function"
    },
    {
      "inputs": [],
      "name": "mostRecentCultistsSummonTime",
      "outputs": [
        {
          "internalType": "uint256",
          "name": "",
          "type": "uint256"
        }
      ],
      "stateMutability": "view",
      "type": "function"
    },
    {
      "inputs": [
        {
          "internalType": "uint256",
          "name": "ownerTokenId",
          "type": "uint256"
        },
        {
          "internalType": "uint32",
          "name": "position",
          "type": "uint32"
        },
        {
          "internalType": "string",
          "name": "assetName",
          "type": "string"
        },
        {
          "internalType": "bool",
          "name": "performAttachmentValidation",
          "type": "bool"
        }
      ],
      "name": "newAssetSettlement",
      "outputs": [
        {
          "internalType": "address",
          "name": "",
          "type": "address"
        }
      ],
      "stateMutability": "nonpayable",
      "type": "function"
    },
    {
      "inputs": [
        {
          "internalType": "uint32",
          "name": "position",
          "type": "uint32"
        },
        {
          "internalType": "uint256",
          "name": "ownerTokenId",
          "type": "uint256"
        },
        {
          "internalType": "uint256",
          "name": "settlementPrice",
          "type": "uint256"
        },
        {
          "internalType": "uint256",
          "name": "settlementPurchaseTime",
          "type": "uint256"
        }
      ],
      "name": "newSettlement",
      "outputs": [
        {
          "internalType": "address",
          "name": "",
          "type": "address"
        }
      ],
      "stateMutability": "nonpayable",
      "type": "function"
    },
    {
      "inputs": [],
      "name": "prosperity",
      "outputs": [
        {
          "internalType": "contract IProsperity",
          "name": "",
          "type": "address"
        }
      ],
      "stateMutability": "view",
      "type": "function"
    },
    {
      "inputs": [],
      "name": "registry",
      "outputs": [
        {
          "internalType": "contract IRegistry",
          "name": "",
          "type": "address"
        }
      ],
      "stateMutability": "view",
      "type": "function"
    },
    {
      "inputs": [
        {
          "internalType": "string",
          "name": "",
          "type": "string"
        }
      ],
      "name": "resources",
      "outputs": [
        {
          "internalType": "contract IResource",
          "name": "",
          "type": "address"
        }
      ],
      "stateMutability": "view",
      "type": "function"
    },
    {
      "inputs": [
        {
          "internalType": "uint32",
          "name": "position",
          "type": "uint32"
        }
      ],
      "name": "restoreSettlement",
      "outputs": [],
      "stateMutability": "nonpayable",
      "type": "function"
    },
    {
      "inputs": [
        {
          "internalType": "uint32",
          "name": "",
          "type": "uint32"
        }
      ],
      "name": "settlements",
      "outputs": [
        {
          "internalType": "contract ISettlement",
          "name": "",
          "type": "address"
        }
      ],
      "stateMutability": "view",
      "type": "function"
    },
    {
      "inputs": [
        {
          "internalType": "uint16[]",
          "name": "zoneIds",
          "type": "uint16[]"
        }
      ],
      "name": "summonCultistsBatch",
      "outputs": [],
      "stateMutability": "nonpayable",
      "type": "function"
    },
    {
      "inputs": [],
      "name": "tileCapturingSystem",
      "outputs": [
        {
          "internalType": "contract ITileCapturingSystem",
          "name": "",
          "type": "address"
        }
      ],
      "stateMutability": "view",
      "type": "function"
    },
    {
      "inputs": [],
      "name": "totalCultists",
      "outputs": [
        {
          "internalType": "uint256",
          "name": "",
          "type": "uint256"
        }
      ],
      "stateMutability": "view",
      "type": "function"
    },
    {
      "inputs": [
        {
          "internalType": "string",
          "name": "",
          "type": "string"
        }
      ],
      "name": "units",
      "outputs": [
        {
          "internalType": "contract IUnits",
          "name": "",
          "type": "address"
        }
      ],
      "stateMutability": "view",
      "type": "function"
    },
    {
      "inputs": [
        {
          "internalType": "uint256",
          "name": "",
          "type": "uint256"
        }
      ],
      "name": "userSettlements",
      "outputs": [
        {
          "internalType": "contract ISettlement",
          "name": "",
          "type": "address"
        }
      ],
      "stateMutability": "view",
      "type": "function"
    },
    {
      "inputs": [],
      "name": "workers",
      "outputs": [
        {
          "internalType": "contract IWorkers",
          "name": "",
          "type": "address"
        }
      ],
      "stateMutability": "view",
      "type": "function"
    },
    {
      "inputs": [],
      "name": "world",
      "outputs": [
        {
          "internalType": "contract IWorld",
          "name": "",
          "type": "address"
        }
      ],
      "stateMutability": "view",
      "type": "function"
    },
    {
      "inputs": [
        {
          "internalType": "uint256",
          "name": "",
          "type": "uint256"
        }
      ],
      "name": "zones",
      "outputs": [
        {
          "internalType": "contract IZone",
          "name": "",
          "type": "address"
        }
      ],
      "stateMutability": "view",
      "type": "function"
    }
  ],
  "transactionHash": "0x021f692f903aada6493cca0819325a65860efecb38e5f5328cf7308efbec4d05",
  "args": [],
  "numDeployments": 1,
  "solcInputHash": "d40fd766cc3fa0d4c836779e74bc4f2f",
  "bytecode": "0x608060405234801561001057600080fd5b506130bb806100206000396000f3fe608060405234801561001057600080fd5b50600436106101985760003560e01c80639abb3cae116100e3578063d7e842821161008c578063f4145a8311610066578063f4145a8314610388578063fcc814b01461039d578063fe01e782146103a657600080fd5b8063d7e842821461034b578063e52f082d14610362578063f3c17d941461037557600080fd5b8063b850a9c9116100bd578063b850a9c914610312578063c91b956614610325578063cabb62f01461033857600080fd5b80639abb3cae146102e4578063aba607d5146102ec578063b7b0422d146102ff57600080fd5b80633fe3347a116101455780637b1039991161011f5780637b103999146102c1578063900cf0cf146102c9578063934938d3146102d157600080fd5b80633fe3347a1461025a578063680080ad1461026f5780636c2b836a1461029857600080fd5b806318f45c1a1161017657806318f45c1a1461022c5780632c4613dc1461023f57806330b67baa1461025257600080fd5b806301d15add1461019d57806304f86f3c146101b25780631333963214610203575b600080fd5b6101b06101ab366004612784565b6103da565b005b6101e66101c0366004612875565b80516020818301810180516007825292820191909301209152546001600160a01b031681565b6040516001600160a01b0390911681526020015b60405180910390f35b6101e66102113660046128b2565b6001602052600090815260409020546001600160a01b031681565b6101b061023a3660046128dd565b6104ff565b6009546101e6906001600160a01b031681565b6101e6610807565b61026261083f565b6040516101fa919061294a565b6101e661027d3660046128b2565b600a602052600090815260409020546001600160a01b031681565b6101e66102a63660046128dd565b6002602052600090815260409020546001600160a01b031681565b6101e66108f3565b6101e661095e565b6101b06102df366004612991565b6109c7565b610262610a80565b6101e66102fa366004612a2b565b610ab1565b6101b061030d3660046128b2565b61113a565b6101e6610320366004612a9c565b6115fd565b6006546101e6906001600160a01b031681565b6005546101e6906001600160a01b031681565b61035460035481565b6040519081526020016101fa565b6101b0610370366004612784565b611c33565b6101b0610383366004612ad7565b611d57565b60008051602061306683398151915254610354565b61035460045481565b6101e66103b4366004612875565b80516020818301810180516008825292820191909301209152546001600160a01b031681565b6103e2610807565b6001600160a01b0316336001600160a01b0316148061049357506000610406610807565b6001600160a01b031663ebbe803461042a6000805160206130668339815191525490565b6040516001600160e01b031960e084901b1681526004810191909152336024820152604401602060405180830381865afa15801561046c573d6000803e3d6000fd5b505050506040513d601f19601f820116820180604052508101906104909190612af4565b14155b6104e45760405162461bcd60e51b815260206004820152601b60248201527f6f6e6c79576f726c64417373657446726f6d53616d6545706f6368000000000060448201526064015b60405180910390fd5b80600460008282546104f69190612b23565b90915550505050565b610507610807565b6001600160a01b0316636903beb46040518163ffffffff1660e01b8152600401602060405180830381865afa158015610544573d6000803e3d6000fd5b505050506040513d601f19601f820116820180604052508101906105689190612af4565b60008051602061306683398151915254146105dd5760405162461bcd60e51b815260206004820152602f60248201527f736574746c656d656e742063616e20626520726573746f726564206f6e6c792060448201526e0d2dc40c2c6e8d2ecca40cae0dec6d608b1b60648201526084016104db565b60006105e7610807565b6001600160a01b0316639fdef0756040518163ffffffff1660e01b8152600401602060405180830381865afa158015610624573d6000803e3d6000fd5b505050506040513d601f19601f820116820180604052508101906106489190612b36565b604051633615c1b560e11b815263ffffffff841660048201529091506000906001600160a01b03831690636c2b836a90602401602060405180830381865afa158015610698573d6000803e3d6000fd5b505050506040513d601f19601f820116820180604052508101906106bc9190612b36565b6001600160a01b0316633908b4ee6040518163ffffffff1660e01b8152600401602060405180830381865afa1580156106f9573d6000803e3d6000fd5b505050506040513d601f19601f8201168201806040525081019061071d9190612af4565b60405163aba607d560e01b8152909150600090309063aba607d59061074a90859088908690600401612b53565b6020604051808303816000875af1158015610769573d6000803e3d6000fd5b505050506040513d601f19601f8201168201806040525081019061078d9190612b36565b90506107998282612086565b60405163022de18160e01b815263ffffffff851660048201526001600160a01b03828116602483015284169063022de181906044015b600060405180830381600087803b1580156107e957600080fd5b505af11580156107fd573d6000803e3d6000fd5b5050505050505050565b600061083a7f6c85b93e587873fbe6712f3b438d42c2945689b262f7bd34b8ea4e3f832a89e6546001600160a01b031690565b905090565b60607f6c85b93e587873fbe6712f3b438d42c2945689b262f7bd34b8ea4e3f832a89e6600401805461087090612b9c565b80601f016020809104026020016040519081016040528092919081815260200182805461089c90612b9c565b80156108e95780601f106108be576101008083540402835291602001916108e9565b820191906000526020600020905b8154815290600101906020018083116108cc57829003601f168201915b5050505050905090565b60006108fd610807565b6001600160a01b0316637b1039996040518163ffffffff1660e01b8152600401602060405180830381865afa15801561093a573d6000803e3d6000fd5b505050506040513d601f19601f8201168201806040525081019061083a9190612b36565b6000610968610807565b6001600160a01b031663c6b61e4c61098c6000805160206130668339815191525490565b6040518263ffffffff1660e01b81526004016109aa91815260200190565b602060405180830381865afa15801561093a573d6000803e3d6000fd5b60005b8151811015610a7c57600160008383815181106109e9576109e9612bd6565b602002602001015161ffff16815260200190815260200160002060009054906101000a90046001600160a01b03166001600160a01b03166360dbe4976040518163ffffffff1660e01b8152600401600060405180830381600087803b158015610a5157600080fd5b505af1158015610a65573d6000803e3d6000fd5b505050508080610a7490612bec565b9150506109ca565b5050565b60607f6c85b93e587873fbe6712f3b438d42c2945689b262f7bd34b8ea4e3f832a89e6600301805461087090612b9c565b6000610abb610807565b6001600160a01b0316336001600160a01b03161480610b6c57506000610adf610807565b6001600160a01b031663ebbe8034610b036000805160206130668339815191525490565b6040516001600160e01b031960e084901b1681526004810191909152336024820152604401602060405180830381865afa158015610b45573d6000803e3d6000fd5b505050506040513d601f19601f82011682018060405250810190610b699190612af4565b14155b610bb85760405162461bcd60e51b815260206004820152601b60248201527f6f6e6c79576f726c64417373657446726f6d53616d6545706f6368000000000060448201526064016104db565b6000610bc2610807565b6001600160a01b031663f5f026a36040518163ffffffff1660e01b8152600401602060405180830381865afa158015610bff573d6000803e3d6000fd5b505050506040513d601f19601f82011682018060405250810190610c239190612b36565b604051637167172760e01b815263ffffffff871660048201529091506000906001600160a01b03831690637167172790602401602060405180830381865afa158015610c73573d6000803e3d6000fd5b505050506040513d601f19601f82011682018060405250810190610c979190612c05565b90508061ffff16600003610ced5760405162461bcd60e51b815260206004820152601a60248201527f63616e6e6f7420736574746c65206f6e20766f69642073706f7400000000000060448201526064016104db565b63ffffffff86166000908152600260205260409020546001600160a01b031615610d695760405162461bcd60e51b815260206004820152602760248201527f736574746c656d656e74206f6e207468697320706c61636520616c72656164796044820152662065786973747360c81b60648201526084016104db565b610d74866002612119565b15610dc15760405162461bcd60e51b815260206004820152601660248201527f736574746c656d656e7420696e2072616469757320320000000000000000000060448201526064016104db565b8315610e1e57610dd286600361215c565b610e1e5760405162461bcd60e51b815260206004820152601e60248201527f6e6f20736574746c656d656e7420696e2072696e67207261646975732033000060448201526064016104db565b6000610e286108f3565b604080518082018252600a8152691cd95d1d1b195b595b9d60b21b602090910152516350b345b560e01b81527f6522b1ac0c0c078f1fcc696b9cf72c59bb3624b7d2a9d82059b2f3832fd9973d60048201526001600160a01b0391909116906350b345b590602401602060405180830381865afa158015610ead573d6000803e3d6000fd5b505050506040513d601f19601f82011682018060405250810190610ed19190612b36565b61ffff83166000908152600160205260408120549192506001600160a01b039182169183166368910624610f03610807565b600080516020613066833981519152548b8e878f6040518763ffffffff1660e01b8152600401610f3896959493929190612c22565b6020604051808303816000875af1158015610f57573d6000803e3d6000fd5b505050506040513d601f19601f82011682018060405250810190610f7b9190612b36565b63ffffffff8a16600090815260026020526040902080546001600160a01b0319166001600160a01b0383161790559050610fb3610807565b6001600160a01b0316639fdef0756040518163ffffffff1660e01b8152600401602060405180830381865afa158015610ff0573d6000803e3d6000fd5b505050506040513d601f19601f820116820180604052508101906110149190612b36565b604051631345b9a560e21b815263ffffffff8b1660048201526001600160a01b0383811660248301529190911690634d16e69490604401600060405180830381600087803b15801561106557600080fd5b505af1158015611079573d6000803e3d6000fd5b5050600954604051631345b9a560e21b815263ffffffff8d1660048201526001600160a01b0385811660248301529091169250634d16e6949150604401600060405180830381600087803b1580156110d057600080fd5b505af11580156110e4573d6000803e3d6000fd5b50505050806001600160a01b03167f2b964824b655b595c36e54a5f66cc4a9b6fce5ccfdb309966cf503382162132689848c60405161112593929190612c73565b60405180910390a29998505050505050505050565b600054610100900460ff161580801561115a5750600054600160ff909116105b806111745750303b158015611174575060005460ff166001145b6111d75760405162461bcd60e51b815260206004820152602e60248201527f496e697469616c697a61626c653a20636f6e747261637420697320616c72656160448201526d191e481a5b9a5d1a585b1a5e995960921b60648201526084016104db565b6000805460ff1916600117905580156111fa576000805461ff0019166101001790555b60006112046108f3565b6001600160a01b0316631dae21526040518163ffffffff1660e01b8152600401600060405180830381865afa158015611241573d6000803e3d6000fd5b505050506040513d6000823e601f3d908101601f191682016040526112699190810190612dfb565b905060005b815181101561134557600082828151811061128b5761128b612bd6565b6020026020010151905060006112af8260000151836020015184604001518961239e565b905080600783604001516040516112c69190612e44565b9081526040805191829003602001822080546001600160a01b03949094166001600160a01b031990941693909317909255908301517f117bc91c04bc679c1dfa04b126d8814fed7d1bb2ff83def1254aa16db1d861d291611328918491612e60565b60405180910390a15050808061133d90612bec565b91505061126e565b5060006113506108f3565b6001600160a01b031663426851b96040518163ffffffff1660e01b8152600401600060405180830381865afa15801561138d573d6000803e3d6000fd5b505050506040513d6000823e601f3d908101601f191682016040526113b59190810190612dfb565b905060005b81518110156114915760008282815181106113d7576113d7612bd6565b6020026020010151905060006113fb8260000151836020015184604001518a6124d4565b905080600883604001516040516114129190612e44565b9081526040805191829003602001822080546001600160a01b03949094166001600160a01b031990941693909317909255908301517facd1fcd7f9c6bbe143f932dd19ece3228dd0fa5e08da6a084f9561d7a32baec191611474918491612e60565b60405180910390a15050808061148990612bec565b9150506113ba565b50600061149d85612508565b600580546001600160a01b0319166001600160a01b0383169081179091556040519081529091507feb5c7952c3efc8008536d31f99c90e491bee46769fb8b26caa134eca40f4b70c9060200160405180910390a160006114fc86612645565b600680546001600160a01b0319166001600160a01b0383169081179091556040519081529091507f0c50786603591f91319e2bda1214c0584ca8c99e9f2f87c0625d8d89a538de739060200160405180910390a1600061155b8761267e565b600980546001600160a01b0319166001600160a01b0383169081179091556040519081529091507f63e4ec98d7e71b293b3bb3c29e670222df3529af7c7cc3d3a5a24e193333dae19060200160405180910390a150505050508015610a7c576000805461ff0019169055604051600181527f7f26b83ff96e1f2b6a682f133852f6798a09c465da95921460cefb38474024989060200160405180910390a15050565b6000611607610807565b6001600160a01b0316336001600160a01b031614806116b85750600061162b610807565b6001600160a01b031663ebbe803461164f6000805160206130668339815191525490565b6040516001600160e01b031960e084901b1681526004810191909152336024820152604401602060405180830381865afa158015611691573d6000803e3d6000fd5b505050506040513d601f19601f820116820180604052508101906116b59190612af4565b14155b6117045760405162461bcd60e51b815260206004820152601b60248201527f6f6e6c79576f726c64417373657446726f6d53616d6545706f6368000000000060448201526064016104db565b600061170e610807565b6001600160a01b0316639fdef0756040518163ffffffff1660e01b8152600401602060405180830381865afa15801561174b573d6000803e3d6000fd5b505050506040513d601f19601f8201168201806040525081019061176f9190612b36565b60405163680080ad60e01b8152600481018790529091506000906001600160a01b0383169063680080ad90602401602060405180830381865afa1580156117ba573d6000803e3d6000fd5b505050506040513d601f19601f820116820180604052508101906117de9190612b36565b6001600160a01b0316146118345760405162461bcd60e51b815260206004820152601a60248201527f6e667420697320626f756e6420746f20736574746c656d656e7400000000000060448201526064016104db565b61183c610807565b6001600160a01b0316636903beb46040518163ffffffff1660e01b8152600401602060405180830381865afa158015611879573d6000803e3d6000fd5b505050506040513d601f19601f8201168201806040525081019061189d9190612af4565b60008051602061306683398151915254146119105760405162461bcd60e51b815260206004820152602d60248201527f736574746c656d656e742063616e20626520706c61636564206f6e6c7920696e60448201526c040c2c6e8d2ecca40cae0dec6d609b1b60648201526084016104db565b600061191a610807565b6001600160a01b031663f5f026a36040518163ffffffff1660e01b8152600401602060405180830381865afa158015611957573d6000803e3d6000fd5b505050506040513d601f19601f8201168201806040525081019061197b9190612b36565b604051637167172760e01b815263ffffffff891660048201529091506000906001600160a01b03831690637167172790602401602060405180830381865afa1580156119cb573d6000803e3d6000fd5b505050506040513d601f19601f820116820180604052508101906119ef9190612c05565b61ffff81166000908152600160205260409020549091506001600160a01b0316611a176108f3565b6001600160a01b031663a01849966040518163ffffffff1660e01b8152600401602060405180830381865afa158015611a54573d6000803e3d6000fd5b505050506040513d601f19601f82011682018060405250810190611a789190612af4565b6040516352ae549960e11b815261ffff841660048201526001600160a01b0386169063a55ca93290602401602060405180830381865afa158015611ac0573d6000803e3d6000fd5b505050506040513d601f19601f82011682018060405250810190611ae49190612af4565b10611b315760405162461bcd60e51b815260206004820152601f60248201527f657863656564206d617820736574746c656d656e747320706572207a6f6e650060448201526064016104db565b60405163aba607d560e01b8152600090309063aba607d590611b5c908c908e90600190600401612b53565b6020604051808303816000875af1158015611b7b573d6000803e3d6000fd5b505050506040513d601f19601f82011682018060405250810190611b9f9190612b36565b9050611bab8982612086565b60405163487f67c760e11b8152600481018a905261ffff841660248201526001600160a01b038281166044830152606482018a9052608482018990528616906390fecf8e9060a401600060405180830381600087803b158015611c0d57600080fd5b505af1158015611c21573d6000803e3d6000fd5b50929c9b505050505050505050505050565b611c3b610807565b6001600160a01b0316336001600160a01b03161480611cec57506000611c5f610807565b6001600160a01b031663ebbe8034611c836000805160206130668339815191525490565b6040516001600160e01b031960e084901b1681526004810191909152336024820152604401602060405180830381865afa158015611cc5573d6000803e3d6000fd5b505050506040513d601f19601f82011682018060405250810190611ce99190612af4565b14155b611d385760405162461bcd60e51b815260206004820152601b60248201527f6f6e6c79576f726c64417373657446726f6d53616d6545706f6368000000000060448201526064016104db565b8060046000828254611d4a9190612e82565b9091555050426003555050565b61ffff81166000908152600160205260409020546001600160a01b031615611dc15760405162461bcd60e51b815260206004820152601660248201527f5a6f6e6520616c7265616479206163746976617465640000000000000000000060448201526064016104db565b6000611dcb6108f3565b6040805180820182526004808252637a6f6e6560e01b60209092019190915290516350b345b560e01b81526001600160a01b0392909216916350b345b591611e39917f840f588d7b282ccfd86567bd7bf5a39f5276a517cdef806d95e1024ea339f953910190815260200190565b602060405180830381865afa158015611e56573d6000803e3d6000fd5b505050506040513d601f19601f82011682018060405250810190611e7a9190612b36565b90506000816001600160a01b031663bc97ae2d611e95610807565b60008051602061306683398151915254866040518463ffffffff1660e01b8152600401611ec493929190612e95565b6020604051808303816000875af1158015611ee3573d6000803e3d6000fd5b505050506040513d601f19601f82011682018060405250810190611f079190612b36565b61ffff841660008181526001602090815260409182902080546001600160a01b0319166001600160a01b03861690811790915582519081529081019290925291925082917f02956e9ea443f003a74e9a2b1ffea0d54d5b00320d4677d7c164ceabee9fbe72910160405180910390a1806001600160a01b0316636e1197b8611f8d610807565b6001600160a01b031663f5f026a36040518163ffffffff1660e01b8152600401602060405180830381865afa158015611fca573d6000803e3d6000fd5b505050506040513d601f19601f82011682018060405250810190611fee9190612b36565b604051634f9bf1a960e11b815261ffff881660048201526001600160a01b039190911690639f37e35290602401602060405180830381865afa158015612038573d6000803e3d6000fd5b505050506040513d601f19601f8201168201806040525081019061205c9190612ee3565b5160405160e083901b6001600160e01b031916815263ffffffff90911660048201526024016107cf565b6000828152600a60205260409020546001600160a01b0316156120eb5760405162461bcd60e51b815260206004820152601460248201527f746f6b656e20616c726561647920696e2075736500000000000000000000000060448201526064016104db565b6000918252600a602052604090912080546001600160a01b0319166001600160a01b03909216919091179055565b600060015b8281116121505761212f848261215c565b1561213e576001915050612156565b8061214881612bec565b91505061211e565b50600090505b92915050565b600080612167610807565b6001600160a01b031663f5f026a36040518163ffffffff1660e01b8152600401602060405180830381865afa1580156121a4573d6000803e3d6000fd5b505050506040513d601f19601f820116820180604052508101906121c89190612b36565b905060006121d4610807565b6001600160a01b0316639fdef0756040518163ffffffff1660e01b8152600401602060405180830381865afa158015612211573d6000803e3d6000fd5b505050506040513d601f19601f820116820180604052508101906122359190612b36565b60405163c06978f760e01b815263ffffffff871660048201526024810186905290915060009081906001600160a01b0385169063c06978f790604401600060405180830381865afa15801561228e573d6000803e3d6000fd5b505050506040513d6000823e601f3d908101601f191682016040526122b69190810190612f2f565b9150915060005b818110156123905760006001600160a01b0316846001600160a01b0316636c2b836a8584815181106122f1576122f1612bd6565b60200260200101516040518263ffffffff1660e01b8152600401612321919063ffffffff91909116815260200190565b602060405180830381865afa15801561233e573d6000803e3d6000fd5b505050506040513d601f19601f820116820180604052508101906123629190612b36565b6001600160a01b03161461237e57600195505050505050612156565b8061238881612bec565b9150506122bd565b506000979650505050505050565b6000806123a96108f3565b6001600160a01b03166350b345b56040516020016123d590677265736f7572636560c01b815260080190565b604051602081830303815290604052805190602001206040518263ffffffff1660e01b815260040161240991815260200190565b602060405180830381865afa158015612426573d6000803e3d6000fd5b505050506040513d601f19601f8201168201806040525081019061244a9190612b36565b9050806001600160a01b03166363ae133e612463610807565b858989896040518663ffffffff1660e01b8152600401612487959493929190612fd1565b6020604051808303816000875af11580156124a6573d6000803e3d6000fd5b505050506040513d601f19601f820116820180604052508101906124ca9190612b36565b9695505050505050565b6000806124df6108f3565b6001600160a01b03166350b345b56040516020016123d59064756e69747360d81b815260050190565b6000806125136108f3565b6001600160a01b03166350b345b560405160200161253e9066776f726b65727360c81b815260070190565b604051602081830303815290604052805190602001206040518263ffffffff1660e01b815260040161257291815260200190565b602060405180830381865afa15801561258f573d6000803e3d6000fd5b505050506040513d601f19601f820116820180604052508101906125b39190612b36565b9050806001600160a01b0316630ecaea736125cc610807565b6040516001600160e01b031960e084901b1681526001600160a01b039091166004820152602481018690526044015b6020604051808303816000875af115801561261a573d6000803e3d6000fd5b505050506040513d601f19601f8201168201806040525081019061263e9190612b36565b9392505050565b6000806126506108f3565b6001600160a01b03166350b345b560405160200161253e906970726f7370657269747960b01b8152600a0190565b6000806126896108f3565b6001600160a01b03166350b345b56040516020016126c0907274696c65436170747572696e6753797374656d60681b815260130190565b604051602081830303815290604052805190602001206040518263ffffffff1660e01b81526004016126f491815260200190565b602060405180830381865afa158015612711573d6000803e3d6000fd5b505050506040513d601f19601f820116820180604052508101906127359190612b36565b9050806001600160a01b03166369fc551a61274e610807565b856040518363ffffffff1660e01b81526004016125fb92919061302b565b6001600160a01b038116811461278157600080fd5b50565b6000806040838503121561279757600080fd5b82356127a28161276c565b946020939093013593505050565b634e487b7160e01b600052604160045260246000fd5b604051601f8201601f1916810167ffffffffffffffff811182821017156127ef576127ef6127b0565b604052919050565b600067ffffffffffffffff821115612811576128116127b0565b50601f01601f191660200190565b600082601f83011261283057600080fd5b813561284361283e826127f7565b6127c6565b81815284602083860101111561285857600080fd5b816020850160208301376000918101602001919091529392505050565b60006020828403121561288757600080fd5b813567ffffffffffffffff81111561289e57600080fd5b6128aa8482850161281f565b949350505050565b6000602082840312156128c457600080fd5b5035919050565b63ffffffff8116811461278157600080fd5b6000602082840312156128ef57600080fd5b813561263e816128cb565b60005b838110156129155781810151838201526020016128fd565b50506000910152565b600081518084526129368160208601602086016128fa565b601f01601f19169290920160200192915050565b60208152600061263e602083018461291e565b600067ffffffffffffffff821115612977576129776127b0565b5060051b60200190565b61ffff8116811461278157600080fd5b600060208083850312156129a457600080fd5b823567ffffffffffffffff8111156129bb57600080fd5b8301601f810185136129cc57600080fd5b80356129da61283e8261295d565b81815260059190911b820183019083810190878311156129f957600080fd5b928401925b82841015612a20578335612a1181612981565b825292840192908401906129fe565b979650505050505050565b60008060008060808587031215612a4157600080fd5b843593506020850135612a53816128cb565b9250604085013567ffffffffffffffff811115612a6f57600080fd5b612a7b8782880161281f565b92505060608501358015158114612a9157600080fd5b939692955090935050565b60008060008060808587031215612ab257600080fd5b8435612abd816128cb565b966020860135965060408601359560600135945092505050565b600060208284031215612ae957600080fd5b813561263e81612981565b600060208284031215612b0657600080fd5b5051919050565b634e487b7160e01b600052601160045260246000fd5b8181038181111561215657612156612b0d565b600060208284031215612b4857600080fd5b815161263e8161276c565b83815263ffffffff83166020820152608060408201526000612b8a608083016005815264424153494360d81b602082015260400190565b90508215156060830152949350505050565b600181811c90821680612bb057607f821691505b602082108103612bd057634e487b7160e01b600052602260045260246000fd5b50919050565b634e487b7160e01b600052603260045260246000fd5b600060018201612bfe57612bfe612b0d565b5060010190565b600060208284031215612c1757600080fd5b815161263e81612981565b60006001600160a01b03808916835287602084015260c06040840152612c4b60c084018861291e565b915085606084015280851660808401525063ffffffff831660a0830152979650505050505050565b606081526000612c86606083018661291e565b90506001600160a01b038416602083015263ffffffff83166040830152949350505050565b600082601f830112612cbc57600080fd5b8151612cca61283e826127f7565b818152846020838601011115612cdf57600080fd5b6128aa8260208301602087016128fa565b6000612cfe61283e8461295d565b8381529050602080820190600585901b840186811115612d1d57600080fd5b845b81811015612df057805167ffffffffffffffff80821115612d405760008081fd5b8188019150606080838c031215612d575760008081fd5b60408051918201918383118184101715612d7357612d736127b0565b91815283519183831115612d875760008081fd5b612d938d848701612cab565b815287850151925083831115612da95760008081fd5b612db58d848701612cab565b8882015281850151925083831115612dcd5760008081fd5b612dd98d848701612cab565b918101919091528752505050928201928201612d1f565b505050509392505050565b600060208284031215612e0d57600080fd5b815167ffffffffffffffff811115612e2457600080fd5b8201601f81018413612e3557600080fd5b6128aa84825160208401612cf0565b60008251612e568184602087016128fa565b9190910192915050565b6001600160a01b03831681526040602082015260006128aa604083018461291e565b8082018082111561215657612156612b0d565b6001600160a01b0384168152826020820152608060408201526000612ecf608083016005815264424153494360d81b602082015260400190565b905061ffff83166060830152949350505050565b600060208284031215612ef557600080fd5b6040516020810181811067ffffffffffffffff82111715612f1857612f186127b0565b6040528251612f26816128cb565b81529392505050565b60008060408385031215612f4257600080fd5b825167ffffffffffffffff811115612f5957600080fd5b8301601f81018513612f6a57600080fd5b80516020612f7a61283e8361295d565b82815260059290921b83018101918181019088841115612f9957600080fd5b938201935b83851015612fc0578451612fb1816128cb565b82529382019390820190612f9e565b969091015195979596505050505050565b6001600160a01b038616815284602082015260a060408201526000612ff960a083018661291e565b828103606084015261300b818661291e565b9050828103608084015261301f818561291e565b98975050505050505050565b6001600160a01b03831681528160208201526060604082015260006128aa606083016005815264424153494360d81b60208201526040019056fe6c85b93e587873fbe6712f3b438d42c2945689b262f7bd34b8ea4e3f832a89e7a26469706673582212201507eb03e43d3dd890340a8c5e07dba77151f90e5095d56919ad62918b1a74d264736f6c63430008100033",
  "libraries": {
    "UintUtils": "0x6cE781F332DaFB21cd84627f8B234c4706ae45E1",
    "MathExtension": "0x14CEC82DA1FF11B4d01fD6E078f83781037dfa90"
  },
  "devdoc": {
    "kind": "dev",
    "methods": {
      "activateZone(uint16)": {
        "details": "Even though function is opened, it can be called only by mightyCreator",
        "params": {
          "zoneId": "Zone id"
        }
      },
      "assetGroup()": {
        "details": "Reads data from proxy's storage",
        "returns": {
          "_0": "World asset group"
        }
      },
      "assetType()": {
        "details": "Reads data from proxy's storage",
        "returns": {
          "_0": "World asset type"
        }
      },
      "decreaseTotalCultists(address,uint256)": {
        "details": "Even though function is opened, it can only be called by world asset",
        "params": {
          "cultistsArmyAddress": "Cultists army address",
          "value": "Amount of cultists burned"
        }
      },
      "epoch()": {
        "details": "Value is dereferenced from proxy storage and world"
      },
      "epochNumber()": {
        "details": "Reads data from proxy's storage",
        "returns": {
          "_0": "Epoch number"
        }
      },
      "increaseTotalCultists(address,uint256)": {
        "details": "Even though function is opened, it can only be called by world asset",
        "params": {
          "cultistsArmyAddress": "Cultists army address",
          "value": "Amount of cultists minted"
        }
      },
      "init(uint256)": {
        "details": "Called by factory contract which creates current instance",
        "params": {
          "epochNumber": "Epoch number"
        }
      },
      "newAssetSettlement(uint256,uint32,string,bool)": {
        "details": "Even though function is opened, it can be called only by world asset",
        "params": {
          "assetName": "Settlement type (BASIC/CULTISTS)",
          "ownerTokenId": "Banners token id which will represent to which settlement will be attached to",
          "performAttachmentValidation": "Whether is to perform attachment validation or not (CULTISTS or restored BASIC may not be attached to anything)",
          "position": "Position"
        }
      },
      "newSettlement(uint32,uint256,uint256,uint256)": {
        "details": "Bless tokens will be deducted from msg.sender",
        "params": {
          "ownerTokenId": "Banners token id which will represent to which settlement will be attached to",
          "position": "Position",
          "settlementPrice": "Settlement price",
          "settlementPurchaseTime": "Settlement purchase time"
        },
        "returns": {
          "_0": "Settlement address"
        }
      },
      "registry()": {
        "details": "Value is dereferenced from world"
      },
      "restoreSettlement(uint32)": {
        "details": "Any address can restore user settlement",
        "params": {
          "position": "Position"
        }
      },
      "summonCultistsBatch(uint16[])": {
        "details": "Batch cultists summon",
        "params": {
          "zoneIds": "Zone ids"
        }
      },
      "world()": {
        "details": "Value is dereferenced from proxy storage"
      }
    },
    "stateVariables": {
      "mostRecentCultistsSummonTime": {
        "details": "Updated when #increaseTotalCultists is called"
      },
      "prosperity": {
        "details": "Updated when #setProsperityContract is called"
      },
      "resources": {
        "details": "Updated when #addResource is called"
      },
      "settlements": {
        "details": "Updated when new settlement is created"
      },
      "tileCapturingSystem": {
        "details": "Updated when #setTileCapturingSystemContract is called"
      },
      "totalCultists": {
        "details": "Updated when #increaseTotalCultists or #decreaseTotalCultists is called"
      },
      "units": {
        "details": "Updated when #addUnit is called"
      },
      "userSettlements": {
        "details": "Updated when #addUserSettlement is called"
      },
      "workers": {
        "details": "Updated when #setWorkersContract is called"
      },
      "zones": {
        "details": "Updated when #attachZoneToTheContinent is called"
      }
    },
    "version": 1
  },
  "userdoc": {
    "events": {
      "NewProsperity(address)": {
        "notice": "Emitted when epoch prosperity is created"
      },
      "NewResource(address,string)": {
        "notice": "Emitted when epoch resource is created"
      },
      "NewSettlement(address,string,address,uint32)": {
        "notice": "Emitted when #newAssetSettlement is called"
      },
      "NewTileCapturingSystem(address)": {
        "notice": "Emitted when epoch tile capturing system is created"
      },
      "NewUnits(address,string)": {
        "notice": "Emitted when epoch units is created"
      },
      "NewWorkers(address)": {
        "notice": "Emitted when epoch workers is created"
      },
      "NewZoneActivated(address,uint256)": {
        "notice": "Emitted when #activateZone is called"
      }
    },
    "kind": "user",
    "methods": {
      "activateZone(uint16)": {
        "notice": "Activates zone"
      },
      "assetGroup()": {
        "notice": "Returns world asset group"
      },
      "assetType()": {
        "notice": "Returns world asset type"
      },
      "decreaseTotalCultists(address,uint256)": {
        "notice": "Decreases total cultists"
      },
      "epoch()": {
        "notice": "Epoch"
      },
      "epochNumber()": {
        "notice": "Returns epoch number"
      },
      "increaseTotalCultists(address,uint256)": {
        "notice": "Increases total cultists"
      },
      "init(uint256)": {
        "notice": "Proxy initializer"
      },
      "mostRecentCultistsSummonTime()": {
        "notice": "Most recent cultists summon time"
      },
      "newAssetSettlement(uint256,uint32,string,bool)": {
        "notice": "Creates settlement by type"
      },
      "newSettlement(uint32,uint256,uint256,uint256)": {
        "notice": "Creates new user settlement"
      },
      "prosperity()": {
        "notice": "Prosperity token"
      },
      "registry()": {
        "notice": "Registry"
      },
      "resources(string)": {
        "notice": "Mapping containing game resources by name"
      },
      "restoreSettlement(uint32)": {
        "notice": "Restores settlement from previous epoch by provided position"
      },
      "settlements(uint32)": {
        "notice": "Mapping containing settlement by provided x and y coordinates"
      },
      "summonCultistsBatch(uint16[])": {
        "notice": "Summons cultists in specified zones"
      },
      "tileCapturingSystem()": {
        "notice": "Tile capturing system"
      },
      "totalCultists()": {
        "notice": "Total cultists"
      },
      "units(string)": {
        "notice": "Mapping containing units by name"
      },
      "userSettlements(uint256)": {
        "notice": "Mapping containing settlement address by provided banner id"
      },
      "workers()": {
        "notice": "Workers token"
      },
      "world()": {
        "notice": "World"
      },
      "zones(uint256)": {
        "notice": "An array of attached zones to the continent"
      }
    },
    "version": 1
  },
  "storageLayout": {
    "storage": [
      {
        "astId": 119,
        "contract": "contracts/core/assets/epoch/Epoch.sol:Epoch",
        "label": "_initialized",
        "offset": 0,
        "slot": "0",
        "type": "t_uint8"
      },
      {
        "astId": 122,
        "contract": "contracts/core/assets/epoch/Epoch.sol:Epoch",
        "label": "_initializing",
        "offset": 1,
        "slot": "0",
        "type": "t_bool"
      },
      {
        "astId": 18846,
        "contract": "contracts/core/assets/epoch/Epoch.sol:Epoch",
        "label": "zones",
        "offset": 0,
        "slot": "1",
        "type": "t_mapping(t_uint256,t_contract(IZone)29387)"
      },
      {
        "astId": 18853,
        "contract": "contracts/core/assets/epoch/Epoch.sol:Epoch",
        "label": "settlements",
        "offset": 0,
        "slot": "2",
        "type": "t_mapping(t_uint32,t_contract(ISettlement)20787)"
      },
      {
        "astId": 18857,
        "contract": "contracts/core/assets/epoch/Epoch.sol:Epoch",
        "label": "mostRecentCultistsSummonTime",
        "offset": 0,
        "slot": "3",
        "type": "t_uint256"
      },
      {
        "astId": 18861,
        "contract": "contracts/core/assets/epoch/Epoch.sol:Epoch",
        "label": "totalCultists",
        "offset": 0,
        "slot": "4",
        "type": "t_uint256"
      },
      {
        "astId": 18866,
        "contract": "contracts/core/assets/epoch/Epoch.sol:Epoch",
        "label": "workers",
        "offset": 0,
        "slot": "5",
        "type": "t_contract(IWorkers)27309"
      },
      {
        "astId": 18871,
        "contract": "contracts/core/assets/epoch/Epoch.sol:Epoch",
        "label": "prosperity",
        "offset": 0,
        "slot": "6",
        "type": "t_contract(IProsperity)25442"
      },
      {
        "astId": 18878,
        "contract": "contracts/core/assets/epoch/Epoch.sol:Epoch",
        "label": "resources",
        "offset": 0,
        "slot": "7",
        "type": "t_mapping(t_string_memory_ptr,t_contract(IResource)25794)"
      },
      {
        "astId": 18885,
        "contract": "contracts/core/assets/epoch/Epoch.sol:Epoch",
        "label": "units",
        "offset": 0,
        "slot": "8",
        "type": "t_mapping(t_string_memory_ptr,t_contract(IUnits)26713)"
      },
      {
        "astId": 18890,
        "contract": "contracts/core/assets/epoch/Epoch.sol:Epoch",
        "label": "tileCapturingSystem",
        "offset": 0,
        "slot": "9",
        "type": "t_contract(ITileCapturingSystem)24405"
      },
      {
        "astId": 18897,
        "contract": "contracts/core/assets/epoch/Epoch.sol:Epoch",
        "label": "userSettlements",
        "offset": 0,
        "slot": "10",
        "type": "t_mapping(t_uint256,t_contract(ISettlement)20787)"
      }
    ],
    "types": {
      "t_bool": {
        "encoding": "inplace",
        "label": "bool",
        "numberOfBytes": "1"
      },
      "t_contract(IProsperity)25442": {
        "encoding": "inplace",
        "label": "contract IProsperity",
        "numberOfBytes": "20"
      },
      "t_contract(IResource)25794": {
        "encoding": "inplace",
        "label": "contract IResource",
        "numberOfBytes": "20"
      },
      "t_contract(ISettlement)20787": {
        "encoding": "inplace",
        "label": "contract ISettlement",
        "numberOfBytes": "20"
      },
      "t_contract(ITileCapturingSystem)24405": {
        "encoding": "inplace",
        "label": "contract ITileCapturingSystem",
        "numberOfBytes": "20"
      },
      "t_contract(IUnits)26713": {
        "encoding": "inplace",
        "label": "contract IUnits",
        "numberOfBytes": "20"
      },
      "t_contract(IWorkers)27309": {
        "encoding": "inplace",
        "label": "contract IWorkers",
        "numberOfBytes": "20"
      },
      "t_contract(IZone)29387": {
        "encoding": "inplace",
        "label": "contract IZone",
        "numberOfBytes": "20"
      },
      "t_mapping(t_string_memory_ptr,t_contract(IResource)25794)": {
        "encoding": "mapping",
        "key": "t_string_memory_ptr",
        "label": "mapping(string => contract IResource)",
        "numberOfBytes": "32",
        "value": "t_contract(IResource)25794"
      },
      "t_mapping(t_string_memory_ptr,t_contract(IUnits)26713)": {
        "encoding": "mapping",
        "key": "t_string_memory_ptr",
        "label": "mapping(string => contract IUnits)",
        "numberOfBytes": "32",
        "value": "t_contract(IUnits)26713"
      },
      "t_mapping(t_uint256,t_contract(ISettlement)20787)": {
        "encoding": "mapping",
        "key": "t_uint256",
        "label": "mapping(uint256 => contract ISettlement)",
        "numberOfBytes": "32",
        "value": "t_contract(ISettlement)20787"
      },
      "t_mapping(t_uint256,t_contract(IZone)29387)": {
        "encoding": "mapping",
        "key": "t_uint256",
        "label": "mapping(uint256 => contract IZone)",
        "numberOfBytes": "32",
        "value": "t_contract(IZone)29387"
      },
      "t_mapping(t_uint32,t_contract(ISettlement)20787)": {
        "encoding": "mapping",
        "key": "t_uint32",
        "label": "mapping(uint32 => contract ISettlement)",
        "numberOfBytes": "32",
        "value": "t_contract(ISettlement)20787"
      },
      "t_string_memory_ptr": {
        "encoding": "bytes",
        "label": "string",
        "numberOfBytes": "32"
      },
      "t_uint256": {
        "encoding": "inplace",
        "label": "uint256",
        "numberOfBytes": "32"
      },
      "t_uint32": {
        "encoding": "inplace",
        "label": "uint32",
        "numberOfBytes": "4"
      },
      "t_uint8": {
        "encoding": "inplace",
        "label": "uint8",
        "numberOfBytes": "1"
      }
    }
  }
}