{
  "address": "0xf6a44CEDF96B3D29dE8F091987272e5f7ABE32D6",
  "abi": [
    {
      "anonymous": false,
      "inputs": [
        {
          "indexed": false,
          "internalType": "string",
          "name": "resourceName",
          "type": "string"
        },
        {
          "indexed": false,
          "internalType": "address",
          "name": "holder",
          "type": "address"
        },
        {
          "indexed": false,
          "internalType": "uint256",
          "name": "amount",
          "type": "uint256"
        }
      ],
      "name": "DistributedToShareHolder",
      "type": "event"
    },
    {
      "anonymous": false,
      "inputs": [
        {
          "indexed": false,
          "internalType": "uint8",
          "name": "version",
          "type": "uint8"
        }
      ],
      "name": "Initialized",
      "type": "event"
    },
    {
      "anonymous": false,
      "inputs": [
        {
          "indexed": false,
          "internalType": "uint256",
          "name": "distributionId",
          "type": "uint256"
        },
        {
          "indexed": false,
          "internalType": "address[]",
          "name": "previousReceivers",
          "type": "address[]"
        }
      ],
      "name": "NewDistribution",
      "type": "event"
    },
    {
      "anonymous": false,
      "inputs": [
        {
          "indexed": false,
          "internalType": "uint256",
          "name": "stateLevel",
          "type": "uint256"
        }
      ],
      "name": "UpgradeFinish",
      "type": "event"
    },
    {
      "inputs": [],
      "name": "advancedProduction",
      "outputs": [
        {
          "internalType": "uint256",
          "name": "level",
          "type": "uint256"
        },
        {
          "internalType": "uint256",
          "name": "coefficient",
          "type": "uint256"
        },
        {
          "internalType": "uint256",
          "name": "additionalWorkersCapacityMultiplier",
          "type": "uint256"
        },
        {
          "internalType": "uint256",
          "name": "toBeProducedTicks",
          "type": "uint256"
        }
      ],
      "stateMutability": "view",
      "type": "function"
    },
    {
      "inputs": [],
      "name": "assetGroup",
      "outputs": [
        {
          "internalType": "string",
          "name": "",
          "type": "string"
        }
      ],
      "stateMutability": "view",
      "type": "function"
    },
    {
      "inputs": [],
      "name": "assetType",
      "outputs": [
        {
          "internalType": "string",
          "name": "",
          "type": "string"
        }
      ],
      "stateMutability": "view",
      "type": "function"
    },
    {
      "inputs": [],
      "name": "basicProduction",
      "outputs": [
        {
          "internalType": "uint256",
          "name": "level",
          "type": "uint256"
        },
        {
          "internalType": "uint256",
          "name": "coefficient",
          "type": "uint256"
        }
      ],
      "stateMutability": "view",
      "type": "function"
    },
    {
      "inputs": [],
      "name": "buildingName",
      "outputs": [
        {
          "internalType": "string",
          "name": "",
          "type": "string"
        }
      ],
      "stateMutability": "view",
      "type": "function"
    },
    {
      "inputs": [
        {
          "internalType": "uint256",
          "name": "burnAmount",
          "type": "uint256"
        }
      ],
      "name": "burnTreasury",
      "outputs": [],
      "stateMutability": "nonpayable",
      "type": "function"
    },
    {
      "inputs": [],
      "name": "currentSettlement",
      "outputs": [
        {
          "internalType": "contract ISettlement",
          "name": "",
          "type": "address"
        }
      ],
      "stateMutability": "view",
      "type": "function"
    },
    {
      "inputs": [
        {
          "internalType": "uint256",
          "name": "capacityAmount",
          "type": "uint256"
        }
      ],
      "name": "decreaseAdditionalWorkersCapacityMultiplier",
      "outputs": [],
      "stateMutability": "nonpayable",
      "type": "function"
    },
    {
      "inputs": [],
      "name": "distributeToAllShareholders",
      "outputs": [],
      "stateMutability": "nonpayable",
      "type": "function"
    },
    {
      "inputs": [
        {
          "internalType": "address",
          "name": "holder",
          "type": "address"
        }
      ],
      "name": "distributeToSingleShareholder",
      "outputs": [],
      "stateMutability": "nonpayable",
      "type": "function"
    },
    {
      "inputs": [],
      "name": "distributionId",
      "outputs": [
        {
          "internalType": "uint256",
          "name": "",
          "type": "uint256"
        }
      ],
      "stateMutability": "view",
      "type": "function"
    },
    {
      "inputs": [],
      "name": "epoch",
      "outputs": [
        {
          "internalType": "contract IEpoch",
          "name": "",
          "type": "address"
        }
      ],
      "stateMutability": "view",
      "type": "function"
    },
    {
      "inputs": [],
      "name": "epochNumber",
      "outputs": [
        {
          "internalType": "uint256",
          "name": "",
          "type": "uint256"
        }
      ],
      "stateMutability": "view",
      "type": "function"
    },
    {
      "inputs": [
        {
          "internalType": "address",
          "name": "from",
          "type": "address"
        },
        {
          "internalType": "address",
          "name": "to",
          "type": "address"
        },
        {
          "internalType": "uint256",
          "name": "amount",
          "type": "uint256"
        }
      ],
      "name": "fixDebtAccordingToNewDistributionsAmounts",
      "outputs": [],
      "stateMutability": "nonpayable",
      "type": "function"
    },
    {
      "inputs": [],
      "name": "getAdditionalWorkersFromAdditionalWorkersCapacityMultiplier",
      "outputs": [
        {
          "internalType": "uint256",
          "name": "",
          "type": "uint256"
        }
      ],
      "stateMutability": "view",
      "type": "function"
    },
    {
      "inputs": [
        {
          "internalType": "uint256",
          "name": "level",
          "type": "uint256"
        }
      ],
      "name": "getAdvancedUpgradeCooldownDuration",
      "outputs": [
        {
          "internalType": "uint256",
          "name": "",
          "type": "uint256"
        }
      ],
      "stateMutability": "view",
      "type": "function"
    },
    {
      "inputs": [
        {
          "internalType": "uint256",
          "name": "level",
          "type": "uint256"
        }
      ],
      "name": "getBasicUpgradeCooldownDuration",
      "outputs": [
        {
          "internalType": "uint256",
          "name": "",
          "type": "uint256"
        }
      ],
      "stateMutability": "view",
      "type": "function"
    },
    {
      "inputs": [
        {
          "internalType": "uint256",
          "name": "level",
          "type": "uint256"
        }
      ],
      "name": "getBuildingCoefficient",
      "outputs": [
        {
          "internalType": "uint256",
          "name": "",
          "type": "uint256"
        }
      ],
      "stateMutability": "pure",
      "type": "function"
    },
    {
      "inputs": [],
      "name": "getBuildingLevel",
      "outputs": [
        {
          "internalType": "uint256",
          "name": "",
          "type": "uint256"
        }
      ],
      "stateMutability": "view",
      "type": "function"
    },
    {
      "inputs": [],
      "name": "getConfig",
      "outputs": [
        {
          "components": [
            {
              "internalType": "string",
              "name": "resourceName",
              "type": "string"
            },
            {
              "internalType": "uint256",
              "name": "perTick",
              "type": "uint256"
            },
            {
              "internalType": "bool",
              "name": "isProducing",
              "type": "bool"
            }
          ],
          "internalType": "struct IBuilding.InitialResourceBlock[]",
          "name": "initialResourceBlocks",
          "type": "tuple[]"
        }
      ],
      "stateMutability": "view",
      "type": "function"
    },
    {
      "inputs": [],
      "name": "getMaxAvailableForAdvancedProductionWorkers",
      "outputs": [
        {
          "internalType": "uint256",
          "name": "",
          "type": "uint256"
        }
      ],
      "stateMutability": "view",
      "type": "function"
    },
    {
      "inputs": [
        {
          "internalType": "uint256",
          "name": "level",
          "type": "uint256"
        }
      ],
      "name": "getMaxTreasuryByLevel",
      "outputs": [
        {
          "internalType": "uint256",
          "name": "",
          "type": "uint256"
        }
      ],
      "stateMutability": "view",
      "type": "function"
    },
    {
      "inputs": [],
      "name": "getMaxWorkers",
      "outputs": [
        {
          "internalType": "uint256",
          "name": "",
          "type": "uint256"
        }
      ],
      "stateMutability": "view",
      "type": "function"
    },
    {
      "inputs": [],
      "name": "getProducingResourceName",
      "outputs": [
        {
          "internalType": "string",
          "name": "",
          "type": "string"
        }
      ],
      "stateMutability": "view",
      "type": "function"
    },
    {
      "inputs": [
        {
          "internalType": "uint256",
          "name": "timestamp",
          "type": "uint256"
        }
      ],
      "name": "getProductionResult",
      "outputs": [
        {
          "components": [
            {
              "internalType": "string",
              "name": "resourceName",
              "type": "string"
            },
            {
              "internalType": "uint256",
              "name": "balanceChanges",
              "type": "uint256"
            },
            {
              "internalType": "bool",
              "name": "isProducing",
              "type": "bool"
            }
          ],
          "internalType": "struct IBuilding.ProductionResultItem[]",
          "name": "",
          "type": "tuple[]"
        }
      ],
      "stateMutability": "view",
      "type": "function"
    },
    {
      "inputs": [
        {
          "internalType": "string",
          "name": "_resourceName",
          "type": "string"
        },
        {
          "internalType": "uint256",
          "name": "_timestamp",
          "type": "uint256"
        }
      ],
      "name": "getResourcesAmount",
      "outputs": [
        {
          "internalType": "uint256",
          "name": "",
          "type": "uint256"
        }
      ],
      "stateMutability": "view",
      "type": "function"
    },
    {
      "inputs": [
        {
          "internalType": "uint256",
          "name": "timestamp",
          "type": "uint256"
        }
      ],
      "name": "getTreasury",
      "outputs": [
        {
          "internalType": "uint256",
          "name": "",
          "type": "uint256"
        }
      ],
      "stateMutability": "view",
      "type": "function"
    },
    {
      "inputs": [
        {
          "internalType": "uint256",
          "name": "level",
          "type": "uint256"
        }
      ],
      "name": "getUpgradePrice",
      "outputs": [
        {
          "internalType": "uint256",
          "name": "",
          "type": "uint256"
        }
      ],
      "stateMutability": "view",
      "type": "function"
    },
    {
      "inputs": [],
      "name": "getWorkers",
      "outputs": [
        {
          "internalType": "uint256",
          "name": "",
          "type": "uint256"
        }
      ],
      "stateMutability": "view",
      "type": "function"
    },
    {
      "inputs": [
        {
          "internalType": "uint256",
          "name": "capacityAmount",
          "type": "uint256"
        }
      ],
      "name": "increaseAdditionalWorkersCapacityMultiplier",
      "outputs": [],
      "stateMutability": "nonpayable",
      "type": "function"
    },
    {
      "inputs": [
        {
          "internalType": "address",
          "name": "settlementAddress",
          "type": "address"
        }
      ],
      "name": "init",
      "outputs": [],
      "stateMutability": "nonpayable",
      "type": "function"
    },
    {
      "inputs": [
        {
          "internalType": "string",
          "name": "_resourceName",
          "type": "string"
        }
      ],
      "name": "isResourceAcceptable",
      "outputs": [
        {
          "internalType": "bool",
          "name": "",
          "type": "bool"
        }
      ],
      "stateMutability": "view",
      "type": "function"
    },
    {
      "inputs": [
        {
          "internalType": "address",
          "name": "",
          "type": "address"
        }
      ],
      "name": "producedResourceDebt",
      "outputs": [
        {
          "internalType": "uint256",
          "name": "",
          "type": "uint256"
        }
      ],
      "stateMutability": "view",
      "type": "function"
    },
    {
      "inputs": [],
      "name": "production",
      "outputs": [
        {
          "internalType": "uint256",
          "name": "lastUpdateStateTime",
          "type": "uint256"
        },
        {
          "internalType": "uint256",
          "name": "lastUpdateStateZoneTime",
          "type": "uint256"
        },
        {
          "internalType": "uint256",
          "name": "readyToBeDistributed",
          "type": "uint256"
        }
      ],
      "stateMutability": "view",
      "type": "function"
    },
    {
      "inputs": [],
      "name": "productionResourcesChanged",
      "outputs": [],
      "stateMutability": "nonpayable",
      "type": "function"
    },
    {
      "inputs": [],
      "name": "prosperity",
      "outputs": [
        {
          "internalType": "uint256",
          "name": "",
          "type": "uint256"
        }
      ],
      "stateMutability": "view",
      "type": "function"
    },
    {
      "inputs": [],
      "name": "registry",
      "outputs": [
        {
          "internalType": "contract IRegistry",
          "name": "",
          "type": "address"
        }
      ],
      "stateMutability": "view",
      "type": "function"
    },
    {
      "inputs": [
        {
          "internalType": "address",
          "name": "workersReceiverAddress",
          "type": "address"
        },
        {
          "internalType": "uint256",
          "name": "workersAmount",
          "type": "uint256"
        },
        {
          "internalType": "address",
          "name": "resourcesReceiverAddress",
          "type": "address"
        },
        {
          "internalType": "string[]",
          "name": "resourceTypes",
          "type": "string[]"
        },
        {
          "internalType": "uint256[]",
          "name": "resourcesAmounts",
          "type": "uint256[]"
        }
      ],
      "name": "removeResourcesAndWorkers",
      "outputs": [],
      "stateMutability": "nonpayable",
      "type": "function"
    },
    {
      "inputs": [],
      "name": "resetDistribution",
      "outputs": [],
      "stateMutability": "nonpayable",
      "type": "function"
    },
    {
      "inputs": [
        {
          "internalType": "address",
          "name": "resourcesOwner",
          "type": "address"
        }
      ],
      "name": "startAdvancedUpgrade",
      "outputs": [],
      "stateMutability": "nonpayable",
      "type": "function"
    },
    {
      "inputs": [
        {
          "internalType": "address",
          "name": "resourcesOwner",
          "type": "address"
        }
      ],
      "name": "startBasicUpgrade",
      "outputs": [],
      "stateMutability": "nonpayable",
      "type": "function"
    },
    {
      "inputs": [
        {
          "internalType": "address",
          "name": "to",
          "type": "address"
        },
        {
          "internalType": "uint256",
          "name": "amountToSteal",
          "type": "uint256"
        }
      ],
      "name": "stealTreasury",
      "outputs": [
        {
          "internalType": "uint256",
          "name": "",
          "type": "uint256"
        }
      ],
      "stateMutability": "nonpayable",
      "type": "function"
    },
    {
      "inputs": [],
      "name": "updateState",
      "outputs": [],
      "stateMutability": "nonpayable",
      "type": "function"
    },
    {
      "inputs": [],
      "name": "upgradeCooldownFinishTime",
      "outputs": [
        {
          "internalType": "uint256",
          "name": "",
          "type": "uint256"
        }
      ],
      "stateMutability": "view",
      "type": "function"
    },
    {
      "inputs": [],
      "name": "world",
      "outputs": [
        {
          "internalType": "contract IWorld",
          "name": "",
          "type": "address"
        }
      ],
      "stateMutability": "view",
      "type": "function"
    }
  ],
  "transactionHash": "0x88effaeb45e016650a6fba47a19d9210ebea90b85093a2a1dea3d53a6062a576",
  "args": [],
  "numDeployments": 1,
  "solcInputHash": "d40fd766cc3fa0d4c836779e74bc4f2f",
  "bytecode": "0x608060405234801561001057600080fd5b5061595080620000216000396000f3fe608060405234801561001057600080fd5b50600436106102ce5760003560e01c80638545bc581161018c578063c55b31ce116100ee578063e91bde7611610097578063fb2018d911610071578063fb2018d9146105c9578063fe7f15ef146105dc578063ffaf29a0146105f557600080fd5b8063e91bde7614610599578063f2477b5b146105ac578063f4145a83146105b457600080fd5b8063c9c0df61116100c8578063c9c0df611461057f578063d2bc7d8514610588578063e64582911461059057600080fd5b8063c55b31ce14610543578063c724a01614610556578063c91b95661461057657600080fd5b8063adcd294011610150578063b78d13841161012a578063b78d138414610513578063c1499f7114610526578063c3f909d41461052e57600080fd5b8063adcd2940146104da578063ae6fd51d146104ed578063af04eb421461050057600080fd5b80638545bc581461047f5780638beab87e14610487578063900cf0cf146104a75780639a9402a1146104af5780639abb3cae146104d257600080fd5b80633fe3347a11610235578063589ae400116101f95780637abdf949116101d35780637abdf949146104515780637b103999146104645780637b7a2bfc1461046c57600080fd5b8063589ae400146104225780635ed697b71461043557806365e6f4ce1461044957600080fd5b80633fe3347a146103e457806343e77f46146103ec5780634500dbeb146103ff5780634ace91d014610407578063575bceda1461041a57600080fd5b806319ab453c1161029757806330b67baa1161027157806330b67baa146103a957806339c8a95a146103c95780633c084b8b146103d157600080fd5b806319ab453c146103865780631d8557d71461039957806324db272a146103a157600080fd5b8062d4fbf8146102d357806302e68b94146102f957806305e88b691461030e578063115112ab1461033b57806314dff0e814610350575b600080fd5b6102e66102e13660046150be565b610618565b6040519081526020015b60405180910390f35b61030c6103073660046150ef565b61069f565b005b600954600a54600b5461032092919083565b604080519384526020840192909252908201526060016102f0565b610343610cfe565b6040516102f09190615152565b6003546004546005546006546103669392919084565b6040805194855260208501939093529183015260608201526080016102f0565b61030c6103943660046150ef565b610d0d565b61030c6110d1565b610343611477565b6103b1611502565b6040516001600160a01b0390911681526020016102f0565b6102e6611535565b6102e66103df3660046150be565b6115bf565b6103436115f3565b61030c6103fa3660046150be565b6116a7565b61030c6117d1565b61030c610415366004615165565b6117de565b6102e66119e6565b6102e66104303660046151a6565b611a02565b6102e66104433660046150be565b50600090565b61030c611e8e565b6102e661045f3660046150be565b612292565b6103b16122f0565b61030c61047a3660046150ef565b61235b565b6102e6612667565b61049a6104953660046150be565b612679565b6040516102f09190615209565b6103b1612a32565b6104c26104bd366004615315565b612a9b565b60405190151581526020016102f0565b610343612b0c565b6102e66104e83660046150be565b612b3d565b61030c6104fb3660046150be565b612b50565b61030c61050e3660046150ef565b612cc9565b61030c6105213660046150be565b6132dc565b6102e6613573565b610536613648565b6040516102f09190615352565b6102e66105513660046153a7565b613710565b6102e66105643660046150ef565b600d6020526000908152604090205481565b6102e660085481565b6102e6600c5481565b61030c613a97565b6102e660075481565b6102e66105a73660046150be565b613bbc565b6102e6613c42565b6000805160206158fb833981519152546102e6565b61030c6105d7366004615438565b613d76565b6000546103b1906201000090046001600160a01b031681565b600154600254610603919082565b604080519283526020830191909152016102f0565b60006106226122f0565b6001600160a01b031663781e0efe6040518163ffffffff1660e01b8152600401602060405180830381865afa15801561065f573d6000803e3d6000fd5b505050506040513d601f19601f8201168201806040525081019061068391906154d7565b61068f83615460615506565b6106999190615525565b92915050565b60006106a9611502565b6001600160a01b0316637aa873346040518163ffffffff1660e01b8152600401602060405180830381865afa1580156106e6573d6000803e3d6000fd5b505050506040513d601f19601f8201168201806040525081019061070a91906154d7565b905080158061071857508042105b6107575760405162461bcd60e51b815260206004820152600b60248201526a19d85b594818db1bdcd95960aa1b60448201526064015b60405180910390fd5b600054604051631b0b969d60e01b8152336004820152620100009091046001600160a01b031690631b0b969d90602401602060405180830381865afa1580156107a4573d6000803e3d6000fd5b505050506040513d601f19601f820116820180604052508101906107c89190615547565b806107eb57506107d6611502565b6001600160a01b0316336001600160a01b0316145b80610888575060006107fb611502565b6001600160a01b031663ebbe803461081f6000805160206158fb8339815191525490565b6040516001600160e01b031960e084901b1681526004810191909152336024820152604401602060405180830381865afa158015610861573d6000803e3d6000fd5b505050506040513d601f19601f8201168201806040525081019061088591906154d7565b14155b6108a45760405162461bcd60e51b815260040161074e90615569565b6108ac6110d1565b6007546108b7613f9d565b10156108f95760405162461bcd60e51b8152602060048201526011602482015270616c726561647920757067726164696e6760781b604482015260640161074e565b6000610903612667565b9050600061091082612292565b6040805180820190915260038152624f524560e81b60208201529091506001600160a01b038516610a1657610943612a32565b6001600160a01b03166304f86f3c826040518263ffffffff1660e01b815260040161096e9190615152565b602060405180830381865afa15801561098b573d6000803e3d6000fd5b505050506040513d601f19601f820116820180604052508101906109af91906155ab565b60405163079cc67960e41b8152336004820152602481018490526001600160a01b0391909116906379cc679090604401600060405180830381600087803b1580156109f957600080fd5b505af1158015610a0d573d6000803e3d6000fd5b50505050610b5c565b6000610a20612a32565b6001600160a01b03166304f86f3c836040518263ffffffff1660e01b8152600401610a4b9190615152565b602060405180830381865afa158015610a68573d6000803e3d6000fd5b505050506040513d601f19601f82011682018060405250810190610a8c91906155ab565b60405163dd8aaa4f60e01b81526001600160a01b038881166004830152336024830152604482018690529192509082169063dd8aaa4f90606401600060405180830381600087803b158015610ae057600080fd5b505af1158015610af4573d6000803e3d6000fd5b505060405163079cc67960e41b81526001600160a01b03898116600483015260248201879052841692506379cc67909150604401600060405180830381600087803b158015610b4257600080fd5b505af1158015610b56573d6000803e3d6000fd5b50505050505b600060029054906101000a90046001600160a01b03166001600160a01b03166341c525536040518163ffffffff1660e01b8152600401602060405180830381865afa158015610baf573d6000803e3d6000fd5b505050506040513d601f19601f82011682018060405250810190610bd391906155ab565b600054604051636e08f72160e01b81526001600160a01b0392831692636e08f72192610c10926201000090910490911690859087906004016155c8565b600060405180830381600087803b158015610c2a57600080fd5b505af1158015610c3e573d6000803e3d6000fd5b50505050610c4a600090565b610c5490426155fa565b6007556000610c648460016155fa565b9050600160036000016000828254610c7c91906155fa565b9091555060009050610c8d85613bbc565b610c9683613bbc565b610ca0919061560d565b90508060036001016000828254610cb791906155fa565b90915550610cc29050565b6040518281527f3522cf3459e241a649e558e6164f7286e55468f8ba273170ece2a4716fc9f4969060200160405180910390a150505050505050565b6060610d086115f3565b905090565b600054610100900460ff1615808015610d2d5750600054600160ff909116105b80610d475750303b158015610d47575060005460ff166001145b610daa5760405162461bcd60e51b815260206004820152602e60248201527f496e697469616c697a61626c653a20636f6e747261637420697320616c72656160448201526d191e481a5b9a5d1a585b1a5e995960921b606482015260840161074e565b6000805460ff191660011790558015610dcd576000805461ff0019166101001790555b6000805475ffffffffffffffffffffffffffffffffffffffff00001916620100006001600160a01b03851602178155600180805560028190556003819055600455610e16613f9d565b905080600960000181905550600060029054906101000a90046001600160a01b03166001600160a01b03166341c525536040518163ffffffff1660e01b8152600401602060405180830381865afa158015610e75573d6000803e3d6000fd5b505050506040513d601f19601f82011682018060405250810190610e9991906155ab565b6001600160a01b031663d635bb8f826040518263ffffffff1660e01b8152600401610ec691815260200190565b602060405180830381865afa158015610ee3573d6000803e3d6000fd5b505050506040513d601f19601f82011682018060405250810190610f0791906154d7565b600a55610f126122f0565b6001600160a01b031663636d6854610f28610cfe565b6040518263ffffffff1660e01b8152600401610f449190615152565b602060405180830381865afa158015610f61573d6000803e3d6000fd5b505050506040513d601f19601f82011682018060405250810190610f859190615547565b1561107e57610f92612a32565b6001600160a01b03166304f86f3c610fa8611477565b6040518263ffffffff1660e01b8152600401610fc49190615152565b602060405180830381865afa158015610fe1573d6000803e3d6000fd5b505050506040513d601f19601f8201168201806040525081019061100591906155ab565b6001600160a01b03166340c10f193061101f6103df612667565b6040516001600160e01b031960e085901b1681526001600160a01b0390921660048301526024820152604401600060405180830381600087803b15801561106557600080fd5b505af1158015611079573d6000803e3d6000fd5b505050505b61108661402a565b5080156110cd576000805461ff0019169055604051600181527f7f26b83ff96e1f2b6a682f133852f6798a09c465da95921460cefb38474024989060200160405180910390a15b5050565b600060029054906101000a90046001600160a01b03166001600160a01b03166341c525536040518163ffffffff1660e01b8152600401602060405180830381865afa158015611124573d6000803e3d6000fd5b505050506040513d601f19601f8201168201806040525081019061114891906155ab565b6001600160a01b0316631d8557d76040518163ffffffff1660e01b8152600401600060405180830381600087803b15801561118257600080fd5b505af1158015611196573d6000803e3d6000fd5b5050505060006111a4613f9d565b905080600960000154036111b55750565b60006111c082612679565b905081600960000181905550600060029054906101000a90046001600160a01b03166001600160a01b03166341c525536040518163ffffffff1660e01b8152600401602060405180830381865afa15801561121f573d6000803e3d6000fd5b505050506040513d601f19601f8201168201806040525081019061124391906155ab565b6001600160a01b031663d635bb8f836040518263ffffffff1660e01b815260040161127091815260200190565b602060405180830381865afa15801561128d573d6000803e3d6000fd5b505050506040513d601f19601f820116820180604052508101906112b191906154d7565b600a5560005b8151811015611472578181815181106112d2576112d2615620565b60200260200101516020015160000315611460578181815181106112f8576112f8615620565b602002602001015160400151156113525761134d82828151811061131e5761131e615620565b60200260200101516000015183838151811061133c5761133c615620565b6020026020010151602001516142a3565b611460565b61135a612a32565b6001600160a01b03166304f86f3c83838151811061137a5761137a615620565b6020026020010151600001516040518263ffffffff1660e01b81526004016113a29190615152565b602060405180830381865afa1580156113bf573d6000803e3d6000fd5b505050506040513d601f19601f820116820180604052508101906113e391906155ab565b6001600160a01b03166342966c6883838151811061140357611403615620565b6020026020010151602001516040518263ffffffff1660e01b815260040161142d91815260200190565b600060405180830381600087803b15801561144757600080fd5b505af115801561145b573d6000803e3d6000fd5b505050505b8061146a81615636565b9150506112b7565b505050565b60606000611483613648565b905060005b81518110156114eb578181815181106114a3576114a3615620565b602002602001015160400151156114d9578181815181106114c6576114c6615620565b6020026020010151600001519250505090565b806114e381615636565b915050611488565b506040518060200160405280600081525091505090565b6000610d087f6c85b93e587873fbe6712f3b438d42c2945689b262f7bd34b8ea4e3f832a89e6546001600160a01b031690565b600061153f6122f0565b6001600160a01b031663265d3f50611555610cfe565b6040518263ffffffff1660e01b81526004016115719190615152565b602060405180830381865afa15801561158e573d6000803e3d6000fd5b505050506040513d601f19601f820116820180604052508101906115b291906154d7565b600454610d089190615506565b600060026115cc83613bbc565b6115d69190615733565b6115e190600a615506565b61069990670de0b6b3a7640000615506565b60607f6c85b93e587873fbe6712f3b438d42c2945689b262f7bd34b8ea4e3f832a89e6600401805461162490615742565b80601f016020809104026020016040519081016040528092919081815260200182805461165090615742565b801561169d5780601f106116725761010080835404028352916020019161169d565b820191906000526020600020905b81548152906001019060200180831161168057829003601f168201915b5050505050905090565b6116af611502565b6001600160a01b0316336001600160a01b03161480611760575060006116d3611502565b6001600160a01b031663ebbe80346116f76000805160206158fb8339815191525490565b6040516001600160e01b031960e084901b1681526004810191909152336024820152604401602060405180830381865afa158015611739573d6000803e3d6000fd5b505050506040513d601f19601f8201168201806040525081019061175d91906154d7565b14155b6117ac5760405162461bcd60e51b815260206004820152601b60248201527f6f6e6c79576f726c64417373657446726f6d53616d6545706f63680000000000604482015260640161074e565b6117b46110d1565b80600360020160008282546117c9919061560d565b909155505050565b6117d9614657565b600655565b336117e7611502565b6001600160a01b031663e4e940f06040518163ffffffff1660e01b8152600401602060405180830381865afa158015611824573d6000803e3d6000fd5b505050506040513d601f19601f8201168201806040525081019061184891906155ab565b6001600160a01b0316146118925760405162461bcd60e51b81526020600482015260116024820152706f6e6c79446973747269627574696f6e7360781b604482015260640161074e565b600061189c611502565b6001600160a01b031663e4e940f06040518163ffffffff1660e01b8152600401602060405180830381865afa1580156118d9573d6000803e3d6000fd5b505050506040513d601f19601f820116820180604052508101906118fd91906155ab565b6001600160a01b03166302705c2e6040518163ffffffff1660e01b8152600401602060405180830381865afa15801561193a573d6000803e3d6000fd5b505050506040513d601f19601f8201168201806040525081019061195e91906154d7565b600b5461196c908490615506565b6119769190615525565b9050806000036119865750505050565b6001600160a01b0384166000908152600d6020526040812080548392906119ae90849061560d565b90915550506001600160a01b0383166000908152600d6020526040812080548392906119db9084906155fa565b909155505050505050565b60006119f0613c42565b6119f8611535565b610d08919061560d565b600080611a0d611502565b6001600160a01b0316637aa873346040518163ffffffff1660e01b8152600401602060405180830381865afa158015611a4a573d6000803e3d6000fd5b505050506040513d601f19601f82011682018060405250810190611a6e91906154d7565b9050801580611a7c57508042105b611ab65760405162461bcd60e51b815260206004820152600b60248201526a19d85b594818db1bdcd95960aa1b604482015260640161074e565b611abe611502565b6001600160a01b0316336001600160a01b03161480611b6f57506000611ae2611502565b6001600160a01b031663ebbe8034611b066000805160206158fb8339815191525490565b6040516001600160e01b031960e084901b1681526004810191909152336024820152604401602060405180830381865afa158015611b48573d6000803e3d6000fd5b505050506040513d601f19601f82011682018060405250810190611b6c91906154d7565b14155b611bbb5760405162461bcd60e51b815260206004820152601b60248201527f6f6e6c79576f726c64417373657446726f6d53616d6545706f63680000000000604482015260640161074e565b611bc36110d1565b6000611bcd612a32565b6001600160a01b03166304f86f3c611be3611477565b6040518263ffffffff1660e01b8152600401611bff9190615152565b602060405180830381865afa158015611c1c573d6000803e3d6000fd5b505050506040513d601f19601f82011682018060405250810190611c4091906155ab565b6040516375719b0160e11b81523060048201526001600160a01b03919091169063eae3360290602401602060405180830381865afa158015611c86573d6000803e3d6000fd5b505050506040513d601f19601f82011682018060405250810190611caa91906154d7565b90506000611cc2611cbc6103df612667565b836147e9565b905080600003611cd757600093505050611e87565b611ce181866147e9565b94506000670de0b6b3a7640000611cf66122f0565b6001600160a01b031663355bb5296040518163ffffffff1660e01b8152600401602060405180830381865afa158015611d33573d6000803e3d6000fd5b505050506040513d601f19601f82011682018060405250810190611d5791906154d7565b611d619088615506565b611d6b9190615525565b90506000611d77612a32565b6001600160a01b03166304f86f3c611d8d611477565b6040518263ffffffff1660e01b8152600401611da99190615152565b602060405180830381865afa158015611dc6573d6000803e3d6000fd5b505050506040513d601f19601f82011682018060405250810190611dea91906155ab565b90506001600160a01b03811663a9059cbb89611e06858b61560d565b6040516001600160e01b031960e085901b1681526001600160a01b03909216600483015260248201526044016020604051808303816000875af1158015611e51573d6000803e3d6000fd5b505050506040513d601f19601f82011682018060405250810190611e759190615547565b50611e7f826132dc565b869550505050505b5092915050565b611e966110d1565b600b546000611ea3611477565b90506000611eaf612a32565b6001600160a01b03166304f86f3c836040518263ffffffff1660e01b8152600401611eda9190615152565b602060405180830381865afa158015611ef7573d6000803e3d6000fd5b505050506040513d601f19601f82011682018060405250810190611f1b91906155ab565b90506000611f27611502565b6001600160a01b031663e4e940f06040518163ffffffff1660e01b8152600401602060405180830381865afa158015611f64573d6000803e3d6000fd5b505050506040513d601f19601f82011682018060405250810190611f8891906155ab565b90506000816001600160a01b03166302705c2e6040518163ffffffff1660e01b8152600401602060405180830381865afa158015611fca573d6000803e3d6000fd5b505050506040513d601f19601f82011682018060405250810190611fee91906154d7565b90506000611ffa611502565b6001600160a01b031663e4e940f06040518163ffffffff1660e01b8152600401602060405180830381865afa158015612037573d6000803e3d6000fd5b505050506040513d601f19601f8201168201806040525081019061205b91906155ab565b6001600160a01b03166361a5d38c600c546040518263ffffffff1660e01b815260040161208a91815260200190565b600060405180830381865afa1580156120a7573d6000803e3d6000fd5b505050506040513d6000823e601f3d908101601f191682016040526120cf919081019061577c565b905060005b81518110156122845760008282815181106120f1576120f1615620565b6020908102919091018101516001600160a01b038082166000818152600d8552604080822054600c548251627eeac760e11b815260048101959095526024850152905194965094909385938a93908c169262fdd58e926044808401938290030181865afa158015612166573d6000803e3d6000fd5b505050506040513d601f19601f8201168201806040525081019061218a91906154d7565b612194908d615506565b61219e9190615525565b6121a8919061560d565b905081156121ca576001600160a01b0383166000908152600d60205260408120555b801561226e576040516340c10f1960e01b81526001600160a01b038481166004830152602482018390528916906340c10f1990604401600060405180830381600087803b15801561221a57600080fd5b505af115801561222e573d6000803e3d6000fd5b505050507f47614c4f34cc07c5070ccad2038840984d1d138209aa8dcc40eac778c1b54c9c8984836040516122659392919061582e565b60405180910390a15b505050808061227c90615636565b9150506120d4565b50506000600b555050505050565b60008061229e836115bf565b905060006122b06103df8560016155fa565b9050600060646122c184604b615506565b6122cb9190615525565b905060006122d9828461560d565b90506122e6600682615525565b9695505050505050565b60006122fa611502565b6001600160a01b0316637b1039996040518163ffffffff1660e01b8152600401602060405180830381865afa158015612337573d6000803e3d6000fd5b505050506040513d601f19601f82011682018060405250810190610d0891906155ab565b6123636110d1565b600061236d611502565b6001600160a01b031663e4e940f06040518163ffffffff1660e01b8152600401602060405180830381865afa1580156123aa573d6000803e3d6000fd5b505050506040513d601f19601f820116820180604052508101906123ce91906155ab565b600c54604051627eeac760e11b81526001600160a01b03858116600483015260248201929092529192506000919083169062fdd58e90604401602060405180830381865afa158015612424573d6000803e3d6000fd5b505050506040513d601f19601f8201168201806040525081019061244891906154d7565b90508060000361245757505050565b6000600d6000856001600160a01b03166001600160a01b0316815260200190815260200160002054836001600160a01b03166302705c2e6040518163ffffffff1660e01b8152600401602060405180830381865afa1580156124bd573d6000803e3d6000fd5b505050506040513d601f19601f820116820180604052508101906124e191906154d7565b600b546124ef908590615506565b6124f99190615525565b612503919061560d565b9050806000036125135750505050565b6001600160a01b0384166000908152600d60205260408120805483929061253b9084906155fa565b909155506000905061254b611477565b9050612555612a32565b6001600160a01b03166304f86f3c826040518263ffffffff1660e01b81526004016125809190615152565b602060405180830381865afa15801561259d573d6000803e3d6000fd5b505050506040513d601f19601f820116820180604052508101906125c191906155ab565b6040516340c10f1960e01b81526001600160a01b0387811660048301526024820185905291909116906340c10f1990604401600060405180830381600087803b15801561260d57600080fd5b505af1158015612621573d6000803e3d6000fd5b505050507f47614c4f34cc07c5070ccad2038840984d1d138209aa8dcc40eac778c1b54c9c8186846040516126589392919061582e565b60405180910390a15050505050565b600354600154600091610d08916155fa565b606081600003612687574291505b6000612691611502565b6001600160a01b0316637aa873346040518163ffffffff1660e01b8152600401602060405180830381865afa1580156126ce573d6000803e3d6000fd5b505050506040513d601f19601f820116820180604052508101906126f291906154d7565b905080156127075761270483826147e9565b92505b6000612711613648565b90506000815167ffffffffffffffff81111561272f5761272f61525e565b60405190808252806020026020018201604052801561278657816020015b612773604051806060016040528060608152602001600081526020016000151581525090565b81526020019060019003908161274d5790505b50905060005b825181101561281d5760405180606001604052808483815181106127b2576127b2615620565b6020026020010151600001518152602001600081526020018483815181106127dc576127dc615620565b60200260200101516040015115158152508282815181106127ff576127ff615620565b6020026020010181905250808061281590615636565b91505061278c565b50600954851161282f57949350505050565b60008060029054906101000a90046001600160a01b03166001600160a01b03166341c525536040518163ffffffff1660e01b8152600401602060405180830381865afa158015612883573d6000803e3d6000fd5b505050506040513d601f19601f820116820180604052508101906128a791906155ab565b6001600160a01b031663d635bb8f876040518263ffffffff1660e01b81526004016128d491815260200190565b602060405180830381865afa1580156128f1573d6000803e3d6000fd5b505050506040513d601f19601f8201168201806040525081019061291591906154d7565b9050600061292860096001015483614801565b905060006129406009600101548460038001546148c8565b905060005b8551811015612a25578186828151811061296157612961615620565b6020026020010151602001516129779190615506565b85828151811061298957612989615620565b602002602001015160200181815250508481815181106129ab576129ab615620565b60200260200101516040015115612a1357828682815181106129cf576129cf615620565b6020026020010151602001516129e59190615506565b8582815181106129f7576129f7615620565b6020026020010151602001818151612a0f91906155fa565b9052505b80612a1d81615636565b915050612945565b5092979650505050505050565b6000612a3c611502565b6001600160a01b031663c6b61e4c612a606000805160206158fb8339815191525490565b6040518263ffffffff1660e01b8152600401612a7e91815260200190565b602060405180830381865afa158015612337573d6000803e3d6000fd5b600080612aa6613648565b905060005b8151811015612b02578380519060200120828281518110612ace57612ace615620565b6020026020010151600001518051906020012003612af0575060019392505050565b80612afa81615636565b915050612aab565b5060009392505050565b60607f6c85b93e587873fbe6712f3b438d42c2945689b262f7bd34b8ea4e3f832a89e6600301805461162490615742565b6000610699612b4a611477565b83613710565b612b58611502565b6001600160a01b0316336001600160a01b03161480612c0957506000612b7c611502565b6001600160a01b031663ebbe8034612ba06000805160206158fb8339815191525490565b6040516001600160e01b031960e084901b1681526004810191909152336024820152604401602060405180830381865afa158015612be2573d6000803e3d6000fd5b505050506040513d601f19601f82011682018060405250810190612c0691906154d7565b14155b612c555760405162461bcd60e51b815260206004820152601b60248201527f6f6e6c79576f726c64417373657446726f6d53616d6545706f63680000000000604482015260640161074e565b612c5d6110d1565b8060036002016000828254612c7291906155fa565b9091555060009050612c826119e6565b90506000612c8e613573565b905081811115611472576000612ca4838361560d565b600054909150612cc3906201000090046001600160a01b0316826149a2565b50505050565b6000612cd3611502565b6001600160a01b0316637aa873346040518163ffffffff1660e01b8152600401602060405180830381865afa158015612d10573d6000803e3d6000fd5b505050506040513d601f19601f82011682018060405250810190612d3491906154d7565b9050801580612d4257508042105b612d7c5760405162461bcd60e51b815260206004820152600b60248201526a19d85b594818db1bdcd95960aa1b604482015260640161074e565b600054604051631b0b969d60e01b8152336004820152620100009091046001600160a01b031690631b0b969d90602401602060405180830381865afa158015612dc9573d6000803e3d6000fd5b505050506040513d601f19601f82011682018060405250810190612ded9190615547565b80612e105750612dfb611502565b6001600160a01b0316336001600160a01b0316145b80612ead57506000612e20611502565b6001600160a01b031663ebbe8034612e446000805160206158fb8339815191525490565b6040516001600160e01b031960e084901b1681526004810191909152336024820152604401602060405180830381865afa158015612e86573d6000803e3d6000fd5b505050506040513d601f19601f82011682018060405250810190612eaa91906154d7565b14155b612ec95760405162461bcd60e51b815260040161074e90615569565b612ed16110d1565b600754612edc613f9d565b1015612f1e5760405162461bcd60e51b8152602060048201526011602482015270616c726561647920757067726164696e6760781b604482015260640161074e565b6000612f28612667565b90506000612f3582612292565b60408051808201909152600481526315d3d3d160e21b60208201529091506001600160a01b03851661303c57612f69612a32565b6001600160a01b03166304f86f3c826040518263ffffffff1660e01b8152600401612f949190615152565b602060405180830381865afa158015612fb1573d6000803e3d6000fd5b505050506040513d601f19601f82011682018060405250810190612fd591906155ab565b60405163079cc67960e41b8152336004820152602481018490526001600160a01b0391909116906379cc679090604401600060405180830381600087803b15801561301f57600080fd5b505af1158015613033573d6000803e3d6000fd5b50505050613182565b6000613046612a32565b6001600160a01b03166304f86f3c836040518263ffffffff1660e01b81526004016130719190615152565b602060405180830381865afa15801561308e573d6000803e3d6000fd5b505050506040513d601f19601f820116820180604052508101906130b291906155ab565b60405163dd8aaa4f60e01b81526001600160a01b038881166004830152336024830152604482018690529192509082169063dd8aaa4f90606401600060405180830381600087803b15801561310657600080fd5b505af115801561311a573d6000803e3d6000fd5b505060405163079cc67960e41b81526001600160a01b03898116600483015260248201879052841692506379cc67909150604401600060405180830381600087803b15801561316857600080fd5b505af115801561317c573d6000803e3d6000fd5b50505050505b600060029054906101000a90046001600160a01b03166001600160a01b03166341c525536040518163ffffffff1660e01b8152600401602060405180830381865afa1580156131d5573d6000803e3d6000fd5b505050506040513d601f19601f820116820180604052508101906131f991906155ab565b600054604051636e08f72160e01b81526001600160a01b0392831692636e08f72192613236926201000090910490911690859087906004016155c8565b600060405180830381600087803b15801561325057600080fd5b505af1158015613264573d6000803e3d6000fd5b5050505061327183610618565b61327b90426155fa565b600755600061328b8460016155fa565b905060018060000160008282546132a291906155fa565b90915550600090506132b385613bbc565b6132bc83613bbc565b6132c6919061560d565b905080600180016000828254610cb791906155fa565b60006132e6611502565b6001600160a01b0316637aa873346040518163ffffffff1660e01b8152600401602060405180830381865afa158015613323573d6000803e3d6000fd5b505050506040513d601f19601f8201168201806040525081019061334791906154d7565b905080158061335557508042105b61338f5760405162461bcd60e51b815260206004820152600b60248201526a19d85b594818db1bdcd95960aa1b604482015260640161074e565b613397611502565b6001600160a01b0316336001600160a01b03161480613448575060006133bb611502565b6001600160a01b031663ebbe80346133df6000805160206158fb8339815191525490565b6040516001600160e01b031960e084901b1681526004810191909152336024820152604401602060405180830381865afa158015613421573d6000803e3d6000fd5b505050506040513d601f19601f8201168201806040525081019061344591906154d7565b14155b6134945760405162461bcd60e51b815260206004820152601b60248201527f6f6e6c79576f726c64417373657446726f6d53616d6545706f63680000000000604482015260640161074e565b600061349e612a32565b6001600160a01b03166304f86f3c6134b4611477565b6040518263ffffffff1660e01b81526004016134d09190615152565b602060405180830381865afa1580156134ed573d6000803e3d6000fd5b505050506040513d601f19601f8201168201806040525081019061351191906155ab565b604051630852cd8d60e31b8152600481018590529091506001600160a01b038216906342966c6890602401600060405180830381600087803b15801561355657600080fd5b505af115801561356a573d6000803e3d6000fd5b50505050505050565b600061357d612a32565b6001600160a01b031663cabb62f06040518163ffffffff1660e01b8152600401602060405180830381865afa1580156135ba573d6000803e3d6000fd5b505050506040513d601f19601f820116820180604052508101906135de91906155ab565b6040516370a0823160e01b81523060048201526001600160a01b0391909116906370a0823190602401602060405180830381865afa158015613624573d6000803e3d6000fd5b505050506040513d601f19601f82011682018060405250810190610d0891906154d7565b604080516001808252818301909252606091816020015b613685604051806060016040528060608152602001600081526020016000151581525090565b81526020019060019003908161365f5750506040805160a08101909152600460608201908152631193d3d160e21b60808301528152909150602081016127106136d962015180678ac7230489e80000615525565b6136e39190615525565b8152602001600115158152508160008151811061370257613702615620565b602002602001018190525090565b60008061371c83612679565b8451602086012090915060005b8251811015613a8b578183828151811061374557613745615620565b6020026020010151600001518051906020012003613a795782818151811061376f5761376f615620565b6020026020010151604001511561396957600061378d6103df612667565b9050806000036137a4576000945050505050610699565b6000670de0b6b3a76400006137b76122f0565b6001600160a01b0316636f3426da6040518163ffffffff1660e01b8152600401602060405180830381865afa1580156137f4573d6000803e3d6000fd5b505050506040513d601f19601f8201168201806040525081019061381891906154d7565b86858151811061382a5761382a615620565b6020026020010151602001516138409190615506565b61384a9190615525565b90506000613856612a32565b6001600160a01b03166304f86f3c61386c611477565b6040518263ffffffff1660e01b81526004016138889190615152565b602060405180830381865afa1580156138a5573d6000803e3d6000fd5b505050506040513d601f19601f820116820180604052508101906138c991906155ab565b6040516375719b0160e11b81523060048201526001600160a01b03919091169063eae3360290602401602060405180830381865afa15801561390f573d6000803e3d6000fd5b505050506040513d601f19601f8201168201806040525081019061393391906154d7565b9050828110613949579550610699945050505050565b61395c61395682846155fa565b846147e9565b9650505050505050610699565b82818151811061397b5761397b615620565b60200260200101516020015161398f612a32565b6001600160a01b03166304f86f3c886040518263ffffffff1660e01b81526004016139ba9190615152565b602060405180830381865afa1580156139d7573d6000803e3d6000fd5b505050506040513d601f19601f820116820180604052508101906139fb91906155ab565b6040516375719b0160e11b81523060048201526001600160a01b03919091169063eae3360290602401602060405180830381865afa158015613a41573d6000803e3d6000fd5b505050506040513d601f19601f82011682018060405250810190613a6591906154d7565b613a6f919061560d565b9350505050610699565b80613a8381615636565b915050613729565b50600095945050505050565b60005460408051635ad66a2b60e11b8152905133926201000090046001600160a01b03169163b5acd4569160048083019260209291908290030181865afa158015613ae6573d6000803e3d6000fd5b505050506040513d601f19601f82011682018060405250810190613b0a91906155ab565b6001600160a01b031614613b565760405162461bcd60e51b815260206004820152601360248201527237b7363ca9b2ba3a3632b6b2b73a27bbb732b960691b604482015260640161074e565b613b5e614a80565b613baa5760405162461bcd60e51b815260206004820152601860248201527f546f6b656e20726563616c6c206e6f7420616c6c6f7765640000000000000000604482015260640161074e565b613bb2611e8e565b613bba61402a565b565b6000600581613bcb8285615525565b90506000613bd98383615506565b613be3908661560d565b9050600083600284613bf68160016155fa565b613c009190615506565b613c0a9190615525565b613c149190615506565b90506000613c238460016155fa565b613c2d9084615506565b613c3790836155fa565b979650505050505050565b600080613cbc600360020154613c566122f0565b6001600160a01b0316637a893af56040518163ffffffff1660e01b8152600401602060405180830381865afa158015613c93573d6000803e3d6000fd5b505050506040513d601f19601f82011682018060405250810190613cb791906154d7565b6147e9565b90506000613cc8611535565b90507314CEC82DA1FF11B4d01fD6E078f83781037dfa9063eefe4284670de0b6b3a7640000613cf78585615506565b613d019190615525565b6040516001600160e01b031960e084901b1681526004810191909152670de0b6b3a76400006024820152604401602060405180830381865af4158015613d4b573d6000803e3d6000fd5b505050506040513d601f19601f82011682018060405250810190613d6f91906154d7565b9250505090565b6000613d80611502565b6001600160a01b0316637aa873346040518163ffffffff1660e01b8152600401602060405180830381865afa158015613dbd573d6000803e3d6000fd5b505050506040513d601f19601f82011682018060405250810190613de191906154d7565b9050801580613def57508042105b613e295760405162461bcd60e51b815260206004820152600b60248201526a19d85b594818db1bdcd95960aa1b604482015260640161074e565b600054604051631b0b969d60e01b8152336004820152620100009091046001600160a01b031690631b0b969d90602401602060405180830381865afa158015613e76573d6000803e3d6000fd5b505050506040513d601f19601f82011682018060405250810190613e9a9190615547565b80613ebd5750613ea8611502565b6001600160a01b0316336001600160a01b0316145b80613f5a57506000613ecd611502565b6001600160a01b031663ebbe8034613ef16000805160206158fb8339815191525490565b6040516001600160e01b031960e084901b1681526004810191909152336024820152604401602060405180830381865afa158015613f33573d6000803e3d6000fd5b505050506040513d601f19601f82011682018060405250810190613f5791906154d7565b14155b613f765760405162461bcd60e51b815260040161074e90615569565b8615613f8657613f8688886149a2565b613f938585888686614c25565b5050505050505050565b600080613fa8611502565b6001600160a01b0316637aa873346040518163ffffffff1660e01b8152600401602060405180830381865afa158015613fe5573d6000803e3d6000fd5b505050506040513d601f19601f8201168201806040525081019061400991906154d7565b90508060000361401a574291505090565b61402442826147e9565b91505090565b6000614034611502565b6001600160a01b031663e4e940f06040518163ffffffff1660e01b8152600401602060405180830381865afa158015614071573d6000803e3d6000fd5b505050506040513d601f19601f8201168201806040525081019061409591906155ab565b6001600160a01b03166361a5d38c600c546040518263ffffffff1660e01b81526004016140c491815260200190565b600060405180830381865afa1580156140e1573d6000803e3d6000fd5b505050506040513d6000823e601f3d908101601f19168201604052614109919081019061577c565b9050614113611502565b6001600160a01b031663e4e940f06040518163ffffffff1660e01b8152600401602060405180830381865afa158015614150573d6000803e3d6000fd5b505050506040513d601f19601f8201168201806040525081019061417491906155ab565b6001600160a01b0316636a627842600060029054906101000a90046001600160a01b03166001600160a01b031663b5acd4566040518163ffffffff1660e01b8152600401602060405180830381865afa1580156141d5573d6000803e3d6000fd5b505050506040513d601f19601f820116820180604052508101906141f991906155ab565b6040516001600160e01b031960e084901b1681526001600160a01b0390911660048201526024016020604051808303816000875af115801561423f573d6000803e3d6000fd5b505050506040513d601f19601f8201168201806040525081019061426391906154d7565b600c8190556040517fe9049357477d5e079bc0d0063d21738fc5a5fb192941a2d73acdcc125f4bc1459161429891849061585c565b60405180910390a150565b806000036142af575050565b6000670de0b6b3a76400006142c26122f0565b6001600160a01b0316636f3426da6040518163ffffffff1660e01b8152600401602060405180830381865afa1580156142ff573d6000803e3d6000fd5b505050506040513d601f19601f8201168201806040525081019061432391906154d7565b61432d9084615506565b6143379190615525565b90506000614343612a32565b6001600160a01b03166304f86f3c856040518263ffffffff1660e01b815260040161436e9190615152565b602060405180830381865afa15801561438b573d6000803e3d6000fd5b505050506040513d601f19601f820116820180604052508101906143af91906155ab565b6040516375719b0160e11b81523060048201526001600160a01b03919091169063eae3360290602401602060405180830381865afa1580156143f5573d6000803e3d6000fd5b505050506040513d601f19601f8201168201806040525081019061441991906154d7565b905060006144286103df612667565b905080821061443a5760009250614458565b614444828261560d565b83111561445857614455828261560d565b92505b821561454357614466612a32565b6001600160a01b03166304f86f3c866040518263ffffffff1660e01b81526004016144919190615152565b602060405180830381865afa1580156144ae573d6000803e3d6000fd5b505050506040513d601f19601f820116820180604052508101906144d291906155ab565b6040516340c10f1960e01b8152306004820152602481018590526001600160a01b0391909116906340c10f1990604401600060405180830381600087803b15801561451c57600080fd5b505af1158015614530573d6000803e3d6000fd5b505050508284614540919061560d565b93505b831561465057600060029054906101000a90046001600160a01b03166001600160a01b03166341c525536040518163ffffffff1660e01b8152600401602060405180830381865afa15801561459c573d6000803e3d6000fd5b505050506040513d601f19601f820116820180604052508101906145c091906155ab565b6000546001600160a01b039182169163bcbd6fb991620100009004166145e4611477565b876040518463ffffffff1660e01b8152600401614603939291906155c8565b600060405180830381600087803b15801561461d57600080fd5b505af1158015614631573d6000803e3d6000fd5b50505050836009600201600082825461464a91906155fa565b90915550505b5050505050565b600080614662613648565b905060001960005b8251811015611e875782818151811061468557614685615620565b6020026020010151604001516147d757600061469f612a32565b6001600160a01b03166304f86f3c8584815181106146bf576146bf615620565b6020026020010151600001516040518263ffffffff1660e01b81526004016146e79190615152565b602060405180830381865afa158015614704573d6000803e3d6000fd5b505050506040513d601f19601f8201168201806040525081019061472891906155ab565b6040516375719b0160e11b81523060048201526001600160a01b03919091169063eae3360290602401602060405180830381865afa15801561476e573d6000803e3d6000fd5b505050506040513d601f19601f8201168201806040525081019061479291906154d7565b9050806000036147a757600094505050505090565b6147d38483815181106147bc576147bc615620565b602002602001015160200151826139569190615525565b9250505b806147e181615636565b91505061466a565b60008183106147f857816147fa565b825b9392505050565b60008061480e848461560d565b9050600061481a6122f0565b6001600160a01b031663657f17fd6040518163ffffffff1660e01b8152600401602060405180830381865afa158015614857573d6000803e3d6000fd5b505050506040513d601f19601f8201168201806040525081019061487b91906154d7565b61488d90670de0b6b3a7640000615525565b6148979083615525565b9050670de0b6b3a7640000816148ab614cc7565b6148b59190615506565b6148bf9190615525565b95945050505050565b60008383116148d9575060006147fa565b60006148e5858561560d565b905060006148f1614e59565b905060006148fd6122f0565b6001600160a01b031663657f17fd6040518163ffffffff1660e01b8152600401602060405180830381865afa15801561493a573d6000803e3d6000fd5b505050506040513d601f19601f8201168201806040525081019061495e91906154d7565b61497090670de0b6b3a7640000615525565b61497a9084615525565b9050613c37670de0b6b3a76400006149928484615506565b61499c9190615525565b866147e9565b6149aa612a32565b6001600160a01b031663cabb62f06040518163ffffffff1660e01b8152600401602060405180830381865afa1580156149e7573d6000803e3d6000fd5b505050506040513d601f19601f82011682018060405250810190614a0b91906155ab565b60405163a9059cbb60e01b81526001600160a01b03848116600483015260248201849052919091169063a9059cbb906044016020604051808303816000875af1158015614a5c573d6000803e3d6000fd5b505050506040513d601f19601f820116820180604052508101906114729190615547565b600080614a8e6103df612667565b90506000614a9a611477565b90508051600003614aae5760009250505090565b6000670de0b6b3a7640000614ac16122f0565b6001600160a01b03166368e35ca06040518163ffffffff1660e01b8152600401602060405180830381865afa158015614afe573d6000803e3d6000fd5b505050506040513d601f19601f82011682018060405250810190614b2291906154d7565b614b2c9085615506565b614b369190615525565b90506000614b42612a32565b6001600160a01b03166304f86f3c846040518263ffffffff1660e01b8152600401614b6d9190615152565b602060405180830381865afa158015614b8a573d6000803e3d6000fd5b505050506040513d601f19601f82011682018060405250810190614bae91906155ab565b6040516370a0823160e01b81523060048201526001600160a01b0391909116906370a0823190602401602060405180830381865afa158015614bf4573d6000803e3d6000fd5b505050506040513d601f19601f82011682018060405250810190614c1891906154d7565b9190911115949350505050565b60005b84811015614cbf57614cad868683818110614c4557614c45615620565b9050602002810190614c5791906158b3565b8080601f01602080910402602001604051908101604052809392919081815260200183838082843760009201919091525088925087915086905085818110614ca157614ca1615620565b90506020020135614eeb565b80614cb781615636565b915050614c28565b505050505050565b600080614cd2610cfe565b9050670de0b6b3a7640000614ce56122f0565b6001600160a01b031663781e0efe6040518163ffffffff1660e01b8152600401602060405180830381865afa158015614d22573d6000803e3d6000fd5b505050506040513d601f19601f82011682018060405250810190614d4691906154d7565b614d4e6122f0565b6001600160a01b031663265d3f50846040518263ffffffff1660e01b8152600401614d799190615152565b602060405180830381865afa158015614d96573d6000803e3d6000fd5b505050506040513d601f19601f82011682018060405250810190614dba91906154d7565b614dc26122f0565b6001600160a01b031663dd77e3c7856040518263ffffffff1660e01b8152600401614ded9190615152565b602060405180830381865afa158015614e0a573d6000803e3d6000fd5b505050506040513d601f19601f82011682018060405250810190614e2e91906154d7565b600254614e3b9190615506565b614e459190615506565b614e4f9190615506565b6140249190615525565b600080614e64613c42565b614e6c613573565b614e7691906155fa565b9050614e806122f0565b6001600160a01b031663781e0efe6040518163ffffffff1660e01b8152600401602060405180830381865afa158015614ebd573d6000803e3d6000fd5b505050506040513d601f19601f82011682018060405250810190614ee191906154d7565b6140249082615506565b614ef36110d1565b6000614efd612a32565b6001600160a01b03166304f86f3c856040518263ffffffff1660e01b8152600401614f289190615152565b602060405180830381865afa158015614f45573d6000803e3d6000fd5b505050506040513d601f19601f82011682018060405250810190614f6991906155ab565b6040516370a0823160e01b81523060048201529091506000906001600160a01b038316906370a0823190602401602060405180830381865afa158015614fb3573d6000803e3d6000fd5b505050506040513d601f19601f82011682018060405250810190614fd791906154d7565b905080600003614fe8575050505050565b80831115614ff4578092505b614ffc611477565b8051906020012085805190602001200361504557600061501d6103df612667565b905060008183111561503657615033828461560d565b90505b80851115615042578094505b50505b82156146505760405163a9059cbb60e01b81526001600160a01b0385811660048301526024820185905283169063a9059cbb906044016020604051808303816000875af115801561509a573d6000803e3d6000fd5b505050506040513d601f19601f82011682018060405250810190614cbf9190615547565b6000602082840312156150d057600080fd5b5035919050565b6001600160a01b03811681146150ec57600080fd5b50565b60006020828403121561510157600080fd5b81356147fa816150d7565b6000815180845260005b8181101561513257602081850181015186830182015201615116565b506000602082860101526020601f19601f83011685010191505092915050565b6020815260006147fa602083018461510c565b60008060006060848603121561517a57600080fd5b8335615185816150d7565b92506020840135615195816150d7565b929592945050506040919091013590565b600080604083850312156151b957600080fd5b82356151c4816150d7565b946020939093013593505050565b60008151606084526151e7606085018261510c565b9050602083015160208501526040830151151560408501528091505092915050565b6000602080830181845280855180835260408601915060408160051b870101925083870160005b82811015612a2557603f1988860301845261524c8583516151d2565b94509285019290850190600101615230565b634e487b7160e01b600052604160045260246000fd5b604051601f8201601f1916810167ffffffffffffffff8111828210171561529d5761529d61525e565b604052919050565b600082601f8301126152b657600080fd5b813567ffffffffffffffff8111156152d0576152d061525e565b6152e3601f8201601f1916602001615274565b8181528460208386010111156152f857600080fd5b816020850160208301376000918101602001919091529392505050565b60006020828403121561532757600080fd5b813567ffffffffffffffff81111561533e57600080fd5b61534a848285016152a5565b949350505050565b6000602080830181845280855180835260408601915060408160051b870101925083870160005b82811015612a2557603f198886030184526153958583516151d2565b94509285019290850190600101615379565b600080604083850312156153ba57600080fd5b823567ffffffffffffffff8111156153d157600080fd5b6153dd858286016152a5565b95602094909401359450505050565b60008083601f8401126153fe57600080fd5b50813567ffffffffffffffff81111561541657600080fd5b6020830191508360208260051b850101111561543157600080fd5b9250929050565b600080600080600080600060a0888a03121561545357600080fd5b873561545e816150d7565b9650602088013595506040880135615475816150d7565b9450606088013567ffffffffffffffff8082111561549257600080fd5b61549e8b838c016153ec565b909650945060808a01359150808211156154b757600080fd5b506154c48a828b016153ec565b989b979a50959850939692959293505050565b6000602082840312156154e957600080fd5b5051919050565b634e487b7160e01b600052601160045260246000fd5b6000816000190483118215151615615520576155206154f0565b500290565b60008261554257634e487b7160e01b600052601260045260246000fd5b500490565b60006020828403121561555957600080fd5b815180151581146147fa57600080fd5b60208082526022908201527f6f6e6c7952756c65724f72576f726c64417373657446726f6d53616d6545706f6040820152610c6d60f31b606082015260800190565b6000602082840312156155bd57600080fd5b81516147fa816150d7565b6001600160a01b03841681526060602082015260006155ea606083018561510c565b9050826040830152949350505050565b80820180821115610699576106996154f0565b81810381811115610699576106996154f0565b634e487b7160e01b600052603260045260246000fd5b600060018201615648576156486154f0565b5060010190565b600181815b8085111561568a578160001904821115615670576156706154f0565b8085161561567d57918102915b93841c9390800290615654565b509250929050565b6000826156a157506001610699565b816156ae57506000610699565b81600181146156c457600281146156ce576156ea565b6001915050610699565b60ff8411156156df576156df6154f0565b50506001821b610699565b5060208310610133831016604e8410600b841016171561570d575081810a610699565b615717838361564f565b806000190482111561572b5761572b6154f0565b029392505050565b60006147fa60ff841683615692565b600181811c9082168061575657607f821691505b60208210810361577657634e487b7160e01b600052602260045260246000fd5b50919050565b6000602080838503121561578f57600080fd5b825167ffffffffffffffff808211156157a757600080fd5b818501915085601f8301126157bb57600080fd5b8151818111156157cd576157cd61525e565b8060051b91506157de848301615274565b81815291830184019184810190888411156157f857600080fd5b938501935b838510156158225784519250615812836150d7565b82825293850193908501906157fd565b98975050505050505050565b606081526000615841606083018661510c565b6001600160a01b039490941660208301525060400152919050565b6000604082018483526020604081850152818551808452606086019150828701935060005b818110156158a65784516001600160a01b031683529383019391830191600101615881565b5090979650505050505050565b6000808335601e198436030181126158ca57600080fd5b83018035915067ffffffffffffffff8211156158e557600080fd5b60200191503681900382131561543157600080fdfe6c85b93e587873fbe6712f3b438d42c2945689b262f7bd34b8ea4e3f832a89e7a26469706673582212208b052c0764b9dfcf42255ab07fa5c66e9125a4d5fb8adb2ad135c3a7603c03a264736f6c63430008100033",
  "deployedBytecode": "0x608060405234801561001057600080fd5b50600436106102ce5760003560e01c80638545bc581161018c578063c55b31ce116100ee578063e91bde7611610097578063fb2018d911610071578063fb2018d9146105c9578063fe7f15ef146105dc578063ffaf29a0146105f557600080fd5b8063e91bde7614610599578063f2477b5b146105ac578063f4145a83146105b457600080fd5b8063c9c0df61116100c8578063c9c0df611461057f578063d2bc7d8514610588578063e64582911461059057600080fd5b8063c55b31ce14610543578063c724a01614610556578063c91b95661461057657600080fd5b8063adcd294011610150578063b78d13841161012a578063b78d138414610513578063c1499f7114610526578063c3f909d41461052e57600080fd5b8063adcd2940146104da578063ae6fd51d146104ed578063af04eb421461050057600080fd5b80638545bc581461047f5780638beab87e14610487578063900cf0cf146104a75780639a9402a1146104af5780639abb3cae146104d257600080fd5b80633fe3347a11610235578063589ae400116101f95780637abdf949116101d35780637abdf949146104515780637b103999146104645780637b7a2bfc1461046c57600080fd5b8063589ae400146104225780635ed697b71461043557806365e6f4ce1461044957600080fd5b80633fe3347a146103e457806343e77f46146103ec5780634500dbeb146103ff5780634ace91d014610407578063575bceda1461041a57600080fd5b806319ab453c1161029757806330b67baa1161027157806330b67baa146103a957806339c8a95a146103c95780633c084b8b146103d157600080fd5b806319ab453c146103865780631d8557d71461039957806324db272a146103a157600080fd5b8062d4fbf8146102d357806302e68b94146102f957806305e88b691461030e578063115112ab1461033b57806314dff0e814610350575b600080fd5b6102e66102e13660046150be565b610618565b6040519081526020015b60405180910390f35b61030c6103073660046150ef565b61069f565b005b600954600a54600b5461032092919083565b604080519384526020840192909252908201526060016102f0565b610343610cfe565b6040516102f09190615152565b6003546004546005546006546103669392919084565b6040805194855260208501939093529183015260608201526080016102f0565b61030c6103943660046150ef565b610d0d565b61030c6110d1565b610343611477565b6103b1611502565b6040516001600160a01b0390911681526020016102f0565b6102e6611535565b6102e66103df3660046150be565b6115bf565b6103436115f3565b61030c6103fa3660046150be565b6116a7565b61030c6117d1565b61030c610415366004615165565b6117de565b6102e66119e6565b6102e66104303660046151a6565b611a02565b6102e66104433660046150be565b50600090565b61030c611e8e565b6102e661045f3660046150be565b612292565b6103b16122f0565b61030c61047a3660046150ef565b61235b565b6102e6612667565b61049a6104953660046150be565b612679565b6040516102f09190615209565b6103b1612a32565b6104c26104bd366004615315565b612a9b565b60405190151581526020016102f0565b610343612b0c565b6102e66104e83660046150be565b612b3d565b61030c6104fb3660046150be565b612b50565b61030c61050e3660046150ef565b612cc9565b61030c6105213660046150be565b6132dc565b6102e6613573565b610536613648565b6040516102f09190615352565b6102e66105513660046153a7565b613710565b6102e66105643660046150ef565b600d6020526000908152604090205481565b6102e660085481565b6102e6600c5481565b61030c613a97565b6102e660075481565b6102e66105a73660046150be565b613bbc565b6102e6613c42565b6000805160206158fb833981519152546102e6565b61030c6105d7366004615438565b613d76565b6000546103b1906201000090046001600160a01b031681565b600154600254610603919082565b604080519283526020830191909152016102f0565b60006106226122f0565b6001600160a01b031663781e0efe6040518163ffffffff1660e01b8152600401602060405180830381865afa15801561065f573d6000803e3d6000fd5b505050506040513d601f19601f8201168201806040525081019061068391906154d7565b61068f83615460615506565b6106999190615525565b92915050565b60006106a9611502565b6001600160a01b0316637aa873346040518163ffffffff1660e01b8152600401602060405180830381865afa1580156106e6573d6000803e3d6000fd5b505050506040513d601f19601f8201168201806040525081019061070a91906154d7565b905080158061071857508042105b6107575760405162461bcd60e51b815260206004820152600b60248201526a19d85b594818db1bdcd95960aa1b60448201526064015b60405180910390fd5b600054604051631b0b969d60e01b8152336004820152620100009091046001600160a01b031690631b0b969d90602401602060405180830381865afa1580156107a4573d6000803e3d6000fd5b505050506040513d601f19601f820116820180604052508101906107c89190615547565b806107eb57506107d6611502565b6001600160a01b0316336001600160a01b0316145b80610888575060006107fb611502565b6001600160a01b031663ebbe803461081f6000805160206158fb8339815191525490565b6040516001600160e01b031960e084901b1681526004810191909152336024820152604401602060405180830381865afa158015610861573d6000803e3d6000fd5b505050506040513d601f19601f8201168201806040525081019061088591906154d7565b14155b6108a45760405162461bcd60e51b815260040161074e90615569565b6108ac6110d1565b6007546108b7613f9d565b10156108f95760405162461bcd60e51b8152602060048201526011602482015270616c726561647920757067726164696e6760781b604482015260640161074e565b6000610903612667565b9050600061091082612292565b6040805180820190915260038152624f524560e81b60208201529091506001600160a01b038516610a1657610943612a32565b6001600160a01b03166304f86f3c826040518263ffffffff1660e01b815260040161096e9190615152565b602060405180830381865afa15801561098b573d6000803e3d6000fd5b505050506040513d601f19601f820116820180604052508101906109af91906155ab565b60405163079cc67960e41b8152336004820152602481018490526001600160a01b0391909116906379cc679090604401600060405180830381600087803b1580156109f957600080fd5b505af1158015610a0d573d6000803e3d6000fd5b50505050610b5c565b6000610a20612a32565b6001600160a01b03166304f86f3c836040518263ffffffff1660e01b8152600401610a4b9190615152565b602060405180830381865afa158015610a68573d6000803e3d6000fd5b505050506040513d601f19601f82011682018060405250810190610a8c91906155ab565b60405163dd8aaa4f60e01b81526001600160a01b038881166004830152336024830152604482018690529192509082169063dd8aaa4f90606401600060405180830381600087803b158015610ae057600080fd5b505af1158015610af4573d6000803e3d6000fd5b505060405163079cc67960e41b81526001600160a01b03898116600483015260248201879052841692506379cc67909150604401600060405180830381600087803b158015610b4257600080fd5b505af1158015610b56573d6000803e3d6000fd5b50505050505b600060029054906101000a90046001600160a01b03166001600160a01b03166341c525536040518163ffffffff1660e01b8152600401602060405180830381865afa158015610baf573d6000803e3d6000fd5b505050506040513d601f19601f82011682018060405250810190610bd391906155ab565b600054604051636e08f72160e01b81526001600160a01b0392831692636e08f72192610c10926201000090910490911690859087906004016155c8565b600060405180830381600087803b158015610c2a57600080fd5b505af1158015610c3e573d6000803e3d6000fd5b50505050610c4a600090565b610c5490426155fa565b6007556000610c648460016155fa565b9050600160036000016000828254610c7c91906155fa565b9091555060009050610c8d85613bbc565b610c9683613bbc565b610ca0919061560d565b90508060036001016000828254610cb791906155fa565b90915550610cc29050565b6040518281527f3522cf3459e241a649e558e6164f7286e55468f8ba273170ece2a4716fc9f4969060200160405180910390a150505050505050565b6060610d086115f3565b905090565b600054610100900460ff1615808015610d2d5750600054600160ff909116105b80610d475750303b158015610d47575060005460ff166001145b610daa5760405162461bcd60e51b815260206004820152602e60248201527f496e697469616c697a61626c653a20636f6e747261637420697320616c72656160448201526d191e481a5b9a5d1a585b1a5e995960921b606482015260840161074e565b6000805460ff191660011790558015610dcd576000805461ff0019166101001790555b6000805475ffffffffffffffffffffffffffffffffffffffff00001916620100006001600160a01b03851602178155600180805560028190556003819055600455610e16613f9d565b905080600960000181905550600060029054906101000a90046001600160a01b03166001600160a01b03166341c525536040518163ffffffff1660e01b8152600401602060405180830381865afa158015610e75573d6000803e3d6000fd5b505050506040513d601f19601f82011682018060405250810190610e9991906155ab565b6001600160a01b031663d635bb8f826040518263ffffffff1660e01b8152600401610ec691815260200190565b602060405180830381865afa158015610ee3573d6000803e3d6000fd5b505050506040513d601f19601f82011682018060405250810190610f0791906154d7565b600a55610f126122f0565b6001600160a01b031663636d6854610f28610cfe565b6040518263ffffffff1660e01b8152600401610f449190615152565b602060405180830381865afa158015610f61573d6000803e3d6000fd5b505050506040513d601f19601f82011682018060405250810190610f859190615547565b1561107e57610f92612a32565b6001600160a01b03166304f86f3c610fa8611477565b6040518263ffffffff1660e01b8152600401610fc49190615152565b602060405180830381865afa158015610fe1573d6000803e3d6000fd5b505050506040513d601f19601f8201168201806040525081019061100591906155ab565b6001600160a01b03166340c10f193061101f6103df612667565b6040516001600160e01b031960e085901b1681526001600160a01b0390921660048301526024820152604401600060405180830381600087803b15801561106557600080fd5b505af1158015611079573d6000803e3d6000fd5b505050505b61108661402a565b5080156110cd576000805461ff0019169055604051600181527f7f26b83ff96e1f2b6a682f133852f6798a09c465da95921460cefb38474024989060200160405180910390a15b5050565b600060029054906101000a90046001600160a01b03166001600160a01b03166341c525536040518163ffffffff1660e01b8152600401602060405180830381865afa158015611124573d6000803e3d6000fd5b505050506040513d601f19601f8201168201806040525081019061114891906155ab565b6001600160a01b0316631d8557d76040518163ffffffff1660e01b8152600401600060405180830381600087803b15801561118257600080fd5b505af1158015611196573d6000803e3d6000fd5b5050505060006111a4613f9d565b905080600960000154036111b55750565b60006111c082612679565b905081600960000181905550600060029054906101000a90046001600160a01b03166001600160a01b03166341c525536040518163ffffffff1660e01b8152600401602060405180830381865afa15801561121f573d6000803e3d6000fd5b505050506040513d601f19601f8201168201806040525081019061124391906155ab565b6001600160a01b031663d635bb8f836040518263ffffffff1660e01b815260040161127091815260200190565b602060405180830381865afa15801561128d573d6000803e3d6000fd5b505050506040513d601f19601f820116820180604052508101906112b191906154d7565b600a5560005b8151811015611472578181815181106112d2576112d2615620565b60200260200101516020015160000315611460578181815181106112f8576112f8615620565b602002602001015160400151156113525761134d82828151811061131e5761131e615620565b60200260200101516000015183838151811061133c5761133c615620565b6020026020010151602001516142a3565b611460565b61135a612a32565b6001600160a01b03166304f86f3c83838151811061137a5761137a615620565b6020026020010151600001516040518263ffffffff1660e01b81526004016113a29190615152565b602060405180830381865afa1580156113bf573d6000803e3d6000fd5b505050506040513d601f19601f820116820180604052508101906113e391906155ab565b6001600160a01b03166342966c6883838151811061140357611403615620565b6020026020010151602001516040518263ffffffff1660e01b815260040161142d91815260200190565b600060405180830381600087803b15801561144757600080fd5b505af115801561145b573d6000803e3d6000fd5b505050505b8061146a81615636565b9150506112b7565b505050565b60606000611483613648565b905060005b81518110156114eb578181815181106114a3576114a3615620565b602002602001015160400151156114d9578181815181106114c6576114c6615620565b6020026020010151600001519250505090565b806114e381615636565b915050611488565b506040518060200160405280600081525091505090565b6000610d087f6c85b93e587873fbe6712f3b438d42c2945689b262f7bd34b8ea4e3f832a89e6546001600160a01b031690565b600061153f6122f0565b6001600160a01b031663265d3f50611555610cfe565b6040518263ffffffff1660e01b81526004016115719190615152565b602060405180830381865afa15801561158e573d6000803e3d6000fd5b505050506040513d601f19601f820116820180604052508101906115b291906154d7565b600454610d089190615506565b600060026115cc83613bbc565b6115d69190615733565b6115e190600a615506565b61069990670de0b6b3a7640000615506565b60607f6c85b93e587873fbe6712f3b438d42c2945689b262f7bd34b8ea4e3f832a89e6600401805461162490615742565b80601f016020809104026020016040519081016040528092919081815260200182805461165090615742565b801561169d5780601f106116725761010080835404028352916020019161169d565b820191906000526020600020905b81548152906001019060200180831161168057829003601f168201915b5050505050905090565b6116af611502565b6001600160a01b0316336001600160a01b03161480611760575060006116d3611502565b6001600160a01b031663ebbe80346116f76000805160206158fb8339815191525490565b6040516001600160e01b031960e084901b1681526004810191909152336024820152604401602060405180830381865afa158015611739573d6000803e3d6000fd5b505050506040513d601f19601f8201168201806040525081019061175d91906154d7565b14155b6117ac5760405162461bcd60e51b815260206004820152601b60248201527f6f6e6c79576f726c64417373657446726f6d53616d6545706f63680000000000604482015260640161074e565b6117b46110d1565b80600360020160008282546117c9919061560d565b909155505050565b6117d9614657565b600655565b336117e7611502565b6001600160a01b031663e4e940f06040518163ffffffff1660e01b8152600401602060405180830381865afa158015611824573d6000803e3d6000fd5b505050506040513d601f19601f8201168201806040525081019061184891906155ab565b6001600160a01b0316146118925760405162461bcd60e51b81526020600482015260116024820152706f6e6c79446973747269627574696f6e7360781b604482015260640161074e565b600061189c611502565b6001600160a01b031663e4e940f06040518163ffffffff1660e01b8152600401602060405180830381865afa1580156118d9573d6000803e3d6000fd5b505050506040513d601f19601f820116820180604052508101906118fd91906155ab565b6001600160a01b03166302705c2e6040518163ffffffff1660e01b8152600401602060405180830381865afa15801561193a573d6000803e3d6000fd5b505050506040513d601f19601f8201168201806040525081019061195e91906154d7565b600b5461196c908490615506565b6119769190615525565b9050806000036119865750505050565b6001600160a01b0384166000908152600d6020526040812080548392906119ae90849061560d565b90915550506001600160a01b0383166000908152600d6020526040812080548392906119db9084906155fa565b909155505050505050565b60006119f0613c42565b6119f8611535565b610d08919061560d565b600080611a0d611502565b6001600160a01b0316637aa873346040518163ffffffff1660e01b8152600401602060405180830381865afa158015611a4a573d6000803e3d6000fd5b505050506040513d601f19601f82011682018060405250810190611a6e91906154d7565b9050801580611a7c57508042105b611ab65760405162461bcd60e51b815260206004820152600b60248201526a19d85b594818db1bdcd95960aa1b604482015260640161074e565b611abe611502565b6001600160a01b0316336001600160a01b03161480611b6f57506000611ae2611502565b6001600160a01b031663ebbe8034611b066000805160206158fb8339815191525490565b6040516001600160e01b031960e084901b1681526004810191909152336024820152604401602060405180830381865afa158015611b48573d6000803e3d6000fd5b505050506040513d601f19601f82011682018060405250810190611b6c91906154d7565b14155b611bbb5760405162461bcd60e51b815260206004820152601b60248201527f6f6e6c79576f726c64417373657446726f6d53616d6545706f63680000000000604482015260640161074e565b611bc36110d1565b6000611bcd612a32565b6001600160a01b03166304f86f3c611be3611477565b6040518263ffffffff1660e01b8152600401611bff9190615152565b602060405180830381865afa158015611c1c573d6000803e3d6000fd5b505050506040513d601f19601f82011682018060405250810190611c4091906155ab565b6040516375719b0160e11b81523060048201526001600160a01b03919091169063eae3360290602401602060405180830381865afa158015611c86573d6000803e3d6000fd5b505050506040513d601f19601f82011682018060405250810190611caa91906154d7565b90506000611cc2611cbc6103df612667565b836147e9565b905080600003611cd757600093505050611e87565b611ce181866147e9565b94506000670de0b6b3a7640000611cf66122f0565b6001600160a01b031663355bb5296040518163ffffffff1660e01b8152600401602060405180830381865afa158015611d33573d6000803e3d6000fd5b505050506040513d601f19601f82011682018060405250810190611d5791906154d7565b611d619088615506565b611d6b9190615525565b90506000611d77612a32565b6001600160a01b03166304f86f3c611d8d611477565b6040518263ffffffff1660e01b8152600401611da99190615152565b602060405180830381865afa158015611dc6573d6000803e3d6000fd5b505050506040513d601f19601f82011682018060405250810190611dea91906155ab565b90506001600160a01b03811663a9059cbb89611e06858b61560d565b6040516001600160e01b031960e085901b1681526001600160a01b03909216600483015260248201526044016020604051808303816000875af1158015611e51573d6000803e3d6000fd5b505050506040513d601f19601f82011682018060405250810190611e759190615547565b50611e7f826132dc565b869550505050505b5092915050565b611e966110d1565b600b546000611ea3611477565b90506000611eaf612a32565b6001600160a01b03166304f86f3c836040518263ffffffff1660e01b8152600401611eda9190615152565b602060405180830381865afa158015611ef7573d6000803e3d6000fd5b505050506040513d601f19601f82011682018060405250810190611f1b91906155ab565b90506000611f27611502565b6001600160a01b031663e4e940f06040518163ffffffff1660e01b8152600401602060405180830381865afa158015611f64573d6000803e3d6000fd5b505050506040513d601f19601f82011682018060405250810190611f8891906155ab565b90506000816001600160a01b03166302705c2e6040518163ffffffff1660e01b8152600401602060405180830381865afa158015611fca573d6000803e3d6000fd5b505050506040513d601f19601f82011682018060405250810190611fee91906154d7565b90506000611ffa611502565b6001600160a01b031663e4e940f06040518163ffffffff1660e01b8152600401602060405180830381865afa158015612037573d6000803e3d6000fd5b505050506040513d601f19601f8201168201806040525081019061205b91906155ab565b6001600160a01b03166361a5d38c600c546040518263ffffffff1660e01b815260040161208a91815260200190565b600060405180830381865afa1580156120a7573d6000803e3d6000fd5b505050506040513d6000823e601f3d908101601f191682016040526120cf919081019061577c565b905060005b81518110156122845760008282815181106120f1576120f1615620565b6020908102919091018101516001600160a01b038082166000818152600d8552604080822054600c548251627eeac760e11b815260048101959095526024850152905194965094909385938a93908c169262fdd58e926044808401938290030181865afa158015612166573d6000803e3d6000fd5b505050506040513d601f19601f8201168201806040525081019061218a91906154d7565b612194908d615506565b61219e9190615525565b6121a8919061560d565b905081156121ca576001600160a01b0383166000908152600d60205260408120555b801561226e576040516340c10f1960e01b81526001600160a01b038481166004830152602482018390528916906340c10f1990604401600060405180830381600087803b15801561221a57600080fd5b505af115801561222e573d6000803e3d6000fd5b505050507f47614c4f34cc07c5070ccad2038840984d1d138209aa8dcc40eac778c1b54c9c8984836040516122659392919061582e565b60405180910390a15b505050808061227c90615636565b9150506120d4565b50506000600b555050505050565b60008061229e836115bf565b905060006122b06103df8560016155fa565b9050600060646122c184604b615506565b6122cb9190615525565b905060006122d9828461560d565b90506122e6600682615525565b9695505050505050565b60006122fa611502565b6001600160a01b0316637b1039996040518163ffffffff1660e01b8152600401602060405180830381865afa158015612337573d6000803e3d6000fd5b505050506040513d601f19601f82011682018060405250810190610d0891906155ab565b6123636110d1565b600061236d611502565b6001600160a01b031663e4e940f06040518163ffffffff1660e01b8152600401602060405180830381865afa1580156123aa573d6000803e3d6000fd5b505050506040513d601f19601f820116820180604052508101906123ce91906155ab565b600c54604051627eeac760e11b81526001600160a01b03858116600483015260248201929092529192506000919083169062fdd58e90604401602060405180830381865afa158015612424573d6000803e3d6000fd5b505050506040513d601f19601f8201168201806040525081019061244891906154d7565b90508060000361245757505050565b6000600d6000856001600160a01b03166001600160a01b0316815260200190815260200160002054836001600160a01b03166302705c2e6040518163ffffffff1660e01b8152600401602060405180830381865afa1580156124bd573d6000803e3d6000fd5b505050506040513d601f19601f820116820180604052508101906124e191906154d7565b600b546124ef908590615506565b6124f99190615525565b612503919061560d565b9050806000036125135750505050565b6001600160a01b0384166000908152600d60205260408120805483929061253b9084906155fa565b909155506000905061254b611477565b9050612555612a32565b6001600160a01b03166304f86f3c826040518263ffffffff1660e01b81526004016125809190615152565b602060405180830381865afa15801561259d573d6000803e3d6000fd5b505050506040513d601f19601f820116820180604052508101906125c191906155ab565b6040516340c10f1960e01b81526001600160a01b0387811660048301526024820185905291909116906340c10f1990604401600060405180830381600087803b15801561260d57600080fd5b505af1158015612621573d6000803e3d6000fd5b505050507f47614c4f34cc07c5070ccad2038840984d1d138209aa8dcc40eac778c1b54c9c8186846040516126589392919061582e565b60405180910390a15050505050565b600354600154600091610d08916155fa565b606081600003612687574291505b6000612691611502565b6001600160a01b0316637aa873346040518163ffffffff1660e01b8152600401602060405180830381865afa1580156126ce573d6000803e3d6000fd5b505050506040513d601f19601f820116820180604052508101906126f291906154d7565b905080156127075761270483826147e9565b92505b6000612711613648565b90506000815167ffffffffffffffff81111561272f5761272f61525e565b60405190808252806020026020018201604052801561278657816020015b612773604051806060016040528060608152602001600081526020016000151581525090565b81526020019060019003908161274d5790505b50905060005b825181101561281d5760405180606001604052808483815181106127b2576127b2615620565b6020026020010151600001518152602001600081526020018483815181106127dc576127dc615620565b60200260200101516040015115158152508282815181106127ff576127ff615620565b6020026020010181905250808061281590615636565b91505061278c565b50600954851161282f57949350505050565b60008060029054906101000a90046001600160a01b03166001600160a01b03166341c525536040518163ffffffff1660e01b8152600401602060405180830381865afa158015612883573d6000803e3d6000fd5b505050506040513d601f19601f820116820180604052508101906128a791906155ab565b6001600160a01b031663d635bb8f876040518263ffffffff1660e01b81526004016128d491815260200190565b602060405180830381865afa1580156128f1573d6000803e3d6000fd5b505050506040513d601f19601f8201168201806040525081019061291591906154d7565b9050600061292860096001015483614801565b905060006129406009600101548460038001546148c8565b905060005b8551811015612a25578186828151811061296157612961615620565b6020026020010151602001516129779190615506565b85828151811061298957612989615620565b602002602001015160200181815250508481815181106129ab576129ab615620565b60200260200101516040015115612a1357828682815181106129cf576129cf615620565b6020026020010151602001516129e59190615506565b8582815181106129f7576129f7615620565b6020026020010151602001818151612a0f91906155fa565b9052505b80612a1d81615636565b915050612945565b5092979650505050505050565b6000612a3c611502565b6001600160a01b031663c6b61e4c612a606000805160206158fb8339815191525490565b6040518263ffffffff1660e01b8152600401612a7e91815260200190565b602060405180830381865afa158015612337573d6000803e3d6000fd5b600080612aa6613648565b905060005b8151811015612b02578380519060200120828281518110612ace57612ace615620565b6020026020010151600001518051906020012003612af0575060019392505050565b80612afa81615636565b915050612aab565b5060009392505050565b60607f6c85b93e587873fbe6712f3b438d42c2945689b262f7bd34b8ea4e3f832a89e6600301805461162490615742565b6000610699612b4a611477565b83613710565b612b58611502565b6001600160a01b0316336001600160a01b03161480612c0957506000612b7c611502565b6001600160a01b031663ebbe8034612ba06000805160206158fb8339815191525490565b6040516001600160e01b031960e084901b1681526004810191909152336024820152604401602060405180830381865afa158015612be2573d6000803e3d6000fd5b505050506040513d601f19601f82011682018060405250810190612c0691906154d7565b14155b612c555760405162461bcd60e51b815260206004820152601b60248201527f6f6e6c79576f726c64417373657446726f6d53616d6545706f63680000000000604482015260640161074e565b612c5d6110d1565b8060036002016000828254612c7291906155fa565b9091555060009050612c826119e6565b90506000612c8e613573565b905081811115611472576000612ca4838361560d565b600054909150612cc3906201000090046001600160a01b0316826149a2565b50505050565b6000612cd3611502565b6001600160a01b0316637aa873346040518163ffffffff1660e01b8152600401602060405180830381865afa158015612d10573d6000803e3d6000fd5b505050506040513d601f19601f82011682018060405250810190612d3491906154d7565b9050801580612d4257508042105b612d7c5760405162461bcd60e51b815260206004820152600b60248201526a19d85b594818db1bdcd95960aa1b604482015260640161074e565b600054604051631b0b969d60e01b8152336004820152620100009091046001600160a01b031690631b0b969d90602401602060405180830381865afa158015612dc9573d6000803e3d6000fd5b505050506040513d601f19601f82011682018060405250810190612ded9190615547565b80612e105750612dfb611502565b6001600160a01b0316336001600160a01b0316145b80612ead57506000612e20611502565b6001600160a01b031663ebbe8034612e446000805160206158fb8339815191525490565b6040516001600160e01b031960e084901b1681526004810191909152336024820152604401602060405180830381865afa158015612e86573d6000803e3d6000fd5b505050506040513d601f19601f82011682018060405250810190612eaa91906154d7565b14155b612ec95760405162461bcd60e51b815260040161074e90615569565b612ed16110d1565b600754612edc613f9d565b1015612f1e5760405162461bcd60e51b8152602060048201526011602482015270616c726561647920757067726164696e6760781b604482015260640161074e565b6000612f28612667565b90506000612f3582612292565b60408051808201909152600481526315d3d3d160e21b60208201529091506001600160a01b03851661303c57612f69612a32565b6001600160a01b03166304f86f3c826040518263ffffffff1660e01b8152600401612f949190615152565b602060405180830381865afa158015612fb1573d6000803e3d6000fd5b505050506040513d601f19601f82011682018060405250810190612fd591906155ab565b60405163079cc67960e41b8152336004820152602481018490526001600160a01b0391909116906379cc679090604401600060405180830381600087803b15801561301f57600080fd5b505af1158015613033573d6000803e3d6000fd5b50505050613182565b6000613046612a32565b6001600160a01b03166304f86f3c836040518263ffffffff1660e01b81526004016130719190615152565b602060405180830381865afa15801561308e573d6000803e3d6000fd5b505050506040513d601f19601f820116820180604052508101906130b291906155ab565b60405163dd8aaa4f60e01b81526001600160a01b038881166004830152336024830152604482018690529192509082169063dd8aaa4f90606401600060405180830381600087803b15801561310657600080fd5b505af115801561311a573d6000803e3d6000fd5b505060405163079cc67960e41b81526001600160a01b03898116600483015260248201879052841692506379cc67909150604401600060405180830381600087803b15801561316857600080fd5b505af115801561317c573d6000803e3d6000fd5b50505050505b600060029054906101000a90046001600160a01b03166001600160a01b03166341c525536040518163ffffffff1660e01b8152600401602060405180830381865afa1580156131d5573d6000803e3d6000fd5b505050506040513d601f19601f820116820180604052508101906131f991906155ab565b600054604051636e08f72160e01b81526001600160a01b0392831692636e08f72192613236926201000090910490911690859087906004016155c8565b600060405180830381600087803b15801561325057600080fd5b505af1158015613264573d6000803e3d6000fd5b5050505061327183610618565b61327b90426155fa565b600755600061328b8460016155fa565b905060018060000160008282546132a291906155fa565b90915550600090506132b385613bbc565b6132bc83613bbc565b6132c6919061560d565b905080600180016000828254610cb791906155fa565b60006132e6611502565b6001600160a01b0316637aa873346040518163ffffffff1660e01b8152600401602060405180830381865afa158015613323573d6000803e3d6000fd5b505050506040513d601f19601f8201168201806040525081019061334791906154d7565b905080158061335557508042105b61338f5760405162461bcd60e51b815260206004820152600b60248201526a19d85b594818db1bdcd95960aa1b604482015260640161074e565b613397611502565b6001600160a01b0316336001600160a01b03161480613448575060006133bb611502565b6001600160a01b031663ebbe80346133df6000805160206158fb8339815191525490565b6040516001600160e01b031960e084901b1681526004810191909152336024820152604401602060405180830381865afa158015613421573d6000803e3d6000fd5b505050506040513d601f19601f8201168201806040525081019061344591906154d7565b14155b6134945760405162461bcd60e51b815260206004820152601b60248201527f6f6e6c79576f726c64417373657446726f6d53616d6545706f63680000000000604482015260640161074e565b600061349e612a32565b6001600160a01b03166304f86f3c6134b4611477565b6040518263ffffffff1660e01b81526004016134d09190615152565b602060405180830381865afa1580156134ed573d6000803e3d6000fd5b505050506040513d601f19601f8201168201806040525081019061351191906155ab565b604051630852cd8d60e31b8152600481018590529091506001600160a01b038216906342966c6890602401600060405180830381600087803b15801561355657600080fd5b505af115801561356a573d6000803e3d6000fd5b50505050505050565b600061357d612a32565b6001600160a01b031663cabb62f06040518163ffffffff1660e01b8152600401602060405180830381865afa1580156135ba573d6000803e3d6000fd5b505050506040513d601f19601f820116820180604052508101906135de91906155ab565b6040516370a0823160e01b81523060048201526001600160a01b0391909116906370a0823190602401602060405180830381865afa158015613624573d6000803e3d6000fd5b505050506040513d601f19601f82011682018060405250810190610d0891906154d7565b604080516001808252818301909252606091816020015b613685604051806060016040528060608152602001600081526020016000151581525090565b81526020019060019003908161365f5750506040805160a08101909152600460608201908152631193d3d160e21b60808301528152909150602081016127106136d962015180678ac7230489e80000615525565b6136e39190615525565b8152602001600115158152508160008151811061370257613702615620565b602002602001018190525090565b60008061371c83612679565b8451602086012090915060005b8251811015613a8b578183828151811061374557613745615620565b6020026020010151600001518051906020012003613a795782818151811061376f5761376f615620565b6020026020010151604001511561396957600061378d6103df612667565b9050806000036137a4576000945050505050610699565b6000670de0b6b3a76400006137b76122f0565b6001600160a01b0316636f3426da6040518163ffffffff1660e01b8152600401602060405180830381865afa1580156137f4573d6000803e3d6000fd5b505050506040513d601f19601f8201168201806040525081019061381891906154d7565b86858151811061382a5761382a615620565b6020026020010151602001516138409190615506565b61384a9190615525565b90506000613856612a32565b6001600160a01b03166304f86f3c61386c611477565b6040518263ffffffff1660e01b81526004016138889190615152565b602060405180830381865afa1580156138a5573d6000803e3d6000fd5b505050506040513d601f19601f820116820180604052508101906138c991906155ab565b6040516375719b0160e11b81523060048201526001600160a01b03919091169063eae3360290602401602060405180830381865afa15801561390f573d6000803e3d6000fd5b505050506040513d601f19601f8201168201806040525081019061393391906154d7565b9050828110613949579550610699945050505050565b61395c61395682846155fa565b846147e9565b9650505050505050610699565b82818151811061397b5761397b615620565b60200260200101516020015161398f612a32565b6001600160a01b03166304f86f3c886040518263ffffffff1660e01b81526004016139ba9190615152565b602060405180830381865afa1580156139d7573d6000803e3d6000fd5b505050506040513d601f19601f820116820180604052508101906139fb91906155ab565b6040516375719b0160e11b81523060048201526001600160a01b03919091169063eae3360290602401602060405180830381865afa158015613a41573d6000803e3d6000fd5b505050506040513d601f19601f82011682018060405250810190613a6591906154d7565b613a6f919061560d565b9350505050610699565b80613a8381615636565b915050613729565b50600095945050505050565b60005460408051635ad66a2b60e11b8152905133926201000090046001600160a01b03169163b5acd4569160048083019260209291908290030181865afa158015613ae6573d6000803e3d6000fd5b505050506040513d601f19601f82011682018060405250810190613b0a91906155ab565b6001600160a01b031614613b565760405162461bcd60e51b815260206004820152601360248201527237b7363ca9b2ba3a3632b6b2b73a27bbb732b960691b604482015260640161074e565b613b5e614a80565b613baa5760405162461bcd60e51b815260206004820152601860248201527f546f6b656e20726563616c6c206e6f7420616c6c6f7765640000000000000000604482015260640161074e565b613bb2611e8e565b613bba61402a565b565b6000600581613bcb8285615525565b90506000613bd98383615506565b613be3908661560d565b9050600083600284613bf68160016155fa565b613c009190615506565b613c0a9190615525565b613c149190615506565b90506000613c238460016155fa565b613c2d9084615506565b613c3790836155fa565b979650505050505050565b600080613cbc600360020154613c566122f0565b6001600160a01b0316637a893af56040518163ffffffff1660e01b8152600401602060405180830381865afa158015613c93573d6000803e3d6000fd5b505050506040513d601f19601f82011682018060405250810190613cb791906154d7565b6147e9565b90506000613cc8611535565b905073__$b96f6cc754b665f2373f69c32648f7914e$__63eefe4284670de0b6b3a7640000613cf78585615506565b613d019190615525565b6040516001600160e01b031960e084901b1681526004810191909152670de0b6b3a76400006024820152604401602060405180830381865af4158015613d4b573d6000803e3d6000fd5b505050506040513d601f19601f82011682018060405250810190613d6f91906154d7565b9250505090565b6000613d80611502565b6001600160a01b0316637aa873346040518163ffffffff1660e01b8152600401602060405180830381865afa158015613dbd573d6000803e3d6000fd5b505050506040513d601f19601f82011682018060405250810190613de191906154d7565b9050801580613def57508042105b613e295760405162461bcd60e51b815260206004820152600b60248201526a19d85b594818db1bdcd95960aa1b604482015260640161074e565b600054604051631b0b969d60e01b8152336004820152620100009091046001600160a01b031690631b0b969d90602401602060405180830381865afa158015613e76573d6000803e3d6000fd5b505050506040513d601f19601f82011682018060405250810190613e9a9190615547565b80613ebd5750613ea8611502565b6001600160a01b0316336001600160a01b0316145b80613f5a57506000613ecd611502565b6001600160a01b031663ebbe8034613ef16000805160206158fb8339815191525490565b6040516001600160e01b031960e084901b1681526004810191909152336024820152604401602060405180830381865afa158015613f33573d6000803e3d6000fd5b505050506040513d601f19601f82011682018060405250810190613f5791906154d7565b14155b613f765760405162461bcd60e51b815260040161074e90615569565b8615613f8657613f8688886149a2565b613f938585888686614c25565b5050505050505050565b600080613fa8611502565b6001600160a01b0316637aa873346040518163ffffffff1660e01b8152600401602060405180830381865afa158015613fe5573d6000803e3d6000fd5b505050506040513d601f19601f8201168201806040525081019061400991906154d7565b90508060000361401a574291505090565b61402442826147e9565b91505090565b6000614034611502565b6001600160a01b031663e4e940f06040518163ffffffff1660e01b8152600401602060405180830381865afa158015614071573d6000803e3d6000fd5b505050506040513d601f19601f8201168201806040525081019061409591906155ab565b6001600160a01b03166361a5d38c600c546040518263ffffffff1660e01b81526004016140c491815260200190565b600060405180830381865afa1580156140e1573d6000803e3d6000fd5b505050506040513d6000823e601f3d908101601f19168201604052614109919081019061577c565b9050614113611502565b6001600160a01b031663e4e940f06040518163ffffffff1660e01b8152600401602060405180830381865afa158015614150573d6000803e3d6000fd5b505050506040513d601f19601f8201168201806040525081019061417491906155ab565b6001600160a01b0316636a627842600060029054906101000a90046001600160a01b03166001600160a01b031663b5acd4566040518163ffffffff1660e01b8152600401602060405180830381865afa1580156141d5573d6000803e3d6000fd5b505050506040513d601f19601f820116820180604052508101906141f991906155ab565b6040516001600160e01b031960e084901b1681526001600160a01b0390911660048201526024016020604051808303816000875af115801561423f573d6000803e3d6000fd5b505050506040513d601f19601f8201168201806040525081019061426391906154d7565b600c8190556040517fe9049357477d5e079bc0d0063d21738fc5a5fb192941a2d73acdcc125f4bc1459161429891849061585c565b60405180910390a150565b806000036142af575050565b6000670de0b6b3a76400006142c26122f0565b6001600160a01b0316636f3426da6040518163ffffffff1660e01b8152600401602060405180830381865afa1580156142ff573d6000803e3d6000fd5b505050506040513d601f19601f8201168201806040525081019061432391906154d7565b61432d9084615506565b6143379190615525565b90506000614343612a32565b6001600160a01b03166304f86f3c856040518263ffffffff1660e01b815260040161436e9190615152565b602060405180830381865afa15801561438b573d6000803e3d6000fd5b505050506040513d601f19601f820116820180604052508101906143af91906155ab565b6040516375719b0160e11b81523060048201526001600160a01b03919091169063eae3360290602401602060405180830381865afa1580156143f5573d6000803e3d6000fd5b505050506040513d601f19601f8201168201806040525081019061441991906154d7565b905060006144286103df612667565b905080821061443a5760009250614458565b614444828261560d565b83111561445857614455828261560d565b92505b821561454357614466612a32565b6001600160a01b03166304f86f3c866040518263ffffffff1660e01b81526004016144919190615152565b602060405180830381865afa1580156144ae573d6000803e3d6000fd5b505050506040513d601f19601f820116820180604052508101906144d291906155ab565b6040516340c10f1960e01b8152306004820152602481018590526001600160a01b0391909116906340c10f1990604401600060405180830381600087803b15801561451c57600080fd5b505af1158015614530573d6000803e3d6000fd5b505050508284614540919061560d565b93505b831561465057600060029054906101000a90046001600160a01b03166001600160a01b03166341c525536040518163ffffffff1660e01b8152600401602060405180830381865afa15801561459c573d6000803e3d6000fd5b505050506040513d601f19601f820116820180604052508101906145c091906155ab565b6000546001600160a01b039182169163bcbd6fb991620100009004166145e4611477565b876040518463ffffffff1660e01b8152600401614603939291906155c8565b600060405180830381600087803b15801561461d57600080fd5b505af1158015614631573d6000803e3d6000fd5b50505050836009600201600082825461464a91906155fa565b90915550505b5050505050565b600080614662613648565b905060001960005b8251811015611e875782818151811061468557614685615620565b6020026020010151604001516147d757600061469f612a32565b6001600160a01b03166304f86f3c8584815181106146bf576146bf615620565b6020026020010151600001516040518263ffffffff1660e01b81526004016146e79190615152565b602060405180830381865afa158015614704573d6000803e3d6000fd5b505050506040513d601f19601f8201168201806040525081019061472891906155ab565b6040516375719b0160e11b81523060048201526001600160a01b03919091169063eae3360290602401602060405180830381865afa15801561476e573d6000803e3d6000fd5b505050506040513d601f19601f8201168201806040525081019061479291906154d7565b9050806000036147a757600094505050505090565b6147d38483815181106147bc576147bc615620565b602002602001015160200151826139569190615525565b9250505b806147e181615636565b91505061466a565b60008183106147f857816147fa565b825b9392505050565b60008061480e848461560d565b9050600061481a6122f0565b6001600160a01b031663657f17fd6040518163ffffffff1660e01b8152600401602060405180830381865afa158015614857573d6000803e3d6000fd5b505050506040513d601f19601f8201168201806040525081019061487b91906154d7565b61488d90670de0b6b3a7640000615525565b6148979083615525565b9050670de0b6b3a7640000816148ab614cc7565b6148b59190615506565b6148bf9190615525565b95945050505050565b60008383116148d9575060006147fa565b60006148e5858561560d565b905060006148f1614e59565b905060006148fd6122f0565b6001600160a01b031663657f17fd6040518163ffffffff1660e01b8152600401602060405180830381865afa15801561493a573d6000803e3d6000fd5b505050506040513d601f19601f8201168201806040525081019061495e91906154d7565b61497090670de0b6b3a7640000615525565b61497a9084615525565b9050613c37670de0b6b3a76400006149928484615506565b61499c9190615525565b866147e9565b6149aa612a32565b6001600160a01b031663cabb62f06040518163ffffffff1660e01b8152600401602060405180830381865afa1580156149e7573d6000803e3d6000fd5b505050506040513d601f19601f82011682018060405250810190614a0b91906155ab565b60405163a9059cbb60e01b81526001600160a01b03848116600483015260248201849052919091169063a9059cbb906044016020604051808303816000875af1158015614a5c573d6000803e3d6000fd5b505050506040513d601f19601f820116820180604052508101906114729190615547565b600080614a8e6103df612667565b90506000614a9a611477565b90508051600003614aae5760009250505090565b6000670de0b6b3a7640000614ac16122f0565b6001600160a01b03166368e35ca06040518163ffffffff1660e01b8152600401602060405180830381865afa158015614afe573d6000803e3d6000fd5b505050506040513d601f19601f82011682018060405250810190614b2291906154d7565b614b2c9085615506565b614b369190615525565b90506000614b42612a32565b6001600160a01b03166304f86f3c846040518263ffffffff1660e01b8152600401614b6d9190615152565b602060405180830381865afa158015614b8a573d6000803e3d6000fd5b505050506040513d601f19601f82011682018060405250810190614bae91906155ab565b6040516370a0823160e01b81523060048201526001600160a01b0391909116906370a0823190602401602060405180830381865afa158015614bf4573d6000803e3d6000fd5b505050506040513d601f19601f82011682018060405250810190614c1891906154d7565b9190911115949350505050565b60005b84811015614cbf57614cad868683818110614c4557614c45615620565b9050602002810190614c5791906158b3565b8080601f01602080910402602001604051908101604052809392919081815260200183838082843760009201919091525088925087915086905085818110614ca157614ca1615620565b90506020020135614eeb565b80614cb781615636565b915050614c28565b505050505050565b600080614cd2610cfe565b9050670de0b6b3a7640000614ce56122f0565b6001600160a01b031663781e0efe6040518163ffffffff1660e01b8152600401602060405180830381865afa158015614d22573d6000803e3d6000fd5b505050506040513d601f19601f82011682018060405250810190614d4691906154d7565b614d4e6122f0565b6001600160a01b031663265d3f50846040518263ffffffff1660e01b8152600401614d799190615152565b602060405180830381865afa158015614d96573d6000803e3d6000fd5b505050506040513d601f19601f82011682018060405250810190614dba91906154d7565b614dc26122f0565b6001600160a01b031663dd77e3c7856040518263ffffffff1660e01b8152600401614ded9190615152565b602060405180830381865afa158015614e0a573d6000803e3d6000fd5b505050506040513d601f19601f82011682018060405250810190614e2e91906154d7565b600254614e3b9190615506565b614e459190615506565b614e4f9190615506565b6140249190615525565b600080614e64613c42565b614e6c613573565b614e7691906155fa565b9050614e806122f0565b6001600160a01b031663781e0efe6040518163ffffffff1660e01b8152600401602060405180830381865afa158015614ebd573d6000803e3d6000fd5b505050506040513d601f19601f82011682018060405250810190614ee191906154d7565b6140249082615506565b614ef36110d1565b6000614efd612a32565b6001600160a01b03166304f86f3c856040518263ffffffff1660e01b8152600401614f289190615152565b602060405180830381865afa158015614f45573d6000803e3d6000fd5b505050506040513d601f19601f82011682018060405250810190614f6991906155ab565b6040516370a0823160e01b81523060048201529091506000906001600160a01b038316906370a0823190602401602060405180830381865afa158015614fb3573d6000803e3d6000fd5b505050506040513d601f19601f82011682018060405250810190614fd791906154d7565b905080600003614fe8575050505050565b80831115614ff4578092505b614ffc611477565b8051906020012085805190602001200361504557600061501d6103df612667565b905060008183111561503657615033828461560d565b90505b80851115615042578094505b50505b82156146505760405163a9059cbb60e01b81526001600160a01b0385811660048301526024820185905283169063a9059cbb906044016020604051808303816000875af115801561509a573d6000803e3d6000fd5b505050506040513d601f19601f82011682018060405250810190614cbf9190615547565b6000602082840312156150d057600080fd5b5035919050565b6001600160a01b03811681146150ec57600080fd5b50565b60006020828403121561510157600080fd5b81356147fa816150d7565b6000815180845260005b8181101561513257602081850181015186830182015201615116565b506000602082860101526020601f19601f83011685010191505092915050565b6020815260006147fa602083018461510c565b60008060006060848603121561517a57600080fd5b8335615185816150d7565b92506020840135615195816150d7565b929592945050506040919091013590565b600080604083850312156151b957600080fd5b82356151c4816150d7565b946020939093013593505050565b60008151606084526151e7606085018261510c565b9050602083015160208501526040830151151560408501528091505092915050565b6000602080830181845280855180835260408601915060408160051b870101925083870160005b82811015612a2557603f1988860301845261524c8583516151d2565b94509285019290850190600101615230565b634e487b7160e01b600052604160045260246000fd5b604051601f8201601f1916810167ffffffffffffffff8111828210171561529d5761529d61525e565b604052919050565b600082601f8301126152b657600080fd5b813567ffffffffffffffff8111156152d0576152d061525e565b6152e3601f8201601f1916602001615274565b8181528460208386010111156152f857600080fd5b816020850160208301376000918101602001919091529392505050565b60006020828403121561532757600080fd5b813567ffffffffffffffff81111561533e57600080fd5b61534a848285016152a5565b949350505050565b6000602080830181845280855180835260408601915060408160051b870101925083870160005b82811015612a2557603f198886030184526153958583516151d2565b94509285019290850190600101615379565b600080604083850312156153ba57600080fd5b823567ffffffffffffffff8111156153d157600080fd5b6153dd858286016152a5565b95602094909401359450505050565b60008083601f8401126153fe57600080fd5b50813567ffffffffffffffff81111561541657600080fd5b6020830191508360208260051b850101111561543157600080fd5b9250929050565b600080600080600080600060a0888a03121561545357600080fd5b873561545e816150d7565b9650602088013595506040880135615475816150d7565b9450606088013567ffffffffffffffff8082111561549257600080fd5b61549e8b838c016153ec565b909650945060808a01359150808211156154b757600080fd5b506154c48a828b016153ec565b989b979a50959850939692959293505050565b6000602082840312156154e957600080fd5b5051919050565b634e487b7160e01b600052601160045260246000fd5b6000816000190483118215151615615520576155206154f0565b500290565b60008261554257634e487b7160e01b600052601260045260246000fd5b500490565b60006020828403121561555957600080fd5b815180151581146147fa57600080fd5b60208082526022908201527f6f6e6c7952756c65724f72576f726c64417373657446726f6d53616d6545706f6040820152610c6d60f31b606082015260800190565b6000602082840312156155bd57600080fd5b81516147fa816150d7565b6001600160a01b03841681526060602082015260006155ea606083018561510c565b9050826040830152949350505050565b80820180821115610699576106996154f0565b81810381811115610699576106996154f0565b634e487b7160e01b600052603260045260246000fd5b600060018201615648576156486154f0565b5060010190565b600181815b8085111561568a578160001904821115615670576156706154f0565b8085161561567d57918102915b93841c9390800290615654565b509250929050565b6000826156a157506001610699565b816156ae57506000610699565b81600181146156c457600281146156ce576156ea565b6001915050610699565b60ff8411156156df576156df6154f0565b50506001821b610699565b5060208310610133831016604e8410600b841016171561570d575081810a610699565b615717838361564f565b806000190482111561572b5761572b6154f0565b029392505050565b60006147fa60ff841683615692565b600181811c9082168061575657607f821691505b60208210810361577657634e487b7160e01b600052602260045260246000fd5b50919050565b6000602080838503121561578f57600080fd5b825167ffffffffffffffff808211156157a757600080fd5b818501915085601f8301126157bb57600080fd5b8151818111156157cd576157cd61525e565b8060051b91506157de848301615274565b81815291830184019184810190888411156157f857600080fd5b938501935b838510156158225784519250615812836150d7565b82825293850193908501906157fd565b98975050505050505050565b606081526000615841606083018661510c565b6001600160a01b039490941660208301525060400152919050565b6000604082018483526020604081850152818551808452606086019150828701935060005b818110156158a65784516001600160a01b031683529383019391830191600101615881565b5090979650505050505050565b6000808335601e198436030181126158ca57600080fd5b83018035915067ffffffffffffffff8211156158e557600080fd5b60200191503681900382131561543157600080fdfe6c85b93e587873fbe6712f3b438d42c2945689b262f7bd34b8ea4e3f832a89e7a26469706673582212208b052c0764b9dfcf42255ab07fa5c66e9125a4d5fb8adb2ad135c3a7603c03a264736f6c63430008100033",
  "libraries": {
    "MathExtension": "0x14CEC82DA1FF11B4d01fD6E078f83781037dfa90"
  },
  "devdoc": {
    "kind": "dev",
    "methods": {
      "assetGroup()": {
        "details": "Reads data from proxy's storage",
        "returns": {
          "_0": "World asset group"
        }
      },
      "assetType()": {
        "details": "Reads data from proxy's storage",
        "returns": {
          "_0": "World asset type"
        }
      },
      "buildingName()": {
        "details": "Same value as #assetName",
        "returns": {
          "_0": "Building name"
        }
      },
      "burnTreasury(uint256)": {
        "details": "Can be called by world asset or building owner",
        "params": {
          "amount": "Amount of resources to burn from treasury"
        }
      },
      "decreaseAdditionalWorkersCapacityMultiplier(uint256)": {
        "details": "Even though function is opened, it can be called only by world asset",
        "params": {
          "capacityAmount": "Capacity amount"
        }
      },
      "distributeToAllShareholders()": {
        "details": "Useful to get full produced resources to all shareholders"
      },
      "distributeToSingleShareholder(address)": {
        "details": "Useful to taking part of the resource from the building for single shareholder (to not pay gas for minting for all shareholders)",
        "params": {
          "holder": "Holder"
        }
      },
      "epoch()": {
        "details": "Value is dereferenced from proxy storage and world"
      },
      "epochNumber()": {
        "details": "Reads data from proxy's storage",
        "returns": {
          "_0": "Epoch number"
        }
      },
      "fixDebtAccordingToNewDistributionsAmounts(address,address,uint256)": {
        "details": "Even though function is opened, it can be called only by distributions",
        "params": {
          "amount": "Amount",
          "from": "From address",
          "to": "To address"
        }
      },
      "getAdditionalWorkersFromAdditionalWorkersCapacityMultiplier()": {
        "details": "Return value based on current advancedProduction.additionalWorkersCapacityMultiplier"
      },
      "getAdvancedUpgradeCooldownDuration(uint256)": {
        "details": "If level=1 then returned value will be duration which is taken for upgrading from 1 to 2 level",
        "params": {
          "level": "At which level calculate upgrade duration"
        },
        "returns": {
          "_0": "Upgrade cooldown duration"
        }
      },
      "getBasicUpgradeCooldownDuration(uint256)": {
        "details": "If level=1 then returned value will be duration which is taken for upgrading from 1 to 2 level",
        "params": {
          "level": "At which level calculate upgrade duration"
        },
        "returns": {
          "_0": "Upgrade cooldown duration"
        }
      },
      "getBuildingCoefficient(uint256)": {
        "details": "Used to determine max treasury amount and new production coefficients",
        "params": {
          "level": "Building level"
        },
        "returns": {
          "_0": "Building coefficient"
        }
      },
      "getBuildingLevel()": {
        "details": "Takes into an account if upgrades are finished or not",
        "returns": {
          "_0": "Current building level"
        }
      },
      "getConfig()": {
        "details": "Main config that determines which resources is produced/spend by production of this buildingInitialResourceBlock.perTick is value how much of resource is spend/produced by 1 worker in 1 second of production",
        "returns": {
          "initialResourceBlocks": "Production config for current building"
        }
      },
      "getMaxAvailableForAdvancedProductionWorkers()": {
        "details": "Difference between getMaxWorkers() and getAdditionalWorkersFromAdditionalWorkersCapacityMultiplier()"
      },
      "getMaxTreasuryByLevel(uint256)": {
        "details": "Can be used to determine maximum amount of treasury by any level",
        "params": {
          "level": "Building level",
          "maxTreasury": "Maximum amount of treasury"
        }
      },
      "getMaxWorkers()": {
        "details": "Useful to determinate maximum amount of workers",
        "returns": {
          "_0": "Maximum amount of workers"
        }
      },
      "getProducingResourceName()": {
        "details": "Return value is value from #getConfig where 'isProduced'=true",
        "returns": {
          "_0": "Name of producing resource"
        }
      },
      "getProductionResult(uint256)": {
        "details": "Useful for determination how much of all production will be burned/produced at the specific time",
        "params": {
          "timestamp": "Time at which calculate amount of resources in building. If timestamp=0 -> calculates as block.timestamp"
        },
        "returns": {
          "_0": "Production resources changes at provided time"
        }
      },
      "getResourcesAmount(string,uint256)": {
        "details": "Useful for determination how much of production resource (either producing and spending) at the specific time",
        "params": {
          "resourceName": "Name of resource related to production",
          "timestamp": "Time at which calculate amount of resources in building. If timestamp=0 -> calculates as block.timestamp"
        },
        "returns": {
          "_0": "Real amount of provided resource in building related to its production at provided time"
        }
      },
      "getTreasury(uint256)": {
        "details": "Useful for determination how much treasury will be at specific time",
        "params": {
          "timestamp": "Time at which calculate amount of treasury in building. If timestamp=0 -> calculates as block.timestamp"
        },
        "returns": {
          "_0": "Treasury amount at specified time"
        }
      },
      "getUpgradePrice(uint256)": {
        "details": "Useful for determination how much upgrade will cost at any level",
        "params": {
          "level": "Level at which calculate price"
        },
        "returns": {
          "_0": "Amount of resources needed for upgrade"
        }
      },
      "getWorkers()": {
        "details": "Same as workers.balanceOf(buildingAddress)",
        "returns": {
          "_0": "Amount of workers currently sitting in this building"
        }
      },
      "increaseAdditionalWorkersCapacityMultiplier(uint256)": {
        "details": "Even though function is opened, it can be called only by world asset",
        "params": {
          "capacityAmount": "Capacity amount"
        }
      },
      "init(address)": {
        "details": "Called by factory contract which creates current instance",
        "params": {
          "settlementAddress": "Settlement address"
        }
      },
      "isResourceAcceptable(string)": {
        "details": "Return value based on #getConfig",
        "params": {
          "resourceName": "Name of resource"
        },
        "returns": {
          "_0": "Is building can accept resource"
        }
      },
      "productionResourcesChanged()": {
        "details": "Even though function is opened, it is auto-called by transfer method. Standalone calls provide 0 impact."
      },
      "registry()": {
        "details": "Value is dereferenced from world"
      },
      "removeResourcesAndWorkers(address,uint256,address,string[],uint256[])": {
        "details": "Removes resources+workers from building in single transaction",
        "params": {
          "resourceTypes": "Resource types",
          "resourcesAmounts": "Resources amounts",
          "resourcesReceiverAddress": "Resources receiver address",
          "workersAmount": "Workers amount (in 1e18 precision)",
          "workersReceiverAddress": "Workers receiver address (building or settlement)"
        }
      },
      "resetDistribution()": {
        "details": "Creates new distribution Nft and mints it to current settlement owner"
      },
      "startAdvancedUpgrade(address)": {
        "details": "Resources required for upgrade will be taken either from msg.sender or resourcesOwner (if resource.allowance allows it)If resourcesOwner == address(0) -> resources will be taken from msg.senderIf resourcesOwner != address(0) and resourcesOwner has given allowance to msg.sender >= upgradePrice -> resources will be taken from resourcesOwner",
        "params": {
          "resourcesOwner": "Resources owner"
        }
      },
      "startBasicUpgrade(address)": {
        "details": "Resources required for upgrade will be taken either from msg.sender or resourcesOwner (if resource.allowance allows it)If resourcesOwner == address(0) -> resources will be taken from msg.senderIf resourcesOwner != address(0) and resourcesOwner has given allowance to msg.sender >= upgradePrice -> resources will be taken from resourcesOwner",
        "params": {
          "resourcesOwner": "Resources owner"
        }
      },
      "stealTreasury(address,uint256)": {
        "details": "Called by siege or building owner, in either case part of resources will be burned according to #registry.getRobberyFee",
        "params": {
          "amount": "Amount of resources to steal, 'to' will get only part of specified 'amount', some percent of specified 'amount' will be burned",
          "to": "An address which will get resources"
        },
        "returns": {
          "_0": "Real amount of resources from which stealing occurred (min(amount, treasury))"
        }
      },
      "updateState()": {
        "details": "Updates building production minting treasury and increasing #production.readyToBeDistributed"
      },
      "world()": {
        "details": "Value is dereferenced from proxy storage"
      }
    },
    "version": 1
  },
  "userdoc": {
    "events": {
      "DistributedToShareHolder(string,address,uint256)": {
        "notice": "Emitted when #distribute is called. When resources from production are distributed to building token holders. Will be deprecated in favor of ERC20 transfer event."
      },
      "NewDistribution(uint256,address[])": {
        "notice": "Emitted when #setDefaultDistribution is called"
      },
      "UpgradeFinish(uint256)": {
        "notice": "Emitted when #startBasicUpgrade or #startAdvancedUpgrade is called"
      }
    },
    "kind": "user",
    "methods": {
      "advancedProduction()": {
        "notice": "Advanced production"
      },
      "assetGroup()": {
        "notice": "Returns world asset group"
      },
      "assetType()": {
        "notice": "Returns world asset type"
      },
      "basicProduction()": {
        "notice": "Basic production"
      },
      "buildingName()": {
        "notice": "Returns building name"
      },
      "burnTreasury(uint256)": {
        "notice": "Burns building treasury"
      },
      "currentSettlement()": {
        "notice": "Settlement address to which this building belongs"
      },
      "decreaseAdditionalWorkersCapacityMultiplier(uint256)": {
        "notice": "Decreases additional workers capacity multiplier"
      },
      "distributeToAllShareholders()": {
        "notice": "Distributes produces resource to all shareholders"
      },
      "distributeToSingleShareholder(address)": {
        "notice": "Distributes produced resource to single shareholder"
      },
      "distributionId()": {
        "notice": "Distribution id"
      },
      "epoch()": {
        "notice": "Epoch"
      },
      "epochNumber()": {
        "notice": "Returns epoch number"
      },
      "fixDebtAccordingToNewDistributionsAmounts(address,address,uint256)": {
        "notice": "Fixes debt from shareholder whenever its share part changes"
      },
      "getAdditionalWorkersFromAdditionalWorkersCapacityMultiplier()": {
        "notice": "Calculates additional workers 'granted' from capacity multiplier"
      },
      "getAdvancedUpgradeCooldownDuration(uint256)": {
        "notice": "Calculates advanced upgrade duration for provided level"
      },
      "getBasicUpgradeCooldownDuration(uint256)": {
        "notice": "Calculates basic upgrade duration for provided level"
      },
      "getBuildingCoefficient(uint256)": {
        "notice": "Calculates building coefficient by provided level"
      },
      "getBuildingLevel()": {
        "notice": "Calculates current level"
      },
      "getConfig()": {
        "notice": "Returns production config for current building"
      },
      "getMaxAvailableForAdvancedProductionWorkers()": {
        "notice": "Calculates max available for advanced production workers"
      },
      "getMaxTreasuryByLevel(uint256)": {
        "notice": "Calculates maximum amount of treasury by provided level"
      },
      "getMaxWorkers()": {
        "notice": "Calculates maximum amount of workers"
      },
      "getProducingResourceName()": {
        "notice": "Calculates producing resource name for this building"
      },
      "getProductionResult(uint256)": {
        "notice": "Calculates production resources changes at provided time"
      },
      "getResourcesAmount(string,uint256)": {
        "notice": "Calculates real amount of provided resource in building related to its production at provided time"
      },
      "getTreasury(uint256)": {
        "notice": "Calculates treasury amount at specified time"
      },
      "getUpgradePrice(uint256)": {
        "notice": "Calculates upgrade price by provided level"
      },
      "getWorkers()": {
        "notice": "Calculates amount of workers currently sitting in this building"
      },
      "increaseAdditionalWorkersCapacityMultiplier(uint256)": {
        "notice": "Increases additional workers capacity multiplier"
      },
      "init(address)": {
        "notice": "Proxy initializer"
      },
      "isResourceAcceptable(string)": {
        "notice": "Calculates if building is capable to accept resource"
      },
      "producedResourceDebt(address)": {
        "notice": "Produced resource debt"
      },
      "production()": {
        "notice": "Contains current production state of the building"
      },
      "productionResourcesChanged()": {
        "notice": "Callback which recalculates production. Called when resources related to production of this building is transferred from/to this building"
      },
      "prosperity()": {
        "notice": "Buildings prosperity"
      },
      "registry()": {
        "notice": "Registry"
      },
      "removeResourcesAndWorkers(address,uint256,address,string[],uint256[])": {
        "notice": "Transfers game resources and workers from building to provided addresses"
      },
      "resetDistribution()": {
        "notice": "Resets current building distribution"
      },
      "startAdvancedUpgrade(address)": {
        "notice": "Starts advanced building upgrade"
      },
      "startBasicUpgrade(address)": {
        "notice": "Starts basic building upgrade"
      },
      "stealTreasury(address,uint256)": {
        "notice": "Steals resources from treasury"
      },
      "updateState()": {
        "notice": "Updates state of this building up to block.timestamp"
      },
      "upgradeCooldownFinishTime()": {
        "notice": "Upgrade cooldown finish time"
      },
      "world()": {
        "notice": "World"
      }
    },
    "version": 1
  },
  "storageLayout": {
    "storage": [
      {
        "astId": 119,
        "contract": "contracts/core/assets/building/impl/Farm.sol:Farm",
        "label": "_initialized",
        "offset": 0,
        "slot": "0",
        "type": "t_uint8"
      },
      {
        "astId": 122,
        "contract": "contracts/core/assets/building/impl/Farm.sol:Farm",
        "label": "_initializing",
        "offset": 1,
        "slot": "0",
        "type": "t_bool"
      },
      {
        "astId": 14705,
        "contract": "contracts/core/assets/building/impl/Farm.sol:Farm",
        "label": "currentSettlement",
        "offset": 2,
        "slot": "0",
        "type": "t_contract(ISettlement)20787"
      },
      {
        "astId": 14710,
        "contract": "contracts/core/assets/building/impl/Farm.sol:Farm",
        "label": "basicProduction",
        "offset": 0,
        "slot": "1",
        "type": "t_struct(BasicProduction)17315_storage"
      },
      {
        "astId": 14715,
        "contract": "contracts/core/assets/building/impl/Farm.sol:Farm",
        "label": "advancedProduction",
        "offset": 0,
        "slot": "3",
        "type": "t_struct(AdvancedProduction)17324_storage"
      },
      {
        "astId": 14719,
        "contract": "contracts/core/assets/building/impl/Farm.sol:Farm",
        "label": "upgradeCooldownFinishTime",
        "offset": 0,
        "slot": "7",
        "type": "t_uint256"
      },
      {
        "astId": 14723,
        "contract": "contracts/core/assets/building/impl/Farm.sol:Farm",
        "label": "prosperity",
        "offset": 0,
        "slot": "8",
        "type": "t_uint256"
      },
      {
        "astId": 14728,
        "contract": "contracts/core/assets/building/impl/Farm.sol:Farm",
        "label": "production",
        "offset": 0,
        "slot": "9",
        "type": "t_struct(Production)17331_storage"
      },
      {
        "astId": 14732,
        "contract": "contracts/core/assets/building/impl/Farm.sol:Farm",
        "label": "distributionId",
        "offset": 0,
        "slot": "12",
        "type": "t_uint256"
      },
      {
        "astId": 14738,
        "contract": "contracts/core/assets/building/impl/Farm.sol:Farm",
        "label": "producedResourceDebt",
        "offset": 0,
        "slot": "13",
        "type": "t_mapping(t_address,t_uint256)"
      }
    ],
    "types": {
      "t_address": {
        "encoding": "inplace",
        "label": "address",
        "numberOfBytes": "20"
      },
      "t_bool": {
        "encoding": "inplace",
        "label": "bool",
        "numberOfBytes": "1"
      },
      "t_contract(ISettlement)20787": {
        "encoding": "inplace",
        "label": "contract ISettlement",
        "numberOfBytes": "20"
      },
      "t_mapping(t_address,t_uint256)": {
        "encoding": "mapping",
        "key": "t_address",
        "label": "mapping(address => uint256)",
        "numberOfBytes": "32",
        "value": "t_uint256"
      },
      "t_struct(AdvancedProduction)17324_storage": {
        "encoding": "inplace",
        "label": "struct IBuilding.AdvancedProduction",
        "members": [
          {
            "astId": 17317,
            "contract": "contracts/core/assets/building/impl/Farm.sol:Farm",
            "label": "level",
            "offset": 0,
            "slot": "0",
            "type": "t_uint256"
          },
          {
            "astId": 17319,
            "contract": "contracts/core/assets/building/impl/Farm.sol:Farm",
            "label": "coefficient",
            "offset": 0,
            "slot": "1",
            "type": "t_uint256"
          },
          {
            "astId": 17321,
            "contract": "contracts/core/assets/building/impl/Farm.sol:Farm",
            "label": "additionalWorkersCapacityMultiplier",
            "offset": 0,
            "slot": "2",
            "type": "t_uint256"
          },
          {
            "astId": 17323,
            "contract": "contracts/core/assets/building/impl/Farm.sol:Farm",
            "label": "toBeProducedTicks",
            "offset": 0,
            "slot": "3",
            "type": "t_uint256"
          }
        ],
        "numberOfBytes": "128"
      },
      "t_struct(BasicProduction)17315_storage": {
        "encoding": "inplace",
        "label": "struct IBuilding.BasicProduction",
        "members": [
          {
            "astId": 17312,
            "contract": "contracts/core/assets/building/impl/Farm.sol:Farm",
            "label": "level",
            "offset": 0,
            "slot": "0",
            "type": "t_uint256"
          },
          {
            "astId": 17314,
            "contract": "contracts/core/assets/building/impl/Farm.sol:Farm",
            "label": "coefficient",
            "offset": 0,
            "slot": "1",
            "type": "t_uint256"
          }
        ],
        "numberOfBytes": "64"
      },
      "t_struct(Production)17331_storage": {
        "encoding": "inplace",
        "label": "struct IBuilding.Production",
        "members": [
          {
            "astId": 17326,
            "contract": "contracts/core/assets/building/impl/Farm.sol:Farm",
            "label": "lastUpdateStateTime",
            "offset": 0,
            "slot": "0",
            "type": "t_uint256"
          },
          {
            "astId": 17328,
            "contract": "contracts/core/assets/building/impl/Farm.sol:Farm",
            "label": "lastUpdateStateZoneTime",
            "offset": 0,
            "slot": "1",
            "type": "t_uint256"
          },
          {
            "astId": 17330,
            "contract": "contracts/core/assets/building/impl/Farm.sol:Farm",
            "label": "readyToBeDistributed",
            "offset": 0,
            "slot": "2",
            "type": "t_uint256"
          }
        ],
        "numberOfBytes": "96"
      },
      "t_uint256": {
        "encoding": "inplace",
        "label": "uint256",
        "numberOfBytes": "32"
      },
      "t_uint8": {
        "encoding": "inplace",
        "label": "uint8",
        "numberOfBytes": "1"
      }
    }
  }
}