{
  "address": "0x9324458f84CF2A426BAa5FE512300dFcD7013F5F",
  "abi": [
    {
      "inputs": [
        {
          "internalType": "string",
          "name": "name_",
          "type": "string"
        },
        {
          "internalType": "string",
          "name": "symbol_",
          "type": "string"
        },
        {
          "internalType": "string",
          "name": "uri_",
          "type": "string"
        }
      ],
      "stateMutability": "nonpayable",
      "type": "constructor"
    },
    {
      "anonymous": false,
      "inputs": [
        {
          "indexed": true,
          "internalType": "address",
          "name": "owner",
          "type": "address"
        },
        {
          "indexed": true,
          "internalType": "address",
          "name": "approved",
          "type": "address"
        },
        {
          "indexed": true,
          "internalType": "uint256",
          "name": "tokenId",
          "type": "uint256"
        }
      ],
      "name": "Approval",
      "type": "event"
    },
    {
      "anonymous": false,
      "inputs": [
        {
          "indexed": true,
          "internalType": "address",
          "name": "owner",
          "type": "address"
        },
        {
          "indexed": true,
          "internalType": "address",
          "name": "operator",
          "type": "address"
        },
        {
          "indexed": false,
          "internalType": "bool",
          "name": "approved",
          "type": "bool"
        }
      ],
      "name": "ApprovalForAll",
      "type": "event"
    },
    {
      "anonymous": false,
      "inputs": [
        {
          "indexed": false,
          "internalType": "uint256",
          "name": "tokenIndex",
          "type": "uint256"
        },
        {
          "indexed": false,
          "internalType": "string",
          "name": "name",
          "type": "string"
        },
        {
          "components": [
            {
              "internalType": "address",
              "name": "addr",
              "type": "address"
            },
            {
              "internalType": "uint256",
              "name": "id",
              "type": "uint256"
            }
          ],
          "indexed": false,
          "internalType": "struct Banners.Part[16]",
          "name": "parts",
          "type": "tuple[16]"
        },
        {
          "indexed": false,
          "internalType": "bytes",
          "name": "data",
          "type": "bytes"
        }
      ],
      "name": "BannerUpdated",
      "type": "event"
    },
    {
      "anonymous": false,
      "inputs": [
        {
          "indexed": false,
          "internalType": "uint256",
          "name": "tokenIndex",
          "type": "uint256"
        },
        {
          "indexed": false,
          "internalType": "string",
          "name": "name",
          "type": "string"
        },
        {
          "components": [
            {
              "internalType": "address",
              "name": "addr",
              "type": "address"
            },
            {
              "internalType": "uint256",
              "name": "id",
              "type": "uint256"
            }
          ],
          "indexed": false,
          "internalType": "struct Banners.Part[16]",
          "name": "parts",
          "type": "tuple[16]"
        },
        {
          "indexed": false,
          "internalType": "bytes",
          "name": "data",
          "type": "bytes"
        }
      ],
      "name": "NewBanner",
      "type": "event"
    },
    {
      "anonymous": false,
      "inputs": [
        {
          "indexed": true,
          "internalType": "address",
          "name": "previousOwner",
          "type": "address"
        },
        {
          "indexed": true,
          "internalType": "address",
          "name": "newOwner",
          "type": "address"
        }
      ],
      "name": "OwnershipTransferred",
      "type": "event"
    },
    {
      "anonymous": false,
      "inputs": [
        {
          "indexed": true,
          "internalType": "address",
          "name": "from",
          "type": "address"
        },
        {
          "indexed": true,
          "internalType": "address",
          "name": "to",
          "type": "address"
        },
        {
          "indexed": true,
          "internalType": "uint256",
          "name": "tokenId",
          "type": "uint256"
        }
      ],
      "name": "Transfer",
      "type": "event"
    },
    {
      "inputs": [
        {
          "internalType": "address",
          "name": "to",
          "type": "address"
        },
        {
          "internalType": "uint256",
          "name": "tokenId",
          "type": "uint256"
        }
      ],
      "name": "approve",
      "outputs": [],
      "stateMutability": "nonpayable",
      "type": "function"
    },
    {
      "inputs": [
        {
          "internalType": "address",
          "name": "owner",
          "type": "address"
        }
      ],
      "name": "balanceOf",
      "outputs": [
        {
          "internalType": "uint256",
          "name": "",
          "type": "uint256"
        }
      ],
      "stateMutability": "view",
      "type": "function"
    },
    {
      "inputs": [
        {
          "internalType": "uint256",
          "name": "",
          "type": "uint256"
        }
      ],
      "name": "bannerData",
      "outputs": [
        {
          "internalType": "string",
          "name": "name",
          "type": "string"
        },
        {
          "internalType": "bytes",
          "name": "data",
          "type": "bytes"
        }
      ],
      "stateMutability": "view",
      "type": "function"
    },
    {
      "inputs": [],
      "name": "baseURI",
      "outputs": [
        {
          "internalType": "string",
          "name": "",
          "type": "string"
        }
      ],
      "stateMutability": "view",
      "type": "function"
    },
    {
      "inputs": [
        {
          "internalType": "uint256",
          "name": "tokenId",
          "type": "uint256"
        }
      ],
      "name": "getApproved",
      "outputs": [
        {
          "internalType": "address",
          "name": "",
          "type": "address"
        }
      ],
      "stateMutability": "view",
      "type": "function"
    },
    {
      "inputs": [
        {
          "internalType": "uint256",
          "name": "tokenIndex",
          "type": "uint256"
        }
      ],
      "name": "getBannerData",
      "outputs": [
        {
          "internalType": "string",
          "name": "name",
          "type": "string"
        },
        {
          "components": [
            {
              "internalType": "address",
              "name": "addr",
              "type": "address"
            },
            {
              "internalType": "uint256",
              "name": "id",
              "type": "uint256"
            }
          ],
          "internalType": "struct Banners.Part[16]",
          "name": "parts",
          "type": "tuple[16]"
        },
        {
          "internalType": "bytes",
          "name": "data",
          "type": "bytes"
        }
      ],
      "stateMutability": "view",
      "type": "function"
    },
    {
      "inputs": [
        {
          "internalType": "address",
          "name": "holderAddress",
          "type": "address"
        }
      ],
      "name": "getBannerDataByUserBatch",
      "outputs": [
        {
          "internalType": "uint256[]",
          "name": "tokenIds",
          "type": "uint256[]"
        },
        {
          "components": [
            {
              "internalType": "string",
              "name": "name",
              "type": "string"
            },
            {
              "components": [
                {
                  "internalType": "address",
                  "name": "addr",
                  "type": "address"
                },
                {
                  "internalType": "uint256",
                  "name": "id",
                  "type": "uint256"
                }
              ],
              "internalType": "struct Banners.Part[16]",
              "name": "parts",
              "type": "tuple[16]"
            },
            {
              "internalType": "bytes",
              "name": "data",
              "type": "bytes"
            }
          ],
          "internalType": "struct Banners.BannerData[]",
          "name": "bannersData",
          "type": "tuple[]"
        }
      ],
      "stateMutability": "view",
      "type": "function"
    },
    {
      "inputs": [
        {
          "internalType": "address",
          "name": "owner",
          "type": "address"
        },
        {
          "internalType": "address",
          "name": "operator",
          "type": "address"
        }
      ],
      "name": "isApprovedForAll",
      "outputs": [
        {
          "internalType": "bool",
          "name": "",
          "type": "bool"
        }
      ],
      "stateMutability": "view",
      "type": "function"
    },
    {
      "inputs": [],
      "name": "lastTokenId",
      "outputs": [
        {
          "internalType": "uint256",
          "name": "",
          "type": "uint256"
        }
      ],
      "stateMutability": "view",
      "type": "function"
    },
    {
      "inputs": [
        {
          "internalType": "string",
          "name": "name",
          "type": "string"
        },
        {
          "components": [
            {
              "internalType": "address",
              "name": "addr",
              "type": "address"
            },
            {
              "internalType": "uint256",
              "name": "id",
              "type": "uint256"
            }
          ],
          "internalType": "struct Banners.Part[16]",
          "name": "parts",
          "type": "tuple[16]"
        },
        {
          "internalType": "bytes",
          "name": "data",
          "type": "bytes"
        }
      ],
      "name": "mint",
      "outputs": [],
      "stateMutability": "nonpayable",
      "type": "function"
    },
    {
      "inputs": [],
      "name": "name",
      "outputs": [
        {
          "internalType": "string",
          "name": "",
          "type": "string"
        }
      ],
      "stateMutability": "view",
      "type": "function"
    },
    {
      "inputs": [
        {
          "internalType": "address",
          "name": "operator",
          "type": "address"
        },
        {
          "internalType": "address",
          "name": "from",
          "type": "address"
        },
        {
          "internalType": "uint256[]",
          "name": "ids",
          "type": "uint256[]"
        },
        {
          "internalType": "uint256[]",
          "name": "values",
          "type": "uint256[]"
        },
        {
          "internalType": "bytes",
          "name": "data",
          "type": "bytes"
        }
      ],
      "name": "onERC1155BatchReceived",
      "outputs": [
        {
          "internalType": "bytes4",
          "name": "",
          "type": "bytes4"
        }
      ],
      "stateMutability": "nonpayable",
      "type": "function"
    },
    {
      "inputs": [
        {
          "internalType": "address",
          "name": "operator",
          "type": "address"
        },
        {
          "internalType": "address",
          "name": "from",
          "type": "address"
        },
        {
          "internalType": "uint256",
          "name": "id",
          "type": "uint256"
        },
        {
          "internalType": "uint256",
          "name": "value",
          "type": "uint256"
        },
        {
          "internalType": "bytes",
          "name": "data",
          "type": "bytes"
        }
      ],
      "name": "onERC1155Received",
      "outputs": [
        {
          "internalType": "bytes4",
          "name": "",
          "type": "bytes4"
        }
      ],
      "stateMutability": "nonpayable",
      "type": "function"
    },
    {
      "inputs": [],
      "name": "owner",
      "outputs": [
        {
          "internalType": "address",
          "name": "",
          "type": "address"
        }
      ],
      "stateMutability": "view",
      "type": "function"
    },
    {
      "inputs": [
        {
          "internalType": "uint256",
          "name": "tokenId",
          "type": "uint256"
        }
      ],
      "name": "ownerOf",
      "outputs": [
        {
          "internalType": "address",
          "name": "",
          "type": "address"
        }
      ],
      "stateMutability": "view",
      "type": "function"
    },
    {
      "inputs": [],
      "name": "renounceOwnership",
      "outputs": [],
      "stateMutability": "nonpayable",
      "type": "function"
    },
    {
      "inputs": [
        {
          "internalType": "address",
          "name": "from",
          "type": "address"
        },
        {
          "internalType": "address",
          "name": "to",
          "type": "address"
        },
        {
          "internalType": "uint256",
          "name": "tokenId",
          "type": "uint256"
        }
      ],
      "name": "safeTransferFrom",
      "outputs": [],
      "stateMutability": "nonpayable",
      "type": "function"
    },
    {
      "inputs": [
        {
          "internalType": "address",
          "name": "from",
          "type": "address"
        },
        {
          "internalType": "address",
          "name": "to",
          "type": "address"
        },
        {
          "internalType": "uint256",
          "name": "tokenId",
          "type": "uint256"
        },
        {
          "internalType": "bytes",
          "name": "data",
          "type": "bytes"
        }
      ],
      "name": "safeTransferFrom",
      "outputs": [],
      "stateMutability": "nonpayable",
      "type": "function"
    },
    {
      "inputs": [
        {
          "internalType": "address",
          "name": "operator",
          "type": "address"
        },
        {
          "internalType": "bool",
          "name": "approved",
          "type": "bool"
        }
      ],
      "name": "setApprovalForAll",
      "outputs": [],
      "stateMutability": "nonpayable",
      "type": "function"
    },
    {
      "inputs": [
        {
          "internalType": "bytes4",
          "name": "interfaceId",
          "type": "bytes4"
        }
      ],
      "name": "supportsInterface",
      "outputs": [
        {
          "internalType": "bool",
          "name": "",
          "type": "bool"
        }
      ],
      "stateMutability": "view",
      "type": "function"
    },
    {
      "inputs": [],
      "name": "symbol",
      "outputs": [
        {
          "internalType": "string",
          "name": "",
          "type": "string"
        }
      ],
      "stateMutability": "view",
      "type": "function"
    },
    {
      "inputs": [
        {
          "internalType": "uint256",
          "name": "index",
          "type": "uint256"
        }
      ],
      "name": "tokenByIndex",
      "outputs": [
        {
          "internalType": "uint256",
          "name": "",
          "type": "uint256"
        }
      ],
      "stateMutability": "view",
      "type": "function"
    },
    {
      "inputs": [
        {
          "internalType": "address",
          "name": "owner",
          "type": "address"
        },
        {
          "internalType": "uint256",
          "name": "index",
          "type": "uint256"
        }
      ],
      "name": "tokenOfOwnerByIndex",
      "outputs": [
        {
          "internalType": "uint256",
          "name": "",
          "type": "uint256"
        }
      ],
      "stateMutability": "view",
      "type": "function"
    },
    {
      "inputs": [
        {
          "internalType": "uint256",
          "name": "tokenId",
          "type": "uint256"
        }
      ],
      "name": "tokenURI",
      "outputs": [
        {
          "internalType": "string",
          "name": "",
          "type": "string"
        }
      ],
      "stateMutability": "view",
      "type": "function"
    },
    {
      "inputs": [],
      "name": "totalSupply",
      "outputs": [
        {
          "internalType": "uint256",
          "name": "",
          "type": "uint256"
        }
      ],
      "stateMutability": "view",
      "type": "function"
    },
    {
      "inputs": [
        {
          "internalType": "address",
          "name": "from",
          "type": "address"
        },
        {
          "internalType": "address",
          "name": "to",
          "type": "address"
        },
        {
          "internalType": "uint256",
          "name": "tokenId",
          "type": "uint256"
        }
      ],
      "name": "transferFrom",
      "outputs": [],
      "stateMutability": "nonpayable",
      "type": "function"
    },
    {
      "inputs": [
        {
          "internalType": "address",
          "name": "newOwner",
          "type": "address"
        }
      ],
      "name": "transferOwnership",
      "outputs": [],
      "stateMutability": "nonpayable",
      "type": "function"
    },
    {
      "inputs": [
        {
          "internalType": "uint256",
          "name": "tokenId",
          "type": "uint256"
        },
        {
          "internalType": "string",
          "name": "name",
          "type": "string"
        },
        {
          "components": [
            {
              "internalType": "address",
              "name": "addr",
              "type": "address"
            },
            {
              "internalType": "uint256",
              "name": "id",
              "type": "uint256"
            }
          ],
          "internalType": "struct Banners.Part[16]",
          "name": "parts",
          "type": "tuple[16]"
        },
        {
          "internalType": "bytes",
          "name": "data",
          "type": "bytes"
        }
      ],
      "name": "updateBanner",
      "outputs": [],
      "stateMutability": "nonpayable",
      "type": "function"
    },
    {
      "inputs": [
        {
          "internalType": "string",
          "name": "_uri",
          "type": "string"
        }
      ],
      "name": "updateURI",
      "outputs": [],
      "stateMutability": "nonpayable",
      "type": "function"
    }
  ],
  "transactionHash": "0x965c33c0610d1e06b6cba5b1e3dc2ee8d236e060b7068ac3b0002f606d0d192b",
  "args": [
    "Banners",
    "BNR",
    "https://mit-flags-node.s3.eu-central-1.amazonaws.com/skaleChaos/1313161555/json/"
  ],
  "numDeployments": 1,
  "solcInputHash": "d40fd766cc3fa0d4c836779e74bc4f2f",
  "bytecode": "0x60806040526000600d553480156200001657600080fd5b50604051620034c7380380620034c78339810160408190526200003991620001a8565b82826000620000498382620002c8565b506001620000588282620002c8565b505050620000756200006f6200008d60201b60201c565b62000091565b600c620000838282620002c8565b5050505062000394565b3390565b600a80546001600160a01b038381166001600160a01b0319831681179093556040519116919082907f8be0079c531659141344cd1fd0a4f28419497f9722a3daafe3b4186f6b6457e090600090a35050565b634e487b7160e01b600052604160045260246000fd5b600082601f8301126200010b57600080fd5b81516001600160401b0380821115620001285762000128620000e3565b604051601f8301601f19908116603f01168101908282118183101715620001535762000153620000e3565b816040528381526020925086838588010111156200017057600080fd5b600091505b8382101562000194578582018301518183018401529082019062000175565b600093810190920192909252949350505050565b600080600060608486031215620001be57600080fd5b83516001600160401b0380821115620001d657600080fd5b620001e487838801620000f9565b94506020860151915080821115620001fb57600080fd5b6200020987838801620000f9565b935060408601519150808211156200022057600080fd5b506200022f86828701620000f9565b9150509250925092565b600181811c908216806200024e57607f821691505b6020821081036200026f57634e487b7160e01b600052602260045260246000fd5b50919050565b601f821115620002c357600081815260208120601f850160051c810160208610156200029e5750805b601f850160051c820191505b81811015620002bf57828155600101620002aa565b5050505b505050565b81516001600160401b03811115620002e457620002e4620000e3565b620002fc81620002f5845462000239565b8462000275565b602080601f8311600181146200033457600084156200031b5750858301515b600019600386901b1c1916600185901b178555620002bf565b600085815260208120601f198616915b82811015620003655788860151825594840194600190910190840162000344565b5085821015620003845787850151600019600388901b60f8161c191681555b5050505050600190811b01905550565b61312380620003a46000396000f3fe608060405234801561001057600080fd5b50600436106101cf5760003560e01c80638c8add3a11610104578063bc197c81116100a2578063e985e9c511610071578063e985e9c51461040f578063f23a6e611461044b578063f2fde38b1461046b578063f84ddf0b1461047e57600080fd5b8063bc197c811461038c578063be0c5c63146103c7578063c30f4a5a146103e9578063c87b56dd146103fc57600080fd5b8063a22cb465116100de578063a22cb46514610340578063a6a5300914610353578063b64a109714610366578063b88d4fde1461037957600080fd5b80638c8add3a146103065780638da5cb5b1461032757806395d89b411461033857600080fd5b806342842e0e116101715780636c0360eb1161014b5780636c0360eb146102c257806370a08231146102ca578063715018a6146102dd57806389c74e9e146102e557600080fd5b806342842e0e146102895780634f6ccce71461029c5780636352211e146102af57600080fd5b8063095ea7b3116101ad578063095ea7b31461023c57806318160ddd1461025157806323b872dd146102635780632f745c591461027657600080fd5b806301ffc9a7146101d457806306fdde03146101fc578063081812fc14610211575b600080fd5b6101e76101e2366004612464565b610487565b60405190151581526020015b60405180910390f35b6102046104a7565b6040516101f391906124d1565b61022461021f3660046124e4565b610539565b6040516001600160a01b0390911681526020016101f3565b61024f61024a366004612519565b610560565b005b6008545b6040519081526020016101f3565b61024f610271366004612543565b61067a565b610255610284366004612519565b6106ab565b61024f610297366004612543565b610741565b6102556102aa3660046124e4565b61075c565b6102246102bd3660046124e4565b6107ef565b61020461084f565b6102556102d836600461257f565b6108dd565b61024f610963565b6102f86102f33660046124e4565b610977565b6040516101f392919061259a565b61031961031436600461257f565b610aa3565b6040516101f3929190612600565b600a546001600160a01b0316610224565b610204610d63565b61024f61034e3660046126d3565b610d72565b61024f6103613660046128ca565b610d81565b61024f610374366004612954565b611326565b61024f6103873660046129d4565b6113d7565b6103ae61039a366004612a75565b63bc197c8160e01b98975050505050505050565b6040516001600160e01b031990911681526020016101f3565b6103da6103d53660046124e4565b61140f565b6040516101f393929190612b30565b61024f6103f7366004612b70565b6115b9565b61020461040a3660046124e4565b6115cd565b6101e761041d366004612bb9565b6001600160a01b03918216600090815260056020908152604080832093909416825291909152205460ff1690565b6103ae610459366004612bec565b63f23a6e6160e01b9695505050505050565b61024f61047936600461257f565b611634565b610255600d5481565b6000610492826116ad565b806104a157506104a1826116d2565b92915050565b6060600080546104b690612c64565b80601f01602080910402602001604051908101604052809291908181526020018280546104e290612c64565b801561052f5780601f106105045761010080835404028352916020019161052f565b820191906000526020600020905b81548152906001019060200180831161051257829003601f168201915b5050505050905090565b6000610544826116f7565b506000908152600460205260409020546001600160a01b031690565b600061056b826107ef565b9050806001600160a01b0316836001600160a01b0316036105dd5760405162461bcd60e51b815260206004820152602160248201527f4552433732313a20617070726f76616c20746f2063757272656e74206f776e656044820152603960f91b60648201526084015b60405180910390fd5b336001600160a01b03821614806105f957506105f9813361041d565b61066b5760405162461bcd60e51b815260206004820152603e60248201527f4552433732313a20617070726f76652063616c6c6572206973206e6f7420746f60448201527f6b656e206f776e6572206e6f7220617070726f76656420666f7220616c6c000060648201526084016105d4565b6106758383611756565b505050565b61068433826117c4565b6106a05760405162461bcd60e51b81526004016105d490612c9e565b610675838383611843565b60006106b6836108dd565b82106107185760405162461bcd60e51b815260206004820152602b60248201527f455243373231456e756d657261626c653a206f776e657220696e646578206f7560448201526a74206f6620626f756e647360a81b60648201526084016105d4565b506001600160a01b03919091166000908152600660209081526040808320938352929052205490565b610675838383604051806020016040528060008152506113d7565b600061076760085490565b82106107ca5760405162461bcd60e51b815260206004820152602c60248201527f455243373231456e756d657261626c653a20676c6f62616c20696e646578206f60448201526b7574206f6620626f756e647360a01b60648201526084016105d4565b600882815481106107dd576107dd612cec565b90600052602060002001549050919050565b6000818152600260205260408120546001600160a01b0316806104a15760405162461bcd60e51b8152602060048201526018602482015277115490cdcc8c4e881a5b9d985b1a59081d1bdad95b88125160421b60448201526064016105d4565b600c805461085c90612c64565b80601f016020809104026020016040519081016040528092919081815260200182805461088890612c64565b80156108d55780601f106108aa576101008083540402835291602001916108d5565b820191906000526020600020905b8154815290600101906020018083116108b857829003601f168201915b505050505081565b60006001600160a01b0382166109475760405162461bcd60e51b815260206004820152602960248201527f4552433732313a2061646472657373207a65726f206973206e6f7420612076616044820152683634b21037bbb732b960b91b60648201526084016105d4565b506001600160a01b031660009081526003602052604090205490565b61096b6119ea565b6109756000611a44565b565b600b6020526000908152604090208054819061099290612c64565b80601f01602080910402602001604051908101604052809291908181526020018280546109be90612c64565b8015610a0b5780601f106109e057610100808354040283529160200191610a0b565b820191906000526020600020905b8154815290600101906020018083116109ee57829003601f168201915b505050505090806021018054610a2090612c64565b80601f0160208091040260200160405190810160405280929190818152602001828054610a4c90612c64565b8015610a995780601f10610a6e57610100808354040283529160200191610a99565b820191906000526020600020905b815481529060010190602001808311610a7c57829003601f168201915b5050505050905082565b6060806000610ab1846108dd565b90508067ffffffffffffffff811115610acc57610acc612758565b604051908082528060200260200182016040528015610b0557816020015b610af26123ed565b815260200190600190039081610aea5790505b5091508067ffffffffffffffff811115610b2157610b21612758565b604051908082528060200260200182016040528015610b4a578160200160208202803683370190505b50925060005b81811015610d5c576000610b6486836106ab565b905080858381518110610b7957610b79612cec565b602002602001018181525050600b6000828152602001908152602001600020604051806060016040529081600082018054610bb390612c64565b80601f0160208091040260200160405190810160405280929190818152602001828054610bdf90612c64565b8015610c2c5780601f10610c0157610100808354040283529160200191610c2c565b820191906000526020600020905b815481529060010190602001808311610c0f57829003601f168201915b50505091835250506040805161020081019091526020909101906001830160106000835b82821015610c91576040805180820190915260028302850180546001600160a01b031682526001908101546020808401919091529183529092019101610c50565b505050508152602001602182018054610ca990612c64565b80601f0160208091040260200160405190810160405280929190818152602001828054610cd590612c64565b8015610d225780601f10610cf757610100808354040283529160200191610d22565b820191906000526020600020905b815481529060010190602001808311610d0557829003601f168201915b505050505081525050848381518110610d3d57610d3d612cec565b6020026020010181905250508080610d5490612d18565b915050610b50565b5050915091565b6060600180546104b690612c64565b610d7d338383611a96565b5050565b610d8a856107ef565b6001600160a01b0316336001600160a01b031614610dea5760405162461bcd60e51b815260206004820152601e60248201527f746f6b656e206973206e6f742062656c6f6e677320746f2063616c6c6572000060448201526064016105d4565b60005b60108110156112a9576000868152600b602052604090206001018160108110610e1857610e18612cec565b60020201546001600160a01b0316838260108110610e3857610e38612cec565b6020020151516001600160a01b0316148015610e9657506000868152600b602052604090206001018160108110610e7157610e71612cec565b6002020160010154838260108110610e8b57610e8b612cec565b602002015160200151145b611297576000838260108110610eae57610eae612cec565b6020020151516001600160a01b03161461103457828160108110610ed457610ed4612cec565b6020020151516001600160a01b03166342842e0e3330868560108110610efc57610efc612cec565b6020908102919091015101516040516001600160e01b031960e086901b1681526001600160a01b0393841660048201529290911660248301526044820152606401600060405180830381600087803b158015610f5757600080fd5b505af1925050508015610f68575060015b611034573d808015610f96576040519150601f19603f3d011682016040523d82523d6000602084013e610f9b565b606091505b50838260108110610fae57610fae612cec565b6020020151516001600160a01b031663f242432a3330878660108110610fd657610fd6612cec565b60200201516020015160016040518563ffffffff1660e01b81526004016110009493929190612d31565b600060405180830381600087803b15801561101a57600080fd5b505af115801561102e573d6000803e3d6000fd5b50505050505b6000868152600b60205260408120600101826010811061105657611056612cec565b60020201546001600160a01b031614611223576000868152600b60205260409020600101816010811061108b5761108b612cec565b60020201546000878152600b602052604090206001600160a01b03909116906342842e0e903090339060010185601081106110c8576110c8612cec565b600202016001015460405160e085901b6001600160e01b03191681526001600160a01b0393841660048201529190921660248201526044810191909152606401600060405180830381600087803b15801561112257600080fd5b505af1925050508015611133575060015b611223573d808015611161576040519150601f19603f3d011682016040523d82523d6000602084013e611166565b606091505b506000878152600b60205260409020600101826010811061118957611189612cec565b60020201546000888152600b602052604090206001600160a01b039091169063f242432a903090339060010186601081106111c6576111c6612cec565b600202016001015460016040518563ffffffff1660e01b81526004016111ef9493929190612d31565b600060405180830381600087803b15801561120957600080fd5b505af115801561121d573d6000803e3d6000fd5b50505050505b82816010811061123557611235612cec565b6020020151600b6000888152602001908152602001600020600101826010811061126157611261612cec565b82516002919091029190910180546001600160a01b0319166001600160a01b039092169190911781556020909101516001909101555b806112a181612d18565b915050610ded565b506000858152600b602052604090206112c3848683612dc2565b506000858152600b602052604090206021016112df8282612e83565b507fc5af4baabe0b43f9c9e905f83dd1191768ee8fd60b73a30fc23fceedce7eb3968585858585604051611317959493929190612f43565b60405180910390a15050505050565b600d805490600061133683612d18565b9091555050600d546000908152600b60205260409020611357848683612dc2565b50600d546000908152600b602052604090206021016113768282612e83565b50611383600d5483611b64565b61139033600d5483611d90565b7f080569b8ffab66e0cf0ce565f2e83d85ee8d93f246397f4ee4e7e6908fdc4c5f600d54858585856040516113c9959493929190612f43565b60405180910390a150505050565b6113e133836117c4565b6113fd5760405162461bcd60e51b81526004016105d490612c9e565b61140984848484611dc3565b50505050565b6060611419612414565b6000838152600b6020526040902080546060919060018201906021830190839061144290612c64565b80601f016020809104026020016040519081016040528092919081815260200182805461146e90612c64565b80156114bb5780601f10611490576101008083540402835291602001916114bb565b820191906000526020600020905b81548152906001019060200180831161149e57829003601f168201915b50506040805161020081019091529396508592506010915060009050835b8282101561151a576040805180820190915260028302850180546001600160a01b0316825260019081015460208084019190915291835290920191016114d9565b50505050915080805461152c90612c64565b80601f016020809104026020016040519081016040528092919081815260200182805461155890612c64565b80156115a55780601f1061157a576101008083540402835291602001916115a5565b820191906000526020600020905b81548152906001019060200180831161158857829003601f168201915b505050505090509250925092509193909250565b6115c16119ea565b600c610d7d8282612e83565b60606115d8826116f7565b60006115e2611df6565b90506000815111611602576040518060200160405280600081525061162d565b8061160c84611e05565b60405160200161161d929190612fa3565b6040516020818303038152906040525b9392505050565b61163c6119ea565b6001600160a01b0381166116a15760405162461bcd60e51b815260206004820152602660248201527f4f776e61626c653a206e6577206f776e657220697320746865207a65726f206160448201526564647265737360d01b60648201526084016105d4565b6116aa81611a44565b50565b60006001600160e01b0319821663780e9d6360e01b14806104a157506104a182611f06565b60006001600160e01b03198216630271189760e51b14806104a157506104a1826116ad565b6000818152600260205260409020546001600160a01b03166116aa5760405162461bcd60e51b8152602060048201526018602482015277115490cdcc8c4e881a5b9d985b1a59081d1bdad95b88125160421b60448201526064016105d4565b600081815260046020526040902080546001600160a01b0319166001600160a01b038416908117909155819061178b826107ef565b6001600160a01b03167f8c5be1e5ebec7d5bd14f71427d1e84f3dd0314c0f7b2291e5b200ac8c7c3b92560405160405180910390a45050565b6000806117d0836107ef565b9050806001600160a01b0316846001600160a01b0316148061181757506001600160a01b0380821660009081526005602090815260408083209388168352929052205460ff165b8061183b5750836001600160a01b031661183084610539565b6001600160a01b0316145b949350505050565b826001600160a01b0316611856826107ef565b6001600160a01b0316146118ba5760405162461bcd60e51b815260206004820152602560248201527f4552433732313a207472616e736665722066726f6d20696e636f72726563742060448201526437bbb732b960d91b60648201526084016105d4565b6001600160a01b03821661191c5760405162461bcd60e51b8152602060048201526024808201527f4552433732313a207472616e7366657220746f20746865207a65726f206164646044820152637265737360e01b60648201526084016105d4565b611927838383611f56565b611932600082611756565b6001600160a01b038316600090815260036020526040812080546001929061195b908490612fd2565b90915550506001600160a01b0382166000908152600360205260408120805460019290611989908490612fe5565b909155505060008181526002602052604080822080546001600160a01b0319166001600160a01b0386811691821790925591518493918716917fddf252ad1be2c89b69c2b068fc378daa952ba7f163c4a11628f55a4df523b3ef91a4505050565b600a546001600160a01b031633146109755760405162461bcd60e51b815260206004820181905260248201527f4f776e61626c653a2063616c6c6572206973206e6f7420746865206f776e657260448201526064016105d4565b600a80546001600160a01b038381166001600160a01b0319831681179093556040519116919082907f8be0079c531659141344cd1fd0a4f28419497f9722a3daafe3b4186f6b6457e090600090a35050565b816001600160a01b0316836001600160a01b031603611af75760405162461bcd60e51b815260206004820152601960248201527f4552433732313a20617070726f766520746f2063616c6c65720000000000000060448201526064016105d4565b6001600160a01b03838116600081815260056020908152604080832094871680845294825291829020805460ff191686151590811790915591519182527f17307eab39ab6107e8899845ad3d59bd9653f200f220920489ca2b5937696c31910160405180910390a3505050565b60005b6010811015610675576000828260108110611b8457611b84612cec565b6020020151516001600160a01b031614611d7e57818160108110611baa57611baa612cec565b6020020151516001600160a01b03166342842e0e3330858560108110611bd257611bd2612cec565b6020908102919091015101516040516001600160e01b031960e086901b1681526001600160a01b0393841660048201529290911660248301526044820152606401600060405180830381600087803b158015611c2d57600080fd5b505af1925050508015611c3e575060015b611d0a573d808015611c6c576040519150601f19603f3d011682016040523d82523d6000602084013e611c71565b606091505b50828260108110611c8457611c84612cec565b6020020151516001600160a01b031663f242432a3330868660108110611cac57611cac612cec565b60200201516020015160016040518563ffffffff1660e01b8152600401611cd69493929190612d31565b600060405180830381600087803b158015611cf057600080fd5b505af1158015611d04573d6000803e3d6000fd5b50505050505b818160108110611d1c57611d1c612cec565b6020020151600b60008581526020019081526020016000206001018260108110611d4857611d48612cec565b82516002919091029190910180546001600160a01b0319166001600160a01b039092169190911781556020909101516001909101555b80611d8881612d18565b915050611b67565b611d9a838361200e565b611da7600084848461215c565b6106755760405162461bcd60e51b81526004016105d490612ff8565b611dce848484611843565b611dda8484848461215c565b6114095760405162461bcd60e51b81526004016105d490612ff8565b6060600c80546104b690612c64565b606081600003611e2c5750506040805180820190915260018152600360fc1b602082015290565b8160005b8115611e565780611e4081612d18565b9150611e4f9050600a83613060565b9150611e30565b60008167ffffffffffffffff811115611e7157611e71612758565b6040519080825280601f01601f191660200182016040528015611e9b576020820181803683370190505b5090505b841561183b57611eb0600183612fd2565b9150611ebd600a86613074565b611ec8906030612fe5565b60f81b818381518110611edd57611edd612cec565b60200101906001600160f81b031916908160001a905350611eff600a86613060565b9450611e9f565b60006001600160e01b031982166380ac58cd60e01b1480611f3757506001600160e01b03198216635b5e139f60e01b145b806104a157506301ffc9a760e01b6001600160e01b03198316146104a1565b6001600160a01b038316611fb157611fac81600880546000838152600960205260408120829055600182018355919091527ff3f7a9fe364faab93b216da50a3214154f22a0a2b415b23a84c8169e8b636ee30155565b611fd4565b816001600160a01b0316836001600160a01b031614611fd457611fd4838261225d565b6001600160a01b038216611feb57610675816122fa565b826001600160a01b0316826001600160a01b0316146106755761067582826123a9565b6001600160a01b0382166120645760405162461bcd60e51b815260206004820181905260248201527f4552433732313a206d696e7420746f20746865207a65726f206164647265737360448201526064016105d4565b6000818152600260205260409020546001600160a01b0316156120c95760405162461bcd60e51b815260206004820152601c60248201527f4552433732313a20746f6b656e20616c7265616479206d696e7465640000000060448201526064016105d4565b6120d560008383611f56565b6001600160a01b03821660009081526003602052604081208054600192906120fe908490612fe5565b909155505060008181526002602052604080822080546001600160a01b0319166001600160a01b03861690811790915590518392907fddf252ad1be2c89b69c2b068fc378daa952ba7f163c4a11628f55a4df523b3ef908290a45050565b60006001600160a01b0384163b1561225257604051630a85bd0160e11b81526001600160a01b0385169063150b7a02906121a0903390899088908890600401613088565b6020604051808303816000875af19250505080156121db575060408051601f3d908101601f191682019092526121d8918101906130ba565b60015b612238573d808015612209576040519150601f19603f3d011682016040523d82523d6000602084013e61220e565b606091505b5080516000036122305760405162461bcd60e51b81526004016105d490612ff8565b805181602001fd5b6001600160e01b031916630a85bd0160e11b14905061183b565b506001949350505050565b6000600161226a846108dd565b6122749190612fd2565b6000838152600760205260409020549091508082146122c7576001600160a01b03841660009081526006602090815260408083208584528252808320548484528184208190558352600790915290208190555b5060009182526007602090815260408084208490556001600160a01b039094168352600681528383209183525290812055565b60085460009061230c90600190612fd2565b6000838152600960205260408120546008805493945090928490811061233457612334612cec565b90600052602060002001549050806008838154811061235557612355612cec565b600091825260208083209091019290925582815260099091526040808220849055858252812055600880548061238d5761238d6130d7565b6001900381819060005260206000200160009055905550505050565b60006123b4836108dd565b6001600160a01b039093166000908152600660209081526040808320868452825280832085905593825260079052919091209190915550565b604051806060016040528060608152602001612407612414565b8152602001606081525090565b6040518061020001604052806010905b60408051808201909152600080825260208201528152602001906001900390816124245790505090565b6001600160e01b0319811681146116aa57600080fd5b60006020828403121561247657600080fd5b813561162d8161244e565b60005b8381101561249c578181015183820152602001612484565b50506000910152565b600081518084526124bd816020860160208601612481565b601f01601f19169290920160200192915050565b60208152600061162d60208301846124a5565b6000602082840312156124f657600080fd5b5035919050565b80356001600160a01b038116811461251457600080fd5b919050565b6000806040838503121561252c57600080fd5b612535836124fd565b946020939093013593505050565b60008060006060848603121561255857600080fd5b612561846124fd565b925061256f602085016124fd565b9150604084013590509250925092565b60006020828403121561259157600080fd5b61162d826124fd565b6040815260006125ad60408301856124a5565b82810360208401526125bf81856124a5565b95945050505050565b8060005b601081101561140957815180516001600160a01b0316855260209081015181860152604090940193909101906001016125cc565b60408082528351828201819052600091906020906060850190828801855b8281101561263a5781518452928401929084019060010161261e565b50505084810382860152855180825282820190600581901b8301840188850160005b838110156126c357601f1986840301855281516104408151818652612683828701826124a5565b915050888201516126968a8701826125c8565b5090890151848203610420860152906126af81836124a5565b96890196945050509086019060010161265c565b50909a9950505050505050505050565b600080604083850312156126e657600080fd5b6126ef836124fd565b91506020830135801515811461270457600080fd5b809150509250929050565b60008083601f84011261272157600080fd5b50813567ffffffffffffffff81111561273957600080fd5b60208301915083602082850101111561275157600080fd5b9250929050565b634e487b7160e01b600052604160045260246000fd5b6040805190810167ffffffffffffffff8111828210171561279157612791612758565b60405290565b600082601f8301126127a857600080fd5b60408051610200810181811067ffffffffffffffff821117156127cd576127cd612758565b8252806104008501868111156127e257600080fd5b855b81811015612828578481890312156127fc5760008081fd5b61280461276e565b61280d826124fd565b815260208281013581830152908452929092019184016127e4565b50919695505050505050565b600067ffffffffffffffff8084111561284f5761284f612758565b604051601f8501601f19908116603f0116810190828211818310171561287757612877612758565b8160405280935085815286868601111561289057600080fd5b858560208301376000602087830101525050509392505050565b600082601f8301126128bb57600080fd5b61162d83833560208501612834565b600080600080600061046086880312156128e357600080fd5b85359450602086013567ffffffffffffffff8082111561290257600080fd5b61290e89838a0161270f565b90965094508491506129238960408a01612797565b935061044088013591508082111561293a57600080fd5b50612947888289016128aa565b9150509295509295909350565b600080600080610440858703121561296b57600080fd5b843567ffffffffffffffff8082111561298357600080fd5b61298f8883890161270f565b90965094508491506129a48860208901612797565b93506104208701359150808211156129bb57600080fd5b506129c8878288016128aa565b91505092959194509250565b600080600080608085870312156129ea57600080fd5b6129f3856124fd565b9350612a01602086016124fd565b925060408501359150606085013567ffffffffffffffff811115612a2457600080fd5b6129c8878288016128aa565b60008083601f840112612a4257600080fd5b50813567ffffffffffffffff811115612a5a57600080fd5b6020830191508360208260051b850101111561275157600080fd5b60008060008060008060008060a0898b031215612a9157600080fd5b612a9a896124fd565b9750612aa860208a016124fd565b9650604089013567ffffffffffffffff80821115612ac557600080fd5b612ad18c838d01612a30565b909850965060608b0135915080821115612aea57600080fd5b612af68c838d01612a30565b909650945060808b0135915080821115612b0f57600080fd5b50612b1c8b828c0161270f565b999c989b5096995094979396929594505050565b6000610440808352612b44818401876124a5565b9050612b5360208401866125c8565b828103610420840152612b6681856124a5565b9695505050505050565b600060208284031215612b8257600080fd5b813567ffffffffffffffff811115612b9957600080fd5b8201601f81018413612baa57600080fd5b61183b84823560208401612834565b60008060408385031215612bcc57600080fd5b612bd5836124fd565b9150612be3602084016124fd565b90509250929050565b60008060008060008060a08789031215612c0557600080fd5b612c0e876124fd565b9550612c1c602088016124fd565b94506040870135935060608701359250608087013567ffffffffffffffff811115612c4657600080fd5b612c5289828a0161270f565b979a9699509497509295939492505050565b600181811c90821680612c7857607f821691505b602082108103612c9857634e487b7160e01b600052602260045260246000fd5b50919050565b6020808252602e908201527f4552433732313a2063616c6c6572206973206e6f7420746f6b656e206f776e6560408201526d1c881b9bdc88185c1c1c9bdd995960921b606082015260800190565b634e487b7160e01b600052603260045260246000fd5b634e487b7160e01b600052601160045260246000fd5b600060018201612d2a57612d2a612d02565b5060010190565b6001600160a01b0394851681529290931660208301526040820152606081019190915260a06080820181905260029082015261060f60f31b60c082015260e00190565b601f82111561067557600081815260208120601f850160051c81016020861015612d9b5750805b601f850160051c820191505b81811015612dba57828155600101612da7565b505050505050565b67ffffffffffffffff831115612dda57612dda612758565b612dee83612de88354612c64565b83612d74565b6000601f841160018114612e225760008515612e0a5750838201355b600019600387901b1c1916600186901b178355612e7c565b600083815260209020601f19861690835b82811015612e535786850135825560209485019460019092019101612e33565b5086821015612e705760001960f88860031b161c19848701351681555b505060018560011b0183555b5050505050565b815167ffffffffffffffff811115612e9d57612e9d612758565b612eb181612eab8454612c64565b84612d74565b602080601f831160018114612ee65760008415612ece5750858301515b600019600386901b1c1916600185901b178555612dba565b600085815260208120601f198616915b82811015612f1557888601518255948401946001909101908401612ef6565b5085821015612f335787850151600019600388901b60f8161c191681555b5050505050600190811b01905550565b60006104608783528060208401528581840152506104808587828501376000838701820152601f8601601f19168301612f7f60408501876125c8565b8184820301610440850152612f96828201866124a5565b9998505050505050505050565b60008351612fb5818460208801612481565b835190830190612fc9818360208801612481565b01949350505050565b818103818111156104a1576104a1612d02565b808201808211156104a1576104a1612d02565b60208082526032908201527f4552433732313a207472616e7366657220746f206e6f6e20455243373231526560408201527131b2b4bb32b91034b6b83632b6b2b73a32b960711b606082015260800190565b634e487b7160e01b600052601260045260246000fd5b60008261306f5761306f61304a565b500490565b6000826130835761308361304a565b500690565b60006001600160a01b03808716835280861660208401525083604083015260806060830152612b6660808301846124a5565b6000602082840312156130cc57600080fd5b815161162d8161244e565b634e487b7160e01b600052603160045260246000fdfea2646970667358221220545131c8d16c17495d1e0f8bb3a59959c5435e705c6af17db4ccc182227b39a064736f6c63430008100033",
  "devdoc": {
    "events": {
      "BannerUpdated(uint256,string,(address,uint256)[16],bytes)": {
        "params": {
          "data": "New banner custom parameters",
          "name": "New banner name",
          "parts": "New parts struct",
          "tokenIndex": "Token id which was updated"
        }
      },
      "NewBanner(uint256,string,(address,uint256)[16],bytes)": {
        "params": {
          "data": "Banner custom parameters",
          "name": "Banner name",
          "parts": "Parts struct",
          "tokenIndex": "Newly created token id"
        }
      }
    },
    "kind": "dev",
    "methods": {
      "approve(address,uint256)": {
        "details": "See {IERC721-approve}."
      },
      "balanceOf(address)": {
        "details": "See {IERC721-balanceOf}."
      },
      "getApproved(uint256)": {
        "details": "See {IERC721-getApproved}."
      },
      "getBannerData(uint256)": {
        "details": "Default mapping read method does not return all data",
        "params": {
          "tokenIndex": "Token index"
        },
        "returns": {
          "data": "Banner data",
          "name": "Banner name",
          "parts": "Banner parts"
        }
      },
      "getBannerDataByUserBatch(address)": {
        "details": "Used to query all nfts with their data without asking them one by one (may not work for holder with very large amount of nfts)",
        "params": {
          "holderAddress": "Holder address"
        },
        "returns": {
          "bannersData": "Banner data for every token id",
          "tokenIds": "Token ids holder owns"
        }
      },
      "isApprovedForAll(address,address)": {
        "details": "See {IERC721-isApprovedForAll}."
      },
      "mint(string,(address,uint256)[16],bytes)": {
        "details": "Specified banner parts will be taken from msg.sender",
        "params": {
          "data": "Banner custom parameters",
          "name": "Banner name",
          "parts": "Banner parts"
        }
      },
      "name()": {
        "details": "See {IERC721Metadata-name}."
      },
      "onERC1155BatchReceived(address,address,uint256[],uint256[],bytes)": {
        "details": "Handles the receipt of a multiple ERC1155 token types. This function is called at the end of a `safeBatchTransferFrom` after the balances have been updated. NOTE: To accept the transfer(s), this must return `bytes4(keccak256(\"onERC1155BatchReceived(address,address,uint256[],uint256[],bytes)\"))` (i.e. 0xbc197c81, or its own function selector).",
        "params": {
          "data": "Additional data with no specified format",
          "from": "The address which previously owned the token",
          "ids": "An array containing ids of each token being transferred (order and length must match values array)",
          "operator": "The address which initiated the batch transfer (i.e. msg.sender)",
          "values": "An array containing amounts of each token being transferred (order and length must match ids array)"
        },
        "returns": {
          "_0": "`bytes4(keccak256(\"onERC1155BatchReceived(address,address,uint256[],uint256[],bytes)\"))` if transfer is allowed"
        }
      },
      "onERC1155Received(address,address,uint256,uint256,bytes)": {
        "details": "Handles the receipt of a single ERC1155 token type. This function is called at the end of a `safeTransferFrom` after the balance has been updated. NOTE: To accept the transfer, this must return `bytes4(keccak256(\"onERC1155Received(address,address,uint256,uint256,bytes)\"))` (i.e. 0xf23a6e61, or its own function selector).",
        "params": {
          "data": "Additional data with no specified format",
          "from": "The address which previously owned the token",
          "id": "The ID of the token being transferred",
          "operator": "The address which initiated the transfer (i.e. msg.sender)",
          "value": "The amount of tokens being transferred"
        },
        "returns": {
          "_0": "`bytes4(keccak256(\"onERC1155Received(address,address,uint256,uint256,bytes)\"))` if transfer is allowed"
        }
      },
      "owner()": {
        "details": "Returns the address of the current owner."
      },
      "ownerOf(uint256)": {
        "details": "See {IERC721-ownerOf}."
      },
      "renounceOwnership()": {
        "details": "Leaves the contract without owner. It will not be possible to call `onlyOwner` functions anymore. Can only be called by the current owner. NOTE: Renouncing ownership will leave the contract without an owner, thereby removing any functionality that is only available to the owner."
      },
      "safeTransferFrom(address,address,uint256)": {
        "details": "See {IERC721-safeTransferFrom}."
      },
      "safeTransferFrom(address,address,uint256,bytes)": {
        "details": "See {IERC721-safeTransferFrom}."
      },
      "setApprovalForAll(address,bool)": {
        "details": "See {IERC721-setApprovalForAll}."
      },
      "supportsInterface(bytes4)": {
        "details": "Returns true if this contract implements the interface defined by `interfaceId`. See the corresponding https://eips.ethereum.org/EIPS/eip-165#how-interfaces-are-identified[EIP section] to learn more about how these ids are created. This function call must use less than 30 000 gas."
      },
      "symbol()": {
        "details": "See {IERC721Metadata-symbol}."
      },
      "tokenByIndex(uint256)": {
        "details": "See {IERC721Enumerable-tokenByIndex}."
      },
      "tokenOfOwnerByIndex(address,uint256)": {
        "details": "See {IERC721Enumerable-tokenOfOwnerByIndex}."
      },
      "tokenURI(uint256)": {
        "details": "See {IERC721Metadata-tokenURI}."
      },
      "totalSupply()": {
        "details": "See {IERC721Enumerable-totalSupply}."
      },
      "transferFrom(address,address,uint256)": {
        "details": "See {IERC721-transferFrom}."
      },
      "transferOwnership(address)": {
        "details": "Transfers ownership of the contract to a new account (`newOwner`). Can only be called by the current owner."
      },
      "updateBanner(uint256,string,(address,uint256)[16],bytes)": {
        "params": {
          "data": "Banner custom parameters",
          "name": "New banner name",
          "parts": "New banner parts",
          "tokenId": "banner token id which will be updated, old banner parts, if replaced, will be refunded to the owner"
        }
      },
      "updateURI(string)": {
        "details": "Only owner can modify base token uri"
      }
    },
    "stateVariables": {
      "bannerData": {
        "details": "Updated when #updateBanner or #mint is called"
      },
      "baseURI": {
        "details": "Updated on creation or when #updateURI is called"
      },
      "lastTokenId": {
        "details": "Updated when #mint is called"
      }
    },
    "title": "Banners Nft",
    "version": 1
  },
  "userdoc": {
    "events": {
      "BannerUpdated(uint256,string,(address,uint256)[16],bytes)": {
        "notice": "Emitted when #updateBanner is called"
      },
      "NewBanner(uint256,string,(address,uint256)[16],bytes)": {
        "notice": "Emitted when #mint is called"
      }
    },
    "kind": "user",
    "methods": {
      "bannerData(uint256)": {
        "notice": "Mapping containing banner data by provided token id"
      },
      "baseURI()": {
        "notice": "Base URI for computing token uri"
      },
      "getBannerData(uint256)": {
        "notice": "Returns banner data with parts"
      },
      "getBannerDataByUserBatch(address)": {
        "notice": "Returns all nfts with their banner data for specified holder address"
      },
      "lastTokenId()": {
        "notice": "Last created token id"
      },
      "mint(string,(address,uint256)[16],bytes)": {
        "notice": "Mints banner with specified parameters"
      },
      "updateBanner(uint256,string,(address,uint256)[16],bytes)": {
        "notice": "Updates banner with specified parameters"
      },
      "updateURI(string)": {
        "notice": "Updates base token uri"
      }
    },
    "notice": "Acts as ERC721 Nft token, which supports ERC721 and ERC1155 parts as properties of every banner nft",
    "version": 1
  },
  "storageLayout": {
    "storage": [
      {
        "astId": 2497,
        "contract": "contracts/banners/Banners.sol:Banners",
        "label": "_name",
        "offset": 0,
        "slot": "0",
        "type": "t_string_storage"
      },
      {
        "astId": 2499,
        "contract": "contracts/banners/Banners.sol:Banners",
        "label": "_symbol",
        "offset": 0,
        "slot": "1",
        "type": "t_string_storage"
      },
      {
        "astId": 2503,
        "contract": "contracts/banners/Banners.sol:Banners",
        "label": "_owners",
        "offset": 0,
        "slot": "2",
        "type": "t_mapping(t_uint256,t_address)"
      },
      {
        "astId": 2507,
        "contract": "contracts/banners/Banners.sol:Banners",
        "label": "_balances",
        "offset": 0,
        "slot": "3",
        "type": "t_mapping(t_address,t_uint256)"
      },
      {
        "astId": 2511,
        "contract": "contracts/banners/Banners.sol:Banners",
        "label": "_tokenApprovals",
        "offset": 0,
        "slot": "4",
        "type": "t_mapping(t_uint256,t_address)"
      },
      {
        "astId": 2517,
        "contract": "contracts/banners/Banners.sol:Banners",
        "label": "_operatorApprovals",
        "offset": 0,
        "slot": "5",
        "type": "t_mapping(t_address,t_mapping(t_address,t_bool))"
      },
      {
        "astId": 3487,
        "contract": "contracts/banners/Banners.sol:Banners",
        "label": "_ownedTokens",
        "offset": 0,
        "slot": "6",
        "type": "t_mapping(t_address,t_mapping(t_uint256,t_uint256))"
      },
      {
        "astId": 3491,
        "contract": "contracts/banners/Banners.sol:Banners",
        "label": "_ownedTokensIndex",
        "offset": 0,
        "slot": "7",
        "type": "t_mapping(t_uint256,t_uint256)"
      },
      {
        "astId": 3494,
        "contract": "contracts/banners/Banners.sol:Banners",
        "label": "_allTokens",
        "offset": 0,
        "slot": "8",
        "type": "t_array(t_uint256)dyn_storage"
      },
      {
        "astId": 3498,
        "contract": "contracts/banners/Banners.sol:Banners",
        "label": "_allTokensIndex",
        "offset": 0,
        "slot": "9",
        "type": "t_mapping(t_uint256,t_uint256)"
      },
      {
        "astId": 7,
        "contract": "contracts/banners/Banners.sol:Banners",
        "label": "_owner",
        "offset": 0,
        "slot": "10",
        "type": "t_address"
      },
      {
        "astId": 6375,
        "contract": "contracts/banners/Banners.sol:Banners",
        "label": "bannerData",
        "offset": 0,
        "slot": "11",
        "type": "t_mapping(t_uint256,t_struct(BannerData)6369_storage)"
      },
      {
        "astId": 6378,
        "contract": "contracts/banners/Banners.sol:Banners",
        "label": "baseURI",
        "offset": 0,
        "slot": "12",
        "type": "t_string_storage"
      },
      {
        "astId": 6382,
        "contract": "contracts/banners/Banners.sol:Banners",
        "label": "lastTokenId",
        "offset": 0,
        "slot": "13",
        "type": "t_uint256"
      }
    ],
    "types": {
      "t_address": {
        "encoding": "inplace",
        "label": "address",
        "numberOfBytes": "20"
      },
      "t_array(t_struct(Part)6359_storage)16_storage": {
        "base": "t_struct(Part)6359_storage",
        "encoding": "inplace",
        "label": "struct Banners.Part[16]",
        "numberOfBytes": "1024"
      },
      "t_array(t_uint256)dyn_storage": {
        "base": "t_uint256",
        "encoding": "dynamic_array",
        "label": "uint256[]",
        "numberOfBytes": "32"
      },
      "t_bool": {
        "encoding": "inplace",
        "label": "bool",
        "numberOfBytes": "1"
      },
      "t_bytes_storage": {
        "encoding": "bytes",
        "label": "bytes",
        "numberOfBytes": "32"
      },
      "t_mapping(t_address,t_bool)": {
        "encoding": "mapping",
        "key": "t_address",
        "label": "mapping(address => bool)",
        "numberOfBytes": "32",
        "value": "t_bool"
      },
      "t_mapping(t_address,t_mapping(t_address,t_bool))": {
        "encoding": "mapping",
        "key": "t_address",
        "label": "mapping(address => mapping(address => bool))",
        "numberOfBytes": "32",
        "value": "t_mapping(t_address,t_bool)"
      },
      "t_mapping(t_address,t_mapping(t_uint256,t_uint256))": {
        "encoding": "mapping",
        "key": "t_address",
        "label": "mapping(address => mapping(uint256 => uint256))",
        "numberOfBytes": "32",
        "value": "t_mapping(t_uint256,t_uint256)"
      },
      "t_mapping(t_address,t_uint256)": {
        "encoding": "mapping",
        "key": "t_address",
        "label": "mapping(address => uint256)",
        "numberOfBytes": "32",
        "value": "t_uint256"
      },
      "t_mapping(t_uint256,t_address)": {
        "encoding": "mapping",
        "key": "t_uint256",
        "label": "mapping(uint256 => address)",
        "numberOfBytes": "32",
        "value": "t_address"
      },
      "t_mapping(t_uint256,t_struct(BannerData)6369_storage)": {
        "encoding": "mapping",
        "key": "t_uint256",
        "label": "mapping(uint256 => struct Banners.BannerData)",
        "numberOfBytes": "32",
        "value": "t_struct(BannerData)6369_storage"
      },
      "t_mapping(t_uint256,t_uint256)": {
        "encoding": "mapping",
        "key": "t_uint256",
        "label": "mapping(uint256 => uint256)",
        "numberOfBytes": "32",
        "value": "t_uint256"
      },
      "t_string_storage": {
        "encoding": "bytes",
        "label": "string",
        "numberOfBytes": "32"
      },
      "t_struct(BannerData)6369_storage": {
        "encoding": "inplace",
        "label": "struct Banners.BannerData",
        "members": [
          {
            "astId": 6361,
            "contract": "contracts/banners/Banners.sol:Banners",
            "label": "name",
            "offset": 0,
            "slot": "0",
            "type": "t_string_storage"
          },
          {
            "astId": 6366,
            "contract": "contracts/banners/Banners.sol:Banners",
            "label": "parts",
            "offset": 0,
            "slot": "1",
            "type": "t_array(t_struct(Part)6359_storage)16_storage"
          },
          {
            "astId": 6368,
            "contract": "contracts/banners/Banners.sol:Banners",
            "label": "data",
            "offset": 0,
            "slot": "33",
            "type": "t_bytes_storage"
          }
        ],
        "numberOfBytes": "1088"
      },
      "t_struct(Part)6359_storage": {
        "encoding": "inplace",
        "label": "struct Banners.Part",
        "members": [
          {
            "astId": 6356,
            "contract": "contracts/banners/Banners.sol:Banners",
            "label": "addr",
            "offset": 0,
            "slot": "0",
            "type": "t_address"
          },
          {
            "astId": 6358,
            "contract": "contracts/banners/Banners.sol:Banners",
            "label": "id",
            "offset": 0,
            "slot": "1",
            "type": "t_uint256"
          }
        ],
        "numberOfBytes": "64"
      },
      "t_uint256": {
        "encoding": "inplace",
        "label": "uint256",
        "numberOfBytes": "32"
      }
    }
  }
}