{
  "address": "0x3684D0FCf22Ed22d9d80B97687904d84a9289f27",
  "abi": [
    {
      "anonymous": false,
      "inputs": [
        {
          "indexed": false,
          "internalType": "string",
          "name": "resourceName",
          "type": "string"
        },
        {
          "indexed": false,
          "internalType": "address",
          "name": "holder",
          "type": "address"
        },
        {
          "indexed": false,
          "internalType": "uint256",
          "name": "amount",
          "type": "uint256"
        }
      ],
      "name": "DistributedToShareHolder",
      "type": "event"
    },
    {
      "anonymous": false,
      "inputs": [
        {
          "indexed": false,
          "internalType": "uint8",
          "name": "version",
          "type": "uint8"
        }
      ],
      "name": "Initialized",
      "type": "event"
    },
    {
      "anonymous": false,
      "inputs": [
        {
          "indexed": false,
          "internalType": "uint256",
          "name": "distributionId",
          "type": "uint256"
        },
        {
          "indexed": false,
          "internalType": "address[]",
          "name": "previousReceivers",
          "type": "address[]"
        }
      ],
      "name": "NewDistribution",
      "type": "event"
    },
    {
      "anonymous": false,
      "inputs": [
        {
          "indexed": false,
          "internalType": "uint256",
          "name": "stateLevel",
          "type": "uint256"
        }
      ],
      "name": "UpgradeFinish",
      "type": "event"
    },
    {
      "inputs": [],
      "name": "advancedProduction",
      "outputs": [
        {
          "internalType": "uint256",
          "name": "level",
          "type": "uint256"
        },
        {
          "internalType": "uint256",
          "name": "coefficient",
          "type": "uint256"
        },
        {
          "internalType": "uint256",
          "name": "additionalWorkersCapacityMultiplier",
          "type": "uint256"
        },
        {
          "internalType": "uint256",
          "name": "toBeProducedTicks",
          "type": "uint256"
        }
      ],
      "stateMutability": "view",
      "type": "function"
    },
    {
      "inputs": [],
      "name": "assetGroup",
      "outputs": [
        {
          "internalType": "string",
          "name": "",
          "type": "string"
        }
      ],
      "stateMutability": "view",
      "type": "function"
    },
    {
      "inputs": [],
      "name": "assetType",
      "outputs": [
        {
          "internalType": "string",
          "name": "",
          "type": "string"
        }
      ],
      "stateMutability": "view",
      "type": "function"
    },
    {
      "inputs": [],
      "name": "basicProduction",
      "outputs": [
        {
          "internalType": "uint256",
          "name": "level",
          "type": "uint256"
        },
        {
          "internalType": "uint256",
          "name": "coefficient",
          "type": "uint256"
        }
      ],
      "stateMutability": "view",
      "type": "function"
    },
    {
      "inputs": [],
      "name": "buildingName",
      "outputs": [
        {
          "internalType": "string",
          "name": "",
          "type": "string"
        }
      ],
      "stateMutability": "view",
      "type": "function"
    },
    {
      "inputs": [
        {
          "internalType": "uint256",
          "name": "burnAmount",
          "type": "uint256"
        }
      ],
      "name": "burnTreasury",
      "outputs": [],
      "stateMutability": "nonpayable",
      "type": "function"
    },
    {
      "inputs": [],
      "name": "currentSettlement",
      "outputs": [
        {
          "internalType": "contract ISettlement",
          "name": "",
          "type": "address"
        }
      ],
      "stateMutability": "view",
      "type": "function"
    },
    {
      "inputs": [
        {
          "internalType": "uint256",
          "name": "capacityAmount",
          "type": "uint256"
        }
      ],
      "name": "decreaseAdditionalWorkersCapacityMultiplier",
      "outputs": [],
      "stateMutability": "nonpayable",
      "type": "function"
    },
    {
      "inputs": [],
      "name": "distributeToAllShareholders",
      "outputs": [],
      "stateMutability": "nonpayable",
      "type": "function"
    },
    {
      "inputs": [
        {
          "internalType": "address",
          "name": "holder",
          "type": "address"
        }
      ],
      "name": "distributeToSingleShareholder",
      "outputs": [],
      "stateMutability": "nonpayable",
      "type": "function"
    },
    {
      "inputs": [],
      "name": "distributionId",
      "outputs": [
        {
          "internalType": "uint256",
          "name": "",
          "type": "uint256"
        }
      ],
      "stateMutability": "view",
      "type": "function"
    },
    {
      "inputs": [],
      "name": "epoch",
      "outputs": [
        {
          "internalType": "contract IEpoch",
          "name": "",
          "type": "address"
        }
      ],
      "stateMutability": "view",
      "type": "function"
    },
    {
      "inputs": [],
      "name": "epochNumber",
      "outputs": [
        {
          "internalType": "uint256",
          "name": "",
          "type": "uint256"
        }
      ],
      "stateMutability": "view",
      "type": "function"
    },
    {
      "inputs": [
        {
          "internalType": "address",
          "name": "from",
          "type": "address"
        },
        {
          "internalType": "address",
          "name": "to",
          "type": "address"
        },
        {
          "internalType": "uint256",
          "name": "amount",
          "type": "uint256"
        }
      ],
      "name": "fixDebtAccordingToNewDistributionsAmounts",
      "outputs": [],
      "stateMutability": "nonpayable",
      "type": "function"
    },
    {
      "inputs": [],
      "name": "getAdditionalWorkersFromAdditionalWorkersCapacityMultiplier",
      "outputs": [
        {
          "internalType": "uint256",
          "name": "",
          "type": "uint256"
        }
      ],
      "stateMutability": "view",
      "type": "function"
    },
    {
      "inputs": [
        {
          "internalType": "uint256",
          "name": "level",
          "type": "uint256"
        }
      ],
      "name": "getAdvancedUpgradeCooldownDuration",
      "outputs": [
        {
          "internalType": "uint256",
          "name": "",
          "type": "uint256"
        }
      ],
      "stateMutability": "view",
      "type": "function"
    },
    {
      "inputs": [
        {
          "internalType": "uint256",
          "name": "level",
          "type": "uint256"
        }
      ],
      "name": "getBasicUpgradeCooldownDuration",
      "outputs": [
        {
          "internalType": "uint256",
          "name": "",
          "type": "uint256"
        }
      ],
      "stateMutability": "view",
      "type": "function"
    },
    {
      "inputs": [
        {
          "internalType": "uint256",
          "name": "level",
          "type": "uint256"
        }
      ],
      "name": "getBuildingCoefficient",
      "outputs": [
        {
          "internalType": "uint256",
          "name": "",
          "type": "uint256"
        }
      ],
      "stateMutability": "pure",
      "type": "function"
    },
    {
      "inputs": [],
      "name": "getBuildingLevel",
      "outputs": [
        {
          "internalType": "uint256",
          "name": "",
          "type": "uint256"
        }
      ],
      "stateMutability": "view",
      "type": "function"
    },
    {
      "inputs": [],
      "name": "getConfig",
      "outputs": [
        {
          "components": [
            {
              "internalType": "string",
              "name": "resourceName",
              "type": "string"
            },
            {
              "internalType": "uint256",
              "name": "perTick",
              "type": "uint256"
            },
            {
              "internalType": "bool",
              "name": "isProducing",
              "type": "bool"
            }
          ],
          "internalType": "struct IBuilding.InitialResourceBlock[]",
          "name": "initialResourceBlocks",
          "type": "tuple[]"
        }
      ],
      "stateMutability": "view",
      "type": "function"
    },
    {
      "inputs": [],
      "name": "getMaxAvailableForAdvancedProductionWorkers",
      "outputs": [
        {
          "internalType": "uint256",
          "name": "",
          "type": "uint256"
        }
      ],
      "stateMutability": "view",
      "type": "function"
    },
    {
      "inputs": [
        {
          "internalType": "uint256",
          "name": "level",
          "type": "uint256"
        }
      ],
      "name": "getMaxTreasuryByLevel",
      "outputs": [
        {
          "internalType": "uint256",
          "name": "",
          "type": "uint256"
        }
      ],
      "stateMutability": "view",
      "type": "function"
    },
    {
      "inputs": [],
      "name": "getMaxWorkers",
      "outputs": [
        {
          "internalType": "uint256",
          "name": "",
          "type": "uint256"
        }
      ],
      "stateMutability": "view",
      "type": "function"
    },
    {
      "inputs": [],
      "name": "getProducingResourceName",
      "outputs": [
        {
          "internalType": "string",
          "name": "",
          "type": "string"
        }
      ],
      "stateMutability": "view",
      "type": "function"
    },
    {
      "inputs": [
        {
          "internalType": "uint256",
          "name": "timestamp",
          "type": "uint256"
        }
      ],
      "name": "getProductionResult",
      "outputs": [
        {
          "components": [
            {
              "internalType": "string",
              "name": "resourceName",
              "type": "string"
            },
            {
              "internalType": "uint256",
              "name": "balanceChanges",
              "type": "uint256"
            },
            {
              "internalType": "bool",
              "name": "isProducing",
              "type": "bool"
            }
          ],
          "internalType": "struct IBuilding.ProductionResultItem[]",
          "name": "",
          "type": "tuple[]"
        }
      ],
      "stateMutability": "view",
      "type": "function"
    },
    {
      "inputs": [
        {
          "internalType": "string",
          "name": "_resourceName",
          "type": "string"
        },
        {
          "internalType": "uint256",
          "name": "_timestamp",
          "type": "uint256"
        }
      ],
      "name": "getResourcesAmount",
      "outputs": [
        {
          "internalType": "uint256",
          "name": "",
          "type": "uint256"
        }
      ],
      "stateMutability": "view",
      "type": "function"
    },
    {
      "inputs": [
        {
          "internalType": "uint256",
          "name": "timestamp",
          "type": "uint256"
        }
      ],
      "name": "getTreasury",
      "outputs": [
        {
          "internalType": "uint256",
          "name": "",
          "type": "uint256"
        }
      ],
      "stateMutability": "view",
      "type": "function"
    },
    {
      "inputs": [
        {
          "internalType": "uint256",
          "name": "level",
          "type": "uint256"
        }
      ],
      "name": "getUpgradePrice",
      "outputs": [
        {
          "internalType": "uint256",
          "name": "",
          "type": "uint256"
        }
      ],
      "stateMutability": "view",
      "type": "function"
    },
    {
      "inputs": [],
      "name": "getWorkers",
      "outputs": [
        {
          "internalType": "uint256",
          "name": "",
          "type": "uint256"
        }
      ],
      "stateMutability": "view",
      "type": "function"
    },
    {
      "inputs": [
        {
          "internalType": "uint256",
          "name": "capacityAmount",
          "type": "uint256"
        }
      ],
      "name": "increaseAdditionalWorkersCapacityMultiplier",
      "outputs": [],
      "stateMutability": "nonpayable",
      "type": "function"
    },
    {
      "inputs": [
        {
          "internalType": "address",
          "name": "settlementAddress",
          "type": "address"
        }
      ],
      "name": "init",
      "outputs": [],
      "stateMutability": "nonpayable",
      "type": "function"
    },
    {
      "inputs": [
        {
          "internalType": "string",
          "name": "_resourceName",
          "type": "string"
        }
      ],
      "name": "isResourceAcceptable",
      "outputs": [
        {
          "internalType": "bool",
          "name": "",
          "type": "bool"
        }
      ],
      "stateMutability": "view",
      "type": "function"
    },
    {
      "inputs": [
        {
          "internalType": "address",
          "name": "",
          "type": "address"
        }
      ],
      "name": "producedResourceDebt",
      "outputs": [
        {
          "internalType": "uint256",
          "name": "",
          "type": "uint256"
        }
      ],
      "stateMutability": "view",
      "type": "function"
    },
    {
      "inputs": [],
      "name": "production",
      "outputs": [
        {
          "internalType": "uint256",
          "name": "lastUpdateStateTime",
          "type": "uint256"
        },
        {
          "internalType": "uint256",
          "name": "lastUpdateStateZoneTime",
          "type": "uint256"
        },
        {
          "internalType": "uint256",
          "name": "readyToBeDistributed",
          "type": "uint256"
        }
      ],
      "stateMutability": "view",
      "type": "function"
    },
    {
      "inputs": [],
      "name": "productionResourcesChanged",
      "outputs": [],
      "stateMutability": "nonpayable",
      "type": "function"
    },
    {
      "inputs": [],
      "name": "prosperity",
      "outputs": [
        {
          "internalType": "uint256",
          "name": "",
          "type": "uint256"
        }
      ],
      "stateMutability": "view",
      "type": "function"
    },
    {
      "inputs": [],
      "name": "registry",
      "outputs": [
        {
          "internalType": "contract IRegistry",
          "name": "",
          "type": "address"
        }
      ],
      "stateMutability": "view",
      "type": "function"
    },
    {
      "inputs": [
        {
          "internalType": "address",
          "name": "workersReceiverAddress",
          "type": "address"
        },
        {
          "internalType": "uint256",
          "name": "workersAmount",
          "type": "uint256"
        },
        {
          "internalType": "address",
          "name": "resourcesReceiverAddress",
          "type": "address"
        },
        {
          "internalType": "string[]",
          "name": "resourceTypes",
          "type": "string[]"
        },
        {
          "internalType": "uint256[]",
          "name": "resourcesAmounts",
          "type": "uint256[]"
        }
      ],
      "name": "removeResourcesAndWorkers",
      "outputs": [],
      "stateMutability": "nonpayable",
      "type": "function"
    },
    {
      "inputs": [],
      "name": "resetDistribution",
      "outputs": [],
      "stateMutability": "nonpayable",
      "type": "function"
    },
    {
      "inputs": [
        {
          "internalType": "address",
          "name": "resourcesOwner",
          "type": "address"
        }
      ],
      "name": "startAdvancedUpgrade",
      "outputs": [],
      "stateMutability": "nonpayable",
      "type": "function"
    },
    {
      "inputs": [
        {
          "internalType": "address",
          "name": "resourcesOwner",
          "type": "address"
        }
      ],
      "name": "startBasicUpgrade",
      "outputs": [],
      "stateMutability": "nonpayable",
      "type": "function"
    },
    {
      "inputs": [
        {
          "internalType": "address",
          "name": "to",
          "type": "address"
        },
        {
          "internalType": "uint256",
          "name": "amountToSteal",
          "type": "uint256"
        }
      ],
      "name": "stealTreasury",
      "outputs": [
        {
          "internalType": "uint256",
          "name": "",
          "type": "uint256"
        }
      ],
      "stateMutability": "nonpayable",
      "type": "function"
    },
    {
      "inputs": [],
      "name": "updateState",
      "outputs": [],
      "stateMutability": "nonpayable",
      "type": "function"
    },
    {
      "inputs": [],
      "name": "upgradeCooldownFinishTime",
      "outputs": [
        {
          "internalType": "uint256",
          "name": "",
          "type": "uint256"
        }
      ],
      "stateMutability": "view",
      "type": "function"
    },
    {
      "inputs": [],
      "name": "world",
      "outputs": [
        {
          "internalType": "contract IWorld",
          "name": "",
          "type": "address"
        }
      ],
      "stateMutability": "view",
      "type": "function"
    }
  ],
  "transactionHash": "0x734940de16e78ce99a5603a3926568b013df56b43207a494310d7c1ef4f42144",
  "args": [],
  "numDeployments": 1,
  "solcInputHash": "d40fd766cc3fa0d4c836779e74bc4f2f",
  "bytecode": "0x608060405234801561001057600080fd5b50615e2d80620000216000396000f3fe608060405234801561001057600080fd5b50600436106102ce5760003560e01c80638545bc581161018c578063c55b31ce116100ee578063e91bde7611610097578063fb2018d911610071578063fb2018d9146105c9578063fe7f15ef146105dc578063ffaf29a0146105f557600080fd5b8063e91bde7614610599578063f2477b5b146105ac578063f4145a83146105b457600080fd5b8063c9c0df61116100c8578063c9c0df611461057f578063d2bc7d8514610588578063e64582911461059057600080fd5b8063c55b31ce14610543578063c724a01614610556578063c91b95661461057657600080fd5b8063adcd294011610150578063b78d13841161012a578063b78d138414610513578063c1499f7114610526578063c3f909d41461052e57600080fd5b8063adcd2940146104da578063ae6fd51d146104ed578063af04eb421461050057600080fd5b80638545bc581461047f5780638beab87e14610487578063900cf0cf146104a75780639a9402a1146104af5780639abb3cae146104d257600080fd5b80633fe3347a11610235578063589ae400116101f95780637abdf949116101d35780637abdf949146104515780637b103999146104645780637b7a2bfc1461046c57600080fd5b8063589ae400146104225780635ed697b71461043557806365e6f4ce1461044957600080fd5b80633fe3347a146103e457806343e77f46146103ec5780634500dbeb146103ff5780634ace91d014610407578063575bceda1461041a57600080fd5b806319ab453c1161029757806330b67baa1161027157806330b67baa146103a957806339c8a95a146103c95780633c084b8b146103d157600080fd5b806319ab453c146103865780631d8557d71461039957806324db272a146103a157600080fd5b8062d4fbf8146102d357806302e68b94146102f957806305e88b691461030e578063115112ab1461033b57806314dff0e814610350575b600080fd5b6102e66102e136600461559b565b610618565b6040519081526020015b60405180910390f35b61030c6103073660046155cc565b61069f565b005b600954600a54600b5461032092919083565b604080519384526020840192909252908201526060016102f0565b610343610d01565b6040516102f0919061562f565b6003546004546005546006546103669392919084565b6040805194855260208501939093529183015260608201526080016102f0565b61030c6103943660046155cc565b610d10565b61030c6110db565b610343611485565b6103b1611510565b6040516001600160a01b0390911681526020016102f0565b6102e6611543565b6102e66103df36600461559b565b6115cd565b610343611601565b61030c6103fa36600461559b565b6116b5565b61030c6117df565b61030c610415366004615642565b6117f4565b6102e66119fd565b6102e6610430366004615683565b611a19565b6102e661044336600461559b565b50600090565b61030c611ea5565b6102e661045f36600461559b565b6122a9565b6103b1612307565b61030c61047a3660046155cc565b612372565b6102e661267e565b61049a61049536600461559b565b612690565b6040516102f091906156e6565b6103b1612a49565b6104c26104bd3660046157f2565b612ab2565b60405190151581526020016102f0565b610343612b23565b6102e66104e836600461559b565b612b54565b61030c6104fb36600461559b565b612b67565b61030c61050e3660046155cc565b612ce0565b61030c61052136600461559b565b6132f3565b6102e661358d565b610536613662565b6040516102f0919061582f565b6102e6610551366004615884565b613820565b6102e66105643660046155cc565b600d6020526000908152604090205481565b6102e660085481565b6102e6600c5481565b61030c613ba7565b6102e660075481565b6102e66105a736600461559b565b613ccc565b6102e6613d52565b600080516020615dd8833981519152546102e6565b61030c6105d7366004615915565b613e86565b6000546103b1906201000090046001600160a01b031681565b600154600254610603919082565b604080519283526020830191909152016102f0565b6000610622612307565b6001600160a01b031663781e0efe6040518163ffffffff1660e01b8152600401602060405180830381865afa15801561065f573d6000803e3d6000fd5b505050506040513d601f19601f8201168201806040525081019061068391906159b4565b61068f836154606159e3565b6106999190615a02565b92915050565b60006106a9611510565b6001600160a01b0316637aa873346040518163ffffffff1660e01b8152600401602060405180830381865afa1580156106e6573d6000803e3d6000fd5b505050506040513d601f19601f8201168201806040525081019061070a91906159b4565b905080158061071857508042105b6107575760405162461bcd60e51b815260206004820152600b60248201526a19d85b594818db1bdcd95960aa1b60448201526064015b60405180910390fd5b600054604051631b0b969d60e01b8152336004820152620100009091046001600160a01b031690631b0b969d90602401602060405180830381865afa1580156107a4573d6000803e3d6000fd5b505050506040513d601f19601f820116820180604052508101906107c89190615a24565b806107eb57506107d6611510565b6001600160a01b0316336001600160a01b0316145b80610888575060006107fb611510565b6001600160a01b031663ebbe803461081f600080516020615dd88339815191525490565b6040516001600160e01b031960e084901b1681526004810191909152336024820152604401602060405180830381865afa158015610861573d6000803e3d6000fd5b505050506040513d601f19601f8201168201806040525081019061088591906159b4565b14155b6108a45760405162461bcd60e51b815260040161074e90615a46565b6108ac6110db565b6007546108b76140ad565b10156108f95760405162461bcd60e51b8152602060048201526011602482015270616c726561647920757067726164696e6760781b604482015260640161074e565b600061090361267e565b90506000610910826122a9565b6040805180820190915260038152624f524560e81b60208201529091506001600160a01b038516610a1657610943612a49565b6001600160a01b03166304f86f3c826040518263ffffffff1660e01b815260040161096e919061562f565b602060405180830381865afa15801561098b573d6000803e3d6000fd5b505050506040513d601f19601f820116820180604052508101906109af9190615a88565b60405163079cc67960e41b8152336004820152602481018490526001600160a01b0391909116906379cc679090604401600060405180830381600087803b1580156109f957600080fd5b505af1158015610a0d573d6000803e3d6000fd5b50505050610b5c565b6000610a20612a49565b6001600160a01b03166304f86f3c836040518263ffffffff1660e01b8152600401610a4b919061562f565b602060405180830381865afa158015610a68573d6000803e3d6000fd5b505050506040513d601f19601f82011682018060405250810190610a8c9190615a88565b60405163dd8aaa4f60e01b81526001600160a01b038881166004830152336024830152604482018690529192509082169063dd8aaa4f90606401600060405180830381600087803b158015610ae057600080fd5b505af1158015610af4573d6000803e3d6000fd5b505060405163079cc67960e41b81526001600160a01b03898116600483015260248201879052841692506379cc67909150604401600060405180830381600087803b158015610b4257600080fd5b505af1158015610b56573d6000803e3d6000fd5b50505050505b600060029054906101000a90046001600160a01b03166001600160a01b03166341c525536040518163ffffffff1660e01b8152600401602060405180830381865afa158015610baf573d6000803e3d6000fd5b505050506040513d601f19601f82011682018060405250810190610bd39190615a88565b600054604051636e08f72160e01b81526001600160a01b0392831692636e08f72192610c1092620100009091049091169085908790600401615aa5565b600060405180830381600087803b158015610c2a57600080fd5b505af1158015610c3e573d6000803e3d6000fd5b50505050610c4a600090565b610c549042615ad7565b6007556000610c64846001615ad7565b9050600160036000016000828254610c7c9190615ad7565b9091555060009050610c8d85613ccc565b610c9683613ccc565b610ca09190615aea565b90508060036001016000828254610cb79190615ad7565b90915550610cc5905061413a565b6040518281527f3522cf3459e241a649e558e6164f7286e55468f8ba273170ece2a4716fc9f4969060200160405180910390a150505050505050565b6060610d0b611601565b905090565b600054610100900460ff1615808015610d305750600054600160ff909116105b80610d4a5750303b158015610d4a575060005460ff166001145b610dad5760405162461bcd60e51b815260206004820152602e60248201527f496e697469616c697a61626c653a20636f6e747261637420697320616c72656160448201526d191e481a5b9a5d1a585b1a5e995960921b606482015260840161074e565b6000805460ff191660011790558015610dd0576000805461ff0019166101001790555b6000805475ffffffffffffffffffffffffffffffffffffffff00001916620100006001600160a01b03851602178155600180805560028190556003819055600455610e196140ad565b905080600960000181905550600060029054906101000a90046001600160a01b03166001600160a01b03166341c525536040518163ffffffff1660e01b8152600401602060405180830381865afa158015610e78573d6000803e3d6000fd5b505050506040513d601f19601f82011682018060405250810190610e9c9190615a88565b6001600160a01b031663d635bb8f826040518263ffffffff1660e01b8152600401610ec991815260200190565b602060405180830381865afa158015610ee6573d6000803e3d6000fd5b505050506040513d601f19601f82011682018060405250810190610f0a91906159b4565b600a55610f15612307565b6001600160a01b031663636d6854610f2b610d01565b6040518263ffffffff1660e01b8152600401610f47919061562f565b602060405180830381865afa158015610f64573d6000803e3d6000fd5b505050506040513d601f19601f82011682018060405250810190610f889190615a24565b1561108857610f95612a49565b6001600160a01b03166304f86f3c610fab611485565b6040518263ffffffff1660e01b8152600401610fc7919061562f565b602060405180830381865afa158015610fe4573d6000803e3d6000fd5b505050506040513d601f19601f820116820180604052508101906110089190615a88565b6001600160a01b03166340c10f19306110226103df61267e565b6040516001600160e01b031960e085901b1681526001600160a01b0390921660048301526024820152604401600060405180830381600087803b15801561106857600080fd5b505af115801561107c573d6000803e3d6000fd5b5050505061108861413a565b611090614507565b5080156110d7576000805461ff0019169055604051600181527f7f26b83ff96e1f2b6a682f133852f6798a09c465da95921460cefb38474024989060200160405180910390a15b5050565b600060029054906101000a90046001600160a01b03166001600160a01b03166341c525536040518163ffffffff1660e01b8152600401602060405180830381865afa15801561112e573d6000803e3d6000fd5b505050506040513d601f19601f820116820180604052508101906111529190615a88565b6001600160a01b0316631d8557d76040518163ffffffff1660e01b8152600401600060405180830381600087803b15801561118c57600080fd5b505af11580156111a0573d6000803e3d6000fd5b5050505060006111ae6140ad565b905080600960000154036111bf5750565b60006111ca82612690565b905081600960000181905550600060029054906101000a90046001600160a01b03166001600160a01b03166341c525536040518163ffffffff1660e01b8152600401602060405180830381865afa158015611229573d6000803e3d6000fd5b505050506040513d601f19601f8201168201806040525081019061124d9190615a88565b6001600160a01b031663d635bb8f836040518263ffffffff1660e01b815260040161127a91815260200190565b602060405180830381865afa158015611297573d6000803e3d6000fd5b505050506040513d601f19601f820116820180604052508101906112bb91906159b4565b600a5560005b815181101561147c578181815181106112dc576112dc615afd565b6020026020010151602001516000031561146a5781818151811061130257611302615afd565b6020026020010151604001511561135c5761135782828151811061132857611328615afd565b60200260200101516000015183838151811061134657611346615afd565b602002602001015160200151614780565b61146a565b611364612a49565b6001600160a01b03166304f86f3c83838151811061138457611384615afd565b6020026020010151600001516040518263ffffffff1660e01b81526004016113ac919061562f565b602060405180830381865afa1580156113c9573d6000803e3d6000fd5b505050506040513d601f19601f820116820180604052508101906113ed9190615a88565b6001600160a01b03166342966c6883838151811061140d5761140d615afd565b6020026020010151602001516040518263ffffffff1660e01b815260040161143791815260200190565b600060405180830381600087803b15801561145157600080fd5b505af1158015611465573d6000803e3d6000fd5b505050505b8061147481615b13565b9150506112c1565b506110d761413a565b60606000611491613662565b905060005b81518110156114f9578181815181106114b1576114b1615afd565b602002602001015160400151156114e7578181815181106114d4576114d4615afd565b6020026020010151600001519250505090565b806114f181615b13565b915050611496565b506040518060200160405280600081525091505090565b6000610d0b7f6c85b93e587873fbe6712f3b438d42c2945689b262f7bd34b8ea4e3f832a89e6546001600160a01b031690565b600061154d612307565b6001600160a01b031663265d3f50611563610d01565b6040518263ffffffff1660e01b815260040161157f919061562f565b602060405180830381865afa15801561159c573d6000803e3d6000fd5b505050506040513d601f19601f820116820180604052508101906115c091906159b4565b600454610d0b91906159e3565b600060026115da83613ccc565b6115e49190615c10565b6115ef90600a6159e3565b61069990670de0b6b3a76400006159e3565b60607f6c85b93e587873fbe6712f3b438d42c2945689b262f7bd34b8ea4e3f832a89e6600401805461163290615c1f565b80601f016020809104026020016040519081016040528092919081815260200182805461165e90615c1f565b80156116ab5780601f10611680576101008083540402835291602001916116ab565b820191906000526020600020905b81548152906001019060200180831161168e57829003601f168201915b5050505050905090565b6116bd611510565b6001600160a01b0316336001600160a01b0316148061176e575060006116e1611510565b6001600160a01b031663ebbe8034611705600080516020615dd88339815191525490565b6040516001600160e01b031960e084901b1681526004810191909152336024820152604401602060405180830381865afa158015611747573d6000803e3d6000fd5b505050506040513d601f19601f8201168201806040525081019061176b91906159b4565b14155b6117ba5760405162461bcd60e51b815260206004820152601b60248201527f6f6e6c79576f726c64417373657446726f6d53616d6545706f63680000000000604482015260640161074e565b6117c26110db565b80600360020160008282546117d79190615aea565b909155505050565b6117e761413a565b6117ef614b34565b600655565b336117fd611510565b6001600160a01b031663e4e940f06040518163ffffffff1660e01b8152600401602060405180830381865afa15801561183a573d6000803e3d6000fd5b505050506040513d601f19601f8201168201806040525081019061185e9190615a88565b6001600160a01b0316146118a85760405162461bcd60e51b81526020600482015260116024820152706f6e6c79446973747269627574696f6e7360781b604482015260640161074e565b60006118b2611510565b6001600160a01b031663e4e940f06040518163ffffffff1660e01b8152600401602060405180830381865afa1580156118ef573d6000803e3d6000fd5b505050506040513d601f19601f820116820180604052508101906119139190615a88565b6001600160a01b03166302705c2e6040518163ffffffff1660e01b8152600401602060405180830381865afa158015611950573d6000803e3d6000fd5b505050506040513d601f19601f8201168201806040525081019061197491906159b4565b600b546119829084906159e3565b61198c9190615a02565b90508060000361199c5750505050565b6001600160a01b0384166000908152600d6020526040812080548392906119c4908490615aea565b90915550506001600160a01b0383166000908152600d6020526040812080548392906119f1908490615ad7565b9091555050505b505050565b6000611a07613d52565b611a0f611543565b610d0b9190615aea565b600080611a24611510565b6001600160a01b0316637aa873346040518163ffffffff1660e01b8152600401602060405180830381865afa158015611a61573d6000803e3d6000fd5b505050506040513d601f19601f82011682018060405250810190611a8591906159b4565b9050801580611a9357508042105b611acd5760405162461bcd60e51b815260206004820152600b60248201526a19d85b594818db1bdcd95960aa1b604482015260640161074e565b611ad5611510565b6001600160a01b0316336001600160a01b03161480611b8657506000611af9611510565b6001600160a01b031663ebbe8034611b1d600080516020615dd88339815191525490565b6040516001600160e01b031960e084901b1681526004810191909152336024820152604401602060405180830381865afa158015611b5f573d6000803e3d6000fd5b505050506040513d601f19601f82011682018060405250810190611b8391906159b4565b14155b611bd25760405162461bcd60e51b815260206004820152601b60248201527f6f6e6c79576f726c64417373657446726f6d53616d6545706f63680000000000604482015260640161074e565b611bda6110db565b6000611be4612a49565b6001600160a01b03166304f86f3c611bfa611485565b6040518263ffffffff1660e01b8152600401611c16919061562f565b602060405180830381865afa158015611c33573d6000803e3d6000fd5b505050506040513d601f19601f82011682018060405250810190611c579190615a88565b6040516375719b0160e11b81523060048201526001600160a01b03919091169063eae3360290602401602060405180830381865afa158015611c9d573d6000803e3d6000fd5b505050506040513d601f19601f82011682018060405250810190611cc191906159b4565b90506000611cd9611cd36103df61267e565b83614cc6565b905080600003611cee57600093505050611e9e565b611cf88186614cc6565b94506000670de0b6b3a7640000611d0d612307565b6001600160a01b031663355bb5296040518163ffffffff1660e01b8152600401602060405180830381865afa158015611d4a573d6000803e3d6000fd5b505050506040513d601f19601f82011682018060405250810190611d6e91906159b4565b611d7890886159e3565b611d829190615a02565b90506000611d8e612a49565b6001600160a01b03166304f86f3c611da4611485565b6040518263ffffffff1660e01b8152600401611dc0919061562f565b602060405180830381865afa158015611ddd573d6000803e3d6000fd5b505050506040513d601f19601f82011682018060405250810190611e019190615a88565b90506001600160a01b03811663a9059cbb89611e1d858b615aea565b6040516001600160e01b031960e085901b1681526001600160a01b03909216600483015260248201526044016020604051808303816000875af1158015611e68573d6000803e3d6000fd5b505050506040513d601f19601f82011682018060405250810190611e8c9190615a24565b50611e96826132f3565b869550505050505b5092915050565b611ead6110db565b600b546000611eba611485565b90506000611ec6612a49565b6001600160a01b03166304f86f3c836040518263ffffffff1660e01b8152600401611ef1919061562f565b602060405180830381865afa158015611f0e573d6000803e3d6000fd5b505050506040513d601f19601f82011682018060405250810190611f329190615a88565b90506000611f3e611510565b6001600160a01b031663e4e940f06040518163ffffffff1660e01b8152600401602060405180830381865afa158015611f7b573d6000803e3d6000fd5b505050506040513d601f19601f82011682018060405250810190611f9f9190615a88565b90506000816001600160a01b03166302705c2e6040518163ffffffff1660e01b8152600401602060405180830381865afa158015611fe1573d6000803e3d6000fd5b505050506040513d601f19601f8201168201806040525081019061200591906159b4565b90506000612011611510565b6001600160a01b031663e4e940f06040518163ffffffff1660e01b8152600401602060405180830381865afa15801561204e573d6000803e3d6000fd5b505050506040513d601f19601f820116820180604052508101906120729190615a88565b6001600160a01b03166361a5d38c600c546040518263ffffffff1660e01b81526004016120a191815260200190565b600060405180830381865afa1580156120be573d6000803e3d6000fd5b505050506040513d6000823e601f3d908101601f191682016040526120e69190810190615c59565b905060005b815181101561229b57600082828151811061210857612108615afd565b6020908102919091018101516001600160a01b038082166000818152600d8552604080822054600c548251627eeac760e11b815260048101959095526024850152905194965094909385938a93908c169262fdd58e926044808401938290030181865afa15801561217d573d6000803e3d6000fd5b505050506040513d601f19601f820116820180604052508101906121a191906159b4565b6121ab908d6159e3565b6121b59190615a02565b6121bf9190615aea565b905081156121e1576001600160a01b0383166000908152600d60205260408120555b8015612285576040516340c10f1960e01b81526001600160a01b038481166004830152602482018390528916906340c10f1990604401600060405180830381600087803b15801561223157600080fd5b505af1158015612245573d6000803e3d6000fd5b505050507f47614c4f34cc07c5070ccad2038840984d1d138209aa8dcc40eac778c1b54c9c89848360405161227c93929190615d0b565b60405180910390a15b505050808061229390615b13565b9150506120eb565b50506000600b555050505050565b6000806122b5836115cd565b905060006122c76103df856001615ad7565b9050600060646122d884604b6159e3565b6122e29190615a02565b905060006122f08284615aea565b90506122fd600682615a02565b9695505050505050565b6000612311611510565b6001600160a01b0316637b1039996040518163ffffffff1660e01b8152600401602060405180830381865afa15801561234e573d6000803e3d6000fd5b505050506040513d601f19601f82011682018060405250810190610d0b9190615a88565b61237a6110db565b6000612384611510565b6001600160a01b031663e4e940f06040518163ffffffff1660e01b8152600401602060405180830381865afa1580156123c1573d6000803e3d6000fd5b505050506040513d601f19601f820116820180604052508101906123e59190615a88565b600c54604051627eeac760e11b81526001600160a01b03858116600483015260248201929092529192506000919083169062fdd58e90604401602060405180830381865afa15801561243b573d6000803e3d6000fd5b505050506040513d601f19601f8201168201806040525081019061245f91906159b4565b90508060000361246e57505050565b6000600d6000856001600160a01b03166001600160a01b0316815260200190815260200160002054836001600160a01b03166302705c2e6040518163ffffffff1660e01b8152600401602060405180830381865afa1580156124d4573d6000803e3d6000fd5b505050506040513d601f19601f820116820180604052508101906124f891906159b4565b600b546125069085906159e3565b6125109190615a02565b61251a9190615aea565b90508060000361252a5750505050565b6001600160a01b0384166000908152600d602052604081208054839290612552908490615ad7565b9091555060009050612562611485565b905061256c612a49565b6001600160a01b03166304f86f3c826040518263ffffffff1660e01b8152600401612597919061562f565b602060405180830381865afa1580156125b4573d6000803e3d6000fd5b505050506040513d601f19601f820116820180604052508101906125d89190615a88565b6040516340c10f1960e01b81526001600160a01b0387811660048301526024820185905291909116906340c10f1990604401600060405180830381600087803b15801561262457600080fd5b505af1158015612638573d6000803e3d6000fd5b505050507f47614c4f34cc07c5070ccad2038840984d1d138209aa8dcc40eac778c1b54c9c81868460405161266f93929190615d0b565b60405180910390a15050505050565b600354600154600091610d0b91615ad7565b60608160000361269e574291505b60006126a8611510565b6001600160a01b0316637aa873346040518163ffffffff1660e01b8152600401602060405180830381865afa1580156126e5573d6000803e3d6000fd5b505050506040513d601f19601f8201168201806040525081019061270991906159b4565b9050801561271e5761271b8382614cc6565b92505b6000612728613662565b90506000815167ffffffffffffffff8111156127465761274661573b565b60405190808252806020026020018201604052801561279d57816020015b61278a604051806060016040528060608152602001600081526020016000151581525090565b8152602001906001900390816127645790505b50905060005b82518110156128345760405180606001604052808483815181106127c9576127c9615afd565b6020026020010151600001518152602001600081526020018483815181106127f3576127f3615afd565b602002602001015160400151151581525082828151811061281657612816615afd565b6020026020010181905250808061282c90615b13565b9150506127a3565b50600954851161284657949350505050565b60008060029054906101000a90046001600160a01b03166001600160a01b03166341c525536040518163ffffffff1660e01b8152600401602060405180830381865afa15801561289a573d6000803e3d6000fd5b505050506040513d601f19601f820116820180604052508101906128be9190615a88565b6001600160a01b031663d635bb8f876040518263ffffffff1660e01b81526004016128eb91815260200190565b602060405180830381865afa158015612908573d6000803e3d6000fd5b505050506040513d601f19601f8201168201806040525081019061292c91906159b4565b9050600061293f60096001015483614cde565b90506000612957600960010154846003800154614da5565b905060005b8551811015612a3c578186828151811061297857612978615afd565b60200260200101516020015161298e91906159e3565b8582815181106129a0576129a0615afd565b602002602001015160200181815250508481815181106129c2576129c2615afd565b60200260200101516040015115612a2a57828682815181106129e6576129e6615afd565b6020026020010151602001516129fc91906159e3565b858281518110612a0e57612a0e615afd565b6020026020010151602001818151612a269190615ad7565b9052505b80612a3481615b13565b91505061295c565b5092979650505050505050565b6000612a53611510565b6001600160a01b031663c6b61e4c612a77600080516020615dd88339815191525490565b6040518263ffffffff1660e01b8152600401612a9591815260200190565b602060405180830381865afa15801561234e573d6000803e3d6000fd5b600080612abd613662565b905060005b8151811015612b19578380519060200120828281518110612ae557612ae5615afd565b6020026020010151600001518051906020012003612b07575060019392505050565b80612b1181615b13565b915050612ac2565b5060009392505050565b60607f6c85b93e587873fbe6712f3b438d42c2945689b262f7bd34b8ea4e3f832a89e6600301805461163290615c1f565b6000610699612b61611485565b83613820565b612b6f611510565b6001600160a01b0316336001600160a01b03161480612c2057506000612b93611510565b6001600160a01b031663ebbe8034612bb7600080516020615dd88339815191525490565b6040516001600160e01b031960e084901b1681526004810191909152336024820152604401602060405180830381865afa158015612bf9573d6000803e3d6000fd5b505050506040513d601f19601f82011682018060405250810190612c1d91906159b4565b14155b612c6c5760405162461bcd60e51b815260206004820152601b60248201527f6f6e6c79576f726c64417373657446726f6d53616d6545706f63680000000000604482015260640161074e565b612c746110db565b8060036002016000828254612c899190615ad7565b9091555060009050612c996119fd565b90506000612ca561358d565b9050818111156119f8576000612cbb8383615aea565b600054909150612cda906201000090046001600160a01b031682614e7f565b50505050565b6000612cea611510565b6001600160a01b0316637aa873346040518163ffffffff1660e01b8152600401602060405180830381865afa158015612d27573d6000803e3d6000fd5b505050506040513d601f19601f82011682018060405250810190612d4b91906159b4565b9050801580612d5957508042105b612d935760405162461bcd60e51b815260206004820152600b60248201526a19d85b594818db1bdcd95960aa1b604482015260640161074e565b600054604051631b0b969d60e01b8152336004820152620100009091046001600160a01b031690631b0b969d90602401602060405180830381865afa158015612de0573d6000803e3d6000fd5b505050506040513d601f19601f82011682018060405250810190612e049190615a24565b80612e275750612e12611510565b6001600160a01b0316336001600160a01b0316145b80612ec457506000612e37611510565b6001600160a01b031663ebbe8034612e5b600080516020615dd88339815191525490565b6040516001600160e01b031960e084901b1681526004810191909152336024820152604401602060405180830381865afa158015612e9d573d6000803e3d6000fd5b505050506040513d601f19601f82011682018060405250810190612ec191906159b4565b14155b612ee05760405162461bcd60e51b815260040161074e90615a46565b612ee86110db565b600754612ef36140ad565b1015612f355760405162461bcd60e51b8152602060048201526011602482015270616c726561647920757067726164696e6760781b604482015260640161074e565b6000612f3f61267e565b90506000612f4c826122a9565b60408051808201909152600481526315d3d3d160e21b60208201529091506001600160a01b03851661305357612f80612a49565b6001600160a01b03166304f86f3c826040518263ffffffff1660e01b8152600401612fab919061562f565b602060405180830381865afa158015612fc8573d6000803e3d6000fd5b505050506040513d601f19601f82011682018060405250810190612fec9190615a88565b60405163079cc67960e41b8152336004820152602481018490526001600160a01b0391909116906379cc679090604401600060405180830381600087803b15801561303657600080fd5b505af115801561304a573d6000803e3d6000fd5b50505050613199565b600061305d612a49565b6001600160a01b03166304f86f3c836040518263ffffffff1660e01b8152600401613088919061562f565b602060405180830381865afa1580156130a5573d6000803e3d6000fd5b505050506040513d601f19601f820116820180604052508101906130c99190615a88565b60405163dd8aaa4f60e01b81526001600160a01b038881166004830152336024830152604482018690529192509082169063dd8aaa4f90606401600060405180830381600087803b15801561311d57600080fd5b505af1158015613131573d6000803e3d6000fd5b505060405163079cc67960e41b81526001600160a01b03898116600483015260248201879052841692506379cc67909150604401600060405180830381600087803b15801561317f57600080fd5b505af1158015613193573d6000803e3d6000fd5b50505050505b600060029054906101000a90046001600160a01b03166001600160a01b03166341c525536040518163ffffffff1660e01b8152600401602060405180830381865afa1580156131ec573d6000803e3d6000fd5b505050506040513d601f19601f820116820180604052508101906132109190615a88565b600054604051636e08f72160e01b81526001600160a01b0392831692636e08f7219261324d92620100009091049091169085908790600401615aa5565b600060405180830381600087803b15801561326757600080fd5b505af115801561327b573d6000803e3d6000fd5b5050505061328883610618565b6132929042615ad7565b60075560006132a2846001615ad7565b905060018060000160008282546132b99190615ad7565b90915550600090506132ca85613ccc565b6132d383613ccc565b6132dd9190615aea565b905080600180016000828254610cb79190615ad7565b60006132fd611510565b6001600160a01b0316637aa873346040518163ffffffff1660e01b8152600401602060405180830381865afa15801561333a573d6000803e3d6000fd5b505050506040513d601f19601f8201168201806040525081019061335e91906159b4565b905080158061336c57508042105b6133a65760405162461bcd60e51b815260206004820152600b60248201526a19d85b594818db1bdcd95960aa1b604482015260640161074e565b6133ae611510565b6001600160a01b0316336001600160a01b0316148061345f575060006133d2611510565b6001600160a01b031663ebbe80346133f6600080516020615dd88339815191525490565b6040516001600160e01b031960e084901b1681526004810191909152336024820152604401602060405180830381865afa158015613438573d6000803e3d6000fd5b505050506040513d601f19601f8201168201806040525081019061345c91906159b4565b14155b6134ab5760405162461bcd60e51b815260206004820152601b60248201527f6f6e6c79576f726c64417373657446726f6d53616d6545706f63680000000000604482015260640161074e565b60006134b5612a49565b6001600160a01b03166304f86f3c6134cb611485565b6040518263ffffffff1660e01b81526004016134e7919061562f565b602060405180830381865afa158015613504573d6000803e3d6000fd5b505050506040513d601f19601f820116820180604052508101906135289190615a88565b604051630852cd8d60e31b8152600481018590529091506001600160a01b038216906342966c6890602401600060405180830381600087803b15801561356d57600080fd5b505af1158015613581573d6000803e3d6000fd5b505050506119f861413a565b6000613597612a49565b6001600160a01b031663cabb62f06040518163ffffffff1660e01b8152600401602060405180830381865afa1580156135d4573d6000803e3d6000fd5b505050506040513d601f19601f820116820180604052508101906135f89190615a88565b6040516370a0823160e01b81523060048201526001600160a01b0391909116906370a0823190602401602060405180830381865afa15801561363e573d6000803e3d6000fd5b505050506040513d601f19601f82011682018060405250810190610d0b91906159b4565b60408051600380825260808201909252606091816020015b6136a0604051806060016040528060608152602001600081526020016000151581525090565b81526020019060019003908161367a5750506040805160a08101909152600460608201908152631193d3d160e21b60808301528152909150602081016127106136f462015180678ac7230489e80000615a02565b6136fe9190615a02565b8152602001600015158152508160008151811061371d5761371d615afd565b602002602001018190525060405180606001604052806040518060400160405280600481526020016315d3d3d160e21b815250815260200161271062015180678ac7230489e8000061376f9190615a02565b6137799190615a02565b8152602001600015158152508160018151811061379857613798615afd565b60200260200101819052506040518060600160405280604051806040016040528060038152602001624f524560e81b815250815260200161271062015180678ac7230489e800006137e99190615a02565b6137f39190615a02565b8152602001600115158152508160028151811061381257613812615afd565b602002602001018190525090565b60008061382c83612690565b8451602086012090915060005b8251811015613b9b578183828151811061385557613855615afd565b6020026020010151600001518051906020012003613b895782818151811061387f5761387f615afd565b60200260200101516040015115613a7957600061389d6103df61267e565b9050806000036138b4576000945050505050610699565b6000670de0b6b3a76400006138c7612307565b6001600160a01b0316636f3426da6040518163ffffffff1660e01b8152600401602060405180830381865afa158015613904573d6000803e3d6000fd5b505050506040513d601f19601f8201168201806040525081019061392891906159b4565b86858151811061393a5761393a615afd565b60200260200101516020015161395091906159e3565b61395a9190615a02565b90506000613966612a49565b6001600160a01b03166304f86f3c61397c611485565b6040518263ffffffff1660e01b8152600401613998919061562f565b602060405180830381865afa1580156139b5573d6000803e3d6000fd5b505050506040513d601f19601f820116820180604052508101906139d99190615a88565b6040516375719b0160e11b81523060048201526001600160a01b03919091169063eae3360290602401602060405180830381865afa158015613a1f573d6000803e3d6000fd5b505050506040513d601f19601f82011682018060405250810190613a4391906159b4565b9050828110613a59579550610699945050505050565b613a6c613a668284615ad7565b84614cc6565b9650505050505050610699565b828181518110613a8b57613a8b615afd565b602002602001015160200151613a9f612a49565b6001600160a01b03166304f86f3c886040518263ffffffff1660e01b8152600401613aca919061562f565b602060405180830381865afa158015613ae7573d6000803e3d6000fd5b505050506040513d601f19601f82011682018060405250810190613b0b9190615a88565b6040516375719b0160e11b81523060048201526001600160a01b03919091169063eae3360290602401602060405180830381865afa158015613b51573d6000803e3d6000fd5b505050506040513d601f19601f82011682018060405250810190613b7591906159b4565b613b7f9190615aea565b9350505050610699565b80613b9381615b13565b915050613839565b50600095945050505050565b60005460408051635ad66a2b60e11b8152905133926201000090046001600160a01b03169163b5acd4569160048083019260209291908290030181865afa158015613bf6573d6000803e3d6000fd5b505050506040513d601f19601f82011682018060405250810190613c1a9190615a88565b6001600160a01b031614613c665760405162461bcd60e51b815260206004820152601360248201527237b7363ca9b2ba3a3632b6b2b73a27bbb732b960691b604482015260640161074e565b613c6e614f5d565b613cba5760405162461bcd60e51b815260206004820152601860248201527f546f6b656e20726563616c6c206e6f7420616c6c6f7765640000000000000000604482015260640161074e565b613cc2611ea5565b613cca614507565b565b6000600581613cdb8285615a02565b90506000613ce983836159e3565b613cf39086615aea565b9050600083600284613d06816001615ad7565b613d1091906159e3565b613d1a9190615a02565b613d2491906159e3565b90506000613d33846001615ad7565b613d3d90846159e3565b613d479083615ad7565b979650505050505050565b600080613dcc600360020154613d66612307565b6001600160a01b0316637a893af56040518163ffffffff1660e01b8152600401602060405180830381865afa158015613da3573d6000803e3d6000fd5b505050506040513d601f19601f82011682018060405250810190613dc791906159b4565b614cc6565b90506000613dd8611543565b905073365B81B494a99F1DAA778eaeA0BEbc950E8bE53663eefe4284670de0b6b3a7640000613e0785856159e3565b613e119190615a02565b6040516001600160e01b031960e084901b1681526004810191909152670de0b6b3a76400006024820152604401602060405180830381865af4158015613e5b573d6000803e3d6000fd5b505050506040513d601f19601f82011682018060405250810190613e7f91906159b4565b9250505090565b6000613e90611510565b6001600160a01b0316637aa873346040518163ffffffff1660e01b8152600401602060405180830381865afa158015613ecd573d6000803e3d6000fd5b505050506040513d601f19601f82011682018060405250810190613ef191906159b4565b9050801580613eff57508042105b613f395760405162461bcd60e51b815260206004820152600b60248201526a19d85b594818db1bdcd95960aa1b604482015260640161074e565b600054604051631b0b969d60e01b8152336004820152620100009091046001600160a01b031690631b0b969d90602401602060405180830381865afa158015613f86573d6000803e3d6000fd5b505050506040513d601f19601f82011682018060405250810190613faa9190615a24565b80613fcd5750613fb8611510565b6001600160a01b0316336001600160a01b0316145b8061406a57506000613fdd611510565b6001600160a01b031663ebbe8034614001600080516020615dd88339815191525490565b6040516001600160e01b031960e084901b1681526004810191909152336024820152604401602060405180830381865afa158015614043573d6000803e3d6000fd5b505050506040513d601f19601f8201168201806040525081019061406791906159b4565b14155b6140865760405162461bcd60e51b815260040161074e90615a46565b8615614096576140968888614e7f565b6140a38585888686615102565b5050505050505050565b6000806140b8611510565b6001600160a01b0316637aa873346040518163ffffffff1660e01b8152600401602060405180830381865afa1580156140f5573d6000803e3d6000fd5b505050506040513d601f19601f8201168201806040525081019061411991906159b4565b90508060000361412a574291505090565b6141344282614cc6565b91505090565b600061414461267e565b9050600061415182613ccc565b9050600061415d612a49565b6001600160a01b03166304f86f3c614173611485565b6040518263ffffffff1660e01b815260040161418f919061562f565b602060405180830381865afa1580156141ac573d6000803e3d6000fd5b505050506040513d601f19601f820116820180604052508101906141d09190615a88565b6040516375719b0160e11b81523060048201526001600160a01b03919091169063eae3360290602401602060405180830381865afa158015614216573d6000803e3d6000fd5b505050506040513d601f19601f8201168201806040525081019061423a91906159b4565b600854909150600061424a612307565b6001600160a01b03166377641f07614260611485565b6040518263ffffffff1660e01b815260040161427c919061562f565b602060405180830381865afa158015614299573d6000803e3d6000fd5b505050506040513d601f19601f820116820180604052508101906142bd91906159b4565b90506000846142cc83866159e3565b6142d69190615a02565b9050600085836142e5896115cd565b6142ef91906159e3565b6142f99190615a02565b905060006143078284614cc6565b60088190559050808511156144085761431e612a49565b6001600160a01b031663c91b95666040518163ffffffff1660e01b8152600401602060405180830381865afa15801561435b573d6000803e3d6000fd5b505050506040513d601f19601f8201168201806040525081019061437f9190615a88565b6000546001600160a01b03918216916379cc679091620100009004166143a58489615aea565b6040516001600160e01b031960e085901b1681526001600160a01b0390921660048301526024820152604401600060405180830381600087803b1580156143eb57600080fd5b505af11580156143ff573d6000803e3d6000fd5b505050506140a3565b808510156140a357614418612a49565b6001600160a01b031663c91b95666040518163ffffffff1660e01b8152600401602060405180830381865afa158015614455573d6000803e3d6000fd5b505050506040513d601f19601f820116820180604052508101906144799190615a88565b6000546001600160a01b03918216916340c10f19916201000090041661449f8885615aea565b6040516001600160e01b031960e085901b1681526001600160a01b0390921660048301526024820152604401600060405180830381600087803b1580156144e557600080fd5b505af11580156144f9573d6000803e3d6000fd5b505050505050505050505050565b6000614511611510565b6001600160a01b031663e4e940f06040518163ffffffff1660e01b8152600401602060405180830381865afa15801561454e573d6000803e3d6000fd5b505050506040513d601f19601f820116820180604052508101906145729190615a88565b6001600160a01b03166361a5d38c600c546040518263ffffffff1660e01b81526004016145a191815260200190565b600060405180830381865afa1580156145be573d6000803e3d6000fd5b505050506040513d6000823e601f3d908101601f191682016040526145e69190810190615c59565b90506145f0611510565b6001600160a01b031663e4e940f06040518163ffffffff1660e01b8152600401602060405180830381865afa15801561462d573d6000803e3d6000fd5b505050506040513d601f19601f820116820180604052508101906146519190615a88565b6001600160a01b0316636a627842600060029054906101000a90046001600160a01b03166001600160a01b031663b5acd4566040518163ffffffff1660e01b8152600401602060405180830381865afa1580156146b2573d6000803e3d6000fd5b505050506040513d601f19601f820116820180604052508101906146d69190615a88565b6040516001600160e01b031960e084901b1681526001600160a01b0390911660048201526024016020604051808303816000875af115801561471c573d6000803e3d6000fd5b505050506040513d601f19601f8201168201806040525081019061474091906159b4565b600c8190556040517fe9049357477d5e079bc0d0063d21738fc5a5fb192941a2d73acdcc125f4bc14591614775918490615d39565b60405180910390a150565b8060000361478c575050565b6000670de0b6b3a764000061479f612307565b6001600160a01b0316636f3426da6040518163ffffffff1660e01b8152600401602060405180830381865afa1580156147dc573d6000803e3d6000fd5b505050506040513d601f19601f8201168201806040525081019061480091906159b4565b61480a90846159e3565b6148149190615a02565b90506000614820612a49565b6001600160a01b03166304f86f3c856040518263ffffffff1660e01b815260040161484b919061562f565b602060405180830381865afa158015614868573d6000803e3d6000fd5b505050506040513d601f19601f8201168201806040525081019061488c9190615a88565b6040516375719b0160e11b81523060048201526001600160a01b03919091169063eae3360290602401602060405180830381865afa1580156148d2573d6000803e3d6000fd5b505050506040513d601f19601f820116820180604052508101906148f691906159b4565b905060006149056103df61267e565b90508082106149175760009250614935565b6149218282615aea565b831115614935576149328282615aea565b92505b8215614a2057614943612a49565b6001600160a01b03166304f86f3c866040518263ffffffff1660e01b815260040161496e919061562f565b602060405180830381865afa15801561498b573d6000803e3d6000fd5b505050506040513d601f19601f820116820180604052508101906149af9190615a88565b6040516340c10f1960e01b8152306004820152602481018590526001600160a01b0391909116906340c10f1990604401600060405180830381600087803b1580156149f957600080fd5b505af1158015614a0d573d6000803e3d6000fd5b505050508284614a1d9190615aea565b93505b8315614b2d57600060029054906101000a90046001600160a01b03166001600160a01b03166341c525536040518163ffffffff1660e01b8152600401602060405180830381865afa158015614a79573d6000803e3d6000fd5b505050506040513d601f19601f82011682018060405250810190614a9d9190615a88565b6000546001600160a01b039182169163bcbd6fb99162010000900416614ac1611485565b876040518463ffffffff1660e01b8152600401614ae093929190615aa5565b600060405180830381600087803b158015614afa57600080fd5b505af1158015614b0e573d6000803e3d6000fd5b505050508360096002016000828254614b279190615ad7565b90915550505b5050505050565b600080614b3f613662565b905060001960005b8251811015611e9e57828181518110614b6257614b62615afd565b602002602001015160400151614cb4576000614b7c612a49565b6001600160a01b03166304f86f3c858481518110614b9c57614b9c615afd565b6020026020010151600001516040518263ffffffff1660e01b8152600401614bc4919061562f565b602060405180830381865afa158015614be1573d6000803e3d6000fd5b505050506040513d601f19601f82011682018060405250810190614c059190615a88565b6040516375719b0160e11b81523060048201526001600160a01b03919091169063eae3360290602401602060405180830381865afa158015614c4b573d6000803e3d6000fd5b505050506040513d601f19601f82011682018060405250810190614c6f91906159b4565b905080600003614c8457600094505050505090565b614cb0848381518110614c9957614c99615afd565b60200260200101516020015182613a669190615a02565b9250505b80614cbe81615b13565b915050614b47565b6000818310614cd55781614cd7565b825b9392505050565b600080614ceb8484615aea565b90506000614cf7612307565b6001600160a01b031663657f17fd6040518163ffffffff1660e01b8152600401602060405180830381865afa158015614d34573d6000803e3d6000fd5b505050506040513d601f19601f82011682018060405250810190614d5891906159b4565b614d6a90670de0b6b3a7640000615a02565b614d749083615a02565b9050670de0b6b3a764000081614d886151a4565b614d9291906159e3565b614d9c9190615a02565b95945050505050565b6000838311614db657506000614cd7565b6000614dc28585615aea565b90506000614dce615336565b90506000614dda612307565b6001600160a01b031663657f17fd6040518163ffffffff1660e01b8152600401602060405180830381865afa158015614e17573d6000803e3d6000fd5b505050506040513d601f19601f82011682018060405250810190614e3b91906159b4565b614e4d90670de0b6b3a7640000615a02565b614e579084615a02565b9050613d47670de0b6b3a7640000614e6f84846159e3565b614e799190615a02565b86614cc6565b614e87612a49565b6001600160a01b031663cabb62f06040518163ffffffff1660e01b8152600401602060405180830381865afa158015614ec4573d6000803e3d6000fd5b505050506040513d601f19601f82011682018060405250810190614ee89190615a88565b60405163a9059cbb60e01b81526001600160a01b03848116600483015260248201849052919091169063a9059cbb906044016020604051808303816000875af1158015614f39573d6000803e3d6000fd5b505050506040513d601f19601f820116820180604052508101906119f89190615a24565b600080614f6b6103df61267e565b90506000614f77611485565b90508051600003614f8b5760009250505090565b6000670de0b6b3a7640000614f9e612307565b6001600160a01b03166368e35ca06040518163ffffffff1660e01b8152600401602060405180830381865afa158015614fdb573d6000803e3d6000fd5b505050506040513d601f19601f82011682018060405250810190614fff91906159b4565b61500990856159e3565b6150139190615a02565b9050600061501f612a49565b6001600160a01b03166304f86f3c846040518263ffffffff1660e01b815260040161504a919061562f565b602060405180830381865afa158015615067573d6000803e3d6000fd5b505050506040513d601f19601f8201168201806040525081019061508b9190615a88565b6040516370a0823160e01b81523060048201526001600160a01b0391909116906370a0823190602401602060405180830381865afa1580156150d1573d6000803e3d6000fd5b505050506040513d601f19601f820116820180604052508101906150f591906159b4565b9190911115949350505050565b60005b8481101561519c5761518a86868381811061512257615122615afd565b90506020028101906151349190615d90565b8080601f0160208091040260200160405190810160405280939291908181526020018383808284376000920191909152508892508791508690508581811061517e5761517e615afd565b905060200201356153c8565b8061519481615b13565b915050615105565b505050505050565b6000806151af610d01565b9050670de0b6b3a76400006151c2612307565b6001600160a01b031663781e0efe6040518163ffffffff1660e01b8152600401602060405180830381865afa1580156151ff573d6000803e3d6000fd5b505050506040513d601f19601f8201168201806040525081019061522391906159b4565b61522b612307565b6001600160a01b031663265d3f50846040518263ffffffff1660e01b8152600401615256919061562f565b602060405180830381865afa158015615273573d6000803e3d6000fd5b505050506040513d601f19601f8201168201806040525081019061529791906159b4565b61529f612307565b6001600160a01b031663dd77e3c7856040518263ffffffff1660e01b81526004016152ca919061562f565b602060405180830381865afa1580156152e7573d6000803e3d6000fd5b505050506040513d601f19601f8201168201806040525081019061530b91906159b4565b60025461531891906159e3565b61532291906159e3565b61532c91906159e3565b6141349190615a02565b600080615341613d52565b61534961358d565b6153539190615ad7565b905061535d612307565b6001600160a01b031663781e0efe6040518163ffffffff1660e01b8152600401602060405180830381865afa15801561539a573d6000803e3d6000fd5b505050506040513d601f19601f820116820180604052508101906153be91906159b4565b61413490826159e3565b6153d06110db565b60006153da612a49565b6001600160a01b03166304f86f3c856040518263ffffffff1660e01b8152600401615405919061562f565b602060405180830381865afa158015615422573d6000803e3d6000fd5b505050506040513d601f19601f820116820180604052508101906154469190615a88565b6040516370a0823160e01b81523060048201529091506000906001600160a01b038316906370a0823190602401602060405180830381865afa158015615490573d6000803e3d6000fd5b505050506040513d601f19601f820116820180604052508101906154b491906159b4565b9050806000036154c5575050505050565b808311156154d1578092505b6154d9611485565b805190602001208580519060200120036155225760006154fa6103df61267e565b9050600081831115615513576155108284615aea565b90505b8085111561551f578094505b50505b8215614b2d5760405163a9059cbb60e01b81526001600160a01b0385811660048301526024820185905283169063a9059cbb906044016020604051808303816000875af1158015615577573d6000803e3d6000fd5b505050506040513d601f19601f8201168201806040525081019061519c9190615a24565b6000602082840312156155ad57600080fd5b5035919050565b6001600160a01b03811681146155c957600080fd5b50565b6000602082840312156155de57600080fd5b8135614cd7816155b4565b6000815180845260005b8181101561560f576020818501810151868301820152016155f3565b506000602082860101526020601f19601f83011685010191505092915050565b602081526000614cd760208301846155e9565b60008060006060848603121561565757600080fd5b8335615662816155b4565b92506020840135615672816155b4565b929592945050506040919091013590565b6000806040838503121561569657600080fd5b82356156a1816155b4565b946020939093013593505050565b60008151606084526156c460608501826155e9565b9050602083015160208501526040830151151560408501528091505092915050565b6000602080830181845280855180835260408601915060408160051b870101925083870160005b82811015612a3c57603f198886030184526157298583516156af565b9450928501929085019060010161570d565b634e487b7160e01b600052604160045260246000fd5b604051601f8201601f1916810167ffffffffffffffff8111828210171561577a5761577a61573b565b604052919050565b600082601f83011261579357600080fd5b813567ffffffffffffffff8111156157ad576157ad61573b565b6157c0601f8201601f1916602001615751565b8181528460208386010111156157d557600080fd5b816020850160208301376000918101602001919091529392505050565b60006020828403121561580457600080fd5b813567ffffffffffffffff81111561581b57600080fd5b61582784828501615782565b949350505050565b6000602080830181845280855180835260408601915060408160051b870101925083870160005b82811015612a3c57603f198886030184526158728583516156af565b94509285019290850190600101615856565b6000806040838503121561589757600080fd5b823567ffffffffffffffff8111156158ae57600080fd5b6158ba85828601615782565b95602094909401359450505050565b60008083601f8401126158db57600080fd5b50813567ffffffffffffffff8111156158f357600080fd5b6020830191508360208260051b850101111561590e57600080fd5b9250929050565b600080600080600080600060a0888a03121561593057600080fd5b873561593b816155b4565b9650602088013595506040880135615952816155b4565b9450606088013567ffffffffffffffff8082111561596f57600080fd5b61597b8b838c016158c9565b909650945060808a013591508082111561599457600080fd5b506159a18a828b016158c9565b989b979a50959850939692959293505050565b6000602082840312156159c657600080fd5b5051919050565b634e487b7160e01b600052601160045260246000fd5b60008160001904831182151516156159fd576159fd6159cd565b500290565b600082615a1f57634e487b7160e01b600052601260045260246000fd5b500490565b600060208284031215615a3657600080fd5b81518015158114614cd757600080fd5b60208082526022908201527f6f6e6c7952756c65724f72576f726c64417373657446726f6d53616d6545706f6040820152610c6d60f31b606082015260800190565b600060208284031215615a9a57600080fd5b8151614cd7816155b4565b6001600160a01b0384168152606060208201526000615ac760608301856155e9565b9050826040830152949350505050565b80820180821115610699576106996159cd565b81810381811115610699576106996159cd565b634e487b7160e01b600052603260045260246000fd5b600060018201615b2557615b256159cd565b5060010190565b600181815b80851115615b67578160001904821115615b4d57615b4d6159cd565b80851615615b5a57918102915b93841c9390800290615b31565b509250929050565b600082615b7e57506001610699565b81615b8b57506000610699565b8160018114615ba15760028114615bab57615bc7565b6001915050610699565b60ff841115615bbc57615bbc6159cd565b50506001821b610699565b5060208310610133831016604e8410600b8410161715615bea575081810a610699565b615bf48383615b2c565b8060001904821115615c0857615c086159cd565b029392505050565b6000614cd760ff841683615b6f565b600181811c90821680615c3357607f821691505b602082108103615c5357634e487b7160e01b600052602260045260246000fd5b50919050565b60006020808385031215615c6c57600080fd5b825167ffffffffffffffff80821115615c8457600080fd5b818501915085601f830112615c9857600080fd5b815181811115615caa57615caa61573b565b8060051b9150615cbb848301615751565b8181529183018401918481019088841115615cd557600080fd5b938501935b83851015615cff5784519250615cef836155b4565b8282529385019390850190615cda565b98975050505050505050565b606081526000615d1e60608301866155e9565b6001600160a01b039490941660208301525060400152919050565b6000604082018483526020604081850152818551808452606086019150828701935060005b81811015615d835784516001600160a01b031683529383019391830191600101615d5e565b5090979650505050505050565b6000808335601e19843603018112615da757600080fd5b83018035915067ffffffffffffffff821115615dc257600080fd5b60200191503681900382131561590e57600080fdfe6c85b93e587873fbe6712f3b438d42c2945689b262f7bd34b8ea4e3f832a89e7a26469706673582212202e26714f1a01e66fda256504403d21e162351ca7fceaf5d44b04fea86d00f26164736f6c63430008100033",
  "deployedBytecode": "0x608060405234801561001057600080fd5b50600436106102ce5760003560e01c80638545bc581161018c578063c55b31ce116100ee578063e91bde7611610097578063fb2018d911610071578063fb2018d9146105c9578063fe7f15ef146105dc578063ffaf29a0146105f557600080fd5b8063e91bde7614610599578063f2477b5b146105ac578063f4145a83146105b457600080fd5b8063c9c0df61116100c8578063c9c0df611461057f578063d2bc7d8514610588578063e64582911461059057600080fd5b8063c55b31ce14610543578063c724a01614610556578063c91b95661461057657600080fd5b8063adcd294011610150578063b78d13841161012a578063b78d138414610513578063c1499f7114610526578063c3f909d41461052e57600080fd5b8063adcd2940146104da578063ae6fd51d146104ed578063af04eb421461050057600080fd5b80638545bc581461047f5780638beab87e14610487578063900cf0cf146104a75780639a9402a1146104af5780639abb3cae146104d257600080fd5b80633fe3347a11610235578063589ae400116101f95780637abdf949116101d35780637abdf949146104515780637b103999146104645780637b7a2bfc1461046c57600080fd5b8063589ae400146104225780635ed697b71461043557806365e6f4ce1461044957600080fd5b80633fe3347a146103e457806343e77f46146103ec5780634500dbeb146103ff5780634ace91d014610407578063575bceda1461041a57600080fd5b806319ab453c1161029757806330b67baa1161027157806330b67baa146103a957806339c8a95a146103c95780633c084b8b146103d157600080fd5b806319ab453c146103865780631d8557d71461039957806324db272a146103a157600080fd5b8062d4fbf8146102d357806302e68b94146102f957806305e88b691461030e578063115112ab1461033b57806314dff0e814610350575b600080fd5b6102e66102e136600461559b565b610618565b6040519081526020015b60405180910390f35b61030c6103073660046155cc565b61069f565b005b600954600a54600b5461032092919083565b604080519384526020840192909252908201526060016102f0565b610343610d01565b6040516102f0919061562f565b6003546004546005546006546103669392919084565b6040805194855260208501939093529183015260608201526080016102f0565b61030c6103943660046155cc565b610d10565b61030c6110db565b610343611485565b6103b1611510565b6040516001600160a01b0390911681526020016102f0565b6102e6611543565b6102e66103df36600461559b565b6115cd565b610343611601565b61030c6103fa36600461559b565b6116b5565b61030c6117df565b61030c610415366004615642565b6117f4565b6102e66119fd565b6102e6610430366004615683565b611a19565b6102e661044336600461559b565b50600090565b61030c611ea5565b6102e661045f36600461559b565b6122a9565b6103b1612307565b61030c61047a3660046155cc565b612372565b6102e661267e565b61049a61049536600461559b565b612690565b6040516102f091906156e6565b6103b1612a49565b6104c26104bd3660046157f2565b612ab2565b60405190151581526020016102f0565b610343612b23565b6102e66104e836600461559b565b612b54565b61030c6104fb36600461559b565b612b67565b61030c61050e3660046155cc565b612ce0565b61030c61052136600461559b565b6132f3565b6102e661358d565b610536613662565b6040516102f0919061582f565b6102e6610551366004615884565b613820565b6102e66105643660046155cc565b600d6020526000908152604090205481565b6102e660085481565b6102e6600c5481565b61030c613ba7565b6102e660075481565b6102e66105a736600461559b565b613ccc565b6102e6613d52565b600080516020615dd8833981519152546102e6565b61030c6105d7366004615915565b613e86565b6000546103b1906201000090046001600160a01b031681565b600154600254610603919082565b604080519283526020830191909152016102f0565b6000610622612307565b6001600160a01b031663781e0efe6040518163ffffffff1660e01b8152600401602060405180830381865afa15801561065f573d6000803e3d6000fd5b505050506040513d601f19601f8201168201806040525081019061068391906159b4565b61068f836154606159e3565b6106999190615a02565b92915050565b60006106a9611510565b6001600160a01b0316637aa873346040518163ffffffff1660e01b8152600401602060405180830381865afa1580156106e6573d6000803e3d6000fd5b505050506040513d601f19601f8201168201806040525081019061070a91906159b4565b905080158061071857508042105b6107575760405162461bcd60e51b815260206004820152600b60248201526a19d85b594818db1bdcd95960aa1b60448201526064015b60405180910390fd5b600054604051631b0b969d60e01b8152336004820152620100009091046001600160a01b031690631b0b969d90602401602060405180830381865afa1580156107a4573d6000803e3d6000fd5b505050506040513d601f19601f820116820180604052508101906107c89190615a24565b806107eb57506107d6611510565b6001600160a01b0316336001600160a01b0316145b80610888575060006107fb611510565b6001600160a01b031663ebbe803461081f600080516020615dd88339815191525490565b6040516001600160e01b031960e084901b1681526004810191909152336024820152604401602060405180830381865afa158015610861573d6000803e3d6000fd5b505050506040513d601f19601f8201168201806040525081019061088591906159b4565b14155b6108a45760405162461bcd60e51b815260040161074e90615a46565b6108ac6110db565b6007546108b76140ad565b10156108f95760405162461bcd60e51b8152602060048201526011602482015270616c726561647920757067726164696e6760781b604482015260640161074e565b600061090361267e565b90506000610910826122a9565b6040805180820190915260038152624f524560e81b60208201529091506001600160a01b038516610a1657610943612a49565b6001600160a01b03166304f86f3c826040518263ffffffff1660e01b815260040161096e919061562f565b602060405180830381865afa15801561098b573d6000803e3d6000fd5b505050506040513d601f19601f820116820180604052508101906109af9190615a88565b60405163079cc67960e41b8152336004820152602481018490526001600160a01b0391909116906379cc679090604401600060405180830381600087803b1580156109f957600080fd5b505af1158015610a0d573d6000803e3d6000fd5b50505050610b5c565b6000610a20612a49565b6001600160a01b03166304f86f3c836040518263ffffffff1660e01b8152600401610a4b919061562f565b602060405180830381865afa158015610a68573d6000803e3d6000fd5b505050506040513d601f19601f82011682018060405250810190610a8c9190615a88565b60405163dd8aaa4f60e01b81526001600160a01b038881166004830152336024830152604482018690529192509082169063dd8aaa4f90606401600060405180830381600087803b158015610ae057600080fd5b505af1158015610af4573d6000803e3d6000fd5b505060405163079cc67960e41b81526001600160a01b03898116600483015260248201879052841692506379cc67909150604401600060405180830381600087803b158015610b4257600080fd5b505af1158015610b56573d6000803e3d6000fd5b50505050505b600060029054906101000a90046001600160a01b03166001600160a01b03166341c525536040518163ffffffff1660e01b8152600401602060405180830381865afa158015610baf573d6000803e3d6000fd5b505050506040513d601f19601f82011682018060405250810190610bd39190615a88565b600054604051636e08f72160e01b81526001600160a01b0392831692636e08f72192610c1092620100009091049091169085908790600401615aa5565b600060405180830381600087803b158015610c2a57600080fd5b505af1158015610c3e573d6000803e3d6000fd5b50505050610c4a600090565b610c549042615ad7565b6007556000610c64846001615ad7565b9050600160036000016000828254610c7c9190615ad7565b9091555060009050610c8d85613ccc565b610c9683613ccc565b610ca09190615aea565b90508060036001016000828254610cb79190615ad7565b90915550610cc5905061413a565b6040518281527f3522cf3459e241a649e558e6164f7286e55468f8ba273170ece2a4716fc9f4969060200160405180910390a150505050505050565b6060610d0b611601565b905090565b600054610100900460ff1615808015610d305750600054600160ff909116105b80610d4a5750303b158015610d4a575060005460ff166001145b610dad5760405162461bcd60e51b815260206004820152602e60248201527f496e697469616c697a61626c653a20636f6e747261637420697320616c72656160448201526d191e481a5b9a5d1a585b1a5e995960921b606482015260840161074e565b6000805460ff191660011790558015610dd0576000805461ff0019166101001790555b6000805475ffffffffffffffffffffffffffffffffffffffff00001916620100006001600160a01b03851602178155600180805560028190556003819055600455610e196140ad565b905080600960000181905550600060029054906101000a90046001600160a01b03166001600160a01b03166341c525536040518163ffffffff1660e01b8152600401602060405180830381865afa158015610e78573d6000803e3d6000fd5b505050506040513d601f19601f82011682018060405250810190610e9c9190615a88565b6001600160a01b031663d635bb8f826040518263ffffffff1660e01b8152600401610ec991815260200190565b602060405180830381865afa158015610ee6573d6000803e3d6000fd5b505050506040513d601f19601f82011682018060405250810190610f0a91906159b4565b600a55610f15612307565b6001600160a01b031663636d6854610f2b610d01565b6040518263ffffffff1660e01b8152600401610f47919061562f565b602060405180830381865afa158015610f64573d6000803e3d6000fd5b505050506040513d601f19601f82011682018060405250810190610f889190615a24565b1561108857610f95612a49565b6001600160a01b03166304f86f3c610fab611485565b6040518263ffffffff1660e01b8152600401610fc7919061562f565b602060405180830381865afa158015610fe4573d6000803e3d6000fd5b505050506040513d601f19601f820116820180604052508101906110089190615a88565b6001600160a01b03166340c10f19306110226103df61267e565b6040516001600160e01b031960e085901b1681526001600160a01b0390921660048301526024820152604401600060405180830381600087803b15801561106857600080fd5b505af115801561107c573d6000803e3d6000fd5b5050505061108861413a565b611090614507565b5080156110d7576000805461ff0019169055604051600181527f7f26b83ff96e1f2b6a682f133852f6798a09c465da95921460cefb38474024989060200160405180910390a15b5050565b600060029054906101000a90046001600160a01b03166001600160a01b03166341c525536040518163ffffffff1660e01b8152600401602060405180830381865afa15801561112e573d6000803e3d6000fd5b505050506040513d601f19601f820116820180604052508101906111529190615a88565b6001600160a01b0316631d8557d76040518163ffffffff1660e01b8152600401600060405180830381600087803b15801561118c57600080fd5b505af11580156111a0573d6000803e3d6000fd5b5050505060006111ae6140ad565b905080600960000154036111bf5750565b60006111ca82612690565b905081600960000181905550600060029054906101000a90046001600160a01b03166001600160a01b03166341c525536040518163ffffffff1660e01b8152600401602060405180830381865afa158015611229573d6000803e3d6000fd5b505050506040513d601f19601f8201168201806040525081019061124d9190615a88565b6001600160a01b031663d635bb8f836040518263ffffffff1660e01b815260040161127a91815260200190565b602060405180830381865afa158015611297573d6000803e3d6000fd5b505050506040513d601f19601f820116820180604052508101906112bb91906159b4565b600a5560005b815181101561147c578181815181106112dc576112dc615afd565b6020026020010151602001516000031561146a5781818151811061130257611302615afd565b6020026020010151604001511561135c5761135782828151811061132857611328615afd565b60200260200101516000015183838151811061134657611346615afd565b602002602001015160200151614780565b61146a565b611364612a49565b6001600160a01b03166304f86f3c83838151811061138457611384615afd565b6020026020010151600001516040518263ffffffff1660e01b81526004016113ac919061562f565b602060405180830381865afa1580156113c9573d6000803e3d6000fd5b505050506040513d601f19601f820116820180604052508101906113ed9190615a88565b6001600160a01b03166342966c6883838151811061140d5761140d615afd565b6020026020010151602001516040518263ffffffff1660e01b815260040161143791815260200190565b600060405180830381600087803b15801561145157600080fd5b505af1158015611465573d6000803e3d6000fd5b505050505b8061147481615b13565b9150506112c1565b506110d761413a565b60606000611491613662565b905060005b81518110156114f9578181815181106114b1576114b1615afd565b602002602001015160400151156114e7578181815181106114d4576114d4615afd565b6020026020010151600001519250505090565b806114f181615b13565b915050611496565b506040518060200160405280600081525091505090565b6000610d0b7f6c85b93e587873fbe6712f3b438d42c2945689b262f7bd34b8ea4e3f832a89e6546001600160a01b031690565b600061154d612307565b6001600160a01b031663265d3f50611563610d01565b6040518263ffffffff1660e01b815260040161157f919061562f565b602060405180830381865afa15801561159c573d6000803e3d6000fd5b505050506040513d601f19601f820116820180604052508101906115c091906159b4565b600454610d0b91906159e3565b600060026115da83613ccc565b6115e49190615c10565b6115ef90600a6159e3565b61069990670de0b6b3a76400006159e3565b60607f6c85b93e587873fbe6712f3b438d42c2945689b262f7bd34b8ea4e3f832a89e6600401805461163290615c1f565b80601f016020809104026020016040519081016040528092919081815260200182805461165e90615c1f565b80156116ab5780601f10611680576101008083540402835291602001916116ab565b820191906000526020600020905b81548152906001019060200180831161168e57829003601f168201915b5050505050905090565b6116bd611510565b6001600160a01b0316336001600160a01b0316148061176e575060006116e1611510565b6001600160a01b031663ebbe8034611705600080516020615dd88339815191525490565b6040516001600160e01b031960e084901b1681526004810191909152336024820152604401602060405180830381865afa158015611747573d6000803e3d6000fd5b505050506040513d601f19601f8201168201806040525081019061176b91906159b4565b14155b6117ba5760405162461bcd60e51b815260206004820152601b60248201527f6f6e6c79576f726c64417373657446726f6d53616d6545706f63680000000000604482015260640161074e565b6117c26110db565b80600360020160008282546117d79190615aea565b909155505050565b6117e761413a565b6117ef614b34565b600655565b336117fd611510565b6001600160a01b031663e4e940f06040518163ffffffff1660e01b8152600401602060405180830381865afa15801561183a573d6000803e3d6000fd5b505050506040513d601f19601f8201168201806040525081019061185e9190615a88565b6001600160a01b0316146118a85760405162461bcd60e51b81526020600482015260116024820152706f6e6c79446973747269627574696f6e7360781b604482015260640161074e565b60006118b2611510565b6001600160a01b031663e4e940f06040518163ffffffff1660e01b8152600401602060405180830381865afa1580156118ef573d6000803e3d6000fd5b505050506040513d601f19601f820116820180604052508101906119139190615a88565b6001600160a01b03166302705c2e6040518163ffffffff1660e01b8152600401602060405180830381865afa158015611950573d6000803e3d6000fd5b505050506040513d601f19601f8201168201806040525081019061197491906159b4565b600b546119829084906159e3565b61198c9190615a02565b90508060000361199c5750505050565b6001600160a01b0384166000908152600d6020526040812080548392906119c4908490615aea565b90915550506001600160a01b0383166000908152600d6020526040812080548392906119f1908490615ad7565b9091555050505b505050565b6000611a07613d52565b611a0f611543565b610d0b9190615aea565b600080611a24611510565b6001600160a01b0316637aa873346040518163ffffffff1660e01b8152600401602060405180830381865afa158015611a61573d6000803e3d6000fd5b505050506040513d601f19601f82011682018060405250810190611a8591906159b4565b9050801580611a9357508042105b611acd5760405162461bcd60e51b815260206004820152600b60248201526a19d85b594818db1bdcd95960aa1b604482015260640161074e565b611ad5611510565b6001600160a01b0316336001600160a01b03161480611b8657506000611af9611510565b6001600160a01b031663ebbe8034611b1d600080516020615dd88339815191525490565b6040516001600160e01b031960e084901b1681526004810191909152336024820152604401602060405180830381865afa158015611b5f573d6000803e3d6000fd5b505050506040513d601f19601f82011682018060405250810190611b8391906159b4565b14155b611bd25760405162461bcd60e51b815260206004820152601b60248201527f6f6e6c79576f726c64417373657446726f6d53616d6545706f63680000000000604482015260640161074e565b611bda6110db565b6000611be4612a49565b6001600160a01b03166304f86f3c611bfa611485565b6040518263ffffffff1660e01b8152600401611c16919061562f565b602060405180830381865afa158015611c33573d6000803e3d6000fd5b505050506040513d601f19601f82011682018060405250810190611c579190615a88565b6040516375719b0160e11b81523060048201526001600160a01b03919091169063eae3360290602401602060405180830381865afa158015611c9d573d6000803e3d6000fd5b505050506040513d601f19601f82011682018060405250810190611cc191906159b4565b90506000611cd9611cd36103df61267e565b83614cc6565b905080600003611cee57600093505050611e9e565b611cf88186614cc6565b94506000670de0b6b3a7640000611d0d612307565b6001600160a01b031663355bb5296040518163ffffffff1660e01b8152600401602060405180830381865afa158015611d4a573d6000803e3d6000fd5b505050506040513d601f19601f82011682018060405250810190611d6e91906159b4565b611d7890886159e3565b611d829190615a02565b90506000611d8e612a49565b6001600160a01b03166304f86f3c611da4611485565b6040518263ffffffff1660e01b8152600401611dc0919061562f565b602060405180830381865afa158015611ddd573d6000803e3d6000fd5b505050506040513d601f19601f82011682018060405250810190611e019190615a88565b90506001600160a01b03811663a9059cbb89611e1d858b615aea565b6040516001600160e01b031960e085901b1681526001600160a01b03909216600483015260248201526044016020604051808303816000875af1158015611e68573d6000803e3d6000fd5b505050506040513d601f19601f82011682018060405250810190611e8c9190615a24565b50611e96826132f3565b869550505050505b5092915050565b611ead6110db565b600b546000611eba611485565b90506000611ec6612a49565b6001600160a01b03166304f86f3c836040518263ffffffff1660e01b8152600401611ef1919061562f565b602060405180830381865afa158015611f0e573d6000803e3d6000fd5b505050506040513d601f19601f82011682018060405250810190611f329190615a88565b90506000611f3e611510565b6001600160a01b031663e4e940f06040518163ffffffff1660e01b8152600401602060405180830381865afa158015611f7b573d6000803e3d6000fd5b505050506040513d601f19601f82011682018060405250810190611f9f9190615a88565b90506000816001600160a01b03166302705c2e6040518163ffffffff1660e01b8152600401602060405180830381865afa158015611fe1573d6000803e3d6000fd5b505050506040513d601f19601f8201168201806040525081019061200591906159b4565b90506000612011611510565b6001600160a01b031663e4e940f06040518163ffffffff1660e01b8152600401602060405180830381865afa15801561204e573d6000803e3d6000fd5b505050506040513d601f19601f820116820180604052508101906120729190615a88565b6001600160a01b03166361a5d38c600c546040518263ffffffff1660e01b81526004016120a191815260200190565b600060405180830381865afa1580156120be573d6000803e3d6000fd5b505050506040513d6000823e601f3d908101601f191682016040526120e69190810190615c59565b905060005b815181101561229b57600082828151811061210857612108615afd565b6020908102919091018101516001600160a01b038082166000818152600d8552604080822054600c548251627eeac760e11b815260048101959095526024850152905194965094909385938a93908c169262fdd58e926044808401938290030181865afa15801561217d573d6000803e3d6000fd5b505050506040513d601f19601f820116820180604052508101906121a191906159b4565b6121ab908d6159e3565b6121b59190615a02565b6121bf9190615aea565b905081156121e1576001600160a01b0383166000908152600d60205260408120555b8015612285576040516340c10f1960e01b81526001600160a01b038481166004830152602482018390528916906340c10f1990604401600060405180830381600087803b15801561223157600080fd5b505af1158015612245573d6000803e3d6000fd5b505050507f47614c4f34cc07c5070ccad2038840984d1d138209aa8dcc40eac778c1b54c9c89848360405161227c93929190615d0b565b60405180910390a15b505050808061229390615b13565b9150506120eb565b50506000600b555050505050565b6000806122b5836115cd565b905060006122c76103df856001615ad7565b9050600060646122d884604b6159e3565b6122e29190615a02565b905060006122f08284615aea565b90506122fd600682615a02565b9695505050505050565b6000612311611510565b6001600160a01b0316637b1039996040518163ffffffff1660e01b8152600401602060405180830381865afa15801561234e573d6000803e3d6000fd5b505050506040513d601f19601f82011682018060405250810190610d0b9190615a88565b61237a6110db565b6000612384611510565b6001600160a01b031663e4e940f06040518163ffffffff1660e01b8152600401602060405180830381865afa1580156123c1573d6000803e3d6000fd5b505050506040513d601f19601f820116820180604052508101906123e59190615a88565b600c54604051627eeac760e11b81526001600160a01b03858116600483015260248201929092529192506000919083169062fdd58e90604401602060405180830381865afa15801561243b573d6000803e3d6000fd5b505050506040513d601f19601f8201168201806040525081019061245f91906159b4565b90508060000361246e57505050565b6000600d6000856001600160a01b03166001600160a01b0316815260200190815260200160002054836001600160a01b03166302705c2e6040518163ffffffff1660e01b8152600401602060405180830381865afa1580156124d4573d6000803e3d6000fd5b505050506040513d601f19601f820116820180604052508101906124f891906159b4565b600b546125069085906159e3565b6125109190615a02565b61251a9190615aea565b90508060000361252a5750505050565b6001600160a01b0384166000908152600d602052604081208054839290612552908490615ad7565b9091555060009050612562611485565b905061256c612a49565b6001600160a01b03166304f86f3c826040518263ffffffff1660e01b8152600401612597919061562f565b602060405180830381865afa1580156125b4573d6000803e3d6000fd5b505050506040513d601f19601f820116820180604052508101906125d89190615a88565b6040516340c10f1960e01b81526001600160a01b0387811660048301526024820185905291909116906340c10f1990604401600060405180830381600087803b15801561262457600080fd5b505af1158015612638573d6000803e3d6000fd5b505050507f47614c4f34cc07c5070ccad2038840984d1d138209aa8dcc40eac778c1b54c9c81868460405161266f93929190615d0b565b60405180910390a15050505050565b600354600154600091610d0b91615ad7565b60608160000361269e574291505b60006126a8611510565b6001600160a01b0316637aa873346040518163ffffffff1660e01b8152600401602060405180830381865afa1580156126e5573d6000803e3d6000fd5b505050506040513d601f19601f8201168201806040525081019061270991906159b4565b9050801561271e5761271b8382614cc6565b92505b6000612728613662565b90506000815167ffffffffffffffff8111156127465761274661573b565b60405190808252806020026020018201604052801561279d57816020015b61278a604051806060016040528060608152602001600081526020016000151581525090565b8152602001906001900390816127645790505b50905060005b82518110156128345760405180606001604052808483815181106127c9576127c9615afd565b6020026020010151600001518152602001600081526020018483815181106127f3576127f3615afd565b602002602001015160400151151581525082828151811061281657612816615afd565b6020026020010181905250808061282c90615b13565b9150506127a3565b50600954851161284657949350505050565b60008060029054906101000a90046001600160a01b03166001600160a01b03166341c525536040518163ffffffff1660e01b8152600401602060405180830381865afa15801561289a573d6000803e3d6000fd5b505050506040513d601f19601f820116820180604052508101906128be9190615a88565b6001600160a01b031663d635bb8f876040518263ffffffff1660e01b81526004016128eb91815260200190565b602060405180830381865afa158015612908573d6000803e3d6000fd5b505050506040513d601f19601f8201168201806040525081019061292c91906159b4565b9050600061293f60096001015483614cde565b90506000612957600960010154846003800154614da5565b905060005b8551811015612a3c578186828151811061297857612978615afd565b60200260200101516020015161298e91906159e3565b8582815181106129a0576129a0615afd565b602002602001015160200181815250508481815181106129c2576129c2615afd565b60200260200101516040015115612a2a57828682815181106129e6576129e6615afd565b6020026020010151602001516129fc91906159e3565b858281518110612a0e57612a0e615afd565b6020026020010151602001818151612a269190615ad7565b9052505b80612a3481615b13565b91505061295c565b5092979650505050505050565b6000612a53611510565b6001600160a01b031663c6b61e4c612a77600080516020615dd88339815191525490565b6040518263ffffffff1660e01b8152600401612a9591815260200190565b602060405180830381865afa15801561234e573d6000803e3d6000fd5b600080612abd613662565b905060005b8151811015612b19578380519060200120828281518110612ae557612ae5615afd565b6020026020010151600001518051906020012003612b07575060019392505050565b80612b1181615b13565b915050612ac2565b5060009392505050565b60607f6c85b93e587873fbe6712f3b438d42c2945689b262f7bd34b8ea4e3f832a89e6600301805461163290615c1f565b6000610699612b61611485565b83613820565b612b6f611510565b6001600160a01b0316336001600160a01b03161480612c2057506000612b93611510565b6001600160a01b031663ebbe8034612bb7600080516020615dd88339815191525490565b6040516001600160e01b031960e084901b1681526004810191909152336024820152604401602060405180830381865afa158015612bf9573d6000803e3d6000fd5b505050506040513d601f19601f82011682018060405250810190612c1d91906159b4565b14155b612c6c5760405162461bcd60e51b815260206004820152601b60248201527f6f6e6c79576f726c64417373657446726f6d53616d6545706f63680000000000604482015260640161074e565b612c746110db565b8060036002016000828254612c899190615ad7565b9091555060009050612c996119fd565b90506000612ca561358d565b9050818111156119f8576000612cbb8383615aea565b600054909150612cda906201000090046001600160a01b031682614e7f565b50505050565b6000612cea611510565b6001600160a01b0316637aa873346040518163ffffffff1660e01b8152600401602060405180830381865afa158015612d27573d6000803e3d6000fd5b505050506040513d601f19601f82011682018060405250810190612d4b91906159b4565b9050801580612d5957508042105b612d935760405162461bcd60e51b815260206004820152600b60248201526a19d85b594818db1bdcd95960aa1b604482015260640161074e565b600054604051631b0b969d60e01b8152336004820152620100009091046001600160a01b031690631b0b969d90602401602060405180830381865afa158015612de0573d6000803e3d6000fd5b505050506040513d601f19601f82011682018060405250810190612e049190615a24565b80612e275750612e12611510565b6001600160a01b0316336001600160a01b0316145b80612ec457506000612e37611510565b6001600160a01b031663ebbe8034612e5b600080516020615dd88339815191525490565b6040516001600160e01b031960e084901b1681526004810191909152336024820152604401602060405180830381865afa158015612e9d573d6000803e3d6000fd5b505050506040513d601f19601f82011682018060405250810190612ec191906159b4565b14155b612ee05760405162461bcd60e51b815260040161074e90615a46565b612ee86110db565b600754612ef36140ad565b1015612f355760405162461bcd60e51b8152602060048201526011602482015270616c726561647920757067726164696e6760781b604482015260640161074e565b6000612f3f61267e565b90506000612f4c826122a9565b60408051808201909152600481526315d3d3d160e21b60208201529091506001600160a01b03851661305357612f80612a49565b6001600160a01b03166304f86f3c826040518263ffffffff1660e01b8152600401612fab919061562f565b602060405180830381865afa158015612fc8573d6000803e3d6000fd5b505050506040513d601f19601f82011682018060405250810190612fec9190615a88565b60405163079cc67960e41b8152336004820152602481018490526001600160a01b0391909116906379cc679090604401600060405180830381600087803b15801561303657600080fd5b505af115801561304a573d6000803e3d6000fd5b50505050613199565b600061305d612a49565b6001600160a01b03166304f86f3c836040518263ffffffff1660e01b8152600401613088919061562f565b602060405180830381865afa1580156130a5573d6000803e3d6000fd5b505050506040513d601f19601f820116820180604052508101906130c99190615a88565b60405163dd8aaa4f60e01b81526001600160a01b038881166004830152336024830152604482018690529192509082169063dd8aaa4f90606401600060405180830381600087803b15801561311d57600080fd5b505af1158015613131573d6000803e3d6000fd5b505060405163079cc67960e41b81526001600160a01b03898116600483015260248201879052841692506379cc67909150604401600060405180830381600087803b15801561317f57600080fd5b505af1158015613193573d6000803e3d6000fd5b50505050505b600060029054906101000a90046001600160a01b03166001600160a01b03166341c525536040518163ffffffff1660e01b8152600401602060405180830381865afa1580156131ec573d6000803e3d6000fd5b505050506040513d601f19601f820116820180604052508101906132109190615a88565b600054604051636e08f72160e01b81526001600160a01b0392831692636e08f7219261324d92620100009091049091169085908790600401615aa5565b600060405180830381600087803b15801561326757600080fd5b505af115801561327b573d6000803e3d6000fd5b5050505061328883610618565b6132929042615ad7565b60075560006132a2846001615ad7565b905060018060000160008282546132b99190615ad7565b90915550600090506132ca85613ccc565b6132d383613ccc565b6132dd9190615aea565b905080600180016000828254610cb79190615ad7565b60006132fd611510565b6001600160a01b0316637aa873346040518163ffffffff1660e01b8152600401602060405180830381865afa15801561333a573d6000803e3d6000fd5b505050506040513d601f19601f8201168201806040525081019061335e91906159b4565b905080158061336c57508042105b6133a65760405162461bcd60e51b815260206004820152600b60248201526a19d85b594818db1bdcd95960aa1b604482015260640161074e565b6133ae611510565b6001600160a01b0316336001600160a01b0316148061345f575060006133d2611510565b6001600160a01b031663ebbe80346133f6600080516020615dd88339815191525490565b6040516001600160e01b031960e084901b1681526004810191909152336024820152604401602060405180830381865afa158015613438573d6000803e3d6000fd5b505050506040513d601f19601f8201168201806040525081019061345c91906159b4565b14155b6134ab5760405162461bcd60e51b815260206004820152601b60248201527f6f6e6c79576f726c64417373657446726f6d53616d6545706f63680000000000604482015260640161074e565b60006134b5612a49565b6001600160a01b03166304f86f3c6134cb611485565b6040518263ffffffff1660e01b81526004016134e7919061562f565b602060405180830381865afa158015613504573d6000803e3d6000fd5b505050506040513d601f19601f820116820180604052508101906135289190615a88565b604051630852cd8d60e31b8152600481018590529091506001600160a01b038216906342966c6890602401600060405180830381600087803b15801561356d57600080fd5b505af1158015613581573d6000803e3d6000fd5b505050506119f861413a565b6000613597612a49565b6001600160a01b031663cabb62f06040518163ffffffff1660e01b8152600401602060405180830381865afa1580156135d4573d6000803e3d6000fd5b505050506040513d601f19601f820116820180604052508101906135f89190615a88565b6040516370a0823160e01b81523060048201526001600160a01b0391909116906370a0823190602401602060405180830381865afa15801561363e573d6000803e3d6000fd5b505050506040513d601f19601f82011682018060405250810190610d0b91906159b4565b60408051600380825260808201909252606091816020015b6136a0604051806060016040528060608152602001600081526020016000151581525090565b81526020019060019003908161367a5750506040805160a08101909152600460608201908152631193d3d160e21b60808301528152909150602081016127106136f462015180678ac7230489e80000615a02565b6136fe9190615a02565b8152602001600015158152508160008151811061371d5761371d615afd565b602002602001018190525060405180606001604052806040518060400160405280600481526020016315d3d3d160e21b815250815260200161271062015180678ac7230489e8000061376f9190615a02565b6137799190615a02565b8152602001600015158152508160018151811061379857613798615afd565b60200260200101819052506040518060600160405280604051806040016040528060038152602001624f524560e81b815250815260200161271062015180678ac7230489e800006137e99190615a02565b6137f39190615a02565b8152602001600115158152508160028151811061381257613812615afd565b602002602001018190525090565b60008061382c83612690565b8451602086012090915060005b8251811015613b9b578183828151811061385557613855615afd565b6020026020010151600001518051906020012003613b895782818151811061387f5761387f615afd565b60200260200101516040015115613a7957600061389d6103df61267e565b9050806000036138b4576000945050505050610699565b6000670de0b6b3a76400006138c7612307565b6001600160a01b0316636f3426da6040518163ffffffff1660e01b8152600401602060405180830381865afa158015613904573d6000803e3d6000fd5b505050506040513d601f19601f8201168201806040525081019061392891906159b4565b86858151811061393a5761393a615afd565b60200260200101516020015161395091906159e3565b61395a9190615a02565b90506000613966612a49565b6001600160a01b03166304f86f3c61397c611485565b6040518263ffffffff1660e01b8152600401613998919061562f565b602060405180830381865afa1580156139b5573d6000803e3d6000fd5b505050506040513d601f19601f820116820180604052508101906139d99190615a88565b6040516375719b0160e11b81523060048201526001600160a01b03919091169063eae3360290602401602060405180830381865afa158015613a1f573d6000803e3d6000fd5b505050506040513d601f19601f82011682018060405250810190613a4391906159b4565b9050828110613a59579550610699945050505050565b613a6c613a668284615ad7565b84614cc6565b9650505050505050610699565b828181518110613a8b57613a8b615afd565b602002602001015160200151613a9f612a49565b6001600160a01b03166304f86f3c886040518263ffffffff1660e01b8152600401613aca919061562f565b602060405180830381865afa158015613ae7573d6000803e3d6000fd5b505050506040513d601f19601f82011682018060405250810190613b0b9190615a88565b6040516375719b0160e11b81523060048201526001600160a01b03919091169063eae3360290602401602060405180830381865afa158015613b51573d6000803e3d6000fd5b505050506040513d601f19601f82011682018060405250810190613b7591906159b4565b613b7f9190615aea565b9350505050610699565b80613b9381615b13565b915050613839565b50600095945050505050565b60005460408051635ad66a2b60e11b8152905133926201000090046001600160a01b03169163b5acd4569160048083019260209291908290030181865afa158015613bf6573d6000803e3d6000fd5b505050506040513d601f19601f82011682018060405250810190613c1a9190615a88565b6001600160a01b031614613c665760405162461bcd60e51b815260206004820152601360248201527237b7363ca9b2ba3a3632b6b2b73a27bbb732b960691b604482015260640161074e565b613c6e614f5d565b613cba5760405162461bcd60e51b815260206004820152601860248201527f546f6b656e20726563616c6c206e6f7420616c6c6f7765640000000000000000604482015260640161074e565b613cc2611ea5565b613cca614507565b565b6000600581613cdb8285615a02565b90506000613ce983836159e3565b613cf39086615aea565b9050600083600284613d06816001615ad7565b613d1091906159e3565b613d1a9190615a02565b613d2491906159e3565b90506000613d33846001615ad7565b613d3d90846159e3565b613d479083615ad7565b979650505050505050565b600080613dcc600360020154613d66612307565b6001600160a01b0316637a893af56040518163ffffffff1660e01b8152600401602060405180830381865afa158015613da3573d6000803e3d6000fd5b505050506040513d601f19601f82011682018060405250810190613dc791906159b4565b614cc6565b90506000613dd8611543565b905073__$b96f6cc754b665f2373f69c32648f7914e$__63eefe4284670de0b6b3a7640000613e0785856159e3565b613e119190615a02565b6040516001600160e01b031960e084901b1681526004810191909152670de0b6b3a76400006024820152604401602060405180830381865af4158015613e5b573d6000803e3d6000fd5b505050506040513d601f19601f82011682018060405250810190613e7f91906159b4565b9250505090565b6000613e90611510565b6001600160a01b0316637aa873346040518163ffffffff1660e01b8152600401602060405180830381865afa158015613ecd573d6000803e3d6000fd5b505050506040513d601f19601f82011682018060405250810190613ef191906159b4565b9050801580613eff57508042105b613f395760405162461bcd60e51b815260206004820152600b60248201526a19d85b594818db1bdcd95960aa1b604482015260640161074e565b600054604051631b0b969d60e01b8152336004820152620100009091046001600160a01b031690631b0b969d90602401602060405180830381865afa158015613f86573d6000803e3d6000fd5b505050506040513d601f19601f82011682018060405250810190613faa9190615a24565b80613fcd5750613fb8611510565b6001600160a01b0316336001600160a01b0316145b8061406a57506000613fdd611510565b6001600160a01b031663ebbe8034614001600080516020615dd88339815191525490565b6040516001600160e01b031960e084901b1681526004810191909152336024820152604401602060405180830381865afa158015614043573d6000803e3d6000fd5b505050506040513d601f19601f8201168201806040525081019061406791906159b4565b14155b6140865760405162461bcd60e51b815260040161074e90615a46565b8615614096576140968888614e7f565b6140a38585888686615102565b5050505050505050565b6000806140b8611510565b6001600160a01b0316637aa873346040518163ffffffff1660e01b8152600401602060405180830381865afa1580156140f5573d6000803e3d6000fd5b505050506040513d601f19601f8201168201806040525081019061411991906159b4565b90508060000361412a574291505090565b6141344282614cc6565b91505090565b600061414461267e565b9050600061415182613ccc565b9050600061415d612a49565b6001600160a01b03166304f86f3c614173611485565b6040518263ffffffff1660e01b815260040161418f919061562f565b602060405180830381865afa1580156141ac573d6000803e3d6000fd5b505050506040513d601f19601f820116820180604052508101906141d09190615a88565b6040516375719b0160e11b81523060048201526001600160a01b03919091169063eae3360290602401602060405180830381865afa158015614216573d6000803e3d6000fd5b505050506040513d601f19601f8201168201806040525081019061423a91906159b4565b600854909150600061424a612307565b6001600160a01b03166377641f07614260611485565b6040518263ffffffff1660e01b815260040161427c919061562f565b602060405180830381865afa158015614299573d6000803e3d6000fd5b505050506040513d601f19601f820116820180604052508101906142bd91906159b4565b90506000846142cc83866159e3565b6142d69190615a02565b9050600085836142e5896115cd565b6142ef91906159e3565b6142f99190615a02565b905060006143078284614cc6565b60088190559050808511156144085761431e612a49565b6001600160a01b031663c91b95666040518163ffffffff1660e01b8152600401602060405180830381865afa15801561435b573d6000803e3d6000fd5b505050506040513d601f19601f8201168201806040525081019061437f9190615a88565b6000546001600160a01b03918216916379cc679091620100009004166143a58489615aea565b6040516001600160e01b031960e085901b1681526001600160a01b0390921660048301526024820152604401600060405180830381600087803b1580156143eb57600080fd5b505af11580156143ff573d6000803e3d6000fd5b505050506140a3565b808510156140a357614418612a49565b6001600160a01b031663c91b95666040518163ffffffff1660e01b8152600401602060405180830381865afa158015614455573d6000803e3d6000fd5b505050506040513d601f19601f820116820180604052508101906144799190615a88565b6000546001600160a01b03918216916340c10f19916201000090041661449f8885615aea565b6040516001600160e01b031960e085901b1681526001600160a01b0390921660048301526024820152604401600060405180830381600087803b1580156144e557600080fd5b505af11580156144f9573d6000803e3d6000fd5b505050505050505050505050565b6000614511611510565b6001600160a01b031663e4e940f06040518163ffffffff1660e01b8152600401602060405180830381865afa15801561454e573d6000803e3d6000fd5b505050506040513d601f19601f820116820180604052508101906145729190615a88565b6001600160a01b03166361a5d38c600c546040518263ffffffff1660e01b81526004016145a191815260200190565b600060405180830381865afa1580156145be573d6000803e3d6000fd5b505050506040513d6000823e601f3d908101601f191682016040526145e69190810190615c59565b90506145f0611510565b6001600160a01b031663e4e940f06040518163ffffffff1660e01b8152600401602060405180830381865afa15801561462d573d6000803e3d6000fd5b505050506040513d601f19601f820116820180604052508101906146519190615a88565b6001600160a01b0316636a627842600060029054906101000a90046001600160a01b03166001600160a01b031663b5acd4566040518163ffffffff1660e01b8152600401602060405180830381865afa1580156146b2573d6000803e3d6000fd5b505050506040513d601f19601f820116820180604052508101906146d69190615a88565b6040516001600160e01b031960e084901b1681526001600160a01b0390911660048201526024016020604051808303816000875af115801561471c573d6000803e3d6000fd5b505050506040513d601f19601f8201168201806040525081019061474091906159b4565b600c8190556040517fe9049357477d5e079bc0d0063d21738fc5a5fb192941a2d73acdcc125f4bc14591614775918490615d39565b60405180910390a150565b8060000361478c575050565b6000670de0b6b3a764000061479f612307565b6001600160a01b0316636f3426da6040518163ffffffff1660e01b8152600401602060405180830381865afa1580156147dc573d6000803e3d6000fd5b505050506040513d601f19601f8201168201806040525081019061480091906159b4565b61480a90846159e3565b6148149190615a02565b90506000614820612a49565b6001600160a01b03166304f86f3c856040518263ffffffff1660e01b815260040161484b919061562f565b602060405180830381865afa158015614868573d6000803e3d6000fd5b505050506040513d601f19601f8201168201806040525081019061488c9190615a88565b6040516375719b0160e11b81523060048201526001600160a01b03919091169063eae3360290602401602060405180830381865afa1580156148d2573d6000803e3d6000fd5b505050506040513d601f19601f820116820180604052508101906148f691906159b4565b905060006149056103df61267e565b90508082106149175760009250614935565b6149218282615aea565b831115614935576149328282615aea565b92505b8215614a2057614943612a49565b6001600160a01b03166304f86f3c866040518263ffffffff1660e01b815260040161496e919061562f565b602060405180830381865afa15801561498b573d6000803e3d6000fd5b505050506040513d601f19601f820116820180604052508101906149af9190615a88565b6040516340c10f1960e01b8152306004820152602481018590526001600160a01b0391909116906340c10f1990604401600060405180830381600087803b1580156149f957600080fd5b505af1158015614a0d573d6000803e3d6000fd5b505050508284614a1d9190615aea565b93505b8315614b2d57600060029054906101000a90046001600160a01b03166001600160a01b03166341c525536040518163ffffffff1660e01b8152600401602060405180830381865afa158015614a79573d6000803e3d6000fd5b505050506040513d601f19601f82011682018060405250810190614a9d9190615a88565b6000546001600160a01b039182169163bcbd6fb99162010000900416614ac1611485565b876040518463ffffffff1660e01b8152600401614ae093929190615aa5565b600060405180830381600087803b158015614afa57600080fd5b505af1158015614b0e573d6000803e3d6000fd5b505050508360096002016000828254614b279190615ad7565b90915550505b5050505050565b600080614b3f613662565b905060001960005b8251811015611e9e57828181518110614b6257614b62615afd565b602002602001015160400151614cb4576000614b7c612a49565b6001600160a01b03166304f86f3c858481518110614b9c57614b9c615afd565b6020026020010151600001516040518263ffffffff1660e01b8152600401614bc4919061562f565b602060405180830381865afa158015614be1573d6000803e3d6000fd5b505050506040513d601f19601f82011682018060405250810190614c059190615a88565b6040516375719b0160e11b81523060048201526001600160a01b03919091169063eae3360290602401602060405180830381865afa158015614c4b573d6000803e3d6000fd5b505050506040513d601f19601f82011682018060405250810190614c6f91906159b4565b905080600003614c8457600094505050505090565b614cb0848381518110614c9957614c99615afd565b60200260200101516020015182613a669190615a02565b9250505b80614cbe81615b13565b915050614b47565b6000818310614cd55781614cd7565b825b9392505050565b600080614ceb8484615aea565b90506000614cf7612307565b6001600160a01b031663657f17fd6040518163ffffffff1660e01b8152600401602060405180830381865afa158015614d34573d6000803e3d6000fd5b505050506040513d601f19601f82011682018060405250810190614d5891906159b4565b614d6a90670de0b6b3a7640000615a02565b614d749083615a02565b9050670de0b6b3a764000081614d886151a4565b614d9291906159e3565b614d9c9190615a02565b95945050505050565b6000838311614db657506000614cd7565b6000614dc28585615aea565b90506000614dce615336565b90506000614dda612307565b6001600160a01b031663657f17fd6040518163ffffffff1660e01b8152600401602060405180830381865afa158015614e17573d6000803e3d6000fd5b505050506040513d601f19601f82011682018060405250810190614e3b91906159b4565b614e4d90670de0b6b3a7640000615a02565b614e579084615a02565b9050613d47670de0b6b3a7640000614e6f84846159e3565b614e799190615a02565b86614cc6565b614e87612a49565b6001600160a01b031663cabb62f06040518163ffffffff1660e01b8152600401602060405180830381865afa158015614ec4573d6000803e3d6000fd5b505050506040513d601f19601f82011682018060405250810190614ee89190615a88565b60405163a9059cbb60e01b81526001600160a01b03848116600483015260248201849052919091169063a9059cbb906044016020604051808303816000875af1158015614f39573d6000803e3d6000fd5b505050506040513d601f19601f820116820180604052508101906119f89190615a24565b600080614f6b6103df61267e565b90506000614f77611485565b90508051600003614f8b5760009250505090565b6000670de0b6b3a7640000614f9e612307565b6001600160a01b03166368e35ca06040518163ffffffff1660e01b8152600401602060405180830381865afa158015614fdb573d6000803e3d6000fd5b505050506040513d601f19601f82011682018060405250810190614fff91906159b4565b61500990856159e3565b6150139190615a02565b9050600061501f612a49565b6001600160a01b03166304f86f3c846040518263ffffffff1660e01b815260040161504a919061562f565b602060405180830381865afa158015615067573d6000803e3d6000fd5b505050506040513d601f19601f8201168201806040525081019061508b9190615a88565b6040516370a0823160e01b81523060048201526001600160a01b0391909116906370a0823190602401602060405180830381865afa1580156150d1573d6000803e3d6000fd5b505050506040513d601f19601f820116820180604052508101906150f591906159b4565b9190911115949350505050565b60005b8481101561519c5761518a86868381811061512257615122615afd565b90506020028101906151349190615d90565b8080601f0160208091040260200160405190810160405280939291908181526020018383808284376000920191909152508892508791508690508581811061517e5761517e615afd565b905060200201356153c8565b8061519481615b13565b915050615105565b505050505050565b6000806151af610d01565b9050670de0b6b3a76400006151c2612307565b6001600160a01b031663781e0efe6040518163ffffffff1660e01b8152600401602060405180830381865afa1580156151ff573d6000803e3d6000fd5b505050506040513d601f19601f8201168201806040525081019061522391906159b4565b61522b612307565b6001600160a01b031663265d3f50846040518263ffffffff1660e01b8152600401615256919061562f565b602060405180830381865afa158015615273573d6000803e3d6000fd5b505050506040513d601f19601f8201168201806040525081019061529791906159b4565b61529f612307565b6001600160a01b031663dd77e3c7856040518263ffffffff1660e01b81526004016152ca919061562f565b602060405180830381865afa1580156152e7573d6000803e3d6000fd5b505050506040513d601f19601f8201168201806040525081019061530b91906159b4565b60025461531891906159e3565b61532291906159e3565b61532c91906159e3565b6141349190615a02565b600080615341613d52565b61534961358d565b6153539190615ad7565b905061535d612307565b6001600160a01b031663781e0efe6040518163ffffffff1660e01b8152600401602060405180830381865afa15801561539a573d6000803e3d6000fd5b505050506040513d601f19601f820116820180604052508101906153be91906159b4565b61413490826159e3565b6153d06110db565b60006153da612a49565b6001600160a01b03166304f86f3c856040518263ffffffff1660e01b8152600401615405919061562f565b602060405180830381865afa158015615422573d6000803e3d6000fd5b505050506040513d601f19601f820116820180604052508101906154469190615a88565b6040516370a0823160e01b81523060048201529091506000906001600160a01b038316906370a0823190602401602060405180830381865afa158015615490573d6000803e3d6000fd5b505050506040513d601f19601f820116820180604052508101906154b491906159b4565b9050806000036154c5575050505050565b808311156154d1578092505b6154d9611485565b805190602001208580519060200120036155225760006154fa6103df61267e565b9050600081831115615513576155108284615aea565b90505b8085111561551f578094505b50505b8215614b2d5760405163a9059cbb60e01b81526001600160a01b0385811660048301526024820185905283169063a9059cbb906044016020604051808303816000875af1158015615577573d6000803e3d6000fd5b505050506040513d601f19601f8201168201806040525081019061519c9190615a24565b6000602082840312156155ad57600080fd5b5035919050565b6001600160a01b03811681146155c957600080fd5b50565b6000602082840312156155de57600080fd5b8135614cd7816155b4565b6000815180845260005b8181101561560f576020818501810151868301820152016155f3565b506000602082860101526020601f19601f83011685010191505092915050565b602081526000614cd760208301846155e9565b60008060006060848603121561565757600080fd5b8335615662816155b4565b92506020840135615672816155b4565b929592945050506040919091013590565b6000806040838503121561569657600080fd5b82356156a1816155b4565b946020939093013593505050565b60008151606084526156c460608501826155e9565b9050602083015160208501526040830151151560408501528091505092915050565b6000602080830181845280855180835260408601915060408160051b870101925083870160005b82811015612a3c57603f198886030184526157298583516156af565b9450928501929085019060010161570d565b634e487b7160e01b600052604160045260246000fd5b604051601f8201601f1916810167ffffffffffffffff8111828210171561577a5761577a61573b565b604052919050565b600082601f83011261579357600080fd5b813567ffffffffffffffff8111156157ad576157ad61573b565b6157c0601f8201601f1916602001615751565b8181528460208386010111156157d557600080fd5b816020850160208301376000918101602001919091529392505050565b60006020828403121561580457600080fd5b813567ffffffffffffffff81111561581b57600080fd5b61582784828501615782565b949350505050565b6000602080830181845280855180835260408601915060408160051b870101925083870160005b82811015612a3c57603f198886030184526158728583516156af565b94509285019290850190600101615856565b6000806040838503121561589757600080fd5b823567ffffffffffffffff8111156158ae57600080fd5b6158ba85828601615782565b95602094909401359450505050565b60008083601f8401126158db57600080fd5b50813567ffffffffffffffff8111156158f357600080fd5b6020830191508360208260051b850101111561590e57600080fd5b9250929050565b600080600080600080600060a0888a03121561593057600080fd5b873561593b816155b4565b9650602088013595506040880135615952816155b4565b9450606088013567ffffffffffffffff8082111561596f57600080fd5b61597b8b838c016158c9565b909650945060808a013591508082111561599457600080fd5b506159a18a828b016158c9565b989b979a50959850939692959293505050565b6000602082840312156159c657600080fd5b5051919050565b634e487b7160e01b600052601160045260246000fd5b60008160001904831182151516156159fd576159fd6159cd565b500290565b600082615a1f57634e487b7160e01b600052601260045260246000fd5b500490565b600060208284031215615a3657600080fd5b81518015158114614cd757600080fd5b60208082526022908201527f6f6e6c7952756c65724f72576f726c64417373657446726f6d53616d6545706f6040820152610c6d60f31b606082015260800190565b600060208284031215615a9a57600080fd5b8151614cd7816155b4565b6001600160a01b0384168152606060208201526000615ac760608301856155e9565b9050826040830152949350505050565b80820180821115610699576106996159cd565b81810381811115610699576106996159cd565b634e487b7160e01b600052603260045260246000fd5b600060018201615b2557615b256159cd565b5060010190565b600181815b80851115615b67578160001904821115615b4d57615b4d6159cd565b80851615615b5a57918102915b93841c9390800290615b31565b509250929050565b600082615b7e57506001610699565b81615b8b57506000610699565b8160018114615ba15760028114615bab57615bc7565b6001915050610699565b60ff841115615bbc57615bbc6159cd565b50506001821b610699565b5060208310610133831016604e8410600b8410161715615bea575081810a610699565b615bf48383615b2c565b8060001904821115615c0857615c086159cd565b029392505050565b6000614cd760ff841683615b6f565b600181811c90821680615c3357607f821691505b602082108103615c5357634e487b7160e01b600052602260045260246000fd5b50919050565b60006020808385031215615c6c57600080fd5b825167ffffffffffffffff80821115615c8457600080fd5b818501915085601f830112615c9857600080fd5b815181811115615caa57615caa61573b565b8060051b9150615cbb848301615751565b8181529183018401918481019088841115615cd557600080fd5b938501935b83851015615cff5784519250615cef836155b4565b8282529385019390850190615cda565b98975050505050505050565b606081526000615d1e60608301866155e9565b6001600160a01b039490941660208301525060400152919050565b6000604082018483526020604081850152818551808452606086019150828701935060005b81811015615d835784516001600160a01b031683529383019391830191600101615d5e565b5090979650505050505050565b6000808335601e19843603018112615da757600080fd5b83018035915067ffffffffffffffff821115615dc257600080fd5b60200191503681900382131561590e57600080fdfe6c85b93e587873fbe6712f3b438d42c2945689b262f7bd34b8ea4e3f832a89e7a26469706673582212202e26714f1a01e66fda256504403d21e162351ca7fceaf5d44b04fea86d00f26164736f6c63430008100033",
  "libraries": {
    "MathExtension": "0x365B81B494a99F1DAA778eaeA0BEbc950E8bE536"
  },
  "devdoc": {
    "kind": "dev",
    "methods": {
      "assetGroup()": {
        "details": "Reads data from proxy's storage",
        "returns": {
          "_0": "World asset group"
        }
      },
      "assetType()": {
        "details": "Reads data from proxy's storage",
        "returns": {
          "_0": "World asset type"
        }
      },
      "buildingName()": {
        "details": "Same value as #assetName",
        "returns": {
          "_0": "Building name"
        }
      },
      "burnTreasury(uint256)": {
        "details": "Can be called by world asset or building owner",
        "params": {
          "amount": "Amount of resources to burn from treasury"
        }
      },
      "decreaseAdditionalWorkersCapacityMultiplier(uint256)": {
        "details": "Even though function is opened, it can be called only by world asset",
        "params": {
          "capacityAmount": "Capacity amount"
        }
      },
      "distributeToAllShareholders()": {
        "details": "Useful to get full produced resources to all shareholders"
      },
      "distributeToSingleShareholder(address)": {
        "details": "Useful to taking part of the resource from the building for single shareholder (to not pay gas for minting for all shareholders)",
        "params": {
          "holder": "Holder"
        }
      },
      "epoch()": {
        "details": "Value is dereferenced from proxy storage and world"
      },
      "epochNumber()": {
        "details": "Reads data from proxy's storage",
        "returns": {
          "_0": "Epoch number"
        }
      },
      "fixDebtAccordingToNewDistributionsAmounts(address,address,uint256)": {
        "details": "Even though function is opened, it can be called only by distributions",
        "params": {
          "amount": "Amount",
          "from": "From address",
          "to": "To address"
        }
      },
      "getAdditionalWorkersFromAdditionalWorkersCapacityMultiplier()": {
        "details": "Return value based on current advancedProduction.additionalWorkersCapacityMultiplier"
      },
      "getAdvancedUpgradeCooldownDuration(uint256)": {
        "details": "If level=1 then returned value will be duration which is taken for upgrading from 1 to 2 level",
        "params": {
          "level": "At which level calculate upgrade duration"
        },
        "returns": {
          "_0": "Upgrade cooldown duration"
        }
      },
      "getBasicUpgradeCooldownDuration(uint256)": {
        "details": "If level=1 then returned value will be duration which is taken for upgrading from 1 to 2 level",
        "params": {
          "level": "At which level calculate upgrade duration"
        },
        "returns": {
          "_0": "Upgrade cooldown duration"
        }
      },
      "getBuildingCoefficient(uint256)": {
        "details": "Used to determine max treasury amount and new production coefficients",
        "params": {
          "level": "Building level"
        },
        "returns": {
          "_0": "Building coefficient"
        }
      },
      "getBuildingLevel()": {
        "details": "Takes into an account if upgrades are finished or not",
        "returns": {
          "_0": "Current building level"
        }
      },
      "getConfig()": {
        "details": "Main config that determines which resources is produced/spend by production of this buildingInitialResourceBlock.perTick is value how much of resource is spend/produced by 1 worker in 1 second of production",
        "returns": {
          "initialResourceBlocks": "Production config for current building"
        }
      },
      "getMaxAvailableForAdvancedProductionWorkers()": {
        "details": "Difference between getMaxWorkers() and getAdditionalWorkersFromAdditionalWorkersCapacityMultiplier()"
      },
      "getMaxTreasuryByLevel(uint256)": {
        "details": "Can be used to determine maximum amount of treasury by any level",
        "params": {
          "level": "Building level",
          "maxTreasury": "Maximum amount of treasury"
        }
      },
      "getMaxWorkers()": {
        "details": "Useful to determinate maximum amount of workers",
        "returns": {
          "_0": "Maximum amount of workers"
        }
      },
      "getProducingResourceName()": {
        "details": "Return value is value from #getConfig where 'isProduced'=true",
        "returns": {
          "_0": "Name of producing resource"
        }
      },
      "getProductionResult(uint256)": {
        "details": "Useful for determination how much of all production will be burned/produced at the specific time",
        "params": {
          "timestamp": "Time at which calculate amount of resources in building. If timestamp=0 -> calculates as block.timestamp"
        },
        "returns": {
          "_0": "Production resources changes at provided time"
        }
      },
      "getResourcesAmount(string,uint256)": {
        "details": "Useful for determination how much of production resource (either producing and spending) at the specific time",
        "params": {
          "resourceName": "Name of resource related to production",
          "timestamp": "Time at which calculate amount of resources in building. If timestamp=0 -> calculates as block.timestamp"
        },
        "returns": {
          "_0": "Real amount of provided resource in building related to its production at provided time"
        }
      },
      "getTreasury(uint256)": {
        "details": "Useful for determination how much treasury will be at specific time",
        "params": {
          "timestamp": "Time at which calculate amount of treasury in building. If timestamp=0 -> calculates as block.timestamp"
        },
        "returns": {
          "_0": "Treasury amount at specified time"
        }
      },
      "getUpgradePrice(uint256)": {
        "details": "Useful for determination how much upgrade will cost at any level",
        "params": {
          "level": "Level at which calculate price"
        },
        "returns": {
          "_0": "Amount of resources needed for upgrade"
        }
      },
      "getWorkers()": {
        "details": "Same as workers.balanceOf(buildingAddress)",
        "returns": {
          "_0": "Amount of workers currently sitting in this building"
        }
      },
      "increaseAdditionalWorkersCapacityMultiplier(uint256)": {
        "details": "Even though function is opened, it can be called only by world asset",
        "params": {
          "capacityAmount": "Capacity amount"
        }
      },
      "init(address)": {
        "details": "Called by factory contract which creates current instance",
        "params": {
          "settlementAddress": "Settlement address"
        }
      },
      "isResourceAcceptable(string)": {
        "details": "Return value based on #getConfig",
        "params": {
          "resourceName": "Name of resource"
        },
        "returns": {
          "_0": "Is building can accept resource"
        }
      },
      "productionResourcesChanged()": {
        "details": "Even though function is opened, it is auto-called by transfer method. Standalone calls provide 0 impact."
      },
      "registry()": {
        "details": "Value is dereferenced from world"
      },
      "removeResourcesAndWorkers(address,uint256,address,string[],uint256[])": {
        "details": "Removes resources+workers from building in single transaction",
        "params": {
          "resourceTypes": "Resource types",
          "resourcesAmounts": "Resources amounts",
          "resourcesReceiverAddress": "Resources receiver address",
          "workersAmount": "Workers amount (in 1e18 precision)",
          "workersReceiverAddress": "Workers receiver address (building or settlement)"
        }
      },
      "resetDistribution()": {
        "details": "Creates new distribution Nft and mints it to current settlement owner"
      },
      "startAdvancedUpgrade(address)": {
        "details": "Resources required for upgrade will be taken either from msg.sender or resourcesOwner (if resource.allowance allows it)If resourcesOwner == address(0) -> resources will be taken from msg.senderIf resourcesOwner != address(0) and resourcesOwner has given allowance to msg.sender >= upgradePrice -> resources will be taken from resourcesOwner",
        "params": {
          "resourcesOwner": "Resources owner"
        }
      },
      "startBasicUpgrade(address)": {
        "details": "Resources required for upgrade will be taken either from msg.sender or resourcesOwner (if resource.allowance allows it)If resourcesOwner == address(0) -> resources will be taken from msg.senderIf resourcesOwner != address(0) and resourcesOwner has given allowance to msg.sender >= upgradePrice -> resources will be taken from resourcesOwner",
        "params": {
          "resourcesOwner": "Resources owner"
        }
      },
      "stealTreasury(address,uint256)": {
        "details": "Called by siege or building owner, in either case part of resources will be burned according to #registry.getRobberyFee",
        "params": {
          "amount": "Amount of resources to steal, 'to' will get only part of specified 'amount', some percent of specified 'amount' will be burned",
          "to": "An address which will get resources"
        },
        "returns": {
          "_0": "Real amount of resources from which stealing occurred (min(amount, treasury))"
        }
      },
      "updateState()": {
        "details": "Updates building production minting treasury and increasing #production.readyToBeDistributed"
      },
      "world()": {
        "details": "Value is dereferenced from proxy storage"
      }
    },
    "version": 1
  },
  "userdoc": {
    "events": {
      "DistributedToShareHolder(string,address,uint256)": {
        "notice": "Emitted when #distribute is called. When resources from production are distributed to building token holders. Will be deprecated in favor of ERC20 transfer event."
      },
      "NewDistribution(uint256,address[])": {
        "notice": "Emitted when #setDefaultDistribution is called"
      },
      "UpgradeFinish(uint256)": {
        "notice": "Emitted when #startBasicUpgrade or #startAdvancedUpgrade is called"
      }
    },
    "kind": "user",
    "methods": {
      "advancedProduction()": {
        "notice": "Advanced production"
      },
      "assetGroup()": {
        "notice": "Returns world asset group"
      },
      "assetType()": {
        "notice": "Returns world asset type"
      },
      "basicProduction()": {
        "notice": "Basic production"
      },
      "buildingName()": {
        "notice": "Returns building name"
      },
      "burnTreasury(uint256)": {
        "notice": "Burns building treasury"
      },
      "currentSettlement()": {
        "notice": "Settlement address to which this building belongs"
      },
      "decreaseAdditionalWorkersCapacityMultiplier(uint256)": {
        "notice": "Decreases additional workers capacity multiplier"
      },
      "distributeToAllShareholders()": {
        "notice": "Distributes produces resource to all shareholders"
      },
      "distributeToSingleShareholder(address)": {
        "notice": "Distributes produced resource to single shareholder"
      },
      "distributionId()": {
        "notice": "Distribution id"
      },
      "epoch()": {
        "notice": "Epoch"
      },
      "epochNumber()": {
        "notice": "Returns epoch number"
      },
      "fixDebtAccordingToNewDistributionsAmounts(address,address,uint256)": {
        "notice": "Fixes debt from shareholder whenever its share part changes"
      },
      "getAdditionalWorkersFromAdditionalWorkersCapacityMultiplier()": {
        "notice": "Calculates additional workers 'granted' from capacity multiplier"
      },
      "getAdvancedUpgradeCooldownDuration(uint256)": {
        "notice": "Calculates advanced upgrade duration for provided level"
      },
      "getBasicUpgradeCooldownDuration(uint256)": {
        "notice": "Calculates basic upgrade duration for provided level"
      },
      "getBuildingCoefficient(uint256)": {
        "notice": "Calculates building coefficient by provided level"
      },
      "getBuildingLevel()": {
        "notice": "Calculates current level"
      },
      "getConfig()": {
        "notice": "Returns production config for current building"
      },
      "getMaxAvailableForAdvancedProductionWorkers()": {
        "notice": "Calculates max available for advanced production workers"
      },
      "getMaxTreasuryByLevel(uint256)": {
        "notice": "Calculates maximum amount of treasury by provided level"
      },
      "getMaxWorkers()": {
        "notice": "Calculates maximum amount of workers"
      },
      "getProducingResourceName()": {
        "notice": "Calculates producing resource name for this building"
      },
      "getProductionResult(uint256)": {
        "notice": "Calculates production resources changes at provided time"
      },
      "getResourcesAmount(string,uint256)": {
        "notice": "Calculates real amount of provided resource in building related to its production at provided time"
      },
      "getTreasury(uint256)": {
        "notice": "Calculates treasury amount at specified time"
      },
      "getUpgradePrice(uint256)": {
        "notice": "Calculates upgrade price by provided level"
      },
      "getWorkers()": {
        "notice": "Calculates amount of workers currently sitting in this building"
      },
      "increaseAdditionalWorkersCapacityMultiplier(uint256)": {
        "notice": "Increases additional workers capacity multiplier"
      },
      "init(address)": {
        "notice": "Proxy initializer"
      },
      "isResourceAcceptable(string)": {
        "notice": "Calculates if building is capable to accept resource"
      },
      "producedResourceDebt(address)": {
        "notice": "Produced resource debt"
      },
      "production()": {
        "notice": "Contains current production state of the building"
      },
      "productionResourcesChanged()": {
        "notice": "Callback which recalculates production. Called when resources related to production of this building is transferred from/to this building"
      },
      "prosperity()": {
        "notice": "Buildings prosperity"
      },
      "registry()": {
        "notice": "Registry"
      },
      "removeResourcesAndWorkers(address,uint256,address,string[],uint256[])": {
        "notice": "Transfers game resources and workers from building to provided addresses"
      },
      "resetDistribution()": {
        "notice": "Resets current building distribution"
      },
      "startAdvancedUpgrade(address)": {
        "notice": "Starts advanced building upgrade"
      },
      "startBasicUpgrade(address)": {
        "notice": "Starts basic building upgrade"
      },
      "stealTreasury(address,uint256)": {
        "notice": "Steals resources from treasury"
      },
      "updateState()": {
        "notice": "Updates state of this building up to block.timestamp"
      },
      "upgradeCooldownFinishTime()": {
        "notice": "Upgrade cooldown finish time"
      },
      "world()": {
        "notice": "World"
      }
    },
    "version": 1
  },
  "storageLayout": {
    "storage": [
      {
        "astId": 119,
        "contract": "contracts/core/assets/building/impl/Mine.sol:Mine",
        "label": "_initialized",
        "offset": 0,
        "slot": "0",
        "type": "t_uint8"
      },
      {
        "astId": 122,
        "contract": "contracts/core/assets/building/impl/Mine.sol:Mine",
        "label": "_initializing",
        "offset": 1,
        "slot": "0",
        "type": "t_bool"
      },
      {
        "astId": 14705,
        "contract": "contracts/core/assets/building/impl/Mine.sol:Mine",
        "label": "currentSettlement",
        "offset": 2,
        "slot": "0",
        "type": "t_contract(ISettlement)20787"
      },
      {
        "astId": 14710,
        "contract": "contracts/core/assets/building/impl/Mine.sol:Mine",
        "label": "basicProduction",
        "offset": 0,
        "slot": "1",
        "type": "t_struct(BasicProduction)17315_storage"
      },
      {
        "astId": 14715,
        "contract": "contracts/core/assets/building/impl/Mine.sol:Mine",
        "label": "advancedProduction",
        "offset": 0,
        "slot": "3",
        "type": "t_struct(AdvancedProduction)17324_storage"
      },
      {
        "astId": 14719,
        "contract": "contracts/core/assets/building/impl/Mine.sol:Mine",
        "label": "upgradeCooldownFinishTime",
        "offset": 0,
        "slot": "7",
        "type": "t_uint256"
      },
      {
        "astId": 14723,
        "contract": "contracts/core/assets/building/impl/Mine.sol:Mine",
        "label": "prosperity",
        "offset": 0,
        "slot": "8",
        "type": "t_uint256"
      },
      {
        "astId": 14728,
        "contract": "contracts/core/assets/building/impl/Mine.sol:Mine",
        "label": "production",
        "offset": 0,
        "slot": "9",
        "type": "t_struct(Production)17331_storage"
      },
      {
        "astId": 14732,
        "contract": "contracts/core/assets/building/impl/Mine.sol:Mine",
        "label": "distributionId",
        "offset": 0,
        "slot": "12",
        "type": "t_uint256"
      },
      {
        "astId": 14738,
        "contract": "contracts/core/assets/building/impl/Mine.sol:Mine",
        "label": "producedResourceDebt",
        "offset": 0,
        "slot": "13",
        "type": "t_mapping(t_address,t_uint256)"
      }
    ],
    "types": {
      "t_address": {
        "encoding": "inplace",
        "label": "address",
        "numberOfBytes": "20"
      },
      "t_bool": {
        "encoding": "inplace",
        "label": "bool",
        "numberOfBytes": "1"
      },
      "t_contract(ISettlement)20787": {
        "encoding": "inplace",
        "label": "contract ISettlement",
        "numberOfBytes": "20"
      },
      "t_mapping(t_address,t_uint256)": {
        "encoding": "mapping",
        "key": "t_address",
        "label": "mapping(address => uint256)",
        "numberOfBytes": "32",
        "value": "t_uint256"
      },
      "t_struct(AdvancedProduction)17324_storage": {
        "encoding": "inplace",
        "label": "struct IBuilding.AdvancedProduction",
        "members": [
          {
            "astId": 17317,
            "contract": "contracts/core/assets/building/impl/Mine.sol:Mine",
            "label": "level",
            "offset": 0,
            "slot": "0",
            "type": "t_uint256"
          },
          {
            "astId": 17319,
            "contract": "contracts/core/assets/building/impl/Mine.sol:Mine",
            "label": "coefficient",
            "offset": 0,
            "slot": "1",
            "type": "t_uint256"
          },
          {
            "astId": 17321,
            "contract": "contracts/core/assets/building/impl/Mine.sol:Mine",
            "label": "additionalWorkersCapacityMultiplier",
            "offset": 0,
            "slot": "2",
            "type": "t_uint256"
          },
          {
            "astId": 17323,
            "contract": "contracts/core/assets/building/impl/Mine.sol:Mine",
            "label": "toBeProducedTicks",
            "offset": 0,
            "slot": "3",
            "type": "t_uint256"
          }
        ],
        "numberOfBytes": "128"
      },
      "t_struct(BasicProduction)17315_storage": {
        "encoding": "inplace",
        "label": "struct IBuilding.BasicProduction",
        "members": [
          {
            "astId": 17312,
            "contract": "contracts/core/assets/building/impl/Mine.sol:Mine",
            "label": "level",
            "offset": 0,
            "slot": "0",
            "type": "t_uint256"
          },
          {
            "astId": 17314,
            "contract": "contracts/core/assets/building/impl/Mine.sol:Mine",
            "label": "coefficient",
            "offset": 0,
            "slot": "1",
            "type": "t_uint256"
          }
        ],
        "numberOfBytes": "64"
      },
      "t_struct(Production)17331_storage": {
        "encoding": "inplace",
        "label": "struct IBuilding.Production",
        "members": [
          {
            "astId": 17326,
            "contract": "contracts/core/assets/building/impl/Mine.sol:Mine",
            "label": "lastUpdateStateTime",
            "offset": 0,
            "slot": "0",
            "type": "t_uint256"
          },
          {
            "astId": 17328,
            "contract": "contracts/core/assets/building/impl/Mine.sol:Mine",
            "label": "lastUpdateStateZoneTime",
            "offset": 0,
            "slot": "1",
            "type": "t_uint256"
          },
          {
            "astId": 17330,
            "contract": "contracts/core/assets/building/impl/Mine.sol:Mine",
            "label": "readyToBeDistributed",
            "offset": 0,
            "slot": "2",
            "type": "t_uint256"
          }
        ],
        "numberOfBytes": "96"
      },
      "t_uint256": {
        "encoding": "inplace",
        "label": "uint256",
        "numberOfBytes": "32"
      },
      "t_uint8": {
        "encoding": "inplace",
        "label": "uint8",
        "numberOfBytes": "1"
      }
    }
  }
}