{
  "address": "0x8288D85d13fA81448D321fc33d82cbf7C23Cb641",
  "abi": [
    {
      "anonymous": false,
      "inputs": [
        {
          "indexed": false,
          "internalType": "uint8",
          "name": "version",
          "type": "uint8"
        }
      ],
      "name": "Initialized",
      "type": "event"
    },
    {
      "anonymous": false,
      "inputs": [
        {
          "indexed": false,
          "internalType": "address",
          "name": "spender",
          "type": "address"
        },
        {
          "indexed": false,
          "internalType": "address",
          "name": "armyAddress",
          "type": "address"
        },
        {
          "indexed": false,
          "internalType": "uint256",
          "name": "unitsBought",
          "type": "uint256"
        },
        {
          "indexed": false,
          "internalType": "uint256",
          "name": "weaponsSpent",
          "type": "uint256"
        }
      ],
      "name": "UnitsBought",
      "type": "event"
    },
    {
      "inputs": [],
      "name": "assetGroup",
      "outputs": [
        {
          "internalType": "string",
          "name": "",
          "type": "string"
        }
      ],
      "stateMutability": "view",
      "type": "function"
    },
    {
      "inputs": [],
      "name": "assetType",
      "outputs": [
        {
          "internalType": "string",
          "name": "",
          "type": "string"
        }
      ],
      "stateMutability": "view",
      "type": "function"
    },
    {
      "inputs": [],
      "name": "currentZone",
      "outputs": [
        {
          "internalType": "contract IZone",
          "name": "",
          "type": "address"
        }
      ],
      "stateMutability": "view",
      "type": "function"
    },
    {
      "inputs": [],
      "name": "epoch",
      "outputs": [
        {
          "internalType": "contract IEpoch",
          "name": "",
          "type": "address"
        }
      ],
      "stateMutability": "view",
      "type": "function"
    },
    {
      "inputs": [],
      "name": "epochNumber",
      "outputs": [
        {
          "internalType": "uint256",
          "name": "",
          "type": "uint256"
        }
      ],
      "stateMutability": "view",
      "type": "function"
    },
    {
      "inputs": [
        {
          "internalType": "uint256",
          "name": "unitsToBuy",
          "type": "uint256"
        }
      ],
      "name": "getAmountIn",
      "outputs": [
        {
          "internalType": "uint256",
          "name": "",
          "type": "uint256"
        },
        {
          "internalType": "uint256",
          "name": "",
          "type": "uint256"
        }
      ],
      "stateMutability": "view",
      "type": "function"
    },
    {
      "inputs": [
        {
          "internalType": "address",
          "name": "_zoneAddress",
          "type": "address"
        },
        {
          "internalType": "string",
          "name": "_unitsType",
          "type": "string"
        }
      ],
      "name": "init",
      "outputs": [],
      "stateMutability": "nonpayable",
      "type": "function"
    },
    {
      "inputs": [],
      "name": "lastPurchaseTime",
      "outputs": [
        {
          "internalType": "uint256",
          "name": "",
          "type": "uint256"
        }
      ],
      "stateMutability": "view",
      "type": "function"
    },
    {
      "inputs": [],
      "name": "registry",
      "outputs": [
        {
          "internalType": "contract IRegistry",
          "name": "",
          "type": "address"
        }
      ],
      "stateMutability": "view",
      "type": "function"
    },
    {
      "inputs": [],
      "name": "startingPrice",
      "outputs": [
        {
          "internalType": "uint256",
          "name": "",
          "type": "uint256"
        }
      ],
      "stateMutability": "view",
      "type": "function"
    },
    {
      "inputs": [
        {
          "internalType": "address",
          "name": "resourcesOwner",
          "type": "address"
        },
        {
          "internalType": "address",
          "name": "settlementAddress",
          "type": "address"
        },
        {
          "internalType": "uint256",
          "name": "unitsToBuy",
          "type": "uint256"
        },
        {
          "internalType": "uint256",
          "name": "maxWeaponsToSell",
          "type": "uint256"
        }
      ],
      "name": "swapWeaponsForExactUnits",
      "outputs": [
        {
          "internalType": "uint256",
          "name": "",
          "type": "uint256"
        }
      ],
      "stateMutability": "nonpayable",
      "type": "function"
    },
    {
      "inputs": [
        {
          "internalType": "address",
          "name": "resourcesOwner",
          "type": "address"
        },
        {
          "internalType": "address",
          "name": "msgSender",
          "type": "address"
        },
        {
          "internalType": "address",
          "name": "settlementAddress",
          "type": "address"
        },
        {
          "internalType": "uint256",
          "name": "unitsToBuy",
          "type": "uint256"
        },
        {
          "internalType": "uint256",
          "name": "maxWeaponsToSell",
          "type": "uint256"
        }
      ],
      "name": "swapWeaponsForExactUnitsByZone",
      "outputs": [
        {
          "internalType": "uint256",
          "name": "",
          "type": "uint256"
        }
      ],
      "stateMutability": "nonpayable",
      "type": "function"
    },
    {
      "inputs": [],
      "name": "unitsType",
      "outputs": [
        {
          "internalType": "string",
          "name": "",
          "type": "string"
        }
      ],
      "stateMutability": "view",
      "type": "function"
    },
    {
      "inputs": [],
      "name": "world",
      "outputs": [
        {
          "internalType": "contract IWorld",
          "name": "",
          "type": "address"
        }
      ],
      "stateMutability": "view",
      "type": "function"
    }
  ],
  "transactionHash": "0x261c3357adcc719821edf7a8ba3fac279763b76a32070510517ef03fab405e9a",
  "args": [],
  "numDeployments": 1,
  "solcInputHash": "d40fd766cc3fa0d4c836779e74bc4f2f",
  "bytecode": "0x608060405234801561001057600080fd5b5061263a806100206000396000f3fe608060405234801561001057600080fd5b50600436106100ea5760003560e01c80639abb3cae1161008c578063d6fbf20211610066578063d6fbf202146101bf578063e5f1a95f146101c8578063f321b305146101d0578063f4145a83146101e557600080fd5b80639abb3cae146101865780639b4faa801461018e578063c14bafb1146101b657600080fd5b80637b103999116100c85780637b10399914610142578063900cf0cf1461014a578063906c7a71146101525780639709cbd21461017357600080fd5b806330b67baa146100ef5780633fe3347a1461011457806341c5255314610129575b600080fd5b6100f761020c565b6040516001600160a01b0390911681526020015b60405180910390f35b61011c610244565b60405161010b9190611f3a565b6000546100f7906201000090046001600160a01b031681565b6100f76102f8565b6100f7610363565b610165610160366004611f65565b6103de565b60405190815260200161010b565b610165610181366004611fab565b6103f6565b61011c61045e565b6101a161019c366004612006565b61048f565b6040805192835260208301919091520161010b565b61016560015481565b61016560035481565b61011c6104b8565b6101e36101de36600461208e565b610546565b005b7f6c85b93e587873fbe6712f3b438d42c2945689b262f7bd34b8ea4e3f832a89e754610165565b600061023f7f6c85b93e587873fbe6712f3b438d42c2945689b262f7bd34b8ea4e3f832a89e6546001600160a01b031690565b905090565b60607f6c85b93e587873fbe6712f3b438d42c2945689b262f7bd34b8ea4e3f832a89e6600401805461027590612121565b80601f01602080910402602001604051908101604052809291908181526020018280546102a190612121565b80156102ee5780601f106102c3576101008083540402835291602001916102ee565b820191906000526020600020905b8154815290600101906020018083116102d157829003601f168201915b5050505050905090565b600061030261020c565b6001600160a01b0316637b1039996040518163ffffffff1660e01b8152600401602060405180830381865afa15801561033f573d6000803e3d6000fd5b505050506040513d601f19601f8201168201806040525081019061023f919061215b565b600061036d61020c565b6001600160a01b031663c6b61e4c6103a37f6c85b93e587873fbe6712f3b438d42c2945689b262f7bd34b8ea4e3f832a89e75490565b6040518263ffffffff1660e01b81526004016103c191815260200190565b602060405180830381865afa15801561033f573d6000803e3d6000fd5b60006103ed853386868661069d565b95945050505050565b600080546201000090046001600160a01b031633146104475760405162461bcd60e51b81526020600482015260086024820152676f6e6c795a6f6e6560c01b60448201526064015b60405180910390fd5b610454868686868661069d565b9695505050505050565b60607f6c85b93e587873fbe6712f3b438d42c2945689b262f7bd34b8ea4e3f832a89e6600301805461027590612121565b60008060006104a26103ec6103e8610f11565b90506104ae8482610f54565b9250925050915091565b600280546104c590612121565b80601f01602080910402602001604051908101604052809291908181526020018280546104f190612121565b801561053e5780601f106105135761010080835404028352916020019161053e565b820191906000526020600020905b81548152906001019060200180831161052157829003601f168201915b505050505081565b600054610100900460ff16158080156105665750600054600160ff909116105b806105805750303b158015610580575060005460ff166001145b6105e35760405162461bcd60e51b815260206004820152602e60248201527f496e697469616c697a61626c653a20636f6e747261637420697320616c72656160448201526d191e481a5b9a5d1a585b1a5e995960921b606482015260840161043e565b6000805460ff191660011790558015610606576000805461ff0019166101001790555b6000805475ffffffffffffffffffffffffffffffffffffffff00001916620100006001600160a01b03861602179055600261064183826121c6565b5042600155678ac7230489e800006003558015610698576000805461ff0019169055604051600181527f7f26b83ff96e1f2b6a682f133852f6798a09c465da95921460cefb38474024989060200160405180910390a15b505050565b6000670de0b6b3a76400008310156106f75760405162461bcd60e51b815260206004820152601d60248201527f496e73756666696369656e7420756e6974732062757920616d6f756e74000000604482015260640161043e565b6040516314188b1d60e11b815260048101849052670de0b6b3a7640000602482015273365B81B494a99F1DAA778eaeA0BEbc950E8bE53690632831163a90604401602060405180830381865af4158015610755573d6000803e3d6000fd5b505050506040513d601f19601f820116820180604052508101906107799190612286565b6107da5760405162461bcd60e51b815260206004820152602c60248201527f4e6f7420696e746567657220616d6f756e74206f6620756e69747320746f206260448201526b1d5e481cdc1958da599a595960a21b606482015260840161043e565b6000821161083b5760405162461bcd60e51b815260206004820152602860248201527f496e73756666696369656e74206d6178696d756d20776561706f6e732073656c6044820152671b08185b5bdd5b9d60c21b606482015260840161043e565b600060029054906101000a90046001600160a01b03166001600160a01b0316846001600160a01b03166341c525536040518163ffffffff1660e01b8152600401602060405180830381865afa158015610898573d6000803e3d6000fd5b505050506040513d601f19601f820116820180604052508101906108bc919061215b565b6001600160a01b0316146109215760405162461bcd60e51b815260206004820152602660248201527f536574746c656d656e7420646f65736e27742062656c6f6e6720746f2074686960448201526573207a6f6e6560d01b606482015260840161043e565b600061092c85610ff1565b905060006109398661113d565b905084610946838361153f565b10156109855760405162461bcd60e51b815260206004820152600e60248201526d115e18d959591959081b1a5b5a5d60921b604482015260640161043e565b60008061099d61019c670de0b6b3a7640000896122d4565b9150915085821115610a065760405162461bcd60e51b815260206004820152602c60248201527f576561706f6e7320746f2073656c6c206973206d6f7265207468616e2073706560448201526b18da599a5959081b1a5b5a5d60a21b606482015260840161043e565b6000886001600160a01b031663f10e38af6040518163ffffffff1660e01b8152600401602060405180830381865afa158015610a46573d6000803e3d6000fd5b505050506040513d601f19601f82011682018060405250810190610a6a919061215b565b9050806001600160a01b0316631d8557d76040518163ffffffff1660e01b8152600401600060405180830381600087803b158015610aa757600080fd5b505af1158015610abb573d6000803e3d6000fd5b505050506000816001600160a01b031663a74bd4f66040518163ffffffff1660e01b81526004016040805180830381865afa158015610afe573d6000803e3d6000fd5b505050506040513d601f19601f82011682018060405250810190610b229190612313565b91505067ffffffffffffffff811615610b7d5760405162461bcd60e51b815260206004820152601d60248201527f43616e2774206869726520756e697473207768696c65206d6f76696e67000000604482015260640161043e565b6000826001600160a01b0316633cb9758a6040518163ffffffff1660e01b81526004016040805180830381865afa158015610bbc573d6000803e3d6000fd5b505050506040513d601f19601f82011682018060405250810190610be09190612313565b91505067ffffffffffffffff811615610c3b5760405162461bcd60e51b815260206004820152601e60248201527f7374756e6e65642061726d792063616e6e6f74206869726520756e6974730000604482015260640161043e565b826001600160a01b038e16610cbb57610c5261165a565b60405163079cc67960e41b81526001600160a01b038f811660048301526024820189905291909116906379cc679090604401600060405180830381600087803b158015610c9e57600080fd5b505af1158015610cb2573d6000803e3d6000fd5b50505050610dbf565b610cc361165a565b6001600160a01b031663dd8aaa4f8f8f896040518463ffffffff1660e01b8152600401610d11939291906001600160a01b039384168152919092166020820152604081019190915260600190565b600060405180830381600087803b158015610d2b57600080fd5b505af1158015610d3f573d6000803e3d6000fd5b50505050610d4b61165a565b6001600160a01b03166379cc67908f886040518363ffffffff1660e01b8152600401610d8c9291906001600160a01b03929092168252602082015260400190565b600060405180830381600087803b158015610da657600080fd5b505af1158015610dba573d6000803e3d6000fd5b505050505b600054604051636e08f72160e01b8152620100009091046001600160a01b031690636e08f72190610df6908f908a90600401612346565b600060405180830381600087803b158015610e1057600080fd5b505af1158015610e24573d6000803e3d6000fd5b50505050610e3061168d565b6040516340c10f1960e01b81526001600160a01b038381166004830152602482018e905291909116906340c10f1990604401600060405180830381600087803b158015610e7c57600080fd5b505af1158015610e90573d6000803e3d6000fd5b505050600386905550426001556040517f522208dedb79df7e31cf290a4c2c90398cc08d0246cd6f4b28c0b2319c6d1b5d90610ef7908f9084908f908b906001600160a01b0394851681529290931660208301526040820152606081019190915260800190565b60405180910390a150989c9b505050505050505050505050565b600081600003610f2057600080fd5b6000610f2c84846116c3565b905060016001607f1b036001600160801b0382161115610f4b57600080fd5b90505b92915050565b6000806000610f61611828565b90506000610f6f8587611981565b90506000610f97610f8983610f846001611ba3565b611bc1565b610f9288611bf5565b611c2f565b90506000610fa58483611c86565b90506000610fb38585611c86565b90506000610fc983670de0b6b3a7640000611cbc565b90506000610fdf83670de0b6b3a7640000611cbc565b919b919a509098505050505050505050565b600080829050806001600160a01b0316635c8872076040518163ffffffff1660e01b8152600401600060405180830381600087803b15801561103257600080fd5b505af1158015611046573d6000803e3d6000fd5b50506040516399258aef60e01b8152600092506001600160a01b03841691506399258aef90611090906004016020808252600490820152631193d49560e21b604082015260600190565b602060405180830381865afa1580156110ad573d6000803e3d6000fd5b505050506040513d601f19601f820116820180604052508101906110d1919061215b565b9050806001600160a01b0316637633a22c6040518163ffffffff1660e01b8152600401602060405180830381865afa158015611111573d6000803e3d6000fd5b505050506040513d601f19601f82011682018060405250810190611135919061238a565b949350505050565b6000808290506000816001600160a01b031663f10e38af6040518163ffffffff1660e01b8152600401602060405180830381865afa158015611183573d6000803e3d6000fd5b505050506040513d601f19601f820116820180604052508101906111a7919061215b565b9050806001600160a01b0316631d8557d76040518163ffffffff1660e01b8152600401600060405180830381600087803b1580156111e457600080fd5b505af11580156111f8573d6000803e3d6000fd5b50505050806001600160a01b0316633b81149d6040518163ffffffff1660e01b8152600401602060405180830381865afa15801561123a573d6000803e3d6000fd5b505050506040513d601f19601f8201168201806040525081019061125e9190612286565b6112aa5760405162461bcd60e51b815260206004820152601e60248201527f43616e2068697265206f6e6c79206f6e20686f6d6520706f736974696f6e0000604482015260640161043e565b6000816001600160a01b0316632de7e9b06040518163ffffffff1660e01b8152600401602060405180830381865afa1580156112ea573d6000803e3d6000fd5b505050506040513d601f19601f8201168201806040525081019061130e919061215b565b9050600061131a6102f8565b6001600160a01b031663027aa9f56040518163ffffffff1660e01b8152600401600060405180830381865afa158015611357573d6000803e3d6000fd5b505050506040513d6000823e601f3d908101601f1916820160405261137f91908101906123a3565b905060005b81518110156115355760008282815181106113a1576113a16124a2565b602002602001015190506113b3610363565b6001600160a01b031663fe01e782826040518263ffffffff1660e01b81526004016113de9190611f3a565b602060405180830381865afa1580156113fb573d6000803e3d6000fd5b505050506040513d601f19601f8201168201806040525081019061141f919061215b565b6040516370a0823160e01b81526001600160a01b03878116600483015291909116906370a0823190602401602060405180830381865afa158015611467573d6000803e3d6000fd5b505050506040513d601f19601f8201168201806040525081019061148b919061238a565b61149590886124b8565b96506001600160a01b0384161561152257604051632e828edf60e21b81526001600160a01b0385169063ba0a3b7c906114d490889085906004016124cb565b602060405180830381865afa1580156114f1573d6000803e3d6000fd5b505050506040513d601f19601f82011682018060405250810190611515919061238a565b61151f90886124b8565b96505b508061152d816124ed565b915050611384565b5050505050919050565b60008073365B81B494a99F1DAA778eaeA0BEbc950E8bE53663eefe42846115646102f8565b6001600160a01b031663a6896cdb6040518163ffffffff1660e01b8152600401602060405180830381865afa1580156115a1573d6000803e3d6000fd5b505050506040513d601f19601f820116820180604052508101906115c5919061238a565b6115cf90876122d4565b6040516001600160e01b031960e084901b1681526004810191909152670de0b6b3a76400006024820152604401602060405180830381865af4158015611619573d6000803e3d6000fd5b505050506040513d601f19601f8201168201806040525081019061163d919061238a565b9050808310611650576000915050610f4e565b6111358382612506565b6000611664610363565b6001600160a01b03166304f86f3c6040518163ffffffff1660e01b81526004016103c190612519565b6000611697610363565b6001600160a01b031663fe01e78260026040518263ffffffff1660e01b81526004016103c1919061253f565b6000816000036116d257600080fd5b60006001600160c01b0384116116fd5782604085901b816116f5576116f56122a8565b049050611814565b60c084811c6401000000008110611716576020918201911c5b620100008110611728576010918201911c5b6101008110611739576008918201911c5b60108110611749576004918201911c5b60048110611759576002918201911c5b60028110611768576001820191505b60bf820360018603901c6001018260ff0387901b81611789576117896122a8565b0492506001600160801b038311156117a057600080fd5b608085901c83026001600160801b038616840260c088901c604089901b828110156117cc576001820391505b608084901b929003828110156117e3576001820391505b829003608084901c82146117f9576117f96125ca565b888181611808576118086122a8565b04870196505050505050505b6001600160801b03811115610f4b57600080fd5b60008061189f60015461183961020c565b6001600160a01b0316630252b9956040518163ffffffff1660e01b8152600401602060405180830381865afa158015611876573d6000803e3d6000fd5b505050506040513d601f19601f8201168201806040525081019061189a919061238a565b611d89565b905060006118b7600354670de0b6b3a7640000610f11565b90504282106118c65792915050565b60006118d28342612506565b90506000806118df6102f8565b6001600160a01b031663f8c73bd360026040518263ffffffff1660e01b815260040161190b919061253f565b6040805180830381865afa158015611927573d6000803e3d6000fd5b505050506040513d601f19601f8201168201806040525081019061194b91906125e0565b91509150600061195b8383610f11565b905060006119698286611981565b90506119758682611c86565b97505050505050505090565b600080600084600f0b12801561199a5750826001166001145b905060008085600f0b126119ae57846119b3565b846000035b6001600160801b03169050600160801b600160401b8211611a4857603f82901b91505b8415611a405760018516156119eb578102607f1c5b908002607f1c906002851615611a01578102607f1c5b908002607f1c906004851615611a17578102607f1c5b908002607f1c906008851615611a2d578102607f1c5b60049490941c93908002607f1c906119d6565b60401c611b67565b603f6c01000000000000000000000000831015611a6b5760209290921b91601f19015b600160701b831015611a835760109290921b91600f19015b600160781b831015611a9b5760089290921b91600719015b6001607c1b831015611ab35760049290921b91600319015b6001607e1b831015611acb5760029290921b91600119015b6001607f1b831015611ae35760019290921b91600019015b60005b8615611b505760408210611af957600080fd5b6001871615611b1f57918302607f1c918101600160801b831115611b1f57600192831c92015b928002607f1c9260019190911b90600160801b8410611b4457600193841c9391909101905b600187901c9650611ae6565b60408110611b5d57600080fd5b6040039190911c90505b600083611b745781611b79565b816000035b905060016001607f1b03198112801590611b9a575060016001607f1b038113155b61045457600080fd5b6000677fffffffffffffff821115611bba57600080fd5b5060401b90565b6000600f82810b9084900b0360016001607f1b03198112801590611bec575060016001607f1b038113155b610f4b57600080fd5b60008082600f0b13611c0657600080fd5b6080611c1183611da0565b600f0b6fb17217f7d1cf79abc9e3b39803f2f6af02901c9050919050565b600081600f0b600003611c4157600080fd5b600082600f0b604085600f0b901b81611c5c57611c5c6122a8565b05905060016001607f1b03198112801590611bec575060016001607f1b03811315610f4b57600080fd5b6000600f83810b9083900b0260401d60016001607f1b03198112801590611bec575060016001607f1b03811315610f4b57600080fd5b60006001607f1b600f84900b01611d115777fffffffffffffffffffffffffffffffffffffffffffffffe198212158015611cfa5750600160c01b8213155b611d0357600080fd5b506000819003603f1b610f4e565b60008084600f0b1215611d2957836000039350600190505b6000831215611d3b5760009290920391155b6000611d478585611e7f565b90508115611d6c57600160ff1b811115611d6057600080fd5b6000039150610f4e9050565b6001600160ff1b03811115611d8057600080fd5b9150610f4e9050565b600081831015611d995781610f4b565b5090919050565b60008082600f0b13611db157600080fd5b6000600f83900b600160401b8112611dcb576040918201911d5b6401000000008112611ddf576020918201911d5b620100008112611df1576010918201911d5b6101008112611e02576008918201911d5b60108112611e12576004918201911d5b60048112611e22576002918201911d5b60028112611e31576001820191505b603f19820160401b600f85900b607f8490031b6780000000000000005b6000811315611e745790800260ff81901c8281029390930192607f011c9060011d611e4e565b509095945050505050565b600081600003611e9157506000610f4e565b600083600f0b1215611ea257600080fd5b600f83900b6001600160801b038316810260401c90608084901c026001600160c01b03811115611ed157600080fd5b60401b8119811115611ee257600080fd5b019392505050565b60005b83811015611f05578181015183820152602001611eed565b50506000910152565b60008151808452611f26816020860160208601611eea565b601f01601f19169290920160200192915050565b602081526000610f4b6020830184611f0e565b6001600160a01b0381168114611f6257600080fd5b50565b60008060008060808587031215611f7b57600080fd5b8435611f8681611f4d565b93506020850135611f9681611f4d565b93969395505050506040820135916060013590565b600080600080600060a08688031215611fc357600080fd5b8535611fce81611f4d565b94506020860135611fde81611f4d565b93506040860135611fee81611f4d565b94979396509394606081013594506080013592915050565b60006020828403121561201857600080fd5b5035919050565b634e487b7160e01b600052604160045260246000fd5b604051601f8201601f1916810167ffffffffffffffff8111828210171561205e5761205e61201f565b604052919050565b600067ffffffffffffffff8211156120805761208061201f565b50601f01601f191660200190565b600080604083850312156120a157600080fd5b82356120ac81611f4d565b9150602083013567ffffffffffffffff8111156120c857600080fd5b8301601f810185136120d957600080fd5b80356120ec6120e782612066565b612035565b81815286602083850101111561210157600080fd5b816020840160208301376000602083830101528093505050509250929050565b600181811c9082168061213557607f821691505b60208210810361215557634e487b7160e01b600052602260045260246000fd5b50919050565b60006020828403121561216d57600080fd5b8151610f4b81611f4d565b601f82111561069857600081815260208120601f850160051c8101602086101561219f5750805b601f850160051c820191505b818110156121be578281556001016121ab565b505050505050565b815167ffffffffffffffff8111156121e0576121e061201f565b6121f4816121ee8454612121565b84612178565b602080601f83116001811461222957600084156122115750858301515b600019600386901b1c1916600185901b1785556121be565b600085815260208120601f198616915b8281101561225857888601518255948401946001909101908401612239565b50858210156122765787850151600019600388901b60f8161c191681555b5050505050600190811b01905550565b60006020828403121561229857600080fd5b81518015158114610f4b57600080fd5b634e487b7160e01b600052601260045260246000fd5b634e487b7160e01b600052601160045260246000fd5b6000826122f157634e487b7160e01b600052601260045260246000fd5b500490565b805167ffffffffffffffff8116811461230e57600080fd5b919050565b6000806040838503121561232657600080fd5b61232f836122f6565b915061233d602084016122f6565b90509250929050565b6001600160a01b038316815260606020820152600061237b6060830160068152652ba2a0a827a760d11b602082015260400190565b90508260408301529392505050565b60006020828403121561239c57600080fd5b5051919050565b600060208083850312156123b657600080fd5b825167ffffffffffffffff808211156123ce57600080fd5b818501915085601f8301126123e257600080fd5b8151818111156123f4576123f461201f565b8060051b612403858201612035565b918252838101850191858101908984111561241d57600080fd5b86860192505b838310156124955782518581111561243b5760008081fd5b8601603f81018b1361244d5760008081fd5b87810151604061245f6120e783612066565b8281528d828486010111156124745760008081fd5b612483838c8301848701611eea565b85525050509186019190860190612423565b9998505050505050505050565b634e487b7160e01b600052603260045260246000fd5b80820180821115610f4e57610f4e6122be565b6001600160a01b03831681526040602082015260006111356040830184611f0e565b6000600182016124ff576124ff6122be565b5060010190565b81810381811115610f4e57610f4e6122be565b602081526000610f4e6020830160068152652ba2a0a827a760d11b602082015260400190565b600060208083526000845461255381612121565b80848701526040600180841660008114612574576001811461258e576125bc565b60ff1985168984015283151560051b8901830195506125bc565b896000528660002060005b858110156125b45781548b8201860152908301908801612599565b8a0184019650505b509398975050505050505050565b634e487b7160e01b600052600160045260246000fd5b600080604083850312156125f357600080fd5b50508051602090910151909290915056fea26469706673582212207e6e51176696260820e6ae3b999d247942784475e3a14241c196f7b1ebf7661b64736f6c63430008100033",
  "deployedBytecode": "0x608060405234801561001057600080fd5b50600436106100ea5760003560e01c80639abb3cae1161008c578063d6fbf20211610066578063d6fbf202146101bf578063e5f1a95f146101c8578063f321b305146101d0578063f4145a83146101e557600080fd5b80639abb3cae146101865780639b4faa801461018e578063c14bafb1146101b657600080fd5b80637b103999116100c85780637b10399914610142578063900cf0cf1461014a578063906c7a71146101525780639709cbd21461017357600080fd5b806330b67baa146100ef5780633fe3347a1461011457806341c5255314610129575b600080fd5b6100f761020c565b6040516001600160a01b0390911681526020015b60405180910390f35b61011c610244565b60405161010b9190611f3a565b6000546100f7906201000090046001600160a01b031681565b6100f76102f8565b6100f7610363565b610165610160366004611f65565b6103de565b60405190815260200161010b565b610165610181366004611fab565b6103f6565b61011c61045e565b6101a161019c366004612006565b61048f565b6040805192835260208301919091520161010b565b61016560015481565b61016560035481565b61011c6104b8565b6101e36101de36600461208e565b610546565b005b7f6c85b93e587873fbe6712f3b438d42c2945689b262f7bd34b8ea4e3f832a89e754610165565b600061023f7f6c85b93e587873fbe6712f3b438d42c2945689b262f7bd34b8ea4e3f832a89e6546001600160a01b031690565b905090565b60607f6c85b93e587873fbe6712f3b438d42c2945689b262f7bd34b8ea4e3f832a89e6600401805461027590612121565b80601f01602080910402602001604051908101604052809291908181526020018280546102a190612121565b80156102ee5780601f106102c3576101008083540402835291602001916102ee565b820191906000526020600020905b8154815290600101906020018083116102d157829003601f168201915b5050505050905090565b600061030261020c565b6001600160a01b0316637b1039996040518163ffffffff1660e01b8152600401602060405180830381865afa15801561033f573d6000803e3d6000fd5b505050506040513d601f19601f8201168201806040525081019061023f919061215b565b600061036d61020c565b6001600160a01b031663c6b61e4c6103a37f6c85b93e587873fbe6712f3b438d42c2945689b262f7bd34b8ea4e3f832a89e75490565b6040518263ffffffff1660e01b81526004016103c191815260200190565b602060405180830381865afa15801561033f573d6000803e3d6000fd5b60006103ed853386868661069d565b95945050505050565b600080546201000090046001600160a01b031633146104475760405162461bcd60e51b81526020600482015260086024820152676f6e6c795a6f6e6560c01b60448201526064015b60405180910390fd5b610454868686868661069d565b9695505050505050565b60607f6c85b93e587873fbe6712f3b438d42c2945689b262f7bd34b8ea4e3f832a89e6600301805461027590612121565b60008060006104a26103ec6103e8610f11565b90506104ae8482610f54565b9250925050915091565b600280546104c590612121565b80601f01602080910402602001604051908101604052809291908181526020018280546104f190612121565b801561053e5780601f106105135761010080835404028352916020019161053e565b820191906000526020600020905b81548152906001019060200180831161052157829003601f168201915b505050505081565b600054610100900460ff16158080156105665750600054600160ff909116105b806105805750303b158015610580575060005460ff166001145b6105e35760405162461bcd60e51b815260206004820152602e60248201527f496e697469616c697a61626c653a20636f6e747261637420697320616c72656160448201526d191e481a5b9a5d1a585b1a5e995960921b606482015260840161043e565b6000805460ff191660011790558015610606576000805461ff0019166101001790555b6000805475ffffffffffffffffffffffffffffffffffffffff00001916620100006001600160a01b03861602179055600261064183826121c6565b5042600155678ac7230489e800006003558015610698576000805461ff0019169055604051600181527f7f26b83ff96e1f2b6a682f133852f6798a09c465da95921460cefb38474024989060200160405180910390a15b505050565b6000670de0b6b3a76400008310156106f75760405162461bcd60e51b815260206004820152601d60248201527f496e73756666696369656e7420756e6974732062757920616d6f756e74000000604482015260640161043e565b6040516314188b1d60e11b815260048101849052670de0b6b3a7640000602482015273__$b96f6cc754b665f2373f69c32648f7914e$__90632831163a90604401602060405180830381865af4158015610755573d6000803e3d6000fd5b505050506040513d601f19601f820116820180604052508101906107799190612286565b6107da5760405162461bcd60e51b815260206004820152602c60248201527f4e6f7420696e746567657220616d6f756e74206f6620756e69747320746f206260448201526b1d5e481cdc1958da599a595960a21b606482015260840161043e565b6000821161083b5760405162461bcd60e51b815260206004820152602860248201527f496e73756666696369656e74206d6178696d756d20776561706f6e732073656c6044820152671b08185b5bdd5b9d60c21b606482015260840161043e565b600060029054906101000a90046001600160a01b03166001600160a01b0316846001600160a01b03166341c525536040518163ffffffff1660e01b8152600401602060405180830381865afa158015610898573d6000803e3d6000fd5b505050506040513d601f19601f820116820180604052508101906108bc919061215b565b6001600160a01b0316146109215760405162461bcd60e51b815260206004820152602660248201527f536574746c656d656e7420646f65736e27742062656c6f6e6720746f2074686960448201526573207a6f6e6560d01b606482015260840161043e565b600061092c85610ff1565b905060006109398661113d565b905084610946838361153f565b10156109855760405162461bcd60e51b815260206004820152600e60248201526d115e18d959591959081b1a5b5a5d60921b604482015260640161043e565b60008061099d61019c670de0b6b3a7640000896122d4565b9150915085821115610a065760405162461bcd60e51b815260206004820152602c60248201527f576561706f6e7320746f2073656c6c206973206d6f7265207468616e2073706560448201526b18da599a5959081b1a5b5a5d60a21b606482015260840161043e565b6000886001600160a01b031663f10e38af6040518163ffffffff1660e01b8152600401602060405180830381865afa158015610a46573d6000803e3d6000fd5b505050506040513d601f19601f82011682018060405250810190610a6a919061215b565b9050806001600160a01b0316631d8557d76040518163ffffffff1660e01b8152600401600060405180830381600087803b158015610aa757600080fd5b505af1158015610abb573d6000803e3d6000fd5b505050506000816001600160a01b031663a74bd4f66040518163ffffffff1660e01b81526004016040805180830381865afa158015610afe573d6000803e3d6000fd5b505050506040513d601f19601f82011682018060405250810190610b229190612313565b91505067ffffffffffffffff811615610b7d5760405162461bcd60e51b815260206004820152601d60248201527f43616e2774206869726520756e697473207768696c65206d6f76696e67000000604482015260640161043e565b6000826001600160a01b0316633cb9758a6040518163ffffffff1660e01b81526004016040805180830381865afa158015610bbc573d6000803e3d6000fd5b505050506040513d601f19601f82011682018060405250810190610be09190612313565b91505067ffffffffffffffff811615610c3b5760405162461bcd60e51b815260206004820152601e60248201527f7374756e6e65642061726d792063616e6e6f74206869726520756e6974730000604482015260640161043e565b826001600160a01b038e16610cbb57610c5261165a565b60405163079cc67960e41b81526001600160a01b038f811660048301526024820189905291909116906379cc679090604401600060405180830381600087803b158015610c9e57600080fd5b505af1158015610cb2573d6000803e3d6000fd5b50505050610dbf565b610cc361165a565b6001600160a01b031663dd8aaa4f8f8f896040518463ffffffff1660e01b8152600401610d11939291906001600160a01b039384168152919092166020820152604081019190915260600190565b600060405180830381600087803b158015610d2b57600080fd5b505af1158015610d3f573d6000803e3d6000fd5b50505050610d4b61165a565b6001600160a01b03166379cc67908f886040518363ffffffff1660e01b8152600401610d8c9291906001600160a01b03929092168252602082015260400190565b600060405180830381600087803b158015610da657600080fd5b505af1158015610dba573d6000803e3d6000fd5b505050505b600054604051636e08f72160e01b8152620100009091046001600160a01b031690636e08f72190610df6908f908a90600401612346565b600060405180830381600087803b158015610e1057600080fd5b505af1158015610e24573d6000803e3d6000fd5b50505050610e3061168d565b6040516340c10f1960e01b81526001600160a01b038381166004830152602482018e905291909116906340c10f1990604401600060405180830381600087803b158015610e7c57600080fd5b505af1158015610e90573d6000803e3d6000fd5b505050600386905550426001556040517f522208dedb79df7e31cf290a4c2c90398cc08d0246cd6f4b28c0b2319c6d1b5d90610ef7908f9084908f908b906001600160a01b0394851681529290931660208301526040820152606081019190915260800190565b60405180910390a150989c9b505050505050505050505050565b600081600003610f2057600080fd5b6000610f2c84846116c3565b905060016001607f1b036001600160801b0382161115610f4b57600080fd5b90505b92915050565b6000806000610f61611828565b90506000610f6f8587611981565b90506000610f97610f8983610f846001611ba3565b611bc1565b610f9288611bf5565b611c2f565b90506000610fa58483611c86565b90506000610fb38585611c86565b90506000610fc983670de0b6b3a7640000611cbc565b90506000610fdf83670de0b6b3a7640000611cbc565b919b919a509098505050505050505050565b600080829050806001600160a01b0316635c8872076040518163ffffffff1660e01b8152600401600060405180830381600087803b15801561103257600080fd5b505af1158015611046573d6000803e3d6000fd5b50506040516399258aef60e01b8152600092506001600160a01b03841691506399258aef90611090906004016020808252600490820152631193d49560e21b604082015260600190565b602060405180830381865afa1580156110ad573d6000803e3d6000fd5b505050506040513d601f19601f820116820180604052508101906110d1919061215b565b9050806001600160a01b0316637633a22c6040518163ffffffff1660e01b8152600401602060405180830381865afa158015611111573d6000803e3d6000fd5b505050506040513d601f19601f82011682018060405250810190611135919061238a565b949350505050565b6000808290506000816001600160a01b031663f10e38af6040518163ffffffff1660e01b8152600401602060405180830381865afa158015611183573d6000803e3d6000fd5b505050506040513d601f19601f820116820180604052508101906111a7919061215b565b9050806001600160a01b0316631d8557d76040518163ffffffff1660e01b8152600401600060405180830381600087803b1580156111e457600080fd5b505af11580156111f8573d6000803e3d6000fd5b50505050806001600160a01b0316633b81149d6040518163ffffffff1660e01b8152600401602060405180830381865afa15801561123a573d6000803e3d6000fd5b505050506040513d601f19601f8201168201806040525081019061125e9190612286565b6112aa5760405162461bcd60e51b815260206004820152601e60248201527f43616e2068697265206f6e6c79206f6e20686f6d6520706f736974696f6e0000604482015260640161043e565b6000816001600160a01b0316632de7e9b06040518163ffffffff1660e01b8152600401602060405180830381865afa1580156112ea573d6000803e3d6000fd5b505050506040513d601f19601f8201168201806040525081019061130e919061215b565b9050600061131a6102f8565b6001600160a01b031663027aa9f56040518163ffffffff1660e01b8152600401600060405180830381865afa158015611357573d6000803e3d6000fd5b505050506040513d6000823e601f3d908101601f1916820160405261137f91908101906123a3565b905060005b81518110156115355760008282815181106113a1576113a16124a2565b602002602001015190506113b3610363565b6001600160a01b031663fe01e782826040518263ffffffff1660e01b81526004016113de9190611f3a565b602060405180830381865afa1580156113fb573d6000803e3d6000fd5b505050506040513d601f19601f8201168201806040525081019061141f919061215b565b6040516370a0823160e01b81526001600160a01b03878116600483015291909116906370a0823190602401602060405180830381865afa158015611467573d6000803e3d6000fd5b505050506040513d601f19601f8201168201806040525081019061148b919061238a565b61149590886124b8565b96506001600160a01b0384161561152257604051632e828edf60e21b81526001600160a01b0385169063ba0a3b7c906114d490889085906004016124cb565b602060405180830381865afa1580156114f1573d6000803e3d6000fd5b505050506040513d601f19601f82011682018060405250810190611515919061238a565b61151f90886124b8565b96505b508061152d816124ed565b915050611384565b5050505050919050565b60008073__$b96f6cc754b665f2373f69c32648f7914e$__63eefe42846115646102f8565b6001600160a01b031663a6896cdb6040518163ffffffff1660e01b8152600401602060405180830381865afa1580156115a1573d6000803e3d6000fd5b505050506040513d601f19601f820116820180604052508101906115c5919061238a565b6115cf90876122d4565b6040516001600160e01b031960e084901b1681526004810191909152670de0b6b3a76400006024820152604401602060405180830381865af4158015611619573d6000803e3d6000fd5b505050506040513d601f19601f8201168201806040525081019061163d919061238a565b9050808310611650576000915050610f4e565b6111358382612506565b6000611664610363565b6001600160a01b03166304f86f3c6040518163ffffffff1660e01b81526004016103c190612519565b6000611697610363565b6001600160a01b031663fe01e78260026040518263ffffffff1660e01b81526004016103c1919061253f565b6000816000036116d257600080fd5b60006001600160c01b0384116116fd5782604085901b816116f5576116f56122a8565b049050611814565b60c084811c6401000000008110611716576020918201911c5b620100008110611728576010918201911c5b6101008110611739576008918201911c5b60108110611749576004918201911c5b60048110611759576002918201911c5b60028110611768576001820191505b60bf820360018603901c6001018260ff0387901b81611789576117896122a8565b0492506001600160801b038311156117a057600080fd5b608085901c83026001600160801b038616840260c088901c604089901b828110156117cc576001820391505b608084901b929003828110156117e3576001820391505b829003608084901c82146117f9576117f96125ca565b888181611808576118086122a8565b04870196505050505050505b6001600160801b03811115610f4b57600080fd5b60008061189f60015461183961020c565b6001600160a01b0316630252b9956040518163ffffffff1660e01b8152600401602060405180830381865afa158015611876573d6000803e3d6000fd5b505050506040513d601f19601f8201168201806040525081019061189a919061238a565b611d89565b905060006118b7600354670de0b6b3a7640000610f11565b90504282106118c65792915050565b60006118d28342612506565b90506000806118df6102f8565b6001600160a01b031663f8c73bd360026040518263ffffffff1660e01b815260040161190b919061253f565b6040805180830381865afa158015611927573d6000803e3d6000fd5b505050506040513d601f19601f8201168201806040525081019061194b91906125e0565b91509150600061195b8383610f11565b905060006119698286611981565b90506119758682611c86565b97505050505050505090565b600080600084600f0b12801561199a5750826001166001145b905060008085600f0b126119ae57846119b3565b846000035b6001600160801b03169050600160801b600160401b8211611a4857603f82901b91505b8415611a405760018516156119eb578102607f1c5b908002607f1c906002851615611a01578102607f1c5b908002607f1c906004851615611a17578102607f1c5b908002607f1c906008851615611a2d578102607f1c5b60049490941c93908002607f1c906119d6565b60401c611b67565b603f6c01000000000000000000000000831015611a6b5760209290921b91601f19015b600160701b831015611a835760109290921b91600f19015b600160781b831015611a9b5760089290921b91600719015b6001607c1b831015611ab35760049290921b91600319015b6001607e1b831015611acb5760029290921b91600119015b6001607f1b831015611ae35760019290921b91600019015b60005b8615611b505760408210611af957600080fd5b6001871615611b1f57918302607f1c918101600160801b831115611b1f57600192831c92015b928002607f1c9260019190911b90600160801b8410611b4457600193841c9391909101905b600187901c9650611ae6565b60408110611b5d57600080fd5b6040039190911c90505b600083611b745781611b79565b816000035b905060016001607f1b03198112801590611b9a575060016001607f1b038113155b61045457600080fd5b6000677fffffffffffffff821115611bba57600080fd5b5060401b90565b6000600f82810b9084900b0360016001607f1b03198112801590611bec575060016001607f1b038113155b610f4b57600080fd5b60008082600f0b13611c0657600080fd5b6080611c1183611da0565b600f0b6fb17217f7d1cf79abc9e3b39803f2f6af02901c9050919050565b600081600f0b600003611c4157600080fd5b600082600f0b604085600f0b901b81611c5c57611c5c6122a8565b05905060016001607f1b03198112801590611bec575060016001607f1b03811315610f4b57600080fd5b6000600f83810b9083900b0260401d60016001607f1b03198112801590611bec575060016001607f1b03811315610f4b57600080fd5b60006001607f1b600f84900b01611d115777fffffffffffffffffffffffffffffffffffffffffffffffe198212158015611cfa5750600160c01b8213155b611d0357600080fd5b506000819003603f1b610f4e565b60008084600f0b1215611d2957836000039350600190505b6000831215611d3b5760009290920391155b6000611d478585611e7f565b90508115611d6c57600160ff1b811115611d6057600080fd5b6000039150610f4e9050565b6001600160ff1b03811115611d8057600080fd5b9150610f4e9050565b600081831015611d995781610f4b565b5090919050565b60008082600f0b13611db157600080fd5b6000600f83900b600160401b8112611dcb576040918201911d5b6401000000008112611ddf576020918201911d5b620100008112611df1576010918201911d5b6101008112611e02576008918201911d5b60108112611e12576004918201911d5b60048112611e22576002918201911d5b60028112611e31576001820191505b603f19820160401b600f85900b607f8490031b6780000000000000005b6000811315611e745790800260ff81901c8281029390930192607f011c9060011d611e4e565b509095945050505050565b600081600003611e9157506000610f4e565b600083600f0b1215611ea257600080fd5b600f83900b6001600160801b038316810260401c90608084901c026001600160c01b03811115611ed157600080fd5b60401b8119811115611ee257600080fd5b019392505050565b60005b83811015611f05578181015183820152602001611eed565b50506000910152565b60008151808452611f26816020860160208601611eea565b601f01601f19169290920160200192915050565b602081526000610f4b6020830184611f0e565b6001600160a01b0381168114611f6257600080fd5b50565b60008060008060808587031215611f7b57600080fd5b8435611f8681611f4d565b93506020850135611f9681611f4d565b93969395505050506040820135916060013590565b600080600080600060a08688031215611fc357600080fd5b8535611fce81611f4d565b94506020860135611fde81611f4d565b93506040860135611fee81611f4d565b94979396509394606081013594506080013592915050565b60006020828403121561201857600080fd5b5035919050565b634e487b7160e01b600052604160045260246000fd5b604051601f8201601f1916810167ffffffffffffffff8111828210171561205e5761205e61201f565b604052919050565b600067ffffffffffffffff8211156120805761208061201f565b50601f01601f191660200190565b600080604083850312156120a157600080fd5b82356120ac81611f4d565b9150602083013567ffffffffffffffff8111156120c857600080fd5b8301601f810185136120d957600080fd5b80356120ec6120e782612066565b612035565b81815286602083850101111561210157600080fd5b816020840160208301376000602083830101528093505050509250929050565b600181811c9082168061213557607f821691505b60208210810361215557634e487b7160e01b600052602260045260246000fd5b50919050565b60006020828403121561216d57600080fd5b8151610f4b81611f4d565b601f82111561069857600081815260208120601f850160051c8101602086101561219f5750805b601f850160051c820191505b818110156121be578281556001016121ab565b505050505050565b815167ffffffffffffffff8111156121e0576121e061201f565b6121f4816121ee8454612121565b84612178565b602080601f83116001811461222957600084156122115750858301515b600019600386901b1c1916600185901b1785556121be565b600085815260208120601f198616915b8281101561225857888601518255948401946001909101908401612239565b50858210156122765787850151600019600388901b60f8161c191681555b5050505050600190811b01905550565b60006020828403121561229857600080fd5b81518015158114610f4b57600080fd5b634e487b7160e01b600052601260045260246000fd5b634e487b7160e01b600052601160045260246000fd5b6000826122f157634e487b7160e01b600052601260045260246000fd5b500490565b805167ffffffffffffffff8116811461230e57600080fd5b919050565b6000806040838503121561232657600080fd5b61232f836122f6565b915061233d602084016122f6565b90509250929050565b6001600160a01b038316815260606020820152600061237b6060830160068152652ba2a0a827a760d11b602082015260400190565b90508260408301529392505050565b60006020828403121561239c57600080fd5b5051919050565b600060208083850312156123b657600080fd5b825167ffffffffffffffff808211156123ce57600080fd5b818501915085601f8301126123e257600080fd5b8151818111156123f4576123f461201f565b8060051b612403858201612035565b918252838101850191858101908984111561241d57600080fd5b86860192505b838310156124955782518581111561243b5760008081fd5b8601603f81018b1361244d5760008081fd5b87810151604061245f6120e783612066565b8281528d828486010111156124745760008081fd5b612483838c8301848701611eea565b85525050509186019190860190612423565b9998505050505050505050565b634e487b7160e01b600052603260045260246000fd5b80820180821115610f4e57610f4e6122be565b6001600160a01b03831681526040602082015260006111356040830184611f0e565b6000600182016124ff576124ff6122be565b5060010190565b81810381811115610f4e57610f4e6122be565b602081526000610f4e6020830160068152652ba2a0a827a760d11b602082015260400190565b600060208083526000845461255381612121565b80848701526040600180841660008114612574576001811461258e576125bc565b60ff1985168984015283151560051b8901830195506125bc565b896000528660002060005b858110156125b45781548b8201860152908301908801612599565b8a0184019650505b509398975050505050505050565b634e487b7160e01b600052600160045260246000fd5b600080604083850312156125f357600080fd5b50508051602090910151909290915056fea26469706673582212207e6e51176696260820e6ae3b999d247942784475e3a14241c196f7b1ebf7661b64736f6c63430008100033",
  "libraries": {
    "MathExtension": "0x365B81B494a99F1DAA778eaeA0BEbc950E8bE536"
  },
  "devdoc": {
    "kind": "dev",
    "methods": {
      "assetGroup()": {
        "details": "Reads data from proxy's storage",
        "returns": {
          "_0": "World asset group"
        }
      },
      "assetType()": {
        "details": "Reads data from proxy's storage",
        "returns": {
          "_0": "World asset type"
        }
      },
      "epoch()": {
        "details": "Value is dereferenced from proxy storage and world"
      },
      "epochNumber()": {
        "details": "Reads data from proxy's storage",
        "returns": {
          "_0": "Epoch number"
        }
      },
      "getAmountIn(uint256)": {
        "details": "Returns valid output only for integer unitsToBuy value (not in 1e18 precision)",
        "params": {
          "unitsToBuy": "Amount of workers to buy"
        },
        "returns": {
          "_0": "Amount of weapons needed for unitsToBuy",
          "_1": "New starting price"
        }
      },
      "init(address,string)": {
        "details": "Called by factory contract which creates current instance",
        "params": {
          "unitsType": "Units type",
          "zoneAddress": "Zone address"
        }
      },
      "registry()": {
        "details": "Value is dereferenced from world"
      },
      "swapWeaponsForExactUnits(address,address,uint256,uint256)": {
        "details": "If resourcesOwner == address(0) -> resources will be taken from msg.senderIf resourcesOwner != address(0) and resourcesOwner has given allowance to msg.sender >= amount of weapons for units -> resources will be taken from resourcesOwner",
        "params": {
          "maxWeaponsToSell": "Maximum amount of weapons to be taken for exact amount of units",
          "resourcesOwner": "Resources owner",
          "settlementAddress": "Settlement address, army of which, will receive units",
          "unitsToBuy": "Exact amount of units"
        },
        "returns": {
          "_0": "Amount of units bought by weapons"
        }
      },
      "swapWeaponsForExactUnitsByZone(address,address,address,uint256,uint256)": {
        "details": "Even though function is opened it can be called only by zoneIf resourcesOwner == address(0) -> resources will be taken from msg.senderIf resourcesOwner != address(0) and resourcesOwner has given allowance to msg.sender >= amount of weapons for units -> resources will be taken from resourcesOwner",
        "params": {
          "maxWeaponsToSell": "Maximum amount of weapons to be taken for exact amount of units",
          "msgSender": "msg.sender from zone call",
          "resourcesOwner": "Resources owner",
          "settlementAddress": "Settlement address, army of which, will receive units",
          "unitsToBuy": "Exact amount of units"
        },
        "returns": {
          "_0": "Amount of units bought by weapons"
        }
      },
      "world()": {
        "details": "Value is dereferenced from proxy storage"
      }
    },
    "stateVariables": {
      "currentZone": {
        "details": "Immutable, initialized on the zone creation"
      },
      "lastPurchaseTime": {
        "details": "Updated every time when #swapWeaponsForExactUnits or #swapWeaponsForExactUnitsByZone is called"
      },
      "startingPrice": {
        "details": "Updated every time when #swapWeaponsForExactUnits or #swapWeaponsForExactUnitsByZone is called"
      },
      "unitsType": {
        "details": "Immutable, initialized on the zone creation"
      }
    },
    "version": 1
  },
  "userdoc": {
    "events": {
      "UnitsBought(address,address,uint256,uint256)": {
        "notice": "Emitted when #swapWeaponsForExactUnits or #swapWeaponsForExactUnitsByZone is called"
      }
    },
    "kind": "user",
    "methods": {
      "assetGroup()": {
        "notice": "Returns world asset group"
      },
      "assetType()": {
        "notice": "Returns world asset type"
      },
      "currentZone()": {
        "notice": "Zone to which this pool belongs"
      },
      "epoch()": {
        "notice": "Epoch"
      },
      "epochNumber()": {
        "notice": "Returns epoch number"
      },
      "getAmountIn(uint256)": {
        "notice": "Calculates input of weapons based on output whole amount of units"
      },
      "init(address,string)": {
        "notice": "Proxy initializer"
      },
      "lastPurchaseTime()": {
        "notice": "Time at which last purchase is performed"
      },
      "registry()": {
        "notice": "Registry"
      },
      "startingPrice()": {
        "notice": "Starting unit price"
      },
      "swapWeaponsForExactUnits(address,address,uint256,uint256)": {
        "notice": "Swaps weapons() for exact units()"
      },
      "swapWeaponsForExactUnitsByZone(address,address,address,uint256,uint256)": {
        "notice": "Swaps weapons() for exact units()"
      },
      "unitsType()": {
        "notice": "Units type"
      },
      "world()": {
        "notice": "World"
      }
    },
    "version": 1
  },
  "storageLayout": {
    "storage": [
      {
        "astId": 119,
        "contract": "contracts/core/assets/unitsPool/UnitsPool.sol:UnitsPool",
        "label": "_initialized",
        "offset": 0,
        "slot": "0",
        "type": "t_uint8"
      },
      {
        "astId": 122,
        "contract": "contracts/core/assets/unitsPool/UnitsPool.sol:UnitsPool",
        "label": "_initializing",
        "offset": 1,
        "slot": "0",
        "type": "t_bool"
      },
      {
        "astId": 27933,
        "contract": "contracts/core/assets/unitsPool/UnitsPool.sol:UnitsPool",
        "label": "currentZone",
        "offset": 2,
        "slot": "0",
        "type": "t_contract(IZone)29387"
      },
      {
        "astId": 27937,
        "contract": "contracts/core/assets/unitsPool/UnitsPool.sol:UnitsPool",
        "label": "lastPurchaseTime",
        "offset": 0,
        "slot": "1",
        "type": "t_uint256"
      },
      {
        "astId": 27941,
        "contract": "contracts/core/assets/unitsPool/UnitsPool.sol:UnitsPool",
        "label": "unitsType",
        "offset": 0,
        "slot": "2",
        "type": "t_string_storage"
      },
      {
        "astId": 27945,
        "contract": "contracts/core/assets/unitsPool/UnitsPool.sol:UnitsPool",
        "label": "startingPrice",
        "offset": 0,
        "slot": "3",
        "type": "t_uint256"
      }
    ],
    "types": {
      "t_bool": {
        "encoding": "inplace",
        "label": "bool",
        "numberOfBytes": "1"
      },
      "t_contract(IZone)29387": {
        "encoding": "inplace",
        "label": "contract IZone",
        "numberOfBytes": "20"
      },
      "t_string_storage": {
        "encoding": "bytes",
        "label": "string",
        "numberOfBytes": "32"
      },
      "t_uint256": {
        "encoding": "inplace",
        "label": "uint256",
        "numberOfBytes": "32"
      },
      "t_uint8": {
        "encoding": "inplace",
        "label": "uint8",
        "numberOfBytes": "1"
      }
    }
  }
}