{
  "address": "0xfDa59763de6F9EEd1fdC34190eADa3cf9eA2699F",
  "abi": [
    {
      "anonymous": false,
      "inputs": [
        {
          "indexed": false,
          "internalType": "uint8",
          "name": "version",
          "type": "uint8"
        }
      ],
      "name": "Initialized",
      "type": "event"
    },
    {
      "inputs": [
        {
          "internalType": "bytes32",
          "name": "",
          "type": "bytes32"
        }
      ],
      "name": "factoryContracts",
      "outputs": [
        {
          "internalType": "address",
          "name": "",
          "type": "address"
        }
      ],
      "stateMutability": "view",
      "type": "function"
    },
    {
      "inputs": [],
      "name": "getBaseBattleDuration",
      "outputs": [
        {
          "internalType": "uint256",
          "name": "",
          "type": "uint256"
        }
      ],
      "stateMutability": "pure",
      "type": "function"
    },
    {
      "inputs": [
        {
          "internalType": "string",
          "name": "buildingName",
          "type": "string"
        }
      ],
      "name": "getBasicProductionBuildingCoefficient",
      "outputs": [
        {
          "internalType": "uint256",
          "name": "",
          "type": "uint256"
        }
      ],
      "stateMutability": "pure",
      "type": "function"
    },
    {
      "inputs": [],
      "name": "getBattleDurationStunMultiplier",
      "outputs": [
        {
          "internalType": "uint256",
          "name": "",
          "type": "uint256"
        }
      ],
      "stateMutability": "pure",
      "type": "function"
    },
    {
      "inputs": [],
      "name": "getBattleLobbyDurationPercent",
      "outputs": [
        {
          "internalType": "uint256",
          "name": "",
          "type": "uint256"
        }
      ],
      "stateMutability": "pure",
      "type": "function"
    },
    {
      "inputs": [],
      "name": "getBuildingTokenTransferThresholdPercent",
      "outputs": [
        {
          "internalType": "uint256",
          "name": "",
          "type": "uint256"
        }
      ],
      "stateMutability": "pure",
      "type": "function"
    },
    {
      "inputs": [],
      "name": "getBuildings",
      "outputs": [
        {
          "internalType": "string[]",
          "name": "",
          "type": "string[]"
        }
      ],
      "stateMutability": "pure",
      "type": "function"
    },
    {
      "inputs": [],
      "name": "getCultistUnitType",
      "outputs": [
        {
          "internalType": "string",
          "name": "",
          "type": "string"
        }
      ],
      "stateMutability": "pure",
      "type": "function"
    },
    {
      "inputs": [],
      "name": "getCultistsNoDestructionDelay",
      "outputs": [
        {
          "internalType": "uint256",
          "name": "",
          "type": "uint256"
        }
      ],
      "stateMutability": "pure",
      "type": "function"
    },
    {
      "inputs": [],
      "name": "getCultistsPerZoneMultiplier",
      "outputs": [
        {
          "internalType": "uint256",
          "name": "",
          "type": "uint256"
        }
      ],
      "stateMutability": "pure",
      "type": "function"
    },
    {
      "inputs": [],
      "name": "getCultistsSummonDelay",
      "outputs": [
        {
          "internalType": "uint256",
          "name": "",
          "type": "uint256"
        }
      ],
      "stateMutability": "pure",
      "type": "function"
    },
    {
      "inputs": [],
      "name": "getDemilitarizationCooldown",
      "outputs": [
        {
          "internalType": "uint256",
          "name": "",
          "type": "uint256"
        }
      ],
      "stateMutability": "pure",
      "type": "function"
    },
    {
      "inputs": [],
      "name": "getGameResources",
      "outputs": [
        {
          "components": [
            {
              "internalType": "string",
              "name": "tokenName",
              "type": "string"
            },
            {
              "internalType": "string",
              "name": "tokenSymbol",
              "type": "string"
            },
            {
              "internalType": "string",
              "name": "worldResourceName",
              "type": "string"
            }
          ],
          "internalType": "struct IRegistry.GameResource[]",
          "name": "",
          "type": "tuple[]"
        }
      ],
      "stateMutability": "pure",
      "type": "function"
    },
    {
      "inputs": [],
      "name": "getGameUnits",
      "outputs": [
        {
          "components": [
            {
              "internalType": "string",
              "name": "tokenName",
              "type": "string"
            },
            {
              "internalType": "string",
              "name": "tokenSymbol",
              "type": "string"
            },
            {
              "internalType": "string",
              "name": "worldUnitName",
              "type": "string"
            }
          ],
          "internalType": "struct IRegistry.GameUnit[]",
          "name": "",
          "type": "tuple[]"
        }
      ],
      "stateMutability": "pure",
      "type": "function"
    },
    {
      "inputs": [],
      "name": "getGlobalMultiplier",
      "outputs": [
        {
          "internalType": "uint256",
          "name": "",
          "type": "uint256"
        }
      ],
      "stateMutability": "view",
      "type": "function"
    },
    {
      "inputs": [],
      "name": "getMaxCultistsPerZone",
      "outputs": [
        {
          "internalType": "uint256",
          "name": "",
          "type": "uint256"
        }
      ],
      "stateMutability": "pure",
      "type": "function"
    },
    {
      "inputs": [],
      "name": "getMaxSettlementPerZone",
      "outputs": [
        {
          "internalType": "uint256",
          "name": "",
          "type": "uint256"
        }
      ],
      "stateMutability": "pure",
      "type": "function"
    },
    {
      "inputs": [],
      "name": "getMovementDurationStunMultiplier",
      "outputs": [
        {
          "internalType": "uint256",
          "name": "",
          "type": "uint256"
        }
      ],
      "stateMutability": "pure",
      "type": "function"
    },
    {
      "inputs": [],
      "name": "getNewSettlementExtraResources",
      "outputs": [
        {
          "components": [
            {
              "internalType": "string",
              "name": "resourceName",
              "type": "string"
            },
            {
              "internalType": "uint256",
              "name": "value",
              "type": "uint256"
            }
          ],
          "internalType": "struct IRegistry.ExtraResource[]",
          "name": "",
          "type": "tuple[]"
        }
      ],
      "stateMutability": "view",
      "type": "function"
    },
    {
      "inputs": [],
      "name": "getNewSettlementStartingPrice",
      "outputs": [
        {
          "internalType": "uint256",
          "name": "",
          "type": "uint256"
        }
      ],
      "stateMutability": "view",
      "type": "function"
    },
    {
      "inputs": [],
      "name": "getProductionTicksInSecond",
      "outputs": [
        {
          "internalType": "uint256",
          "name": "",
          "type": "uint256"
        }
      ],
      "stateMutability": "view",
      "type": "function"
    },
    {
      "inputs": [
        {
          "internalType": "string",
          "name": "unitType",
          "type": "string"
        }
      ],
      "name": "getProsperityForDemilitarization",
      "outputs": [
        {
          "internalType": "uint256",
          "name": "",
          "type": "uint256"
        }
      ],
      "stateMutability": "pure",
      "type": "function"
    },
    {
      "inputs": [
        {
          "internalType": "string",
          "name": "resourceName",
          "type": "string"
        }
      ],
      "name": "getResourceWeight",
      "outputs": [
        {
          "internalType": "uint256",
          "name": "",
          "type": "uint256"
        }
      ],
      "stateMutability": "pure",
      "type": "function"
    },
    {
      "inputs": [],
      "name": "getResources",
      "outputs": [
        {
          "internalType": "string[]",
          "name": "",
          "type": "string[]"
        }
      ],
      "stateMutability": "pure",
      "type": "function"
    },
    {
      "inputs": [],
      "name": "getRobberyFee",
      "outputs": [
        {
          "internalType": "uint256",
          "name": "",
          "type": "uint256"
        }
      ],
      "stateMutability": "view",
      "type": "function"
    },
    {
      "inputs": [
        {
          "internalType": "string",
          "name": "resourceName",
          "type": "string"
        }
      ],
      "name": "getSiegePointsToResourceMultiplier",
      "outputs": [
        {
          "internalType": "uint256",
          "name": "",
          "type": "uint256"
        }
      ],
      "stateMutability": "view",
      "type": "function"
    },
    {
      "inputs": [],
      "name": "getSiegePowerToSiegePointsMultiplier",
      "outputs": [
        {
          "internalType": "uint256",
          "name": "",
          "type": "uint256"
        }
      ],
      "stateMutability": "pure",
      "type": "function"
    },
    {
      "inputs": [],
      "name": "getToTreasuryPercent",
      "outputs": [
        {
          "internalType": "uint256",
          "name": "",
          "type": "uint256"
        }
      ],
      "stateMutability": "pure",
      "type": "function"
    },
    {
      "inputs": [
        {
          "internalType": "string",
          "name": "resourceName",
          "type": "string"
        }
      ],
      "name": "getToxicityByResource",
      "outputs": [
        {
          "internalType": "uint256",
          "name": "",
          "type": "uint256"
        }
      ],
      "stateMutability": "pure",
      "type": "function"
    },
    {
      "inputs": [],
      "name": "getUnitHiringFortHpMultiplier",
      "outputs": [
        {
          "internalType": "uint256",
          "name": "",
          "type": "uint256"
        }
      ],
      "stateMutability": "pure",
      "type": "function"
    },
    {
      "inputs": [
        {
          "internalType": "string",
          "name": "unitType",
          "type": "string"
        }
      ],
      "name": "getUnitMaxFoodToSpendOnMove",
      "outputs": [
        {
          "internalType": "uint256",
          "name": "",
          "type": "uint256"
        }
      ],
      "stateMutability": "pure",
      "type": "function"
    },
    {
      "inputs": [
        {
          "internalType": "string",
          "name": "unitType",
          "type": "string"
        }
      ],
      "name": "getUnitPriceDropByUnitType",
      "outputs": [
        {
          "internalType": "uint256",
          "name": "",
          "type": "uint256"
        },
        {
          "internalType": "uint256",
          "name": "",
          "type": "uint256"
        }
      ],
      "stateMutability": "pure",
      "type": "function"
    },
    {
      "inputs": [],
      "name": "getUnits",
      "outputs": [
        {
          "internalType": "string[]",
          "name": "",
          "type": "string[]"
        }
      ],
      "stateMutability": "pure",
      "type": "function"
    },
    {
      "inputs": [
        {
          "internalType": "string",
          "name": "buildingName",
          "type": "string"
        }
      ],
      "name": "getWorkerCapacityCoefficient",
      "outputs": [
        {
          "internalType": "uint256",
          "name": "",
          "type": "uint256"
        }
      ],
      "stateMutability": "pure",
      "type": "function"
    },
    {
      "inputs": [],
      "name": "globalMultiplier",
      "outputs": [
        {
          "internalType": "uint256",
          "name": "",
          "type": "uint256"
        }
      ],
      "stateMutability": "view",
      "type": "function"
    },
    {
      "inputs": [
        {
          "internalType": "string",
          "name": "buildingName",
          "type": "string"
        }
      ],
      "name": "hasStartingTreasury",
      "outputs": [
        {
          "internalType": "bool",
          "name": "",
          "type": "bool"
        }
      ],
      "stateMutability": "pure",
      "type": "function"
    },
    {
      "inputs": [
        {
          "internalType": "uint256",
          "name": "_globalMultiplier",
          "type": "uint256"
        },
        {
          "internalType": "uint256",
          "name": "_settlementStartingPrice",
          "type": "uint256"
        }
      ],
      "name": "init",
      "outputs": [],
      "stateMutability": "nonpayable",
      "type": "function"
    },
    {
      "inputs": [
        {
          "internalType": "address",
          "name": "",
          "type": "address"
        }
      ],
      "name": "isFactoryContract",
      "outputs": [
        {
          "internalType": "bool",
          "name": "",
          "type": "bool"
        }
      ],
      "stateMutability": "view",
      "type": "function"
    },
    {
      "inputs": [],
      "name": "mightyCreator",
      "outputs": [
        {
          "internalType": "address",
          "name": "",
          "type": "address"
        }
      ],
      "stateMutability": "view",
      "type": "function"
    },
    {
      "inputs": [
        {
          "internalType": "bytes32",
          "name": "",
          "type": "bytes32"
        }
      ],
      "name": "scriptContracts",
      "outputs": [
        {
          "internalType": "address",
          "name": "",
          "type": "address"
        }
      ],
      "stateMutability": "view",
      "type": "function"
    },
    {
      "inputs": [
        {
          "internalType": "bytes32",
          "name": "id",
          "type": "bytes32"
        },
        {
          "internalType": "address",
          "name": "addr",
          "type": "address"
        }
      ],
      "name": "setFactoryContract",
      "outputs": [],
      "stateMutability": "nonpayable",
      "type": "function"
    },
    {
      "inputs": [
        {
          "internalType": "string",
          "name": "groupName",
          "type": "string"
        },
        {
          "internalType": "string",
          "name": "name",
          "type": "string"
        },
        {
          "internalType": "address",
          "name": "addr",
          "type": "address"
        }
      ],
      "name": "setScriptContractName",
      "outputs": [],
      "stateMutability": "nonpayable",
      "type": "function"
    },
    {
      "inputs": [
        {
          "internalType": "string",
          "name": "unitName",
          "type": "string"
        },
        {
          "components": [
            {
              "internalType": "uint256",
              "name": "weaponPowerStage1",
              "type": "uint256"
            },
            {
              "internalType": "uint256",
              "name": "armourPowerStage1",
              "type": "uint256"
            },
            {
              "internalType": "uint256",
              "name": "weaponPowerStage2",
              "type": "uint256"
            },
            {
              "internalType": "uint256",
              "name": "armourPowerStage2",
              "type": "uint256"
            },
            {
              "internalType": "uint256",
              "name": "siegePower",
              "type": "uint256"
            },
            {
              "internalType": "uint256",
              "name": "siegeMaxSupply",
              "type": "uint256"
            },
            {
              "internalType": "uint256",
              "name": "siegeSupport",
              "type": "uint256"
            }
          ],
          "internalType": "struct IRegistry.UnitStats",
          "name": "_unitStats",
          "type": "tuple"
        }
      ],
      "name": "setUnitStats",
      "outputs": [],
      "stateMutability": "nonpayable",
      "type": "function"
    },
    {
      "inputs": [],
      "name": "settlementStartingPrice",
      "outputs": [
        {
          "internalType": "uint256",
          "name": "",
          "type": "uint256"
        }
      ],
      "stateMutability": "view",
      "type": "function"
    },
    {
      "inputs": [
        {
          "internalType": "string",
          "name": "",
          "type": "string"
        }
      ],
      "name": "unitsStats",
      "outputs": [
        {
          "internalType": "uint256",
          "name": "weaponPowerStage1",
          "type": "uint256"
        },
        {
          "internalType": "uint256",
          "name": "armourPowerStage1",
          "type": "uint256"
        },
        {
          "internalType": "uint256",
          "name": "weaponPowerStage2",
          "type": "uint256"
        },
        {
          "internalType": "uint256",
          "name": "armourPowerStage2",
          "type": "uint256"
        },
        {
          "internalType": "uint256",
          "name": "siegePower",
          "type": "uint256"
        },
        {
          "internalType": "uint256",
          "name": "siegeMaxSupply",
          "type": "uint256"
        },
        {
          "internalType": "uint256",
          "name": "siegeSupport",
          "type": "uint256"
        }
      ],
      "stateMutability": "view",
      "type": "function"
    }
  ],
  "transactionHash": "0x726b3cb4f1726828685f360faf00ac02bdd7a616cf3bffefe83fd081b4737476",
  "args": [],
  "numDeployments": 1,
  "solcInputHash": "ce67aa0965c465d95ce5795642cb6672",
  "bytecode": "0x608060405234801561001057600080fd5b506123d7806100206000396000f3fe608060405234801561001057600080fd5b50600436106102cf5760003560e01c806377641f071161018c578063c7388af4116100ee578063f515741311610097578063fcc77f3b11610071578063fcc77f3b14610672578063fe9135f014610685578063ff614f4f1461068e57600080fd5b8063f515741314610631578063f57333f71461063a578063f8c73bd31461064a57600080fd5b8063dc488ad6116100c8578063dc488ad6146105eb578063dd77e3c71461060e578063e7cb9a871461062157600080fd5b8063c7388af41461054d578063cf0c501714610555578063d9cf6a26146105e357600080fd5b8063a5843f0811610150578063b5b41bb61161012a578063b5b41bb614610533578063beaa602d1461053c578063c1cc57b01461054557600080fd5b8063a5843f08146104f0578063a6896cdb14610503578063b22f0c781461050a57600080fd5b806377641f07146104b2578063781e0efe146104c55780637f0c0b7d146104cd578063a0184996146104e0578063a53a3bb7146104e757600080fd5b8063355bb529116102355780635b33550a116101f957806368e35ca0116101d357806368e35ca0146103cf578063699324ae1461047b5780636f3426da146104a457600080fd5b80635b33550a1461043c578063636d68541461044f578063657f17fd1461047357600080fd5b8063355bb529146103cf5780634161d4ec146103dd578063426851b9146103f0578063493d458f1461040557806350b345b51461041357600080fd5b80631547440811610297578063265d3f5011610271578063265d3f5014610378578063267a02bf1461038b578063271530501461039e57600080fd5b806315474408146103425780631dae215214610350578063253a1eac1461036557600080fd5b8063023da674146102d4578063027aa9f5146102e9578063051d8db61461030757806309f04f1c1461031f5780631245cbee1461032d575b600080fd5b6102e76102e2366004611e15565b610697565b005b6102f1610743565b6040516102fe9190611e91565b60405180910390f35b674563918244f400005b6040519081526020016102fe565b6703782dace9d90000610311565b610335610835565b6040516102fe9190611ef3565b670a688906bd8b0000610311565b61035861087e565b6040516102fe9190611fba565b6103116103733660046120db565b610b2b565b6103116103863660046120db565b610cc1565b6103116103993660046120db565b610eb1565b6000546103b7906201000090046001600160a01b031681565b6040516001600160a01b0390911681526020016102fe565b670429d069189e0000610311565b6103116103eb3660046120db565b610ff8565b6103f8611108565b6040516102fe9190612118565b670853a0d2313c0000610311565b6103b761042136600461216d565b6002602052600090815260409020546001600160a01b031681565b61031161044a3660046120db565b611335565b61046361045d3660046120db565b50600090565b60405190151581526020016102fe565b610311611490565b6103b761048936600461216d565b6003602052600090815260409020546001600160a01b031681565b670c7d713b49da0000610311565b6103116104c03660046120db565b6114b3565b600554610311565b6102e76104db366004612186565b6115fb565b6028610311565b62127500610311565b6102e76104fe36600461225f565b6116b7565b6001610311565b60408051808201825260078152662ba0a92924a7a960c91b602082015290516102fe9190612281565b6202a300610311565b61031160055481565b6102f16117f2565b600654610311565b6105ae6105633660046120db565b80516020818301810180516004808352938301929094019190912092905281546001830154600284015460038501549385015460058601546006909601549395929491939192909187565b604080519788526020880196909652948601939093526060850191909152608084015260a083015260c082015260e0016102fe565b6102f1611907565b6104636105f936600461229b565b60016020526000908152604090205460ff1681565b61031161061c3660046120db565b611a5e565b69010f0cf064dd59200000610311565b620d2f00610311565b69021e19e0c9bab2400000610311565b61065d6106583660046120db565b611c13565b604080519283526020830191909152016102fe565b6102e76106803660046122b6565b611d40565b62015180610311565b61031160065481565b6000546201000090046001600160a01b031633146106f05760405162461bcd60e51b815260206004820152601160248201527037b7363ca6b4b3b43a3ca1b932b0ba37b960791b60448201526064015b60405180910390fd5b600091825260026020908152604080842080546001600160a01b0390941673ffffffffffffffffffffffffffffffffffffffff19909416841790559183526001908190529120805460ff19169091179055565b6040805160038082526080820190925260609160009190816020015b606081526020019060019003908161075f579050509050604051806040016040528060078152602001662ba0a92924a7a960c91b815250816000815181106107a9576107a961232a565b60200260200101819052506040518060400160405280600681526020016520a921a422a960d11b815250816001815181106107e6576107e661232a565b6020026020010181905250604051806040016040528060088152602001672427a929a2a6a0a760c11b815250816002815181106108255761082561232a565b6020908102919091010152919050565b604080516000808252602082019092526060919081610877565b60408051808201909152606081526000602082015281526020019060019003908161084f5790505b5092915050565b60408051600480825260a0820190925260609160009190816020015b6108be60405180606001604052806060815260200160608152602001606081525090565b81526020019060019003908161089a57905050905060405180606001604052806040518060400160405280600e81526020016d135a5d1a1c98595d5b48119bdbd960921b8152508152602001604051806040016040528060058152602001641b5193d3d160da1b8152508152602001604051806040016040528060048152602001631193d3d160e21b815250815250816000815181106109605761096061232a565b602002602001018190525060405180606001604052806040518060400160405280600e81526020016d135a5d1a1c98595d5b4815dbdbd960921b8152508152602001604051806040016040528060058152602001641b55d3d3d160da1b81525081526020016040518060400160405280600481526020016315d3d3d160e21b815250815250816001815181106109f8576109f861232a565b602002602001018190525060405180606001604052806040518060400160405280600d81526020016c4d697468726165756d204f726560981b8152508152602001604051806040016040528060048152602001636d4f524560e01b8152508152602001604051806040016040528060038152602001624f524560e81b81525081525081600281518110610a8d57610a8d61232a565b602002602001018190525060405180606001604052806040518060400160405280601081526020016f26b4ba343930b2bab6902bb2b0b837b760811b81525081526020016040518060400160405280600781526020016636aba2a0a827a760c91b8152508152602001604051806040016040528060068152602001652ba2a0a827a760d11b815250815250816003815181106108255761082561232a565b80516020808301919091206040805180820190915260048152631193d3d160e21b9201919091526000907fd090a5d9e290baeb3c0f657cb8df01a7c37d0d11b8a73165ba04298bd71606c38101610b8c5750670de0b6b3a764000092915050565b60408051808201909152600481526315d3d3d160e21b6020909101527fa0c2c402a49ee67eb7d8a3e87eb93de113a3a54817e8a70c39ae8ab51c0e12be8101610bdf5750671bc16d674ec8000092915050565b6040805180820190915260038152624f524560e81b6020909101527f624ae31110c92d70b58ec456bb42524ff16773a98936d8ef150f1e6b104b34ab8101610c315750673782dace9d90000092915050565b6040805180820190915260068152652ba2a0a827a760d11b6020909101527fbbbd9ae5a4e104776c954879199abf8e14ebd8b157cc822605c7a65f61d37d648101610c865750676f05b59d3b20000092915050565b60405162461bcd60e51b815260206004820152601060248201526f756e6b6e6f776e207265736f7572636560801b60448201526064016106e7565b80516020808301919091206040805180820190915260048152634641524d60e01b9201919091526000907fea182adbe8a99c0376d68ae8663b1e572fb013df4142853d0efacd6d83e4a3f38101610d225750678ac7230489e8000092915050565b60408051808201909152600a8152691315535091549352531360b21b6020909101527f9105c25cd4a4f5de306390a4361214e261c5b47733a14849b60e1afd6befe9a78101610d7b5750676124fee993bc000092915050565b6040805180820190915260048152634d494e4560e01b6020909101527fba703fbcaf9339015e918255c7c6fb66106877b9277228701a99875362186bbc8101610dce5750674563918244f4000092915050565b604080518082019091526006815265534d4954485960d01b6020909101527f172dd3f67874f5199aae0df823a0dbc7dc361e67643d2a2054a704e56cc7902e8101610e2357506729a2241af62c000092915050565b6040805180820190915260048152631193d49560e21b6020909101527fd6ee2a35c7750db1280c6e5b14dbb9643f0276ca328c44ef8a35818fd5bd14e78101610e765750674563918244f4000092915050565b60405162461bcd60e51b815260206004820152601060248201526f756e6b6e6f776e206275696c64696e6760801b60448201526064016106e7565b80516020808301919091206040805180820190915260078152662ba0a92924a7a960c91b9201919091526000907f963ace81a31bb0e5e04a9395a1006fbdeb19cac259cef54f594aee1106583c6f8101610f155750670de0b6b3a764000092915050565b60408051808201909152600681526520a921a422a960d11b6020909101527fbd21a0403f8a882c166bd206a22b19e35435476f82a2cccdbfebf4d666c861c08101610f6a57506703782dace9d9000092915050565b6040805180820190915260088152672427a929a2a6a0a760c11b6020909101527f762a1190b034cd04c3eae43da1943cdf0137d457634c4d62e69626f81f1986c78101610fc1575067016345785d8a000092915050565b60405162461bcd60e51b815260206004820152600c60248201526b1d5b9adb9bdddb881d5b9a5d60a21b60448201526064016106e7565b80516020808301919091206040805180820190915260078152662ba0a92924a7a960c91b9201919091526000907f963ace81a31bb0e5e04a9395a1006fbdeb19cac259cef54f594aee1106583c6f810161105c5750671bc16d674ec8000092915050565b60408051808201909152600681526520a921a422a960d11b6020909101527fbd21a0403f8a882c166bd206a22b19e35435476f82a2cccdbfebf4d666c861c081016110b157506729a2241af62c000092915050565b6040805180820190915260088152672427a929a2a6a0a760c11b6020909101527f762a1190b034cd04c3eae43da1943cdf0137d457634c4d62e69626f81f1986c78101610fc15750673782dace9d90000092915050565b6040805160038082526080820190925260609160009190816020015b61114860405180606001604052806060815260200160608152602001606081525090565b81526020019060019003908161112457905050905060405180606001604052806040518060400160405280601181526020017026b4ba343930b2bab6902bb0b93934b7b960791b81525081526020016040518060400160405280600881526020016736aba0a92924a7a960c11b8152508152602001604051806040016040528060078152602001662ba0a92924a7a960c91b815250815250816000815181106111f3576111f361232a565b602002602001018190525060405180606001604052806040518060400160405280601081526020016f26b4ba343930b2bab69020b931b432b960811b81525081526020016040518060400160405280600781526020016636a0a921a422a960c91b81525081526020016040518060400160405280600681526020016520a921a422a960d11b815250815250816001815181106112915761129161232a565b602002602001018190525060405180606001604052806040518060400160405280601281526020017126b4ba343930b2bab6902437b939b2b6b0b760711b81525081526020016040518060400160405280600981526020016836a427a929a2a6a0a760b91b8152508152602001604051806040016040528060088152602001672427a929a2a6a0a760c11b815250815250816002815181106108255761082561232a565b80516020808301919091206040805180820190915260048152631193d3d160e21b9201919091526000907fd090a5d9e290baeb3c0f657cb8df01a7c37d0d11b8a73165ba04298bd71606c381016113965750670de0b6b3a764000092915050565b60408051808201909152600481526315d3d3d160e21b6020909101527fa0c2c402a49ee67eb7d8a3e87eb93de113a3a54817e8a70c39ae8ab51c0e12be81016113e95750670de0b6b3a764000092915050565b6040805180820190915260038152624f524560e81b6020909101527f624ae31110c92d70b58ec456bb42524ff16773a98936d8ef150f1e6b104b34ab810161143b5750670de0b6b3a764000092915050565b6040805180820190915260068152652ba2a0a827a760d11b6020909101527fbbbd9ae5a4e104776c954879199abf8e14ebd8b157cc822605c7a65f61d37d648101610c865750670de0b6b3a764000092915050565b60006114ae670de0b6b3a764000069021e19e0c9bab2400000612340565b905090565b80516020808301919091206040805180820190915260048152631193d3d160e21b9201919091526000907fd090a5d9e290baeb3c0f657cb8df01a7c37d0d11b8a73165ba04298bd71606c3810161150d5750600092915050565b60408051808201909152600481526315d3d3d160e21b6020909101527fa0c2c402a49ee67eb7d8a3e87eb93de113a3a54817e8a70c39ae8ab51c0e12be81016115595750600192915050565b6040805180820190915260038152624f524560e81b6020909101527f624ae31110c92d70b58ec456bb42524ff16773a98936d8ef150f1e6b104b34ab81016115a45750600292915050565b6040805180820190915260068152652ba2a0a827a760d11b6020909101527fbbbd9ae5a4e104776c954879199abf8e14ebd8b157cc822605c7a65f61d37d6481016115f25750600392915050565b50600092915050565b6000546201000090046001600160a01b0316331461164f5760405162461bcd60e51b815260206004820152601160248201527037b7363ca6b4b3b43a3ca1b932b0ba37b960791b60448201526064016106e7565b8060048484604051611662929190612362565b9081526040805160209281900383019020835181559183015160018301558201516002820155606082015160038201556080820151600482015560a0820151600582015560c090910151600690910155505050565b600054610100900460ff16158080156116d75750600054600160ff909116105b806116f15750303b1580156116f1575060005460ff166001145b6117545760405162461bcd60e51b815260206004820152602e60248201527f496e697469616c697a61626c653a20636f6e747261637420697320616c72656160448201526d191e481a5b9a5d1a585b1a5e995960921b60648201526084016106e7565b6000805460ff191660011790558015611777576000805461ff0019166101001790555b6000805475ffffffffffffffffffffffffffffffffffffffff000019163362010000021790556005839055600682905580156117ed576000805461ff0019169055604051600181527f7f26b83ff96e1f2b6a682f133852f6798a09c465da95921460cefb38474024989060200160405180910390a15b505050565b60408051600480825260a0820190925260609160009190816020015b606081526020019060019003908161180e579050509050604051806040016040528060048152602001631193d3d160e21b815250816000815181106118555761185561232a565b60200260200101819052506040518060400160405280600481526020016315d3d3d160e21b815250816001815181106118905761189061232a565b6020026020010181905250604051806040016040528060038152602001624f524560e81b815250816002815181106118ca576118ca61232a565b6020026020010181905250604051806040016040528060068152602001652ba2a0a827a760d11b815250816003815181106108255761082561232a565b60408051600580825260c0820190925260609160009190816020015b6060815260200190600190039081611923579050509050604051806040016040528060048152602001634641524d60e01b8152508160008151811061196a5761196a61232a565b60200260200101819052506040518060400160405280600a8152602001691315535091549352531360b21b815250816001815181106119ab576119ab61232a565b6020026020010181905250604051806040016040528060048152602001634d494e4560e01b815250816002815181106119e6576119e661232a565b602002602001018190525060405180604001604052806006815260200165534d4954485960d01b81525081600381518110611a2357611a2361232a565b6020026020010181905250604051806040016040528060048152602001631193d49560e21b815250816004815181106108255761082561232a565b80516020808301919091206040805180820190915260048152634641524d60e01b9201919091526000907fea182adbe8a99c0376d68ae8663b1e572fb013df4142853d0efacd6d83e4a3f38101611abf57506706f05b59d3b2000092915050565b60408051808201909152600a8152691315535091549352531360b21b6020909101527f9105c25cd4a4f5de306390a4361214e261c5b47733a14849b60e1afd6befe9a78101611b1857506704db73254763000092915050565b6040805180820190915260048152634d494e4560e01b6020909101527fba703fbcaf9339015e918255c7c6fb66106877b9277228701a99875362186bbc8101611b6b57506703782dace9d9000092915050565b604080518082019091526006815265534d4954485960d01b6020909101527f172dd3f67874f5199aae0df823a0dbc7dc361e67643d2a2054a704e56cc7902e8101611bc057506702c68af0bb14000092915050565b6040805180820190915260048152631193d49560e21b6020909101527fd6ee2a35c7750db1280c6e5b14dbb9643f0276ca328c44ef8a35818fd5bd14e78101610e7657506702c68af0bb14000092915050565b80516020808301919091206040805180820190915260078152662ba0a92924a7a960c91b92019190915260009081907f963ace81a31bb0e5e04a9395a1006fbdeb19cac259cef54f594aee1106583c6f8101611c825750662386eaaf21062593662386f26fc100009350915050565b60408051808201909152600681526520a921a422a960d11b6020909101527fbd21a0403f8a882c166bd206a22b19e35435476f82a2cccdbfebf4d666c861c08101611ce05750662386ec6c5bd11693662386f26fc100009350915050565b6040805180820190915260088152672427a929a2a6a0a760c11b6020909101527f762a1190b034cd04c3eae43da1943cdf0137d457634c4d62e69626f81f1986c78101610fc15750662386ee0e96833693662386f26fc100009350915050565b6000546201000090046001600160a01b03163314611d945760405162461bcd60e51b815260206004820152601160248201527037b7363ca6b4b3b43a3ca1b932b0ba37b960791b60448201526064016106e7565b80600360008585604051602001611dac929190612372565b60405160208183030381529060405280519060200120815260200190815260200160002060006101000a8154816001600160a01b0302191690836001600160a01b03160217905550505050565b80356001600160a01b0381168114611e1057600080fd5b919050565b60008060408385031215611e2857600080fd5b82359150611e3860208401611df9565b90509250929050565b60005b83811015611e5c578181015183820152602001611e44565b50506000910152565b60008151808452611e7d816020860160208601611e41565b601f01601f19169290920160200192915050565b6000602080830181845280855180835260408601915060408160051b870101925083870160005b82811015611ee657603f19888603018452611ed4858351611e65565b94509285019290850190600101611eb8565b5092979650505050505050565b60006020808301818452808551808352604092508286019150828160051b87010184880160005b83811015611f5b57888303603f1901855281518051878552611f3e88860182611e65565b918901519489019490945294870194925090860190600101611f1a565b509098975050505050505050565b6000815160608452611f7e6060850182611e65565b905060208301518482036020860152611f978282611e65565b91505060408301518482036040860152611fb18282611e65565b95945050505050565b6000602080830181845280855180835260408601915060408160051b870101925083870160005b82811015611ee657603f19888603018452611ffd858351611f69565b94509285019290850190600101611fe1565b634e487b7160e01b600052604160045260246000fd5b60405160e0810167ffffffffffffffff811182821017156120485761204861200f565b60405290565b600082601f83011261205f57600080fd5b813567ffffffffffffffff8082111561207a5761207a61200f565b604051601f8301601f19908116603f011681019082821181831017156120a2576120a261200f565b816040528381528660208588010111156120bb57600080fd5b836020870160208301376000602085830101528094505050505092915050565b6000602082840312156120ed57600080fd5b813567ffffffffffffffff81111561210457600080fd5b6121108482850161204e565b949350505050565b6000602080830181845280855180835260408601915060408160051b870101925083870160005b82811015611ee657603f1988860301845261215b858351611f69565b9450928501929085019060010161213f565b60006020828403121561217f57600080fd5b5035919050565b600080600083850361010081121561219d57600080fd5b843567ffffffffffffffff808211156121b557600080fd5b818701915087601f8301126121c957600080fd5b8135818111156121d857600080fd5b8860208285010111156121ea57600080fd5b60209290920195509093505060e0601f198201121561220857600080fd5b50612211612025565b6020850135815260408501356020820152606085013560408201526080850135606082015260a0850135608082015260c085013560a082015260e085013560c0820152809150509250925092565b6000806040838503121561227257600080fd5b50508035926020909101359150565b6020815260006122946020830184611e65565b9392505050565b6000602082840312156122ad57600080fd5b61229482611df9565b6000806000606084860312156122cb57600080fd5b833567ffffffffffffffff808211156122e357600080fd5b6122ef8783880161204e565b9450602086013591508082111561230557600080fd5b506123128682870161204e565b92505061232160408501611df9565b90509250925092565b634e487b7160e01b600052603260045260246000fd5b60008261235d57634e487b7160e01b600052601260045260246000fd5b500490565b8183823760009101908152919050565b60008351612384818460208801611e41565b835190830190612398818360208801611e41565b0194935050505056fea26469706673582212207b761636c8d5c24ff5766922f750e1fa0f19addb6bffc5fb69f77a45ab965ee164736f6c63430008100033",
  "devdoc": {
    "kind": "dev",
    "methods": {
      "getBaseBattleDuration()": {
        "details": "Used internally to determine how long battle will last",
        "returns": {
          "_0": "Base battle duration"
        }
      },
      "getBasicProductionBuildingCoefficient(string)": {
        "details": "used for internal calculation of production result",
        "params": {
          "buildingName": "Building type"
        },
        "returns": {
          "_0": "Basic production building coefficient"
        }
      },
      "getBattleDurationStunMultiplier()": {
        "details": "Used internally to determine how long stun will last after army lost battle",
        "returns": {
          "_0": "Battle duration stun multiplier"
        }
      },
      "getBattleLobbyDurationPercent()": {
        "details": "Used internally to determine how long lobby phase will last",
        "returns": {
          "_0": "Battle lobby phase duration percent"
        }
      },
      "getBuildingTokenTransferThresholdPercent()": {
        "details": "Used to determine is building token transfer allowed based on treasury percent",
        "returns": {
          "_0": "Building token transfer threshold percent"
        }
      },
      "getBuildings()": {
        "details": "Used internally to determine which buildings will be created on placing settlement",
        "returns": {
          "_0": "Buildings"
        }
      },
      "getCultistUnitType()": {
        "details": "Determines type of unit in cultists army",
        "returns": {
          "_0": "Cultists unit type"
        }
      },
      "getCultistsNoDestructionDelay()": {
        "details": "Used to determine if destruction is available or not",
        "returns": {
          "_0": "No destruction interval duration (in seconds)"
        }
      },
      "getCultistsPerZoneMultiplier()": {
        "details": "Used to determine amount of cultists that have to be present for world destruction",
        "returns": {
          "_0": "Value of cultists per zone"
        }
      },
      "getCultistsSummonDelay()": {
        "details": "Used to determine is cultists can be re-summoned",
        "returns": {
          "_0": "Cultists summon delay (in seconds)"
        }
      },
      "getDemilitarizationCooldown()": {
        "details": "Used for army demilitarization restriction",
        "returns": {
          "_0": "Demilitarization cooldown in seconds"
        }
      },
      "getGameResources()": {
        "details": "Used internally to determine upgrade costs and providing initial resources for settlement owner based on his tier",
        "params": {
          "resources": "Game resources"
        }
      },
      "getGameUnits()": {
        "details": "Used internally in many places where interaction with units is necessary",
        "returns": {
          "_0": "Game units"
        }
      },
      "getGlobalMultiplier()": {
        "details": "Used everywhere, where time is involved. Essentially determines game speed",
        "returns": {
          "_0": "Global multiplier"
        }
      },
      "getMaxCultistsPerZone()": {
        "details": "Used to determine how many cultists will be summoned",
        "returns": {
          "_0": "Maximum amount of cultists"
        }
      },
      "getMaxSettlementPerZone()": {
        "details": "Cultists does not count (so +1 with cultists)",
        "returns": {
          "_0": "Max settlement that can be placed in one zone"
        }
      },
      "getMovementDurationStunMultiplier()": {
        "details": "Used internally to determine how long stun will last after armies' movement",
        "returns": {
          "_0": "Movement duration stun multiplier"
        }
      },
      "getNewSettlementExtraResources()": {
        "details": "During settlement creation continent contract uses output from this function to determine how much extra resources to mint",
        "returns": {
          "_0": "Extra resources which will be minted to user when new settlement is placed"
        }
      },
      "getNewSettlementStartingPrice()": {
        "details": "Used to determine how much base price for first settlement will be",
        "returns": {
          "_0": "New settlement starting price"
        }
      },
      "getProductionTicksInSecond()": {
        "details": "Used for production calculation",
        "returns": {
          "_0": "Amount of production ticks"
        }
      },
      "getProsperityForDemilitarization(string)": {
        "details": "Used internally to calculate how much prosperity will be given",
        "returns": {
          "_0": "Prosperity amount per one unit (in 1e18 precision)"
        }
      },
      "getResourceWeight(string)": {
        "details": "Used for calculation how much prosperity will be produced by resource in treasury",
        "params": {
          "resourceName": "Resource name"
        },
        "returns": {
          "_0": "Resource weight (in 1e0 precision)"
        }
      },
      "getResources()": {
        "details": "Used internally to determine upgrade costs and providing initial resources for settlement owner based on his tier",
        "params": {
          "resources": "Game resources"
        }
      },
      "getRobberyFee()": {
        "details": "Used in determination how much of resource will be burned during robbery",
        "returns": {
          "_0": "Robbery fee (in 1e18 precision, where 1e18 is 100%)"
        }
      },
      "getSiegePointsToResourceMultiplier(string)": {
        "details": "Used in calculation how many resources can be exchanged for siege points",
        "params": {
          "resourceName": "Resource name"
        },
        "returns": {
          "_0": "Siege point multiplier (in 1e18 precision)"
        }
      },
      "getSiegePowerToSiegePointsMultiplier()": {
        "details": "Used for determination how much siege points will be given",
        "returns": {
          "_0": "Siege power to siege siege points multiplier (in 1e18 precision)"
        }
      },
      "getToTreasuryPercent()": {
        "details": "Determines how much of buildings production will go to treasury (if not full)",
        "params": {
          "toTreasuryPercent": "Production to treasury percent (in 1e18 precision, where 1e18 is 100%)"
        }
      },
      "getToxicityByResource(string)": {
        "details": "Used for minting/burning toxicity",
        "params": {
          "resourceName": "Resource name"
        },
        "returns": {
          "_0": "Amount of toxicity per 1 resource (both are in 1e18 precision)"
        }
      },
      "getUnitHiringFortHpMultiplier()": {
        "details": "Used to determine how much units in army can be presented based on its current fort hp and this parameter",
        "returns": {
          "_0": "Unit hiring fort hp multiplier"
        }
      },
      "getUnitMaxFoodToSpendOnMove(string)": {
        "details": "Used internally to calculate army's movement speed",
        "params": {
          "unitType": "Unit type"
        },
        "returns": {
          "_0": "Maximum amount of food to spend on move (in 1e18 precision)"
        }
      },
      "getUnitPriceDropByUnitType(string)": {
        "details": "Used for determination of current unit pool price",
        "params": {
          "unitType": "Unit type"
        },
        "returns": {
          "_0": "Numerator",
          "_1": "Denominator"
        }
      },
      "getUnits()": {
        "details": "Used internally in many places where interaction with units is necessary",
        "returns": {
          "_0": "Game units"
        }
      },
      "getWorkerCapacityCoefficient(string)": {
        "details": "Used for internal calculation of max workers for each building",
        "params": {
          "buildingName": "Building type"
        },
        "returns": {
          "_0": "Worker capacity coefficient"
        }
      },
      "hasStartingTreasury(string)": {
        "details": "Used for determination if treasury should be filled on settlement creation",
        "params": {
          "buildingName": "Building type"
        },
        "returns": {
          "_0": "If treasury should be filled"
        }
      },
      "init(uint256,uint256)": {
        "details": "Called by address which created current instance",
        "params": {
          "globalMultiplier": "Global multiplier",
          "settlementStartingPrice": "Settlement starting price"
        }
      },
      "setFactoryContract(bytes32,address)": {
        "details": "Even though function is opened, it can be called only by mightyCreator",
        "params": {
          "assetType": "Type of the asset",
          "factoryAddress": "Factory address"
        }
      },
      "setScriptContractName(string,string,address)": {
        "details": "Even though function is opened, it can be called only by mightyCreator",
        "params": {
          "assetGroup": "Asset group",
          "assetType": "Type of the asset",
          "implementationAddress": "Implementation address"
        }
      },
      "setUnitStats(string,(uint256,uint256,uint256,uint256,uint256,uint256,uint256))": {
        "details": "Even though function is opened, it can be called only by mightyCreator",
        "params": {
          "unitName": "Unit type",
          "unitStats": "Unit stats struct"
        }
      }
    },
    "stateVariables": {
      "factoryContracts": {
        "details": "Updated when #setFactoryContract is calledDuring new world asset creation process registry is asked for factory contract for exact world asset type, which will contain creation method for new world asset"
      },
      "globalMultiplier": {
        "details": "Immutable, initialized on the registry creation"
      },
      "isFactoryContract": {
        "details": "Updated when #setFactoryContract is called"
      },
      "mightyCreator": {
        "details": "Immutable, initialized on the registry creation"
      },
      "scriptContracts": {
        "details": "Updated when #setScriptContractName is calledEvery worlds assets implementation (code, not data) will be defined by value from this mapping"
      },
      "settlementStartingPrice": {
        "details": "Immutable, initialized on the registry creation"
      },
      "unitsStats": {
        "details": "Updated when #setUnitStats is called"
      }
    },
    "version": 1
  },
  "userdoc": {
    "kind": "user",
    "methods": {
      "factoryContracts(bytes32)": {
        "notice": "Mapping containing factory contracts addresses by provided asset types"
      },
      "getBaseBattleDuration()": {
        "notice": "Returns base battle duration"
      },
      "getBasicProductionBuildingCoefficient(string)": {
        "notice": "Calculates basic production building coefficient"
      },
      "getBattleDurationStunMultiplier()": {
        "notice": "Returns battle duration stun multiplier"
      },
      "getBattleLobbyDurationPercent()": {
        "notice": "Returns battle lobby phase duration percent (in 1e18 precision)"
      },
      "getBuildingTokenTransferThresholdPercent()": {
        "notice": "Returns building token transfer threshold percent"
      },
      "getBuildings()": {
        "notice": "Returns game buildings"
      },
      "getCultistUnitType()": {
        "notice": "Returns unit type of cultists army"
      },
      "getCultistsNoDestructionDelay()": {
        "notice": "Returns interval duration where world is not destructible after recent cultists summon"
      },
      "getCultistsPerZoneMultiplier()": {
        "notice": "Returns value of cultists per zone which determines cultists threshold for world destruction"
      },
      "getCultistsSummonDelay()": {
        "notice": "Returns cultists summon delay"
      },
      "getDemilitarizationCooldown()": {
        "notice": "Returns army demilitarization cooldown in seconds"
      },
      "getGameResources()": {
        "notice": "Returns game resources"
      },
      "getGameUnits()": {
        "notice": "Returns game units"
      },
      "getGlobalMultiplier()": {
        "notice": "Returns global multiplier"
      },
      "getMaxCultistsPerZone()": {
        "notice": "Returns maximum amount of cultists that can be present in zone"
      },
      "getMaxSettlementPerZone()": {
        "notice": "Returns max settlement that can be placed in one zone"
      },
      "getMovementDurationStunMultiplier()": {
        "notice": "Returns movement duration stun multiplier"
      },
      "getNewSettlementExtraResources()": {
        "notice": "Returns extra resources which will be minted to user when new settlement is placed"
      },
      "getNewSettlementStartingPrice()": {
        "notice": "Returns new settlement starting price in settlements market"
      },
      "getProductionTicksInSecond()": {
        "notice": "Returns amount of production ticks"
      },
      "getProsperityForDemilitarization(string)": {
        "notice": "Returns how much prosperity will be given for provided unit type"
      },
      "getResourceWeight(string)": {
        "notice": "Calculates resource weight"
      },
      "getResources()": {
        "notice": "Returns game resources"
      },
      "getRobberyFee()": {
        "notice": "Returns robbery fee"
      },
      "getSiegePointsToResourceMultiplier(string)": {
        "notice": "Returns siege point multiplier by provided resource"
      },
      "getSiegePowerToSiegePointsMultiplier()": {
        "notice": "Returns siege power to siege siege points multiplier"
      },
      "getToTreasuryPercent()": {
        "notice": "Returns production to treasury percent"
      },
      "getToxicityByResource(string)": {
        "notice": "Calculates toxicity by resource ratio"
      },
      "getUnitHiringFortHpMultiplier()": {
        "notice": "Returns unit hiring fort hp multiplier"
      },
      "getUnitMaxFoodToSpendOnMove(string)": {
        "notice": "Returns how much food unit can take from treasury to increase its army movement speed"
      },
      "getUnitPriceDropByUnitType(string)": {
        "notice": "Returns unit pool price drop per second for provided unit type, provided as numerator and denominator"
      },
      "getUnits()": {
        "notice": "Returns game units"
      },
      "getWorkerCapacityCoefficient(string)": {
        "notice": "Calculates worker capacity coefficient for provided building type"
      },
      "globalMultiplier()": {
        "notice": "Global multiplier"
      },
      "hasStartingTreasury(string)": {
        "notice": "Calculates if provided building has starting treasury on creation"
      },
      "init(uint256,uint256)": {
        "notice": "Proxy initializer"
      },
      "isFactoryContract(address)": {
        "notice": "Mapping containing is provided address a factory contract or not"
      },
      "mightyCreator()": {
        "notice": "An address which can configure/reconfigure current game"
      },
      "scriptContracts(bytes32)": {
        "notice": "Mapping containing assets implementations addresses by provided asset types"
      },
      "setFactoryContract(bytes32,address)": {
        "notice": "Sets provided address as factory contract for provided asset type"
      },
      "setScriptContractName(string,string,address)": {
        "notice": "Sets provided address as implementation for provided asset group and asset type (for ex. group - \"settlement\", type - \"CULTISTS\")"
      },
      "setUnitStats(string,(uint256,uint256,uint256,uint256,uint256,uint256,uint256))": {
        "notice": "Sets units stats for provided unit type"
      },
      "settlementStartingPrice()": {
        "notice": "Settlement starting price"
      },
      "unitsStats(string)": {
        "notice": "Mapping containing units stats by provided unit types"
      }
    },
    "version": 1
  },
  "storageLayout": {
    "storage": [
      {
        "astId": 119,
        "contract": "contracts/core/Registry.sol:Registry",
        "label": "_initialized",
        "offset": 0,
        "slot": "0",
        "type": "t_uint8"
      },
      {
        "astId": 122,
        "contract": "contracts/core/Registry.sol:Registry",
        "label": "_initializing",
        "offset": 1,
        "slot": "0",
        "type": "t_bool"
      },
      {
        "astId": 7618,
        "contract": "contracts/core/Registry.sol:Registry",
        "label": "mightyCreator",
        "offset": 2,
        "slot": "0",
        "type": "t_address"
      },
      {
        "astId": 7624,
        "contract": "contracts/core/Registry.sol:Registry",
        "label": "isFactoryContract",
        "offset": 0,
        "slot": "1",
        "type": "t_mapping(t_address,t_bool)"
      },
      {
        "astId": 7630,
        "contract": "contracts/core/Registry.sol:Registry",
        "label": "factoryContracts",
        "offset": 0,
        "slot": "2",
        "type": "t_mapping(t_bytes32,t_address)"
      },
      {
        "astId": 7636,
        "contract": "contracts/core/Registry.sol:Registry",
        "label": "scriptContracts",
        "offset": 0,
        "slot": "3",
        "type": "t_mapping(t_bytes32,t_address)"
      },
      {
        "astId": 7643,
        "contract": "contracts/core/Registry.sol:Registry",
        "label": "unitsStats",
        "offset": 0,
        "slot": "4",
        "type": "t_mapping(t_string_memory_ptr,t_struct(UnitStats)7032_storage)"
      },
      {
        "astId": 7647,
        "contract": "contracts/core/Registry.sol:Registry",
        "label": "globalMultiplier",
        "offset": 0,
        "slot": "5",
        "type": "t_uint256"
      },
      {
        "astId": 7651,
        "contract": "contracts/core/Registry.sol:Registry",
        "label": "settlementStartingPrice",
        "offset": 0,
        "slot": "6",
        "type": "t_uint256"
      }
    ],
    "types": {
      "t_address": {
        "encoding": "inplace",
        "label": "address",
        "numberOfBytes": "20"
      },
      "t_bool": {
        "encoding": "inplace",
        "label": "bool",
        "numberOfBytes": "1"
      },
      "t_bytes32": {
        "encoding": "inplace",
        "label": "bytes32",
        "numberOfBytes": "32"
      },
      "t_mapping(t_address,t_bool)": {
        "encoding": "mapping",
        "key": "t_address",
        "label": "mapping(address => bool)",
        "numberOfBytes": "32",
        "value": "t_bool"
      },
      "t_mapping(t_bytes32,t_address)": {
        "encoding": "mapping",
        "key": "t_bytes32",
        "label": "mapping(bytes32 => address)",
        "numberOfBytes": "32",
        "value": "t_address"
      },
      "t_mapping(t_string_memory_ptr,t_struct(UnitStats)7032_storage)": {
        "encoding": "mapping",
        "key": "t_string_memory_ptr",
        "label": "mapping(string => struct IRegistry.UnitStats)",
        "numberOfBytes": "32",
        "value": "t_struct(UnitStats)7032_storage"
      },
      "t_string_memory_ptr": {
        "encoding": "bytes",
        "label": "string",
        "numberOfBytes": "32"
      },
      "t_struct(UnitStats)7032_storage": {
        "encoding": "inplace",
        "label": "struct IRegistry.UnitStats",
        "members": [
          {
            "astId": 7019,
            "contract": "contracts/core/Registry.sol:Registry",
            "label": "weaponPowerStage1",
            "offset": 0,
            "slot": "0",
            "type": "t_uint256"
          },
          {
            "astId": 7021,
            "contract": "contracts/core/Registry.sol:Registry",
            "label": "armourPowerStage1",
            "offset": 0,
            "slot": "1",
            "type": "t_uint256"
          },
          {
            "astId": 7023,
            "contract": "contracts/core/Registry.sol:Registry",
            "label": "weaponPowerStage2",
            "offset": 0,
            "slot": "2",
            "type": "t_uint256"
          },
          {
            "astId": 7025,
            "contract": "contracts/core/Registry.sol:Registry",
            "label": "armourPowerStage2",
            "offset": 0,
            "slot": "3",
            "type": "t_uint256"
          },
          {
            "astId": 7027,
            "contract": "contracts/core/Registry.sol:Registry",
            "label": "siegePower",
            "offset": 0,
            "slot": "4",
            "type": "t_uint256"
          },
          {
            "astId": 7029,
            "contract": "contracts/core/Registry.sol:Registry",
            "label": "siegeMaxSupply",
            "offset": 0,
            "slot": "5",
            "type": "t_uint256"
          },
          {
            "astId": 7031,
            "contract": "contracts/core/Registry.sol:Registry",
            "label": "siegeSupport",
            "offset": 0,
            "slot": "6",
            "type": "t_uint256"
          }
        ],
        "numberOfBytes": "224"
      },
      "t_uint256": {
        "encoding": "inplace",
        "label": "uint256",
        "numberOfBytes": "32"
      },
      "t_uint8": {
        "encoding": "inplace",
        "label": "uint8",
        "numberOfBytes": "1"
      }
    }
  }
}