{
  "address": "0xf1f43c7266c574e3985AB8a9F5C129E46e5a1FB6",
  "abi": [
    {
      "inputs": [
        {
          "internalType": "address",
          "name": "bannersAddress",
          "type": "address"
        },
        {
          "internalType": "address",
          "name": "worldAddress",
          "type": "address"
        }
      ],
      "stateMutability": "nonpayable",
      "type": "constructor"
    },
    {
      "anonymous": false,
      "inputs": [
        {
          "indexed": false,
          "internalType": "uint256",
          "name": "orderId",
          "type": "uint256"
        }
      ],
      "name": "OrderAccepted",
      "type": "event"
    },
    {
      "anonymous": false,
      "inputs": [
        {
          "indexed": false,
          "internalType": "uint256",
          "name": "orderId",
          "type": "uint256"
        }
      ],
      "name": "OrderCancelled",
      "type": "event"
    },
    {
      "anonymous": false,
      "inputs": [
        {
          "indexed": false,
          "internalType": "uint256",
          "name": "orderId",
          "type": "uint256"
        },
        {
          "indexed": false,
          "internalType": "uint256",
          "name": "bannerId",
          "type": "uint256"
        },
        {
          "indexed": false,
          "internalType": "address",
          "name": "sellingTokenAddress",
          "type": "address"
        },
        {
          "indexed": false,
          "internalType": "uint256",
          "name": "price",
          "type": "uint256"
        }
      ],
      "name": "OrderCreated",
      "type": "event"
    },
    {
      "anonymous": false,
      "inputs": [
        {
          "indexed": false,
          "internalType": "uint256",
          "name": "orderId",
          "type": "uint256"
        },
        {
          "indexed": false,
          "internalType": "address",
          "name": "sellingTokenAddress",
          "type": "address"
        },
        {
          "indexed": false,
          "internalType": "uint256",
          "name": "price",
          "type": "uint256"
        }
      ],
      "name": "OrderModified",
      "type": "event"
    },
    {
      "inputs": [
        {
          "internalType": "uint256",
          "name": "orderId",
          "type": "uint256"
        },
        {
          "components": [
            {
              "internalType": "string",
              "name": "buildingType",
              "type": "string"
            },
            {
              "internalType": "uint256",
              "name": "minSharesAmount",
              "type": "uint256"
            }
          ],
          "internalType": "struct SettlementsListings.SharesInfo[]",
          "name": "minBuildingsSharesToReceive",
          "type": "tuple[]"
        }
      ],
      "name": "acceptOrder",
      "outputs": [],
      "stateMutability": "payable",
      "type": "function"
    },
    {
      "inputs": [],
      "name": "banners",
      "outputs": [
        {
          "internalType": "contract IERC721Enumerable",
          "name": "",
          "type": "address"
        }
      ],
      "stateMutability": "view",
      "type": "function"
    },
    {
      "inputs": [
        {
          "internalType": "uint256",
          "name": "",
          "type": "uint256"
        }
      ],
      "name": "bannersOrders",
      "outputs": [
        {
          "internalType": "uint256",
          "name": "",
          "type": "uint256"
        }
      ],
      "stateMutability": "view",
      "type": "function"
    },
    {
      "inputs": [
        {
          "internalType": "uint256",
          "name": "orderId",
          "type": "uint256"
        }
      ],
      "name": "cancelOrder",
      "outputs": [],
      "stateMutability": "nonpayable",
      "type": "function"
    },
    {
      "inputs": [
        {
          "internalType": "uint256",
          "name": "bannerId",
          "type": "uint256"
        },
        {
          "internalType": "address",
          "name": "sellingTokenAddress",
          "type": "address"
        },
        {
          "internalType": "uint256",
          "name": "price",
          "type": "uint256"
        }
      ],
      "name": "createOrder",
      "outputs": [],
      "stateMutability": "nonpayable",
      "type": "function"
    },
    {
      "inputs": [],
      "name": "lastOrderId",
      "outputs": [
        {
          "internalType": "uint256",
          "name": "",
          "type": "uint256"
        }
      ],
      "stateMutability": "view",
      "type": "function"
    },
    {
      "inputs": [
        {
          "internalType": "uint256",
          "name": "orderId",
          "type": "uint256"
        },
        {
          "internalType": "address",
          "name": "sellingTokenAddress",
          "type": "address"
        },
        {
          "internalType": "uint256",
          "name": "price",
          "type": "uint256"
        }
      ],
      "name": "modifyOrder",
      "outputs": [],
      "stateMutability": "nonpayable",
      "type": "function"
    },
    {
      "inputs": [
        {
          "internalType": "uint256",
          "name": "",
          "type": "uint256"
        }
      ],
      "name": "orders",
      "outputs": [
        {
          "internalType": "address",
          "name": "orderOwner",
          "type": "address"
        },
        {
          "internalType": "address",
          "name": "sellingTokenAddress",
          "type": "address"
        },
        {
          "internalType": "uint256",
          "name": "price",
          "type": "uint256"
        },
        {
          "internalType": "uint256",
          "name": "bannerId",
          "type": "uint256"
        },
        {
          "internalType": "enum SettlementsListings.OrderStatus",
          "name": "status",
          "type": "uint8"
        }
      ],
      "stateMutability": "view",
      "type": "function"
    },
    {
      "inputs": [],
      "name": "world",
      "outputs": [
        {
          "internalType": "contract IWorld",
          "name": "",
          "type": "address"
        }
      ],
      "stateMutability": "view",
      "type": "function"
    }
  ],
  "transactionHash": "0x8da187c00c7a4141ed323ceb3112898531329e70bb68c5f38bb40d58a69fca8f",
  "args": [
    "0x8a57266862F170d3D426d02682585f606CCd5e4f",
    "0xFD09165d605e324d1f09A314c86d8B8c3C462aCa"
  ],
  "numDeployments": 1,
  "solcInputHash": "ce67aa0965c465d95ce5795642cb6672",
  "bytecode": "0x6080604052600060055534801561001557600080fd5b5060405161155f38038061155f83398101604081905261003491610086565b6001600081905580546001600160a01b039384166001600160a01b031991821617909155600280549290931691161790556100b9565b80516001600160a01b038116811461008157600080fd5b919050565b6000806040838503121561009957600080fd5b6100a28361006a565b91506100b06020840161006a565b90509250929050565b611497806100c86000396000f3fe6080604052600436106100865760003560e01c80635662ecc7116100595780635662ecc71461014557806359bfb2741461015b57806394a51fc01461017b578063a85c38ef1461018e578063e2b91afb146101f957600080fd5b806330b67baa1461008b578063363017cd146100c857806340d9456b14610103578063514fcac714610123575b600080fd5b34801561009757600080fd5b506002546100ab906001600160a01b031681565b6040516001600160a01b0390911681526020015b60405180910390f35b3480156100d457600080fd5b506100f56100e3366004611014565b60046020526000908152604090205481565b6040519081526020016100bf565b34801561010f57600080fd5b506001546100ab906001600160a01b031681565b34801561012f57600080fd5b5061014361013e366004611014565b610219565b005b34801561015157600080fd5b506100f560055481565b34801561016757600080fd5b50610143610176366004611045565b6103c2565b6101436101893660046110ed565b6104ef565b34801561019a57600080fd5b506101e86101a9366004611014565b6003602081905260009182526040909120805460018201546002830154938301546004909301546001600160a01b039283169492909116929060ff1685565b6040516100bf95949392919061125e565b34801561020557600080fd5b50610143610214366004611045565b610c80565b60008181526003602081905260408083206001549281015491516331a9108f60e11b8152600481019290925292916001600160a01b031690636352211e90602401602060405180830381865afa158015610277573d6000803e3d6000fd5b505050506040513d601f19601f8201168201806040525081019061029b91906112b2565b90506001600483015460ff1660038111156102b8576102b8611248565b146102fa5760405162461bcd60e51b815260206004820152600d60248201526c3737ba103732bb9037b93232b960991b60448201526064015b60405180910390fd5b81546001600160a01b03908116338114918316148180610318575080155b6103645760405162461bcd60e51b815260206004820152601660248201527f756e61626c6520746f2063616e63656c206f726465720000000000000000000060448201526064016102f1565b6004848101805460ff19166002179055600385015460009081526020918252604080822091909155518681527f61b9399f2f0f32ca39ce8d7be32caed5ec22fe07a6daba3a467ed479ec606582910160405180910390a15050505050565b60008381526003602052604090206001600482015460ff1660038111156103eb576103eb611248565b146104285760405162461bcd60e51b815260206004820152600d60248201526c3737ba103732bb9037b93232b960991b60448201526064016102f1565b80546001600160a01b031633146104815760405162461bcd60e51b815260206004820152601660248201527f756e61626c6520746f206d6f64696679206f726465720000000000000000000060448201526064016102f1565b6001810180546001600160a01b0319166001600160a01b0385169081179091556002820183905560408051868152602081019290925281018390527f4add6162d869cec70eb9deab7fffe7d235bdc6e05208868eb1fbd8c581c403859060600160405180910390a150505050565b6002600054036105415760405162461bcd60e51b815260206004820152601f60248201527f5265656e7472616e637947756172643a207265656e7472616e742063616c6c0060448201526064016102f1565b600260009081558281526003602052604090206001600482015460ff16600381111561056f5761056f611248565b146105ac5760405162461bcd60e51b815260206004820152600d60248201526c3737ba103732bb9037b93232b960991b60448201526064016102f1565b60018101546001600160a01b031615801561063357816002015434146106145760405162461bcd60e51b815260206004820152601660248201527f6e6f7420656e6f75676820746f6b656e732073656e740000000000000000000060448201526064016102f1565b8154600283015461062e916001600160a01b031690610ef6565b6106bb565b6001820154825460028401546040516323b872dd60e01b81523360048201526001600160a01b03928316602482015260448101919091529116906323b872dd906064016020604051808303816000875af1158015610695573d6000803e3d6000fd5b505050506040513d601f19601f820116820180604052508101906106b991906112d6565b505b60015482546003840154604051632142170760e11b81526001600160a01b03928316600482015233602482015260448101919091529116906342842e0e90606401600060405180830381600087803b15801561071657600080fd5b505af115801561072a573d6000803e3d6000fd5b505050506000600260009054906101000a90046001600160a01b03166001600160a01b031663e4e940f06040518163ffffffff1660e01b8152600401602060405180830381865afa158015610783573d6000803e3d6000fd5b505050506040513d601f19601f820116820180604052508101906107a791906112b2565b60025460408051631a40efad60e21b815290519293506000926001600160a01b039092169163c6b61e4c918391636903beb4916004808201926020929091908290030181865afa1580156107ff573d6000803e3d6000fd5b505050506040513d601f19601f8201168201806040525081019061082391906112f8565b6040518263ffffffff1660e01b815260040161084191815260200190565b602060405180830381865afa15801561085e573d6000803e3d6000fd5b505050506040513d601f19601f8201168201806040525081019061088291906112b2565b90506000816001600160a01b031663680080ad86600301546040518263ffffffff1660e01b81526004016108b891815260200190565b602060405180830381865afa1580156108d5573d6000803e3d6000fd5b505050506040513d601f19601f820116820180604052508101906108f991906112b2565b90506000865167ffffffffffffffff8111156109175761091761107d565b604051908082528060200260200182016040528015610940578160200160208202803683370190505b5090506000875167ffffffffffffffff81111561095f5761095f61107d565b604051908082528060200260200182016040528015610988578160200160208202803683370190505b50905060005b8851811015610b9f5760008982815181106109ab576109ab611311565b602002602001015190506000856001600160a01b03166399258aef83600001516040518263ffffffff1660e01b81526004016109e7919061136d565b602060405180830381865afa158015610a04573d6000803e3d6000fd5b505050506040513d601f19601f82011682018060405250810190610a2891906112b2565b6001600160a01b031663c9c0df616040518163ffffffff1660e01b8152600401602060405180830381865afa158015610a65573d6000803e3d6000fd5b505050506040513d601f19601f82011682018060405250810190610a8991906112f8565b8a54604051627eeac760e11b81526001600160a01b03918216600482015260248101839052919250600091908a169062fdd58e90604401602060405180830381865afa158015610add573d6000803e3d6000fd5b505050506040513d601f19601f82011682018060405250810190610b0191906112f8565b90508260200151811015610b4b5760405162461bcd60e51b81526020600482015260116024820152706e6f7420656e6f7567682073686172657360781b60448201526064016102f1565b81868581518110610b5e57610b5e611311565b60200260200101818152505080858581518110610b7d57610b7d611311565b6020026020010181815250505050508080610b9790611396565b91505061098e565b50865460408051600081526020810191829052631759616b60e11b9091526001600160a01b0387811692632eb2c2d692610be69290911690339087908790602481016113ea565b600060405180830381600087803b158015610c0057600080fd5b505af1158015610c14573d6000803e3d6000fd5b505050506004878101805460ff1916600390811790915588015460009081526020918252604080822091909155518a81527f262f7ad1922bdcf27203585ef3238620589ce6f74721d45bff6897a19e4f94a1910160405180910390a15050600160005550505050505050565b6001546040516331a9108f60e11b8152600481018590526000916001600160a01b031690636352211e90602401602060405180830381865afa158015610cca573d6000803e3d6000fd5b505050506040513d601f19601f82011682018060405250810190610cee91906112b2565b6000858152600460209081526040808320548084526003909252909120919250906001600482015460ff166003811115610d2a57610d2a611248565b148015610d44575080546001600160a01b03848116911614155b15610d5257610d5282610219565b6001600160a01b0383163314610dc55760405162461bcd60e51b815260206004820152603260248201527f6f6e6c79206f776e65722063616e20637265617465206f7264657220666f72206044820152711c1c9bdd9a5919590818985b9b995c881a5960721b60648201526084016102f1565b60008681526004602052604090205415610e2d5760405162461bcd60e51b815260206004820152602360248201527f6f7264657220666f7220746869732062616e6e657220616c72656164792065786044820152621a5cdd60ea1b60648201526084016102f1565b600554610e3b906001611448565b600581815560008881526004602081815260408084208690559483526003808252928590209283018b905582546001600160a01b031990811633178455600180850180546001600160a01b038e16931683179055600285018b9055928401805460ff1916909317909255925484519081529283018a905292820192909252606081018690527fab45dcf8e0b46d291b98e53c6f1c6774dc32e2436543291f7bfbb3e3c48b2f9f9060800160405180910390a150505050505050565b80471015610f465760405162461bcd60e51b815260206004820152601d60248201527f416464726573733a20696e73756666696369656e742062616c616e636500000060448201526064016102f1565b6000826001600160a01b03168260405160006040518083038185875af1925050503d8060008114610f93576040519150601f19603f3d011682016040523d82523d6000602084013e610f98565b606091505b505090508061100f5760405162461bcd60e51b815260206004820152603a60248201527f416464726573733a20756e61626c6520746f2073656e642076616c75652c207260448201527f6563697069656e74206d6179206861766520726576657274656400000000000060648201526084016102f1565b505050565b60006020828403121561102657600080fd5b5035919050565b6001600160a01b038116811461104257600080fd5b50565b60008060006060848603121561105a57600080fd5b83359250602084013561106c8161102d565b929592945050506040919091013590565b634e487b7160e01b600052604160045260246000fd5b6040805190810167ffffffffffffffff811182821017156110b6576110b661107d565b60405290565b604051601f8201601f1916810167ffffffffffffffff811182821017156110e5576110e561107d565b604052919050565b6000806040838503121561110057600080fd5b8235915060208084013567ffffffffffffffff8082111561112057600080fd5b818601915086601f83011261113457600080fd5b8135818111156111465761114661107d565b8060051b6111558582016110bc565b918252838101850191858101908a84111561116f57600080fd5b86860192505b838310156112375782358581111561118c57600080fd5b8601601f196040828e03820112156111a357600080fd5b6111ab611093565b89830135888111156111bc57600080fd5b8301603f81018f136111cd57600080fd5b8a810135898111156111e1576111e161107d565b6111f18c85601f840116016110bc565b93508084528f604082840101111561120857600080fd5b80604083018d86013760009084018c015250908152604091909101358189015282529186019190860190611175565b809750505050505050509250929050565b634e487b7160e01b600052602160045260246000fd5b6001600160a01b03868116825285166020820152604081018490526060810183905260a08101600483106112a257634e487b7160e01b600052602160045260246000fd5b8260808301529695505050505050565b6000602082840312156112c457600080fd5b81516112cf8161102d565b9392505050565b6000602082840312156112e857600080fd5b815180151581146112cf57600080fd5b60006020828403121561130a57600080fd5b5051919050565b634e487b7160e01b600052603260045260246000fd5b6000815180845260005b8181101561134d57602081850181015186830182015201611331565b506000602082860101526020601f19601f83011685010191505092915050565b6020815260006112cf6020830184611327565b634e487b7160e01b600052601160045260246000fd5b6000600182016113a8576113a8611380565b5060010190565b600081518084526020808501945080840160005b838110156113df578151875295820195908201906001016113c3565b509495945050505050565b60006001600160a01b03808816835280871660208401525060a0604083015261141660a08301866113af565b828103606084015261142881866113af565b9050828103608084015261143c8185611327565b98975050505050505050565b8082018082111561145b5761145b611380565b9291505056fea26469706673582212206b4b3e174a8f3625080f99559ea36e045eb061b82819a2ae7af4c32ece2981a764736f6c63430008100033",
  "devdoc": {
    "events": {
      "OrderAccepted(uint256)": {
        "params": {
          "orderId": "Order id"
        }
      },
      "OrderCancelled(uint256)": {
        "params": {
          "orderId": "Order id"
        }
      },
      "OrderCreated(uint256,uint256,address,uint256)": {
        "params": {
          "bannerId": "Banner id",
          "orderId": "Newly created order id",
          "price": "Price",
          "sellingTokenAddress": "Selling token address (address(0) if native eth currency is used)"
        }
      },
      "OrderModified(uint256,address,uint256)": {
        "params": {
          "orderId": "Order id",
          "price": "New price",
          "sellingTokenAddress": "New selling token address (address(0) if native eth currency is used)"
        }
      }
    },
    "kind": "dev",
    "methods": {
      "acceptOrder(uint256,(string,uint256)[])": {
        "details": "Transfers banner id to msg.sender for provided amount of tokens (if ERC20 - they need to be approved beforehand, if native - they have to be sent to this function)",
        "params": {
          "minBuildingsSharesToReceive": "Minimum amount of building shares to receive with orders' banner",
          "orderId": "Order id"
        }
      },
      "cancelOrder(uint256)": {
        "details": "Can be called by order owner OR order owner is not banner owner (anyone can cancel order if order is not valid)",
        "params": {
          "orderId": "Order id"
        }
      },
      "createOrder(uint256,address,uint256)": {
        "details": "Creates order for specified amount of tokens",
        "params": {
          "bannerId": "Banner id",
          "price": "Price",
          "sellingTokenAddress": "Selling token address (address(0) if native eth currency is used)"
        }
      },
      "modifyOrder(uint256,address,uint256)": {
        "details": "Selling token address, price can be modified; banner id cannot be modified",
        "params": {
          "orderId": "Order id",
          "price": "New price",
          "sellingTokenAddress": "New selling token address (address(0) if native eth currency is used)"
        }
      }
    },
    "stateVariables": {
      "banners": {
        "details": "Immutable, initialized in constructor"
      },
      "bannersOrders": {
        "details": "Modified when #createOrder or #createOrder is called"
      },
      "lastOrderId": {
        "details": "Modified when #createOrder is called"
      },
      "orders": {
        "details": "Modified when #createOrder or #acceptOrder or #cancelOrder is called"
      },
      "world": {
        "details": "Immutable, initialized in constructor"
      }
    },
    "title": "Settlements listings",
    "version": 1
  },
  "userdoc": {
    "events": {
      "OrderAccepted(uint256)": {
        "notice": "Emitted when #acceptOrder is called"
      },
      "OrderCancelled(uint256)": {
        "notice": "Emitted when #cancelOrder is called (can be emitted when #createOrder is called once again after banner owner is changed)"
      },
      "OrderCreated(uint256,uint256,address,uint256)": {
        "notice": "Emitted when #createOrder is called"
      },
      "OrderModified(uint256,address,uint256)": {
        "notice": "Emitted when #modifyOrder is called"
      }
    },
    "kind": "user",
    "methods": {
      "acceptOrder(uint256,(string,uint256)[])": {
        "notice": "Accepts order"
      },
      "banners()": {
        "notice": "Banners contract"
      },
      "bannersOrders(uint256)": {
        "notice": "Mapping containing link from banner id to order id"
      },
      "cancelOrder(uint256)": {
        "notice": "Cancels order"
      },
      "createOrder(uint256,address,uint256)": {
        "notice": "Creates settlement order"
      },
      "lastOrderId()": {
        "notice": "Lastly created order id (0 if no orders is created)"
      },
      "modifyOrder(uint256,address,uint256)": {
        "notice": "Modifies order"
      },
      "orders(uint256)": {
        "notice": "Mapping containing order id to related OrderDetails struct"
      },
      "world()": {
        "notice": "World contract"
      }
    },
    "notice": "Functions related to selling settlements for specific amount of tokens",
    "version": 1
  },
  "storageLayout": {
    "storage": [
      {
        "astId": 274,
        "contract": "contracts/external/SettlementsListings.sol:SettlementsListings",
        "label": "_status",
        "offset": 0,
        "slot": "0",
        "type": "t_uint256"
      },
      {
        "astId": 30347,
        "contract": "contracts/external/SettlementsListings.sol:SettlementsListings",
        "label": "banners",
        "offset": 0,
        "slot": "1",
        "type": "t_contract(IERC721Enumerable)3841"
      },
      {
        "astId": 30351,
        "contract": "contracts/external/SettlementsListings.sol:SettlementsListings",
        "label": "world",
        "offset": 0,
        "slot": "2",
        "type": "t_contract(IWorld)7594"
      },
      {
        "astId": 30357,
        "contract": "contracts/external/SettlementsListings.sol:SettlementsListings",
        "label": "orders",
        "offset": 0,
        "slot": "3",
        "type": "t_mapping(t_uint256,t_struct(OrderDetails)30343_storage)"
      },
      {
        "astId": 30362,
        "contract": "contracts/external/SettlementsListings.sol:SettlementsListings",
        "label": "bannersOrders",
        "offset": 0,
        "slot": "4",
        "type": "t_mapping(t_uint256,t_uint256)"
      },
      {
        "astId": 30366,
        "contract": "contracts/external/SettlementsListings.sol:SettlementsListings",
        "label": "lastOrderId",
        "offset": 0,
        "slot": "5",
        "type": "t_uint256"
      }
    ],
    "types": {
      "t_address": {
        "encoding": "inplace",
        "label": "address",
        "numberOfBytes": "20"
      },
      "t_contract(IERC721Enumerable)3841": {
        "encoding": "inplace",
        "label": "contract IERC721Enumerable",
        "numberOfBytes": "20"
      },
      "t_contract(IWorld)7594": {
        "encoding": "inplace",
        "label": "contract IWorld",
        "numberOfBytes": "20"
      },
      "t_enum(OrderStatus)30326": {
        "encoding": "inplace",
        "label": "enum SettlementsListings.OrderStatus",
        "numberOfBytes": "1"
      },
      "t_mapping(t_uint256,t_struct(OrderDetails)30343_storage)": {
        "encoding": "mapping",
        "key": "t_uint256",
        "label": "mapping(uint256 => struct SettlementsListings.OrderDetails)",
        "numberOfBytes": "32",
        "value": "t_struct(OrderDetails)30343_storage"
      },
      "t_mapping(t_uint256,t_uint256)": {
        "encoding": "mapping",
        "key": "t_uint256",
        "label": "mapping(uint256 => uint256)",
        "numberOfBytes": "32",
        "value": "t_uint256"
      },
      "t_struct(OrderDetails)30343_storage": {
        "encoding": "inplace",
        "label": "struct SettlementsListings.OrderDetails",
        "members": [
          {
            "astId": 30333,
            "contract": "contracts/external/SettlementsListings.sol:SettlementsListings",
            "label": "orderOwner",
            "offset": 0,
            "slot": "0",
            "type": "t_address"
          },
          {
            "astId": 30335,
            "contract": "contracts/external/SettlementsListings.sol:SettlementsListings",
            "label": "sellingTokenAddress",
            "offset": 0,
            "slot": "1",
            "type": "t_address"
          },
          {
            "astId": 30337,
            "contract": "contracts/external/SettlementsListings.sol:SettlementsListings",
            "label": "price",
            "offset": 0,
            "slot": "2",
            "type": "t_uint256"
          },
          {
            "astId": 30339,
            "contract": "contracts/external/SettlementsListings.sol:SettlementsListings",
            "label": "bannerId",
            "offset": 0,
            "slot": "3",
            "type": "t_uint256"
          },
          {
            "astId": 30342,
            "contract": "contracts/external/SettlementsListings.sol:SettlementsListings",
            "label": "status",
            "offset": 0,
            "slot": "4",
            "type": "t_enum(OrderStatus)30326"
          }
        ],
        "numberOfBytes": "160"
      },
      "t_uint256": {
        "encoding": "inplace",
        "label": "uint256",
        "numberOfBytes": "32"
      }
    }
  }
}