{
  "address": "0xBE19C45734dB084AEa42A9B9B8ec74597082C506",
  "abi": [
    {
      "inputs": [
        {
          "internalType": "uint16",
          "name": "variable",
          "type": "uint16"
        },
        {
          "internalType": "uint16",
          "name": "value",
          "type": "uint16"
        }
      ],
      "name": "canAdd",
      "outputs": [
        {
          "internalType": "bool",
          "name": "",
          "type": "bool"
        }
      ],
      "stateMutability": "pure",
      "type": "function"
    },
    {
      "inputs": [
        {
          "internalType": "uint16",
          "name": "variable",
          "type": "uint16"
        },
        {
          "internalType": "uint16",
          "name": "value",
          "type": "uint16"
        }
      ],
      "name": "canSubtract",
      "outputs": [
        {
          "internalType": "bool",
          "name": "",
          "type": "bool"
        }
      ],
      "stateMutability": "pure",
      "type": "function"
    }
  ],
  "transactionHash": "0x3ce81671f70fd9736c548fc21492006ebd9c42cc6f290ff0ce7bd70dd4084fb8",
  "args": [],
  "numDeployments": 1,
  "solcInputHash": "ce67aa0965c465d95ce5795642cb6672",
  "bytecode": "0x61018f61003a600b82828239805160001a60731461002d57634e487b7160e01b600052600060045260246000fd5b30600052607381538281f3fe73000000000000000000000000000000000000000030146080604052600436106100405760003560e01c8063a4a7317614610045578063f826b2241461006c575b600080fd5b6100586100533660046100d3565b61007f565b604051901515815260200160405180910390f35b61005861007a3660046100d3565b61009d565b600061ffff8316610090838561011c565b61ffff1610159392505050565b60006100a9828461013e565b61ffff168261ffff161115905092915050565b803561ffff811681146100ce57600080fd5b919050565b600080604083850312156100e657600080fd5b6100ef836100bc565b91506100fd602084016100bc565b90509250929050565b634e487b7160e01b600052601160045260246000fd5b61ffff81811683821601908082111561013757610137610106565b5092915050565b61ffff8281168282160390808211156101375761013761010656fea2646970667358221220db335c184c699d8815491b90a66b2167b96f7ddfa4ff1faa5d2bcbbf7e32843064736f6c63430008100033",
  "devdoc": {
    "kind": "dev",
    "methods": {
      "canAdd(uint16,uint16)": {
        "details": "Checks if adding two uint16 values will overflow or not"
      },
      "canSubtract(uint16,uint16)": {
        "details": "Checks if subtracting two uint16 values will underflow or not"
      }
    },
    "title": "Utils for math operations with uint16",
    "version": 1
  },
  "userdoc": {
    "kind": "user",
    "methods": {},
    "notice": "Contains helper functions for some math operations",
    "version": 1
  },
  "storageLayout": {
    "storage": [],
    "types": null
  }
}