{
  "address": "0x9B7971F74Ed1Fcc4E6530741a8aCD1568e4C78d8",
  "abi": [
    {
      "anonymous": false,
      "inputs": [
        {
          "indexed": false,
          "internalType": "uint8",
          "name": "version",
          "type": "uint8"
        }
      ],
      "name": "Initialized",
      "type": "event"
    },
    {
      "anonymous": false,
      "inputs": [
        {
          "indexed": false,
          "internalType": "address",
          "name": "settlementsMarketAddress",
          "type": "address"
        }
      ],
      "name": "SettlementsMarketCreated",
      "type": "event"
    },
    {
      "anonymous": false,
      "inputs": [
        {
          "indexed": false,
          "internalType": "address",
          "name": "settlementAddress",
          "type": "address"
        },
        {
          "indexed": false,
          "internalType": "uint256",
          "name": "value",
          "type": "uint256"
        }
      ],
      "name": "ToxicityDecreased",
      "type": "event"
    },
    {
      "anonymous": false,
      "inputs": [
        {
          "indexed": false,
          "internalType": "address",
          "name": "settlementAddress",
          "type": "address"
        },
        {
          "indexed": false,
          "internalType": "uint256",
          "name": "value",
          "type": "uint256"
        }
      ],
      "name": "ToxicityIncreased",
      "type": "event"
    },
    {
      "anonymous": false,
      "inputs": [
        {
          "indexed": false,
          "internalType": "address",
          "name": "unitsPoolAddress",
          "type": "address"
        },
        {
          "indexed": false,
          "internalType": "string",
          "name": "unitType",
          "type": "string"
        }
      ],
      "name": "UnitsPoolCreated",
      "type": "event"
    },
    {
      "anonymous": false,
      "inputs": [
        {
          "indexed": false,
          "internalType": "address",
          "name": "workersPoolAddress",
          "type": "address"
        }
      ],
      "name": "WorkersPoolCreated",
      "type": "event"
    },
    {
      "anonymous": false,
      "inputs": [
        {
          "indexed": false,
          "internalType": "uint256",
          "name": "lastUpdateStateTime",
          "type": "uint256"
        },
        {
          "indexed": false,
          "internalType": "uint256",
          "name": "lastUpdateStateZoneTime",
          "type": "uint256"
        }
      ],
      "name": "ZoneTimeChanged",
      "type": "event"
    },
    {
      "inputs": [],
      "name": "assetGroup",
      "outputs": [
        {
          "internalType": "string",
          "name": "",
          "type": "string"
        }
      ],
      "stateMutability": "view",
      "type": "function"
    },
    {
      "inputs": [],
      "name": "assetType",
      "outputs": [
        {
          "internalType": "string",
          "name": "",
          "type": "string"
        }
      ],
      "stateMutability": "view",
      "type": "function"
    },
    {
      "inputs": [
        {
          "internalType": "address",
          "name": "settlementAddress",
          "type": "address"
        },
        {
          "internalType": "string[]",
          "name": "unitNames",
          "type": "string[]"
        },
        {
          "internalType": "uint256[]",
          "name": "unitsCount",
          "type": "uint256[]"
        },
        {
          "internalType": "uint256[]",
          "name": "maxWeaponsToSell",
          "type": "uint256[]"
        }
      ],
      "name": "buyUnitsBatch",
      "outputs": [],
      "stateMutability": "nonpayable",
      "type": "function"
    },
    {
      "inputs": [
        {
          "internalType": "uint32",
          "name": "cultistsPosition",
          "type": "uint32"
        }
      ],
      "name": "createCultists",
      "outputs": [],
      "stateMutability": "nonpayable",
      "type": "function"
    },
    {
      "inputs": [],
      "name": "cultistsSettlement",
      "outputs": [
        {
          "internalType": "contract ISettlement",
          "name": "",
          "type": "address"
        }
      ],
      "stateMutability": "view",
      "type": "function"
    },
    {
      "inputs": [],
      "name": "cultistsSummonTime",
      "outputs": [
        {
          "internalType": "uint256",
          "name": "",
          "type": "uint256"
        }
      ],
      "stateMutability": "view",
      "type": "function"
    },
    {
      "inputs": [
        {
          "internalType": "address",
          "name": "settlementAddress",
          "type": "address"
        },
        {
          "internalType": "string",
          "name": "resourceName",
          "type": "string"
        },
        {
          "internalType": "uint256",
          "name": "value",
          "type": "uint256"
        }
      ],
      "name": "decreaseToxicity",
      "outputs": [],
      "stateMutability": "nonpayable",
      "type": "function"
    },
    {
      "inputs": [],
      "name": "epoch",
      "outputs": [
        {
          "internalType": "contract IEpoch",
          "name": "",
          "type": "address"
        }
      ],
      "stateMutability": "view",
      "type": "function"
    },
    {
      "inputs": [],
      "name": "epochNumber",
      "outputs": [
        {
          "internalType": "uint256",
          "name": "",
          "type": "uint256"
        }
      ],
      "stateMutability": "view",
      "type": "function"
    },
    {
      "inputs": [],
      "name": "getPenaltyFromCultists",
      "outputs": [
        {
          "internalType": "uint256",
          "name": "",
          "type": "uint256"
        }
      ],
      "stateMutability": "view",
      "type": "function"
    },
    {
      "inputs": [
        {
          "internalType": "uint256",
          "name": "timestamp",
          "type": "uint256"
        }
      ],
      "name": "getZoneTime",
      "outputs": [
        {
          "internalType": "uint256",
          "name": "",
          "type": "uint256"
        }
      ],
      "stateMutability": "view",
      "type": "function"
    },
    {
      "inputs": [
        {
          "internalType": "address",
          "name": "cultistsArmyAddress",
          "type": "address"
        },
        {
          "internalType": "uint256",
          "name": "value",
          "type": "uint256"
        }
      ],
      "name": "handleCultistsDefeated",
      "outputs": [],
      "stateMutability": "nonpayable",
      "type": "function"
    },
    {
      "inputs": [
        {
          "internalType": "address",
          "name": "cultistsArmyAddress",
          "type": "address"
        },
        {
          "internalType": "uint256",
          "name": "value",
          "type": "uint256"
        }
      ],
      "name": "handleCultistsSummoned",
      "outputs": [],
      "stateMutability": "nonpayable",
      "type": "function"
    },
    {
      "inputs": [
        {
          "internalType": "address",
          "name": "settlementAddress",
          "type": "address"
        },
        {
          "internalType": "string",
          "name": "resourceName",
          "type": "string"
        },
        {
          "internalType": "uint256",
          "name": "value",
          "type": "uint256"
        }
      ],
      "name": "increaseToxicity",
      "outputs": [],
      "stateMutability": "nonpayable",
      "type": "function"
    },
    {
      "inputs": [
        {
          "internalType": "uint256",
          "name": "_zoneIndex",
          "type": "uint256"
        }
      ],
      "name": "init",
      "outputs": [],
      "stateMutability": "nonpayable",
      "type": "function"
    },
    {
      "inputs": [],
      "name": "lastUpdateStateTime",
      "outputs": [
        {
          "internalType": "uint256",
          "name": "",
          "type": "uint256"
        }
      ],
      "stateMutability": "view",
      "type": "function"
    },
    {
      "inputs": [],
      "name": "lastUpdateStateZoneTime",
      "outputs": [
        {
          "internalType": "uint256",
          "name": "",
          "type": "uint256"
        }
      ],
      "stateMutability": "view",
      "type": "function"
    },
    {
      "inputs": [],
      "name": "registry",
      "outputs": [
        {
          "internalType": "contract IRegistry",
          "name": "",
          "type": "address"
        }
      ],
      "stateMutability": "view",
      "type": "function"
    },
    {
      "inputs": [],
      "name": "settlementsMarket",
      "outputs": [
        {
          "internalType": "contract ISettlementsMarket",
          "name": "",
          "type": "address"
        }
      ],
      "stateMutability": "view",
      "type": "function"
    },
    {
      "inputs": [],
      "name": "summonCultists",
      "outputs": [],
      "stateMutability": "nonpayable",
      "type": "function"
    },
    {
      "inputs": [],
      "name": "toxicity",
      "outputs": [
        {
          "internalType": "int256",
          "name": "",
          "type": "int256"
        }
      ],
      "stateMutability": "view",
      "type": "function"
    },
    {
      "inputs": [
        {
          "internalType": "string",
          "name": "",
          "type": "string"
        }
      ],
      "name": "unitsPools",
      "outputs": [
        {
          "internalType": "contract IUnitsPool",
          "name": "",
          "type": "address"
        }
      ],
      "stateMutability": "view",
      "type": "function"
    },
    {
      "inputs": [],
      "name": "updateState",
      "outputs": [],
      "stateMutability": "nonpayable",
      "type": "function"
    },
    {
      "inputs": [],
      "name": "workersPool",
      "outputs": [
        {
          "internalType": "contract IWorkersPool",
          "name": "",
          "type": "address"
        }
      ],
      "stateMutability": "view",
      "type": "function"
    },
    {
      "inputs": [],
      "name": "world",
      "outputs": [
        {
          "internalType": "contract IWorld",
          "name": "",
          "type": "address"
        }
      ],
      "stateMutability": "view",
      "type": "function"
    },
    {
      "inputs": [],
      "name": "zoneIndex",
      "outputs": [
        {
          "internalType": "uint256",
          "name": "",
          "type": "uint256"
        }
      ],
      "stateMutability": "view",
      "type": "function"
    }
  ],
  "transactionHash": "0x45e64f8218879392fcb3193486860d344f1a8bc87b029ab925af3d7d0fa4efdd",
  "args": [],
  "numDeployments": 1,
  "solcInputHash": "ce67aa0965c465d95ce5795642cb6672",
  "bytecode": "0x608060405234801561001057600080fd5b50612ca9806100206000396000f3fe608060405234801561001057600080fd5b50600436106101ae5760003560e01c80637b103999116100ee578063bcbd6fb911610097578063d635bb8f11610071578063d635bb8f14610336578063edf99b3a14610349578063f4145a8314610352578063ffd7a09f1461036757600080fd5b8063bcbd6fb914610308578063c20c92501461031b578063d2bb2eae1461032e57600080fd5b80639abb3cae116100c85780639abb3cae146102da578063a8baf774146102e2578063b7b0422d146102f557600080fd5b80637b103999146102b15780638ee6bc11146102b9578063900cf0cf146102d257600080fd5b80634c9bb4801161015b57806360dbe4971161013557806360dbe4971461027057806364a97b61146102785780636e08f7211461028b5780636e1197b81461029e57600080fd5b80634c9bb480146102555780635579a7e31461025e5780635696bc4f1461026757600080fd5b806330b67baa1161018c57806330b67baa146101ec5780633fe3347a1461020c578063429e8d041461022157600080fd5b80631d8557d7146101b35780632712349a146101bd5780632d525afd146101d9575b600080fd5b6101bb61037a565b005b6101c660075481565b6040519081526020015b60405180910390f35b6101bb6101e736600461247d565b6106f4565b6101f4610897565b6040516001600160a01b0390911681526020016101d0565b6102146108cf565b6040516101d091906124f9565b6101f461022f3660046125d1565b80516020818301810180516001825292820191909301209152546001600160a01b031681565b6101c660085481565b6101c660045481565b6101c660055481565b6101bb610983565b6101bb61028636600461247d565b610ebc565b6101bb61029936600461260e565b611023565b6101bb6102ac366004612667565b61121e565b6101f461144c565b6000546101f4906201000090046001600160a01b031681565b6101f46114b7565b610214611520565b6101bb6102f0366004612717565b611551565b6101bb610303366004612824565b61167f565b6101bb61031636600461260e565b611d51565b6003546101f4906001600160a01b031681565b6101c6611f42565b6101c6610344366004612824565b6121c3565b6101c660065481565b600080516020612c54833981519152546101c6565b6002546101f4906001600160a01b031681565b600754420361038557565b6003546040805163f10e38af60e01b815290516000926001600160a01b03169163f10e38af9160048083019260209291908290030181865afa1580156103cf573d6000803e3d6000fd5b505050506040513d601f19601f820116820180604052508101906103f3919061283d565b90506000816001600160a01b03166344e445456040518163ffffffff1660e01b8152600401602060405180830381865afa158015610435573d6000803e3d6000fd5b505050506040513d601f19601f82011682018060405250810190610459919061283d565b90506001600160a01b038116158015906104d25750806001600160a01b031663b8bfe0616040518163ffffffff1660e01b8152600401602060405180830381865afa1580156104ac573d6000803e3d6000fd5b505050506040513d601f19601f820116820180604052508101906104d0919061285a565b155b801561053b5750806001600160a01b031663591e8db46040518163ffffffff1660e01b8152600401602060405180830381865afa158015610517573d6000803e3d6000fd5b505050506040513d601f19601f8201168201806040525081019061053b919061285a565b1561059757806001600160a01b031663241f349e6040518163ffffffff1660e01b8152600401600060405180830381600087803b15801561057b57600080fd5b505af115801561058f573d6000803e3d6000fd5b505050505050565b6001600160a01b0381161580159061060c5750806001600160a01b031663b8bfe0616040518163ffffffff1660e01b8152600401602060405180830381865afa1580156105e8573d6000803e3d6000fd5b505050506040513d601f19601f8201168201806040525081019061060c919061285a565b1561069e576000816001600160a01b0316634fba5adf6040518163ffffffff1660e01b8152600401608060405180830381865afa158015610651573d6000803e3d6000fd5b505050506040513d601f19601f820116820180604052508101906106759190612899565b935050505061068d8167ffffffffffffffff166121c3565b60085567ffffffffffffffff166007555b6106a7426121c3565b60088190554260078190556040517fbc829e7130be9541aabc3f6acd0a188d4eb3fb180e537029712059f236314559926106e8928252602082015260400190565b60405180910390a15050565b6000336001600160a01b03166357aea03e6040518163ffffffff1660e01b81526004016000604051808303816000875af1158015610736573d6000803e3d6000fd5b505050506040513d6000823e601f3d908101601f1916820160405261075e9190810190612932565b9050336107696114b7565b6001600160a01b031663fe01e782836040518263ffffffff1660e01b815260040161079491906124f9565b602060405180830381865afa1580156107b1573d6000803e3d6000fd5b505050506040513d601f19601f820116820180604052508101906107d5919061283d565b6001600160a01b0316146108215760405162461bcd60e51b815260206004820152600e60248201526d6f6e6c7945706f6368556e69747360901b60448201526064015b60405180910390fd5b4260045561082d6114b7565b60405163e52f082d60e01b81526001600160a01b03858116600483015260248201859052919091169063e52f082d906044015b600060405180830381600087803b15801561087a57600080fd5b505af115801561088e573d6000803e3d6000fd5b50505050505050565b60006108ca7f6c85b93e587873fbe6712f3b438d42c2945689b262f7bd34b8ea4e3f832a89e6546001600160a01b031690565b905090565b60607f6c85b93e587873fbe6712f3b438d42c2945689b262f7bd34b8ea4e3f832a89e6600401805461090090612967565b80601f016020809104026020016040519081016040528092919081815260200182805461092c90612967565b80156109795780601f1061094e57610100808354040283529160200191610979565b820191906000526020600020905b81548152906001019060200180831161095c57829003601f168201915b5050505050905090565b600061098d610897565b6001600160a01b0316637aa873346040518163ffffffff1660e01b8152600401602060405180830381865afa1580156109ca573d6000803e3d6000fd5b505050506040513d601f19601f820116820180604052508101906109ee91906129a1565b90508015806109fc57508042105b610a365760405162461bcd60e51b815260206004820152600b60248201526a19d85b594818db1bdcd95960aa1b6044820152606401610818565b6000610a4061144c565b6001600160a01b031663781e0efe6040518163ffffffff1660e01b8152600401602060405180830381865afa158015610a7d573d6000803e3d6000fd5b505050506040513d601f19601f82011682018060405250810190610aa191906129a1565b610aa961144c565b6001600160a01b031663a53a3bb76040518163ffffffff1660e01b8152600401602060405180830381865afa158015610ae6573d6000803e3d6000fd5b505050506040513d601f19601f82011682018060405250810190610b0a91906129a1565b610b1491906129d0565b905080600454610b2491906129f2565b4211610b615760405162461bcd60e51b815260206004820152600c60248201526b73756d6d6f6e2064656c617960a01b6044820152606401610818565b600060055413610b7957610b7560006122b4565b5050565b6000610b836114b7565b6001600160a01b031663fe01e782610b9961144c565b6001600160a01b031663b22f0c786040518163ffffffff1660e01b8152600401600060405180830381865afa158015610bd6573d6000803e3d6000fd5b505050506040513d6000823e601f3d908101601f19168201604052610bfe9190810190612932565b6040518263ffffffff1660e01b8152600401610c1a91906124f9565b602060405180830381865afa158015610c37573d6000803e3d6000fd5b505050506040513d601f19601f82011682018060405250810190610c5b919061283d565b6001600160a01b03166370a08231600360009054906101000a90046001600160a01b03166001600160a01b031663f10e38af6040518163ffffffff1660e01b8152600401602060405180830381865afa158015610cbc573d6000803e3d6000fd5b505050506040513d601f19601f82011682018060405250810190610ce0919061283d565b6040516001600160e01b031960e084901b1681526001600160a01b039091166004820152602401602060405180830381865afa158015610d24573d6000803e3d6000fd5b505050506040513d601f19601f82011682018060405250810190610d4891906129a1565b9050600081610d5561144c565b6001600160a01b031663f57333f76040518163ffffffff1660e01b8152600401602060405180830381865afa158015610d92573d6000803e3d6000fd5b505050506040513d601f19601f82011682018060405250810190610db691906129a1565b610dc09190612a05565b9050600a600554610dd191906129d0565b610ddc6002846129d0565b1115610df257610dec60006122b4565b50505050565b6000610ea973e4BE9A932f074c0dDA0d141E9cFFF9d25A50D48663eefe4284610e1c6002876129d0565b600a600554610e2b91906129d0565b610e359190612a05565b6040516001600160e01b031960e084901b1681526004810191909152670de0b6b3a76400006024820152604401602060405180830381865af4158015610e7f573d6000803e3d6000fd5b505050506040513d601f19601f82011682018060405250810190610ea391906129a1565b83612450565b9050610eb4816122b4565b505050505b50565b6000336001600160a01b03166357aea03e6040518163ffffffff1660e01b81526004016000604051808303816000875af1158015610efe573d6000803e3d6000fd5b505050506040513d6000823e601f3d908101601f19168201604052610f269190810190612932565b905033610f316114b7565b6001600160a01b031663fe01e782836040518263ffffffff1660e01b8152600401610f5c91906124f9565b602060405180830381865afa158015610f79573d6000803e3d6000fd5b505050506040513d601f19601f82011682018060405250810190610f9d919061283d565b6001600160a01b031614610fe45760405162461bcd60e51b815260206004820152600e60248201526d6f6e6c7945706f6368556e69747360901b6044820152606401610818565b610fec6114b7565b6040516301d15add60e01b81526001600160a01b0385811660048301526024820185905291909116906301d15add90604401610860565b61102b610897565b6001600160a01b0316336001600160a01b031614806110dc5750600061104f610897565b6001600160a01b031663ebbe8034611073600080516020612c548339815191525490565b6040516001600160e01b031960e084901b1681526004810191909152336024820152604401602060405180830381865afa1580156110b5573d6000803e3d6000fd5b505050506040513d601f19601f820116820180604052508101906110d991906129a1565b14155b6111285760405162461bcd60e51b815260206004820152601b60248201527f6f6e6c79576f726c64417373657446726f6d53616d6545706f636800000000006044820152606401610818565b6000670de0b6b3a76400008261113c61144c565b6001600160a01b031663253a1eac866040518263ffffffff1660e01b815260040161116791906124f9565b602060405180830381865afa158015611184573d6000803e3d6000fd5b505050506040513d601f19601f820116820180604052508101906111a891906129a1565b6111b29190612a18565b6111bc91906129d0565b905080600560008282546111d09190612a37565b9091555050604080516001600160a01b0386168152602081018390527fad9ba60a7613acd9d270802b970ec6a3725318cb4a81eca9759d301a5443b8ae91015b60405180910390a150505050565b611226610897565b6001600160a01b0316336001600160a01b031614806112d75750600061124a610897565b6001600160a01b031663ebbe803461126e600080516020612c548339815191525490565b6040516001600160e01b031960e084901b1681526004810191909152336024820152604401602060405180830381865afa1580156112b0573d6000803e3d6000fd5b505050506040513d601f19601f820116820180604052508101906112d491906129a1565b14155b6113235760405162461bcd60e51b815260206004820152601b60248201527f6f6e6c79576f726c64417373657446726f6d53616d6545706f636800000000006044820152606401610818565b6003546001600160a01b03161561137c5760405162461bcd60e51b815260206004820152601860248201527f43756c746973747320616c7265616479206372656174656400000000000000006044820152606401610818565b60006113866114b7565b60405163aba607d560e01b815260006004820181905263ffffffff8516602483015260806044830152600860848301526743554c544953545360c01b60a483015260648201526001600160a01b03919091169063aba607d59060c4016020604051808303816000875af1158015611401573d6000803e3d6000fd5b505050506040513d601f19601f82011682018060405250810190611425919061283d565b600380546001600160a01b0319166001600160a01b0383161790559050610b7560006122b4565b6000611456610897565b6001600160a01b0316637b1039996040518163ffffffff1660e01b8152600401602060405180830381865afa158015611493573d6000803e3d6000fd5b505050506040513d601f19601f820116820180604052508101906108ca919061283d565b60006114c1610897565b6001600160a01b031663c6b61e4c6114e5600080516020612c548339815191525490565b6040518263ffffffff1660e01b815260040161150391815260200190565b602060405180830381865afa158015611493573d6000803e3d6000fd5b60607f6c85b93e587873fbe6712f3b438d42c2945689b262f7bd34b8ea4e3f832a89e6600301805461090090612967565b60005b8351811015610eb457600184828151811061157157611571612a5e565b60200260200101516040516115869190612a74565b908152602001604051809103902060009054906101000a90046001600160a01b03166001600160a01b0316636d167f5a33878685815181106115ca576115ca612a5e565b60200260200101518686815181106115e4576115e4612a5e565b60209081029190910101516040516001600160e01b031960e087901b1681526001600160a01b039485166004820152939092166024840152604483015260648201526084016020604051808303816000875af1158015611648573d6000803e3d6000fd5b505050506040513d601f19601f8201168201806040525081019061166c91906129a1565b508061167781612a90565b915050611554565b600054610100900460ff161580801561169f5750600054600160ff909116105b806116b95750303b1580156116b9575060005460ff166001145b61171c5760405162461bcd60e51b815260206004820152602e60248201527f496e697469616c697a61626c653a20636f6e747261637420697320616c72656160448201526d191e481a5b9a5d1a585b1a5e995960921b6064820152608401610818565b6000805460ff19166001179055801561173f576000805461ff0019166101001790555b6006829055426007819055611753906121c3565b600855600061176061144c565b604080518082018252600b81526a1ddbdc9ad95c9cd41bdbdb60aa1b602090910152516350b345b560e01b81527f6dd10f5694032abddf028b131aa9186f0ec727b5d419b1e0623133ed6f12292860048201526001600160a01b0391909116906350b345b590602401602060405180830381865afa1580156117e6573d6000803e3d6000fd5b505050506040513d601f19601f8201168201806040525081019061180a919061283d565b90506000816001600160a01b0316633ddd5a82611825610897565b600080516020612c5483398151915254306040518463ffffffff1660e01b815260040161185493929190612aa9565b6020604051808303816000875af1158015611873573d6000803e3d6000fd5b505050506040513d601f19601f82011682018060405250810190611897919061283d565b6000805475ffffffffffffffffffffffffffffffffffffffff00001916620100006001600160a01b038416908102919091179091556040519081529091507fe7ddd620fd16596faeb8a1d8afc92f00debed651f475b643ce469a07c0c247ec9060200160405180910390a1600061190c61144c565b60408051808201825260118152701cd95d1d1b195b595b9d1cd3585c9ad95d607a1b602090910152516350b345b560e01b81527f91517c2ebe3f5c03da0b048b13e3f173bc97ca7f2da46cc37c1cae7177d7646c60048201526001600160a01b0391909116906350b345b590602401602060405180830381865afa158015611998573d6000803e3d6000fd5b505050506040513d601f19601f820116820180604052508101906119bc919061283d565b90506000816001600160a01b0316633ddd5a826119d7610897565b600080516020612c5483398151915254306040518463ffffffff1660e01b8152600401611a0693929190612aa9565b6020604051808303816000875af1158015611a25573d6000803e3d6000fd5b505050506040513d601f19601f82011682018060405250810190611a49919061283d565b600280546001600160a01b0319166001600160a01b0383169081179091556040519081529091507f02d56eb340d542c3f5a451aead2c3d806238d3e9d81723b46e944bebb3a387769060200160405180910390a16000611aa761144c565b60408051808201825260098152681d5b9a5d1cd41bdbdb60ba1b602090910152516350b345b560e01b81527f14ee5cfb3dc8725e4e101c5cf564476f0e48040af6629fec85a678334699c99760048201526001600160a01b0391909116906350b345b590602401602060405180830381865afa158015611b2b573d6000803e3d6000fd5b505050506040513d601f19601f82011682018060405250810190611b4f919061283d565b90506000611b5b61144c565b6001600160a01b031663027aa9f56040518163ffffffff1660e01b8152600401600060405180830381865afa158015611b98573d6000803e3d6000fd5b505050506040513d6000823e601f3d908101601f19168201604052611bc09190810190612af7565b905060005b8151811015611d08576000828281518110611be257611be2612a5e565b602002602001015190506000846001600160a01b031663dd31ce51611c05610897565b600080516020612c548339815191525430866040518563ffffffff1660e01b8152600401611c369493929190612ba8565b6020604051808303816000875af1158015611c55573d6000803e3d6000fd5b505050506040513d601f19601f82011682018060405250810190611c79919061283d565b905080600183604051611c8c9190612a74565b90815260405190819003602001812080546001600160a01b03939093166001600160a01b0319909316929092179091557f48db894a15a344d3502dc85661aa64482c4c82853e257bbe51af93a5be6e354c90611ceb9083908590612c09565b60405180910390a150508080611d0090612a90565b915050611bc5565b505050505050508015610b75576000805461ff0019169055604051600181527f7f26b83ff96e1f2b6a682f133852f6798a09c465da95921460cefb3847402498906020016106e8565b611d59610897565b6001600160a01b0316336001600160a01b03161480611e0a57506000611d7d610897565b6001600160a01b031663ebbe8034611da1600080516020612c548339815191525490565b6040516001600160e01b031960e084901b1681526004810191909152336024820152604401602060405180830381865afa158015611de3573d6000803e3d6000fd5b505050506040513d601f19601f82011682018060405250810190611e0791906129a1565b14155b611e565760405162461bcd60e51b815260206004820152601b60248201527f6f6e6c79576f726c64417373657446726f6d53616d6545706f636800000000006044820152606401610818565b6000670de0b6b3a764000082611e6a61144c565b6001600160a01b031663253a1eac866040518263ffffffff1660e01b8152600401611e9591906124f9565b602060405180830381865afa158015611eb2573d6000803e3d6000fd5b505050506040513d601f19601f82011682018060405250810190611ed691906129a1565b611ee09190612a18565b611eea91906129d0565b90508060056000828254611efe9190612c2b565b9091555050604080516001600160a01b0386168152602081018390527fbc51a653b87390fc7577c635058b1f3b53e7e9ffd2a11a00c271070ab684a7d89101611210565b600080611f4d6114b7565b6001600160a01b031663fe01e782611f6361144c565b6001600160a01b031663b22f0c786040518163ffffffff1660e01b8152600401600060405180830381865afa158015611fa0573d6000803e3d6000fd5b505050506040513d6000823e601f3d908101601f19168201604052611fc89190810190612932565b6040518263ffffffff1660e01b8152600401611fe491906124f9565b602060405180830381865afa158015612001573d6000803e3d6000fd5b505050506040513d601f19601f82011682018060405250810190612025919061283d565b6001600160a01b03166370a08231600360009054906101000a90046001600160a01b03166001600160a01b031663f10e38af6040518163ffffffff1660e01b8152600401602060405180830381865afa158015612086573d6000803e3d6000fd5b505050506040513d601f19601f820116820180604052508101906120aa919061283d565b6040516001600160e01b031960e084901b1681526001600160a01b039091166004820152602401602060405180830381865afa1580156120ee573d6000803e3d6000fd5b505050506040513d601f19601f8201168201806040525081019061211291906129a1565b9050600061211e61144c565b6001600160a01b031663f57333f76040518163ffffffff1660e01b8152600401602060405180830381865afa15801561215b573d6000803e3d6000fd5b505050506040513d601f19601f8201168201806040525081019061217f91906129a1565b61219183670de0b6b3a7640000612a18565b61219b91906129d0565b9050670de0b6b3a76400008111156121bd57670de0b6b3a76400009250505090565b92915050565b6000816000036121d1574291505b60006121db610897565b6001600160a01b0316637aa873346040518163ffffffff1660e01b8152600401602060405180830381865afa158015612218573d6000803e3d6000fd5b505050506040513d601f19601f8201168201806040525081019061223c91906129a1565b905080156122515761224e8382612450565b92505b6007548311612264575050600854919050565b6000600754846122749190612a05565b90506000612280611f42565b905061229481670de0b6b3a7640000612a05565b61229e9083612a18565b6008546122ab91906129f2565b95945050505050565b6003546040805163f10e38af60e01b815290516000926001600160a01b03169163f10e38af9160048083019260209291908290030181865afa1580156122fe573d6000803e3d6000fd5b505050506040513d601f19601f82011682018060405250810190612322919061283d565b905061232c6114b7565b6001600160a01b031663fe01e78261234261144c565b6001600160a01b031663b22f0c786040518163ffffffff1660e01b8152600401600060405180830381865afa15801561237f573d6000803e3d6000fd5b505050506040513d6000823e601f3d908101601f191682016040526123a79190810190612932565b6040518263ffffffff1660e01b81526004016123c391906124f9565b602060405180830381865afa1580156123e0573d6000803e3d6000fd5b505050506040513d601f19601f82011682018060405250810190612404919061283d565b6040516340c10f1960e01b81526001600160a01b0383811660048301526024820185905291909116906340c10f1990604401600060405180830381600087803b15801561057b57600080fd5b600081831061245f5781612461565b825b9392505050565b6001600160a01b0381168114610eb957600080fd5b6000806040838503121561249057600080fd5b823561249b81612468565b946020939093013593505050565b60005b838110156124c45781810151838201526020016124ac565b50506000910152565b600081518084526124e58160208601602086016124a9565b601f01601f19169290920160200192915050565b60208152600061246160208301846124cd565b634e487b7160e01b600052604160045260246000fd5b604051601f8201601f1916810167ffffffffffffffff8111828210171561254b5761254b61250c565b604052919050565b600067ffffffffffffffff82111561256d5761256d61250c565b50601f01601f191660200190565b600082601f83011261258c57600080fd5b813561259f61259a82612553565b612522565b8181528460208386010111156125b457600080fd5b816020850160208301376000918101602001919091529392505050565b6000602082840312156125e357600080fd5b813567ffffffffffffffff8111156125fa57600080fd5b6126068482850161257b565b949350505050565b60008060006060848603121561262357600080fd5b833561262e81612468565b9250602084013567ffffffffffffffff81111561264a57600080fd5b6126568682870161257b565b925050604084013590509250925092565b60006020828403121561267957600080fd5b813563ffffffff8116811461246157600080fd5b600067ffffffffffffffff8211156126a7576126a761250c565b5060051b60200190565b600082601f8301126126c257600080fd5b813560206126d261259a8361268d565b82815260059290921b840181019181810190868411156126f157600080fd5b8286015b8481101561270c57803583529183019183016126f5565b509695505050505050565b6000806000806080858703121561272d57600080fd5b843561273881612468565b935060208581013567ffffffffffffffff8082111561275657600080fd5b818801915088601f83011261276a57600080fd5b813561277861259a8261268d565b81815260059190911b8301840190848101908b83111561279757600080fd5b8585015b838110156127cf578035858111156127b35760008081fd5b6127c18e89838a010161257b565b84525091860191860161279b565b509750505060408801359250808311156127e857600080fd5b6127f489848a016126b1565b9450606088013592508083111561280a57600080fd5b5050612818878288016126b1565b91505092959194509250565b60006020828403121561283657600080fd5b5035919050565b60006020828403121561284f57600080fd5b815161246181612468565b60006020828403121561286c57600080fd5b8151801515811461246157600080fd5b805167ffffffffffffffff8116811461289457600080fd5b919050565b600080600080608085870312156128af57600080fd5b6128b88561287c565b93506128c66020860161287c565b92506128d46040860161287c565b91506128e26060860161287c565b905092959194509250565b600082601f8301126128fe57600080fd5b815161290c61259a82612553565b81815284602083860101111561292157600080fd5b6126068260208301602087016124a9565b60006020828403121561294457600080fd5b815167ffffffffffffffff81111561295b57600080fd5b612606848285016128ed565b600181811c9082168061297b57607f821691505b60208210810361299b57634e487b7160e01b600052602260045260246000fd5b50919050565b6000602082840312156129b357600080fd5b5051919050565b634e487b7160e01b600052601160045260246000fd5b6000826129ed57634e487b7160e01b600052601260045260246000fd5b500490565b808201808211156121bd576121bd6129ba565b818103818111156121bd576121bd6129ba565b6000816000190483118215151615612a3257612a326129ba565b500290565b8181036000831280158383131683831282161715612a5757612a576129ba565b5092915050565b634e487b7160e01b600052603260045260246000fd5b60008251612a868184602087016124a9565b9190910192915050565b600060018201612aa257612aa26129ba565b5060010190565b60006001600160a01b03808616835284602084015260806040840152612ae4608084016005815264424153494360d81b602082015260400190565b9150808416606084015250949350505050565b60006020808385031215612b0a57600080fd5b825167ffffffffffffffff80821115612b2257600080fd5b818501915085601f830112612b3657600080fd5b8151612b4461259a8261268d565b81815260059190911b83018401908481019088831115612b6357600080fd5b8585015b83811015612b9b57805185811115612b7f5760008081fd5b612b8d8b89838a01016128ed565b845250918601918601612b67565b5098975050505050505050565b60006001600160a01b03808716835285602084015260a06040840152612be360a084016005815264424153494360d81b602082015260400190565b81861660608501528381036080850152612bfd81866124cd565b98975050505050505050565b6001600160a01b038316815260406020820152600061260660408301846124cd565b8082018281126000831280158216821582161715612c4b57612c4b6129ba565b50509291505056fe6c85b93e587873fbe6712f3b438d42c2945689b262f7bd34b8ea4e3f832a89e7a26469706673582212209c55104270017d75d95de8da1d240f92e92d7cdcefef56ac0310e8aa469c600164736f6c63430008100033",
  "deployedBytecode": "0x608060405234801561001057600080fd5b50600436106101ae5760003560e01c80637b103999116100ee578063bcbd6fb911610097578063d635bb8f11610071578063d635bb8f14610336578063edf99b3a14610349578063f4145a8314610352578063ffd7a09f1461036757600080fd5b8063bcbd6fb914610308578063c20c92501461031b578063d2bb2eae1461032e57600080fd5b80639abb3cae116100c85780639abb3cae146102da578063a8baf774146102e2578063b7b0422d146102f557600080fd5b80637b103999146102b15780638ee6bc11146102b9578063900cf0cf146102d257600080fd5b80634c9bb4801161015b57806360dbe4971161013557806360dbe4971461027057806364a97b61146102785780636e08f7211461028b5780636e1197b81461029e57600080fd5b80634c9bb480146102555780635579a7e31461025e5780635696bc4f1461026757600080fd5b806330b67baa1161018c57806330b67baa146101ec5780633fe3347a1461020c578063429e8d041461022157600080fd5b80631d8557d7146101b35780632712349a146101bd5780632d525afd146101d9575b600080fd5b6101bb61037a565b005b6101c660075481565b6040519081526020015b60405180910390f35b6101bb6101e736600461247d565b6106f4565b6101f4610897565b6040516001600160a01b0390911681526020016101d0565b6102146108cf565b6040516101d091906124f9565b6101f461022f3660046125d1565b80516020818301810180516001825292820191909301209152546001600160a01b031681565b6101c660085481565b6101c660045481565b6101c660055481565b6101bb610983565b6101bb61028636600461247d565b610ebc565b6101bb61029936600461260e565b611023565b6101bb6102ac366004612667565b61121e565b6101f461144c565b6000546101f4906201000090046001600160a01b031681565b6101f46114b7565b610214611520565b6101bb6102f0366004612717565b611551565b6101bb610303366004612824565b61167f565b6101bb61031636600461260e565b611d51565b6003546101f4906001600160a01b031681565b6101c6611f42565b6101c6610344366004612824565b6121c3565b6101c660065481565b600080516020612c54833981519152546101c6565b6002546101f4906001600160a01b031681565b600754420361038557565b6003546040805163f10e38af60e01b815290516000926001600160a01b03169163f10e38af9160048083019260209291908290030181865afa1580156103cf573d6000803e3d6000fd5b505050506040513d601f19601f820116820180604052508101906103f3919061283d565b90506000816001600160a01b03166344e445456040518163ffffffff1660e01b8152600401602060405180830381865afa158015610435573d6000803e3d6000fd5b505050506040513d601f19601f82011682018060405250810190610459919061283d565b90506001600160a01b038116158015906104d25750806001600160a01b031663b8bfe0616040518163ffffffff1660e01b8152600401602060405180830381865afa1580156104ac573d6000803e3d6000fd5b505050506040513d601f19601f820116820180604052508101906104d0919061285a565b155b801561053b5750806001600160a01b031663591e8db46040518163ffffffff1660e01b8152600401602060405180830381865afa158015610517573d6000803e3d6000fd5b505050506040513d601f19601f8201168201806040525081019061053b919061285a565b1561059757806001600160a01b031663241f349e6040518163ffffffff1660e01b8152600401600060405180830381600087803b15801561057b57600080fd5b505af115801561058f573d6000803e3d6000fd5b505050505050565b6001600160a01b0381161580159061060c5750806001600160a01b031663b8bfe0616040518163ffffffff1660e01b8152600401602060405180830381865afa1580156105e8573d6000803e3d6000fd5b505050506040513d601f19601f8201168201806040525081019061060c919061285a565b1561069e576000816001600160a01b0316634fba5adf6040518163ffffffff1660e01b8152600401608060405180830381865afa158015610651573d6000803e3d6000fd5b505050506040513d601f19601f820116820180604052508101906106759190612899565b935050505061068d8167ffffffffffffffff166121c3565b60085567ffffffffffffffff166007555b6106a7426121c3565b60088190554260078190556040517fbc829e7130be9541aabc3f6acd0a188d4eb3fb180e537029712059f236314559926106e8928252602082015260400190565b60405180910390a15050565b6000336001600160a01b03166357aea03e6040518163ffffffff1660e01b81526004016000604051808303816000875af1158015610736573d6000803e3d6000fd5b505050506040513d6000823e601f3d908101601f1916820160405261075e9190810190612932565b9050336107696114b7565b6001600160a01b031663fe01e782836040518263ffffffff1660e01b815260040161079491906124f9565b602060405180830381865afa1580156107b1573d6000803e3d6000fd5b505050506040513d601f19601f820116820180604052508101906107d5919061283d565b6001600160a01b0316146108215760405162461bcd60e51b815260206004820152600e60248201526d6f6e6c7945706f6368556e69747360901b60448201526064015b60405180910390fd5b4260045561082d6114b7565b60405163e52f082d60e01b81526001600160a01b03858116600483015260248201859052919091169063e52f082d906044015b600060405180830381600087803b15801561087a57600080fd5b505af115801561088e573d6000803e3d6000fd5b50505050505050565b60006108ca7f6c85b93e587873fbe6712f3b438d42c2945689b262f7bd34b8ea4e3f832a89e6546001600160a01b031690565b905090565b60607f6c85b93e587873fbe6712f3b438d42c2945689b262f7bd34b8ea4e3f832a89e6600401805461090090612967565b80601f016020809104026020016040519081016040528092919081815260200182805461092c90612967565b80156109795780601f1061094e57610100808354040283529160200191610979565b820191906000526020600020905b81548152906001019060200180831161095c57829003601f168201915b5050505050905090565b600061098d610897565b6001600160a01b0316637aa873346040518163ffffffff1660e01b8152600401602060405180830381865afa1580156109ca573d6000803e3d6000fd5b505050506040513d601f19601f820116820180604052508101906109ee91906129a1565b90508015806109fc57508042105b610a365760405162461bcd60e51b815260206004820152600b60248201526a19d85b594818db1bdcd95960aa1b6044820152606401610818565b6000610a4061144c565b6001600160a01b031663781e0efe6040518163ffffffff1660e01b8152600401602060405180830381865afa158015610a7d573d6000803e3d6000fd5b505050506040513d601f19601f82011682018060405250810190610aa191906129a1565b610aa961144c565b6001600160a01b031663a53a3bb76040518163ffffffff1660e01b8152600401602060405180830381865afa158015610ae6573d6000803e3d6000fd5b505050506040513d601f19601f82011682018060405250810190610b0a91906129a1565b610b1491906129d0565b905080600454610b2491906129f2565b4211610b615760405162461bcd60e51b815260206004820152600c60248201526b73756d6d6f6e2064656c617960a01b6044820152606401610818565b600060055413610b7957610b7560006122b4565b5050565b6000610b836114b7565b6001600160a01b031663fe01e782610b9961144c565b6001600160a01b031663b22f0c786040518163ffffffff1660e01b8152600401600060405180830381865afa158015610bd6573d6000803e3d6000fd5b505050506040513d6000823e601f3d908101601f19168201604052610bfe9190810190612932565b6040518263ffffffff1660e01b8152600401610c1a91906124f9565b602060405180830381865afa158015610c37573d6000803e3d6000fd5b505050506040513d601f19601f82011682018060405250810190610c5b919061283d565b6001600160a01b03166370a08231600360009054906101000a90046001600160a01b03166001600160a01b031663f10e38af6040518163ffffffff1660e01b8152600401602060405180830381865afa158015610cbc573d6000803e3d6000fd5b505050506040513d601f19601f82011682018060405250810190610ce0919061283d565b6040516001600160e01b031960e084901b1681526001600160a01b039091166004820152602401602060405180830381865afa158015610d24573d6000803e3d6000fd5b505050506040513d601f19601f82011682018060405250810190610d4891906129a1565b9050600081610d5561144c565b6001600160a01b031663f57333f76040518163ffffffff1660e01b8152600401602060405180830381865afa158015610d92573d6000803e3d6000fd5b505050506040513d601f19601f82011682018060405250810190610db691906129a1565b610dc09190612a05565b9050600a600554610dd191906129d0565b610ddc6002846129d0565b1115610df257610dec60006122b4565b50505050565b6000610ea973__$b96f6cc754b665f2373f69c32648f7914e$__63eefe4284610e1c6002876129d0565b600a600554610e2b91906129d0565b610e359190612a05565b6040516001600160e01b031960e084901b1681526004810191909152670de0b6b3a76400006024820152604401602060405180830381865af4158015610e7f573d6000803e3d6000fd5b505050506040513d601f19601f82011682018060405250810190610ea391906129a1565b83612450565b9050610eb4816122b4565b505050505b50565b6000336001600160a01b03166357aea03e6040518163ffffffff1660e01b81526004016000604051808303816000875af1158015610efe573d6000803e3d6000fd5b505050506040513d6000823e601f3d908101601f19168201604052610f269190810190612932565b905033610f316114b7565b6001600160a01b031663fe01e782836040518263ffffffff1660e01b8152600401610f5c91906124f9565b602060405180830381865afa158015610f79573d6000803e3d6000fd5b505050506040513d601f19601f82011682018060405250810190610f9d919061283d565b6001600160a01b031614610fe45760405162461bcd60e51b815260206004820152600e60248201526d6f6e6c7945706f6368556e69747360901b6044820152606401610818565b610fec6114b7565b6040516301d15add60e01b81526001600160a01b0385811660048301526024820185905291909116906301d15add90604401610860565b61102b610897565b6001600160a01b0316336001600160a01b031614806110dc5750600061104f610897565b6001600160a01b031663ebbe8034611073600080516020612c548339815191525490565b6040516001600160e01b031960e084901b1681526004810191909152336024820152604401602060405180830381865afa1580156110b5573d6000803e3d6000fd5b505050506040513d601f19601f820116820180604052508101906110d991906129a1565b14155b6111285760405162461bcd60e51b815260206004820152601b60248201527f6f6e6c79576f726c64417373657446726f6d53616d6545706f636800000000006044820152606401610818565b6000670de0b6b3a76400008261113c61144c565b6001600160a01b031663253a1eac866040518263ffffffff1660e01b815260040161116791906124f9565b602060405180830381865afa158015611184573d6000803e3d6000fd5b505050506040513d601f19601f820116820180604052508101906111a891906129a1565b6111b29190612a18565b6111bc91906129d0565b905080600560008282546111d09190612a37565b9091555050604080516001600160a01b0386168152602081018390527fad9ba60a7613acd9d270802b970ec6a3725318cb4a81eca9759d301a5443b8ae91015b60405180910390a150505050565b611226610897565b6001600160a01b0316336001600160a01b031614806112d75750600061124a610897565b6001600160a01b031663ebbe803461126e600080516020612c548339815191525490565b6040516001600160e01b031960e084901b1681526004810191909152336024820152604401602060405180830381865afa1580156112b0573d6000803e3d6000fd5b505050506040513d601f19601f820116820180604052508101906112d491906129a1565b14155b6113235760405162461bcd60e51b815260206004820152601b60248201527f6f6e6c79576f726c64417373657446726f6d53616d6545706f636800000000006044820152606401610818565b6003546001600160a01b03161561137c5760405162461bcd60e51b815260206004820152601860248201527f43756c746973747320616c7265616479206372656174656400000000000000006044820152606401610818565b60006113866114b7565b60405163aba607d560e01b815260006004820181905263ffffffff8516602483015260806044830152600860848301526743554c544953545360c01b60a483015260648201526001600160a01b03919091169063aba607d59060c4016020604051808303816000875af1158015611401573d6000803e3d6000fd5b505050506040513d601f19601f82011682018060405250810190611425919061283d565b600380546001600160a01b0319166001600160a01b0383161790559050610b7560006122b4565b6000611456610897565b6001600160a01b0316637b1039996040518163ffffffff1660e01b8152600401602060405180830381865afa158015611493573d6000803e3d6000fd5b505050506040513d601f19601f820116820180604052508101906108ca919061283d565b60006114c1610897565b6001600160a01b031663c6b61e4c6114e5600080516020612c548339815191525490565b6040518263ffffffff1660e01b815260040161150391815260200190565b602060405180830381865afa158015611493573d6000803e3d6000fd5b60607f6c85b93e587873fbe6712f3b438d42c2945689b262f7bd34b8ea4e3f832a89e6600301805461090090612967565b60005b8351811015610eb457600184828151811061157157611571612a5e565b60200260200101516040516115869190612a74565b908152602001604051809103902060009054906101000a90046001600160a01b03166001600160a01b0316636d167f5a33878685815181106115ca576115ca612a5e565b60200260200101518686815181106115e4576115e4612a5e565b60209081029190910101516040516001600160e01b031960e087901b1681526001600160a01b039485166004820152939092166024840152604483015260648201526084016020604051808303816000875af1158015611648573d6000803e3d6000fd5b505050506040513d601f19601f8201168201806040525081019061166c91906129a1565b508061167781612a90565b915050611554565b600054610100900460ff161580801561169f5750600054600160ff909116105b806116b95750303b1580156116b9575060005460ff166001145b61171c5760405162461bcd60e51b815260206004820152602e60248201527f496e697469616c697a61626c653a20636f6e747261637420697320616c72656160448201526d191e481a5b9a5d1a585b1a5e995960921b6064820152608401610818565b6000805460ff19166001179055801561173f576000805461ff0019166101001790555b6006829055426007819055611753906121c3565b600855600061176061144c565b604080518082018252600b81526a1ddbdc9ad95c9cd41bdbdb60aa1b602090910152516350b345b560e01b81527f6dd10f5694032abddf028b131aa9186f0ec727b5d419b1e0623133ed6f12292860048201526001600160a01b0391909116906350b345b590602401602060405180830381865afa1580156117e6573d6000803e3d6000fd5b505050506040513d601f19601f8201168201806040525081019061180a919061283d565b90506000816001600160a01b0316633ddd5a82611825610897565b600080516020612c5483398151915254306040518463ffffffff1660e01b815260040161185493929190612aa9565b6020604051808303816000875af1158015611873573d6000803e3d6000fd5b505050506040513d601f19601f82011682018060405250810190611897919061283d565b6000805475ffffffffffffffffffffffffffffffffffffffff00001916620100006001600160a01b038416908102919091179091556040519081529091507fe7ddd620fd16596faeb8a1d8afc92f00debed651f475b643ce469a07c0c247ec9060200160405180910390a1600061190c61144c565b60408051808201825260118152701cd95d1d1b195b595b9d1cd3585c9ad95d607a1b602090910152516350b345b560e01b81527f91517c2ebe3f5c03da0b048b13e3f173bc97ca7f2da46cc37c1cae7177d7646c60048201526001600160a01b0391909116906350b345b590602401602060405180830381865afa158015611998573d6000803e3d6000fd5b505050506040513d601f19601f820116820180604052508101906119bc919061283d565b90506000816001600160a01b0316633ddd5a826119d7610897565b600080516020612c5483398151915254306040518463ffffffff1660e01b8152600401611a0693929190612aa9565b6020604051808303816000875af1158015611a25573d6000803e3d6000fd5b505050506040513d601f19601f82011682018060405250810190611a49919061283d565b600280546001600160a01b0319166001600160a01b0383169081179091556040519081529091507f02d56eb340d542c3f5a451aead2c3d806238d3e9d81723b46e944bebb3a387769060200160405180910390a16000611aa761144c565b60408051808201825260098152681d5b9a5d1cd41bdbdb60ba1b602090910152516350b345b560e01b81527f14ee5cfb3dc8725e4e101c5cf564476f0e48040af6629fec85a678334699c99760048201526001600160a01b0391909116906350b345b590602401602060405180830381865afa158015611b2b573d6000803e3d6000fd5b505050506040513d601f19601f82011682018060405250810190611b4f919061283d565b90506000611b5b61144c565b6001600160a01b031663027aa9f56040518163ffffffff1660e01b8152600401600060405180830381865afa158015611b98573d6000803e3d6000fd5b505050506040513d6000823e601f3d908101601f19168201604052611bc09190810190612af7565b905060005b8151811015611d08576000828281518110611be257611be2612a5e565b602002602001015190506000846001600160a01b031663dd31ce51611c05610897565b600080516020612c548339815191525430866040518563ffffffff1660e01b8152600401611c369493929190612ba8565b6020604051808303816000875af1158015611c55573d6000803e3d6000fd5b505050506040513d601f19601f82011682018060405250810190611c79919061283d565b905080600183604051611c8c9190612a74565b90815260405190819003602001812080546001600160a01b03939093166001600160a01b0319909316929092179091557f48db894a15a344d3502dc85661aa64482c4c82853e257bbe51af93a5be6e354c90611ceb9083908590612c09565b60405180910390a150508080611d0090612a90565b915050611bc5565b505050505050508015610b75576000805461ff0019169055604051600181527f7f26b83ff96e1f2b6a682f133852f6798a09c465da95921460cefb3847402498906020016106e8565b611d59610897565b6001600160a01b0316336001600160a01b03161480611e0a57506000611d7d610897565b6001600160a01b031663ebbe8034611da1600080516020612c548339815191525490565b6040516001600160e01b031960e084901b1681526004810191909152336024820152604401602060405180830381865afa158015611de3573d6000803e3d6000fd5b505050506040513d601f19601f82011682018060405250810190611e0791906129a1565b14155b611e565760405162461bcd60e51b815260206004820152601b60248201527f6f6e6c79576f726c64417373657446726f6d53616d6545706f636800000000006044820152606401610818565b6000670de0b6b3a764000082611e6a61144c565b6001600160a01b031663253a1eac866040518263ffffffff1660e01b8152600401611e9591906124f9565b602060405180830381865afa158015611eb2573d6000803e3d6000fd5b505050506040513d601f19601f82011682018060405250810190611ed691906129a1565b611ee09190612a18565b611eea91906129d0565b90508060056000828254611efe9190612c2b565b9091555050604080516001600160a01b0386168152602081018390527fbc51a653b87390fc7577c635058b1f3b53e7e9ffd2a11a00c271070ab684a7d89101611210565b600080611f4d6114b7565b6001600160a01b031663fe01e782611f6361144c565b6001600160a01b031663b22f0c786040518163ffffffff1660e01b8152600401600060405180830381865afa158015611fa0573d6000803e3d6000fd5b505050506040513d6000823e601f3d908101601f19168201604052611fc89190810190612932565b6040518263ffffffff1660e01b8152600401611fe491906124f9565b602060405180830381865afa158015612001573d6000803e3d6000fd5b505050506040513d601f19601f82011682018060405250810190612025919061283d565b6001600160a01b03166370a08231600360009054906101000a90046001600160a01b03166001600160a01b031663f10e38af6040518163ffffffff1660e01b8152600401602060405180830381865afa158015612086573d6000803e3d6000fd5b505050506040513d601f19601f820116820180604052508101906120aa919061283d565b6040516001600160e01b031960e084901b1681526001600160a01b039091166004820152602401602060405180830381865afa1580156120ee573d6000803e3d6000fd5b505050506040513d601f19601f8201168201806040525081019061211291906129a1565b9050600061211e61144c565b6001600160a01b031663f57333f76040518163ffffffff1660e01b8152600401602060405180830381865afa15801561215b573d6000803e3d6000fd5b505050506040513d601f19601f8201168201806040525081019061217f91906129a1565b61219183670de0b6b3a7640000612a18565b61219b91906129d0565b9050670de0b6b3a76400008111156121bd57670de0b6b3a76400009250505090565b92915050565b6000816000036121d1574291505b60006121db610897565b6001600160a01b0316637aa873346040518163ffffffff1660e01b8152600401602060405180830381865afa158015612218573d6000803e3d6000fd5b505050506040513d601f19601f8201168201806040525081019061223c91906129a1565b905080156122515761224e8382612450565b92505b6007548311612264575050600854919050565b6000600754846122749190612a05565b90506000612280611f42565b905061229481670de0b6b3a7640000612a05565b61229e9083612a18565b6008546122ab91906129f2565b95945050505050565b6003546040805163f10e38af60e01b815290516000926001600160a01b03169163f10e38af9160048083019260209291908290030181865afa1580156122fe573d6000803e3d6000fd5b505050506040513d601f19601f82011682018060405250810190612322919061283d565b905061232c6114b7565b6001600160a01b031663fe01e78261234261144c565b6001600160a01b031663b22f0c786040518163ffffffff1660e01b8152600401600060405180830381865afa15801561237f573d6000803e3d6000fd5b505050506040513d6000823e601f3d908101601f191682016040526123a79190810190612932565b6040518263ffffffff1660e01b81526004016123c391906124f9565b602060405180830381865afa1580156123e0573d6000803e3d6000fd5b505050506040513d601f19601f82011682018060405250810190612404919061283d565b6040516340c10f1960e01b81526001600160a01b0383811660048301526024820185905291909116906340c10f1990604401600060405180830381600087803b15801561057b57600080fd5b600081831061245f5781612461565b825b9392505050565b6001600160a01b0381168114610eb957600080fd5b6000806040838503121561249057600080fd5b823561249b81612468565b946020939093013593505050565b60005b838110156124c45781810151838201526020016124ac565b50506000910152565b600081518084526124e58160208601602086016124a9565b601f01601f19169290920160200192915050565b60208152600061246160208301846124cd565b634e487b7160e01b600052604160045260246000fd5b604051601f8201601f1916810167ffffffffffffffff8111828210171561254b5761254b61250c565b604052919050565b600067ffffffffffffffff82111561256d5761256d61250c565b50601f01601f191660200190565b600082601f83011261258c57600080fd5b813561259f61259a82612553565b612522565b8181528460208386010111156125b457600080fd5b816020850160208301376000918101602001919091529392505050565b6000602082840312156125e357600080fd5b813567ffffffffffffffff8111156125fa57600080fd5b6126068482850161257b565b949350505050565b60008060006060848603121561262357600080fd5b833561262e81612468565b9250602084013567ffffffffffffffff81111561264a57600080fd5b6126568682870161257b565b925050604084013590509250925092565b60006020828403121561267957600080fd5b813563ffffffff8116811461246157600080fd5b600067ffffffffffffffff8211156126a7576126a761250c565b5060051b60200190565b600082601f8301126126c257600080fd5b813560206126d261259a8361268d565b82815260059290921b840181019181810190868411156126f157600080fd5b8286015b8481101561270c57803583529183019183016126f5565b509695505050505050565b6000806000806080858703121561272d57600080fd5b843561273881612468565b935060208581013567ffffffffffffffff8082111561275657600080fd5b818801915088601f83011261276a57600080fd5b813561277861259a8261268d565b81815260059190911b8301840190848101908b83111561279757600080fd5b8585015b838110156127cf578035858111156127b35760008081fd5b6127c18e89838a010161257b565b84525091860191860161279b565b509750505060408801359250808311156127e857600080fd5b6127f489848a016126b1565b9450606088013592508083111561280a57600080fd5b5050612818878288016126b1565b91505092959194509250565b60006020828403121561283657600080fd5b5035919050565b60006020828403121561284f57600080fd5b815161246181612468565b60006020828403121561286c57600080fd5b8151801515811461246157600080fd5b805167ffffffffffffffff8116811461289457600080fd5b919050565b600080600080608085870312156128af57600080fd5b6128b88561287c565b93506128c66020860161287c565b92506128d46040860161287c565b91506128e26060860161287c565b905092959194509250565b600082601f8301126128fe57600080fd5b815161290c61259a82612553565b81815284602083860101111561292157600080fd5b6126068260208301602087016124a9565b60006020828403121561294457600080fd5b815167ffffffffffffffff81111561295b57600080fd5b612606848285016128ed565b600181811c9082168061297b57607f821691505b60208210810361299b57634e487b7160e01b600052602260045260246000fd5b50919050565b6000602082840312156129b357600080fd5b5051919050565b634e487b7160e01b600052601160045260246000fd5b6000826129ed57634e487b7160e01b600052601260045260246000fd5b500490565b808201808211156121bd576121bd6129ba565b818103818111156121bd576121bd6129ba565b6000816000190483118215151615612a3257612a326129ba565b500290565b8181036000831280158383131683831282161715612a5757612a576129ba565b5092915050565b634e487b7160e01b600052603260045260246000fd5b60008251612a868184602087016124a9565b9190910192915050565b600060018201612aa257612aa26129ba565b5060010190565b60006001600160a01b03808616835284602084015260806040840152612ae4608084016005815264424153494360d81b602082015260400190565b9150808416606084015250949350505050565b60006020808385031215612b0a57600080fd5b825167ffffffffffffffff80821115612b2257600080fd5b818501915085601f830112612b3657600080fd5b8151612b4461259a8261268d565b81815260059190911b83018401908481019088831115612b6357600080fd5b8585015b83811015612b9b57805185811115612b7f5760008081fd5b612b8d8b89838a01016128ed565b845250918601918601612b67565b5098975050505050505050565b60006001600160a01b03808716835285602084015260a06040840152612be360a084016005815264424153494360d81b602082015260400190565b81861660608501528381036080850152612bfd81866124cd565b98975050505050505050565b6001600160a01b038316815260406020820152600061260660408301846124cd565b8082018281126000831280158216821582161715612c4b57612c4b6129ba565b50509291505056fe6c85b93e587873fbe6712f3b438d42c2945689b262f7bd34b8ea4e3f832a89e7a26469706673582212209c55104270017d75d95de8da1d240f92e92d7cdcefef56ac0310e8aa469c600164736f6c63430008100033",
  "libraries": {
    "MathExtension": "0xe4BE9A932f074c0dDA0d141E9cFFF9d25A50D486"
  },
  "devdoc": {
    "kind": "dev",
    "methods": {
      "assetGroup()": {
        "details": "Reads data from proxy's storage",
        "returns": {
          "_0": "World asset group"
        }
      },
      "assetType()": {
        "details": "Reads data from proxy's storage",
        "returns": {
          "_0": "World asset type"
        }
      },
      "buyUnitsBatch(address,string[],uint256[],uint256[])": {
        "details": "msg.sender will be used as weapons payer",
        "params": {
          "maxWeaponsToSell": "Maximum amounts of weapons to sell for each unit types",
          "settlementAddress": "Settlement's address army of which will receive units",
          "unitNames": "Unit types",
          "unitsCounts": "Units counts"
        }
      },
      "createCultists(uint32)": {
        "details": "Even though function is opened, it can only be called by world asset",
        "params": {
          "cultistsPosition": "Cultists position"
        }
      },
      "decreaseToxicity(address,string,uint256)": {
        "details": "Even though function is opened, it can only be called by world asset",
        "params": {
          "resourceName": "Resource name",
          "settlementAddress": "An address of the settlement which triggered toxicity decrease",
          "value": "Amount of resource"
        }
      },
      "epoch()": {
        "details": "Value is dereferenced from proxy storage and world"
      },
      "epochNumber()": {
        "details": "Reads data from proxy's storage",
        "returns": {
          "_0": "Epoch number"
        }
      },
      "getPenaltyFromCultists()": {
        "details": "Uses unit.balanceOf to determine penalty",
        "returns": {
          "_0": "Penalty from cultists"
        }
      },
      "getZoneTime(uint256)": {
        "details": "Takes into an account previous value and current cultists penalty and extrapolates to value at provided timestamp",
        "params": {
          "timestamp": "Timestamp"
        },
        "returns": {
          "_0": "Extrapolated zone time"
        }
      },
      "handleCultistsDefeated(address,uint256)": {
        "details": "Even though function is opened, it can only be called by world asset",
        "params": {
          "cultistsArmyAddress": "Cultists army address",
          "value": "Amount of cultists burned"
        }
      },
      "handleCultistsSummoned(address,uint256)": {
        "details": "Even though function is opened, it can only be called by world asset",
        "params": {
          "cultistsArmyAddress": "Cultists army address",
          "value": "Amount of cultists minted"
        }
      },
      "increaseToxicity(address,string,uint256)": {
        "details": "Even though function is opened, it can only be called by world asset",
        "params": {
          "resourceName": "Resource name",
          "settlementAddress": "An address of the settlement which triggered toxicity increase",
          "value": "Amount of resource"
        }
      },
      "init(uint256)": {
        "details": "Called by factory contract which creates current instance",
        "params": {
          "zoneIndex": "Zone index"
        }
      },
      "registry()": {
        "details": "Value is dereferenced from world"
      },
      "summonCultists()": {
        "details": "Anyone can call this function"
      },
      "updateState()": {
        "details": "This function is called every time when production should be modified"
      },
      "world()": {
        "details": "Value is dereferenced from proxy storage"
      }
    },
    "stateVariables": {
      "cultistsSettlement": {
        "details": "Immutable, initialized on the zone creation"
      },
      "cultistsSummonTime": {
        "details": "Updated when #summonCultists is called"
      },
      "lastUpdateStateTime": {
        "details": "Updated when #updateState is called"
      },
      "lastUpdateStateZoneTime": {
        "details": "Updated when #updateState is called"
      },
      "settlementsMarket": {
        "details": "Immutable, initialized on the zone creation"
      },
      "toxicity": {
        "details": "Updated when #increaseToxicity or #decreaseToxicity is called"
      },
      "unitsPools": {
        "details": "Immutable, initialized on the zone creation"
      },
      "workersPool": {
        "details": "Immutable, initialized on the zone creation"
      },
      "zoneIndex": {
        "details": "Immutable, initialized on the zone creation"
      }
    },
    "version": 1
  },
  "userdoc": {
    "events": {
      "SettlementsMarketCreated(address)": {
        "notice": "Emitted when zone initialized"
      },
      "ToxicityDecreased(address,uint256)": {
        "notice": "Emitted when #decreaseToxicity is called"
      },
      "ToxicityIncreased(address,uint256)": {
        "notice": "Emitted when #increaseToxicity is called"
      },
      "UnitsPoolCreated(address,string)": {
        "notice": "Emitted when zone initialized"
      },
      "WorkersPoolCreated(address)": {
        "notice": "Emitted when zone initialized"
      },
      "ZoneTimeChanged(uint256,uint256)": {
        "notice": "Emitted when #updateState is called"
      }
    },
    "kind": "user",
    "methods": {
      "assetGroup()": {
        "notice": "Returns world asset group"
      },
      "assetType()": {
        "notice": "Returns world asset type"
      },
      "buyUnitsBatch(address,string[],uint256[],uint256[])": {
        "notice": "Buys specified units for specified amount of weapons in current zone"
      },
      "createCultists(uint32)": {
        "notice": "Creates cultists settlement"
      },
      "cultistsSettlement()": {
        "notice": "Cultists settlement of this zone"
      },
      "cultistsSummonTime()": {
        "notice": "Last time cultists were summoned in this zone"
      },
      "decreaseToxicity(address,string,uint256)": {
        "notice": "Decreases toxicity relative to specified resources amount"
      },
      "epoch()": {
        "notice": "Epoch"
      },
      "epochNumber()": {
        "notice": "Returns epoch number"
      },
      "getPenaltyFromCultists()": {
        "notice": "Calculates penalty according to current cultists count"
      },
      "getZoneTime(uint256)": {
        "notice": "Calculates zone time with provided timestamp"
      },
      "handleCultistsDefeated(address,uint256)": {
        "notice": "Zone cultists defeat handler"
      },
      "handleCultistsSummoned(address,uint256)": {
        "notice": "Zone cultists summon handler"
      },
      "increaseToxicity(address,string,uint256)": {
        "notice": "Increases toxicity relative to specified resources amount"
      },
      "init(uint256)": {
        "notice": "Proxy initializer"
      },
      "lastUpdateStateTime()": {
        "notice": "Last apply state time"
      },
      "lastUpdateStateZoneTime()": {
        "notice": "Last apply state zone time"
      },
      "registry()": {
        "notice": "Registry"
      },
      "settlementsMarket()": {
        "notice": "Mapping containing units market for provided unit type"
      },
      "summonCultists()": {
        "notice": "Summons cultists if conditions are met"
      },
      "toxicity()": {
        "notice": "Amount of toxicity in this zone"
      },
      "unitsPools(string)": {
        "notice": "Mapping containing units pool for provided unit type"
      },
      "updateState()": {
        "notice": "Updates zone state"
      },
      "workersPool()": {
        "notice": "Workers pool"
      },
      "world()": {
        "notice": "World"
      },
      "zoneIndex()": {
        "notice": "Zone index"
      }
    },
    "version": 1
  },
  "storageLayout": {
    "storage": [
      {
        "astId": 119,
        "contract": "contracts/core/assets/zone/Zone.sol:Zone",
        "label": "_initialized",
        "offset": 0,
        "slot": "0",
        "type": "t_uint8"
      },
      {
        "astId": 122,
        "contract": "contracts/core/assets/zone/Zone.sol:Zone",
        "label": "_initializing",
        "offset": 1,
        "slot": "0",
        "type": "t_bool"
      },
      {
        "astId": 25071,
        "contract": "contracts/core/assets/zone/Zone.sol:Zone",
        "label": "workersPool",
        "offset": 2,
        "slot": "0",
        "type": "t_contract(IWorkersPool)24428"
      },
      {
        "astId": 25078,
        "contract": "contracts/core/assets/zone/Zone.sol:Zone",
        "label": "unitsPools",
        "offset": 0,
        "slot": "1",
        "type": "t_mapping(t_string_memory_ptr,t_contract(IUnitsPool)23600)"
      },
      {
        "astId": 25083,
        "contract": "contracts/core/assets/zone/Zone.sol:Zone",
        "label": "settlementsMarket",
        "offset": 0,
        "slot": "2",
        "type": "t_contract(ISettlementsMarket)21460"
      },
      {
        "astId": 25088,
        "contract": "contracts/core/assets/zone/Zone.sol:Zone",
        "label": "cultistsSettlement",
        "offset": 0,
        "slot": "3",
        "type": "t_contract(ISettlement)20253"
      },
      {
        "astId": 25092,
        "contract": "contracts/core/assets/zone/Zone.sol:Zone",
        "label": "cultistsSummonTime",
        "offset": 0,
        "slot": "4",
        "type": "t_uint256"
      },
      {
        "astId": 25096,
        "contract": "contracts/core/assets/zone/Zone.sol:Zone",
        "label": "toxicity",
        "offset": 0,
        "slot": "5",
        "type": "t_int256"
      },
      {
        "astId": 25100,
        "contract": "contracts/core/assets/zone/Zone.sol:Zone",
        "label": "zoneIndex",
        "offset": 0,
        "slot": "6",
        "type": "t_uint256"
      },
      {
        "astId": 25104,
        "contract": "contracts/core/assets/zone/Zone.sol:Zone",
        "label": "lastUpdateStateTime",
        "offset": 0,
        "slot": "7",
        "type": "t_uint256"
      },
      {
        "astId": 25108,
        "contract": "contracts/core/assets/zone/Zone.sol:Zone",
        "label": "lastUpdateStateZoneTime",
        "offset": 0,
        "slot": "8",
        "type": "t_uint256"
      }
    ],
    "types": {
      "t_bool": {
        "encoding": "inplace",
        "label": "bool",
        "numberOfBytes": "1"
      },
      "t_contract(ISettlement)20253": {
        "encoding": "inplace",
        "label": "contract ISettlement",
        "numberOfBytes": "20"
      },
      "t_contract(ISettlementsMarket)21460": {
        "encoding": "inplace",
        "label": "contract ISettlementsMarket",
        "numberOfBytes": "20"
      },
      "t_contract(IUnitsPool)23600": {
        "encoding": "inplace",
        "label": "contract IUnitsPool",
        "numberOfBytes": "20"
      },
      "t_contract(IWorkersPool)24428": {
        "encoding": "inplace",
        "label": "contract IWorkersPool",
        "numberOfBytes": "20"
      },
      "t_int256": {
        "encoding": "inplace",
        "label": "int256",
        "numberOfBytes": "32"
      },
      "t_mapping(t_string_memory_ptr,t_contract(IUnitsPool)23600)": {
        "encoding": "mapping",
        "key": "t_string_memory_ptr",
        "label": "mapping(string => contract IUnitsPool)",
        "numberOfBytes": "32",
        "value": "t_contract(IUnitsPool)23600"
      },
      "t_string_memory_ptr": {
        "encoding": "bytes",
        "label": "string",
        "numberOfBytes": "32"
      },
      "t_uint256": {
        "encoding": "inplace",
        "label": "uint256",
        "numberOfBytes": "32"
      },
      "t_uint8": {
        "encoding": "inplace",
        "label": "uint8",
        "numberOfBytes": "1"
      }
    }
  }
}