{
  "address": "0xd31761205449ed6E89ea46866e6b40B570499568",
  "abi": [
    {
      "inputs": [
        {
          "internalType": "string",
          "name": "_name",
          "type": "string"
        },
        {
          "internalType": "string",
          "name": "_symbol",
          "type": "string"
        },
        {
          "internalType": "string",
          "name": "uri_",
          "type": "string"
        }
      ],
      "stateMutability": "nonpayable",
      "type": "constructor"
    },
    {
      "anonymous": false,
      "inputs": [
        {
          "indexed": true,
          "internalType": "address",
          "name": "account",
          "type": "address"
        },
        {
          "indexed": true,
          "internalType": "address",
          "name": "operator",
          "type": "address"
        },
        {
          "indexed": false,
          "internalType": "bool",
          "name": "approved",
          "type": "bool"
        }
      ],
      "name": "ApprovalForAll",
      "type": "event"
    },
    {
      "anonymous": false,
      "inputs": [
        {
          "indexed": true,
          "internalType": "address",
          "name": "previousOwner",
          "type": "address"
        },
        {
          "indexed": true,
          "internalType": "address",
          "name": "newOwner",
          "type": "address"
        }
      ],
      "name": "OwnershipTransferred",
      "type": "event"
    },
    {
      "anonymous": false,
      "inputs": [
        {
          "indexed": true,
          "internalType": "address",
          "name": "operator",
          "type": "address"
        },
        {
          "indexed": true,
          "internalType": "address",
          "name": "from",
          "type": "address"
        },
        {
          "indexed": true,
          "internalType": "address",
          "name": "to",
          "type": "address"
        },
        {
          "indexed": false,
          "internalType": "uint256[]",
          "name": "ids",
          "type": "uint256[]"
        },
        {
          "indexed": false,
          "internalType": "uint256[]",
          "name": "values",
          "type": "uint256[]"
        }
      ],
      "name": "TransferBatch",
      "type": "event"
    },
    {
      "anonymous": false,
      "inputs": [
        {
          "indexed": true,
          "internalType": "address",
          "name": "operator",
          "type": "address"
        },
        {
          "indexed": true,
          "internalType": "address",
          "name": "from",
          "type": "address"
        },
        {
          "indexed": true,
          "internalType": "address",
          "name": "to",
          "type": "address"
        },
        {
          "indexed": false,
          "internalType": "uint256",
          "name": "id",
          "type": "uint256"
        },
        {
          "indexed": false,
          "internalType": "uint256",
          "name": "value",
          "type": "uint256"
        }
      ],
      "name": "TransferSingle",
      "type": "event"
    },
    {
      "anonymous": false,
      "inputs": [
        {
          "indexed": false,
          "internalType": "string",
          "name": "value",
          "type": "string"
        },
        {
          "indexed": true,
          "internalType": "uint256",
          "name": "id",
          "type": "uint256"
        }
      ],
      "name": "URI",
      "type": "event"
    },
    {
      "inputs": [
        {
          "internalType": "address",
          "name": "account",
          "type": "address"
        },
        {
          "internalType": "uint256",
          "name": "id",
          "type": "uint256"
        }
      ],
      "name": "balanceOf",
      "outputs": [
        {
          "internalType": "uint256",
          "name": "",
          "type": "uint256"
        }
      ],
      "stateMutability": "view",
      "type": "function"
    },
    {
      "inputs": [
        {
          "internalType": "address[]",
          "name": "accounts",
          "type": "address[]"
        },
        {
          "internalType": "uint256[]",
          "name": "ids",
          "type": "uint256[]"
        }
      ],
      "name": "balanceOfBatch",
      "outputs": [
        {
          "internalType": "uint256[]",
          "name": "",
          "type": "uint256[]"
        }
      ],
      "stateMutability": "view",
      "type": "function"
    },
    {
      "inputs": [
        {
          "internalType": "address",
          "name": "from",
          "type": "address"
        },
        {
          "internalType": "uint256",
          "name": "id",
          "type": "uint256"
        },
        {
          "internalType": "uint256",
          "name": "amount",
          "type": "uint256"
        }
      ],
      "name": "burn",
      "outputs": [],
      "stateMutability": "nonpayable",
      "type": "function"
    },
    {
      "inputs": [
        {
          "internalType": "address",
          "name": "_owner",
          "type": "address"
        },
        {
          "internalType": "address",
          "name": "_operator",
          "type": "address"
        }
      ],
      "name": "isApprovedForAll",
      "outputs": [
        {
          "internalType": "bool",
          "name": "isOperator",
          "type": "bool"
        }
      ],
      "stateMutability": "view",
      "type": "function"
    },
    {
      "inputs": [
        {
          "internalType": "uint256",
          "name": "",
          "type": "uint256"
        }
      ],
      "name": "isFreePart",
      "outputs": [
        {
          "internalType": "bool",
          "name": "",
          "type": "bool"
        }
      ],
      "stateMutability": "view",
      "type": "function"
    },
    {
      "inputs": [
        {
          "internalType": "address",
          "name": "",
          "type": "address"
        }
      ],
      "name": "isSafeApprovedAddress",
      "outputs": [
        {
          "internalType": "bool",
          "name": "",
          "type": "bool"
        }
      ],
      "stateMutability": "view",
      "type": "function"
    },
    {
      "inputs": [
        {
          "internalType": "address",
          "name": "account",
          "type": "address"
        },
        {
          "internalType": "uint256",
          "name": "id",
          "type": "uint256"
        },
        {
          "internalType": "uint256",
          "name": "amount",
          "type": "uint256"
        },
        {
          "internalType": "bytes",
          "name": "data",
          "type": "bytes"
        }
      ],
      "name": "mint",
      "outputs": [],
      "stateMutability": "nonpayable",
      "type": "function"
    },
    {
      "inputs": [
        {
          "internalType": "address",
          "name": "to",
          "type": "address"
        },
        {
          "internalType": "uint256[]",
          "name": "ids",
          "type": "uint256[]"
        },
        {
          "internalType": "uint256[]",
          "name": "amounts",
          "type": "uint256[]"
        },
        {
          "internalType": "bytes",
          "name": "data",
          "type": "bytes"
        }
      ],
      "name": "mintBatch",
      "outputs": [],
      "stateMutability": "nonpayable",
      "type": "function"
    },
    {
      "inputs": [],
      "name": "name",
      "outputs": [
        {
          "internalType": "string",
          "name": "",
          "type": "string"
        }
      ],
      "stateMutability": "view",
      "type": "function"
    },
    {
      "inputs": [],
      "name": "owner",
      "outputs": [
        {
          "internalType": "address",
          "name": "",
          "type": "address"
        }
      ],
      "stateMutability": "view",
      "type": "function"
    },
    {
      "inputs": [],
      "name": "renounceOwnership",
      "outputs": [],
      "stateMutability": "nonpayable",
      "type": "function"
    },
    {
      "inputs": [
        {
          "internalType": "address",
          "name": "from",
          "type": "address"
        },
        {
          "internalType": "address",
          "name": "to",
          "type": "address"
        },
        {
          "internalType": "uint256[]",
          "name": "ids",
          "type": "uint256[]"
        },
        {
          "internalType": "uint256[]",
          "name": "amounts",
          "type": "uint256[]"
        },
        {
          "internalType": "bytes",
          "name": "data",
          "type": "bytes"
        }
      ],
      "name": "safeBatchTransferFrom",
      "outputs": [],
      "stateMutability": "nonpayable",
      "type": "function"
    },
    {
      "inputs": [
        {
          "internalType": "address",
          "name": "from",
          "type": "address"
        },
        {
          "internalType": "address",
          "name": "to",
          "type": "address"
        },
        {
          "internalType": "uint256",
          "name": "id",
          "type": "uint256"
        },
        {
          "internalType": "uint256",
          "name": "amount",
          "type": "uint256"
        },
        {
          "internalType": "bytes",
          "name": "data",
          "type": "bytes"
        }
      ],
      "name": "safeTransferFrom",
      "outputs": [],
      "stateMutability": "nonpayable",
      "type": "function"
    },
    {
      "inputs": [
        {
          "internalType": "address",
          "name": "operator",
          "type": "address"
        },
        {
          "internalType": "bool",
          "name": "approved",
          "type": "bool"
        }
      ],
      "name": "setApprovalForAll",
      "outputs": [],
      "stateMutability": "nonpayable",
      "type": "function"
    },
    {
      "inputs": [
        {
          "internalType": "uint256[]",
          "name": "ids",
          "type": "uint256[]"
        },
        {
          "internalType": "bool[]",
          "name": "statuses",
          "type": "bool[]"
        }
      ],
      "name": "setFreeParts",
      "outputs": [],
      "stateMutability": "nonpayable",
      "type": "function"
    },
    {
      "inputs": [
        {
          "internalType": "address",
          "name": "_address",
          "type": "address"
        },
        {
          "internalType": "bool",
          "name": "_status",
          "type": "bool"
        }
      ],
      "name": "setSafeApprovedAddress",
      "outputs": [],
      "stateMutability": "nonpayable",
      "type": "function"
    },
    {
      "inputs": [
        {
          "internalType": "bytes4",
          "name": "interfaceId",
          "type": "bytes4"
        }
      ],
      "name": "supportsInterface",
      "outputs": [
        {
          "internalType": "bool",
          "name": "",
          "type": "bool"
        }
      ],
      "stateMutability": "view",
      "type": "function"
    },
    {
      "inputs": [],
      "name": "symbol",
      "outputs": [
        {
          "internalType": "string",
          "name": "",
          "type": "string"
        }
      ],
      "stateMutability": "view",
      "type": "function"
    },
    {
      "inputs": [
        {
          "internalType": "address",
          "name": "newOwner",
          "type": "address"
        }
      ],
      "name": "transferOwnership",
      "outputs": [],
      "stateMutability": "nonpayable",
      "type": "function"
    },
    {
      "inputs": [
        {
          "internalType": "string",
          "name": "uri_",
          "type": "string"
        }
      ],
      "name": "updateURI",
      "outputs": [],
      "stateMutability": "nonpayable",
      "type": "function"
    },
    {
      "inputs": [
        {
          "internalType": "uint256",
          "name": "",
          "type": "uint256"
        }
      ],
      "name": "uri",
      "outputs": [
        {
          "internalType": "string",
          "name": "",
          "type": "string"
        }
      ],
      "stateMutability": "view",
      "type": "function"
    }
  ],
  "transactionHash": "0xf5eea2abda0008e19b18066972900fa9f3167e84b96bfcc58459a1f8be12052a",
  "args": [
    "Banner Parts",
    "BNRP",
    ""
  ],
  "numDeployments": 1,
  "solcInputHash": "fe31280621a8db2936c7c6268abddf29",
  "bytecode": "0x60806040523480156200001157600080fd5b50604051620026183803806200261883398101604081905262000034916200019c565b80620000408162000073565b506200004c3362000085565b60046200005a8482620002bc565b506005620000698382620002bc565b5050505062000388565b6002620000818282620002bc565b5050565b600380546001600160a01b038381166001600160a01b0319831681179093556040519116919082907f8be0079c531659141344cd1fd0a4f28419497f9722a3daafe3b4186f6b6457e090600090a35050565b634e487b7160e01b600052604160045260246000fd5b600082601f830112620000ff57600080fd5b81516001600160401b03808211156200011c576200011c620000d7565b604051601f8301601f19908116603f01168101908282118183101715620001475762000147620000d7565b816040528381526020925086838588010111156200016457600080fd5b600091505b8382101562000188578582018301518183018401529082019062000169565b600093810190920192909252949350505050565b600080600060608486031215620001b257600080fd5b83516001600160401b0380821115620001ca57600080fd5b620001d887838801620000ed565b94506020860151915080821115620001ef57600080fd5b620001fd87838801620000ed565b935060408601519150808211156200021457600080fd5b506200022386828701620000ed565b9150509250925092565b600181811c908216806200024257607f821691505b6020821081036200026357634e487b7160e01b600052602260045260246000fd5b50919050565b601f821115620002b757600081815260208120601f850160051c81016020861015620002925750805b601f850160051c820191505b81811015620002b3578281556001016200029e565b5050505b505050565b81516001600160401b03811115620002d857620002d8620000d7565b620002f081620002e984546200022d565b8462000269565b602080601f8311600181146200032857600084156200030f5750858301515b600019600386901b1c1916600185901b178555620002b3565b600085815260208120601f198616915b82811015620003595788860151825594840194600190910190840162000338565b5085821015620003785787850151600019600388901b60f8161c191681555b5050505050600190811b01905550565b61228080620003986000396000f3fe608060405234801561001057600080fd5b50600436106101465760003560e01c8063731133e9116100c8578063c30f4a5a1161008c578063f242432a11610066578063f242432a146102e7578063f2fde38b146102fa578063f5298aca1461030d57600080fd5b8063c30f4a5a146102ae578063d4cea072146102c1578063e985e9c5146102d457600080fd5b8063731133e9146102425780638da5cb5b1461025557806395d89b4114610270578063a22cb46514610278578063af4c0e441461028b57600080fd5b80631f7fdffa1161010f5780631f7fdffa146101df5780632eb2c2d6146101f45780634935413d146102075780634e1273f41461021a578063715018a61461023a57600080fd5b8062fdd58e1461014b57806301ffc9a71461017157806306fdde03146101945780630e89341c146101a95780631baa7cc4146101bc575b600080fd5b61015e610159366004611650565b610320565b6040519081526020015b60405180910390f35b61018461017f366004611690565b6103c5565b6040519015158152602001610168565b61019c610415565b60405161016891906116fa565b61019c6101b736600461170d565b6104a3565b6101846101ca36600461170d565b60066020526000908152604090205460ff1681565b6101f26101ed36600461187c565b610537565b005b6101f2610202366004611915565b61071e565b6101f2610215366004611a0b565b61076a565b61022d610228366004611a77565b6107f9565b6040516101689190611b7d565b6101f2610923565b6101f2610250366004611b90565b610937565b6003546040516001600160a01b039091168152602001610168565b61019c610967565b6101f2610286366004611bf5565b610974565b610184610299366004611c28565b60076020526000908152604090205460ff1681565b6101f26102bc366004611c43565b610983565b6101f26102cf366004611bf5565b610997565b6101846102e2366004611c94565b6109ca565b6101f26102f5366004611cbe565b610a21565b6101f2610308366004611c28565b610a44565b6101f261031b366004611d23565b610aba565b60006001600160a01b0383166103915760405162461bcd60e51b815260206004820152602b60248201527f455243313135353a2062616c616e636520717565727920666f7220746865207a60448201526a65726f206164647265737360a81b60648201526084015b60405180910390fd5b60008281526006602052604090205460ff16156103b25750620f42406103bf565b6103bc8383610ae8565b90505b92915050565b60006001600160e01b03198216636cdb3d1360e11b14806103f657506001600160e01b031982166303a24d0760e21b145b806103bf57506301ffc9a760e01b6001600160e01b03198316146103bf565b6004805461042290611d56565b80601f016020809104026020016040519081016040528092919081815260200182805461044e90611d56565b801561049b5780601f106104705761010080835404028352916020019161049b565b820191906000526020600020905b81548152906001019060200180831161047e57829003601f168201915b505050505081565b6060600280546104b290611d56565b80601f01602080910402602001604051908101604052809291908181526020018280546104de90611d56565b801561052b5780601f106105005761010080835404028352916020019161052b565b820191906000526020600020905b81548152906001019060200180831161050e57829003601f168201915b50505050509050919050565b61053f610b79565b6000805b84518110156105a4576006600086838151811061056257610562611d90565b60209081029190910181015182528101919091526040016000205460ff16610592578161058e81611dbc565b9250505b8061059c81611dbc565b915050610543565b5060008167ffffffffffffffff8111156105c0576105c0611726565b6040519080825280602002602001820160405280156105e9578160200160208202803683370190505b50905060008267ffffffffffffffff81111561060757610607611726565b604051908082528060200260200182016040528015610630578160200160208202803683370190505b5090506000805b8751811015610707576006600089838151811061065657610656611d90565b60209081029190910181015182528101919091526040016000205460ff166106f55787818151811061068a5761068a611d90565b60200260200101518483815181106106a4576106a4611d90565b6020026020010181815250508681815181106106c2576106c2611d90565b60200260200101518383815181106106dc576106dc611d90565b6020908102919091010152816106f181611dbc565b9250505b806106ff81611dbc565b915050610637565b5061071488848488610bd3565b5050505050505050565b6001600160a01b03851633148061073a575061073a85336109ca565b6107565760405162461bcd60e51b815260040161038890611dd5565b6107638585858585610d1e565b5050505050565b610772610b79565b60005b838110156107635782828281811061078f5761078f611d90565b90506020020160208101906107a49190611e24565b600660008787858181106107ba576107ba611d90565b90506020020135815260200190815260200160002060006101000a81548160ff02191690831515021790555080806107f190611dbc565b915050610775565b6060815183511461085e5760405162461bcd60e51b815260206004820152602960248201527f455243313135353a206163636f756e747320616e6420696473206c656e677468604482015268040dad2e6dac2e8c6d60bb1b6064820152608401610388565b6000835167ffffffffffffffff81111561087a5761087a611726565b6040519080825280602002602001820160405280156108a3578160200160208202803683370190505b50905060005b845181101561091b576108ee8582815181106108c7576108c7611d90565b60200260200101518583815181106108e1576108e1611d90565b6020026020010151610320565b82828151811061090057610900611d90565b602090810291909101015261091481611dbc565b90506108a9565b509392505050565b61092b610b79565b6109356000610eba565b565b61093f610b79565b60008381526006602052604090205460ff166109615761096184848484610f19565b50505050565b6005805461042290611d56565b61097f338383610ff3565b5050565b61098b610b79565b610994816110d3565b50565b61099f610b79565b6001600160a01b03919091166000908152600760205260409020805460ff1916911515919091179055565b6001600160a01b03811660009081526007602052604081205460ff16156109f3575060016103bf565b6001600160a01b0380841660009081526001602090815260408083209386168352929052205460ff166103bc565b60008381526006602052604090205460ff166107635761076385858585856110df565b610a4c610b79565b6001600160a01b038116610ab15760405162461bcd60e51b815260206004820152602660248201527f4f776e61626c653a206e6577206f776e657220697320746865207a65726f206160448201526564647265737360d01b6064820152608401610388565b61099481610eba565b610ac2610b79565b60008281526006602052604090205460ff16610ae357610ae3838383611124565b505050565b60006001600160a01b038316610b535760405162461bcd60e51b815260206004820152602a60248201527f455243313135353a2061646472657373207a65726f206973206e6f742061207660448201526930b634b21037bbb732b960b11b6064820152608401610388565b506000908152602081815260408083206001600160a01b03949094168352929052205490565b6003546001600160a01b031633146109355760405162461bcd60e51b815260206004820181905260248201527f4f776e61626c653a2063616c6c6572206973206e6f7420746865206f776e65726044820152606401610388565b6001600160a01b038416610bf95760405162461bcd60e51b815260040161038890611e3f565b8151835114610c1a5760405162461bcd60e51b815260040161038890611e80565b3360005b8451811015610cb657838181518110610c3957610c39611d90565b6020026020010151600080878481518110610c5657610c56611d90565b602002602001015181526020019081526020016000206000886001600160a01b03166001600160a01b031681526020019081526020016000206000828254610c9e9190611ec8565b90915550819050610cae81611dbc565b915050610c1e565b50846001600160a01b031660006001600160a01b0316826001600160a01b03167f4a39dc06d4c0dbc64b70af90fd698a233a518aa5d07e595d983b8c0526c8f7fb8787604051610d07929190611edb565b60405180910390a4610763816000878787876112a0565b8151835114610d3f5760405162461bcd60e51b815260040161038890611e80565b6001600160a01b038416610d655760405162461bcd60e51b815260040161038890611f09565b3360005b8451811015610e4c576000858281518110610d8657610d86611d90565b602002602001015190506000858381518110610da457610da4611d90565b602090810291909101810151600084815280835260408082206001600160a01b038e168352909352919091205490915081811015610df45760405162461bcd60e51b815260040161038890611f4e565b6000838152602081815260408083206001600160a01b038e8116855292528083208585039055908b16825281208054849290610e31908490611ec8565b9250508190555050505080610e4590611dbc565b9050610d69565b50846001600160a01b0316866001600160a01b0316826001600160a01b03167f4a39dc06d4c0dbc64b70af90fd698a233a518aa5d07e595d983b8c0526c8f7fb8787604051610e9c929190611edb565b60405180910390a4610eb28187878787876112a0565b505050505050565b600380546001600160a01b0383811673ffffffffffffffffffffffffffffffffffffffff19831681179093556040519116919082907f8be0079c531659141344cd1fd0a4f28419497f9722a3daafe3b4186f6b6457e090600090a35050565b6001600160a01b038416610f3f5760405162461bcd60e51b815260040161038890611e3f565b336000610f4b85611404565b90506000610f5885611404565b90506000868152602081815260408083206001600160a01b038b16845290915281208054879290610f8a908490611ec8565b909155505060408051878152602081018790526001600160a01b03808a1692600092918716917fc3d58168c5ae7397731d063d5bbf3d657854427343f4c083240f7aacaa2d0f62910160405180910390a4610fea8360008989898961144f565b50505050505050565b816001600160a01b0316836001600160a01b0316036110665760405162461bcd60e51b815260206004820152602960248201527f455243313135353a2073657474696e6720617070726f76616c20737461747573604482015268103337b91039b2b63360b91b6064820152608401610388565b6001600160a01b03838116600081815260016020908152604080832094871680845294825291829020805460ff191686151590811790915591519182527f17307eab39ab6107e8899845ad3d59bd9653f200f220920489ca2b5937696c31910160405180910390a3505050565b600261097f8282611fde565b6001600160a01b0385163314806110fb57506110fb85336109ca565b6111175760405162461bcd60e51b815260040161038890611dd5565b610763858585858561150a565b6001600160a01b0383166111865760405162461bcd60e51b815260206004820152602360248201527f455243313135353a206275726e2066726f6d20746865207a65726f206164647260448201526265737360e81b6064820152608401610388565b33600061119284611404565b9050600061119f84611404565b60408051602080820183526000918290528882528181528282206001600160a01b038b16835290522054909150848110156112285760405162461bcd60e51b8152602060048201526024808201527f455243313135353a206275726e20616d6f756e7420657863656564732062616c604482015263616e636560e01b6064820152608401610388565b6000868152602081815260408083206001600160a01b038b81168086529184528285208a8703905582518b81529384018a90529092908816917fc3d58168c5ae7397731d063d5bbf3d657854427343f4c083240f7aacaa2d0f62910160405180910390a4604080516020810190915260009052610fea565b6001600160a01b0384163b15610eb25760405163bc197c8160e01b81526001600160a01b0385169063bc197c81906112e4908990899088908890889060040161209e565b6020604051808303816000875af192505050801561131f575060408051601f3d908101601f1916820190925261131c918101906120fc565b60015b6113d45761132b612119565b806308c379a003611364575061133f612135565b8061134a5750611366565b8060405162461bcd60e51b815260040161038891906116fa565b505b60405162461bcd60e51b815260206004820152603460248201527f455243313135353a207472616e7366657220746f206e6f6e204552433131353560448201527f526563656976657220696d706c656d656e7465720000000000000000000000006064820152608401610388565b6001600160e01b0319811663bc197c8160e01b14610fea5760405162461bcd60e51b8152600401610388906121bf565b6040805160018082528183019092526060916000919060208083019080368337019050509050828160008151811061143e5761143e611d90565b602090810291909101015292915050565b6001600160a01b0384163b15610eb25760405163f23a6e6160e01b81526001600160a01b0385169063f23a6e61906114939089908990889088908890600401612207565b6020604051808303816000875af19250505080156114ce575060408051601f3d908101601f191682019092526114cb918101906120fc565b60015b6114da5761132b612119565b6001600160e01b0319811663f23a6e6160e01b14610fea5760405162461bcd60e51b8152600401610388906121bf565b6001600160a01b0384166115305760405162461bcd60e51b815260040161038890611f09565b33600061153c85611404565b9050600061154985611404565b90506000868152602081815260408083206001600160a01b038c1684529091529020548581101561158c5760405162461bcd60e51b815260040161038890611f4e565b6000878152602081815260408083206001600160a01b038d8116855292528083208985039055908a168252812080548892906115c9908490611ec8565b909155505060408051888152602081018890526001600160a01b03808b16928c821692918816917fc3d58168c5ae7397731d063d5bbf3d657854427343f4c083240f7aacaa2d0f62910160405180910390a4611629848a8a8a8a8a61144f565b505050505050505050565b80356001600160a01b038116811461164b57600080fd5b919050565b6000806040838503121561166357600080fd5b61166c83611634565b946020939093013593505050565b6001600160e01b03198116811461099457600080fd5b6000602082840312156116a257600080fd5b81356116ad8161167a565b9392505050565b6000815180845260005b818110156116da576020818501810151868301820152016116be565b506000602082860101526020601f19601f83011685010191505092915050565b6020815260006103bc60208301846116b4565b60006020828403121561171f57600080fd5b5035919050565b634e487b7160e01b600052604160045260246000fd5b601f8201601f1916810167ffffffffffffffff8111828210171561176257611762611726565b6040525050565b600067ffffffffffffffff82111561178357611783611726565b5060051b60200190565b600082601f83011261179e57600080fd5b813560206117ab82611769565b6040516117b8828261173c565b83815260059390931b85018201928281019150868411156117d857600080fd5b8286015b848110156117f357803583529183019183016117dc565b509695505050505050565b600067ffffffffffffffff83111561181857611818611726565b60405161182f601f8501601f19166020018261173c565b80915083815284848401111561184457600080fd5b83836020830137600060208583010152509392505050565b600082601f83011261186d57600080fd5b6103bc838335602085016117fe565b6000806000806080858703121561189257600080fd5b61189b85611634565b9350602085013567ffffffffffffffff808211156118b857600080fd5b6118c48883890161178d565b945060408701359150808211156118da57600080fd5b6118e68883890161178d565b935060608701359150808211156118fc57600080fd5b506119098782880161185c565b91505092959194509250565b600080600080600060a0868803121561192d57600080fd5b61193686611634565b945061194460208701611634565b9350604086013567ffffffffffffffff8082111561196157600080fd5b61196d89838a0161178d565b9450606088013591508082111561198357600080fd5b61198f89838a0161178d565b935060808801359150808211156119a557600080fd5b506119b28882890161185c565b9150509295509295909350565b60008083601f8401126119d157600080fd5b50813567ffffffffffffffff8111156119e957600080fd5b6020830191508360208260051b8501011115611a0457600080fd5b9250929050565b60008060008060408587031215611a2157600080fd5b843567ffffffffffffffff80821115611a3957600080fd5b611a45888389016119bf565b90965094506020870135915080821115611a5e57600080fd5b50611a6b878288016119bf565b95989497509550505050565b60008060408385031215611a8a57600080fd5b823567ffffffffffffffff80821115611aa257600080fd5b818501915085601f830112611ab657600080fd5b81356020611ac382611769565b604051611ad0828261173c565b83815260059390931b8501820192828101915089841115611af057600080fd5b948201945b83861015611b1557611b0686611634565b82529482019490820190611af5565b96505086013592505080821115611b2b57600080fd5b50611b388582860161178d565b9150509250929050565b600081518084526020808501945080840160005b83811015611b7257815187529582019590820190600101611b56565b509495945050505050565b6020815260006103bc6020830184611b42565b60008060008060808587031215611ba657600080fd5b611baf85611634565b93506020850135925060408501359150606085013567ffffffffffffffff811115611bd957600080fd5b6119098782880161185c565b8035801515811461164b57600080fd5b60008060408385031215611c0857600080fd5b611c1183611634565b9150611c1f60208401611be5565b90509250929050565b600060208284031215611c3a57600080fd5b6103bc82611634565b600060208284031215611c5557600080fd5b813567ffffffffffffffff811115611c6c57600080fd5b8201601f81018413611c7d57600080fd5b611c8c848235602084016117fe565b949350505050565b60008060408385031215611ca757600080fd5b611cb083611634565b9150611c1f60208401611634565b600080600080600060a08688031215611cd657600080fd5b611cdf86611634565b9450611ced60208701611634565b93506040860135925060608601359150608086013567ffffffffffffffff811115611d1757600080fd5b6119b28882890161185c565b600080600060608486031215611d3857600080fd5b611d4184611634565b95602085013595506040909401359392505050565b600181811c90821680611d6a57607f821691505b602082108103611d8a57634e487b7160e01b600052602260045260246000fd5b50919050565b634e487b7160e01b600052603260045260246000fd5b634e487b7160e01b600052601160045260246000fd5b600060018201611dce57611dce611da6565b5060010190565b6020808252602f908201527f455243313135353a2063616c6c6572206973206e6f7420746f6b656e206f776e60408201526e195c881b9bdc88185c1c1c9bdd9959608a1b606082015260800190565b600060208284031215611e3657600080fd5b6103bc82611be5565b60208082526021908201527f455243313135353a206d696e7420746f20746865207a65726f206164647265736040820152607360f81b606082015260800190565b60208082526028908201527f455243313135353a2069647320616e6420616d6f756e7473206c656e677468206040820152670dad2e6dac2e8c6d60c31b606082015260800190565b808201808211156103bf576103bf611da6565b604081526000611eee6040830185611b42565b8281036020840152611f008185611b42565b95945050505050565b60208082526025908201527f455243313135353a207472616e7366657220746f20746865207a65726f206164604082015264647265737360d81b606082015260800190565b6020808252602a908201527f455243313135353a20696e73756666696369656e742062616c616e636520666f60408201526939103a3930b739b332b960b11b606082015260800190565b601f821115610ae357600081815260208120601f850160051c81016020861015611fbf5750805b601f850160051c820191505b81811015610eb257828155600101611fcb565b815167ffffffffffffffff811115611ff857611ff8611726565b61200c816120068454611d56565b84611f98565b602080601f83116001811461204157600084156120295750858301515b600019600386901b1c1916600185901b178555610eb2565b600085815260208120601f198616915b8281101561207057888601518255948401946001909101908401612051565b508582101561208e5787850151600019600388901b60f8161c191681555b5050505050600190811b01905550565b60006001600160a01b03808816835280871660208401525060a060408301526120ca60a0830186611b42565b82810360608401526120dc8186611b42565b905082810360808401526120f081856116b4565b98975050505050505050565b60006020828403121561210e57600080fd5b81516116ad8161167a565b600060033d11156121325760046000803e5060005160e01c5b90565b600060443d10156121435790565b6040516003193d81016004833e81513d67ffffffffffffffff816024840111818411171561217357505050505090565b828501915081518181111561218b5750505050505090565b843d87010160208285010111156121a55750505050505090565b6121b46020828601018761173c565b509095945050505050565b60208082526028908201527f455243313135353a204552433131353552656365697665722072656a656374656040820152676420746f6b656e7360c01b606082015260800190565b60006001600160a01b03808816835280871660208401525084604083015283606083015260a0608083015261223f60a08301846116b4565b97965050505050505056fea264697066735822122013006eada6d65595edccd6ebc0f10b4e6b33d180291616ef3282671784c8ac7164736f6c63430008100033",
  "devdoc": {
    "kind": "dev",
    "methods": {
      "balanceOf(address,uint256)": {
        "details": "Returns the amount of tokens of token type `id` owned by `account`. Requirements: - `account` cannot be the zero address."
      },
      "balanceOfBatch(address[],uint256[])": {
        "details": "See {IERC1155-balanceOfBatch}. Requirements: - `accounts` and `ids` must have the same length."
      },
      "burn(address,uint256,uint256)": {
        "details": "Only owner can burn parts",
        "params": {
          "amount": "Amount of nft that will be burned",
          "from": "An address from which tokens will be burned",
          "id": "Token id"
        }
      },
      "isApprovedForAll(address,address)": {
        "details": "Returns true if `operator` is approved to transfer ``account``'s tokens. See {setApprovalForAll}."
      },
      "mint(address,uint256,uint256,bytes)": {
        "details": "Only owner can mint new parts",
        "params": {
          "account": "An address which will receive new parts",
          "amount": "Amount of nft that will be minted",
          "data": "Custom data",
          "id": "New part id"
        }
      },
      "mintBatch(address,uint256[],uint256[],bytes)": {
        "details": "Only owner can mint new parts",
        "params": {
          "amounts": "Amounts of nfts that will be minted",
          "data": "Custom data",
          "ids": "New part ids",
          "to": "An address which will receive new parts"
        }
      },
      "owner()": {
        "details": "Returns the address of the current owner."
      },
      "renounceOwnership()": {
        "details": "Leaves the contract without owner. It will not be possible to call `onlyOwner` functions anymore. Can only be called by the current owner. NOTE: Renouncing ownership will leave the contract without an owner, thereby removing any functionality that is only available to the owner."
      },
      "safeBatchTransferFrom(address,address,uint256[],uint256[],bytes)": {
        "details": "See {IERC1155-safeBatchTransferFrom}."
      },
      "safeTransferFrom(address,address,uint256,uint256,bytes)": {
        "details": "Transfers `amount` tokens of token type `id` from `from` to `to`. Emits a {TransferSingle} event. Requirements: - `to` cannot be the zero address. - If the caller is not `from`, it must have been approved to spend ``from``'s tokens via {setApprovalForAll}. - `from` must have a balance of tokens of type `id` of at least `amount`. - If `to` refers to a smart contract, it must implement {IERC1155Receiver-onERC1155Received} and return the acceptance magic value."
      },
      "setApprovalForAll(address,bool)": {
        "details": "See {IERC1155-setApprovalForAll}."
      },
      "setFreeParts(uint256[],bool[])": {
        "details": "Only owner can modify free parts",
        "params": {
          "ids": "Token ids",
          "statuses": "Is free parts or not"
        }
      },
      "setSafeApprovedAddress(address,bool)": {
        "details": "Even though function is opened, it can only by contract owner",
        "params": {
          "_address": "An address which will be marked as trusted or not",
          "_status": "Is address trusted or not"
        }
      },
      "supportsInterface(bytes4)": {
        "details": "See {IERC165-supportsInterface}."
      },
      "transferOwnership(address)": {
        "details": "Transfers ownership of the contract to a new account (`newOwner`). Can only be called by the current owner."
      },
      "updateURI(string)": {
        "details": "Only owner can modify base token uri"
      },
      "uri(uint256)": {
        "details": "See {IERC1155MetadataURI-uri}. This implementation returns the same URI for *all* token types. It relies on the token type ID substitution mechanism https://eips.ethereum.org/EIPS/eip-1155#metadata[defined in the EIP]. Clients calling this function must replace the `\\{id\\}` substring with the actual token type ID."
      }
    },
    "stateVariables": {
      "isFreePart": {
        "details": "Updated when #setFreeParts is called"
      },
      "isSafeApprovedAddress": {
        "details": "Updated when #setSafeApprovedAddress"
      },
      "name": {
        "details": "Immutable, initialized on creation"
      },
      "symbol": {
        "details": "Immutable, initialized on creation"
      }
    },
    "title": "Default Banner parts nft",
    "version": 1
  },
  "userdoc": {
    "kind": "user",
    "methods": {
      "burn(address,uint256,uint256)": {
        "notice": "Burns specified id with specified amount from specified address"
      },
      "isFreePart(uint256)": {
        "notice": "Mapping containing if specified token id free or not"
      },
      "isSafeApprovedAddress(address)": {
        "notice": "Trusted addresses map which can transfer without approve (For example: Opensea contract can be trusted so user can list its parts without approve)"
      },
      "mint(address,uint256,uint256,bytes)": {
        "notice": "Mints specified ids with specified amounts to specified address"
      },
      "mintBatch(address,uint256[],uint256[],bytes)": {
        "notice": "Mints batch amount of ids with specified amounts to specified address"
      },
      "name()": {
        "notice": "Collection name"
      },
      "setFreeParts(uint256[],bool[])": {
        "notice": "Sets specified ids as free parts or not free parts"
      },
      "setSafeApprovedAddress(address,bool)": {
        "notice": "Marks provided address as trusted for transfers without approve"
      },
      "symbol()": {
        "notice": "Collection symbol"
      },
      "updateURI(string)": {
        "notice": "Updates base token uri"
      }
    },
    "notice": "Acts as ERC1155 Nft token for banner parts",
    "version": 1
  },
  "storageLayout": {
    "storage": [
      {
        "astId": 329,
        "contract": "contracts/banners/BannerParts.sol:BannerParts",
        "label": "_balances",
        "offset": 0,
        "slot": "0",
        "type": "t_mapping(t_uint256,t_mapping(t_address,t_uint256))"
      },
      {
        "astId": 335,
        "contract": "contracts/banners/BannerParts.sol:BannerParts",
        "label": "_operatorApprovals",
        "offset": 0,
        "slot": "1",
        "type": "t_mapping(t_address,t_mapping(t_address,t_bool))"
      },
      {
        "astId": 337,
        "contract": "contracts/banners/BannerParts.sol:BannerParts",
        "label": "_uri",
        "offset": 0,
        "slot": "2",
        "type": "t_string_storage"
      },
      {
        "astId": 7,
        "contract": "contracts/banners/BannerParts.sol:BannerParts",
        "label": "_owner",
        "offset": 0,
        "slot": "3",
        "type": "t_address"
      },
      {
        "astId": 5979,
        "contract": "contracts/banners/BannerParts.sol:BannerParts",
        "label": "name",
        "offset": 0,
        "slot": "4",
        "type": "t_string_storage"
      },
      {
        "astId": 5982,
        "contract": "contracts/banners/BannerParts.sol:BannerParts",
        "label": "symbol",
        "offset": 0,
        "slot": "5",
        "type": "t_string_storage"
      },
      {
        "astId": 5987,
        "contract": "contracts/banners/BannerParts.sol:BannerParts",
        "label": "isFreePart",
        "offset": 0,
        "slot": "6",
        "type": "t_mapping(t_uint256,t_bool)"
      },
      {
        "astId": 5992,
        "contract": "contracts/banners/BannerParts.sol:BannerParts",
        "label": "isSafeApprovedAddress",
        "offset": 0,
        "slot": "7",
        "type": "t_mapping(t_address,t_bool)"
      }
    ],
    "types": {
      "t_address": {
        "encoding": "inplace",
        "label": "address",
        "numberOfBytes": "20"
      },
      "t_bool": {
        "encoding": "inplace",
        "label": "bool",
        "numberOfBytes": "1"
      },
      "t_mapping(t_address,t_bool)": {
        "encoding": "mapping",
        "key": "t_address",
        "label": "mapping(address => bool)",
        "numberOfBytes": "32",
        "value": "t_bool"
      },
      "t_mapping(t_address,t_mapping(t_address,t_bool))": {
        "encoding": "mapping",
        "key": "t_address",
        "label": "mapping(address => mapping(address => bool))",
        "numberOfBytes": "32",
        "value": "t_mapping(t_address,t_bool)"
      },
      "t_mapping(t_address,t_uint256)": {
        "encoding": "mapping",
        "key": "t_address",
        "label": "mapping(address => uint256)",
        "numberOfBytes": "32",
        "value": "t_uint256"
      },
      "t_mapping(t_uint256,t_bool)": {
        "encoding": "mapping",
        "key": "t_uint256",
        "label": "mapping(uint256 => bool)",
        "numberOfBytes": "32",
        "value": "t_bool"
      },
      "t_mapping(t_uint256,t_mapping(t_address,t_uint256))": {
        "encoding": "mapping",
        "key": "t_uint256",
        "label": "mapping(uint256 => mapping(address => uint256))",
        "numberOfBytes": "32",
        "value": "t_mapping(t_address,t_uint256)"
      },
      "t_string_storage": {
        "encoding": "bytes",
        "label": "string",
        "numberOfBytes": "32"
      },
      "t_uint256": {
        "encoding": "inplace",
        "label": "uint256",
        "numberOfBytes": "32"
      }
    }
  }
}