{
  "address": "0xa8Fc5c63e20A7a1e84523e88a3603Cf468204582",
  "abi": [
    {
      "inputs": [
        {
          "internalType": "uint256",
          "name": "value",
          "type": "uint256"
        },
        {
          "internalType": "uint256",
          "name": "precision",
          "type": "uint256"
        }
      ],
      "name": "isIntegerWithPrecision",
      "outputs": [
        {
          "internalType": "bool",
          "name": "",
          "type": "bool"
        }
      ],
      "stateMutability": "pure",
      "type": "function"
    },
    {
      "inputs": [
        {
          "internalType": "uint256",
          "name": "value",
          "type": "uint256"
        },
        {
          "internalType": "uint256",
          "name": "precision",
          "type": "uint256"
        }
      ],
      "name": "roundDownWithPrecision",
      "outputs": [
        {
          "internalType": "uint256",
          "name": "",
          "type": "uint256"
        }
      ],
      "stateMutability": "pure",
      "type": "function"
    },
    {
      "inputs": [
        {
          "internalType": "uint256",
          "name": "value",
          "type": "uint256"
        },
        {
          "internalType": "uint256",
          "name": "precision",
          "type": "uint256"
        }
      ],
      "name": "roundUpWithPrecision",
      "outputs": [
        {
          "internalType": "uint256",
          "name": "",
          "type": "uint256"
        }
      ],
      "stateMutability": "pure",
      "type": "function"
    },
    {
      "inputs": [
        {
          "internalType": "uint256",
          "name": "y",
          "type": "uint256"
        }
      ],
      "name": "sqrt",
      "outputs": [
        {
          "internalType": "uint256",
          "name": "z",
          "type": "uint256"
        }
      ],
      "stateMutability": "pure",
      "type": "function"
    }
  ],
  "transactionHash": "0x3d14cbdd9c96741d4a56434688152a730097839eda4162fbc1e47b6e18a46b8c",
  "args": [],
  "numDeployments": 1,
  "solcInputHash": "fe31280621a8db2936c7c6268abddf29",
  "bytecode": "0x61029061003a600b82828239805160001a60731461002d57634e487b7160e01b600052600060045260246000fd5b30600052607381538281f3fe73000000000000000000000000000000000000000030146080604052600436106100565760003560e01c80632831163a1461005b578063677342ce146100835780638cfb3504146100a4578063eefe4284146100b7575b600080fd5b61006e610069366004610199565b6100ca565b60405190151581526020015b60405180910390f35b6100966100913660046101bb565b6100e0565b60405190815260200161007a565b6100966100b2366004610199565b610150565b6100966100c5366004610199565b610182565b60006100d682846101ea565b1590505b92915050565b6000600382111561014157508060006100fa600283610214565b610105906001610228565b90505b8181101561013b579050806002816101208186610214565b61012a9190610228565b6101349190610214565b9050610108565b50919050565b811561014b575060015b919050565b60008061015d8484610182565b905061016983856101ea565b1561017b576101788382610228565b90505b9392505050565b60008161018f8185610214565b61017b919061023b565b600080604083850312156101ac57600080fd5b50508035926020909101359150565b6000602082840312156101cd57600080fd5b5035919050565b634e487b7160e01b600052601260045260246000fd5b6000826101f9576101f96101d4565b500690565b634e487b7160e01b600052601160045260246000fd5b600082610223576102236101d4565b500490565b808201808211156100da576100da6101fe565b6000816000190483118215151615610255576102556101fe565b50029056fea2646970667358221220eebfa194c7780f2b40e24645457fbf50491f9c77f1bf57aecf896ed0d840a4bf64736f6c63430008100033",
  "devdoc": {
    "kind": "dev",
    "methods": {
      "isIntegerWithPrecision(uint256,uint256)": {
        "details": "Check if uint256 value with provided precision integer value or not"
      },
      "roundDownWithPrecision(uint256,uint256)": {
        "details": "Rounds uint256 value with provided precision to its integer value rounding down"
      },
      "roundUpWithPrecision(uint256,uint256)": {
        "details": "Rounds uint256 value with provided precision to its integer value rounding up"
      },
      "sqrt(uint256)": {
        "details": "Calculates square root of uint256 using Babylonian Method"
      }
    },
    "title": "Extension of math library",
    "version": 1
  },
  "userdoc": {
    "kind": "user",
    "methods": {},
    "notice": "Contains helper functions for some math operations",
    "version": 1
  },
  "storageLayout": {
    "storage": [],
    "types": null
  }
}