{
  "address": "0xB9Cc4CDE21Ce7961242F57E5736689072a988d0d",
  "abi": [
    {
      "anonymous": false,
      "inputs": [
        {
          "indexed": false,
          "internalType": "uint8",
          "name": "version",
          "type": "uint8"
        }
      ],
      "name": "Initialized",
      "type": "event"
    },
    {
      "inputs": [
        {
          "internalType": "bytes32",
          "name": "",
          "type": "bytes32"
        }
      ],
      "name": "factoryContracts",
      "outputs": [
        {
          "internalType": "address",
          "name": "",
          "type": "address"
        }
      ],
      "stateMutability": "view",
      "type": "function"
    },
    {
      "inputs": [
        {
          "internalType": "uint8",
          "name": "variation",
          "type": "uint8"
        }
      ],
      "name": "getAdvancedProductionTileBonusByVariation",
      "outputs": [
        {
          "internalType": "string",
          "name": "",
          "type": "string"
        },
        {
          "internalType": "uint256",
          "name": "",
          "type": "uint256"
        }
      ],
      "stateMutability": "pure",
      "type": "function"
    },
    {
      "inputs": [],
      "name": "getBaseBattleDuration",
      "outputs": [
        {
          "internalType": "uint256",
          "name": "",
          "type": "uint256"
        }
      ],
      "stateMutability": "pure",
      "type": "function"
    },
    {
      "inputs": [
        {
          "internalType": "string",
          "name": "buildingName",
          "type": "string"
        }
      ],
      "name": "getBasicProductionBuildingCoefficient",
      "outputs": [
        {
          "internalType": "uint256",
          "name": "",
          "type": "uint256"
        }
      ],
      "stateMutability": "pure",
      "type": "function"
    },
    {
      "inputs": [],
      "name": "getBattleDurationStunMultiplier",
      "outputs": [
        {
          "internalType": "uint256",
          "name": "",
          "type": "uint256"
        }
      ],
      "stateMutability": "pure",
      "type": "function"
    },
    {
      "inputs": [],
      "name": "getBattleLobbyDurationPercent",
      "outputs": [
        {
          "internalType": "uint256",
          "name": "",
          "type": "uint256"
        }
      ],
      "stateMutability": "pure",
      "type": "function"
    },
    {
      "inputs": [],
      "name": "getBuildingTokenTransferThresholdPercent",
      "outputs": [
        {
          "internalType": "uint256",
          "name": "",
          "type": "uint256"
        }
      ],
      "stateMutability": "pure",
      "type": "function"
    },
    {
      "inputs": [],
      "name": "getBuildings",
      "outputs": [
        {
          "internalType": "string[]",
          "name": "",
          "type": "string[]"
        }
      ],
      "stateMutability": "pure",
      "type": "function"
    },
    {
      "inputs": [],
      "name": "getCaptureTileDurationPerTile",
      "outputs": [
        {
          "internalType": "uint256",
          "name": "",
          "type": "uint256"
        }
      ],
      "stateMutability": "pure",
      "type": "function"
    },
    {
      "inputs": [],
      "name": "getCultistUnitType",
      "outputs": [
        {
          "internalType": "string",
          "name": "",
          "type": "string"
        }
      ],
      "stateMutability": "pure",
      "type": "function"
    },
    {
      "inputs": [],
      "name": "getCultistsNoDestructionDelay",
      "outputs": [
        {
          "internalType": "uint256",
          "name": "",
          "type": "uint256"
        }
      ],
      "stateMutability": "pure",
      "type": "function"
    },
    {
      "inputs": [],
      "name": "getCultistsPerZoneMultiplier",
      "outputs": [
        {
          "internalType": "uint256",
          "name": "",
          "type": "uint256"
        }
      ],
      "stateMutability": "pure",
      "type": "function"
    },
    {
      "inputs": [],
      "name": "getCultistsSummonDelay",
      "outputs": [
        {
          "internalType": "uint256",
          "name": "",
          "type": "uint256"
        }
      ],
      "stateMutability": "pure",
      "type": "function"
    },
    {
      "inputs": [],
      "name": "getDemilitarizationCooldown",
      "outputs": [
        {
          "internalType": "uint256",
          "name": "",
          "type": "uint256"
        }
      ],
      "stateMutability": "pure",
      "type": "function"
    },
    {
      "inputs": [],
      "name": "getGameResources",
      "outputs": [
        {
          "components": [
            {
              "internalType": "string",
              "name": "tokenName",
              "type": "string"
            },
            {
              "internalType": "string",
              "name": "tokenSymbol",
              "type": "string"
            },
            {
              "internalType": "string",
              "name": "worldResourceName",
              "type": "string"
            }
          ],
          "internalType": "struct IRegistry.GameResource[]",
          "name": "",
          "type": "tuple[]"
        }
      ],
      "stateMutability": "pure",
      "type": "function"
    },
    {
      "inputs": [],
      "name": "getGameUnits",
      "outputs": [
        {
          "components": [
            {
              "internalType": "string",
              "name": "tokenName",
              "type": "string"
            },
            {
              "internalType": "string",
              "name": "tokenSymbol",
              "type": "string"
            },
            {
              "internalType": "string",
              "name": "worldUnitName",
              "type": "string"
            }
          ],
          "internalType": "struct IRegistry.GameUnit[]",
          "name": "",
          "type": "tuple[]"
        }
      ],
      "stateMutability": "pure",
      "type": "function"
    },
    {
      "inputs": [],
      "name": "getGlobalMultiplier",
      "outputs": [
        {
          "internalType": "uint256",
          "name": "",
          "type": "uint256"
        }
      ],
      "stateMutability": "view",
      "type": "function"
    },
    {
      "inputs": [],
      "name": "getMaxAdvancedProductionTileBuff",
      "outputs": [
        {
          "internalType": "uint256",
          "name": "",
          "type": "uint256"
        }
      ],
      "stateMutability": "pure",
      "type": "function"
    },
    {
      "inputs": [],
      "name": "getMaxCapturedTilesForSettlement",
      "outputs": [
        {
          "internalType": "uint256",
          "name": "",
          "type": "uint256"
        }
      ],
      "stateMutability": "pure",
      "type": "function"
    },
    {
      "inputs": [],
      "name": "getMaxCultistsPerZone",
      "outputs": [
        {
          "internalType": "uint256",
          "name": "",
          "type": "uint256"
        }
      ],
      "stateMutability": "pure",
      "type": "function"
    },
    {
      "inputs": [],
      "name": "getMaxSettlementPerZone",
      "outputs": [
        {
          "internalType": "uint256",
          "name": "",
          "type": "uint256"
        }
      ],
      "stateMutability": "pure",
      "type": "function"
    },
    {
      "inputs": [],
      "name": "getMovementDurationStunMultiplier",
      "outputs": [
        {
          "internalType": "uint256",
          "name": "",
          "type": "uint256"
        }
      ],
      "stateMutability": "pure",
      "type": "function"
    },
    {
      "inputs": [],
      "name": "getNecessaryProsperityPercentForClaimingTileCapture",
      "outputs": [
        {
          "internalType": "uint256",
          "name": "",
          "type": "uint256"
        }
      ],
      "stateMutability": "pure",
      "type": "function"
    },
    {
      "inputs": [],
      "name": "getNewSettlementExtraResources",
      "outputs": [
        {
          "components": [
            {
              "internalType": "string",
              "name": "resourceName",
              "type": "string"
            },
            {
              "internalType": "uint256",
              "name": "value",
              "type": "uint256"
            }
          ],
          "internalType": "struct IRegistry.ExtraResource[]",
          "name": "",
          "type": "tuple[]"
        }
      ],
      "stateMutability": "view",
      "type": "function"
    },
    {
      "inputs": [],
      "name": "getNewSettlementStartingPrice",
      "outputs": [
        {
          "internalType": "uint256",
          "name": "",
          "type": "uint256"
        }
      ],
      "stateMutability": "view",
      "type": "function"
    },
    {
      "inputs": [],
      "name": "getNextCaptureProsperityThreshold",
      "outputs": [
        {
          "internalType": "uint256",
          "name": "",
          "type": "uint256"
        }
      ],
      "stateMutability": "pure",
      "type": "function"
    },
    {
      "inputs": [],
      "name": "getProductionTicksInSecond",
      "outputs": [
        {
          "internalType": "uint256",
          "name": "",
          "type": "uint256"
        }
      ],
      "stateMutability": "view",
      "type": "function"
    },
    {
      "inputs": [
        {
          "internalType": "string",
          "name": "unitType",
          "type": "string"
        }
      ],
      "name": "getProsperityForDemilitarization",
      "outputs": [
        {
          "internalType": "uint256",
          "name": "",
          "type": "uint256"
        }
      ],
      "stateMutability": "pure",
      "type": "function"
    },
    {
      "inputs": [
        {
          "internalType": "string",
          "name": "resourceName",
          "type": "string"
        }
      ],
      "name": "getResourceWeight",
      "outputs": [
        {
          "internalType": "uint256",
          "name": "",
          "type": "uint256"
        }
      ],
      "stateMutability": "pure",
      "type": "function"
    },
    {
      "inputs": [],
      "name": "getResources",
      "outputs": [
        {
          "internalType": "string[]",
          "name": "",
          "type": "string[]"
        }
      ],
      "stateMutability": "pure",
      "type": "function"
    },
    {
      "inputs": [],
      "name": "getRobberyFee",
      "outputs": [
        {
          "internalType": "uint256",
          "name": "",
          "type": "uint256"
        }
      ],
      "stateMutability": "view",
      "type": "function"
    },
    {
      "inputs": [
        {
          "internalType": "string",
          "name": "resourceName",
          "type": "string"
        }
      ],
      "name": "getSiegePointsToResourceMultiplier",
      "outputs": [
        {
          "internalType": "uint256",
          "name": "",
          "type": "uint256"
        }
      ],
      "stateMutability": "view",
      "type": "function"
    },
    {
      "inputs": [],
      "name": "getSiegePowerToSiegePointsMultiplier",
      "outputs": [
        {
          "internalType": "uint256",
          "name": "",
          "type": "uint256"
        }
      ],
      "stateMutability": "pure",
      "type": "function"
    },
    {
      "inputs": [],
      "name": "getTileCaptureCancellationFee",
      "outputs": [
        {
          "internalType": "uint256",
          "name": "",
          "type": "uint256"
        }
      ],
      "stateMutability": "pure",
      "type": "function"
    },
    {
      "inputs": [],
      "name": "getToTreasuryPercent",
      "outputs": [
        {
          "internalType": "uint256",
          "name": "",
          "type": "uint256"
        }
      ],
      "stateMutability": "pure",
      "type": "function"
    },
    {
      "inputs": [
        {
          "internalType": "string",
          "name": "resourceName",
          "type": "string"
        }
      ],
      "name": "getToxicityByResource",
      "outputs": [
        {
          "internalType": "uint256",
          "name": "",
          "type": "uint256"
        }
      ],
      "stateMutability": "pure",
      "type": "function"
    },
    {
      "inputs": [],
      "name": "getUnitHiringFortHpMultiplier",
      "outputs": [
        {
          "internalType": "uint256",
          "name": "",
          "type": "uint256"
        }
      ],
      "stateMutability": "pure",
      "type": "function"
    },
    {
      "inputs": [
        {
          "internalType": "string",
          "name": "unitType",
          "type": "string"
        }
      ],
      "name": "getUnitMaxFoodToSpendOnMove",
      "outputs": [
        {
          "internalType": "uint256",
          "name": "",
          "type": "uint256"
        }
      ],
      "stateMutability": "pure",
      "type": "function"
    },
    {
      "inputs": [
        {
          "internalType": "string",
          "name": "unitType",
          "type": "string"
        }
      ],
      "name": "getUnitPriceDropByUnitType",
      "outputs": [
        {
          "internalType": "uint256",
          "name": "",
          "type": "uint256"
        },
        {
          "internalType": "uint256",
          "name": "",
          "type": "uint256"
        }
      ],
      "stateMutability": "pure",
      "type": "function"
    },
    {
      "inputs": [],
      "name": "getUnits",
      "outputs": [
        {
          "internalType": "string[]",
          "name": "",
          "type": "string[]"
        }
      ],
      "stateMutability": "pure",
      "type": "function"
    },
    {
      "inputs": [
        {
          "internalType": "string",
          "name": "buildingName",
          "type": "string"
        }
      ],
      "name": "getWorkerCapacityCoefficient",
      "outputs": [
        {
          "internalType": "uint256",
          "name": "",
          "type": "uint256"
        }
      ],
      "stateMutability": "pure",
      "type": "function"
    },
    {
      "inputs": [],
      "name": "globalMultiplier",
      "outputs": [
        {
          "internalType": "uint256",
          "name": "",
          "type": "uint256"
        }
      ],
      "stateMutability": "view",
      "type": "function"
    },
    {
      "inputs": [
        {
          "internalType": "string",
          "name": "buildingName",
          "type": "string"
        }
      ],
      "name": "hasStartingTreasury",
      "outputs": [
        {
          "internalType": "bool",
          "name": "",
          "type": "bool"
        }
      ],
      "stateMutability": "pure",
      "type": "function"
    },
    {
      "inputs": [
        {
          "internalType": "bytes32",
          "name": "",
          "type": "bytes32"
        }
      ],
      "name": "implementations",
      "outputs": [
        {
          "internalType": "address",
          "name": "",
          "type": "address"
        }
      ],
      "stateMutability": "view",
      "type": "function"
    },
    {
      "inputs": [
        {
          "internalType": "uint256",
          "name": "_globalMultiplier",
          "type": "uint256"
        },
        {
          "internalType": "uint256",
          "name": "_settlementStartingPrice",
          "type": "uint256"
        }
      ],
      "name": "init",
      "outputs": [],
      "stateMutability": "nonpayable",
      "type": "function"
    },
    {
      "inputs": [
        {
          "internalType": "address",
          "name": "",
          "type": "address"
        }
      ],
      "name": "isFactoryContract",
      "outputs": [
        {
          "internalType": "bool",
          "name": "",
          "type": "bool"
        }
      ],
      "stateMutability": "view",
      "type": "function"
    },
    {
      "inputs": [],
      "name": "mightyCreator",
      "outputs": [
        {
          "internalType": "address",
          "name": "",
          "type": "address"
        }
      ],
      "stateMutability": "view",
      "type": "function"
    },
    {
      "inputs": [
        {
          "internalType": "bytes32[]",
          "name": "groupId",
          "type": "bytes32[]"
        },
        {
          "internalType": "address[]",
          "name": "factoryAddresses",
          "type": "address[]"
        }
      ],
      "name": "setFactoryContracts",
      "outputs": [],
      "stateMutability": "nonpayable",
      "type": "function"
    },
    {
      "inputs": [
        {
          "internalType": "bytes32[]",
          "name": "assetIds",
          "type": "bytes32[]"
        },
        {
          "internalType": "address[]",
          "name": "implementationAddresses",
          "type": "address[]"
        }
      ],
      "name": "setImplementations",
      "outputs": [],
      "stateMutability": "nonpayable",
      "type": "function"
    },
    {
      "inputs": [
        {
          "internalType": "string[]",
          "name": "unitTypes",
          "type": "string[]"
        },
        {
          "components": [
            {
              "internalType": "uint256",
              "name": "weaponPowerStage1",
              "type": "uint256"
            },
            {
              "internalType": "uint256",
              "name": "armourPowerStage1",
              "type": "uint256"
            },
            {
              "internalType": "uint256",
              "name": "weaponPowerStage2",
              "type": "uint256"
            },
            {
              "internalType": "uint256",
              "name": "armourPowerStage2",
              "type": "uint256"
            },
            {
              "internalType": "uint256",
              "name": "siegePower",
              "type": "uint256"
            },
            {
              "internalType": "uint256",
              "name": "siegeMaxSupply",
              "type": "uint256"
            },
            {
              "internalType": "uint256",
              "name": "siegeSupport",
              "type": "uint256"
            }
          ],
          "internalType": "struct IRegistry.UnitStats[]",
          "name": "_unitsStats",
          "type": "tuple[]"
        }
      ],
      "name": "setUnitsStats",
      "outputs": [],
      "stateMutability": "nonpayable",
      "type": "function"
    },
    {
      "inputs": [],
      "name": "settlementStartingPrice",
      "outputs": [
        {
          "internalType": "uint256",
          "name": "",
          "type": "uint256"
        }
      ],
      "stateMutability": "view",
      "type": "function"
    },
    {
      "inputs": [
        {
          "internalType": "string",
          "name": "",
          "type": "string"
        }
      ],
      "name": "unitsStats",
      "outputs": [
        {
          "internalType": "uint256",
          "name": "weaponPowerStage1",
          "type": "uint256"
        },
        {
          "internalType": "uint256",
          "name": "armourPowerStage1",
          "type": "uint256"
        },
        {
          "internalType": "uint256",
          "name": "weaponPowerStage2",
          "type": "uint256"
        },
        {
          "internalType": "uint256",
          "name": "armourPowerStage2",
          "type": "uint256"
        },
        {
          "internalType": "uint256",
          "name": "siegePower",
          "type": "uint256"
        },
        {
          "internalType": "uint256",
          "name": "siegeMaxSupply",
          "type": "uint256"
        },
        {
          "internalType": "uint256",
          "name": "siegeSupport",
          "type": "uint256"
        }
      ],
      "stateMutability": "view",
      "type": "function"
    }
  ],
  "transactionHash": "0x6142c104614e601f1d112d156f74e6e7b101735cead09e938a2dac197ba5e58f",
  "args": [],
  "numDeployments": 1,
  "solcInputHash": "ff91993accae657f3de817a725e8c50f",
  "bytecode": "0x608060405234801561001057600080fd5b50612a97806100206000396000f3fe608060405234801561001057600080fd5b506004361061034c5760003560e01c80637a893af5116101bd578063c7388af4116100f9578063dd77e3c7116100a2578063f57333f71161007c578063f57333f714610716578063f8c73bd314610726578063fe9135f01461074e578063ff614f4f1461075757600080fd5b8063dd77e3c7146106ea578063e7cb9a87146106fd578063f51574131461070d57600080fd5b8063d9cf6a26116100d3578063d9cf6a26146106ac578063db2fc996146106b4578063dc488ad6146106c757600080fd5b8063c7388af414610603578063cf0c50171461060b578063d835f1551461069957600080fd5b8063a6896cdb11610166578063b5b41bb611610140578063b5b41bb6146105e9578063b99cb62c14610573578063beaa602d146105f2578063c1cc57b0146105fb57600080fd5b8063a6896cdb146105ab578063aee88f61146105b2578063b22f0c78146105c057600080fd5b8063a476a6c311610197578063a476a6c3146103c8578063a53a3bb71461058f578063a5843f081461059857600080fd5b80637a893af51461057357806397ce92d314610581578063a01849961461058857600080fd5b80634161d4ec1161028c578063610172a71161023557806368e35ca01161020f57806368e35ca0146104815780636f3426da1461054a57806377641f0714610558578063781e0efe1461056b57600080fd5b8063610172a714610509578063636d68541461051e578063657f17fd1461054257600080fd5b806350b345b51161026657806350b345b5146104c55780635b33550a146104ee5780635c13c3bf1461050157600080fd5b80634161d4ec1461048f578063426851b9146104a2578063493d458f146104b757600080fd5b80631dae2152116102f9578063265d3f50116102d3578063265d3f5014610442578063267a02bf146104555780632715305014610468578063355bb5291461048157600080fd5b80631dae2152146103f95780632020e9011461040e578063253a1eac1461042f57600080fd5b806309f04f1c1161032a57806309f04f1c146103c85780631245cbee146103d657806315474408146103eb57600080fd5b8063027aa9f51461035157806302cfeaca1461036f578063051d8db6146103b0575b600080fd5b610359610760565b6040516103669190612433565b60405180910390f35b61039861037d366004612495565b6003602052600090815260409020546001600160a01b031681565b6040516001600160a01b039091168152602001610366565b674563918244f400005b604051908152602001610366565b6703782dace9d900006103ba565b6103de610852565b60405161036691906124ae565b670a688906bd8b00006103ba565b61040161089b565b6040516103669190612575565b61042161041c3660046125ca565b610b48565b6040516103669291906125f4565b6103ba61043d366004612686565b610e97565b6103ba610450366004612686565b61102d565b6103ba610463366004612686565b61121d565b600054610398906201000090046001600160a01b031681565b670429d069189e00006103ba565b6103ba61049d366004612686565b611364565b6104aa611474565b604051610366919061271b565b670853a0d2313c00006103ba565b6103986104d3366004612495565b6002602052600090815260409020546001600160a01b031681565b6103ba6104fc366004612686565b6116a1565b617e906103ba565b61051c6105173660046127bc565b6117fc565b005b61053261052c366004612686565b50600090565b6040519015158152602001610366565b6103ba61197d565b670c7d713b49da00006103ba565b6103ba610566366004612686565b6119a0565b6005546103ba565b6709b6e64a8ec600006103ba565b60036103ba565b60286103ba565b621275006103ba565b61051c6105a6366004612828565b611ae8565b60016103ba565b67120a871cc00200006103ba565b60408051808201825260078152662ba0a92924a7a960c91b60208201529051610366919061284a565b6202a3006103ba565b6103ba60055481565b610359611c23565b6006546103ba565b610664610619366004612686565b80516020818301810180516004808352938301929094019190912092905281546001830154600284015460038501549385015460058601546006909601549395929491939192909187565b604080519788526020880196909652948601939093526060850191909152608084015260a083015260c082015260e001610366565b61051c6106a736600461285d565b611d38565b610359611e8d565b61051c6106c23660046127bc565b611fe4565b6105326106d5366004612982565b60016020526000908152604090205460ff1681565b6103ba6106f8366004612686565b61210b565b69010f0cf064dd592000006103ba565b620d2f006103ba565b69021e19e0c9bab24000006103ba565b610739610734366004612686565b6122c0565b60408051928352602083019190915201610366565b620151806103ba565b6103ba60065481565b6040805160038082526080820190925260609160009190816020015b606081526020019060019003908161077c579050509050604051806040016040528060078152602001662ba0a92924a7a960c91b815250816000815181106107c6576107c66129ab565b60200260200101819052506040518060400160405280600681526020016520a921a422a960d11b81525081600181518110610803576108036129ab565b6020026020010181905250604051806040016040528060088152602001672427a929a2a6a0a760c11b81525081600281518110610842576108426129ab565b6020908102919091010152919050565b604080516000808252602082019092526060919081610894565b60408051808201909152606081526000602082015281526020019060019003908161086c5790505b5092915050565b60408051600480825260a0820190925260609160009190816020015b6108db60405180606001604052806060815260200160608152602001606081525090565b8152602001906001900390816108b757905050905060405180606001604052806040518060400160405280600e81526020016d135a5d1a1c98595d5b48119bdbd960921b8152508152602001604051806040016040528060058152602001641b5193d3d160da1b8152508152602001604051806040016040528060048152602001631193d3d160e21b8152508152508160008151811061097d5761097d6129ab565b602002602001018190525060405180606001604052806040518060400160405280600e81526020016d135a5d1a1c98595d5b4815dbdbd960921b8152508152602001604051806040016040528060058152602001641b55d3d3d160da1b81525081526020016040518060400160405280600481526020016315d3d3d160e21b81525081525081600181518110610a1557610a156129ab565b602002602001018190525060405180606001604052806040518060400160405280600d81526020016c4d697468726165756d204f726560981b8152508152602001604051806040016040528060048152602001636d4f524560e01b8152508152602001604051806040016040528060038152602001624f524560e81b81525081525081600281518110610aaa57610aaa6129ab565b602002602001018190525060405180606001604052806040518060400160405280601081526020016f26b4ba343930b2bab6902bb2b0b837b760811b81525081526020016040518060400160405280600781526020016636aba2a0a827a760c91b8152508152602001604051806040016040528060068152602001652ba2a0a827a760d11b81525081525081600381518110610842576108426129ab565b606060008260ff16600003610b825750506040805180820190915260048152634641524d60e01b6020820152916702c68af0bb1400009150565b8260ff16600103610bb85750506040805180820190915260048152634641524d60e01b6020820152916703782dace9d900009150565b8260ff16600203610bee5750506040805180820190915260048152634641524d60e01b602082015291670429d069189e00009150565b8260ff16600303610c2a57505060408051808201909152600a8152691315535091549352531360b21b6020820152916702c68af0bb1400009150565b8260ff16600403610c6657505060408051808201909152600a8152691315535091549352531360b21b602082015291670429d069189e00009150565b8260ff16600503610ca257505060408051808201909152600a8152691315535091549352531360b21b60208201529167058d15e1762800009150565b8260ff16600603610cd85750506040805180820190915260048152634d494e4560e01b602082015291670429d069189e00009150565b8260ff16600703610d0e5750506040805180820190915260048152634d494e4560e01b60208201529167063eb89da4ed00009150565b8260ff16600803610d445750506040805180820190915260048152634d494e4560e01b602082015291670853a0d2313c00009150565b8260ff16600903610d7c575050604080518082019091526006815265534d4954485960d01b6020820152916706f05b59d3b200009150565b8260ff16600a03610db4575050604080518082019091526006815265534d4954485960d01b6020820152916709b6e64a8ec600009150565b8260ff16600b03610dea5750506040805180820190915260048152631193d49560e21b6020820152916702c68af0bb1400009150565b8260ff16600c03610e205750506040805180820190915260048152631193d49560e21b602082015291670429d069189e00009150565b8260ff16600d03610e565750506040805180820190915260048152631193d49560e21b60208201529167058d15e1762800009150565b60405162461bcd60e51b81526020600482015260116024820152703ab735b737bbb7103b30b934b0ba34b7b760791b60448201526064015b60405180910390fd5b80516020808301919091206040805180820190915260048152631193d3d160e21b9201919091526000907fd090a5d9e290baeb3c0f657cb8df01a7c37d0d11b8a73165ba04298bd71606c38101610ef85750670de0b6b3a764000092915050565b60408051808201909152600481526315d3d3d160e21b6020909101527fa0c2c402a49ee67eb7d8a3e87eb93de113a3a54817e8a70c39ae8ab51c0e12be8101610f4b5750671bc16d674ec8000092915050565b6040805180820190915260038152624f524560e81b6020909101527f624ae31110c92d70b58ec456bb42524ff16773a98936d8ef150f1e6b104b34ab8101610f9d5750673782dace9d90000092915050565b6040805180820190915260068152652ba2a0a827a760d11b6020909101527fbbbd9ae5a4e104776c954879199abf8e14ebd8b157cc822605c7a65f61d37d648101610ff25750676f05b59d3b20000092915050565b60405162461bcd60e51b815260206004820152601060248201526f756e6b6e6f776e207265736f7572636560801b6044820152606401610e8e565b80516020808301919091206040805180820190915260048152634641524d60e01b9201919091526000907fea182adbe8a99c0376d68ae8663b1e572fb013df4142853d0efacd6d83e4a3f3810161108e5750678ac7230489e8000092915050565b60408051808201909152600a8152691315535091549352531360b21b6020909101527f9105c25cd4a4f5de306390a4361214e261c5b47733a14849b60e1afd6befe9a781016110e75750676124fee993bc000092915050565b6040805180820190915260048152634d494e4560e01b6020909101527fba703fbcaf9339015e918255c7c6fb66106877b9277228701a99875362186bbc810161113a5750674563918244f4000092915050565b604080518082019091526006815265534d4954485960d01b6020909101527f172dd3f67874f5199aae0df823a0dbc7dc361e67643d2a2054a704e56cc7902e810161118f57506729a2241af62c000092915050565b6040805180820190915260048152631193d49560e21b6020909101527fd6ee2a35c7750db1280c6e5b14dbb9643f0276ca328c44ef8a35818fd5bd14e781016111e25750674563918244f4000092915050565b60405162461bcd60e51b815260206004820152601060248201526f756e6b6e6f776e206275696c64696e6760801b6044820152606401610e8e565b80516020808301919091206040805180820190915260078152662ba0a92924a7a960c91b9201919091526000907f963ace81a31bb0e5e04a9395a1006fbdeb19cac259cef54f594aee1106583c6f81016112815750670de0b6b3a764000092915050565b60408051808201909152600681526520a921a422a960d11b6020909101527fbd21a0403f8a882c166bd206a22b19e35435476f82a2cccdbfebf4d666c861c081016112d657506703782dace9d9000092915050565b6040805180820190915260088152672427a929a2a6a0a760c11b6020909101527f762a1190b034cd04c3eae43da1943cdf0137d457634c4d62e69626f81f1986c7810161132d575067016345785d8a000092915050565b60405162461bcd60e51b815260206004820152600c60248201526b1d5b9adb9bdddb881d5b9a5d60a21b6044820152606401610e8e565b80516020808301919091206040805180820190915260078152662ba0a92924a7a960c91b9201919091526000907f963ace81a31bb0e5e04a9395a1006fbdeb19cac259cef54f594aee1106583c6f81016113c85750671bc16d674ec8000092915050565b60408051808201909152600681526520a921a422a960d11b6020909101527fbd21a0403f8a882c166bd206a22b19e35435476f82a2cccdbfebf4d666c861c0810161141d57506729a2241af62c000092915050565b6040805180820190915260088152672427a929a2a6a0a760c11b6020909101527f762a1190b034cd04c3eae43da1943cdf0137d457634c4d62e69626f81f1986c7810161132d5750673782dace9d90000092915050565b6040805160038082526080820190925260609160009190816020015b6114b460405180606001604052806060815260200160608152602001606081525090565b81526020019060019003908161149057905050905060405180606001604052806040518060400160405280601181526020017026b4ba343930b2bab6902bb0b93934b7b960791b81525081526020016040518060400160405280600881526020016736aba0a92924a7a960c11b8152508152602001604051806040016040528060078152602001662ba0a92924a7a960c91b8152508152508160008151811061155f5761155f6129ab565b602002602001018190525060405180606001604052806040518060400160405280601081526020016f26b4ba343930b2bab69020b931b432b960811b81525081526020016040518060400160405280600781526020016636a0a921a422a960c91b81525081526020016040518060400160405280600681526020016520a921a422a960d11b815250815250816001815181106115fd576115fd6129ab565b602002602001018190525060405180606001604052806040518060400160405280601281526020017126b4ba343930b2bab6902437b939b2b6b0b760711b81525081526020016040518060400160405280600981526020016836a427a929a2a6a0a760b91b8152508152602001604051806040016040528060088152602001672427a929a2a6a0a760c11b81525081525081600281518110610842576108426129ab565b80516020808301919091206040805180820190915260048152631193d3d160e21b9201919091526000907fd090a5d9e290baeb3c0f657cb8df01a7c37d0d11b8a73165ba04298bd71606c381016117025750670de0b6b3a764000092915050565b60408051808201909152600481526315d3d3d160e21b6020909101527fa0c2c402a49ee67eb7d8a3e87eb93de113a3a54817e8a70c39ae8ab51c0e12be81016117555750670de0b6b3a764000092915050565b6040805180820190915260038152624f524560e81b6020909101527f624ae31110c92d70b58ec456bb42524ff16773a98936d8ef150f1e6b104b34ab81016117a75750670de0b6b3a764000092915050565b6040805180820190915260068152652ba2a0a827a760d11b6020909101527fbbbd9ae5a4e104776c954879199abf8e14ebd8b157cc822605c7a65f61d37d648101610ff25750670de0b6b3a764000092915050565b6000546201000090046001600160a01b031633146118505760405162461bcd60e51b815260206004820152601160248201527037b7363ca6b4b3b43a3ca1b932b0ba37b960791b6044820152606401610e8e565b82811461188f5760405162461bcd60e51b815260206004820152600d60248201526c1a5b9d985b1a59081a5b9c1d5d609a1b6044820152606401610e8e565b60005b83811015611976578282828181106118ac576118ac6129ab565b90506020020160208101906118c19190612982565b600260008787858181106118d7576118d76129ab565b90506020020135815260200190815260200160002060006101000a8154816001600160a01b0302191690836001600160a01b031602179055506001806000858585818110611927576119276129ab565b905060200201602081019061193c9190612982565b6001600160a01b031681526020810191909152604001600020805460ff19169115159190911790558061196e816129c1565b915050611892565b5050505050565b600061199b670de0b6b3a764000069021e19e0c9bab24000006129e8565b905090565b80516020808301919091206040805180820190915260048152631193d3d160e21b9201919091526000907fd090a5d9e290baeb3c0f657cb8df01a7c37d0d11b8a73165ba04298bd71606c381016119fa5750600092915050565b60408051808201909152600481526315d3d3d160e21b6020909101527fa0c2c402a49ee67eb7d8a3e87eb93de113a3a54817e8a70c39ae8ab51c0e12be8101611a465750600192915050565b6040805180820190915260038152624f524560e81b6020909101527f624ae31110c92d70b58ec456bb42524ff16773a98936d8ef150f1e6b104b34ab8101611a915750600292915050565b6040805180820190915260068152652ba2a0a827a760d11b6020909101527fbbbd9ae5a4e104776c954879199abf8e14ebd8b157cc822605c7a65f61d37d648101611adf5750600392915050565b50600092915050565b600054610100900460ff1615808015611b085750600054600160ff909116105b80611b225750303b158015611b22575060005460ff166001145b611b855760405162461bcd60e51b815260206004820152602e60248201527f496e697469616c697a61626c653a20636f6e747261637420697320616c72656160448201526d191e481a5b9a5d1a585b1a5e995960921b6064820152608401610e8e565b6000805460ff191660011790558015611ba8576000805461ff0019166101001790555b6000805475ffffffffffffffffffffffffffffffffffffffff00001916336201000002179055600583905560068290558015611c1e576000805461ff0019169055604051600181527f7f26b83ff96e1f2b6a682f133852f6798a09c465da95921460cefb38474024989060200160405180910390a15b505050565b60408051600480825260a0820190925260609160009190816020015b6060815260200190600190039081611c3f579050509050604051806040016040528060048152602001631193d3d160e21b81525081600081518110611c8657611c866129ab565b60200260200101819052506040518060400160405280600481526020016315d3d3d160e21b81525081600181518110611cc157611cc16129ab565b6020026020010181905250604051806040016040528060038152602001624f524560e81b81525081600281518110611cfb57611cfb6129ab565b6020026020010181905250604051806040016040528060068152602001652ba2a0a827a760d11b81525081600381518110610842576108426129ab565b6000546201000090046001600160a01b03163314611d8c5760405162461bcd60e51b815260206004820152601160248201527037b7363ca6b4b3b43a3ca1b932b0ba37b960791b6044820152606401610e8e565b80518214611dcc5760405162461bcd60e51b815260206004820152600d60248201526c1a5b9d985b1a59081a5b9c1d5d609a1b6044820152606401610e8e565b60005b82811015611e8757818181518110611de957611de96129ab565b60200260200101516004858584818110611e0557611e056129ab565b9050602002810190611e179190612a0a565b604051611e25929190612a51565b9081526040805160209281900383019020835181559183015160018301558201516002820155606082015160038201556080820151600482015560a0820151600582015560c09091015160069091015580611e7f816129c1565b915050611dcf565b50505050565b60408051600580825260c0820190925260609160009190816020015b6060815260200190600190039081611ea9579050509050604051806040016040528060048152602001634641524d60e01b81525081600081518110611ef057611ef06129ab565b60200260200101819052506040518060400160405280600a8152602001691315535091549352531360b21b81525081600181518110611f3157611f316129ab565b6020026020010181905250604051806040016040528060048152602001634d494e4560e01b81525081600281518110611f6c57611f6c6129ab565b602002602001018190525060405180604001604052806006815260200165534d4954485960d01b81525081600381518110611fa957611fa96129ab565b6020026020010181905250604051806040016040528060048152602001631193d49560e21b81525081600481518110610842576108426129ab565b6000546201000090046001600160a01b031633146120385760405162461bcd60e51b815260206004820152601160248201527037b7363ca6b4b3b43a3ca1b932b0ba37b960791b6044820152606401610e8e565b8281146120775760405162461bcd60e51b815260206004820152600d60248201526c1a5b9d985b1a59081a5b9c1d5d609a1b6044820152606401610e8e565b60005b8381101561197657828282818110612094576120946129ab565b90506020020160208101906120a99190612982565b600360008787858181106120bf576120bf6129ab565b90506020020135815260200190815260200160002060006101000a8154816001600160a01b0302191690836001600160a01b031602179055508080612103906129c1565b91505061207a565b80516020808301919091206040805180820190915260048152634641524d60e01b9201919091526000907fea182adbe8a99c0376d68ae8663b1e572fb013df4142853d0efacd6d83e4a3f3810161216c57506706f05b59d3b2000092915050565b60408051808201909152600a8152691315535091549352531360b21b6020909101527f9105c25cd4a4f5de306390a4361214e261c5b47733a14849b60e1afd6befe9a781016121c557506704db73254763000092915050565b6040805180820190915260048152634d494e4560e01b6020909101527fba703fbcaf9339015e918255c7c6fb66106877b9277228701a99875362186bbc810161221857506703782dace9d9000092915050565b604080518082019091526006815265534d4954485960d01b6020909101527f172dd3f67874f5199aae0df823a0dbc7dc361e67643d2a2054a704e56cc7902e810161226d57506702c68af0bb14000092915050565b6040805180820190915260048152631193d49560e21b6020909101527fd6ee2a35c7750db1280c6e5b14dbb9643f0276ca328c44ef8a35818fd5bd14e781016111e257506702c68af0bb14000092915050565b80516020808301919091206040805180820190915260078152662ba0a92924a7a960c91b92019190915260009081907f963ace81a31bb0e5e04a9395a1006fbdeb19cac259cef54f594aee1106583c6f810161232f5750662386eaaf21062593662386f26fc100009350915050565b60408051808201909152600681526520a921a422a960d11b6020909101527fbd21a0403f8a882c166bd206a22b19e35435476f82a2cccdbfebf4d666c861c0810161238d5750662386ec6c5bd11693662386f26fc100009350915050565b6040805180820190915260088152672427a929a2a6a0a760c11b6020909101527f762a1190b034cd04c3eae43da1943cdf0137d457634c4d62e69626f81f1986c7810161132d5750662386ee0e96833693662386f26fc100009350915050565b6000815180845260005b81811015612413576020818501810151868301820152016123f7565b506000602082860101526020601f19601f83011685010191505092915050565b6000602080830181845280855180835260408601915060408160051b870101925083870160005b8281101561248857603f198886030184526124768583516123ed565b9450928501929085019060010161245a565b5092979650505050505050565b6000602082840312156124a757600080fd5b5035919050565b60006020808301818452808551808352604092508286019150828160051b87010184880160005b8381101561251657888303603f19018552815180518785526124f9888601826123ed565b9189015194890194909452948701949250908601906001016124d5565b509098975050505050505050565b600081516060845261253960608501826123ed565b90506020830151848203602086015261255282826123ed565b9150506040830151848203604086015261256c82826123ed565b95945050505050565b6000602080830181845280855180835260408601915060408160051b870101925083870160005b8281101561248857603f198886030184526125b8858351612524565b9450928501929085019060010161259c565b6000602082840312156125dc57600080fd5b813560ff811681146125ed57600080fd5b9392505050565b60408152600061260760408301856123ed565b90508260208301529392505050565b634e487b7160e01b600052604160045260246000fd5b60405160e0810167ffffffffffffffff8111828210171561264f5761264f612616565b60405290565b604051601f8201601f1916810167ffffffffffffffff8111828210171561267e5761267e612616565b604052919050565b6000602080838503121561269957600080fd5b823567ffffffffffffffff808211156126b157600080fd5b818501915085601f8301126126c557600080fd5b8135818111156126d7576126d7612616565b6126e9601f8201601f19168501612655565b915080825286848285010111156126ff57600080fd5b8084840185840137600090820190930192909252509392505050565b6000602080830181845280855180835260408601915060408160051b870101925083870160005b8281101561248857603f1988860301845261275e858351612524565b94509285019290850190600101612742565b60008083601f84011261278257600080fd5b50813567ffffffffffffffff81111561279a57600080fd5b6020830191508360208260051b85010111156127b557600080fd5b9250929050565b600080600080604085870312156127d257600080fd5b843567ffffffffffffffff808211156127ea57600080fd5b6127f688838901612770565b9096509450602087013591508082111561280f57600080fd5b5061281c87828801612770565b95989497509550505050565b6000806040838503121561283b57600080fd5b50508035926020909101359150565b6020815260006125ed60208301846123ed565b6000806000604080858703121561287357600080fd5b843567ffffffffffffffff8082111561288b57600080fd5b61289788838901612770565b90965094506020915086820135818111156128b157600080fd5b8701601f810189136128c257600080fd5b8035828111156128d4576128d4612616565b6128e2848260051b01612655565b818152848101935060e091820283018501918b83111561290157600080fd5b928501925b828410156129715780848d03121561291e5760008081fd5b61292661262c565b8435815286850135878201528785013588820152606080860135908201526080808601359082015260a0808601359082015260c0808601359082015285529385019392830192612906565b508096505050505050509250925092565b60006020828403121561299457600080fd5b81356001600160a01b03811681146125ed57600080fd5b634e487b7160e01b600052603260045260246000fd5b6000600182016129e157634e487b7160e01b600052601160045260246000fd5b5060010190565b600082612a0557634e487b7160e01b600052601260045260246000fd5b500490565b6000808335601e19843603018112612a2157600080fd5b83018035915067ffffffffffffffff821115612a3c57600080fd5b6020019150368190038213156127b557600080fd5b818382376000910190815291905056fea26469706673582212202c637826a8fa04a26f3062991bfecd9f3dec4cbcd1442aa7d6ca147250275dce64736f6c63430008100033",
  "devdoc": {
    "kind": "dev",
    "methods": {
      "getAdvancedProductionTileBonusByVariation(uint8)": {
        "details": "Used to determine tile bonus by tile bonus variation",
        "params": {
          "tileBonusVariation": "Tile bonus variation"
        }
      },
      "getBaseBattleDuration()": {
        "details": "Used internally to determine how long battle will last",
        "returns": {
          "_0": "Base battle duration"
        }
      },
      "getBasicProductionBuildingCoefficient(string)": {
        "details": "used for internal calculation of production result",
        "params": {
          "buildingName": "Building type"
        },
        "returns": {
          "_0": "Basic production building coefficient"
        }
      },
      "getBattleDurationStunMultiplier()": {
        "details": "Used internally to determine how long stun will last after army lost battle",
        "returns": {
          "_0": "Battle duration stun multiplier"
        }
      },
      "getBattleLobbyDurationPercent()": {
        "details": "Used internally to determine how long lobby phase will last",
        "returns": {
          "_0": "Battle lobby phase duration percent"
        }
      },
      "getBuildingTokenTransferThresholdPercent()": {
        "details": "Used to determine is building token transfer allowed based on treasury percent",
        "returns": {
          "_0": "Building token transfer threshold percent"
        }
      },
      "getBuildings()": {
        "details": "Used internally to determine which buildings will be created on placing settlement",
        "returns": {
          "_0": "Buildings"
        }
      },
      "getCaptureTileDurationPerTile()": {
        "details": "Used to capture tile duration calculation",
        "returns": {
          "_0": "Capture tile duration per tile"
        }
      },
      "getCultistUnitType()": {
        "details": "Determines type of unit in cultists army",
        "returns": {
          "_0": "Cultists unit type"
        }
      },
      "getCultistsNoDestructionDelay()": {
        "details": "Used to determine if destruction is available or not",
        "returns": {
          "_0": "No destruction interval duration (in seconds)"
        }
      },
      "getCultistsPerZoneMultiplier()": {
        "details": "Used to determine amount of cultists that have to be present for world destruction",
        "returns": {
          "_0": "Value of cultists per zone"
        }
      },
      "getCultistsSummonDelay()": {
        "details": "Used to determine is cultists can be re-summoned",
        "returns": {
          "_0": "Cultists summon delay (in seconds)"
        }
      },
      "getDemilitarizationCooldown()": {
        "details": "Used for army demilitarization restriction",
        "returns": {
          "_0": "Demilitarization cooldown in seconds"
        }
      },
      "getGameResources()": {
        "details": "Used internally to determine upgrade costs and providing initial resources for settlement owner based on his tier",
        "params": {
          "resources": "Game resources"
        }
      },
      "getGameUnits()": {
        "details": "Used internally in many places where interaction with units is necessary",
        "returns": {
          "_0": "Game units"
        }
      },
      "getGlobalMultiplier()": {
        "details": "Used everywhere, where time is involved. Essentially determines game speed",
        "returns": {
          "_0": "Global multiplier"
        }
      },
      "getMaxAdvancedProductionTileBuff()": {
        "details": "Used for determination advanced production multiplier",
        "returns": {
          "_0": "Max potential advanced production from tile buff"
        }
      },
      "getMaxCapturedTilesForSettlement()": {
        "details": "Used to determine whether settlement can initiate tile capture",
        "returns": {
          "_0": "Max captured tiles for settlement"
        }
      },
      "getMaxCultistsPerZone()": {
        "details": "Used to determine how many cultists will be summoned",
        "returns": {
          "_0": "Maximum amount of cultists"
        }
      },
      "getMaxSettlementPerZone()": {
        "details": "Cultists does not count (so +1 with cultists)",
        "returns": {
          "_0": "Max settlement that can be placed in one zone"
        }
      },
      "getMovementDurationStunMultiplier()": {
        "details": "Used internally to determine how long stun will last after armies' movement",
        "returns": {
          "_0": "Movement duration stun multiplier"
        }
      },
      "getNecessaryProsperityPercentForClaimingTileCapture()": {
        "details": "Used to determine if tile claim is possible",
        "returns": {
          "_0": "Necessary prosperity percent for claiming tile capture"
        }
      },
      "getNewSettlementExtraResources()": {
        "details": "During settlement creation continent contract uses output from this function to determine how much extra resources to mint",
        "returns": {
          "_0": "Extra resources which will be minted to user when new settlement is placed"
        }
      },
      "getNewSettlementStartingPrice()": {
        "details": "Used to determine how much base price for first settlement will be",
        "returns": {
          "_0": "New settlement starting price"
        }
      },
      "getNextCaptureProsperityThreshold()": {
        "details": "Used to determine if new bid on captured tile is possible",
        "returns": {
          "_0": "Next capture prosperity threshold"
        }
      },
      "getProductionTicksInSecond()": {
        "details": "Used for production calculation",
        "returns": {
          "_0": "Amount of production ticks"
        }
      },
      "getProsperityForDemilitarization(string)": {
        "details": "Used internally to calculate how much prosperity will be given",
        "returns": {
          "_0": "Prosperity amount per one unit (in 1e18 precision)"
        }
      },
      "getResourceWeight(string)": {
        "details": "Used for calculation how much prosperity will be produced by resource in treasury",
        "params": {
          "resourceName": "Resource name"
        },
        "returns": {
          "_0": "Resource weight (in 1e0 precision)"
        }
      },
      "getResources()": {
        "details": "Used internally to determine upgrade costs and providing initial resources for settlement owner based on his tier",
        "params": {
          "resources": "Game resources"
        }
      },
      "getRobberyFee()": {
        "details": "Used in determination how much of resource will be burned during robbery",
        "returns": {
          "_0": "Robbery fee (in 1e18 precision, where 1e18 is 100%)"
        }
      },
      "getSiegePointsToResourceMultiplier(string)": {
        "details": "Used in calculation how many resources can be exchanged for siege points",
        "params": {
          "resourceName": "Resource name"
        },
        "returns": {
          "_0": "Siege point multiplier (in 1e18 precision)"
        }
      },
      "getSiegePowerToSiegePointsMultiplier()": {
        "details": "Used for determination how much siege points will be given",
        "returns": {
          "_0": "Siege power to siege siege points multiplier (in 1e18 precision)"
        }
      },
      "getTileCaptureCancellationFee()": {
        "details": "Used to determine how much prosperity has to be given in order to cancel tile capture",
        "returns": {
          "_0": "Tile capture cancellation fee"
        }
      },
      "getToTreasuryPercent()": {
        "details": "Determines how much of buildings production will go to treasury (if not full)",
        "params": {
          "toTreasuryPercent": "Production to treasury percent (in 1e18 precision, where 1e18 is 100%)"
        }
      },
      "getToxicityByResource(string)": {
        "details": "Used for minting/burning toxicity",
        "params": {
          "resourceName": "Resource name"
        },
        "returns": {
          "_0": "Amount of toxicity per 1 resource (both are in 1e18 precision)"
        }
      },
      "getUnitHiringFortHpMultiplier()": {
        "details": "Used to determine how much units in army can be presented based on its current fort hp and this parameter",
        "returns": {
          "_0": "Unit hiring fort hp multiplier"
        }
      },
      "getUnitMaxFoodToSpendOnMove(string)": {
        "details": "Used internally to calculate army's movement speed",
        "params": {
          "unitType": "Unit type"
        },
        "returns": {
          "_0": "Maximum amount of food to spend on move (in 1e18 precision)"
        }
      },
      "getUnitPriceDropByUnitType(string)": {
        "details": "Used for determination of current unit pool price",
        "params": {
          "unitType": "Unit type"
        },
        "returns": {
          "_0": "Numerator",
          "_1": "Denominator"
        }
      },
      "getUnits()": {
        "details": "Used internally in many places where interaction with units is necessary",
        "returns": {
          "_0": "Game units"
        }
      },
      "getWorkerCapacityCoefficient(string)": {
        "details": "Used for internal calculation of max workers for each building",
        "params": {
          "buildingName": "Building type"
        },
        "returns": {
          "_0": "Worker capacity coefficient"
        }
      },
      "hasStartingTreasury(string)": {
        "details": "Used for determination if treasury should be filled on settlement creation",
        "params": {
          "buildingName": "Building type"
        },
        "returns": {
          "_0": "If treasury should be filled"
        }
      },
      "init(uint256,uint256)": {
        "details": "Called by address which created current instance",
        "params": {
          "globalMultiplier": "Global multiplier",
          "settlementStartingPrice": "Settlement starting price"
        }
      },
      "setFactoryContracts(bytes32[],address[])": {
        "details": "Even though function is opened, it can be called only by mightyCreator",
        "params": {
          "factoryAddresses": "Factory addresses",
          "groupId": "Group id"
        }
      },
      "setImplementations(bytes32[],address[])": {
        "details": "Even though function is opened, it can be called only by mightyCreator",
        "params": {
          "assetIds": "Asset ids",
          "implementationAddresses": "Implementation addresses"
        }
      },
      "setUnitsStats(string[],(uint256,uint256,uint256,uint256,uint256,uint256,uint256)[])": {
        "details": "Even though function is opened, it can be called only by mightyCreator",
        "params": {
          "unitTypes": "Unit type",
          "unitsStats": "Units stats"
        }
      }
    },
    "stateVariables": {
      "factoryContracts": {
        "details": "Updated when #setFactoryContracts is calledDuring new world asset creation process registry is asked for factory contract for exact world asset type, which will contain creation method for new world asset"
      },
      "globalMultiplier": {
        "details": "Immutable, initialized on the registry creation"
      },
      "implementations": {
        "details": "Updated when #setImplementations is calledEvery worlds assets implementation (code, not data) will be defined by value from this mapping"
      },
      "isFactoryContract": {
        "details": "Updated when #setFactoryContracts is called"
      },
      "mightyCreator": {
        "details": "Immutable, initialized on the registry creation"
      },
      "settlementStartingPrice": {
        "details": "Immutable, initialized on the registry creation"
      },
      "unitsStats": {
        "details": "Updated when #setUnitStats is called"
      }
    },
    "version": 1
  },
  "userdoc": {
    "kind": "user",
    "methods": {
      "factoryContracts(bytes32)": {
        "notice": "Mapping containing factory contracts addresses by provided asset types"
      },
      "getAdvancedProductionTileBonusByVariation(uint8)": {
        "notice": "Returns advanced production tile bonus by variation"
      },
      "getBaseBattleDuration()": {
        "notice": "Returns base battle duration"
      },
      "getBasicProductionBuildingCoefficient(string)": {
        "notice": "Calculates basic production building coefficient"
      },
      "getBattleDurationStunMultiplier()": {
        "notice": "Returns battle duration stun multiplier"
      },
      "getBattleLobbyDurationPercent()": {
        "notice": "Returns battle lobby phase duration percent (in 1e18 precision)"
      },
      "getBuildingTokenTransferThresholdPercent()": {
        "notice": "Returns building token transfer threshold percent"
      },
      "getBuildings()": {
        "notice": "Returns game buildings"
      },
      "getCaptureTileDurationPerTile()": {
        "notice": "Returns capture tile duration per each tile in distance from settlement to selected tile"
      },
      "getCultistUnitType()": {
        "notice": "Returns unit type of cultists army"
      },
      "getCultistsNoDestructionDelay()": {
        "notice": "Returns interval duration where world is not destructible after recent cultists summon"
      },
      "getCultistsPerZoneMultiplier()": {
        "notice": "Returns value of cultists per zone which determines cultists threshold for world destruction"
      },
      "getCultistsSummonDelay()": {
        "notice": "Returns cultists summon delay"
      },
      "getDemilitarizationCooldown()": {
        "notice": "Returns army demilitarization cooldown in seconds"
      },
      "getGameResources()": {
        "notice": "Returns game resources"
      },
      "getGameUnits()": {
        "notice": "Returns game units"
      },
      "getGlobalMultiplier()": {
        "notice": "Returns global multiplier"
      },
      "getMaxAdvancedProductionTileBuff()": {
        "notice": "Returns max potential advanced production buff gain from capturing tiles"
      },
      "getMaxCapturedTilesForSettlement()": {
        "notice": "Returns max captured tiles for settlement"
      },
      "getMaxCultistsPerZone()": {
        "notice": "Returns maximum amount of cultists that can be present in zone"
      },
      "getMaxSettlementPerZone()": {
        "notice": "Returns max settlement that can be placed in one zone"
      },
      "getMovementDurationStunMultiplier()": {
        "notice": "Returns movement duration stun multiplier"
      },
      "getNecessaryProsperityPercentForClaimingTileCapture()": {
        "notice": "Returns percent of prosperity that has to be in settlement for claiming captured tile"
      },
      "getNewSettlementExtraResources()": {
        "notice": "Returns extra resources which will be minted to user when new settlement is placed"
      },
      "getNewSettlementStartingPrice()": {
        "notice": "Returns new settlement starting price in settlements market"
      },
      "getNextCaptureProsperityThreshold()": {
        "notice": "Returns next capture prosperity threshold"
      },
      "getProductionTicksInSecond()": {
        "notice": "Returns amount of production ticks"
      },
      "getProsperityForDemilitarization(string)": {
        "notice": "Returns how much prosperity will be given for provided unit type"
      },
      "getResourceWeight(string)": {
        "notice": "Calculates resource weight"
      },
      "getResources()": {
        "notice": "Returns game resources"
      },
      "getRobberyFee()": {
        "notice": "Returns robbery fee"
      },
      "getSiegePointsToResourceMultiplier(string)": {
        "notice": "Returns siege point multiplier by provided resource"
      },
      "getSiegePowerToSiegePointsMultiplier()": {
        "notice": "Returns siege power to siege siege points multiplier"
      },
      "getTileCaptureCancellationFee()": {
        "notice": "Returns tile capture cancellation fee"
      },
      "getToTreasuryPercent()": {
        "notice": "Returns production to treasury percent"
      },
      "getToxicityByResource(string)": {
        "notice": "Calculates toxicity by resource ratio"
      },
      "getUnitHiringFortHpMultiplier()": {
        "notice": "Returns unit hiring fort hp multiplier"
      },
      "getUnitMaxFoodToSpendOnMove(string)": {
        "notice": "Returns how much food unit can take from treasury to increase its army movement speed"
      },
      "getUnitPriceDropByUnitType(string)": {
        "notice": "Returns unit pool price drop per second for provided unit type, provided as numerator and denominator"
      },
      "getUnits()": {
        "notice": "Returns game units"
      },
      "getWorkerCapacityCoefficient(string)": {
        "notice": "Calculates worker capacity coefficient for provided building type"
      },
      "globalMultiplier()": {
        "notice": "Global multiplier"
      },
      "hasStartingTreasury(string)": {
        "notice": "Calculates if provided building has starting treasury on creation"
      },
      "implementations(bytes32)": {
        "notice": "Mapping containing assets implementations addresses by provided asset id"
      },
      "init(uint256,uint256)": {
        "notice": "Proxy initializer"
      },
      "isFactoryContract(address)": {
        "notice": "Mapping containing is provided address a factory contract or not"
      },
      "mightyCreator()": {
        "notice": "An address which can configure/reconfigure current game"
      },
      "setFactoryContracts(bytes32[],address[])": {
        "notice": "Sets provided address as factory contract for provided group id"
      },
      "setImplementations(bytes32[],address[])": {
        "notice": "Sets provided address as implementation for provided asset ids"
      },
      "setUnitsStats(string[],(uint256,uint256,uint256,uint256,uint256,uint256,uint256)[])": {
        "notice": "Sets units stats for provided unit types"
      },
      "settlementStartingPrice()": {
        "notice": "Settlement starting price"
      },
      "unitsStats(string)": {
        "notice": "Mapping containing units stats by provided unit types"
      }
    },
    "version": 1
  },
  "storageLayout": {
    "storage": [
      {
        "astId": 6,
        "contract": "contracts/core/Registry.sol:Registry",
        "label": "_initialized",
        "offset": 0,
        "slot": "0",
        "type": "t_uint8"
      },
      {
        "astId": 9,
        "contract": "contracts/core/Registry.sol:Registry",
        "label": "_initializing",
        "offset": 1,
        "slot": "0",
        "type": "t_bool"
      },
      {
        "astId": 3259,
        "contract": "contracts/core/Registry.sol:Registry",
        "label": "mightyCreator",
        "offset": 2,
        "slot": "0",
        "type": "t_address"
      },
      {
        "astId": 3265,
        "contract": "contracts/core/Registry.sol:Registry",
        "label": "isFactoryContract",
        "offset": 0,
        "slot": "1",
        "type": "t_mapping(t_address,t_bool)"
      },
      {
        "astId": 3271,
        "contract": "contracts/core/Registry.sol:Registry",
        "label": "factoryContracts",
        "offset": 0,
        "slot": "2",
        "type": "t_mapping(t_bytes32,t_address)"
      },
      {
        "astId": 3277,
        "contract": "contracts/core/Registry.sol:Registry",
        "label": "implementations",
        "offset": 0,
        "slot": "3",
        "type": "t_mapping(t_bytes32,t_address)"
      },
      {
        "astId": 3284,
        "contract": "contracts/core/Registry.sol:Registry",
        "label": "unitsStats",
        "offset": 0,
        "slot": "4",
        "type": "t_mapping(t_string_memory_ptr,t_struct(UnitStats)2639_storage)"
      },
      {
        "astId": 3288,
        "contract": "contracts/core/Registry.sol:Registry",
        "label": "globalMultiplier",
        "offset": 0,
        "slot": "5",
        "type": "t_uint256"
      },
      {
        "astId": 3292,
        "contract": "contracts/core/Registry.sol:Registry",
        "label": "settlementStartingPrice",
        "offset": 0,
        "slot": "6",
        "type": "t_uint256"
      }
    ],
    "types": {
      "t_address": {
        "encoding": "inplace",
        "label": "address",
        "numberOfBytes": "20"
      },
      "t_bool": {
        "encoding": "inplace",
        "label": "bool",
        "numberOfBytes": "1"
      },
      "t_bytes32": {
        "encoding": "inplace",
        "label": "bytes32",
        "numberOfBytes": "32"
      },
      "t_mapping(t_address,t_bool)": {
        "encoding": "mapping",
        "key": "t_address",
        "label": "mapping(address => bool)",
        "numberOfBytes": "32",
        "value": "t_bool"
      },
      "t_mapping(t_bytes32,t_address)": {
        "encoding": "mapping",
        "key": "t_bytes32",
        "label": "mapping(bytes32 => address)",
        "numberOfBytes": "32",
        "value": "t_address"
      },
      "t_mapping(t_string_memory_ptr,t_struct(UnitStats)2639_storage)": {
        "encoding": "mapping",
        "key": "t_string_memory_ptr",
        "label": "mapping(string => struct IRegistry.UnitStats)",
        "numberOfBytes": "32",
        "value": "t_struct(UnitStats)2639_storage"
      },
      "t_string_memory_ptr": {
        "encoding": "bytes",
        "label": "string",
        "numberOfBytes": "32"
      },
      "t_struct(UnitStats)2639_storage": {
        "encoding": "inplace",
        "label": "struct IRegistry.UnitStats",
        "members": [
          {
            "astId": 2626,
            "contract": "contracts/core/Registry.sol:Registry",
            "label": "weaponPowerStage1",
            "offset": 0,
            "slot": "0",
            "type": "t_uint256"
          },
          {
            "astId": 2628,
            "contract": "contracts/core/Registry.sol:Registry",
            "label": "armourPowerStage1",
            "offset": 0,
            "slot": "1",
            "type": "t_uint256"
          },
          {
            "astId": 2630,
            "contract": "contracts/core/Registry.sol:Registry",
            "label": "weaponPowerStage2",
            "offset": 0,
            "slot": "2",
            "type": "t_uint256"
          },
          {
            "astId": 2632,
            "contract": "contracts/core/Registry.sol:Registry",
            "label": "armourPowerStage2",
            "offset": 0,
            "slot": "3",
            "type": "t_uint256"
          },
          {
            "astId": 2634,
            "contract": "contracts/core/Registry.sol:Registry",
            "label": "siegePower",
            "offset": 0,
            "slot": "4",
            "type": "t_uint256"
          },
          {
            "astId": 2636,
            "contract": "contracts/core/Registry.sol:Registry",
            "label": "siegeMaxSupply",
            "offset": 0,
            "slot": "5",
            "type": "t_uint256"
          },
          {
            "astId": 2638,
            "contract": "contracts/core/Registry.sol:Registry",
            "label": "siegeSupport",
            "offset": 0,
            "slot": "6",
            "type": "t_uint256"
          }
        ],
        "numberOfBytes": "224"
      },
      "t_uint256": {
        "encoding": "inplace",
        "label": "uint256",
        "numberOfBytes": "32"
      },
      "t_uint8": {
        "encoding": "inplace",
        "label": "uint8",
        "numberOfBytes": "1"
      }
    }
  }
}