{
  "address": "0x92Cb56B624Bc5b30a398b56d0064495Ac0580983",
  "abi": [
    {
      "anonymous": false,
      "inputs": [
        {
          "indexed": false,
          "internalType": "address",
          "name": "armyAddress",
          "type": "address"
        },
        {
          "indexed": false,
          "internalType": "uint256",
          "name": "side",
          "type": "uint256"
        }
      ],
      "name": "ArmyJoined",
      "type": "event"
    },
    {
      "anonymous": false,
      "inputs": [
        {
          "indexed": false,
          "internalType": "uint256",
          "name": "finishTime",
          "type": "uint256"
        }
      ],
      "name": "BattleFinished",
      "type": "event"
    },
    {
      "anonymous": false,
      "inputs": [
        {
          "indexed": false,
          "internalType": "uint8",
          "name": "version",
          "type": "uint8"
        }
      ],
      "name": "Initialized",
      "type": "event"
    },
    {
      "inputs": [
        {
          "internalType": "address",
          "name": "armyAddress",
          "type": "address"
        },
        {
          "internalType": "uint256",
          "name": "side",
          "type": "uint256"
        }
      ],
      "name": "acceptArmyInBattle",
      "outputs": [],
      "stateMutability": "nonpayable",
      "type": "function"
    },
    {
      "inputs": [
        {
          "internalType": "address",
          "name": "",
          "type": "address"
        }
      ],
      "name": "armySide",
      "outputs": [
        {
          "internalType": "uint256",
          "name": "",
          "type": "uint256"
        }
      ],
      "stateMutability": "view",
      "type": "function"
    },
    {
      "inputs": [
        {
          "internalType": "address",
          "name": "",
          "type": "address"
        },
        {
          "internalType": "string",
          "name": "",
          "type": "string"
        }
      ],
      "name": "armyUnitsCount",
      "outputs": [
        {
          "internalType": "uint256",
          "name": "",
          "type": "uint256"
        }
      ],
      "stateMutability": "view",
      "type": "function"
    },
    {
      "inputs": [],
      "name": "assetGroup",
      "outputs": [
        {
          "internalType": "string",
          "name": "",
          "type": "string"
        }
      ],
      "stateMutability": "view",
      "type": "function"
    },
    {
      "inputs": [],
      "name": "assetType",
      "outputs": [
        {
          "internalType": "string",
          "name": "",
          "type": "string"
        }
      ],
      "stateMutability": "view",
      "type": "function"
    },
    {
      "inputs": [],
      "name": "calculateAllCasualties",
      "outputs": [
        {
          "internalType": "uint256[]",
          "name": "",
          "type": "uint256[]"
        },
        {
          "internalType": "uint256[]",
          "name": "",
          "type": "uint256[]"
        },
        {
          "internalType": "uint256",
          "name": "",
          "type": "uint256"
        }
      ],
      "stateMutability": "view",
      "type": "function"
    },
    {
      "inputs": [
        {
          "internalType": "address",
          "name": "armyAddress",
          "type": "address"
        }
      ],
      "name": "calculateArmyCasualties",
      "outputs": [
        {
          "internalType": "bool",
          "name": "",
          "type": "bool"
        },
        {
          "internalType": "uint256[]",
          "name": "",
          "type": "uint256[]"
        }
      ],
      "stateMutability": "view",
      "type": "function"
    },
    {
      "inputs": [],
      "name": "calculateStage1Casualties",
      "outputs": [
        {
          "internalType": "uint256[]",
          "name": "_sideACasualties",
          "type": "uint256[]"
        },
        {
          "internalType": "uint256[]",
          "name": "_sideBCasualties",
          "type": "uint256[]"
        },
        {
          "internalType": "bytes",
          "name": "stageParams",
          "type": "bytes"
        }
      ],
      "stateMutability": "view",
      "type": "function"
    },
    {
      "inputs": [
        {
          "internalType": "uint256[]",
          "name": "stage1SideACasualties",
          "type": "uint256[]"
        },
        {
          "internalType": "uint256[]",
          "name": "stage1SideBCasualties",
          "type": "uint256[]"
        }
      ],
      "name": "calculateStage2Casualties",
      "outputs": [
        {
          "internalType": "uint256[]",
          "name": "_sideACasualties",
          "type": "uint256[]"
        },
        {
          "internalType": "uint256[]",
          "name": "_sideBCasualties",
          "type": "uint256[]"
        },
        {
          "internalType": "bytes",
          "name": "stageParams",
          "type": "bytes"
        }
      ],
      "stateMutability": "view",
      "type": "function"
    },
    {
      "inputs": [
        {
          "internalType": "uint256",
          "name": "globalMultiplier",
          "type": "uint256"
        },
        {
          "internalType": "uint256",
          "name": "baseBattleDuration",
          "type": "uint256"
        },
        {
          "internalType": "uint256",
          "name": "battleLobbyDurationPercent",
          "type": "uint256"
        },
        {
          "internalType": "bool",
          "name": "isCultistsAttacked",
          "type": "bool"
        },
        {
          "internalType": "uint256",
          "name": "units1",
          "type": "uint256"
        },
        {
          "internalType": "uint256",
          "name": "units2",
          "type": "uint256"
        },
        {
          "internalType": "uint256",
          "name": "maxBattleDuration",
          "type": "uint256"
        }
      ],
      "name": "calculateTimings",
      "outputs": [
        {
          "internalType": "uint64",
          "name": "",
          "type": "uint64"
        },
        {
          "internalType": "uint64",
          "name": "",
          "type": "uint64"
        }
      ],
      "stateMutability": "view",
      "type": "function"
    },
    {
      "inputs": [],
      "name": "canFinishBattle",
      "outputs": [
        {
          "internalType": "bool",
          "name": "",
          "type": "bool"
        }
      ],
      "stateMutability": "view",
      "type": "function"
    },
    {
      "inputs": [
        {
          "internalType": "uint256",
          "name": "",
          "type": "uint256"
        },
        {
          "internalType": "string",
          "name": "",
          "type": "string"
        }
      ],
      "name": "casualties",
      "outputs": [
        {
          "internalType": "uint256",
          "name": "",
          "type": "uint256"
        }
      ],
      "stateMutability": "view",
      "type": "function"
    },
    {
      "inputs": [],
      "name": "epoch",
      "outputs": [
        {
          "internalType": "contract IEpoch",
          "name": "",
          "type": "address"
        }
      ],
      "stateMutability": "view",
      "type": "function"
    },
    {
      "inputs": [],
      "name": "epochNumber",
      "outputs": [
        {
          "internalType": "uint256",
          "name": "",
          "type": "uint256"
        }
      ],
      "stateMutability": "view",
      "type": "function"
    },
    {
      "inputs": [],
      "name": "finishBattle",
      "outputs": [],
      "stateMutability": "nonpayable",
      "type": "function"
    },
    {
      "inputs": [],
      "name": "getSideALength",
      "outputs": [
        {
          "internalType": "uint256",
          "name": "",
          "type": "uint256"
        }
      ],
      "stateMutability": "view",
      "type": "function"
    },
    {
      "inputs": [],
      "name": "getSideBLength",
      "outputs": [
        {
          "internalType": "uint256",
          "name": "",
          "type": "uint256"
        }
      ],
      "stateMutability": "view",
      "type": "function"
    },
    {
      "inputs": [
        {
          "internalType": "bool",
          "name": "isCultistsAttacked",
          "type": "bool"
        },
        {
          "internalType": "uint256",
          "name": "maxBattleDuration",
          "type": "uint256"
        },
        {
          "internalType": "uint256",
          "name": "sideAUnitsCount",
          "type": "uint256"
        },
        {
          "internalType": "uint256",
          "name": "sideBUnitsCount",
          "type": "uint256"
        }
      ],
      "name": "getTimings",
      "outputs": [
        {
          "internalType": "uint64",
          "name": "",
          "type": "uint64"
        },
        {
          "internalType": "uint64",
          "name": "",
          "type": "uint64"
        }
      ],
      "stateMutability": "view",
      "type": "function"
    },
    {
      "inputs": [
        {
          "internalType": "address",
          "name": "attackerArmyAddress",
          "type": "address"
        },
        {
          "internalType": "address",
          "name": "attackedArmyAddress",
          "type": "address"
        }
      ],
      "name": "init",
      "outputs": [],
      "stateMutability": "nonpayable",
      "type": "function"
    },
    {
      "inputs": [],
      "name": "isFinishedBattle",
      "outputs": [
        {
          "internalType": "bool",
          "name": "",
          "type": "bool"
        }
      ],
      "stateMutability": "view",
      "type": "function"
    },
    {
      "inputs": [],
      "name": "isLobbyTime",
      "outputs": [
        {
          "internalType": "bool",
          "name": "",
          "type": "bool"
        }
      ],
      "stateMutability": "view",
      "type": "function"
    },
    {
      "inputs": [],
      "name": "position",
      "outputs": [
        {
          "internalType": "uint32",
          "name": "",
          "type": "uint32"
        }
      ],
      "stateMutability": "view",
      "type": "function"
    },
    {
      "inputs": [],
      "name": "registry",
      "outputs": [
        {
          "internalType": "contract IRegistry",
          "name": "",
          "type": "address"
        }
      ],
      "stateMutability": "view",
      "type": "function"
    },
    {
      "inputs": [
        {
          "internalType": "address",
          "name": "armyAddress",
          "type": "address"
        }
      ],
      "name": "removeArmyFromBattle",
      "outputs": [],
      "stateMutability": "nonpayable",
      "type": "function"
    },
    {
      "inputs": [
        {
          "internalType": "uint256",
          "name": "",
          "type": "uint256"
        }
      ],
      "name": "sideA",
      "outputs": [
        {
          "internalType": "address",
          "name": "",
          "type": "address"
        }
      ],
      "stateMutability": "view",
      "type": "function"
    },
    {
      "inputs": [
        {
          "internalType": "uint256",
          "name": "",
          "type": "uint256"
        }
      ],
      "name": "sideB",
      "outputs": [
        {
          "internalType": "address",
          "name": "",
          "type": "address"
        }
      ],
      "stateMutability": "view",
      "type": "function"
    },
    {
      "inputs": [
        {
          "internalType": "uint256",
          "name": "",
          "type": "uint256"
        },
        {
          "internalType": "string",
          "name": "",
          "type": "string"
        }
      ],
      "name": "sideUnitsCount",
      "outputs": [
        {
          "internalType": "uint256",
          "name": "",
          "type": "uint256"
        }
      ],
      "stateMutability": "view",
      "type": "function"
    },
    {
      "inputs": [],
      "name": "timing",
      "outputs": [
        {
          "internalType": "uint64",
          "name": "creationTime",
          "type": "uint64"
        },
        {
          "internalType": "uint64",
          "name": "lobbyDuration",
          "type": "uint64"
        },
        {
          "internalType": "uint64",
          "name": "ongoingDuration",
          "type": "uint64"
        },
        {
          "internalType": "uint64",
          "name": "finishTime",
          "type": "uint64"
        }
      ],
      "stateMutability": "view",
      "type": "function"
    },
    {
      "inputs": [],
      "name": "winningSide",
      "outputs": [
        {
          "internalType": "uint256",
          "name": "",
          "type": "uint256"
        }
      ],
      "stateMutability": "view",
      "type": "function"
    },
    {
      "inputs": [],
      "name": "world",
      "outputs": [
        {
          "internalType": "contract IWorld",
          "name": "",
          "type": "address"
        }
      ],
      "stateMutability": "view",
      "type": "function"
    }
  ],
  "transactionHash": "0x444dcc64328e2c6755260890bd41b99763c0f14a74d09d55c5e91772ea2de36b",
  "args": [],
  "numDeployments": 1,
  "solcInputHash": "fe31280621a8db2936c7c6268abddf29",
  "bytecode": "0x608060405234801561001057600080fd5b506140ad806100206000396000f3fe608060405234801561001057600080fd5b50600436106101da5760003560e01c80637584613511610104578063ba2fd7d6116100a2578063f09a401611610071578063f09a4016146104cb578063f4145a83146104de578063f4f67fc114610505578063fbf063381461052557600080fd5b8063ba2fd7d61461045d578063bb713ee814610465578063bc68eb491461047c578063d8d4a1f51461048f57600080fd5b8063900cf0cf116100de578063900cf0cf1461041c578063971e03cc146104245780639abb3cae1461043b578063b8bfe0611461044357600080fd5b806375846135146103f95780637b103999146104015780638f5803f01461040957600080fd5b8063483f6eeb1161017c5780635b94dd7b1161014b5780635b94dd7b14610381578063616e59381461039457806373511c02146103d0578063757c61b2146103f157600080fd5b8063483f6eeb146102de5780634c7494a1146102f15780634fba5adf14610304578063591e8db41461036957600080fd5b806335a54ac8116101b857806335a54ac8146102395780633dacbc52146102835780633fe3347a146102b65780634275615b146102cb57600080fd5b806309218e91146101df578063241f349e1461020f57806330b67baa14610219575b600080fd5b6000546101f59062010000900463ffffffff1681565b60405163ffffffff90911681526020015b60405180910390f35b61021761052e565b005b610221610a49565b6040516001600160a01b039091168152602001610206565b610275610247366004613835565b6004602090815260009283526040909220815180830184018051928152908401929093019190912091525481565b604051908152602001610206565b610296610291366004613899565b610a81565b604080516001600160401b03938416815292909116602083015201610206565b6102be610bea565b6040516102069190613922565b6102216102d936600461393c565b610c9e565b6102216102ec36600461393c565b610cc8565b6102966102ff366004613955565b610cd8565b600754610336906001600160401b0380821691600160401b8104821691600160801b8204811691600160c01b90041684565b604080516001600160401b0395861681529385166020850152918416918301919091529091166060820152608001610206565b610371610e39565b6040519015158152602001610206565b61021761038f3660046139af565b610e95565b6102756103a23660046139cc565b6003602090815260009283526040909220815180830184018051928152908401929093019190912091525481565b6103e36103de3660046139af565b6111f9565b604051610206929190613a37565b600254610275565b610371611637565b610221611680565b610217610417366004613a5a565b6116eb565b610221611df2565b61042c611e6d565b60405161020693929190613a86565b6102be6125f7565b600754600160c01b90046001600160401b03161515610371565b600154610275565b61046d612628565b60405161020693929190613abf565b61042c61048a366004613b7e565b6127d8565b61027561049d3660046139cc565b6005602090815260009283526040909220815180830184018051928152908401929093019190912091525481565b6102176104d9366004613bd7565b612d85565b7f6c85b93e587873fbe6712f3b438d42c2945689b262f7bd34b8ea4e3f832a89e754610275565b6102756105133660046139af565b60066020526000908152604090205481565b61027560085481565b6000610538610a49565b6001600160a01b0316637aa873346040518163ffffffff1660e01b8152600401602060405180830381865afa158015610575573d6000803e3d6000fd5b505050506040513d601f19601f820116820180604052508101906105999190613c10565b90508015806105a757508042105b6105e65760405162461bcd60e51b815260206004820152600b60248201526a19d85b594818db1bdcd95960aa1b60448201526064015b60405180910390fd5b6007546001600160401b03600160801b820481169161060f91600160401b820481169116613c3f565b6106199190613c3f565b6001600160401b03164210156106715760405162461bcd60e51b815260206004820152601660248201527f7761697420666f72207374617274696e672074696d650000000000000000000060448201526064016105dd565b600754600160c01b90046001600160401b0316156106d15760405162461bcd60e51b815260206004820152601a60248201527f63616e6e6f742066696e69736820626174746c6520616761696e00000000000060448201526064016105dd565b6007546001600160401b03600160801b82048116916106fa91600160401b820481169116613c3f565b6107049190613c3f565b6007805477ffffffffffffffffffffffffffffffffffffffffffffffff16600160c01b6001600160401b0393841681029190911791829055604051910490911681527f8f0925e543ce67fb19b73aeeee3d833f04b2f50691a3214e04587b72d9bfe99b9060200160405180910390a1600061077d611df2565b600054604051633615c1b560e11b81526201000090910463ffffffff1660048201526001600160a01b039190911690636c2b836a90602401602060405180830381865afa1580156107d2573d6000803e3d6000fd5b505050506040513d601f19601f820116820180604052508101906107f69190613c66565b90506000816001600160a01b0316633fe3347a6040518163ffffffff1660e01b8152600401600060405180830381865afa158015610838573d6000803e3d6000fd5b505050506040513d6000823e601f3d908101601f191682016040526108609190810190613cc8565b60408051808201909152600881526743554c544953545360c01b6020918201528151908201209091507f68df48fcd9cdb73398d3d230d42cb2c985c02b74e432f851c9e661aec1cc00f014801561098a5750306001600160a01b0316826001600160a01b031663f10e38af6040518163ffffffff1660e01b8152600401602060405180830381865afa1580156108fa573d6000803e3d6000fd5b505050506040513d601f19601f8201168201806040525081019061091e9190613c66565b6001600160a01b03166344e445456040518163ffffffff1660e01b8152600401602060405180830381865afa15801561095b573d6000803e3d6000fd5b505050506040513d601f19601f8201168201806040525081019061097f9190613c66565b6001600160a01b0316145b15610a4457816001600160a01b031663f10e38af6040518163ffffffff1660e01b8152600401602060405180830381865afa1580156109cd573d6000803e3d6000fd5b505050506040513d601f19601f820116820180604052508101906109f19190613c66565b6001600160a01b0316631d8557d76040518163ffffffff1660e01b8152600401600060405180830381600087803b158015610a2b57600080fd5b505af1158015610a3f573d6000803e3d6000fd5b505050505b505050565b6000610a7c7f6c85b93e587873fbe6712f3b438d42c2945689b262f7bd34b8ea4e3f832a89e6546001600160a01b031690565b905090565b6000806000610a8e611680565b6001600160a01b031663781e0efe6040518163ffffffff1660e01b8152600401602060405180830381865afa158015610acb573d6000803e3d6000fd5b505050506040513d601f19601f82011682018060405250810190610aef9190613c10565b90506000610afb611680565b6001600160a01b031663fe9135f06040518163ffffffff1660e01b8152600401602060405180830381865afa158015610b38573d6000803e3d6000fd5b505050506040513d601f19601f82011682018060405250810190610b5c9190613c10565b90506000610b68611680565b6001600160a01b031663154744086040518163ffffffff1660e01b8152600401602060405180830381865afa158015610ba5573d6000803e3d6000fd5b505050506040513d601f19601f82011682018060405250810190610bc99190613c10565b9050610bda8383838c8b8b8e610cd8565b9450945050505094509492505050565b60607f6c85b93e587873fbe6712f3b438d42c2945689b262f7bd34b8ea4e3f832a89e66004018054610c1b90613cfc565b80601f0160208091040260200160405190810160405280929190818152602001828054610c4790613cfc565b8015610c945780601f10610c6957610100808354040283529160200191610c94565b820191906000526020600020905b815481529060010190602001808311610c7757829003601f168201915b5050505050905090565b60018181548110610cae57600080fd5b6000918252602090912001546001600160a01b0316905081565b60028181548110610cae57600080fd5b6000808415801590610ce957508315155b610d2b5760405162461bcd60e51b815260206004820152601360248201527263616e27742061747461636b20302061726d7960681b60448201526064016105dd565b6000610d378a8a613d36565b905086610dd357848610158015610d5757506001610d558688613d36565b115b15610d89578585610d69836002613d58565b6001600160401b0316610d7c9190613d87565b610d869190613d36565b90505b8585118015610da157506001610d9f8787613d36565b115b15610dd3578486610db3836002613d58565b6001600160401b0316610dc69190613d87565b610dd09190613d36565b90505b8315801590610dea5750806001600160401b031684105b15610df25750825b6000670de0b6b3a7640000610e108a6001600160401b038516613d87565b610e1a9190613d36565b905080610e278184613da6565b93509350505097509795505050505050565b6007546000906001600160401b031615801590610a7c57506007546001600160401b03600160801b8204811691610e7a91600160401b820481169116613c3f565b610e849190613c3f565b6001600160401b0316421015905090565b6000610e9f610a49565b6001600160a01b0316637aa873346040518163ffffffff1660e01b8152600401602060405180830381865afa158015610edc573d6000803e3d6000fd5b505050506040513d601f19601f82011682018060405250810190610f009190613c10565b9050801580610f0e57508042105b610f485760405162461bcd60e51b815260206004820152600b60248201526a19d85b594818db1bdcd95960aa1b60448201526064016105dd565b610f50610a49565b6001600160a01b0316336001600160a01b0316148061101357506000610f74610a49565b6001600160a01b031663ebbe8034610faa7f6c85b93e587873fbe6712f3b438d42c2945689b262f7bd34b8ea4e3f832a89e75490565b6040516001600160e01b031960e084901b1681526004810191909152336024820152604401602060405180830381865afa158015610fec573d6000803e3d6000fd5b505050506040513d601f19601f820116820180604052508101906110109190613c10565b14155b61105f5760405162461bcd60e51b815260206004820152601b60248201527f6f6e6c79576f726c64417373657446726f6d53616d6545706f6368000000000060448201526064016105dd565b600754600160c01b90046001600160401b03166110be5760405162461bcd60e51b815260206004820152601760248201527f626174746c65207374696c6c20696e2070726f6365737300000000000000000060448201526064016105dd565b8160006110ca826111f9565b915050816001600160a01b0316634dcb7bd06110e4611680565b6001600160a01b031663027aa9f56040518163ffffffff1660e01b8152600401600060405180830381865afa158015611121573d6000803e3d6000fd5b505050506040513d6000823e601f3d908101601f191682016040526111499190810190613dc6565b836040518363ffffffff1660e01b8152600401611167929190613e76565b600060405180830381600087803b15801561118157600080fd5b505af1158015611195573d6000803e3d6000fd5b505060405163446bd32960e01b8152600060048201526001600160a01b038516925063446bd3299150602401600060405180830381600087803b1580156111db57600080fd5b505af11580156111ef573d6000803e3d6000fd5b5050505050505050565b6001600160a01b03811660009081526006602052604081205460609060018114806112245750806002145b6112655760405162461bcd60e51b815260206004820152601260248201527177726f6e672061726d79206164647265737360701b60448201526064016105dd565b600061126f611680565b6001600160a01b031663027aa9f56040518163ffffffff1660e01b8152600401600060405180830381865afa1580156112ac573d6000803e3d6000fd5b505050506040513d6000823e601f3d908101601f191682016040526112d49190810190613dc6565b9050600081516001600160401b038111156112f1576112f1613772565b60405190808252806020026020018201604052801561131a578160200160208202803683370190505b50600854909150831460005b835181101561162b57600084828151811061134357611343613eec565b60200260200101519050600060036000888152602001908152602001600020826040516113709190613f02565b9081526040805160209281900383018120546001600160a01b038e16600090815260049094529183209193506113a7908590613f02565b908152602001604051809103902054905081600014806113c5575080155b156113d257505050611619565b6000826113e783670de0b6b3a7640000613d87565b6113f19190613d36565b905060008960011461144b57600260005260056020526040517f89832631fb3c3307a103ba2c84ab569c64d6182a18893dcd163f0f1c2090733a90611437908790613f02565b908152602001604051809103902054611495565b600160005260056020526040517f1471eb6eb2c5e789fc3de43f8ce62938c7d1836ec861730447e2ada8fd81017b90611485908790613f02565b9081526020016040518091039020545b90506000670de0b6b3a76400006114ac8484613d87565b6114b69190613d36565b9050806000036114cb57505050505050611619565b604051633bbf90a160e21b815260048101829052670de0b6b3a76400006024820152600090730b47496cB17dFBa7Db79B0Dc96400E548a95F0929063eefe428490604401602060405180830381865af415801561152c573d6000803e3d6000fd5b505050506040513d601f19601f820116820180604052508101906115509190613c10565b9050886115f25760405163233ecd4160e21b815260048101839052670de0b6b3a76400006024820152600090730b47496cB17dFBa7Db79B0Dc96400E548a95F09290638cfb350490604401602060405180830381865af41580156115b8573d6000803e3d6000fd5b505050506040513d601f19601f820116820180604052508101906115dc9190613c10565b9050808610156115ec57816115ee565b805b9150505b808a898151811061160557611605613eec565b602002602001018181525050505050505050505b8061162381613f1e565b915050611326565b50969095509350505050565b600754600090819061165b906001600160401b03600160401b820481169116613c3f565b6007546001600160401b03918216925016421080159061167a57508042105b91505090565b600061168a610a49565b6001600160a01b0316637b1039996040518163ffffffff1660e01b8152600401602060405180830381865afa1580156116c7573d6000803e3d6000fd5b505050506040513d601f19601f82011682018060405250810190610a7c9190613c66565b6116f3610a49565b6001600160a01b0316336001600160a01b031614806117b657506000611717610a49565b6001600160a01b031663ebbe803461174d7f6c85b93e587873fbe6712f3b438d42c2945689b262f7bd34b8ea4e3f832a89e75490565b6040516001600160e01b031960e084901b1681526004810191909152336024820152604401602060405180830381865afa15801561178f573d6000803e3d6000fd5b505050506040513d601f19601f820116820180604052508101906117b39190613c10565b14155b6118025760405162461bcd60e51b815260206004820152601b60248201527f6f6e6c79576f726c64417373657446726f6d53616d6545706f6368000000000060448201526064016105dd565b600061180c610a49565b6001600160a01b0316637aa873346040518163ffffffff1660e01b8152600401602060405180830381865afa158015611849573d6000803e3d6000fd5b505050506040513d601f19601f8201168201806040525081019061186d9190613c10565b905080158061187b57508042105b6118b55760405162461bcd60e51b815260206004820152600b60248201526a19d85b594818db1bdcd95960aa1b60448201526064016105dd565b81600114806118c45750816002145b6118ff5760405162461bcd60e51b815260206004820152600c60248201526b696e76616c6964207369646560a01b60448201526064016105dd565b611907611637565b6119465760405162461bcd60e51b815260206004820152601060248201526f6e6f742061206c6f6262792074696d6560801b60448201526064016105dd565b6000839050806001600160a01b031663d534d6366040518163ffffffff1660e01b8152600401602060405180830381865afa158015611989573d6000803e3d6000fd5b505050506040513d601f19601f820116820180604052508101906119ad9190613f37565b60005462010000900463ffffffff908116911614611a005760405162461bcd60e51b815260206004820152601060248201526f34b73b30b634b2103837b9b4ba34b7b760811b60448201526064016105dd565b6000611a0a611680565b6001600160a01b031663027aa9f56040518163ffffffff1660e01b8152600401600060405180830381865afa158015611a47573d6000803e3d6000fd5b505050506040513d6000823e601f3d908101601f19168201604052611a6f9190810190613dc6565b905060005b8151811015611c26576000828281518110611a9157611a91613eec565b602002602001015190506000611aa5611df2565b6001600160a01b031663fe01e782836040518263ffffffff1660e01b8152600401611ad09190613922565b602060405180830381865afa158015611aed573d6000803e3d6000fd5b505050506040513d601f19601f82011682018060405250810190611b119190613c66565b6040516370a0823160e01b81526001600160a01b03878116600483015291909116906370a0823190602401602060405180830381865afa158015611b59573d6000803e3d6000fd5b505050506040513d601f19601f82011682018060405250810190611b7d9190613c10565b9050806003600089815260200190815260200160002083604051611ba19190613f02565b90815260200160405180910390206000828254611bbe9190613f5d565b90915550506001600160a01b038816600090815260046020526040908190209051829190611bed908590613f02565b90815260200160405180910390206000828254611c0a9190613f5d565b9250508190555050508080611c1e90613f1e565b915050611a74565b5083600103611c7e576001805480820182556000919091527fb10e2d527612073b26eecdfd717e6a320cf44b4afac2b0732d9fcbe2b7fa0cf60180546001600160a01b0319166001600160a01b038716179055611d0e565b83600203611cd657600280546001810182556000919091527f405787fa12a823e0f2b7631cc41b3ba8828b3321ca811111fa75cd3aa3bb5ace0180546001600160a01b0319166001600160a01b038716179055611d0e565b60405162461bcd60e51b815260206004820152600d60248201526c696e76616c696420737461746560981b60448201526064016105dd565b6001600160a01b03858116600090815260066020526040908190208690555163446bd32960e01b81523060048201529083169063446bd32990602401600060405180830381600087803b158015611d6457600080fd5b505af1158015611d78573d6000803e3d6000fd5b505050506000611d8760015490565b118015611d9c57506000611d9a60025490565b115b15611da957611da96132f1565b604080516001600160a01b0387168152602081018690527ff6a9086f0e560818b9fc087387152503d2864daffa4c3387be717f065c1e0f22910160405180910390a15050505050565b6000611dfc610a49565b6001600160a01b031663c6b61e4c611e327f6c85b93e587873fbe6712f3b438d42c2945689b262f7bd34b8ea4e3f832a89e75490565b6040518263ffffffff1660e01b8152600401611e5091815260200190565b602060405180830381865afa1580156116c7573d6000803e3d6000fd5b60608060606000611e7c611680565b6001600160a01b031663027aa9f56040518163ffffffff1660e01b8152600401600060405180830381865afa158015611eb9573d6000803e3d6000fd5b505050506040513d6000823e601f3d908101601f19168201604052611ee19190810190613dc6565b905080516001600160401b03811115611efc57611efc613772565b604051908082528060200260200182016040528015611f25578160200160208202803683370190505b50935080516001600160401b03811115611f4157611f41613772565b604051908082528060200260200182016040528015611f6a578160200160208202803683370190505b50925060008060008060005b85518110156121df576000868281518110611f9357611f93613eec565b60200260200101519050600080611fa8611680565b6001600160a01b031663cf0c5017846040518263ffffffff1660e01b8152600401611fd39190613922565b60e060405180830381865afa158015611ff0573d6000803e3d6000fd5b505050506040513d601f19601f820116820180604052508101906120149190613f70565b505060016000525050600360205250604051919350915082907fa15bc60c955c405d20d9149c709e2460f1c2d9a497496a7f46004d1772c3054c9061205a908690613f02565b9081526020016040518091039020546120739190613d87565b61208590670de0b6b3a7640000613d87565b61208f9089613f5d565b600260005260036020526040519098508290600080516020614058833981519152906120bc908690613f02565b9081526020016040518091039020546120d59190613d87565b6120e790670de0b6b3a7640000613d87565b6120f19088613f5d565b6001600052600360205260405190975081907fa15bc60c955c405d20d9149c709e2460f1c2d9a497496a7f46004d1772c3054c90612130908690613f02565b9081526020016040518091039020546121499190613d87565b61215b90670de0b6b3a7640000613d87565b6121659087613f5d565b60026000526003602052604051909650819060008051602061405883398151915290612192908690613f02565b9081526020016040518091039020546121ab9190613d87565b6121bd90670de0b6b3a7640000613d87565b6121c79086613f5d565b945050505080806121d790613f1e565b915050611f76565b506040805160208101869052908101849052606081018390526080810182905260a00160408051601f198184030181529190526007549096506000906123309085908590612246906001600160401b03600160801b8204811691600160401b900416613c3f565b6001600160401b0316612257611680565b6001600160a01b031663781e0efe6040518163ffffffff1660e01b8152600401602060405180830381865afa158015612294573d6000803e3d6000fd5b505050506040513d601f19601f820116820180604052508101906122b89190613c10565b6122c0611680565b6001600160a01b031663fe9135f06040518163ffffffff1660e01b8152600401602060405180830381865afa1580156122fd573d6000803e3d6000fd5b505050506040513d601f19601f820116820180604052508101906123219190613c10565b61232b9190613d36565b613455565b6007549091506000906123649087908590612246906001600160401b03600160801b8204811691600160401b900416613c3f565b905060005b87518110156125ea57600088828151811061238657612386613eec565b602002602001015190506000670de0b6b3a7640000856003600060018152602001908152602001600020846040516123be9190613f02565b9081526020016040518091039020546123d79190613d87565b6123e19190613d36565b600160005260036020526040519091507fa15bc60c955c405d20d9149c709e2460f1c2d9a497496a7f46004d1772c3054c9061241e908490613f02565b9081526020016040518091039020548111156124a057600160005260036020526040517fa15bc60c955c405d20d9149c709e2460f1c2d9a497496a7f46004d1772c3054c9061246e908490613f02565b9081526020016040518091039020548d848151811061248f5761248f613eec565b6020026020010181815250506124c0565b808d84815181106124b3576124b3613eec565b6020026020010181815250505b600260009081526003602052604051670de0b6b3a7640000908690600080516020614058833981519152906124f6908790613f02565b90815260200160405180910390205461250f9190613d87565b6125199190613d36565b6002600052600360205260405190915060008051602061405883398151915290612544908590613f02565b9081526020016040518091039020548111156125b4576002600052600360205260405160008051602061405883398151915290612582908590613f02565b9081526020016040518091039020548d85815181106125a3576125a3613eec565b6020026020010181815250506125d4565b808d85815181106125c7576125c7613eec565b6020026020010181815250505b50505080806125e290613f1e565b915050612369565b5050505050505050909192565b60607f6c85b93e587873fbe6712f3b438d42c2945689b262f7bd34b8ea4e3f832a89e66003018054610c1b90613cfc565b606080600080600080612639611e6d565b925092509250600080600061264e86866127d8565b92509250925060006126608583613496565b9050600087516001600160401b0381111561267d5761267d613772565b6040519080825280602002602001820160405280156126a6578160200160208202803683370190505b509050600088516001600160401b038111156126c4576126c4613772565b6040519080825280602002602001820160405280156126ed578160200160208202803683370190505b50905060005b89518110156127c55786818151811061270e5761270e613eec565b60200260200101518a828151811061272857612728613eec565b602002602001015161273a9190613f5d565b83828151811061274c5761274c613eec565b60200260200101818152505085818151811061276a5761276a613eec565b602002602001015189828151811061278457612784613eec565b60200260200101516127969190613f5d565b8282815181106127a8576127a8613eec565b6020908102919091010152806127bd81613f1e565b9150506126f3565b50909b909a509098509650505050505050565b606080606060006127e7611680565b6001600160a01b031663027aa9f56040518163ffffffff1660e01b8152600401600060405180830381865afa158015612824573d6000803e3d6000fd5b505050506040513d6000823e601f3d908101601f1916820160405261284c9190810190613dc6565b905080516001600160401b0381111561286757612867613772565b604051908082528060200260200182016040528015612890578160200160208202803683370190505b50935080516001600160401b038111156128ac576128ac613772565b6040519080825280602002602001820160405280156128d5578160200160208202803683370190505b50925060008060008060005b8551811015612af25760008682815181106128fe576128fe613eec565b60200260200101519050600080612913611680565b6001600160a01b031663cf0c5017846040518263ffffffff1660e01b815260040161293e9190613922565b60e060405180830381865afa15801561295b573d6000803e3d6000fd5b505050506040513d601f19601f8201168201806040525081019061297f9190613f70565b50505093509350505060008e858151811061299c5761299c613eec565b60200260200101516003600060018152602001908152602001600020856040516129c69190613f02565b9081526020016040518091039020546129df9190613fc4565b905060008e86815181106129f5576129f5613eec565b6020026020010151600360006002815260200190815260200160002086604051612a1f9190613f02565b908152602001604051809103902054612a389190613fc4565b9050612a448483613d87565b612a5690670de0b6b3a7640000613d87565b612a60908b613f5d565b9950612a6c8482613d87565b612a7e90670de0b6b3a7640000613d87565b612a88908a613f5d565b9850612a948383613d87565b612aa690670de0b6b3a7640000613d87565b612ab09089613f5d565b9750612abc8382613d87565b612ace90670de0b6b3a7640000613d87565b612ad89088613f5d565b965050505050508080612aea90613f1e565b9150506128e1565b506040805160208101869052908101849052606081018390526080810182905260a00160405160208183030381529060405295508160001480612b33575080155b15612b42575050505050612d7e565b600754600090612b739085908590612246906001600160401b03600160801b8204811691600160401b900416613c3f565b600754909150600090612ba79087908590612246906001600160401b03600160801b8204811691600160401b900416613c3f565b905060005b8751811015612d75576000888281518110612bc957612bc9613eec565b6020026020010151905060008e8381518110612be757612be7613eec565b6020026020010151600360006001815260200190815260200160002083604051612c119190613f02565b908152602001604051809103902054612c2a9190613fc4565b90506000670de0b6b3a7640000612c418784613d87565b612c4b9190613d36565b9050818110612c7857818e8581518110612c6757612c67613eec565b602002602001018181525050612c98565b808e8581518110612c8b57612c8b613eec565b6020026020010181815250505b505060008d8381518110612cae57612cae613eec565b6020026020010151600360006002815260200190815260200160002083604051612cd89190613f02565b908152602001604051809103902054612cf19190613fc4565b90506000670de0b6b3a7640000612d088684613d87565b612d129190613d36565b9050818110612d3f57818d8581518110612d2e57612d2e613eec565b602002602001018181525050612d5f565b808d8581518110612d5257612d52613eec565b6020026020010181815250505b5050508080612d6d90613f1e565b915050612bac565b50505050505050505b9250925092565b600054610100900460ff1615808015612da55750600054600160ff909116105b80612dbf5750303b158015612dbf575060005460ff166001145b612e225760405162461bcd60e51b815260206004820152602e60248201527f496e697469616c697a61626c653a20636f6e747261637420697320616c72656160448201526d191e481a5b9a5d1a585b1a5e995960921b60648201526084016105dd565b6000805460ff191660011790558015612e45576000805461ff0019166101001790555b60008390506000839050816001600160a01b031663418f35cc6040518163ffffffff1660e01b8152600401602060405180830381865afa158015612e8d573d6000803e3d6000fd5b505050506040513d601f19601f82011682018060405250810190612eb19190613f37565b6000805465ffffffff000019166201000063ffffffff93909316929092029190911781556007805467ffffffffffffffff1916426001600160401b0316179055612ef9611df2565b600054604051633615c1b560e11b81526201000090910463ffffffff1660048201526001600160a01b039190911690636c2b836a90602401602060405180830381865afa158015612f4e573d6000803e3d6000fd5b505050506040513d601f19601f82011682018060405250810190612f729190613c66565b90506000816001600160a01b03166341c525536040518163ffffffff1660e01b8152600401602060405180830381865afa158015612fb4573d6000803e3d6000fd5b505050506040513d601f19601f82011682018060405250810190612fd89190613c66565b6001600160a01b031663c20c92506040518163ffffffff1660e01b8152600401602060405180830381865afa158015613015573d6000803e3d6000fd5b505050506040513d601f19601f820116820180604052508101906130399190613c66565b6001600160a01b031663f10e38af6040518163ffffffff1660e01b8152600401602060405180830381865afa158015613076573d6000803e3d6000fd5b505050506040513d601f19601f8201168201806040525081019061309a9190613c66565b90506000816001600160a01b0316876001600160a01b03161490506000846001600160a01b031663a74bd4f66040518163ffffffff1660e01b81526004016040805180830381865afa1580156130f4573d6000803e3d6000fd5b505050506040513d601f19601f820116820180604052508101906131189190613fee565b9150506000816001600160401b031660001415801561314557506007546001600160401b03908116908316115b1561316c57600754613160906001600160401b031683613da6565b6001600160401b031690505b600080613186858461317d8f6135b7565b6102918f6135b7565b600780546001600160401b03838116600160801b0267ffffffffffffffff60801b19918616600160401b029190911677ffffffffffffffffffffffffffffffff00000000000000001990921691909117179055604051631397487f60e31b81523060048201526001602482015291935091506001600160a01b038a1690639cba43f890604401600060405180830381600087803b15801561322657600080fd5b505af115801561323a573d6000803e3d6000fd5b5050604051631397487f60e31b8152306004820152600260248201526001600160a01b038b169250639cba43f89150604401600060405180830381600087803b15801561328657600080fd5b505af115801561329a573d6000803e3d6000fd5b505050505050505050505050508015610a44576000805461ff0019169055604051600181527f7f26b83ff96e1f2b6a682f133852f6798a09c465da95921460cefb38474024989060200160405180910390a1505050565b60008060006132fe612628565b925092509250600061330e611680565b6001600160a01b031663027aa9f56040518163ffffffff1660e01b8152600401600060405180830381865afa15801561334b573d6000803e3d6000fd5b505050506040513d6000823e601f3d908101601f191682016040526133739190810190613dc6565b905060005b815181101561344c57600082828151811061339557613395613eec565b602002602001015190508582815181106133b1576133b1613eec565b60200260200101516005600060018152602001908152602001600020826040516133db9190613f02565b9081526020016040518091039020819055508482815181106133ff576133ff613eec565b60200260200101516005600060028152602001908152602001600020826040516134299190613f02565b90815260405190819003602001902055508061344481613f1e565b915050613378565b50506008555050565b600080826134638588613d87565b61346d9190613d36565b90508461348282670de0b6b3a7640000613d87565b61348c9190613d36565b9695505050505050565b6000806000806000868060200190518101906134b29190614021565b9350935093509350600080600080898060200190518101906134d49190614021565b93509350935093506000808789670de0b6b3a76400006134f49190613d87565b6134fe9190613d36565b90506000876135158c670de0b6b3a7640000613d87565b61351f9190613d36565b90506000851180156135315750600084115b15613589578461354987670de0b6b3a7640000613d87565b6135539190613d36565b61355d9083613f5d565b91508361357288670de0b6b3a7640000613d87565b61357c9190613d36565b6135869082613f5d565b90505b8082111561359657600292505b808210156135a357600192505b509099505050505050505050505b92915050565b6000806135c2611680565b6001600160a01b031663027aa9f56040518163ffffffff1660e01b8152600401600060405180830381865afa1580156135ff573d6000803e3d6000fd5b505050506040513d6000823e601f3d908101601f191682016040526136279190810190613dc6565b905060005b815181101561375357600082828151811061364957613649613eec565b6020026020010151905061365b611df2565b6001600160a01b031663fe01e782826040518263ffffffff1660e01b81526004016136869190613922565b602060405180830381865afa1580156136a3573d6000803e3d6000fd5b505050506040513d601f19601f820116820180604052508101906136c79190613c66565b6040516370a0823160e01b81526001600160a01b03878116600483015291909116906370a0823190602401602060405180830381865afa15801561370f573d6000803e3d6000fd5b505050506040513d601f19601f820116820180604052508101906137339190613c10565b61373d9085613f5d565b935050808061374b90613f1e565b91505061362c565b5050919050565b6001600160a01b038116811461376f57600080fd5b50565b634e487b7160e01b600052604160045260246000fd5b604051601f8201601f191681016001600160401b03811182821017156137b0576137b0613772565b604052919050565b60006001600160401b038211156137d1576137d1613772565b50601f01601f191660200190565b600082601f8301126137f057600080fd5b81356138036137fe826137b8565b613788565b81815284602083860101111561381857600080fd5b816020850160208301376000918101602001919091529392505050565b6000806040838503121561384857600080fd5b82356138538161375a565b915060208301356001600160401b0381111561386e57600080fd5b61387a858286016137df565b9150509250929050565b8035801515811461389457600080fd5b919050565b600080600080608085870312156138af57600080fd5b6138b885613884565b966020860135965060408601359560600135945092505050565b60005b838110156138ed5781810151838201526020016138d5565b50506000910152565b6000815180845261390e8160208601602086016138d2565b601f01601f19169290920160200192915050565b60208152600061393560208301846138f6565b9392505050565b60006020828403121561394e57600080fd5b5035919050565b600080600080600080600060e0888a03121561397057600080fd5b87359650602088013595506040880135945061398e60608901613884565b9699959850939660808101359560a0820135955060c0909101359350915050565b6000602082840312156139c157600080fd5b81356139358161375a565b600080604083850312156139df57600080fd5b8235915060208301356001600160401b0381111561386e57600080fd5b600081518084526020808501945080840160005b83811015613a2c57815187529582019590820190600101613a10565b509495945050505050565b8215158152604060208201526000613a5260408301846139fc565b949350505050565b60008060408385031215613a6d57600080fd5b8235613a788161375a565b946020939093013593505050565b606081526000613a9960608301866139fc565b8281036020840152613aab81866139fc565b9050828103604084015261348c81856138f6565b606081526000613ad260608301866139fc565b8281036020840152613ae481866139fc565b915050826040830152949350505050565b60006001600160401b03821115613b0e57613b0e613772565b5060051b60200190565b600082601f830112613b2957600080fd5b81356020613b396137fe83613af5565b82815260059290921b84018101918181019086841115613b5857600080fd5b8286015b84811015613b735780358352918301918301613b5c565b509695505050505050565b60008060408385031215613b9157600080fd5b82356001600160401b0380821115613ba857600080fd5b613bb486838701613b18565b93506020850135915080821115613bca57600080fd5b5061387a85828601613b18565b60008060408385031215613bea57600080fd5b8235613bf58161375a565b91506020830135613c058161375a565b809150509250929050565b600060208284031215613c2257600080fd5b5051919050565b634e487b7160e01b600052601160045260246000fd5b6001600160401b03818116838216019080821115613c5f57613c5f613c29565b5092915050565b600060208284031215613c7857600080fd5b81516139358161375a565b600082601f830112613c9457600080fd5b8151613ca26137fe826137b8565b818152846020838601011115613cb757600080fd5b613a528260208301602087016138d2565b600060208284031215613cda57600080fd5b81516001600160401b03811115613cf057600080fd5b613a5284828501613c83565b600181811c90821680613d1057607f821691505b602082108103613d3057634e487b7160e01b600052602260045260246000fd5b50919050565b600082613d5357634e487b7160e01b600052601260045260246000fd5b500490565b60006001600160401b0380831681851681830481118215151615613d7e57613d7e613c29565b02949350505050565b6000816000190483118215151615613da157613da1613c29565b500290565b6001600160401b03828116828216039080821115613c5f57613c5f613c29565b60006020808385031215613dd957600080fd5b82516001600160401b0380821115613df057600080fd5b818501915085601f830112613e0457600080fd5b8151613e126137fe82613af5565b81815260059190911b83018401908481019088831115613e3157600080fd5b8585015b83811015613e6957805185811115613e4d5760008081fd5b613e5b8b89838a0101613c83565b845250918601918601613e35565b5098975050505050505050565b6000604082016040835280855180835260608501915060608160051b8601019250602080880160005b83811015613ecd57605f19888703018552613ebb8683516138f6565b95509382019390820190600101613e9f565b505085840381870152505050613ee381856139fc565b95945050505050565b634e487b7160e01b600052603260045260246000fd5b60008251613f148184602087016138d2565b9190910192915050565b600060018201613f3057613f30613c29565b5060010190565b600060208284031215613f4957600080fd5b815163ffffffff8116811461393557600080fd5b808201808211156135b1576135b1613c29565b600080600080600080600060e0888a031215613f8b57600080fd5b5050855160208701516040880151606089015160808a015160a08b015160c0909b0151949c939b50919990985090965094509092509050565b818103818111156135b1576135b1613c29565b80516001600160401b038116811461389457600080fd5b6000806040838503121561400157600080fd5b61400a83613fd7565b915061401860208401613fd7565b90509250929050565b6000806000806080858703121561403757600080fd5b50508251602084015160408501516060909501519196909550909250905056fec3a24b0501bd2c13a7e57f2db4369ec4c223447539fc0724a9d55ac4a06ebd4da26469706673582212202bd6263660cab0c388b61e03d02df4c1ae2e8b9c9970eddb4df0d190876bc95664736f6c63430008100033",
  "deployedBytecode": "0x608060405234801561001057600080fd5b50600436106101da5760003560e01c80637584613511610104578063ba2fd7d6116100a2578063f09a401611610071578063f09a4016146104cb578063f4145a83146104de578063f4f67fc114610505578063fbf063381461052557600080fd5b8063ba2fd7d61461045d578063bb713ee814610465578063bc68eb491461047c578063d8d4a1f51461048f57600080fd5b8063900cf0cf116100de578063900cf0cf1461041c578063971e03cc146104245780639abb3cae1461043b578063b8bfe0611461044357600080fd5b806375846135146103f95780637b103999146104015780638f5803f01461040957600080fd5b8063483f6eeb1161017c5780635b94dd7b1161014b5780635b94dd7b14610381578063616e59381461039457806373511c02146103d0578063757c61b2146103f157600080fd5b8063483f6eeb146102de5780634c7494a1146102f15780634fba5adf14610304578063591e8db41461036957600080fd5b806335a54ac8116101b857806335a54ac8146102395780633dacbc52146102835780633fe3347a146102b65780634275615b146102cb57600080fd5b806309218e91146101df578063241f349e1461020f57806330b67baa14610219575b600080fd5b6000546101f59062010000900463ffffffff1681565b60405163ffffffff90911681526020015b60405180910390f35b61021761052e565b005b610221610a49565b6040516001600160a01b039091168152602001610206565b610275610247366004613835565b6004602090815260009283526040909220815180830184018051928152908401929093019190912091525481565b604051908152602001610206565b610296610291366004613899565b610a81565b604080516001600160401b03938416815292909116602083015201610206565b6102be610bea565b6040516102069190613922565b6102216102d936600461393c565b610c9e565b6102216102ec36600461393c565b610cc8565b6102966102ff366004613955565b610cd8565b600754610336906001600160401b0380821691600160401b8104821691600160801b8204811691600160c01b90041684565b604080516001600160401b0395861681529385166020850152918416918301919091529091166060820152608001610206565b610371610e39565b6040519015158152602001610206565b61021761038f3660046139af565b610e95565b6102756103a23660046139cc565b6003602090815260009283526040909220815180830184018051928152908401929093019190912091525481565b6103e36103de3660046139af565b6111f9565b604051610206929190613a37565b600254610275565b610371611637565b610221611680565b610217610417366004613a5a565b6116eb565b610221611df2565b61042c611e6d565b60405161020693929190613a86565b6102be6125f7565b600754600160c01b90046001600160401b03161515610371565b600154610275565b61046d612628565b60405161020693929190613abf565b61042c61048a366004613b7e565b6127d8565b61027561049d3660046139cc565b6005602090815260009283526040909220815180830184018051928152908401929093019190912091525481565b6102176104d9366004613bd7565b612d85565b7f6c85b93e587873fbe6712f3b438d42c2945689b262f7bd34b8ea4e3f832a89e754610275565b6102756105133660046139af565b60066020526000908152604090205481565b61027560085481565b6000610538610a49565b6001600160a01b0316637aa873346040518163ffffffff1660e01b8152600401602060405180830381865afa158015610575573d6000803e3d6000fd5b505050506040513d601f19601f820116820180604052508101906105999190613c10565b90508015806105a757508042105b6105e65760405162461bcd60e51b815260206004820152600b60248201526a19d85b594818db1bdcd95960aa1b60448201526064015b60405180910390fd5b6007546001600160401b03600160801b820481169161060f91600160401b820481169116613c3f565b6106199190613c3f565b6001600160401b03164210156106715760405162461bcd60e51b815260206004820152601660248201527f7761697420666f72207374617274696e672074696d650000000000000000000060448201526064016105dd565b600754600160c01b90046001600160401b0316156106d15760405162461bcd60e51b815260206004820152601a60248201527f63616e6e6f742066696e69736820626174746c6520616761696e00000000000060448201526064016105dd565b6007546001600160401b03600160801b82048116916106fa91600160401b820481169116613c3f565b6107049190613c3f565b6007805477ffffffffffffffffffffffffffffffffffffffffffffffff16600160c01b6001600160401b0393841681029190911791829055604051910490911681527f8f0925e543ce67fb19b73aeeee3d833f04b2f50691a3214e04587b72d9bfe99b9060200160405180910390a1600061077d611df2565b600054604051633615c1b560e11b81526201000090910463ffffffff1660048201526001600160a01b039190911690636c2b836a90602401602060405180830381865afa1580156107d2573d6000803e3d6000fd5b505050506040513d601f19601f820116820180604052508101906107f69190613c66565b90506000816001600160a01b0316633fe3347a6040518163ffffffff1660e01b8152600401600060405180830381865afa158015610838573d6000803e3d6000fd5b505050506040513d6000823e601f3d908101601f191682016040526108609190810190613cc8565b60408051808201909152600881526743554c544953545360c01b6020918201528151908201209091507f68df48fcd9cdb73398d3d230d42cb2c985c02b74e432f851c9e661aec1cc00f014801561098a5750306001600160a01b0316826001600160a01b031663f10e38af6040518163ffffffff1660e01b8152600401602060405180830381865afa1580156108fa573d6000803e3d6000fd5b505050506040513d601f19601f8201168201806040525081019061091e9190613c66565b6001600160a01b03166344e445456040518163ffffffff1660e01b8152600401602060405180830381865afa15801561095b573d6000803e3d6000fd5b505050506040513d601f19601f8201168201806040525081019061097f9190613c66565b6001600160a01b0316145b15610a4457816001600160a01b031663f10e38af6040518163ffffffff1660e01b8152600401602060405180830381865afa1580156109cd573d6000803e3d6000fd5b505050506040513d601f19601f820116820180604052508101906109f19190613c66565b6001600160a01b0316631d8557d76040518163ffffffff1660e01b8152600401600060405180830381600087803b158015610a2b57600080fd5b505af1158015610a3f573d6000803e3d6000fd5b505050505b505050565b6000610a7c7f6c85b93e587873fbe6712f3b438d42c2945689b262f7bd34b8ea4e3f832a89e6546001600160a01b031690565b905090565b6000806000610a8e611680565b6001600160a01b031663781e0efe6040518163ffffffff1660e01b8152600401602060405180830381865afa158015610acb573d6000803e3d6000fd5b505050506040513d601f19601f82011682018060405250810190610aef9190613c10565b90506000610afb611680565b6001600160a01b031663fe9135f06040518163ffffffff1660e01b8152600401602060405180830381865afa158015610b38573d6000803e3d6000fd5b505050506040513d601f19601f82011682018060405250810190610b5c9190613c10565b90506000610b68611680565b6001600160a01b031663154744086040518163ffffffff1660e01b8152600401602060405180830381865afa158015610ba5573d6000803e3d6000fd5b505050506040513d601f19601f82011682018060405250810190610bc99190613c10565b9050610bda8383838c8b8b8e610cd8565b9450945050505094509492505050565b60607f6c85b93e587873fbe6712f3b438d42c2945689b262f7bd34b8ea4e3f832a89e66004018054610c1b90613cfc565b80601f0160208091040260200160405190810160405280929190818152602001828054610c4790613cfc565b8015610c945780601f10610c6957610100808354040283529160200191610c94565b820191906000526020600020905b815481529060010190602001808311610c7757829003601f168201915b5050505050905090565b60018181548110610cae57600080fd5b6000918252602090912001546001600160a01b0316905081565b60028181548110610cae57600080fd5b6000808415801590610ce957508315155b610d2b5760405162461bcd60e51b815260206004820152601360248201527263616e27742061747461636b20302061726d7960681b60448201526064016105dd565b6000610d378a8a613d36565b905086610dd357848610158015610d5757506001610d558688613d36565b115b15610d89578585610d69836002613d58565b6001600160401b0316610d7c9190613d87565b610d869190613d36565b90505b8585118015610da157506001610d9f8787613d36565b115b15610dd3578486610db3836002613d58565b6001600160401b0316610dc69190613d87565b610dd09190613d36565b90505b8315801590610dea5750806001600160401b031684105b15610df25750825b6000670de0b6b3a7640000610e108a6001600160401b038516613d87565b610e1a9190613d36565b905080610e278184613da6565b93509350505097509795505050505050565b6007546000906001600160401b031615801590610a7c57506007546001600160401b03600160801b8204811691610e7a91600160401b820481169116613c3f565b610e849190613c3f565b6001600160401b0316421015905090565b6000610e9f610a49565b6001600160a01b0316637aa873346040518163ffffffff1660e01b8152600401602060405180830381865afa158015610edc573d6000803e3d6000fd5b505050506040513d601f19601f82011682018060405250810190610f009190613c10565b9050801580610f0e57508042105b610f485760405162461bcd60e51b815260206004820152600b60248201526a19d85b594818db1bdcd95960aa1b60448201526064016105dd565b610f50610a49565b6001600160a01b0316336001600160a01b0316148061101357506000610f74610a49565b6001600160a01b031663ebbe8034610faa7f6c85b93e587873fbe6712f3b438d42c2945689b262f7bd34b8ea4e3f832a89e75490565b6040516001600160e01b031960e084901b1681526004810191909152336024820152604401602060405180830381865afa158015610fec573d6000803e3d6000fd5b505050506040513d601f19601f820116820180604052508101906110109190613c10565b14155b61105f5760405162461bcd60e51b815260206004820152601b60248201527f6f6e6c79576f726c64417373657446726f6d53616d6545706f6368000000000060448201526064016105dd565b600754600160c01b90046001600160401b03166110be5760405162461bcd60e51b815260206004820152601760248201527f626174746c65207374696c6c20696e2070726f6365737300000000000000000060448201526064016105dd565b8160006110ca826111f9565b915050816001600160a01b0316634dcb7bd06110e4611680565b6001600160a01b031663027aa9f56040518163ffffffff1660e01b8152600401600060405180830381865afa158015611121573d6000803e3d6000fd5b505050506040513d6000823e601f3d908101601f191682016040526111499190810190613dc6565b836040518363ffffffff1660e01b8152600401611167929190613e76565b600060405180830381600087803b15801561118157600080fd5b505af1158015611195573d6000803e3d6000fd5b505060405163446bd32960e01b8152600060048201526001600160a01b038516925063446bd3299150602401600060405180830381600087803b1580156111db57600080fd5b505af11580156111ef573d6000803e3d6000fd5b5050505050505050565b6001600160a01b03811660009081526006602052604081205460609060018114806112245750806002145b6112655760405162461bcd60e51b815260206004820152601260248201527177726f6e672061726d79206164647265737360701b60448201526064016105dd565b600061126f611680565b6001600160a01b031663027aa9f56040518163ffffffff1660e01b8152600401600060405180830381865afa1580156112ac573d6000803e3d6000fd5b505050506040513d6000823e601f3d908101601f191682016040526112d49190810190613dc6565b9050600081516001600160401b038111156112f1576112f1613772565b60405190808252806020026020018201604052801561131a578160200160208202803683370190505b50600854909150831460005b835181101561162b57600084828151811061134357611343613eec565b60200260200101519050600060036000888152602001908152602001600020826040516113709190613f02565b9081526040805160209281900383018120546001600160a01b038e16600090815260049094529183209193506113a7908590613f02565b908152602001604051809103902054905081600014806113c5575080155b156113d257505050611619565b6000826113e783670de0b6b3a7640000613d87565b6113f19190613d36565b905060008960011461144b57600260005260056020526040517f89832631fb3c3307a103ba2c84ab569c64d6182a18893dcd163f0f1c2090733a90611437908790613f02565b908152602001604051809103902054611495565b600160005260056020526040517f1471eb6eb2c5e789fc3de43f8ce62938c7d1836ec861730447e2ada8fd81017b90611485908790613f02565b9081526020016040518091039020545b90506000670de0b6b3a76400006114ac8484613d87565b6114b69190613d36565b9050806000036114cb57505050505050611619565b604051633bbf90a160e21b815260048101829052670de0b6b3a7640000602482015260009073__$b96f6cc754b665f2373f69c32648f7914e$__9063eefe428490604401602060405180830381865af415801561152c573d6000803e3d6000fd5b505050506040513d601f19601f820116820180604052508101906115509190613c10565b9050886115f25760405163233ecd4160e21b815260048101839052670de0b6b3a7640000602482015260009073__$b96f6cc754b665f2373f69c32648f7914e$__90638cfb350490604401602060405180830381865af41580156115b8573d6000803e3d6000fd5b505050506040513d601f19601f820116820180604052508101906115dc9190613c10565b9050808610156115ec57816115ee565b805b9150505b808a898151811061160557611605613eec565b602002602001018181525050505050505050505b8061162381613f1e565b915050611326565b50969095509350505050565b600754600090819061165b906001600160401b03600160401b820481169116613c3f565b6007546001600160401b03918216925016421080159061167a57508042105b91505090565b600061168a610a49565b6001600160a01b0316637b1039996040518163ffffffff1660e01b8152600401602060405180830381865afa1580156116c7573d6000803e3d6000fd5b505050506040513d601f19601f82011682018060405250810190610a7c9190613c66565b6116f3610a49565b6001600160a01b0316336001600160a01b031614806117b657506000611717610a49565b6001600160a01b031663ebbe803461174d7f6c85b93e587873fbe6712f3b438d42c2945689b262f7bd34b8ea4e3f832a89e75490565b6040516001600160e01b031960e084901b1681526004810191909152336024820152604401602060405180830381865afa15801561178f573d6000803e3d6000fd5b505050506040513d601f19601f820116820180604052508101906117b39190613c10565b14155b6118025760405162461bcd60e51b815260206004820152601b60248201527f6f6e6c79576f726c64417373657446726f6d53616d6545706f6368000000000060448201526064016105dd565b600061180c610a49565b6001600160a01b0316637aa873346040518163ffffffff1660e01b8152600401602060405180830381865afa158015611849573d6000803e3d6000fd5b505050506040513d601f19601f8201168201806040525081019061186d9190613c10565b905080158061187b57508042105b6118b55760405162461bcd60e51b815260206004820152600b60248201526a19d85b594818db1bdcd95960aa1b60448201526064016105dd565b81600114806118c45750816002145b6118ff5760405162461bcd60e51b815260206004820152600c60248201526b696e76616c6964207369646560a01b60448201526064016105dd565b611907611637565b6119465760405162461bcd60e51b815260206004820152601060248201526f6e6f742061206c6f6262792074696d6560801b60448201526064016105dd565b6000839050806001600160a01b031663d534d6366040518163ffffffff1660e01b8152600401602060405180830381865afa158015611989573d6000803e3d6000fd5b505050506040513d601f19601f820116820180604052508101906119ad9190613f37565b60005462010000900463ffffffff908116911614611a005760405162461bcd60e51b815260206004820152601060248201526f34b73b30b634b2103837b9b4ba34b7b760811b60448201526064016105dd565b6000611a0a611680565b6001600160a01b031663027aa9f56040518163ffffffff1660e01b8152600401600060405180830381865afa158015611a47573d6000803e3d6000fd5b505050506040513d6000823e601f3d908101601f19168201604052611a6f9190810190613dc6565b905060005b8151811015611c26576000828281518110611a9157611a91613eec565b602002602001015190506000611aa5611df2565b6001600160a01b031663fe01e782836040518263ffffffff1660e01b8152600401611ad09190613922565b602060405180830381865afa158015611aed573d6000803e3d6000fd5b505050506040513d601f19601f82011682018060405250810190611b119190613c66565b6040516370a0823160e01b81526001600160a01b03878116600483015291909116906370a0823190602401602060405180830381865afa158015611b59573d6000803e3d6000fd5b505050506040513d601f19601f82011682018060405250810190611b7d9190613c10565b9050806003600089815260200190815260200160002083604051611ba19190613f02565b90815260200160405180910390206000828254611bbe9190613f5d565b90915550506001600160a01b038816600090815260046020526040908190209051829190611bed908590613f02565b90815260200160405180910390206000828254611c0a9190613f5d565b9250508190555050508080611c1e90613f1e565b915050611a74565b5083600103611c7e576001805480820182556000919091527fb10e2d527612073b26eecdfd717e6a320cf44b4afac2b0732d9fcbe2b7fa0cf60180546001600160a01b0319166001600160a01b038716179055611d0e565b83600203611cd657600280546001810182556000919091527f405787fa12a823e0f2b7631cc41b3ba8828b3321ca811111fa75cd3aa3bb5ace0180546001600160a01b0319166001600160a01b038716179055611d0e565b60405162461bcd60e51b815260206004820152600d60248201526c696e76616c696420737461746560981b60448201526064016105dd565b6001600160a01b03858116600090815260066020526040908190208690555163446bd32960e01b81523060048201529083169063446bd32990602401600060405180830381600087803b158015611d6457600080fd5b505af1158015611d78573d6000803e3d6000fd5b505050506000611d8760015490565b118015611d9c57506000611d9a60025490565b115b15611da957611da96132f1565b604080516001600160a01b0387168152602081018690527ff6a9086f0e560818b9fc087387152503d2864daffa4c3387be717f065c1e0f22910160405180910390a15050505050565b6000611dfc610a49565b6001600160a01b031663c6b61e4c611e327f6c85b93e587873fbe6712f3b438d42c2945689b262f7bd34b8ea4e3f832a89e75490565b6040518263ffffffff1660e01b8152600401611e5091815260200190565b602060405180830381865afa1580156116c7573d6000803e3d6000fd5b60608060606000611e7c611680565b6001600160a01b031663027aa9f56040518163ffffffff1660e01b8152600401600060405180830381865afa158015611eb9573d6000803e3d6000fd5b505050506040513d6000823e601f3d908101601f19168201604052611ee19190810190613dc6565b905080516001600160401b03811115611efc57611efc613772565b604051908082528060200260200182016040528015611f25578160200160208202803683370190505b50935080516001600160401b03811115611f4157611f41613772565b604051908082528060200260200182016040528015611f6a578160200160208202803683370190505b50925060008060008060005b85518110156121df576000868281518110611f9357611f93613eec565b60200260200101519050600080611fa8611680565b6001600160a01b031663cf0c5017846040518263ffffffff1660e01b8152600401611fd39190613922565b60e060405180830381865afa158015611ff0573d6000803e3d6000fd5b505050506040513d601f19601f820116820180604052508101906120149190613f70565b505060016000525050600360205250604051919350915082907fa15bc60c955c405d20d9149c709e2460f1c2d9a497496a7f46004d1772c3054c9061205a908690613f02565b9081526020016040518091039020546120739190613d87565b61208590670de0b6b3a7640000613d87565b61208f9089613f5d565b600260005260036020526040519098508290600080516020614058833981519152906120bc908690613f02565b9081526020016040518091039020546120d59190613d87565b6120e790670de0b6b3a7640000613d87565b6120f19088613f5d565b6001600052600360205260405190975081907fa15bc60c955c405d20d9149c709e2460f1c2d9a497496a7f46004d1772c3054c90612130908690613f02565b9081526020016040518091039020546121499190613d87565b61215b90670de0b6b3a7640000613d87565b6121659087613f5d565b60026000526003602052604051909650819060008051602061405883398151915290612192908690613f02565b9081526020016040518091039020546121ab9190613d87565b6121bd90670de0b6b3a7640000613d87565b6121c79086613f5d565b945050505080806121d790613f1e565b915050611f76565b506040805160208101869052908101849052606081018390526080810182905260a00160408051601f198184030181529190526007549096506000906123309085908590612246906001600160401b03600160801b8204811691600160401b900416613c3f565b6001600160401b0316612257611680565b6001600160a01b031663781e0efe6040518163ffffffff1660e01b8152600401602060405180830381865afa158015612294573d6000803e3d6000fd5b505050506040513d601f19601f820116820180604052508101906122b89190613c10565b6122c0611680565b6001600160a01b031663fe9135f06040518163ffffffff1660e01b8152600401602060405180830381865afa1580156122fd573d6000803e3d6000fd5b505050506040513d601f19601f820116820180604052508101906123219190613c10565b61232b9190613d36565b613455565b6007549091506000906123649087908590612246906001600160401b03600160801b8204811691600160401b900416613c3f565b905060005b87518110156125ea57600088828151811061238657612386613eec565b602002602001015190506000670de0b6b3a7640000856003600060018152602001908152602001600020846040516123be9190613f02565b9081526020016040518091039020546123d79190613d87565b6123e19190613d36565b600160005260036020526040519091507fa15bc60c955c405d20d9149c709e2460f1c2d9a497496a7f46004d1772c3054c9061241e908490613f02565b9081526020016040518091039020548111156124a057600160005260036020526040517fa15bc60c955c405d20d9149c709e2460f1c2d9a497496a7f46004d1772c3054c9061246e908490613f02565b9081526020016040518091039020548d848151811061248f5761248f613eec565b6020026020010181815250506124c0565b808d84815181106124b3576124b3613eec565b6020026020010181815250505b600260009081526003602052604051670de0b6b3a7640000908690600080516020614058833981519152906124f6908790613f02565b90815260200160405180910390205461250f9190613d87565b6125199190613d36565b6002600052600360205260405190915060008051602061405883398151915290612544908590613f02565b9081526020016040518091039020548111156125b4576002600052600360205260405160008051602061405883398151915290612582908590613f02565b9081526020016040518091039020548d85815181106125a3576125a3613eec565b6020026020010181815250506125d4565b808d85815181106125c7576125c7613eec565b6020026020010181815250505b50505080806125e290613f1e565b915050612369565b5050505050505050909192565b60607f6c85b93e587873fbe6712f3b438d42c2945689b262f7bd34b8ea4e3f832a89e66003018054610c1b90613cfc565b606080600080600080612639611e6d565b925092509250600080600061264e86866127d8565b92509250925060006126608583613496565b9050600087516001600160401b0381111561267d5761267d613772565b6040519080825280602002602001820160405280156126a6578160200160208202803683370190505b509050600088516001600160401b038111156126c4576126c4613772565b6040519080825280602002602001820160405280156126ed578160200160208202803683370190505b50905060005b89518110156127c55786818151811061270e5761270e613eec565b60200260200101518a828151811061272857612728613eec565b602002602001015161273a9190613f5d565b83828151811061274c5761274c613eec565b60200260200101818152505085818151811061276a5761276a613eec565b602002602001015189828151811061278457612784613eec565b60200260200101516127969190613f5d565b8282815181106127a8576127a8613eec565b6020908102919091010152806127bd81613f1e565b9150506126f3565b50909b909a509098509650505050505050565b606080606060006127e7611680565b6001600160a01b031663027aa9f56040518163ffffffff1660e01b8152600401600060405180830381865afa158015612824573d6000803e3d6000fd5b505050506040513d6000823e601f3d908101601f1916820160405261284c9190810190613dc6565b905080516001600160401b0381111561286757612867613772565b604051908082528060200260200182016040528015612890578160200160208202803683370190505b50935080516001600160401b038111156128ac576128ac613772565b6040519080825280602002602001820160405280156128d5578160200160208202803683370190505b50925060008060008060005b8551811015612af25760008682815181106128fe576128fe613eec565b60200260200101519050600080612913611680565b6001600160a01b031663cf0c5017846040518263ffffffff1660e01b815260040161293e9190613922565b60e060405180830381865afa15801561295b573d6000803e3d6000fd5b505050506040513d601f19601f8201168201806040525081019061297f9190613f70565b50505093509350505060008e858151811061299c5761299c613eec565b60200260200101516003600060018152602001908152602001600020856040516129c69190613f02565b9081526020016040518091039020546129df9190613fc4565b905060008e86815181106129f5576129f5613eec565b6020026020010151600360006002815260200190815260200160002086604051612a1f9190613f02565b908152602001604051809103902054612a389190613fc4565b9050612a448483613d87565b612a5690670de0b6b3a7640000613d87565b612a60908b613f5d565b9950612a6c8482613d87565b612a7e90670de0b6b3a7640000613d87565b612a88908a613f5d565b9850612a948383613d87565b612aa690670de0b6b3a7640000613d87565b612ab09089613f5d565b9750612abc8382613d87565b612ace90670de0b6b3a7640000613d87565b612ad89088613f5d565b965050505050508080612aea90613f1e565b9150506128e1565b506040805160208101869052908101849052606081018390526080810182905260a00160405160208183030381529060405295508160001480612b33575080155b15612b42575050505050612d7e565b600754600090612b739085908590612246906001600160401b03600160801b8204811691600160401b900416613c3f565b600754909150600090612ba79087908590612246906001600160401b03600160801b8204811691600160401b900416613c3f565b905060005b8751811015612d75576000888281518110612bc957612bc9613eec565b6020026020010151905060008e8381518110612be757612be7613eec565b6020026020010151600360006001815260200190815260200160002083604051612c119190613f02565b908152602001604051809103902054612c2a9190613fc4565b90506000670de0b6b3a7640000612c418784613d87565b612c4b9190613d36565b9050818110612c7857818e8581518110612c6757612c67613eec565b602002602001018181525050612c98565b808e8581518110612c8b57612c8b613eec565b6020026020010181815250505b505060008d8381518110612cae57612cae613eec565b6020026020010151600360006002815260200190815260200160002083604051612cd89190613f02565b908152602001604051809103902054612cf19190613fc4565b90506000670de0b6b3a7640000612d088684613d87565b612d129190613d36565b9050818110612d3f57818d8581518110612d2e57612d2e613eec565b602002602001018181525050612d5f565b808d8581518110612d5257612d52613eec565b6020026020010181815250505b5050508080612d6d90613f1e565b915050612bac565b50505050505050505b9250925092565b600054610100900460ff1615808015612da55750600054600160ff909116105b80612dbf5750303b158015612dbf575060005460ff166001145b612e225760405162461bcd60e51b815260206004820152602e60248201527f496e697469616c697a61626c653a20636f6e747261637420697320616c72656160448201526d191e481a5b9a5d1a585b1a5e995960921b60648201526084016105dd565b6000805460ff191660011790558015612e45576000805461ff0019166101001790555b60008390506000839050816001600160a01b031663418f35cc6040518163ffffffff1660e01b8152600401602060405180830381865afa158015612e8d573d6000803e3d6000fd5b505050506040513d601f19601f82011682018060405250810190612eb19190613f37565b6000805465ffffffff000019166201000063ffffffff93909316929092029190911781556007805467ffffffffffffffff1916426001600160401b0316179055612ef9611df2565b600054604051633615c1b560e11b81526201000090910463ffffffff1660048201526001600160a01b039190911690636c2b836a90602401602060405180830381865afa158015612f4e573d6000803e3d6000fd5b505050506040513d601f19601f82011682018060405250810190612f729190613c66565b90506000816001600160a01b03166341c525536040518163ffffffff1660e01b8152600401602060405180830381865afa158015612fb4573d6000803e3d6000fd5b505050506040513d601f19601f82011682018060405250810190612fd89190613c66565b6001600160a01b031663c20c92506040518163ffffffff1660e01b8152600401602060405180830381865afa158015613015573d6000803e3d6000fd5b505050506040513d601f19601f820116820180604052508101906130399190613c66565b6001600160a01b031663f10e38af6040518163ffffffff1660e01b8152600401602060405180830381865afa158015613076573d6000803e3d6000fd5b505050506040513d601f19601f8201168201806040525081019061309a9190613c66565b90506000816001600160a01b0316876001600160a01b03161490506000846001600160a01b031663a74bd4f66040518163ffffffff1660e01b81526004016040805180830381865afa1580156130f4573d6000803e3d6000fd5b505050506040513d601f19601f820116820180604052508101906131189190613fee565b9150506000816001600160401b031660001415801561314557506007546001600160401b03908116908316115b1561316c57600754613160906001600160401b031683613da6565b6001600160401b031690505b600080613186858461317d8f6135b7565b6102918f6135b7565b600780546001600160401b03838116600160801b0267ffffffffffffffff60801b19918616600160401b029190911677ffffffffffffffffffffffffffffffff00000000000000001990921691909117179055604051631397487f60e31b81523060048201526001602482015291935091506001600160a01b038a1690639cba43f890604401600060405180830381600087803b15801561322657600080fd5b505af115801561323a573d6000803e3d6000fd5b5050604051631397487f60e31b8152306004820152600260248201526001600160a01b038b169250639cba43f89150604401600060405180830381600087803b15801561328657600080fd5b505af115801561329a573d6000803e3d6000fd5b505050505050505050505050508015610a44576000805461ff0019169055604051600181527f7f26b83ff96e1f2b6a682f133852f6798a09c465da95921460cefb38474024989060200160405180910390a1505050565b60008060006132fe612628565b925092509250600061330e611680565b6001600160a01b031663027aa9f56040518163ffffffff1660e01b8152600401600060405180830381865afa15801561334b573d6000803e3d6000fd5b505050506040513d6000823e601f3d908101601f191682016040526133739190810190613dc6565b905060005b815181101561344c57600082828151811061339557613395613eec565b602002602001015190508582815181106133b1576133b1613eec565b60200260200101516005600060018152602001908152602001600020826040516133db9190613f02565b9081526020016040518091039020819055508482815181106133ff576133ff613eec565b60200260200101516005600060028152602001908152602001600020826040516134299190613f02565b90815260405190819003602001902055508061344481613f1e565b915050613378565b50506008555050565b600080826134638588613d87565b61346d9190613d36565b90508461348282670de0b6b3a7640000613d87565b61348c9190613d36565b9695505050505050565b6000806000806000868060200190518101906134b29190614021565b9350935093509350600080600080898060200190518101906134d49190614021565b93509350935093506000808789670de0b6b3a76400006134f49190613d87565b6134fe9190613d36565b90506000876135158c670de0b6b3a7640000613d87565b61351f9190613d36565b90506000851180156135315750600084115b15613589578461354987670de0b6b3a7640000613d87565b6135539190613d36565b61355d9083613f5d565b91508361357288670de0b6b3a7640000613d87565b61357c9190613d36565b6135869082613f5d565b90505b8082111561359657600292505b808210156135a357600192505b509099505050505050505050505b92915050565b6000806135c2611680565b6001600160a01b031663027aa9f56040518163ffffffff1660e01b8152600401600060405180830381865afa1580156135ff573d6000803e3d6000fd5b505050506040513d6000823e601f3d908101601f191682016040526136279190810190613dc6565b905060005b815181101561375357600082828151811061364957613649613eec565b6020026020010151905061365b611df2565b6001600160a01b031663fe01e782826040518263ffffffff1660e01b81526004016136869190613922565b602060405180830381865afa1580156136a3573d6000803e3d6000fd5b505050506040513d601f19601f820116820180604052508101906136c79190613c66565b6040516370a0823160e01b81526001600160a01b03878116600483015291909116906370a0823190602401602060405180830381865afa15801561370f573d6000803e3d6000fd5b505050506040513d601f19601f820116820180604052508101906137339190613c10565b61373d9085613f5d565b935050808061374b90613f1e565b91505061362c565b5050919050565b6001600160a01b038116811461376f57600080fd5b50565b634e487b7160e01b600052604160045260246000fd5b604051601f8201601f191681016001600160401b03811182821017156137b0576137b0613772565b604052919050565b60006001600160401b038211156137d1576137d1613772565b50601f01601f191660200190565b600082601f8301126137f057600080fd5b81356138036137fe826137b8565b613788565b81815284602083860101111561381857600080fd5b816020850160208301376000918101602001919091529392505050565b6000806040838503121561384857600080fd5b82356138538161375a565b915060208301356001600160401b0381111561386e57600080fd5b61387a858286016137df565b9150509250929050565b8035801515811461389457600080fd5b919050565b600080600080608085870312156138af57600080fd5b6138b885613884565b966020860135965060408601359560600135945092505050565b60005b838110156138ed5781810151838201526020016138d5565b50506000910152565b6000815180845261390e8160208601602086016138d2565b601f01601f19169290920160200192915050565b60208152600061393560208301846138f6565b9392505050565b60006020828403121561394e57600080fd5b5035919050565b600080600080600080600060e0888a03121561397057600080fd5b87359650602088013595506040880135945061398e60608901613884565b9699959850939660808101359560a0820135955060c0909101359350915050565b6000602082840312156139c157600080fd5b81356139358161375a565b600080604083850312156139df57600080fd5b8235915060208301356001600160401b0381111561386e57600080fd5b600081518084526020808501945080840160005b83811015613a2c57815187529582019590820190600101613a10565b509495945050505050565b8215158152604060208201526000613a5260408301846139fc565b949350505050565b60008060408385031215613a6d57600080fd5b8235613a788161375a565b946020939093013593505050565b606081526000613a9960608301866139fc565b8281036020840152613aab81866139fc565b9050828103604084015261348c81856138f6565b606081526000613ad260608301866139fc565b8281036020840152613ae481866139fc565b915050826040830152949350505050565b60006001600160401b03821115613b0e57613b0e613772565b5060051b60200190565b600082601f830112613b2957600080fd5b81356020613b396137fe83613af5565b82815260059290921b84018101918181019086841115613b5857600080fd5b8286015b84811015613b735780358352918301918301613b5c565b509695505050505050565b60008060408385031215613b9157600080fd5b82356001600160401b0380821115613ba857600080fd5b613bb486838701613b18565b93506020850135915080821115613bca57600080fd5b5061387a85828601613b18565b60008060408385031215613bea57600080fd5b8235613bf58161375a565b91506020830135613c058161375a565b809150509250929050565b600060208284031215613c2257600080fd5b5051919050565b634e487b7160e01b600052601160045260246000fd5b6001600160401b03818116838216019080821115613c5f57613c5f613c29565b5092915050565b600060208284031215613c7857600080fd5b81516139358161375a565b600082601f830112613c9457600080fd5b8151613ca26137fe826137b8565b818152846020838601011115613cb757600080fd5b613a528260208301602087016138d2565b600060208284031215613cda57600080fd5b81516001600160401b03811115613cf057600080fd5b613a5284828501613c83565b600181811c90821680613d1057607f821691505b602082108103613d3057634e487b7160e01b600052602260045260246000fd5b50919050565b600082613d5357634e487b7160e01b600052601260045260246000fd5b500490565b60006001600160401b0380831681851681830481118215151615613d7e57613d7e613c29565b02949350505050565b6000816000190483118215151615613da157613da1613c29565b500290565b6001600160401b03828116828216039080821115613c5f57613c5f613c29565b60006020808385031215613dd957600080fd5b82516001600160401b0380821115613df057600080fd5b818501915085601f830112613e0457600080fd5b8151613e126137fe82613af5565b81815260059190911b83018401908481019088831115613e3157600080fd5b8585015b83811015613e6957805185811115613e4d5760008081fd5b613e5b8b89838a0101613c83565b845250918601918601613e35565b5098975050505050505050565b6000604082016040835280855180835260608501915060608160051b8601019250602080880160005b83811015613ecd57605f19888703018552613ebb8683516138f6565b95509382019390820190600101613e9f565b505085840381870152505050613ee381856139fc565b95945050505050565b634e487b7160e01b600052603260045260246000fd5b60008251613f148184602087016138d2565b9190910192915050565b600060018201613f3057613f30613c29565b5060010190565b600060208284031215613f4957600080fd5b815163ffffffff8116811461393557600080fd5b808201808211156135b1576135b1613c29565b600080600080600080600060e0888a031215613f8b57600080fd5b5050855160208701516040880151606089015160808a015160a08b015160c0909b0151949c939b50919990985090965094509092509050565b818103818111156135b1576135b1613c29565b80516001600160401b038116811461389457600080fd5b6000806040838503121561400157600080fd5b61400a83613fd7565b915061401860208401613fd7565b90509250929050565b6000806000806080858703121561403757600080fd5b50508251602084015160408501516060909501519196909550909250905056fec3a24b0501bd2c13a7e57f2db4369ec4c223447539fc0724a9d55ac4a06ebd4da26469706673582212202bd6263660cab0c388b61e03d02df4c1ae2e8b9c9970eddb4df0d190876bc95664736f6c63430008100033",
  "libraries": {
    "MathExtension": "0x0b47496cB17dFBa7Db79B0Dc96400E548a95F092"
  },
  "devdoc": {
    "kind": "dev",
    "methods": {
      "acceptArmyInBattle(address,uint256)": {
        "details": "Even though function is opened, it can only be called by world asset",
        "params": {
          "armyAddress": "Army address",
          "side": "Side to which army will join"
        }
      },
      "assetGroup()": {
        "details": "Reads data from proxy's storage",
        "returns": {
          "_0": "World asset group"
        }
      },
      "assetType()": {
        "details": "Reads data from proxy's storage",
        "returns": {
          "_0": "World asset type"
        }
      },
      "calculateAllCasualties()": {
        "details": "Uses values from battles' sideUnitsCount in order to calculate casualties (can be executed while battle is still not fully formed)",
        "returns": {
          "_0": "Side A casualties",
          "_1": "Side A casualties",
          "_2": "Winning side (0 - both sides lost, 1 - side A Won, 2 - side B Won"
        }
      },
      "calculateArmyCasualties(address)": {
        "details": "Provides valid results only for finished battle",
        "params": {
          "armyAddress": "Address of army presented in battle"
        },
        "returns": {
          "_0": "Is army won",
          "_1": "Amount of casualties for related unit types"
        }
      },
      "calculateStage1Casualties()": {
        "details": "Uses values from battles' sideUnitsCount in order to calculate casualties (can be executed while battle is still not fully formed)",
        "returns": {
          "_sideACasualties": "Side A casualties",
          "_sideBCasualties": "Side B casualties",
          "stageParams": "Stage params (encoded abi.encode(sideAOffense, sideBOffense, sideADefence, sideBDefence))"
        }
      },
      "calculateStage2Casualties(uint256[],uint256[])": {
        "details": "Uses values from battles' sideUnitsCount in order to calculate casualties (can be executed while battle is still not fully formed)",
        "params": {
          "stage1SideACasualties": "Stage 1 side A casualties",
          "stage1SideBCasualties": "Stage 1 side B casualties"
        },
        "returns": {
          "_sideACasualties": "Side A casualties",
          "_sideBCasualties": "Side B casualties",
          "stageParams": "Stage params (encoded abi.encode(sideAOffense, sideBOffense, sideADefence, sideBDefence))"
        }
      },
      "calculateTimings(uint256,uint256,uint256,bool,uint256,uint256,uint256)": {
        "details": "globalMultiplier, baseLobbyDuration, baseOngoingDuration parameters from registry",
        "params": {
          "baseBattleDuration": "Base battle duration (from registry)",
          "battleLobbyDurationPercent": "Battle lobby duration percent (from registry)",
          "globalMultiplier": "Global multiplier (from registry)",
          "isCultistsAttacked": "Is cultists attacked",
          "maxBattleDuration": "Max allowed battle duration",
          "units1": "Amount of units from attacker army",
          "units2": "Amount of units from attacked army"
        },
        "returns": {
          "_0": "Lobby duration",
          "_1": "Ongoing duration"
        }
      },
      "canFinishBattle()": {
        "details": "Checks if finishTime is set and current block.timestamp > creationTime + lobbyDuration + ongoingDuration",
        "returns": {
          "_0": "Can battle be finished"
        }
      },
      "epoch()": {
        "details": "Value is dereferenced from proxy storage and world"
      },
      "epochNumber()": {
        "details": "Reads data from proxy's storage",
        "returns": {
          "_0": "Epoch number"
        }
      },
      "finishBattle()": {
        "details": "Sets finish time"
      },
      "getSideALength()": {
        "details": "Basically returns length of sideA array",
        "returns": {
          "_0": "Amount of armies joined to side A"
        }
      },
      "getSideBLength()": {
        "details": "Basically returns length of sideA array",
        "returns": {
          "_0": "Amount of armies joined to side B"
        }
      },
      "getTimings(bool,uint256,uint256,uint256)": {
        "details": "Returns same value as #calculateTimings but without the need to provide all parameters",
        "params": {
          "isCultistsAttacked": "Is cultists attacked",
          "maxBattleDuration": "Max allowed battle duration",
          "sideAUnitsCount": "Side A units count",
          "sideBUnitsCount": "Side B units count"
        },
        "returns": {
          "_0": "Lobby duration",
          "_1": "Ongoing duration"
        }
      },
      "init(address,address)": {
        "details": "Called by factory contract which creates current instance",
        "params": {
          "attackedArmyAddress": "Attacked army address",
          "attackerArmyAddress": "Attacker army address"
        }
      },
      "isFinishedBattle()": {
        "details": "Checks if finishTime is not zero",
        "returns": {
          "_0": "Is finished battle"
        }
      },
      "isLobbyTime()": {
        "details": "Calculates if lobby is opened",
        "returns": {
          "_0": "Is lobby is opened"
        }
      },
      "registry()": {
        "details": "Value is dereferenced from world"
      },
      "removeArmyFromBattle(address)": {
        "details": "Even though function is opened, it can only be called by world asset",
        "params": {
          "armyAddress": "Army address"
        }
      },
      "world()": {
        "details": "Value is dereferenced from proxy storage"
      }
    },
    "stateVariables": {
      "armySide": {
        "details": "Updated when #acceptArmyInBattle is called",
        "params": {
          "armyAddress": "Address of the army"
        },
        "return": "Side of specified army (sideA = 1, sideB = 2)",
        "returns": {
          "_0": "Side of specified army (sideA = 1, sideB = 2)"
        }
      },
      "armyUnitsCount": {
        "details": "Updated when army joins battle",
        "params": {
          "armyAddress": "Address of the army",
          "unitName": "Unit type to query"
        },
        "return": "Amount of units by army address and unit type",
        "returns": {
          "_0": "Amount of units by army address and unit type"
        }
      },
      "casualties": {
        "details": "Updated when #startBattle is called",
        "params": {
          "side": "Side of which query casualties amount (sideA = 1, sideB = 2)",
          "unitName": "Unit type to query"
        },
        "return": "Amount of casualties by side and unit type",
        "returns": {
          "_0": "Amount of casualties by side and unit type"
        }
      },
      "position": {
        "details": "Immutable, initialized on the battle creation"
      },
      "sideA": {
        "details": "Updated when army joins side A",
        "params": {
          "index": "Index inside the array"
        },
        "return": "Army address at the specified index",
        "returns": {
          "_0": "Army address at the specified index"
        }
      },
      "sideB": {
        "details": "Updated when army joins side B",
        "params": {
          "index": "Index inside the array"
        },
        "return": "Army address at the specified index",
        "returns": {
          "_0": "Army address at the specified index"
        }
      },
      "sideUnitsCount": {
        "details": "Updated when army joins side",
        "params": {
          "side": "Side of which query units amount (sideA = 1, sideB = 2)",
          "unitName": "Unit type to query"
        },
        "return": "Amount of units by specified side and unit type",
        "returns": {
          "_0": "Amount of units by specified side and unit type"
        }
      },
      "timing": {
        "details": "Updated when battle initialized, first armies joined and finished (#initBattle, #acceptArmyInBattle, #startBattle)",
        "returns": {
          "creationTime": "Time when battle is created",
          "finishTime": "Time when battle is finished",
          "lobbyDuration": "Lobby duration, initialized when first two armies joined",
          "ongoingDuration": "Ongoing duration, initialized when first two armies joined"
        }
      },
      "winningSide": {
        "details": "Updated when #finishBattle is called",
        "return": "Winning side (no winner = 0, sideA = 1, sideB = 2)",
        "returns": {
          "_0": "Winning side (no winner = 0, sideA = 1, sideB = 2)"
        }
      }
    },
    "version": 1
  },
  "userdoc": {
    "events": {
      "ArmyJoined(address,uint256)": {
        "notice": "Emitted when army joined battle"
      },
      "BattleFinished(uint256)": {
        "notice": "Emitted when #finishBattle is called"
      }
    },
    "kind": "user",
    "methods": {
      "acceptArmyInBattle(address,uint256)": {
        "notice": "Accepts army in battle"
      },
      "armySide(address)": {
        "notice": "Mapping that contains side at which joined army is on"
      },
      "armyUnitsCount(address,string)": {
        "notice": "Mapping that contains amount of units by army address and unit type"
      },
      "assetGroup()": {
        "notice": "Returns world asset group"
      },
      "assetType()": {
        "notice": "Returns world asset type"
      },
      "calculateAllCasualties()": {
        "notice": "Calculates casualties for all battle stages"
      },
      "calculateArmyCasualties(address)": {
        "notice": "Calculates casualties for specified army"
      },
      "calculateStage1Casualties()": {
        "notice": "Calculates casualties for first battle stage"
      },
      "calculateStage2Casualties(uint256[],uint256[])": {
        "notice": "Calculates casualties for second battle stage (based on casualties from first battle stage)"
      },
      "calculateTimings(uint256,uint256,uint256,bool,uint256,uint256,uint256)": {
        "notice": "Calculates lobby duration and ongoing duration based on specified parameters"
      },
      "canFinishBattle()": {
        "notice": "Calculates if battle can be finished"
      },
      "casualties(uint256,string)": {
        "notice": "Mapping that contains amount of casualties after battle is finished"
      },
      "epoch()": {
        "notice": "Epoch"
      },
      "epochNumber()": {
        "notice": "Returns epoch number"
      },
      "finishBattle()": {
        "notice": "Finishes battle"
      },
      "getSideALength()": {
        "notice": "Calculates amount of armies joined to side A"
      },
      "getSideBLength()": {
        "notice": "Calculates amount of armies joined to side B"
      },
      "getTimings(bool,uint256,uint256,uint256)": {
        "notice": "Calculates lobby and ongoing duration"
      },
      "init(address,address)": {
        "notice": "Proxy initializer"
      },
      "isFinishedBattle()": {
        "notice": "Calculates if battle is finished"
      },
      "isLobbyTime()": {
        "notice": "Calculates if lobby is opened"
      },
      "position()": {
        "notice": "Position at which battle is being held"
      },
      "registry()": {
        "notice": "Registry"
      },
      "removeArmyFromBattle(address)": {
        "notice": "Removes army from battle"
      },
      "sideA(uint256)": {
        "notice": "An array of armies joined to side A"
      },
      "sideB(uint256)": {
        "notice": "An array of armies joined to side B"
      },
      "sideUnitsCount(uint256,string)": {
        "notice": "Mapping that contains units amount by side and unit type"
      },
      "timing()": {
        "notice": "Battle time parameters"
      },
      "winningSide()": {
        "notice": "Winning side"
      },
      "world()": {
        "notice": "World"
      }
    },
    "version": 1
  },
  "storageLayout": {
    "storage": [
      {
        "astId": 119,
        "contract": "contracts/core/assets/battle/Battle.sol:Battle",
        "label": "_initialized",
        "offset": 0,
        "slot": "0",
        "type": "t_uint8"
      },
      {
        "astId": 122,
        "contract": "contracts/core/assets/battle/Battle.sol:Battle",
        "label": "_initializing",
        "offset": 1,
        "slot": "0",
        "type": "t_bool"
      },
      {
        "astId": 12420,
        "contract": "contracts/core/assets/battle/Battle.sol:Battle",
        "label": "position",
        "offset": 2,
        "slot": "0",
        "type": "t_uint32"
      },
      {
        "astId": 12425,
        "contract": "contracts/core/assets/battle/Battle.sol:Battle",
        "label": "sideA",
        "offset": 0,
        "slot": "1",
        "type": "t_array(t_address)dyn_storage"
      },
      {
        "astId": 12430,
        "contract": "contracts/core/assets/battle/Battle.sol:Battle",
        "label": "sideB",
        "offset": 0,
        "slot": "2",
        "type": "t_array(t_address)dyn_storage"
      },
      {
        "astId": 12438,
        "contract": "contracts/core/assets/battle/Battle.sol:Battle",
        "label": "sideUnitsCount",
        "offset": 0,
        "slot": "3",
        "type": "t_mapping(t_uint256,t_mapping(t_string_memory_ptr,t_uint256))"
      },
      {
        "astId": 12446,
        "contract": "contracts/core/assets/battle/Battle.sol:Battle",
        "label": "armyUnitsCount",
        "offset": 0,
        "slot": "4",
        "type": "t_mapping(t_address,t_mapping(t_string_memory_ptr,t_uint256))"
      },
      {
        "astId": 12454,
        "contract": "contracts/core/assets/battle/Battle.sol:Battle",
        "label": "casualties",
        "offset": 0,
        "slot": "5",
        "type": "t_mapping(t_uint256,t_mapping(t_string_memory_ptr,t_uint256))"
      },
      {
        "astId": 12460,
        "contract": "contracts/core/assets/battle/Battle.sol:Battle",
        "label": "armySide",
        "offset": 0,
        "slot": "6",
        "type": "t_mapping(t_address,t_uint256)"
      },
      {
        "astId": 12465,
        "contract": "contracts/core/assets/battle/Battle.sol:Battle",
        "label": "timing",
        "offset": 0,
        "slot": "7",
        "type": "t_struct(Timing)14431_storage"
      },
      {
        "astId": 12469,
        "contract": "contracts/core/assets/battle/Battle.sol:Battle",
        "label": "winningSide",
        "offset": 0,
        "slot": "8",
        "type": "t_uint256"
      }
    ],
    "types": {
      "t_address": {
        "encoding": "inplace",
        "label": "address",
        "numberOfBytes": "20"
      },
      "t_array(t_address)dyn_storage": {
        "base": "t_address",
        "encoding": "dynamic_array",
        "label": "address[]",
        "numberOfBytes": "32"
      },
      "t_bool": {
        "encoding": "inplace",
        "label": "bool",
        "numberOfBytes": "1"
      },
      "t_mapping(t_address,t_mapping(t_string_memory_ptr,t_uint256))": {
        "encoding": "mapping",
        "key": "t_address",
        "label": "mapping(address => mapping(string => uint256))",
        "numberOfBytes": "32",
        "value": "t_mapping(t_string_memory_ptr,t_uint256)"
      },
      "t_mapping(t_address,t_uint256)": {
        "encoding": "mapping",
        "key": "t_address",
        "label": "mapping(address => uint256)",
        "numberOfBytes": "32",
        "value": "t_uint256"
      },
      "t_mapping(t_string_memory_ptr,t_uint256)": {
        "encoding": "mapping",
        "key": "t_string_memory_ptr",
        "label": "mapping(string => uint256)",
        "numberOfBytes": "32",
        "value": "t_uint256"
      },
      "t_mapping(t_uint256,t_mapping(t_string_memory_ptr,t_uint256))": {
        "encoding": "mapping",
        "key": "t_uint256",
        "label": "mapping(uint256 => mapping(string => uint256))",
        "numberOfBytes": "32",
        "value": "t_mapping(t_string_memory_ptr,t_uint256)"
      },
      "t_string_memory_ptr": {
        "encoding": "bytes",
        "label": "string",
        "numberOfBytes": "32"
      },
      "t_struct(Timing)14431_storage": {
        "encoding": "inplace",
        "label": "struct IBattle.Timing",
        "members": [
          {
            "astId": 14424,
            "contract": "contracts/core/assets/battle/Battle.sol:Battle",
            "label": "creationTime",
            "offset": 0,
            "slot": "0",
            "type": "t_uint64"
          },
          {
            "astId": 14426,
            "contract": "contracts/core/assets/battle/Battle.sol:Battle",
            "label": "lobbyDuration",
            "offset": 8,
            "slot": "0",
            "type": "t_uint64"
          },
          {
            "astId": 14428,
            "contract": "contracts/core/assets/battle/Battle.sol:Battle",
            "label": "ongoingDuration",
            "offset": 16,
            "slot": "0",
            "type": "t_uint64"
          },
          {
            "astId": 14430,
            "contract": "contracts/core/assets/battle/Battle.sol:Battle",
            "label": "finishTime",
            "offset": 24,
            "slot": "0",
            "type": "t_uint64"
          }
        ],
        "numberOfBytes": "32"
      },
      "t_uint256": {
        "encoding": "inplace",
        "label": "uint256",
        "numberOfBytes": "32"
      },
      "t_uint32": {
        "encoding": "inplace",
        "label": "uint32",
        "numberOfBytes": "4"
      },
      "t_uint64": {
        "encoding": "inplace",
        "label": "uint64",
        "numberOfBytes": "8"
      },
      "t_uint8": {
        "encoding": "inplace",
        "label": "uint8",
        "numberOfBytes": "1"
      }
    }
  }
}