{
  "address": "0x3Ef0894BB86306603E81da56Ee3e3fD698AEAeD2",
  "abi": [
    {
      "anonymous": false,
      "inputs": [
        {
          "indexed": false,
          "internalType": "uint256",
          "name": "epochNumber",
          "type": "uint256"
        }
      ],
      "name": "CurrentEpochNumberUpdated",
      "type": "event"
    },
    {
      "anonymous": false,
      "inputs": [
        {
          "indexed": false,
          "internalType": "uint256",
          "name": "timestamp",
          "type": "uint256"
        }
      ],
      "name": "GameFinishTimeUpdated",
      "type": "event"
    },
    {
      "anonymous": false,
      "inputs": [
        {
          "indexed": false,
          "internalType": "uint256",
          "name": "timestamp",
          "type": "uint256"
        }
      ],
      "name": "GameStartTimeUpdated",
      "type": "event"
    },
    {
      "anonymous": false,
      "inputs": [
        {
          "indexed": false,
          "internalType": "uint8",
          "name": "version",
          "type": "uint8"
        }
      ],
      "name": "Initialized",
      "type": "event"
    },
    {
      "anonymous": false,
      "inputs": [
        {
          "indexed": false,
          "internalType": "address",
          "name": "epochAddress",
          "type": "address"
        },
        {
          "indexed": false,
          "internalType": "uint256",
          "name": "epochNumber",
          "type": "uint256"
        }
      ],
      "name": "NewWorldEpoch",
      "type": "event"
    },
    {
      "anonymous": false,
      "inputs": [
        {
          "indexed": false,
          "internalType": "address",
          "name": "registryContractAddress",
          "type": "address"
        },
        {
          "indexed": false,
          "internalType": "address",
          "name": "geographyAddress",
          "type": "address"
        },
        {
          "indexed": false,
          "internalType": "address",
          "name": "bannersAddress",
          "type": "address"
        },
        {
          "indexed": false,
          "internalType": "address",
          "name": "blessTokenAddress",
          "type": "address"
        },
        {
          "indexed": false,
          "internalType": "address",
          "name": "distributionsAddress",
          "type": "address"
        },
        {
          "indexed": false,
          "internalType": "address",
          "name": "rewardPoolAddress",
          "type": "address"
        }
      ],
      "name": "WorldInitialized",
      "type": "event"
    },
    {
      "inputs": [
        {
          "internalType": "uint256",
          "name": "epochNumber",
          "type": "uint256"
        },
        {
          "internalType": "address",
          "name": "worldAsset",
          "type": "address"
        },
        {
          "internalType": "bytes32",
          "name": "assetType",
          "type": "bytes32"
        }
      ],
      "name": "addWorldAsset",
      "outputs": [],
      "stateMutability": "nonpayable",
      "type": "function"
    },
    {
      "inputs": [],
      "name": "bannerContract",
      "outputs": [
        {
          "internalType": "contract IERC721",
          "name": "",
          "type": "address"
        }
      ],
      "stateMutability": "view",
      "type": "function"
    },
    {
      "inputs": [
        {
          "internalType": "uint256",
          "name": "epochNumber",
          "type": "uint256"
        },
        {
          "internalType": "address",
          "name": "to",
          "type": "address"
        },
        {
          "internalType": "string[]",
          "name": "resourcesNames",
          "type": "string[]"
        },
        {
          "internalType": "uint256[]",
          "name": "amounts",
          "type": "uint256[]"
        }
      ],
      "name": "batchTransferResources",
      "outputs": [],
      "stateMutability": "nonpayable",
      "type": "function"
    },
    {
      "inputs": [],
      "name": "blessToken",
      "outputs": [
        {
          "internalType": "contract IERC20",
          "name": "",
          "type": "address"
        }
      ],
      "stateMutability": "view",
      "type": "function"
    },
    {
      "inputs": [],
      "name": "crossEpochsMemory",
      "outputs": [
        {
          "internalType": "contract ICrossEpochsMemory",
          "name": "",
          "type": "address"
        }
      ],
      "stateMutability": "view",
      "type": "function"
    },
    {
      "inputs": [],
      "name": "currentEpochNumber",
      "outputs": [
        {
          "internalType": "uint256",
          "name": "",
          "type": "uint256"
        }
      ],
      "stateMutability": "view",
      "type": "function"
    },
    {
      "inputs": [],
      "name": "destroyCurrentEpoch",
      "outputs": [],
      "stateMutability": "nonpayable",
      "type": "function"
    },
    {
      "inputs": [],
      "name": "destroyCurrentEpochWithoutCondition",
      "outputs": [],
      "stateMutability": "nonpayable",
      "type": "function"
    },
    {
      "inputs": [],
      "name": "distributions",
      "outputs": [
        {
          "internalType": "contract IDistributions",
          "name": "",
          "type": "address"
        }
      ],
      "stateMutability": "view",
      "type": "function"
    },
    {
      "inputs": [
        {
          "internalType": "uint256",
          "name": "",
          "type": "uint256"
        }
      ],
      "name": "epochs",
      "outputs": [
        {
          "internalType": "contract IEpoch",
          "name": "",
          "type": "address"
        }
      ],
      "stateMutability": "view",
      "type": "function"
    },
    {
      "inputs": [],
      "name": "gameFinishTime",
      "outputs": [
        {
          "internalType": "uint256",
          "name": "",
          "type": "uint256"
        }
      ],
      "stateMutability": "view",
      "type": "function"
    },
    {
      "inputs": [],
      "name": "gameStartTime",
      "outputs": [
        {
          "internalType": "uint256",
          "name": "",
          "type": "uint256"
        }
      ],
      "stateMutability": "view",
      "type": "function"
    },
    {
      "inputs": [],
      "name": "geography",
      "outputs": [
        {
          "internalType": "contract IGeography",
          "name": "",
          "type": "address"
        }
      ],
      "stateMutability": "view",
      "type": "function"
    },
    {
      "inputs": [
        {
          "internalType": "address",
          "name": "registryContractAddress",
          "type": "address"
        },
        {
          "internalType": "address",
          "name": "crossEpochsMemoryAddress",
          "type": "address"
        },
        {
          "internalType": "address",
          "name": "geographyAddress",
          "type": "address"
        },
        {
          "internalType": "address",
          "name": "bannersAddress",
          "type": "address"
        },
        {
          "internalType": "address",
          "name": "blessTokenAddress",
          "type": "address"
        },
        {
          "internalType": "address",
          "name": "distributionsAddress",
          "type": "address"
        },
        {
          "internalType": "address",
          "name": "rewardPoolAddress",
          "type": "address"
        }
      ],
      "name": "init",
      "outputs": [],
      "stateMutability": "nonpayable",
      "type": "function"
    },
    {
      "inputs": [
        {
          "internalType": "uint256",
          "name": "epochNumber",
          "type": "uint256"
        },
        {
          "internalType": "string",
          "name": "_resourceName",
          "type": "string"
        },
        {
          "internalType": "address",
          "name": "_to",
          "type": "address"
        },
        {
          "internalType": "uint256",
          "name": "_value",
          "type": "uint256"
        }
      ],
      "name": "mintResources",
      "outputs": [],
      "stateMutability": "nonpayable",
      "type": "function"
    },
    {
      "inputs": [
        {
          "internalType": "uint256",
          "name": "epochNumber",
          "type": "uint256"
        },
        {
          "internalType": "string",
          "name": "_unitName",
          "type": "string"
        },
        {
          "internalType": "address",
          "name": "_to",
          "type": "address"
        },
        {
          "internalType": "uint256",
          "name": "_value",
          "type": "uint256"
        }
      ],
      "name": "mintUnits",
      "outputs": [],
      "stateMutability": "nonpayable",
      "type": "function"
    },
    {
      "inputs": [
        {
          "internalType": "uint256",
          "name": "epochNumber",
          "type": "uint256"
        },
        {
          "internalType": "address",
          "name": "_to",
          "type": "address"
        },
        {
          "internalType": "uint256",
          "name": "_value",
          "type": "uint256"
        }
      ],
      "name": "mintWorkers",
      "outputs": [],
      "stateMutability": "nonpayable",
      "type": "function"
    },
    {
      "inputs": [],
      "name": "registry",
      "outputs": [
        {
          "internalType": "contract IRegistry",
          "name": "",
          "type": "address"
        }
      ],
      "stateMutability": "view",
      "type": "function"
    },
    {
      "inputs": [],
      "name": "rewardPool",
      "outputs": [
        {
          "internalType": "contract IRewardPool",
          "name": "",
          "type": "address"
        }
      ],
      "stateMutability": "view",
      "type": "function"
    },
    {
      "inputs": [
        {
          "internalType": "uint256",
          "name": "value",
          "type": "uint256"
        }
      ],
      "name": "setGameFinishTime",
      "outputs": [],
      "stateMutability": "nonpayable",
      "type": "function"
    },
    {
      "inputs": [
        {
          "internalType": "uint256",
          "name": "value",
          "type": "uint256"
        }
      ],
      "name": "setGameStartTime",
      "outputs": [],
      "stateMutability": "nonpayable",
      "type": "function"
    },
    {
      "inputs": [
        {
          "internalType": "uint256",
          "name": "",
          "type": "uint256"
        },
        {
          "internalType": "address",
          "name": "",
          "type": "address"
        }
      ],
      "name": "worldAssets",
      "outputs": [
        {
          "internalType": "bytes32",
          "name": "",
          "type": "bytes32"
        }
      ],
      "stateMutability": "view",
      "type": "function"
    }
  ],
  "transactionHash": "0x92650f1734c4ef332dba4b14cfffaab5ef0834b713b7fde1e612357fb9c53076",
  "args": [],
  "numDeployments": 1,
  "solcInputHash": "fe31280621a8db2936c7c6268abddf29",
  "bytecode": "0x608060405234801561001057600080fd5b50611a74806100206000396000f3fe608060405234801561001057600080fd5b50600436106101615760003560e01c8063909a8531116100c8578063ccc59cba1161008c578063ebbe803411610066578063ebbe8034146102e4578063f0d4d5921461030f578063f5f026a31461032257600080fd5b8063ccc59cba146102b6578063e4e940f0146102be578063e9587c2b146102d157600080fd5b8063909a85311461024157806398d4d7a5146102545780639fdef07514610267578063bdf1fb331461027a578063c6b61e4c1461028d57600080fd5b80632769c89a1161012a5780636903beb4116101045780636903beb4146102165780637aa873341461021f5780637b1039991461022857600080fd5b80632769c89a146101dd578063492b3f84146101f057806366666aa91461020357600080fd5b8062d145961461016657806301a6f7321461017057806301d577f4146101835780630252b99514610196578063183100fa146101b2575b600080fd5b61016e610335565b005b61016e61017e3660046115f7565b610787565b61016e610191366004611699565b6108ef565b61019f60075481565b6040519081526020015b60405180910390f35b6002546101c5906001600160a01b031681565b6040516001600160a01b0390911681526020016101a9565b61016e6101eb36600461176c565b610aa2565b61016e6101fe366004611785565b610ba9565b6006546101c5906001600160a01b031681565b61019f60095481565b61019f60085481565b6000546101c5906201000090046001600160a01b031681565b61016e61024f366004611785565b610d4c565b61016e61026236600461176c565b610e1d565b6005546101c5906001600160a01b031681565b61016e610288366004611699565b610f3e565b6101c561029b36600461176c565b600a602052600090815260409020546001600160a01b031681565b61016e611046565b6004546101c5906001600160a01b031681565b6003546101c5906001600160a01b031681565b61019f6102f23660046117bd565b600b60209081526000928352604080842090915290825290205481565b61016e61031d3660046117ed565b611192565b6001546101c5906001600160a01b031681565b60085480158061034457508042105b6103865760405162461bcd60e51b815260206004820152600e60248201526d6f6e6c7941637469766547616d6560901b60448201526064015b60405180910390fd5b6009546000908152600a602090815260408083205483548251633c0f077f60e11b815292516001600160a01b039283169594620100009092049092169263781e0efe92600480830193928290030181865afa1580156103e9573d6000803e3d6000fd5b505050506040513d601f19601f8201168201806040525081019061040d9190611883565b600060029054906101000a90046001600160a01b03166001600160a01b031663f51574136040518163ffffffff1660e01b8152600401602060405180830381865afa158015610460573d6000803e3d6000fd5b505050506040513d601f19601f820116820180604052508101906104849190611883565b61048e91906118b2565b9050600081836001600160a01b031663d7e842826040518163ffffffff1660e01b8152600401602060405180830381865afa1580156104d1573d6000803e3d6000fd5b505050506040513d601f19601f820116820180604052508101906104f59190611883565b6104ff91906118d4565b90508042116105505760405162461bcd60e51b815260206004820152601d60248201527f6465737472756374696f6e206e6f7420617661696c61626c6520796574000000604482015260640161037d565b60008060029054906101000a90046001600160a01b03166001600160a01b031663e7cb9a876040518163ffffffff1660e01b8152600401602060405180830381865afa1580156105a4573d6000803e3d6000fd5b505050506040513d601f19601f820116820180604052508101906105c89190611883565b600160009054906101000a90046001600160a01b03166001600160a01b031663e1044a3d6040518163ffffffff1660e01b8152600401602060405180830381865afa15801561061b573d6000803e3d6000fd5b505050506040513d601f19601f8201168201806040525081019061063f9190611883565b61064991906118ed565b905080846001600160a01b031663fcc814b06040518163ffffffff1660e01b8152600401602060405180830381865afa15801561068a573d6000803e3d6000fd5b505050506040513d601f19601f820116820180604052508101906106ae9190611883565b116106fb5760405162461bcd60e51b815260206004820152601a60248201527f63756c7469737473206c696d6974206e6f742072656163686564000000000000604482015260640161037d565b6000600954600161070c91906118d4565b905061071781611394565b600660009054906101000a90046001600160a01b03166001600160a01b0316638424837e6040518163ffffffff1660e01b8152600401600060405180830381600087803b15801561076757600080fd5b505af115801561077b573d6000803e3d6000fd5b50505050505050505050565b60005b838110156108e6576000878152600a60205260409020546001600160a01b03166304f86f3c8686848181106107c1576107c161190c565b90506020028101906107d39190611922565b6040518363ffffffff1660e01b81526004016107f0929190611969565b602060405180830381865afa15801561080d573d6000803e3d6000fd5b505050506040513d601f19601f820116820180604052508101906108319190611998565b6001600160a01b03166323b872dd33888686868181106108535761085361190c565b6040516001600160e01b031960e088901b1681526001600160a01b039586166004820152949093166024850152506020909102013560448201526064016020604051808303816000875af11580156108af573d6000803e3d6000fd5b505050506040513d601f19601f820116820180604052508101906108d391906119b5565b50806108de816119d7565b91505061078a565b50505050505050565b600060029054906101000a90046001600160a01b03166001600160a01b031663271530506040518163ffffffff1660e01b8152600401602060405180830381865afa158015610942573d6000803e3d6000fd5b505050506040513d601f19601f820116820180604052508101906109669190611998565b6001600160a01b0316336001600160a01b0316146109ba5760405162461bcd60e51b815260206004820152601160248201527037b7363ca6b4b3b43a3ca1b932b0ba37b960791b604482015260640161037d565b6000848152600a602052604090819020549051637f00f3c160e11b81526001600160a01b039091169063fe01e782906109f79086906004016119f0565b602060405180830381865afa158015610a14573d6000803e3d6000fd5b505050506040513d601f19601f82011682018060405250810190610a389190611998565b6040516340c10f1960e01b81526001600160a01b0384811660048301526024820184905291909116906340c10f1990604401600060405180830381600087803b158015610a8457600080fd5b505af1158015610a98573d6000803e3d6000fd5b5050505050505050565b600060029054906101000a90046001600160a01b03166001600160a01b031663271530506040518163ffffffff1660e01b8152600401602060405180830381865afa158015610af5573d6000803e3d6000fd5b505050506040513d601f19601f82011682018060405250810190610b199190611998565b6001600160a01b0316336001600160a01b031614610b6d5760405162461bcd60e51b815260206004820152601160248201527037b7363ca6b4b3b43a3ca1b932b0ba37b960791b604482015260640161037d565b60078190556040518181527fe7f9fc9272f336422b3da3fd3d7efb12f431a9f10b00f1781595bce6a6741b55906020015b60405180910390a150565b600060029054906101000a90046001600160a01b03166001600160a01b031663271530506040518163ffffffff1660e01b8152600401602060405180830381865afa158015610bfc573d6000803e3d6000fd5b505050506040513d601f19601f82011682018060405250810190610c209190611998565b6001600160a01b0316336001600160a01b031614610c745760405162461bcd60e51b815260206004820152601160248201527037b7363ca6b4b3b43a3ca1b932b0ba37b960791b604482015260640161037d565b6000838152600a6020908152604091829020548251630cabb62f60e41b815292516001600160a01b039091169263cabb62f09260048083019391928290030181865afa158015610cc8573d6000803e3d6000fd5b505050506040513d601f19601f82011682018060405250810190610cec9190611998565b6040516340c10f1960e01b81526001600160a01b0384811660048301526024820184905291909116906340c10f1990604401600060405180830381600087803b158015610d3857600080fd5b505af11580156108e6573d6000803e3d6000fd5b600054604051636e24456b60e11b8152336004820152620100009091046001600160a01b03169063dc488ad690602401602060405180830381865afa158015610d99573d6000803e3d6000fd5b505050506040513d601f19601f82011682018060405250810190610dbd91906119b5565b610df75760405162461bcd60e51b815260206004820152600b60248201526a6f6e6c79466163746f727960a81b604482015260640161037d565b6000928352600b602090815260408085206001600160a01b039094168552929052912055565b600060029054906101000a90046001600160a01b03166001600160a01b031663271530506040518163ffffffff1660e01b8152600401602060405180830381865afa158015610e70573d6000803e3d6000fd5b505050506040513d601f19601f82011682018060405250810190610e949190611998565b6001600160a01b0316336001600160a01b03161480610ebd57506006546001600160a01b031633145b610f095760405162461bcd60e51b815260206004820152601d60248201527f6f6e6c794d696768747943726561746f724f72526577617264506f6f6c000000604482015260640161037d565b60088190556040518181527f42cb800dca9e2c3cde4b07793be0f82536b06dd80a41eaa5120082a11f1b57be90602001610b9e565b600060029054906101000a90046001600160a01b03166001600160a01b031663271530506040518163ffffffff1660e01b8152600401602060405180830381865afa158015610f91573d6000803e3d6000fd5b505050506040513d601f19601f82011682018060405250810190610fb59190611998565b6001600160a01b0316336001600160a01b0316146110095760405162461bcd60e51b815260206004820152601160248201527037b7363ca6b4b3b43a3ca1b932b0ba37b960791b604482015260640161037d565b6000848152600a60205260409081902054905163013e1bcf60e21b81526001600160a01b03909116906304f86f3c906109f79086906004016119f0565b600060029054906101000a90046001600160a01b03166001600160a01b031663271530506040518163ffffffff1660e01b8152600401602060405180830381865afa158015611099573d6000803e3d6000fd5b505050506040513d601f19601f820116820180604052508101906110bd9190611998565b6001600160a01b0316336001600160a01b0316146111115760405162461bcd60e51b815260206004820152601160248201527037b7363ca6b4b3b43a3ca1b932b0ba37b960791b604482015260640161037d565b611128600954600161112391906118d4565b611394565b600660009054906101000a90046001600160a01b03166001600160a01b0316638424837e6040518163ffffffff1660e01b8152600401600060405180830381600087803b15801561117857600080fd5b505af115801561118c573d6000803e3d6000fd5b50505050565b600054610100900460ff16158080156111b25750600054600160ff909116105b806111cc5750303b1580156111cc575060005460ff166001145b61122f5760405162461bcd60e51b815260206004820152602e60248201527f496e697469616c697a61626c653a20636f6e747261637420697320616c72656160448201526d191e481a5b9a5d1a585b1a5e995960921b606482015260840161037d565b6000805460ff191660011790558015611252576000805461ff0019166101001790555b6000805475ffffffffffffffffffffffffffffffffffffffff00001916620100006001600160a01b038b811691820292909217909255600580546001600160a01b03199081168b8416179091556001805482168a84169081179091556002805483168a85169081179091556003805484168a86169081179091556004805485168a871690811790915560068054909516958916958617909455604080519687526020870193909352918501526060840152608083015260a08201527f07c6f85c416d850ea7a65c7f522cdb762ef37029a4e54604a8958b157f3b20529060c00160405180910390a1611345600954611394565b8015610a98576000805461ff0019169055604051600181527f7f26b83ff96e1f2b6a682f133852f6798a09c465da95921460cefb38474024989060200160405180910390a15050505050505050565b61139d8161140d565b6000828152600a602090815260409182902080546001600160a01b0319166001600160a01b03949094169384179055815192835282018390527fb89793ad6b88e6de286a7593c453d8a8a3c512b774cf03524b4646c63f1007a4910160405180910390a161140a81611551565b50565b6000805460408051808201825260058152640cae0dec6d60db1b602090910152516350b345b560e01b81527f7c2518396795a0874a8bceac66f007e54d69c9cdbf3e1e796439ab70bacaff18600482015282916201000090046001600160a01b0316906350b345b590602401602060405180830381865afa158015611496573d6000803e3d6000fd5b505050506040513d601f19601f820116820180604052508101906114ba9190611998565b6040516334fe2a8d60e11b815230600482015260248101859052606060448201526005606482015264424153494360d81b60848201529091506001600160a01b038216906369fc551a9060a4016020604051808303816000875af1158015611526573d6000803e3d6000fd5b505050506040513d601f19601f8201168201806040525081019061154a9190611998565b9392505050565b60098190556040518181527fcd241563e4e4701046fb41b0a1c7a9ef0e12e8c6480b4b3a8fbb9247dd37537290602001610b9e565b6001600160a01b038116811461140a57600080fd5b80356115a681611586565b919050565b60008083601f8401126115bd57600080fd5b50813567ffffffffffffffff8111156115d557600080fd5b6020830191508360208260051b85010111156115f057600080fd5b9250929050565b6000806000806000806080878903121561161057600080fd5b86359550602087013561162281611586565b9450604087013567ffffffffffffffff8082111561163f57600080fd5b61164b8a838b016115ab565b9096509450606089013591508082111561166457600080fd5b5061167189828a016115ab565b979a9699509497509295939492505050565b634e487b7160e01b600052604160045260246000fd5b600080600080608085870312156116af57600080fd5b84359350602085013567ffffffffffffffff808211156116ce57600080fd5b818701915087601f8301126116e257600080fd5b8135818111156116f4576116f4611683565b604051601f8201601f19908116603f0116810190838211818310171561171c5761171c611683565b816040528281528a602084870101111561173557600080fd5b82602086016020830137600060208483010152809750505050505061175c6040860161159b565b9396929550929360600135925050565b60006020828403121561177e57600080fd5b5035919050565b60008060006060848603121561179a57600080fd5b8335925060208401356117ac81611586565b929592945050506040919091013590565b600080604083850312156117d057600080fd5b8235915060208301356117e281611586565b809150509250929050565b600080600080600080600060e0888a03121561180857600080fd5b873561181381611586565b9650602088013561182381611586565b9550604088013561183381611586565b9450606088013561184381611586565b9350608088013561185381611586565b925060a088013561186381611586565b915060c088013561187381611586565b8091505092959891949750929550565b60006020828403121561189557600080fd5b5051919050565b634e487b7160e01b600052601160045260246000fd5b6000826118cf57634e487b7160e01b600052601260045260246000fd5b500490565b808201808211156118e7576118e761189c565b92915050565b60008160001904831182151516156119075761190761189c565b500290565b634e487b7160e01b600052603260045260246000fd5b6000808335601e1984360301811261193957600080fd5b83018035915067ffffffffffffffff82111561195457600080fd5b6020019150368190038213156115f057600080fd5b60208152816020820152818360408301376000818301604090810191909152601f909201601f19160101919050565b6000602082840312156119aa57600080fd5b815161154a81611586565b6000602082840312156119c757600080fd5b8151801515811461154a57600080fd5b6000600182016119e9576119e961189c565b5060010190565b600060208083528351808285015260005b81811015611a1d57858101830151858201604001528201611a01565b506000604082860101526040601f19601f830116850101925050509291505056fea26469706673582212203b68ad84c0cf92104d6291c2dce6959ebacf3d9266672f525c72ce6a7dcbde9f64736f6c63430008100033",
  "devdoc": {
    "kind": "dev",
    "methods": {
      "addWorldAsset(uint256,address,bytes32)": {
        "details": "Even though function is opened, it can only be called by factory contract",
        "params": {
          "assetType": "Asset type",
          "epochNumber": "Epoch number",
          "worldAssetAddress": "World asset address"
        }
      },
      "batchTransferResources(uint256,address,string[],uint256[])": {
        "details": "Uses msg.sender as resources sender",
        "params": {
          "amounts": "Amount of each resources to transfer",
          "epochNumber": "Epoch number",
          "resourcesNames": "Resources names",
          "to": "An address which will receive resources"
        }
      },
      "destroyCurrentEpoch()": {
        "details": "Anyone can call this function"
      },
      "init(address,address,address,address,address,address,address)": {
        "details": "Called by address which created current instance",
        "params": {
          "bannersAddress": "Banners token address",
          "blessTokenAddress": "Bless token address",
          "crossEpochsMemoryAddress": "Cross epochs memory address",
          "distributionsAddress": "Distributions token address",
          "geographyAddress": "Geography contract address",
          "registryContractAddress": "Registry contract address",
          "rewardPoolAddress": "Reward pool address"
        }
      },
      "mintResources(uint256,string,address,uint256)": {
        "details": "Even though function is opened, it can only be called by mighty creator",
        "params": {
          "epochNumber": "Epoch number",
          "resourceName": "Resource name",
          "to": "Address which will receive resources",
          "value": "Amount of resources to mint"
        }
      },
      "mintUnits(uint256,string,address,uint256)": {
        "details": "Even though function is opened, it can only be called by mighty creator",
        "params": {
          "epochNumber": "Epoch number",
          "to": "Address which will receive units",
          "unitName": "Type of unit to mint",
          "value": "Amount of units to mint"
        }
      },
      "mintWorkers(uint256,address,uint256)": {
        "details": "Even though function is opened, it can only be called by mighty creator",
        "params": {
          "epochNumber": "Epoch number",
          "to": "Address which will receive workers",
          "value": "Amount of workers to mint"
        }
      },
      "setGameFinishTime(uint256)": {
        "details": "Even though function is opened, it can only be called by mighty creator or reward pool",
        "params": {
          "gameFinishTime": "Game finish time"
        }
      },
      "setGameStartTime(uint256)": {
        "details": "Even though function is opened, it can only be called by mighty creator",
        "params": {
          "gameStartTime": "Game start time"
        }
      }
    },
    "stateVariables": {
      "bannerContract": {
        "details": "Immutable, initialized on creation"
      },
      "blessToken": {
        "details": "Immutable, initialized on creation"
      },
      "crossEpochsMemory": {
        "details": "Immutable, initialized on creation"
      },
      "currentEpochNumber": {
        "details": "Updated when #destroy is called"
      },
      "distributions": {
        "details": "Immutable, initialized on creation"
      },
      "epochs": {
        "details": "Updated when world initialized or #destroy is called"
      },
      "gameFinishTime": {
        "details": "Updated when #setGameFinishTime is called"
      },
      "gameStartTime": {
        "details": "Updated when #setGameStartTime is called"
      },
      "geography": {
        "details": "Immutable, initialized on creation"
      },
      "registry": {
        "details": "Immutable, initialized on creation"
      },
      "rewardPool": {
        "details": "Immutable, initialized on creation"
      },
      "worldAssets": {
        "details": "Updated when #addWorldAsset is called"
      }
    },
    "version": 1
  },
  "userdoc": {
    "events": {
      "CurrentEpochNumberUpdated(uint256)": {
        "notice": "Emitted after new epoch initialization"
      },
      "GameFinishTimeUpdated(uint256)": {
        "notice": "Emitted when #setGameFinishTime is called"
      },
      "GameStartTimeUpdated(uint256)": {
        "notice": "Emitted when #setGameStartTime is called"
      },
      "NewWorldEpoch(address,uint256)": {
        "notice": "Emitted when world initialized or #destroyCurrentEpoch is called"
      },
      "WorldInitialized(address,address,address,address,address,address)": {
        "notice": "Emitted when world initialized"
      }
    },
    "kind": "user",
    "methods": {
      "addWorldAsset(uint256,address,bytes32)": {
        "notice": "Adds an address as world asset"
      },
      "bannerContract()": {
        "notice": "Banners token"
      },
      "batchTransferResources(uint256,address,string[],uint256[])": {
        "notice": "Transfers multiple resources to provided address"
      },
      "blessToken()": {
        "notice": "Bless token"
      },
      "crossEpochsMemory()": {
        "notice": "Cross epochs memory"
      },
      "currentEpochNumber()": {
        "notice": "Current world epoch"
      },
      "destroyCurrentEpoch()": {
        "notice": "Destroys current epoch if conditions are met"
      },
      "distributions()": {
        "notice": "Distributions token"
      },
      "epochs(uint256)": {
        "notice": "World epochs"
      },
      "gameFinishTime()": {
        "notice": "Game finish time"
      },
      "gameStartTime()": {
        "notice": "Game start time"
      },
      "geography()": {
        "notice": "Geography"
      },
      "init(address,address,address,address,address,address,address)": {
        "notice": "Proxy initializer"
      },
      "mintResources(uint256,string,address,uint256)": {
        "notice": "Mints resource to provided address"
      },
      "mintUnits(uint256,string,address,uint256)": {
        "notice": "Mints units to provided address"
      },
      "mintWorkers(uint256,address,uint256)": {
        "notice": "Mints workers to provided address"
      },
      "registry()": {
        "notice": "Registry"
      },
      "rewardPool()": {
        "notice": "Reward pool"
      },
      "setGameFinishTime(uint256)": {
        "notice": "Sets game finish time"
      },
      "setGameStartTime(uint256)": {
        "notice": "Sets game start time"
      },
      "worldAssets(uint256,address)": {
        "notice": "Mapping containing world asset type by provided epoch number and address"
      }
    },
    "version": 1
  },
  "storageLayout": {
    "storage": [
      {
        "astId": 119,
        "contract": "contracts/core/World.sol:World",
        "label": "_initialized",
        "offset": 0,
        "slot": "0",
        "type": "t_uint8"
      },
      {
        "astId": 122,
        "contract": "contracts/core/World.sol:World",
        "label": "_initializing",
        "offset": 1,
        "slot": "0",
        "type": "t_bool"
      },
      {
        "astId": 9149,
        "contract": "contracts/core/World.sol:World",
        "label": "registry",
        "offset": 2,
        "slot": "0",
        "type": "t_contract(IRegistry)7413"
      },
      {
        "astId": 9154,
        "contract": "contracts/core/World.sol:World",
        "label": "geography",
        "offset": 0,
        "slot": "1",
        "type": "t_contract(IGeography)32280"
      },
      {
        "astId": 9159,
        "contract": "contracts/core/World.sol:World",
        "label": "bannerContract",
        "offset": 0,
        "slot": "2",
        "type": "t_contract(IERC721)3454"
      },
      {
        "astId": 9164,
        "contract": "contracts/core/World.sol:World",
        "label": "blessToken",
        "offset": 0,
        "slot": "3",
        "type": "t_contract(IERC20)2402"
      },
      {
        "astId": 9169,
        "contract": "contracts/core/World.sol:World",
        "label": "distributions",
        "offset": 0,
        "slot": "4",
        "type": "t_contract(IDistributions)30973"
      },
      {
        "astId": 9174,
        "contract": "contracts/core/World.sol:World",
        "label": "crossEpochsMemory",
        "offset": 0,
        "slot": "5",
        "type": "t_contract(ICrossEpochsMemory)30587"
      },
      {
        "astId": 9179,
        "contract": "contracts/core/World.sol:World",
        "label": "rewardPool",
        "offset": 0,
        "slot": "6",
        "type": "t_contract(IRewardPool)32329"
      },
      {
        "astId": 9183,
        "contract": "contracts/core/World.sol:World",
        "label": "gameStartTime",
        "offset": 0,
        "slot": "7",
        "type": "t_uint256"
      },
      {
        "astId": 9187,
        "contract": "contracts/core/World.sol:World",
        "label": "gameFinishTime",
        "offset": 0,
        "slot": "8",
        "type": "t_uint256"
      },
      {
        "astId": 9191,
        "contract": "contracts/core/World.sol:World",
        "label": "currentEpochNumber",
        "offset": 0,
        "slot": "9",
        "type": "t_uint256"
      },
      {
        "astId": 9198,
        "contract": "contracts/core/World.sol:World",
        "label": "epochs",
        "offset": 0,
        "slot": "10",
        "type": "t_mapping(t_uint256,t_contract(IEpoch)20132)"
      },
      {
        "astId": 9206,
        "contract": "contracts/core/World.sol:World",
        "label": "worldAssets",
        "offset": 0,
        "slot": "11",
        "type": "t_mapping(t_uint256,t_mapping(t_address,t_bytes32))"
      }
    ],
    "types": {
      "t_address": {
        "encoding": "inplace",
        "label": "address",
        "numberOfBytes": "20"
      },
      "t_bool": {
        "encoding": "inplace",
        "label": "bool",
        "numberOfBytes": "1"
      },
      "t_bytes32": {
        "encoding": "inplace",
        "label": "bytes32",
        "numberOfBytes": "32"
      },
      "t_contract(ICrossEpochsMemory)30587": {
        "encoding": "inplace",
        "label": "contract ICrossEpochsMemory",
        "numberOfBytes": "20"
      },
      "t_contract(IDistributions)30973": {
        "encoding": "inplace",
        "label": "contract IDistributions",
        "numberOfBytes": "20"
      },
      "t_contract(IERC20)2402": {
        "encoding": "inplace",
        "label": "contract IERC20",
        "numberOfBytes": "20"
      },
      "t_contract(IERC721)3454": {
        "encoding": "inplace",
        "label": "contract IERC721",
        "numberOfBytes": "20"
      },
      "t_contract(IEpoch)20132": {
        "encoding": "inplace",
        "label": "contract IEpoch",
        "numberOfBytes": "20"
      },
      "t_contract(IGeography)32280": {
        "encoding": "inplace",
        "label": "contract IGeography",
        "numberOfBytes": "20"
      },
      "t_contract(IRegistry)7413": {
        "encoding": "inplace",
        "label": "contract IRegistry",
        "numberOfBytes": "20"
      },
      "t_contract(IRewardPool)32329": {
        "encoding": "inplace",
        "label": "contract IRewardPool",
        "numberOfBytes": "20"
      },
      "t_mapping(t_address,t_bytes32)": {
        "encoding": "mapping",
        "key": "t_address",
        "label": "mapping(address => bytes32)",
        "numberOfBytes": "32",
        "value": "t_bytes32"
      },
      "t_mapping(t_uint256,t_contract(IEpoch)20132)": {
        "encoding": "mapping",
        "key": "t_uint256",
        "label": "mapping(uint256 => contract IEpoch)",
        "numberOfBytes": "32",
        "value": "t_contract(IEpoch)20132"
      },
      "t_mapping(t_uint256,t_mapping(t_address,t_bytes32))": {
        "encoding": "mapping",
        "key": "t_uint256",
        "label": "mapping(uint256 => mapping(address => bytes32))",
        "numberOfBytes": "32",
        "value": "t_mapping(t_address,t_bytes32)"
      },
      "t_uint256": {
        "encoding": "inplace",
        "label": "uint256",
        "numberOfBytes": "32"
      },
      "t_uint8": {
        "encoding": "inplace",
        "label": "uint8",
        "numberOfBytes": "1"
      }
    }
  }
}