{
  "address": "0x5270FCC47cca8826AefB5a087747aA90Ee0A9DC1",
  "abi": [
    {
      "anonymous": false,
      "inputs": [
        {
          "indexed": false,
          "internalType": "string",
          "name": "resourceName",
          "type": "string"
        },
        {
          "indexed": false,
          "internalType": "address",
          "name": "holder",
          "type": "address"
        },
        {
          "indexed": false,
          "internalType": "uint256",
          "name": "amount",
          "type": "uint256"
        }
      ],
      "name": "DistributedToShareHolder",
      "type": "event"
    },
    {
      "anonymous": false,
      "inputs": [
        {
          "indexed": false,
          "internalType": "uint8",
          "name": "version",
          "type": "uint8"
        }
      ],
      "name": "Initialized",
      "type": "event"
    },
    {
      "anonymous": false,
      "inputs": [
        {
          "indexed": false,
          "internalType": "uint256",
          "name": "distributionId",
          "type": "uint256"
        },
        {
          "indexed": false,
          "internalType": "address[]",
          "name": "previousReceivers",
          "type": "address[]"
        }
      ],
      "name": "NewDistribution",
      "type": "event"
    },
    {
      "anonymous": false,
      "inputs": [
        {
          "indexed": false,
          "internalType": "uint256",
          "name": "stateLevel",
          "type": "uint256"
        }
      ],
      "name": "UpgradeFinish",
      "type": "event"
    },
    {
      "inputs": [],
      "name": "advancedProduction",
      "outputs": [
        {
          "internalType": "uint256",
          "name": "level",
          "type": "uint256"
        },
        {
          "internalType": "uint256",
          "name": "coefficient",
          "type": "uint256"
        },
        {
          "internalType": "uint256",
          "name": "additionalWorkersCapacityMultiplier",
          "type": "uint256"
        },
        {
          "internalType": "uint256",
          "name": "toBeProducedTicks",
          "type": "uint256"
        }
      ],
      "stateMutability": "view",
      "type": "function"
    },
    {
      "inputs": [],
      "name": "assetGroup",
      "outputs": [
        {
          "internalType": "string",
          "name": "",
          "type": "string"
        }
      ],
      "stateMutability": "view",
      "type": "function"
    },
    {
      "inputs": [],
      "name": "assetType",
      "outputs": [
        {
          "internalType": "string",
          "name": "",
          "type": "string"
        }
      ],
      "stateMutability": "view",
      "type": "function"
    },
    {
      "inputs": [],
      "name": "basicProduction",
      "outputs": [
        {
          "internalType": "uint256",
          "name": "level",
          "type": "uint256"
        },
        {
          "internalType": "uint256",
          "name": "coefficient",
          "type": "uint256"
        }
      ],
      "stateMutability": "view",
      "type": "function"
    },
    {
      "inputs": [],
      "name": "buildingName",
      "outputs": [
        {
          "internalType": "string",
          "name": "",
          "type": "string"
        }
      ],
      "stateMutability": "view",
      "type": "function"
    },
    {
      "inputs": [
        {
          "internalType": "uint256",
          "name": "burnAmount",
          "type": "uint256"
        }
      ],
      "name": "burnTreasury",
      "outputs": [],
      "stateMutability": "nonpayable",
      "type": "function"
    },
    {
      "inputs": [
        {
          "internalType": "uint256",
          "name": "currentHealth",
          "type": "uint256"
        },
        {
          "internalType": "uint256",
          "name": "maxHealth",
          "type": "uint256"
        },
        {
          "internalType": "uint256",
          "name": "basicRegenIncome",
          "type": "uint256"
        },
        {
          "internalType": "uint256",
          "name": "advancedRegenIncome",
          "type": "uint256"
        },
        {
          "internalType": "uint256",
          "name": "degenIncome",
          "type": "uint256"
        },
        {
          "internalType": "uint256",
          "name": "toBeProducedValue",
          "type": "uint256"
        }
      ],
      "name": "calculateFortAdvancedProduction",
      "outputs": [
        {
          "components": [
            {
              "internalType": "uint256",
              "name": "fullHealthProductionSeconds",
              "type": "uint256"
            },
            {
              "internalType": "uint256",
              "name": "partialHealthProductionSeconds",
              "type": "uint256"
            }
          ],
          "internalType": "struct Fort.FortData",
          "name": "",
          "type": "tuple"
        }
      ],
      "stateMutability": "pure",
      "type": "function"
    },
    {
      "inputs": [],
      "name": "currentSettlement",
      "outputs": [
        {
          "internalType": "contract ISettlement",
          "name": "",
          "type": "address"
        }
      ],
      "stateMutability": "view",
      "type": "function"
    },
    {
      "inputs": [
        {
          "internalType": "uint256",
          "name": "capacityAmount",
          "type": "uint256"
        }
      ],
      "name": "decreaseAdditionalWorkersCapacityMultiplier",
      "outputs": [],
      "stateMutability": "nonpayable",
      "type": "function"
    },
    {
      "inputs": [],
      "name": "distributeToAllShareholders",
      "outputs": [],
      "stateMutability": "nonpayable",
      "type": "function"
    },
    {
      "inputs": [
        {
          "internalType": "address",
          "name": "holder",
          "type": "address"
        }
      ],
      "name": "distributeToSingleShareholder",
      "outputs": [],
      "stateMutability": "nonpayable",
      "type": "function"
    },
    {
      "inputs": [],
      "name": "distributionId",
      "outputs": [
        {
          "internalType": "uint256",
          "name": "",
          "type": "uint256"
        }
      ],
      "stateMutability": "view",
      "type": "function"
    },
    {
      "inputs": [],
      "name": "epoch",
      "outputs": [
        {
          "internalType": "contract IEpoch",
          "name": "",
          "type": "address"
        }
      ],
      "stateMutability": "view",
      "type": "function"
    },
    {
      "inputs": [],
      "name": "epochNumber",
      "outputs": [
        {
          "internalType": "uint256",
          "name": "",
          "type": "uint256"
        }
      ],
      "stateMutability": "view",
      "type": "function"
    },
    {
      "inputs": [
        {
          "internalType": "address",
          "name": "from",
          "type": "address"
        },
        {
          "internalType": "address",
          "name": "to",
          "type": "address"
        },
        {
          "internalType": "uint256",
          "name": "amount",
          "type": "uint256"
        }
      ],
      "name": "fixDebtAccordingToNewDistributionsAmounts",
      "outputs": [],
      "stateMutability": "nonpayable",
      "type": "function"
    },
    {
      "inputs": [],
      "name": "getAdditionalWorkersFromAdditionalWorkersCapacityMultiplier",
      "outputs": [
        {
          "internalType": "uint256",
          "name": "",
          "type": "uint256"
        }
      ],
      "stateMutability": "view",
      "type": "function"
    },
    {
      "inputs": [
        {
          "internalType": "uint256",
          "name": "level",
          "type": "uint256"
        }
      ],
      "name": "getAdvancedUpgradeCooldownDuration",
      "outputs": [
        {
          "internalType": "uint256",
          "name": "",
          "type": "uint256"
        }
      ],
      "stateMutability": "view",
      "type": "function"
    },
    {
      "inputs": [
        {
          "internalType": "uint256",
          "name": "level",
          "type": "uint256"
        }
      ],
      "name": "getBasicUpgradeCooldownDuration",
      "outputs": [
        {
          "internalType": "uint256",
          "name": "",
          "type": "uint256"
        }
      ],
      "stateMutability": "view",
      "type": "function"
    },
    {
      "inputs": [
        {
          "internalType": "uint256",
          "name": "level",
          "type": "uint256"
        }
      ],
      "name": "getBuildingCoefficient",
      "outputs": [
        {
          "internalType": "uint256",
          "name": "",
          "type": "uint256"
        }
      ],
      "stateMutability": "pure",
      "type": "function"
    },
    {
      "inputs": [],
      "name": "getBuildingLevel",
      "outputs": [
        {
          "internalType": "uint256",
          "name": "",
          "type": "uint256"
        }
      ],
      "stateMutability": "view",
      "type": "function"
    },
    {
      "inputs": [],
      "name": "getConfig",
      "outputs": [
        {
          "components": [
            {
              "internalType": "string",
              "name": "resourceName",
              "type": "string"
            },
            {
              "internalType": "uint256",
              "name": "perTick",
              "type": "uint256"
            },
            {
              "internalType": "bool",
              "name": "isProducing",
              "type": "bool"
            }
          ],
          "internalType": "struct IBuilding.InitialResourceBlock[]",
          "name": "initialResourceBlocks",
          "type": "tuple[]"
        }
      ],
      "stateMutability": "view",
      "type": "function"
    },
    {
      "inputs": [],
      "name": "getMaxAvailableForAdvancedProductionWorkers",
      "outputs": [
        {
          "internalType": "uint256",
          "name": "",
          "type": "uint256"
        }
      ],
      "stateMutability": "view",
      "type": "function"
    },
    {
      "inputs": [
        {
          "internalType": "uint256",
          "name": "level",
          "type": "uint256"
        }
      ],
      "name": "getMaxHealthOnLevel",
      "outputs": [
        {
          "internalType": "uint256",
          "name": "",
          "type": "uint256"
        }
      ],
      "stateMutability": "view",
      "type": "function"
    },
    {
      "inputs": [
        {
          "internalType": "uint256",
          "name": "_level",
          "type": "uint256"
        }
      ],
      "name": "getMaxTreasuryByLevel",
      "outputs": [
        {
          "internalType": "uint256",
          "name": "",
          "type": "uint256"
        }
      ],
      "stateMutability": "view",
      "type": "function"
    },
    {
      "inputs": [],
      "name": "getMaxWorkers",
      "outputs": [
        {
          "internalType": "uint256",
          "name": "",
          "type": "uint256"
        }
      ],
      "stateMutability": "view",
      "type": "function"
    },
    {
      "inputs": [],
      "name": "getProducingResourceName",
      "outputs": [
        {
          "internalType": "string",
          "name": "",
          "type": "string"
        }
      ],
      "stateMutability": "view",
      "type": "function"
    },
    {
      "inputs": [
        {
          "internalType": "uint256",
          "name": "timestamp",
          "type": "uint256"
        }
      ],
      "name": "getProductionResult",
      "outputs": [
        {
          "components": [
            {
              "internalType": "string",
              "name": "resourceName",
              "type": "string"
            },
            {
              "internalType": "uint256",
              "name": "balanceChanges",
              "type": "uint256"
            },
            {
              "internalType": "bool",
              "name": "isProducing",
              "type": "bool"
            }
          ],
          "internalType": "struct IBuilding.ProductionResultItem[]",
          "name": "res",
          "type": "tuple[]"
        }
      ],
      "stateMutability": "view",
      "type": "function"
    },
    {
      "inputs": [
        {
          "internalType": "string",
          "name": "_resourceName",
          "type": "string"
        },
        {
          "internalType": "uint256",
          "name": "_timestamp",
          "type": "uint256"
        }
      ],
      "name": "getResourcesAmount",
      "outputs": [
        {
          "internalType": "uint256",
          "name": "",
          "type": "uint256"
        }
      ],
      "stateMutability": "view",
      "type": "function"
    },
    {
      "inputs": [
        {
          "internalType": "uint256",
          "name": "_timestamp",
          "type": "uint256"
        }
      ],
      "name": "getTreasury",
      "outputs": [
        {
          "internalType": "uint256",
          "name": "",
          "type": "uint256"
        }
      ],
      "stateMutability": "view",
      "type": "function"
    },
    {
      "inputs": [
        {
          "internalType": "uint256",
          "name": "level",
          "type": "uint256"
        }
      ],
      "name": "getUpgradePrice",
      "outputs": [
        {
          "internalType": "uint256",
          "name": "",
          "type": "uint256"
        }
      ],
      "stateMutability": "view",
      "type": "function"
    },
    {
      "inputs": [],
      "name": "getWorkers",
      "outputs": [
        {
          "internalType": "uint256",
          "name": "",
          "type": "uint256"
        }
      ],
      "stateMutability": "view",
      "type": "function"
    },
    {
      "inputs": [],
      "name": "health",
      "outputs": [
        {
          "internalType": "uint256",
          "name": "",
          "type": "uint256"
        }
      ],
      "stateMutability": "view",
      "type": "function"
    },
    {
      "inputs": [
        {
          "internalType": "uint256",
          "name": "capacityAmount",
          "type": "uint256"
        }
      ],
      "name": "increaseAdditionalWorkersCapacityMultiplier",
      "outputs": [],
      "stateMutability": "nonpayable",
      "type": "function"
    },
    {
      "inputs": [
        {
          "internalType": "address",
          "name": "settlementAddress",
          "type": "address"
        }
      ],
      "name": "init",
      "outputs": [],
      "stateMutability": "nonpayable",
      "type": "function"
    },
    {
      "inputs": [
        {
          "internalType": "string",
          "name": "_resourceName",
          "type": "string"
        }
      ],
      "name": "isResourceAcceptable",
      "outputs": [
        {
          "internalType": "bool",
          "name": "",
          "type": "bool"
        }
      ],
      "stateMutability": "view",
      "type": "function"
    },
    {
      "inputs": [
        {
          "internalType": "address",
          "name": "",
          "type": "address"
        }
      ],
      "name": "producedResourceDebt",
      "outputs": [
        {
          "internalType": "uint256",
          "name": "",
          "type": "uint256"
        }
      ],
      "stateMutability": "view",
      "type": "function"
    },
    {
      "inputs": [],
      "name": "production",
      "outputs": [
        {
          "internalType": "uint256",
          "name": "lastUpdateStateTime",
          "type": "uint256"
        },
        {
          "internalType": "uint256",
          "name": "lastUpdateStateZoneTime",
          "type": "uint256"
        },
        {
          "internalType": "uint256",
          "name": "readyToBeDistributed",
          "type": "uint256"
        }
      ],
      "stateMutability": "view",
      "type": "function"
    },
    {
      "inputs": [],
      "name": "productionResourcesChanged",
      "outputs": [],
      "stateMutability": "nonpayable",
      "type": "function"
    },
    {
      "inputs": [],
      "name": "prosperity",
      "outputs": [
        {
          "internalType": "uint256",
          "name": "",
          "type": "uint256"
        }
      ],
      "stateMutability": "view",
      "type": "function"
    },
    {
      "inputs": [],
      "name": "registry",
      "outputs": [
        {
          "internalType": "contract IRegistry",
          "name": "",
          "type": "address"
        }
      ],
      "stateMutability": "view",
      "type": "function"
    },
    {
      "inputs": [
        {
          "internalType": "address",
          "name": "workersReceiverAddress",
          "type": "address"
        },
        {
          "internalType": "uint256",
          "name": "workersAmount",
          "type": "uint256"
        },
        {
          "internalType": "address",
          "name": "resourcesReceiverAddress",
          "type": "address"
        },
        {
          "internalType": "string[]",
          "name": "resourceTypes",
          "type": "string[]"
        },
        {
          "internalType": "uint256[]",
          "name": "resourcesAmounts",
          "type": "uint256[]"
        }
      ],
      "name": "removeResourcesAndWorkers",
      "outputs": [],
      "stateMutability": "nonpayable",
      "type": "function"
    },
    {
      "inputs": [],
      "name": "resetDistribution",
      "outputs": [],
      "stateMutability": "nonpayable",
      "type": "function"
    },
    {
      "inputs": [
        {
          "internalType": "address",
          "name": "resourcesOwner",
          "type": "address"
        }
      ],
      "name": "startAdvancedUpgrade",
      "outputs": [],
      "stateMutability": "nonpayable",
      "type": "function"
    },
    {
      "inputs": [
        {
          "internalType": "address",
          "name": "resourcesOwner",
          "type": "address"
        }
      ],
      "name": "startBasicUpgrade",
      "outputs": [],
      "stateMutability": "nonpayable",
      "type": "function"
    },
    {
      "inputs": [
        {
          "internalType": "address",
          "name": "to",
          "type": "address"
        },
        {
          "internalType": "uint256",
          "name": "amountToSteal",
          "type": "uint256"
        }
      ],
      "name": "stealTreasury",
      "outputs": [
        {
          "internalType": "uint256",
          "name": "",
          "type": "uint256"
        }
      ],
      "stateMutability": "nonpayable",
      "type": "function"
    },
    {
      "inputs": [
        {
          "internalType": "uint256",
          "name": "value",
          "type": "uint256"
        }
      ],
      "name": "updateHealth",
      "outputs": [],
      "stateMutability": "nonpayable",
      "type": "function"
    },
    {
      "inputs": [],
      "name": "updateState",
      "outputs": [],
      "stateMutability": "nonpayable",
      "type": "function"
    },
    {
      "inputs": [],
      "name": "upgradeCooldownFinishTime",
      "outputs": [
        {
          "internalType": "uint256",
          "name": "",
          "type": "uint256"
        }
      ],
      "stateMutability": "view",
      "type": "function"
    },
    {
      "inputs": [],
      "name": "world",
      "outputs": [
        {
          "internalType": "contract IWorld",
          "name": "",
          "type": "address"
        }
      ],
      "stateMutability": "view",
      "type": "function"
    }
  ],
  "transactionHash": "0xa941a6d6b2d607ed7c2dfdc653b85d79370317f9514288555f1c0de906ceb47d",
  "args": [],
  "numDeployments": 1,
  "solcInputHash": "b1c7bcf5e8b291fa6a4245de9495ee46",
  "bytecode": "0x608060405234801561001057600080fd5b506150a7806100206000396000f3fe608060405234801561001057600080fd5b506004361061032a5760003560e01c80638545bc58116101b2578063c3f909d4116100f9578063e6458291116100a2578063f4145a831161007c578063f4145a8314610653578063fb2018d914610668578063fe7f15ef1461067b578063ffaf29a01461069457600080fd5b8063e64582911461062f578063e91bde7614610638578063f2477b5b1461064b57600080fd5b8063c91b9566116100d3578063c91b956614610615578063c9c0df611461061e578063d2bc7d851461062757600080fd5b8063c3f909d4146105cd578063c55b31ce146105e2578063c724a016146105f557600080fd5b80639abb3cae1161015b578063af04eb4211610135578063af04eb421461059f578063b78d1384146105b2578063c1499f71146105c557600080fd5b80639abb3cae14610584578063adcd294014610439578063ae6fd51d1461058c57600080fd5b8063900cf0cf1161018c578063900cf0cf146105465780639976d2201461054e5780639a9402a11461056157600080fd5b80638545bc581461050b5780638bb9b6f2146105135780638beab87e1461052657600080fd5b806343e77f461161027657806365e6f4ce1161021f5780637afd0c82116101f95780637afd0c82146104c25780637b103999146104f05780637b7a2bfc146104f857600080fd5b806365e6f4ce1461049e5780637633a22c146104a65780637abdf949146104af57600080fd5b8063575bceda11610250578063575bceda14610483578063589ae4001461048b5780635ed697b71461043957600080fd5b806343e77f46146104555780634500dbeb146104685780634ace91d01461047057600080fd5b80631d8557d7116102d857806339c8a95a116102b257806339c8a95a146104315780633c084b8b146104395780633fe3347a1461044d57600080fd5b80631d8557d7146103f557806324db272a146103fd57806330b67baa1461041157600080fd5b8063115112ab11610309578063115112ab1461039757806314dff0e8146103ac57806319ab453c146103e257600080fd5b8062d4fbf81461032f57806302e68b941461035557806305e88b691461036a575b600080fd5b61034261033d3660046147e0565b6106b7565b6040519081526020015b60405180910390f35b610368610363366004614811565b61073e565b005b600954600a54600b5461037c92919083565b6040805193845260208401929092529082015260600161034c565b61039f610d9d565b60405161034c9190614874565b6003546004546005546006546103c29392919084565b60408051948552602085019390935291830152606082015260800161034c565b6103686103f0366004614811565b610dac565b610368610f07565b60408051602081019091526000815261039f565b6104196111b3565b6040516001600160a01b03909116815260200161034c565b6103426111e6565b6103426104473660046147e0565b50600090565b61039f611270565b6103686104633660046147e0565b611324565b61036861143c565b61036861047e366004614887565b611449565b610342611651565b6103426104993660046148c8565b61166d565b610368611b01565b610342600e5481565b6103426104bd3660046147e0565b611f12565b6104d56104d03660046148f4565b611f86565b6040805182518152602092830151928101929092520161034c565b6104196120f2565b610368610506366004614811565b61215d565b61034261246b565b6103426105213660046147e0565b61247d565b6105396105343660046147e0565b6124b1565b60405161034c919061496e565b6104196129b5565b61036861055c3660046147e0565b612a1e565b61057461056f366004614a87565b612b31565b604051901515815260200161034c565b61039f612ba2565b61036861059a3660046147e0565b612bd3565b6103686105ad366004614811565b612d3a565b6103686105c03660046147e0565b61334d565b6103426135df565b6105d56136b4565b60405161034c9190614ac4565b6103426105f0366004614b19565b61384e565b610342610603366004614811565b600d6020526000908152604090205481565b61034260085481565b610342600c5481565b610368613be2565b61034260075481565b6103426106463660046147e0565b613c2a565b610342613cb0565b60008051602061505283398151915254610342565b610368610676366004614baa565b613de4565b600054610419906201000090046001600160a01b031681565b6001546002546106a2919082565b6040805192835260208301919091520161034c565b60006106c16120f2565b6001600160a01b031663781e0efe6040518163ffffffff1660e01b8152600401602060405180830381865afa1580156106fe573d6000803e3d6000fd5b505050506040513d601f19601f820116820180604052508101906107229190614c49565b61072e83615460614c78565b6107389190614cad565b92915050565b60006107486111b3565b6001600160a01b0316637aa873346040518163ffffffff1660e01b8152600401602060405180830381865afa158015610785573d6000803e3d6000fd5b505050506040513d601f19601f820116820180604052508101906107a99190614c49565b90508015806107b757508042105b6107f65760405162461bcd60e51b815260206004820152600b60248201526a19d85b594818db1bdcd95960aa1b60448201526064015b60405180910390fd5b600054604051631b0b969d60e01b8152336004820152620100009091046001600160a01b031690631b0b969d90602401602060405180830381865afa158015610843573d6000803e3d6000fd5b505050506040513d601f19601f820116820180604052508101906108679190614cc1565b8061088a57506108756111b3565b6001600160a01b0316336001600160a01b0316145b806109275750600061089a6111b3565b6001600160a01b031663ebbe80346108be6000805160206150528339815191525490565b6040516001600160e01b031960e084901b1681526004810191909152336024820152604401602060405180830381865afa158015610900573d6000803e3d6000fd5b505050506040513d601f19601f820116820180604052508101906109249190614c49565b14155b6109435760405162461bcd60e51b81526004016107ed90614ce3565b61094b610f07565b60075461095661400b565b10156109985760405162461bcd60e51b8152602060048201526011602482015270616c726561647920757067726164696e6760781b60448201526064016107ed565b60006109a261246b565b905060006109af82611f12565b6040805180820190915260038152624f524560e81b60208201529091506001600160a01b038516610ab5576109e26129b5565b6001600160a01b03166304f86f3c826040518263ffffffff1660e01b8152600401610a0d9190614874565b602060405180830381865afa158015610a2a573d6000803e3d6000fd5b505050506040513d601f19601f82011682018060405250810190610a4e9190614d25565b60405163079cc67960e41b8152336004820152602481018490526001600160a01b0391909116906379cc679090604401600060405180830381600087803b158015610a9857600080fd5b505af1158015610aac573d6000803e3d6000fd5b50505050610bfb565b6000610abf6129b5565b6001600160a01b03166304f86f3c836040518263ffffffff1660e01b8152600401610aea9190614874565b602060405180830381865afa158015610b07573d6000803e3d6000fd5b505050506040513d601f19601f82011682018060405250810190610b2b9190614d25565b60405163dd8aaa4f60e01b81526001600160a01b038881166004830152336024830152604482018690529192509082169063dd8aaa4f90606401600060405180830381600087803b158015610b7f57600080fd5b505af1158015610b93573d6000803e3d6000fd5b505060405163079cc67960e41b81526001600160a01b03898116600483015260248201879052841692506379cc67909150604401600060405180830381600087803b158015610be157600080fd5b505af1158015610bf5573d6000803e3d6000fd5b50505050505b600060029054906101000a90046001600160a01b03166001600160a01b03166341c525536040518163ffffffff1660e01b8152600401602060405180830381865afa158015610c4e573d6000803e3d6000fd5b505050506040513d601f19601f82011682018060405250810190610c729190614d25565b600054604051636e08f72160e01b81526001600160a01b0392831692636e08f72192610caf92620100009091049091169085908790600401614d42565b600060405180830381600087803b158015610cc957600080fd5b505af1158015610cdd573d6000803e3d6000fd5b50505050610ce9600090565b610cf39042614d74565b6007556000610d03846001614d74565b9050600160036000016000828254610d1b9190614d74565b9091555060009050610d2c85613c2a565b610d3583613c2a565b610d3f9190614d87565b90508060036001016000828254610d569190614d74565b90915550610d619050565b6040518281527f3522cf3459e241a649e558e6164f7286e55468f8ba273170ece2a4716fc9f4969060200160405180910390a150505050505050565b6060610da7611270565b905090565b600054610100900460ff1615808015610dcc5750600054600160ff909116105b80610de65750303b158015610de6575060005460ff166001145b610e495760405162461bcd60e51b815260206004820152602e60248201527f496e697469616c697a61626c653a20636f6e747261637420697320616c72656160448201526d191e481a5b9a5d1a585b1a5e995960921b60648201526084016107ed565b6000805460ff191660011790558015610e6c576000805461ff0019166101001790555b6000805475ffffffffffffffffffffffffffffffffffffffff00001916620100006001600160a01b0385160217905560018080556002819055600381905560045542600955673782dace9d900000600e558015610f03576000805461ff0019169055604051600181527f7f26b83ff96e1f2b6a682f133852f6798a09c465da95921460cefb38474024989060200160405180910390a15b5050565b600954429003610f1357565b6000610f1d61400b565b90506000610f2a826124b1565b6009839055905060005b81518110156111ae576040805180820190915260068152650908a8298a8960d31b60209091015281517f88ad4e672f8c8ca6cce86b10b118764bf098c06bb02cd6691dfb6641799afaa090839083908110610f9157610f91614d9a565b602002602001015160000151805190602001200361106857600060029054906101000a90046001600160a01b03166001600160a01b031663f61de1b4838381518110610fdf57610fdf614d9a565b602002602001015160200151848481518110610ffd57610ffd614d9a565b6020026020010151604001516040518363ffffffff1660e01b81526004016110319291909182521515602082015260400190565b600060405180830381600087803b15801561104b57600080fd5b505af115801561105f573d6000803e3d6000fd5b5050505061119c565b81818151811061107a5761107a614d9a565b6020026020010151602001516000031561119c576110966129b5565b6001600160a01b03166304f86f3c8383815181106110b6576110b6614d9a565b6020026020010151600001516040518263ffffffff1660e01b81526004016110de9190614874565b602060405180830381865afa1580156110fb573d6000803e3d6000fd5b505050506040513d601f19601f8201168201806040525081019061111f9190614d25565b6001600160a01b03166342966c6883838151811061113f5761113f614d9a565b6020026020010151602001516040518263ffffffff1660e01b815260040161116991815260200190565b600060405180830381600087803b15801561118357600080fd5b505af1158015611197573d6000803e3d6000fd5b505050505b806111a681614db0565b915050610f34565b505050565b6000610da77f6c85b93e587873fbe6712f3b438d42c2945689b262f7bd34b8ea4e3f832a89e6546001600160a01b031690565b60006111f06120f2565b6001600160a01b031663265d3f50611206610d9d565b6040518263ffffffff1660e01b81526004016112229190614874565b602060405180830381865afa15801561123f573d6000803e3d6000fd5b505050506040513d601f19601f820116820180604052508101906112639190614c49565b600454610da79190614c78565b60607f6c85b93e587873fbe6712f3b438d42c2945689b262f7bd34b8ea4e3f832a89e660040180546112a190614dc9565b80601f01602080910402602001604051908101604052809291908181526020018280546112cd90614dc9565b801561131a5780601f106112ef5761010080835404028352916020019161131a565b820191906000526020600020905b8154815290600101906020018083116112fd57829003601f168201915b5050505050905090565b61132c6111b3565b6001600160a01b0316336001600160a01b031614806113dd575060006113506111b3565b6001600160a01b031663ebbe80346113746000805160206150528339815191525490565b6040516001600160e01b031960e084901b1681526004810191909152336024820152604401602060405180830381865afa1580156113b6573d6000803e3d6000fd5b505050506040513d601f19601f820116820180604052508101906113da9190614c49565b14155b6114175760405162461bcd60e51b815260206004820152601b602482015260008051602061503283398151915260448201526064016107ed565b61141f610f07565b80600360020160008282546114349190614d87565b909155505050565b611444614098565b600655565b336114526111b3565b6001600160a01b031663e4e940f06040518163ffffffff1660e01b8152600401602060405180830381865afa15801561148f573d6000803e3d6000fd5b505050506040513d601f19601f820116820180604052508101906114b39190614d25565b6001600160a01b0316146114fd5760405162461bcd60e51b81526020600482015260116024820152706f6e6c79446973747269627574696f6e7360781b60448201526064016107ed565b60006115076111b3565b6001600160a01b031663e4e940f06040518163ffffffff1660e01b8152600401602060405180830381865afa158015611544573d6000803e3d6000fd5b505050506040513d601f19601f820116820180604052508101906115689190614d25565b6001600160a01b03166302705c2e6040518163ffffffff1660e01b8152600401602060405180830381865afa1580156115a5573d6000803e3d6000fd5b505050506040513d601f19601f820116820180604052508101906115c99190614c49565b600b546115d7908490614c78565b6115e19190614cad565b9050806000036115f15750505050565b6001600160a01b0384166000908152600d602052604081208054839290611619908490614d87565b90915550506001600160a01b0383166000908152600d602052604081208054839290611646908490614d74565b909155505050505050565b600061165b613cb0565b6116636111e6565b610da79190614d87565b6000806116786111b3565b6001600160a01b0316637aa873346040518163ffffffff1660e01b8152600401602060405180830381865afa1580156116b5573d6000803e3d6000fd5b505050506040513d601f19601f820116820180604052508101906116d99190614c49565b90508015806116e757508042105b6117215760405162461bcd60e51b815260206004820152600b60248201526a19d85b594818db1bdcd95960aa1b60448201526064016107ed565b6117296111b3565b6001600160a01b0316336001600160a01b031614806117da5750600061174d6111b3565b6001600160a01b031663ebbe80346117716000805160206150528339815191525490565b6040516001600160e01b031960e084901b1681526004810191909152336024820152604401602060405180830381865afa1580156117b3573d6000803e3d6000fd5b505050506040513d601f19601f820116820180604052508101906117d79190614c49565b14155b6118145760405162461bcd60e51b815260206004820152601b602482015260008051602061503283398151915260448201526064016107ed565b61181c610f07565b60006118266129b5565b6001600160a01b03166304f86f3c61184960408051602081019091526000815290565b6040518263ffffffff1660e01b81526004016118659190614874565b602060405180830381865afa158015611882573d6000803e3d6000fd5b505050506040513d601f19601f820116820180604052508101906118a69190614d25565b6040516375719b0160e11b81523060048201526001600160a01b03919091169063eae3360290602401602060405180830381865afa1580156118ec573d6000803e3d6000fd5b505050506040513d601f19601f820116820180604052508101906119109190614c49565b9050600061192861192261044761246b565b8361422a565b90508060000361193d57600093505050611afa565b611947818661422a565b94506000670de0b6b3a764000061195c6120f2565b6001600160a01b031663355bb5296040518163ffffffff1660e01b8152600401602060405180830381865afa158015611999573d6000803e3d6000fd5b505050506040513d601f19601f820116820180604052508101906119bd9190614c49565b6119c79088614c78565b6119d19190614cad565b905060006119dd6129b5565b6001600160a01b03166304f86f3c611a0060408051602081019091526000815290565b6040518263ffffffff1660e01b8152600401611a1c9190614874565b602060405180830381865afa158015611a39573d6000803e3d6000fd5b505050506040513d601f19601f82011682018060405250810190611a5d9190614d25565b90506001600160a01b03811663a9059cbb89611a79858b614d87565b6040516001600160e01b031960e085901b1681526001600160a01b03909216600483015260248201526044016020604051808303816000875af1158015611ac4573d6000803e3d6000fd5b505050506040513d601f19601f82011682018060405250810190611ae89190614cc1565b50611af28261334d565b869550505050505b5092915050565b611b09610f07565b600b546000611b2360408051602081019091526000815290565b90506000611b2f6129b5565b6001600160a01b03166304f86f3c836040518263ffffffff1660e01b8152600401611b5a9190614874565b602060405180830381865afa158015611b77573d6000803e3d6000fd5b505050506040513d601f19601f82011682018060405250810190611b9b9190614d25565b90506000611ba76111b3565b6001600160a01b031663e4e940f06040518163ffffffff1660e01b8152600401602060405180830381865afa158015611be4573d6000803e3d6000fd5b505050506040513d601f19601f82011682018060405250810190611c089190614d25565b90506000816001600160a01b03166302705c2e6040518163ffffffff1660e01b8152600401602060405180830381865afa158015611c4a573d6000803e3d6000fd5b505050506040513d601f19601f82011682018060405250810190611c6e9190614c49565b90506000611c7a6111b3565b6001600160a01b031663e4e940f06040518163ffffffff1660e01b8152600401602060405180830381865afa158015611cb7573d6000803e3d6000fd5b505050506040513d601f19601f82011682018060405250810190611cdb9190614d25565b6001600160a01b03166361a5d38c600c546040518263ffffffff1660e01b8152600401611d0a91815260200190565b600060405180830381865afa158015611d27573d6000803e3d6000fd5b505050506040513d6000823e601f3d908101601f19168201604052611d4f9190810190614e03565b905060005b8151811015611f04576000828281518110611d7157611d71614d9a565b6020908102919091018101516001600160a01b038082166000818152600d8552604080822054600c548251627eeac760e11b815260048101959095526024850152905194965094909385938a93908c169262fdd58e926044808401938290030181865afa158015611de6573d6000803e3d6000fd5b505050506040513d601f19601f82011682018060405250810190611e0a9190614c49565b611e14908d614c78565b611e1e9190614cad565b611e289190614d87565b90508115611e4a576001600160a01b0383166000908152600d60205260408120555b8015611eee576040516340c10f1960e01b81526001600160a01b038481166004830152602482018390528916906340c10f1990604401600060405180830381600087803b158015611e9a57600080fd5b505af1158015611eae573d6000803e3d6000fd5b505050507f47614c4f34cc07c5070ccad2038840984d1d138209aa8dcc40eac778c1b54c9c898483604051611ee593929190614eb5565b60405180910390a15b5050508080611efc90614db0565b915050611d54565b50506000600b555050505050565b600080611f1e8361247d565b611f29906005614c78565b90506000611f3b610521856001614d74565b611f46906005614c78565b905060006064611f5784604b614c78565b611f619190614cad565b90506000611f6f8284614d87565b9050611f7c600682614cad565b9695505050505050565b604080518082019091526000808252602082015283600003611fbc57506040805180820190915260008082526020820152611f7c565b6000611fc88888614d87565b90506000611fd68688614d74565b90506000611fe48786614cad565b905081861061200d57604051806040016040528082815260200160008152509350505050611f7c565b60006120198784614d87565b905060006120278286614ee3565b15612046576120368286614cad565b612041906001614d74565b612050565b6120508286614cad565b90508760000361208557604051806040016040528061206f858461422a565b8152602001600081525095505050505050611f7c565b8083116120ae576040518060400160405280848152602001600081525095505050505050611f7c565b600088856120bc8487614d87565b6120c69190614c78565b6120d09190614cad565b604080518082019091529283526020830152509b9a5050505050505050505050565b60006120fc6111b3565b6001600160a01b0316637b1039996040518163ffffffff1660e01b8152600401602060405180830381865afa158015612139573d6000803e3d6000fd5b505050506040513d601f19601f82011682018060405250810190610da79190614d25565b612165610f07565b600061216f6111b3565b6001600160a01b031663e4e940f06040518163ffffffff1660e01b8152600401602060405180830381865afa1580156121ac573d6000803e3d6000fd5b505050506040513d601f19601f820116820180604052508101906121d09190614d25565b600c54604051627eeac760e11b81526001600160a01b03858116600483015260248201929092529192506000919083169062fdd58e90604401602060405180830381865afa158015612226573d6000803e3d6000fd5b505050506040513d601f19601f8201168201806040525081019061224a9190614c49565b90508060000361225957505050565b6000600d6000856001600160a01b03166001600160a01b0316815260200190815260200160002054836001600160a01b03166302705c2e6040518163ffffffff1660e01b8152600401602060405180830381865afa1580156122bf573d6000803e3d6000fd5b505050506040513d601f19601f820116820180604052508101906122e39190614c49565b600b546122f1908590614c78565b6122fb9190614cad565b6123059190614d87565b9050806000036123155750505050565b6001600160a01b0384166000908152600d60205260408120805483929061233d908490614d74565b90915550506040805160208101909152600081526123596129b5565b6001600160a01b03166304f86f3c826040518263ffffffff1660e01b81526004016123849190614874565b602060405180830381865afa1580156123a1573d6000803e3d6000fd5b505050506040513d601f19601f820116820180604052508101906123c59190614d25565b6040516340c10f1960e01b81526001600160a01b0387811660048301526024820185905291909116906340c10f1990604401600060405180830381600087803b15801561241157600080fd5b505af1158015612425573d6000803e3d6000fd5b505050507f47614c4f34cc07c5070ccad2038840984d1d138209aa8dcc40eac778c1b54c9c81868460405161245c93929190614eb5565b60405180910390a15050505050565b600354600154600091610da791614d74565b6000600261248a83613c2a565b6124949190614fdb565b61249f906002614c78565b61073890670de0b6b3a7640000614c78565b6060816000036124bf574291505b60006124c96111b3565b6001600160a01b0316637aa873346040518163ffffffff1660e01b8152600401602060405180830381865afa158015612506573d6000803e3d6000fd5b505050506040513d601f19601f8201168201806040525081019061252a9190614c49565b9050801561253f5761253c838261422a565b92505b60006125496136b4565b90506000815167ffffffffffffffff811115612567576125676149d0565b6040519080825280602002602001820160405280156125be57816020015b6125ab604051806060016040528060608152602001600081526020016000151581525090565b8152602001906001900390816125855790505b50905060005b82518110156126555760405180606001604052808483815181106125ea576125ea614d9a565b60200260200101516000015181526020016000815260200184838151811061261457612614614d9a565b602002602001015160400151151581525082828151811061263757612637614d9a565b6020026020010181905250808061264d90614db0565b9150506125c4565b50600954851161266757949350505050565b6000670de0b6b3a764000061267a614242565b8460028151811061268d5761268d614d9a565b6020026020010151602001516126a39190614c78565b6126ad9190614cad565b90506000670de0b6b3a76400006126c26143d4565b856002815181106126d5576126d5614d9a565b6020026020010151602001516126eb9190614c78565b6126f59190614cad565b905060008060029054906101000a90046001600160a01b03166001600160a01b031663c4ff5f816040518163ffffffff1660e01b8152600401602060405180830381865afa15801561274b573d6000803e3d6000fd5b505050506040513d601f19601f8201168201806040525081019061276f9190614c49565b905080831061278d576127828184614d87565b92506000905061279e565b6127978382614d87565b9050600092505b60006127e2600e546127b161052161246b565b86868660038001548c6002815181106127cc576127cc614d9a565b6020026020010151602001516104d09190614c78565b6009549091506000906127f5908b614d87565b9050600061280783600001518361422a565b905060006128226128188385614d87565b856020015161422a565b905060006128308683614c78565b61283a8885614c78565b6128449190614d74565b905060006128528986614c78565b61285c9083614d74565b9050600061286a8887614c78565b905060008c60028151811061288157612881614d9a565b602002602001015160200151846128989190614cad565b905060005b8d518110156129a0578d81815181106128b8576128b8614d9a565b6020026020010151604001511561294257828410156000816128e3576128de8686614d87565b6128ed565b6128ed8587614d87565b9050818f848151811061290257612902614d9a565b60200260200101516040019015159081151581525050808f848151811061292b5761292b614d9a565b60200260200101516020018181525050505061298e565b818e828151811061295557612955614d9a565b60200260200101516020015161296b9190614c78565b8d828151811061297d5761297d614d9a565b602002602001015160200181815250505b8061299881614db0565b91505061289d565b509a9f9e505050505050505050505050505050565b60006129bf6111b3565b6001600160a01b031663c6b61e4c6129e36000805160206150528339815191525490565b6040518263ffffffff1660e01b8152600401612a0191815260200190565b602060405180830381865afa158015612139573d6000803e3d6000fd5b612a266111b3565b6001600160a01b0316336001600160a01b03161480612ad757506000612a4a6111b3565b6001600160a01b031663ebbe8034612a6e6000805160206150528339815191525490565b6040516001600160e01b031960e084901b1681526004810191909152336024820152604401602060405180830381865afa158015612ab0573d6000803e3d6000fd5b505050506040513d601f19601f82011682018060405250810190612ad49190614c49565b14155b612b115760405162461bcd60e51b815260206004820152601b602482015260008051602061503283398151915260448201526064016107ed565b6000612b1e61052161246b565b9050612b2a828261422a565b600e555050565b600080612b3c6136b4565b905060005b8151811015612b98578380519060200120828281518110612b6457612b64614d9a565b6020026020010151600001518051906020012003612b86575060019392505050565b80612b9081614db0565b915050612b41565b5060009392505050565b60607f6c85b93e587873fbe6712f3b438d42c2945689b262f7bd34b8ea4e3f832a89e660030180546112a190614dc9565b612bdb6111b3565b6001600160a01b0316336001600160a01b03161480612c8c57506000612bff6111b3565b6001600160a01b031663ebbe8034612c236000805160206150528339815191525490565b6040516001600160e01b031960e084901b1681526004810191909152336024820152604401602060405180830381865afa158015612c65573d6000803e3d6000fd5b505050506040513d601f19601f82011682018060405250810190612c899190614c49565b14155b612cc65760405162461bcd60e51b815260206004820152601b602482015260008051602061503283398151915260448201526064016107ed565b612cce610f07565b8060036002016000828254612ce39190614d74565b9091555060009050612cf3611651565b90506000612cff6135df565b9050818111156111ae576000612d158383614d87565b600054909150612d34906201000090046001600160a01b031682614466565b50505050565b6000612d446111b3565b6001600160a01b0316637aa873346040518163ffffffff1660e01b8152600401602060405180830381865afa158015612d81573d6000803e3d6000fd5b505050506040513d601f19601f82011682018060405250810190612da59190614c49565b9050801580612db357508042105b612ded5760405162461bcd60e51b815260206004820152600b60248201526a19d85b594818db1bdcd95960aa1b60448201526064016107ed565b600054604051631b0b969d60e01b8152336004820152620100009091046001600160a01b031690631b0b969d90602401602060405180830381865afa158015612e3a573d6000803e3d6000fd5b505050506040513d601f19601f82011682018060405250810190612e5e9190614cc1565b80612e815750612e6c6111b3565b6001600160a01b0316336001600160a01b0316145b80612f1e57506000612e916111b3565b6001600160a01b031663ebbe8034612eb56000805160206150528339815191525490565b6040516001600160e01b031960e084901b1681526004810191909152336024820152604401602060405180830381865afa158015612ef7573d6000803e3d6000fd5b505050506040513d601f19601f82011682018060405250810190612f1b9190614c49565b14155b612f3a5760405162461bcd60e51b81526004016107ed90614ce3565b612f42610f07565b600754612f4d61400b565b1015612f8f5760405162461bcd60e51b8152602060048201526011602482015270616c726561647920757067726164696e6760781b60448201526064016107ed565b6000612f9961246b565b90506000612fa682611f12565b60408051808201909152600481526315d3d3d160e21b60208201529091506001600160a01b0385166130ad57612fda6129b5565b6001600160a01b03166304f86f3c826040518263ffffffff1660e01b81526004016130059190614874565b602060405180830381865afa158015613022573d6000803e3d6000fd5b505050506040513d601f19601f820116820180604052508101906130469190614d25565b60405163079cc67960e41b8152336004820152602481018490526001600160a01b0391909116906379cc679090604401600060405180830381600087803b15801561309057600080fd5b505af11580156130a4573d6000803e3d6000fd5b505050506131f3565b60006130b76129b5565b6001600160a01b03166304f86f3c836040518263ffffffff1660e01b81526004016130e29190614874565b602060405180830381865afa1580156130ff573d6000803e3d6000fd5b505050506040513d601f19601f820116820180604052508101906131239190614d25565b60405163dd8aaa4f60e01b81526001600160a01b038881166004830152336024830152604482018690529192509082169063dd8aaa4f90606401600060405180830381600087803b15801561317757600080fd5b505af115801561318b573d6000803e3d6000fd5b505060405163079cc67960e41b81526001600160a01b03898116600483015260248201879052841692506379cc67909150604401600060405180830381600087803b1580156131d957600080fd5b505af11580156131ed573d6000803e3d6000fd5b50505050505b600060029054906101000a90046001600160a01b03166001600160a01b03166341c525536040518163ffffffff1660e01b8152600401602060405180830381865afa158015613246573d6000803e3d6000fd5b505050506040513d601f19601f8201168201806040525081019061326a9190614d25565b600054604051636e08f72160e01b81526001600160a01b0392831692636e08f721926132a792620100009091049091169085908790600401614d42565b600060405180830381600087803b1580156132c157600080fd5b505af11580156132d5573d6000803e3d6000fd5b505050506132e2836106b7565b6132ec9042614d74565b60075560006132fc846001614d74565b905060018060000160008282546133139190614d74565b909155506000905061332485613c2a565b61332d83613c2a565b6133379190614d87565b905080600180016000828254610d569190614d74565b60006133576111b3565b6001600160a01b0316637aa873346040518163ffffffff1660e01b8152600401602060405180830381865afa158015613394573d6000803e3d6000fd5b505050506040513d601f19601f820116820180604052508101906133b89190614c49565b90508015806133c657508042105b6134005760405162461bcd60e51b815260206004820152600b60248201526a19d85b594818db1bdcd95960aa1b60448201526064016107ed565b6134086111b3565b6001600160a01b0316336001600160a01b031614806134b95750600061342c6111b3565b6001600160a01b031663ebbe80346134506000805160206150528339815191525490565b6040516001600160e01b031960e084901b1681526004810191909152336024820152604401602060405180830381865afa158015613492573d6000803e3d6000fd5b505050506040513d601f19601f820116820180604052508101906134b69190614c49565b14155b6134f35760405162461bcd60e51b815260206004820152601b602482015260008051602061503283398151915260448201526064016107ed565b60006134fd6129b5565b6001600160a01b03166304f86f3c61352060408051602081019091526000815290565b6040518263ffffffff1660e01b815260040161353c9190614874565b602060405180830381865afa158015613559573d6000803e3d6000fd5b505050506040513d601f19601f8201168201806040525081019061357d9190614d25565b604051630852cd8d60e31b8152600481018590529091506001600160a01b038216906342966c6890602401600060405180830381600087803b1580156135c257600080fd5b505af11580156135d6573d6000803e3d6000fd5b50505050505050565b60006135e96129b5565b6001600160a01b031663cabb62f06040518163ffffffff1660e01b8152600401602060405180830381865afa158015613626573d6000803e3d6000fd5b505050506040513d601f19601f8201168201806040525081019061364a9190614d25565b6040516370a0823160e01b81523060048201526001600160a01b0391909116906370a0823190602401602060405180830381865afa158015613690573d6000803e3d6000fd5b505050506040513d601f19601f82011682018060405250810190610da79190614c49565b60408051600380825260808201909252606091816020015b6136f2604051806060016040528060608152602001600081526020016000151581525090565b8152602001906001900390816136cc5750506040805160a08101909152600460608201908152631193d3d160e21b6080830152815290915060208101613743620151806729a2241af62c0000614cad565b8152602001600015158152508160008151811061376257613762614d9a565b602002602001018190525060405180606001604052806040518060400160405280600481526020016315d3d3d160e21b815250815260200162015180671bc16d674ec800006137b19190614cad565b815260200160001515815250816001815181106137d0576137d0614d9a565b60200260200101819052506040518060600160405280604051806040016040528060068152602001650908a8298a8960d31b815250815260200162015180670de0b6b3a76400006138219190614cad565b8152602001600115158152508160028151811061384057613840614d9a565b602002602001018190525090565b60008061385a836124b1565b8451602086012090915060005b8251811015613bd6578183828151811061388357613883614d9a565b6020026020010151600001518051906020012003613bc4578281815181106138ad576138ad614d9a565b60200260200101516040015115613ab45760006138cb61044761246b565b9050806000036138e2576000945050505050610738565b6000670de0b6b3a76400006138f56120f2565b6001600160a01b0316636f3426da6040518163ffffffff1660e01b8152600401602060405180830381865afa158015613932573d6000803e3d6000fd5b505050506040513d601f19601f820116820180604052508101906139569190614c49565b86858151811061396857613968614d9a565b60200260200101516020015161397e9190614c78565b6139889190614cad565b905060006139946129b5565b6001600160a01b03166304f86f3c6139b760408051602081019091526000815290565b6040518263ffffffff1660e01b81526004016139d39190614874565b602060405180830381865afa1580156139f0573d6000803e3d6000fd5b505050506040513d601f19601f82011682018060405250810190613a149190614d25565b6040516375719b0160e11b81523060048201526001600160a01b03919091169063eae3360290602401602060405180830381865afa158015613a5a573d6000803e3d6000fd5b505050506040513d601f19601f82011682018060405250810190613a7e9190614c49565b9050828110613a94579550610738945050505050565b613aa7613aa18284614d74565b8461422a565b9650505050505050610738565b828181518110613ac657613ac6614d9a565b602002602001015160200151613ada6129b5565b6001600160a01b03166304f86f3c886040518263ffffffff1660e01b8152600401613b059190614874565b602060405180830381865afa158015613b22573d6000803e3d6000fd5b505050506040513d601f19601f82011682018060405250810190613b469190614d25565b6040516375719b0160e11b81523060048201526001600160a01b03919091169063eae3360290602401602060405180830381865afa158015613b8c573d6000803e3d6000fd5b505050506040513d601f19601f82011682018060405250810190613bb09190614c49565b613bba9190614d87565b9350505050610738565b80613bce81614db0565b915050613867565b50600095945050505050565b60405162461bcd60e51b815260206004820152601d60248201527f7265736574446973747269627574696f6e2069732064697361626c656400000060448201526064016107ed565b6000600581613c398285614cad565b90506000613c478383614c78565b613c519086614d87565b9050600083600284613c64816001614d74565b613c6e9190614c78565b613c789190614cad565b613c829190614c78565b90506000613c91846001614d74565b613c9b9084614c78565b613ca59083614d74565b979650505050505050565b600080613d2a600360020154613cc46120f2565b6001600160a01b0316637a893af56040518163ffffffff1660e01b8152600401602060405180830381865afa158015613d01573d6000803e3d6000fd5b505050506040513d601f19601f82011682018060405250810190613d259190614c49565b61422a565b90506000613d366111e6565b9050734485313EDB60A1821FCC0f701175984c33D682D163eefe4284670de0b6b3a7640000613d658585614c78565b613d6f9190614cad565b6040516001600160e01b031960e084901b1681526004810191909152670de0b6b3a76400006024820152604401602060405180830381865af4158015613db9573d6000803e3d6000fd5b505050506040513d601f19601f82011682018060405250810190613ddd9190614c49565b9250505090565b6000613dee6111b3565b6001600160a01b0316637aa873346040518163ffffffff1660e01b8152600401602060405180830381865afa158015613e2b573d6000803e3d6000fd5b505050506040513d601f19601f82011682018060405250810190613e4f9190614c49565b9050801580613e5d57508042105b613e975760405162461bcd60e51b815260206004820152600b60248201526a19d85b594818db1bdcd95960aa1b60448201526064016107ed565b600054604051631b0b969d60e01b8152336004820152620100009091046001600160a01b031690631b0b969d90602401602060405180830381865afa158015613ee4573d6000803e3d6000fd5b505050506040513d601f19601f82011682018060405250810190613f089190614cc1565b80613f2b5750613f166111b3565b6001600160a01b0316336001600160a01b0316145b80613fc857506000613f3b6111b3565b6001600160a01b031663ebbe8034613f5f6000805160206150528339815191525490565b6040516001600160e01b031960e084901b1681526004810191909152336024820152604401602060405180830381865afa158015613fa1573d6000803e3d6000fd5b505050506040513d601f19601f82011682018060405250810190613fc59190614c49565b14155b613fe45760405162461bcd60e51b81526004016107ed90614ce3565b8615613ff457613ff48888614466565b6140018585888686614544565b5050505050505050565b6000806140166111b3565b6001600160a01b0316637aa873346040518163ffffffff1660e01b8152600401602060405180830381865afa158015614053573d6000803e3d6000fd5b505050506040513d601f19601f820116820180604052508101906140779190614c49565b905080600003614088574291505090565b614092428261422a565b91505090565b6000806140a36136b4565b905060001960005b8251811015611afa578281815181106140c6576140c6614d9a565b6020026020010151604001516142185760006140e06129b5565b6001600160a01b03166304f86f3c85848151811061410057614100614d9a565b6020026020010151600001516040518263ffffffff1660e01b81526004016141289190614874565b602060405180830381865afa158015614145573d6000803e3d6000fd5b505050506040513d601f19601f820116820180604052508101906141699190614d25565b6040516375719b0160e11b81523060048201526001600160a01b03919091169063eae3360290602401602060405180830381865afa1580156141af573d6000803e3d6000fd5b505050506040513d601f19601f820116820180604052508101906141d39190614c49565b9050806000036141e857600094505050505090565b6142148483815181106141fd576141fd614d9a565b60200260200101516020015182613aa19190614cad565b9250505b8061422281614db0565b9150506140ab565b6000818310614239578161423b565b825b9392505050565b60008061424d610d9d565b9050670de0b6b3a76400006142606120f2565b6001600160a01b031663781e0efe6040518163ffffffff1660e01b8152600401602060405180830381865afa15801561429d573d6000803e3d6000fd5b505050506040513d601f19601f820116820180604052508101906142c19190614c49565b6142c96120f2565b6001600160a01b031663265d3f50846040518263ffffffff1660e01b81526004016142f49190614874565b602060405180830381865afa158015614311573d6000803e3d6000fd5b505050506040513d601f19601f820116820180604052508101906143359190614c49565b61433d6120f2565b6001600160a01b031663dd77e3c7856040518263ffffffff1660e01b81526004016143689190614874565b602060405180830381865afa158015614385573d6000803e3d6000fd5b505050506040513d601f19601f820116820180604052508101906143a99190614c49565b6002546143b69190614c78565b6143c09190614c78565b6143ca9190614c78565b6140929190614cad565b6000806143df613cb0565b6143e76135df565b6143f19190614d74565b90506143fb6120f2565b6001600160a01b031663781e0efe6040518163ffffffff1660e01b8152600401602060405180830381865afa158015614438573d6000803e3d6000fd5b505050506040513d601f19601f8201168201806040525081019061445c9190614c49565b6140929082614c78565b61446e6129b5565b6001600160a01b031663cabb62f06040518163ffffffff1660e01b8152600401602060405180830381865afa1580156144ab573d6000803e3d6000fd5b505050506040513d601f19601f820116820180604052508101906144cf9190614d25565b60405163a9059cbb60e01b81526001600160a01b03848116600483015260248201849052919091169063a9059cbb906044016020604051808303816000875af1158015614520573d6000803e3d6000fd5b505050506040513d601f19601f820116820180604052508101906111ae9190614cc1565b60005b848110156145de576145cc86868381811061456457614564614d9a565b90506020028101906145769190614fea565b8080601f016020809104026020016040519081016040528093929190818152602001838380828437600092019190915250889250879150869050858181106145c0576145c0614d9a565b905060200201356145e6565b806145d681614db0565b915050614547565b505050505050565b6145ee610f07565b60006145f86129b5565b6001600160a01b03166304f86f3c856040518263ffffffff1660e01b81526004016146239190614874565b602060405180830381865afa158015614640573d6000803e3d6000fd5b505050506040513d601f19601f820116820180604052508101906146649190614d25565b6040516370a0823160e01b81523060048201529091506000906001600160a01b038316906370a0823190602401602060405180830381865afa1580156146ae573d6000803e3d6000fd5b505050506040513d601f19601f820116820180604052508101906146d29190614c49565b9050806000036146e3575050505050565b808311156146ef578092505b604080516020808201909252600090528551908601207f3a2db9fe7908dcc36d81824d2338fc3f1aff49ac357dd8c4840527fba27a5b900161476057600061473861044761246b565b90506000818311156147515761474e8284614d87565b90505b8085111561475d578094505b50505b82156147d95760405163a9059cbb60e01b81526001600160a01b0385811660048301526024820185905283169063a9059cbb906044016020604051808303816000875af11580156147b5573d6000803e3d6000fd5b505050506040513d601f19601f820116820180604052508101906145de9190614cc1565b5050505050565b6000602082840312156147f257600080fd5b5035919050565b6001600160a01b038116811461480e57600080fd5b50565b60006020828403121561482357600080fd5b813561423b816147f9565b6000815180845260005b8181101561485457602081850181015186830182015201614838565b506000602082860101526020601f19601f83011685010191505092915050565b60208152600061423b602083018461482e565b60008060006060848603121561489c57600080fd5b83356148a7816147f9565b925060208401356148b7816147f9565b929592945050506040919091013590565b600080604083850312156148db57600080fd5b82356148e6816147f9565b946020939093013593505050565b60008060008060008060c0878903121561490d57600080fd5b505084359660208601359650604086013595606081013595506080810135945060a0013592509050565b600081516060845261494c606085018261482e565b9050602083015160208501526040830151151560408501528091505092915050565b6000602080830181845280855180835260408601915060408160051b870101925083870160005b828110156149c357603f198886030184526149b1858351614937565b94509285019290850190600101614995565b5092979650505050505050565b634e487b7160e01b600052604160045260246000fd5b604051601f8201601f1916810167ffffffffffffffff81118282101715614a0f57614a0f6149d0565b604052919050565b600082601f830112614a2857600080fd5b813567ffffffffffffffff811115614a4257614a426149d0565b614a55601f8201601f19166020016149e6565b818152846020838601011115614a6a57600080fd5b816020850160208301376000918101602001919091529392505050565b600060208284031215614a9957600080fd5b813567ffffffffffffffff811115614ab057600080fd5b614abc84828501614a17565b949350505050565b6000602080830181845280855180835260408601915060408160051b870101925083870160005b828110156149c357603f19888603018452614b07858351614937565b94509285019290850190600101614aeb565b60008060408385031215614b2c57600080fd5b823567ffffffffffffffff811115614b4357600080fd5b614b4f85828601614a17565b95602094909401359450505050565b60008083601f840112614b7057600080fd5b50813567ffffffffffffffff811115614b8857600080fd5b6020830191508360208260051b8501011115614ba357600080fd5b9250929050565b600080600080600080600060a0888a031215614bc557600080fd5b8735614bd0816147f9565b9650602088013595506040880135614be7816147f9565b9450606088013567ffffffffffffffff80821115614c0457600080fd5b614c108b838c01614b5e565b909650945060808a0135915080821115614c2957600080fd5b50614c368a828b01614b5e565b989b979a50959850939692959293505050565b600060208284031215614c5b57600080fd5b5051919050565b634e487b7160e01b600052601160045260246000fd5b6000816000190483118215151615614c9257614c92614c62565b500290565b634e487b7160e01b600052601260045260246000fd5b600082614cbc57614cbc614c97565b500490565b600060208284031215614cd357600080fd5b8151801515811461423b57600080fd5b60208082526022908201527f6f6e6c7952756c65724f72576f726c64417373657446726f6d53616d6545706f6040820152610c6d60f31b606082015260800190565b600060208284031215614d3757600080fd5b815161423b816147f9565b6001600160a01b0384168152606060208201526000614d64606083018561482e565b9050826040830152949350505050565b8082018082111561073857610738614c62565b8181038181111561073857610738614c62565b634e487b7160e01b600052603260045260246000fd5b600060018201614dc257614dc2614c62565b5060010190565b600181811c90821680614ddd57607f821691505b602082108103614dfd57634e487b7160e01b600052602260045260246000fd5b50919050565b60006020808385031215614e1657600080fd5b825167ffffffffffffffff80821115614e2e57600080fd5b818501915085601f830112614e4257600080fd5b815181811115614e5457614e546149d0565b8060051b9150614e658483016149e6565b8181529183018401918481019088841115614e7f57600080fd5b938501935b83851015614ea95784519250614e99836147f9565b8282529385019390850190614e84565b98975050505050505050565b606081526000614ec8606083018661482e565b6001600160a01b039490941660208301525060400152919050565b600082614ef257614ef2614c97565b500690565b600181815b80851115614f32578160001904821115614f1857614f18614c62565b80851615614f2557918102915b93841c9390800290614efc565b509250929050565b600082614f4957506001610738565b81614f5657506000610738565b8160018114614f6c5760028114614f7657614f92565b6001915050610738565b60ff841115614f8757614f87614c62565b50506001821b610738565b5060208310610133831016604e8410600b8410161715614fb5575081810a610738565b614fbf8383614ef7565b8060001904821115614fd357614fd3614c62565b029392505050565b600061423b60ff841683614f3a565b6000808335601e1984360301811261500157600080fd5b83018035915067ffffffffffffffff82111561501c57600080fd5b602001915036819003821315614ba357600080fdfe6f6e6c79576f726c64417373657446726f6d53616d6545706f636800000000006c85b93e587873fbe6712f3b438d42c2945689b262f7bd34b8ea4e3f832a89e7a2646970667358221220e7233c5ecadbc0b12a5105fe6be02b1e5e0f7d54325d1e181537fb4afba2cc9864736f6c63430008100033",
  "deployedBytecode": "0x608060405234801561001057600080fd5b506004361061032a5760003560e01c80638545bc58116101b2578063c3f909d4116100f9578063e6458291116100a2578063f4145a831161007c578063f4145a8314610653578063fb2018d914610668578063fe7f15ef1461067b578063ffaf29a01461069457600080fd5b8063e64582911461062f578063e91bde7614610638578063f2477b5b1461064b57600080fd5b8063c91b9566116100d3578063c91b956614610615578063c9c0df611461061e578063d2bc7d851461062757600080fd5b8063c3f909d4146105cd578063c55b31ce146105e2578063c724a016146105f557600080fd5b80639abb3cae1161015b578063af04eb4211610135578063af04eb421461059f578063b78d1384146105b2578063c1499f71146105c557600080fd5b80639abb3cae14610584578063adcd294014610439578063ae6fd51d1461058c57600080fd5b8063900cf0cf1161018c578063900cf0cf146105465780639976d2201461054e5780639a9402a11461056157600080fd5b80638545bc581461050b5780638bb9b6f2146105135780638beab87e1461052657600080fd5b806343e77f461161027657806365e6f4ce1161021f5780637afd0c82116101f95780637afd0c82146104c25780637b103999146104f05780637b7a2bfc146104f857600080fd5b806365e6f4ce1461049e5780637633a22c146104a65780637abdf949146104af57600080fd5b8063575bceda11610250578063575bceda14610483578063589ae4001461048b5780635ed697b71461043957600080fd5b806343e77f46146104555780634500dbeb146104685780634ace91d01461047057600080fd5b80631d8557d7116102d857806339c8a95a116102b257806339c8a95a146104315780633c084b8b146104395780633fe3347a1461044d57600080fd5b80631d8557d7146103f557806324db272a146103fd57806330b67baa1461041157600080fd5b8063115112ab11610309578063115112ab1461039757806314dff0e8146103ac57806319ab453c146103e257600080fd5b8062d4fbf81461032f57806302e68b941461035557806305e88b691461036a575b600080fd5b61034261033d3660046147e0565b6106b7565b6040519081526020015b60405180910390f35b610368610363366004614811565b61073e565b005b600954600a54600b5461037c92919083565b6040805193845260208401929092529082015260600161034c565b61039f610d9d565b60405161034c9190614874565b6003546004546005546006546103c29392919084565b60408051948552602085019390935291830152606082015260800161034c565b6103686103f0366004614811565b610dac565b610368610f07565b60408051602081019091526000815261039f565b6104196111b3565b6040516001600160a01b03909116815260200161034c565b6103426111e6565b6103426104473660046147e0565b50600090565b61039f611270565b6103686104633660046147e0565b611324565b61036861143c565b61036861047e366004614887565b611449565b610342611651565b6103426104993660046148c8565b61166d565b610368611b01565b610342600e5481565b6103426104bd3660046147e0565b611f12565b6104d56104d03660046148f4565b611f86565b6040805182518152602092830151928101929092520161034c565b6104196120f2565b610368610506366004614811565b61215d565b61034261246b565b6103426105213660046147e0565b61247d565b6105396105343660046147e0565b6124b1565b60405161034c919061496e565b6104196129b5565b61036861055c3660046147e0565b612a1e565b61057461056f366004614a87565b612b31565b604051901515815260200161034c565b61039f612ba2565b61036861059a3660046147e0565b612bd3565b6103686105ad366004614811565b612d3a565b6103686105c03660046147e0565b61334d565b6103426135df565b6105d56136b4565b60405161034c9190614ac4565b6103426105f0366004614b19565b61384e565b610342610603366004614811565b600d6020526000908152604090205481565b61034260085481565b610342600c5481565b610368613be2565b61034260075481565b6103426106463660046147e0565b613c2a565b610342613cb0565b60008051602061505283398151915254610342565b610368610676366004614baa565b613de4565b600054610419906201000090046001600160a01b031681565b6001546002546106a2919082565b6040805192835260208301919091520161034c565b60006106c16120f2565b6001600160a01b031663781e0efe6040518163ffffffff1660e01b8152600401602060405180830381865afa1580156106fe573d6000803e3d6000fd5b505050506040513d601f19601f820116820180604052508101906107229190614c49565b61072e83615460614c78565b6107389190614cad565b92915050565b60006107486111b3565b6001600160a01b0316637aa873346040518163ffffffff1660e01b8152600401602060405180830381865afa158015610785573d6000803e3d6000fd5b505050506040513d601f19601f820116820180604052508101906107a99190614c49565b90508015806107b757508042105b6107f65760405162461bcd60e51b815260206004820152600b60248201526a19d85b594818db1bdcd95960aa1b60448201526064015b60405180910390fd5b600054604051631b0b969d60e01b8152336004820152620100009091046001600160a01b031690631b0b969d90602401602060405180830381865afa158015610843573d6000803e3d6000fd5b505050506040513d601f19601f820116820180604052508101906108679190614cc1565b8061088a57506108756111b3565b6001600160a01b0316336001600160a01b0316145b806109275750600061089a6111b3565b6001600160a01b031663ebbe80346108be6000805160206150528339815191525490565b6040516001600160e01b031960e084901b1681526004810191909152336024820152604401602060405180830381865afa158015610900573d6000803e3d6000fd5b505050506040513d601f19601f820116820180604052508101906109249190614c49565b14155b6109435760405162461bcd60e51b81526004016107ed90614ce3565b61094b610f07565b60075461095661400b565b10156109985760405162461bcd60e51b8152602060048201526011602482015270616c726561647920757067726164696e6760781b60448201526064016107ed565b60006109a261246b565b905060006109af82611f12565b6040805180820190915260038152624f524560e81b60208201529091506001600160a01b038516610ab5576109e26129b5565b6001600160a01b03166304f86f3c826040518263ffffffff1660e01b8152600401610a0d9190614874565b602060405180830381865afa158015610a2a573d6000803e3d6000fd5b505050506040513d601f19601f82011682018060405250810190610a4e9190614d25565b60405163079cc67960e41b8152336004820152602481018490526001600160a01b0391909116906379cc679090604401600060405180830381600087803b158015610a9857600080fd5b505af1158015610aac573d6000803e3d6000fd5b50505050610bfb565b6000610abf6129b5565b6001600160a01b03166304f86f3c836040518263ffffffff1660e01b8152600401610aea9190614874565b602060405180830381865afa158015610b07573d6000803e3d6000fd5b505050506040513d601f19601f82011682018060405250810190610b2b9190614d25565b60405163dd8aaa4f60e01b81526001600160a01b038881166004830152336024830152604482018690529192509082169063dd8aaa4f90606401600060405180830381600087803b158015610b7f57600080fd5b505af1158015610b93573d6000803e3d6000fd5b505060405163079cc67960e41b81526001600160a01b03898116600483015260248201879052841692506379cc67909150604401600060405180830381600087803b158015610be157600080fd5b505af1158015610bf5573d6000803e3d6000fd5b50505050505b600060029054906101000a90046001600160a01b03166001600160a01b03166341c525536040518163ffffffff1660e01b8152600401602060405180830381865afa158015610c4e573d6000803e3d6000fd5b505050506040513d601f19601f82011682018060405250810190610c729190614d25565b600054604051636e08f72160e01b81526001600160a01b0392831692636e08f72192610caf92620100009091049091169085908790600401614d42565b600060405180830381600087803b158015610cc957600080fd5b505af1158015610cdd573d6000803e3d6000fd5b50505050610ce9600090565b610cf39042614d74565b6007556000610d03846001614d74565b9050600160036000016000828254610d1b9190614d74565b9091555060009050610d2c85613c2a565b610d3583613c2a565b610d3f9190614d87565b90508060036001016000828254610d569190614d74565b90915550610d619050565b6040518281527f3522cf3459e241a649e558e6164f7286e55468f8ba273170ece2a4716fc9f4969060200160405180910390a150505050505050565b6060610da7611270565b905090565b600054610100900460ff1615808015610dcc5750600054600160ff909116105b80610de65750303b158015610de6575060005460ff166001145b610e495760405162461bcd60e51b815260206004820152602e60248201527f496e697469616c697a61626c653a20636f6e747261637420697320616c72656160448201526d191e481a5b9a5d1a585b1a5e995960921b60648201526084016107ed565b6000805460ff191660011790558015610e6c576000805461ff0019166101001790555b6000805475ffffffffffffffffffffffffffffffffffffffff00001916620100006001600160a01b0385160217905560018080556002819055600381905560045542600955673782dace9d900000600e558015610f03576000805461ff0019169055604051600181527f7f26b83ff96e1f2b6a682f133852f6798a09c465da95921460cefb38474024989060200160405180910390a15b5050565b600954429003610f1357565b6000610f1d61400b565b90506000610f2a826124b1565b6009839055905060005b81518110156111ae576040805180820190915260068152650908a8298a8960d31b60209091015281517f88ad4e672f8c8ca6cce86b10b118764bf098c06bb02cd6691dfb6641799afaa090839083908110610f9157610f91614d9a565b602002602001015160000151805190602001200361106857600060029054906101000a90046001600160a01b03166001600160a01b031663f61de1b4838381518110610fdf57610fdf614d9a565b602002602001015160200151848481518110610ffd57610ffd614d9a565b6020026020010151604001516040518363ffffffff1660e01b81526004016110319291909182521515602082015260400190565b600060405180830381600087803b15801561104b57600080fd5b505af115801561105f573d6000803e3d6000fd5b5050505061119c565b81818151811061107a5761107a614d9a565b6020026020010151602001516000031561119c576110966129b5565b6001600160a01b03166304f86f3c8383815181106110b6576110b6614d9a565b6020026020010151600001516040518263ffffffff1660e01b81526004016110de9190614874565b602060405180830381865afa1580156110fb573d6000803e3d6000fd5b505050506040513d601f19601f8201168201806040525081019061111f9190614d25565b6001600160a01b03166342966c6883838151811061113f5761113f614d9a565b6020026020010151602001516040518263ffffffff1660e01b815260040161116991815260200190565b600060405180830381600087803b15801561118357600080fd5b505af1158015611197573d6000803e3d6000fd5b505050505b806111a681614db0565b915050610f34565b505050565b6000610da77f6c85b93e587873fbe6712f3b438d42c2945689b262f7bd34b8ea4e3f832a89e6546001600160a01b031690565b60006111f06120f2565b6001600160a01b031663265d3f50611206610d9d565b6040518263ffffffff1660e01b81526004016112229190614874565b602060405180830381865afa15801561123f573d6000803e3d6000fd5b505050506040513d601f19601f820116820180604052508101906112639190614c49565b600454610da79190614c78565b60607f6c85b93e587873fbe6712f3b438d42c2945689b262f7bd34b8ea4e3f832a89e660040180546112a190614dc9565b80601f01602080910402602001604051908101604052809291908181526020018280546112cd90614dc9565b801561131a5780601f106112ef5761010080835404028352916020019161131a565b820191906000526020600020905b8154815290600101906020018083116112fd57829003601f168201915b5050505050905090565b61132c6111b3565b6001600160a01b0316336001600160a01b031614806113dd575060006113506111b3565b6001600160a01b031663ebbe80346113746000805160206150528339815191525490565b6040516001600160e01b031960e084901b1681526004810191909152336024820152604401602060405180830381865afa1580156113b6573d6000803e3d6000fd5b505050506040513d601f19601f820116820180604052508101906113da9190614c49565b14155b6114175760405162461bcd60e51b815260206004820152601b602482015260008051602061503283398151915260448201526064016107ed565b61141f610f07565b80600360020160008282546114349190614d87565b909155505050565b611444614098565b600655565b336114526111b3565b6001600160a01b031663e4e940f06040518163ffffffff1660e01b8152600401602060405180830381865afa15801561148f573d6000803e3d6000fd5b505050506040513d601f19601f820116820180604052508101906114b39190614d25565b6001600160a01b0316146114fd5760405162461bcd60e51b81526020600482015260116024820152706f6e6c79446973747269627574696f6e7360781b60448201526064016107ed565b60006115076111b3565b6001600160a01b031663e4e940f06040518163ffffffff1660e01b8152600401602060405180830381865afa158015611544573d6000803e3d6000fd5b505050506040513d601f19601f820116820180604052508101906115689190614d25565b6001600160a01b03166302705c2e6040518163ffffffff1660e01b8152600401602060405180830381865afa1580156115a5573d6000803e3d6000fd5b505050506040513d601f19601f820116820180604052508101906115c99190614c49565b600b546115d7908490614c78565b6115e19190614cad565b9050806000036115f15750505050565b6001600160a01b0384166000908152600d602052604081208054839290611619908490614d87565b90915550506001600160a01b0383166000908152600d602052604081208054839290611646908490614d74565b909155505050505050565b600061165b613cb0565b6116636111e6565b610da79190614d87565b6000806116786111b3565b6001600160a01b0316637aa873346040518163ffffffff1660e01b8152600401602060405180830381865afa1580156116b5573d6000803e3d6000fd5b505050506040513d601f19601f820116820180604052508101906116d99190614c49565b90508015806116e757508042105b6117215760405162461bcd60e51b815260206004820152600b60248201526a19d85b594818db1bdcd95960aa1b60448201526064016107ed565b6117296111b3565b6001600160a01b0316336001600160a01b031614806117da5750600061174d6111b3565b6001600160a01b031663ebbe80346117716000805160206150528339815191525490565b6040516001600160e01b031960e084901b1681526004810191909152336024820152604401602060405180830381865afa1580156117b3573d6000803e3d6000fd5b505050506040513d601f19601f820116820180604052508101906117d79190614c49565b14155b6118145760405162461bcd60e51b815260206004820152601b602482015260008051602061503283398151915260448201526064016107ed565b61181c610f07565b60006118266129b5565b6001600160a01b03166304f86f3c61184960408051602081019091526000815290565b6040518263ffffffff1660e01b81526004016118659190614874565b602060405180830381865afa158015611882573d6000803e3d6000fd5b505050506040513d601f19601f820116820180604052508101906118a69190614d25565b6040516375719b0160e11b81523060048201526001600160a01b03919091169063eae3360290602401602060405180830381865afa1580156118ec573d6000803e3d6000fd5b505050506040513d601f19601f820116820180604052508101906119109190614c49565b9050600061192861192261044761246b565b8361422a565b90508060000361193d57600093505050611afa565b611947818661422a565b94506000670de0b6b3a764000061195c6120f2565b6001600160a01b031663355bb5296040518163ffffffff1660e01b8152600401602060405180830381865afa158015611999573d6000803e3d6000fd5b505050506040513d601f19601f820116820180604052508101906119bd9190614c49565b6119c79088614c78565b6119d19190614cad565b905060006119dd6129b5565b6001600160a01b03166304f86f3c611a0060408051602081019091526000815290565b6040518263ffffffff1660e01b8152600401611a1c9190614874565b602060405180830381865afa158015611a39573d6000803e3d6000fd5b505050506040513d601f19601f82011682018060405250810190611a5d9190614d25565b90506001600160a01b03811663a9059cbb89611a79858b614d87565b6040516001600160e01b031960e085901b1681526001600160a01b03909216600483015260248201526044016020604051808303816000875af1158015611ac4573d6000803e3d6000fd5b505050506040513d601f19601f82011682018060405250810190611ae89190614cc1565b50611af28261334d565b869550505050505b5092915050565b611b09610f07565b600b546000611b2360408051602081019091526000815290565b90506000611b2f6129b5565b6001600160a01b03166304f86f3c836040518263ffffffff1660e01b8152600401611b5a9190614874565b602060405180830381865afa158015611b77573d6000803e3d6000fd5b505050506040513d601f19601f82011682018060405250810190611b9b9190614d25565b90506000611ba76111b3565b6001600160a01b031663e4e940f06040518163ffffffff1660e01b8152600401602060405180830381865afa158015611be4573d6000803e3d6000fd5b505050506040513d601f19601f82011682018060405250810190611c089190614d25565b90506000816001600160a01b03166302705c2e6040518163ffffffff1660e01b8152600401602060405180830381865afa158015611c4a573d6000803e3d6000fd5b505050506040513d601f19601f82011682018060405250810190611c6e9190614c49565b90506000611c7a6111b3565b6001600160a01b031663e4e940f06040518163ffffffff1660e01b8152600401602060405180830381865afa158015611cb7573d6000803e3d6000fd5b505050506040513d601f19601f82011682018060405250810190611cdb9190614d25565b6001600160a01b03166361a5d38c600c546040518263ffffffff1660e01b8152600401611d0a91815260200190565b600060405180830381865afa158015611d27573d6000803e3d6000fd5b505050506040513d6000823e601f3d908101601f19168201604052611d4f9190810190614e03565b905060005b8151811015611f04576000828281518110611d7157611d71614d9a565b6020908102919091018101516001600160a01b038082166000818152600d8552604080822054600c548251627eeac760e11b815260048101959095526024850152905194965094909385938a93908c169262fdd58e926044808401938290030181865afa158015611de6573d6000803e3d6000fd5b505050506040513d601f19601f82011682018060405250810190611e0a9190614c49565b611e14908d614c78565b611e1e9190614cad565b611e289190614d87565b90508115611e4a576001600160a01b0383166000908152600d60205260408120555b8015611eee576040516340c10f1960e01b81526001600160a01b038481166004830152602482018390528916906340c10f1990604401600060405180830381600087803b158015611e9a57600080fd5b505af1158015611eae573d6000803e3d6000fd5b505050507f47614c4f34cc07c5070ccad2038840984d1d138209aa8dcc40eac778c1b54c9c898483604051611ee593929190614eb5565b60405180910390a15b5050508080611efc90614db0565b915050611d54565b50506000600b555050505050565b600080611f1e8361247d565b611f29906005614c78565b90506000611f3b610521856001614d74565b611f46906005614c78565b905060006064611f5784604b614c78565b611f619190614cad565b90506000611f6f8284614d87565b9050611f7c600682614cad565b9695505050505050565b604080518082019091526000808252602082015283600003611fbc57506040805180820190915260008082526020820152611f7c565b6000611fc88888614d87565b90506000611fd68688614d74565b90506000611fe48786614cad565b905081861061200d57604051806040016040528082815260200160008152509350505050611f7c565b60006120198784614d87565b905060006120278286614ee3565b15612046576120368286614cad565b612041906001614d74565b612050565b6120508286614cad565b90508760000361208557604051806040016040528061206f858461422a565b8152602001600081525095505050505050611f7c565b8083116120ae576040518060400160405280848152602001600081525095505050505050611f7c565b600088856120bc8487614d87565b6120c69190614c78565b6120d09190614cad565b604080518082019091529283526020830152509b9a5050505050505050505050565b60006120fc6111b3565b6001600160a01b0316637b1039996040518163ffffffff1660e01b8152600401602060405180830381865afa158015612139573d6000803e3d6000fd5b505050506040513d601f19601f82011682018060405250810190610da79190614d25565b612165610f07565b600061216f6111b3565b6001600160a01b031663e4e940f06040518163ffffffff1660e01b8152600401602060405180830381865afa1580156121ac573d6000803e3d6000fd5b505050506040513d601f19601f820116820180604052508101906121d09190614d25565b600c54604051627eeac760e11b81526001600160a01b03858116600483015260248201929092529192506000919083169062fdd58e90604401602060405180830381865afa158015612226573d6000803e3d6000fd5b505050506040513d601f19601f8201168201806040525081019061224a9190614c49565b90508060000361225957505050565b6000600d6000856001600160a01b03166001600160a01b0316815260200190815260200160002054836001600160a01b03166302705c2e6040518163ffffffff1660e01b8152600401602060405180830381865afa1580156122bf573d6000803e3d6000fd5b505050506040513d601f19601f820116820180604052508101906122e39190614c49565b600b546122f1908590614c78565b6122fb9190614cad565b6123059190614d87565b9050806000036123155750505050565b6001600160a01b0384166000908152600d60205260408120805483929061233d908490614d74565b90915550506040805160208101909152600081526123596129b5565b6001600160a01b03166304f86f3c826040518263ffffffff1660e01b81526004016123849190614874565b602060405180830381865afa1580156123a1573d6000803e3d6000fd5b505050506040513d601f19601f820116820180604052508101906123c59190614d25565b6040516340c10f1960e01b81526001600160a01b0387811660048301526024820185905291909116906340c10f1990604401600060405180830381600087803b15801561241157600080fd5b505af1158015612425573d6000803e3d6000fd5b505050507f47614c4f34cc07c5070ccad2038840984d1d138209aa8dcc40eac778c1b54c9c81868460405161245c93929190614eb5565b60405180910390a15050505050565b600354600154600091610da791614d74565b6000600261248a83613c2a565b6124949190614fdb565b61249f906002614c78565b61073890670de0b6b3a7640000614c78565b6060816000036124bf574291505b60006124c96111b3565b6001600160a01b0316637aa873346040518163ffffffff1660e01b8152600401602060405180830381865afa158015612506573d6000803e3d6000fd5b505050506040513d601f19601f8201168201806040525081019061252a9190614c49565b9050801561253f5761253c838261422a565b92505b60006125496136b4565b90506000815167ffffffffffffffff811115612567576125676149d0565b6040519080825280602002602001820160405280156125be57816020015b6125ab604051806060016040528060608152602001600081526020016000151581525090565b8152602001906001900390816125855790505b50905060005b82518110156126555760405180606001604052808483815181106125ea576125ea614d9a565b60200260200101516000015181526020016000815260200184838151811061261457612614614d9a565b602002602001015160400151151581525082828151811061263757612637614d9a565b6020026020010181905250808061264d90614db0565b9150506125c4565b50600954851161266757949350505050565b6000670de0b6b3a764000061267a614242565b8460028151811061268d5761268d614d9a565b6020026020010151602001516126a39190614c78565b6126ad9190614cad565b90506000670de0b6b3a76400006126c26143d4565b856002815181106126d5576126d5614d9a565b6020026020010151602001516126eb9190614c78565b6126f59190614cad565b905060008060029054906101000a90046001600160a01b03166001600160a01b031663c4ff5f816040518163ffffffff1660e01b8152600401602060405180830381865afa15801561274b573d6000803e3d6000fd5b505050506040513d601f19601f8201168201806040525081019061276f9190614c49565b905080831061278d576127828184614d87565b92506000905061279e565b6127978382614d87565b9050600092505b60006127e2600e546127b161052161246b565b86868660038001548c6002815181106127cc576127cc614d9a565b6020026020010151602001516104d09190614c78565b6009549091506000906127f5908b614d87565b9050600061280783600001518361422a565b905060006128226128188385614d87565b856020015161422a565b905060006128308683614c78565b61283a8885614c78565b6128449190614d74565b905060006128528986614c78565b61285c9083614d74565b9050600061286a8887614c78565b905060008c60028151811061288157612881614d9a565b602002602001015160200151846128989190614cad565b905060005b8d518110156129a0578d81815181106128b8576128b8614d9a565b6020026020010151604001511561294257828410156000816128e3576128de8686614d87565b6128ed565b6128ed8587614d87565b9050818f848151811061290257612902614d9a565b60200260200101516040019015159081151581525050808f848151811061292b5761292b614d9a565b60200260200101516020018181525050505061298e565b818e828151811061295557612955614d9a565b60200260200101516020015161296b9190614c78565b8d828151811061297d5761297d614d9a565b602002602001015160200181815250505b8061299881614db0565b91505061289d565b509a9f9e505050505050505050505050505050565b60006129bf6111b3565b6001600160a01b031663c6b61e4c6129e36000805160206150528339815191525490565b6040518263ffffffff1660e01b8152600401612a0191815260200190565b602060405180830381865afa158015612139573d6000803e3d6000fd5b612a266111b3565b6001600160a01b0316336001600160a01b03161480612ad757506000612a4a6111b3565b6001600160a01b031663ebbe8034612a6e6000805160206150528339815191525490565b6040516001600160e01b031960e084901b1681526004810191909152336024820152604401602060405180830381865afa158015612ab0573d6000803e3d6000fd5b505050506040513d601f19601f82011682018060405250810190612ad49190614c49565b14155b612b115760405162461bcd60e51b815260206004820152601b602482015260008051602061503283398151915260448201526064016107ed565b6000612b1e61052161246b565b9050612b2a828261422a565b600e555050565b600080612b3c6136b4565b905060005b8151811015612b98578380519060200120828281518110612b6457612b64614d9a565b6020026020010151600001518051906020012003612b86575060019392505050565b80612b9081614db0565b915050612b41565b5060009392505050565b60607f6c85b93e587873fbe6712f3b438d42c2945689b262f7bd34b8ea4e3f832a89e660030180546112a190614dc9565b612bdb6111b3565b6001600160a01b0316336001600160a01b03161480612c8c57506000612bff6111b3565b6001600160a01b031663ebbe8034612c236000805160206150528339815191525490565b6040516001600160e01b031960e084901b1681526004810191909152336024820152604401602060405180830381865afa158015612c65573d6000803e3d6000fd5b505050506040513d601f19601f82011682018060405250810190612c899190614c49565b14155b612cc65760405162461bcd60e51b815260206004820152601b602482015260008051602061503283398151915260448201526064016107ed565b612cce610f07565b8060036002016000828254612ce39190614d74565b9091555060009050612cf3611651565b90506000612cff6135df565b9050818111156111ae576000612d158383614d87565b600054909150612d34906201000090046001600160a01b031682614466565b50505050565b6000612d446111b3565b6001600160a01b0316637aa873346040518163ffffffff1660e01b8152600401602060405180830381865afa158015612d81573d6000803e3d6000fd5b505050506040513d601f19601f82011682018060405250810190612da59190614c49565b9050801580612db357508042105b612ded5760405162461bcd60e51b815260206004820152600b60248201526a19d85b594818db1bdcd95960aa1b60448201526064016107ed565b600054604051631b0b969d60e01b8152336004820152620100009091046001600160a01b031690631b0b969d90602401602060405180830381865afa158015612e3a573d6000803e3d6000fd5b505050506040513d601f19601f82011682018060405250810190612e5e9190614cc1565b80612e815750612e6c6111b3565b6001600160a01b0316336001600160a01b0316145b80612f1e57506000612e916111b3565b6001600160a01b031663ebbe8034612eb56000805160206150528339815191525490565b6040516001600160e01b031960e084901b1681526004810191909152336024820152604401602060405180830381865afa158015612ef7573d6000803e3d6000fd5b505050506040513d601f19601f82011682018060405250810190612f1b9190614c49565b14155b612f3a5760405162461bcd60e51b81526004016107ed90614ce3565b612f42610f07565b600754612f4d61400b565b1015612f8f5760405162461bcd60e51b8152602060048201526011602482015270616c726561647920757067726164696e6760781b60448201526064016107ed565b6000612f9961246b565b90506000612fa682611f12565b60408051808201909152600481526315d3d3d160e21b60208201529091506001600160a01b0385166130ad57612fda6129b5565b6001600160a01b03166304f86f3c826040518263ffffffff1660e01b81526004016130059190614874565b602060405180830381865afa158015613022573d6000803e3d6000fd5b505050506040513d601f19601f820116820180604052508101906130469190614d25565b60405163079cc67960e41b8152336004820152602481018490526001600160a01b0391909116906379cc679090604401600060405180830381600087803b15801561309057600080fd5b505af11580156130a4573d6000803e3d6000fd5b505050506131f3565b60006130b76129b5565b6001600160a01b03166304f86f3c836040518263ffffffff1660e01b81526004016130e29190614874565b602060405180830381865afa1580156130ff573d6000803e3d6000fd5b505050506040513d601f19601f820116820180604052508101906131239190614d25565b60405163dd8aaa4f60e01b81526001600160a01b038881166004830152336024830152604482018690529192509082169063dd8aaa4f90606401600060405180830381600087803b15801561317757600080fd5b505af115801561318b573d6000803e3d6000fd5b505060405163079cc67960e41b81526001600160a01b03898116600483015260248201879052841692506379cc67909150604401600060405180830381600087803b1580156131d957600080fd5b505af11580156131ed573d6000803e3d6000fd5b50505050505b600060029054906101000a90046001600160a01b03166001600160a01b03166341c525536040518163ffffffff1660e01b8152600401602060405180830381865afa158015613246573d6000803e3d6000fd5b505050506040513d601f19601f8201168201806040525081019061326a9190614d25565b600054604051636e08f72160e01b81526001600160a01b0392831692636e08f721926132a792620100009091049091169085908790600401614d42565b600060405180830381600087803b1580156132c157600080fd5b505af11580156132d5573d6000803e3d6000fd5b505050506132e2836106b7565b6132ec9042614d74565b60075560006132fc846001614d74565b905060018060000160008282546133139190614d74565b909155506000905061332485613c2a565b61332d83613c2a565b6133379190614d87565b905080600180016000828254610d569190614d74565b60006133576111b3565b6001600160a01b0316637aa873346040518163ffffffff1660e01b8152600401602060405180830381865afa158015613394573d6000803e3d6000fd5b505050506040513d601f19601f820116820180604052508101906133b89190614c49565b90508015806133c657508042105b6134005760405162461bcd60e51b815260206004820152600b60248201526a19d85b594818db1bdcd95960aa1b60448201526064016107ed565b6134086111b3565b6001600160a01b0316336001600160a01b031614806134b95750600061342c6111b3565b6001600160a01b031663ebbe80346134506000805160206150528339815191525490565b6040516001600160e01b031960e084901b1681526004810191909152336024820152604401602060405180830381865afa158015613492573d6000803e3d6000fd5b505050506040513d601f19601f820116820180604052508101906134b69190614c49565b14155b6134f35760405162461bcd60e51b815260206004820152601b602482015260008051602061503283398151915260448201526064016107ed565b60006134fd6129b5565b6001600160a01b03166304f86f3c61352060408051602081019091526000815290565b6040518263ffffffff1660e01b815260040161353c9190614874565b602060405180830381865afa158015613559573d6000803e3d6000fd5b505050506040513d601f19601f8201168201806040525081019061357d9190614d25565b604051630852cd8d60e31b8152600481018590529091506001600160a01b038216906342966c6890602401600060405180830381600087803b1580156135c257600080fd5b505af11580156135d6573d6000803e3d6000fd5b50505050505050565b60006135e96129b5565b6001600160a01b031663cabb62f06040518163ffffffff1660e01b8152600401602060405180830381865afa158015613626573d6000803e3d6000fd5b505050506040513d601f19601f8201168201806040525081019061364a9190614d25565b6040516370a0823160e01b81523060048201526001600160a01b0391909116906370a0823190602401602060405180830381865afa158015613690573d6000803e3d6000fd5b505050506040513d601f19601f82011682018060405250810190610da79190614c49565b60408051600380825260808201909252606091816020015b6136f2604051806060016040528060608152602001600081526020016000151581525090565b8152602001906001900390816136cc5750506040805160a08101909152600460608201908152631193d3d160e21b6080830152815290915060208101613743620151806729a2241af62c0000614cad565b8152602001600015158152508160008151811061376257613762614d9a565b602002602001018190525060405180606001604052806040518060400160405280600481526020016315d3d3d160e21b815250815260200162015180671bc16d674ec800006137b19190614cad565b815260200160001515815250816001815181106137d0576137d0614d9a565b60200260200101819052506040518060600160405280604051806040016040528060068152602001650908a8298a8960d31b815250815260200162015180670de0b6b3a76400006138219190614cad565b8152602001600115158152508160028151811061384057613840614d9a565b602002602001018190525090565b60008061385a836124b1565b8451602086012090915060005b8251811015613bd6578183828151811061388357613883614d9a565b6020026020010151600001518051906020012003613bc4578281815181106138ad576138ad614d9a565b60200260200101516040015115613ab45760006138cb61044761246b565b9050806000036138e2576000945050505050610738565b6000670de0b6b3a76400006138f56120f2565b6001600160a01b0316636f3426da6040518163ffffffff1660e01b8152600401602060405180830381865afa158015613932573d6000803e3d6000fd5b505050506040513d601f19601f820116820180604052508101906139569190614c49565b86858151811061396857613968614d9a565b60200260200101516020015161397e9190614c78565b6139889190614cad565b905060006139946129b5565b6001600160a01b03166304f86f3c6139b760408051602081019091526000815290565b6040518263ffffffff1660e01b81526004016139d39190614874565b602060405180830381865afa1580156139f0573d6000803e3d6000fd5b505050506040513d601f19601f82011682018060405250810190613a149190614d25565b6040516375719b0160e11b81523060048201526001600160a01b03919091169063eae3360290602401602060405180830381865afa158015613a5a573d6000803e3d6000fd5b505050506040513d601f19601f82011682018060405250810190613a7e9190614c49565b9050828110613a94579550610738945050505050565b613aa7613aa18284614d74565b8461422a565b9650505050505050610738565b828181518110613ac657613ac6614d9a565b602002602001015160200151613ada6129b5565b6001600160a01b03166304f86f3c886040518263ffffffff1660e01b8152600401613b059190614874565b602060405180830381865afa158015613b22573d6000803e3d6000fd5b505050506040513d601f19601f82011682018060405250810190613b469190614d25565b6040516375719b0160e11b81523060048201526001600160a01b03919091169063eae3360290602401602060405180830381865afa158015613b8c573d6000803e3d6000fd5b505050506040513d601f19601f82011682018060405250810190613bb09190614c49565b613bba9190614d87565b9350505050610738565b80613bce81614db0565b915050613867565b50600095945050505050565b60405162461bcd60e51b815260206004820152601d60248201527f7265736574446973747269627574696f6e2069732064697361626c656400000060448201526064016107ed565b6000600581613c398285614cad565b90506000613c478383614c78565b613c519086614d87565b9050600083600284613c64816001614d74565b613c6e9190614c78565b613c789190614cad565b613c829190614c78565b90506000613c91846001614d74565b613c9b9084614c78565b613ca59083614d74565b979650505050505050565b600080613d2a600360020154613cc46120f2565b6001600160a01b0316637a893af56040518163ffffffff1660e01b8152600401602060405180830381865afa158015613d01573d6000803e3d6000fd5b505050506040513d601f19601f82011682018060405250810190613d259190614c49565b61422a565b90506000613d366111e6565b905073__$b96f6cc754b665f2373f69c32648f7914e$__63eefe4284670de0b6b3a7640000613d658585614c78565b613d6f9190614cad565b6040516001600160e01b031960e084901b1681526004810191909152670de0b6b3a76400006024820152604401602060405180830381865af4158015613db9573d6000803e3d6000fd5b505050506040513d601f19601f82011682018060405250810190613ddd9190614c49565b9250505090565b6000613dee6111b3565b6001600160a01b0316637aa873346040518163ffffffff1660e01b8152600401602060405180830381865afa158015613e2b573d6000803e3d6000fd5b505050506040513d601f19601f82011682018060405250810190613e4f9190614c49565b9050801580613e5d57508042105b613e975760405162461bcd60e51b815260206004820152600b60248201526a19d85b594818db1bdcd95960aa1b60448201526064016107ed565b600054604051631b0b969d60e01b8152336004820152620100009091046001600160a01b031690631b0b969d90602401602060405180830381865afa158015613ee4573d6000803e3d6000fd5b505050506040513d601f19601f82011682018060405250810190613f089190614cc1565b80613f2b5750613f166111b3565b6001600160a01b0316336001600160a01b0316145b80613fc857506000613f3b6111b3565b6001600160a01b031663ebbe8034613f5f6000805160206150528339815191525490565b6040516001600160e01b031960e084901b1681526004810191909152336024820152604401602060405180830381865afa158015613fa1573d6000803e3d6000fd5b505050506040513d601f19601f82011682018060405250810190613fc59190614c49565b14155b613fe45760405162461bcd60e51b81526004016107ed90614ce3565b8615613ff457613ff48888614466565b6140018585888686614544565b5050505050505050565b6000806140166111b3565b6001600160a01b0316637aa873346040518163ffffffff1660e01b8152600401602060405180830381865afa158015614053573d6000803e3d6000fd5b505050506040513d601f19601f820116820180604052508101906140779190614c49565b905080600003614088574291505090565b614092428261422a565b91505090565b6000806140a36136b4565b905060001960005b8251811015611afa578281815181106140c6576140c6614d9a565b6020026020010151604001516142185760006140e06129b5565b6001600160a01b03166304f86f3c85848151811061410057614100614d9a565b6020026020010151600001516040518263ffffffff1660e01b81526004016141289190614874565b602060405180830381865afa158015614145573d6000803e3d6000fd5b505050506040513d601f19601f820116820180604052508101906141699190614d25565b6040516375719b0160e11b81523060048201526001600160a01b03919091169063eae3360290602401602060405180830381865afa1580156141af573d6000803e3d6000fd5b505050506040513d601f19601f820116820180604052508101906141d39190614c49565b9050806000036141e857600094505050505090565b6142148483815181106141fd576141fd614d9a565b60200260200101516020015182613aa19190614cad565b9250505b8061422281614db0565b9150506140ab565b6000818310614239578161423b565b825b9392505050565b60008061424d610d9d565b9050670de0b6b3a76400006142606120f2565b6001600160a01b031663781e0efe6040518163ffffffff1660e01b8152600401602060405180830381865afa15801561429d573d6000803e3d6000fd5b505050506040513d601f19601f820116820180604052508101906142c19190614c49565b6142c96120f2565b6001600160a01b031663265d3f50846040518263ffffffff1660e01b81526004016142f49190614874565b602060405180830381865afa158015614311573d6000803e3d6000fd5b505050506040513d601f19601f820116820180604052508101906143359190614c49565b61433d6120f2565b6001600160a01b031663dd77e3c7856040518263ffffffff1660e01b81526004016143689190614874565b602060405180830381865afa158015614385573d6000803e3d6000fd5b505050506040513d601f19601f820116820180604052508101906143a99190614c49565b6002546143b69190614c78565b6143c09190614c78565b6143ca9190614c78565b6140929190614cad565b6000806143df613cb0565b6143e76135df565b6143f19190614d74565b90506143fb6120f2565b6001600160a01b031663781e0efe6040518163ffffffff1660e01b8152600401602060405180830381865afa158015614438573d6000803e3d6000fd5b505050506040513d601f19601f8201168201806040525081019061445c9190614c49565b6140929082614c78565b61446e6129b5565b6001600160a01b031663cabb62f06040518163ffffffff1660e01b8152600401602060405180830381865afa1580156144ab573d6000803e3d6000fd5b505050506040513d601f19601f820116820180604052508101906144cf9190614d25565b60405163a9059cbb60e01b81526001600160a01b03848116600483015260248201849052919091169063a9059cbb906044016020604051808303816000875af1158015614520573d6000803e3d6000fd5b505050506040513d601f19601f820116820180604052508101906111ae9190614cc1565b60005b848110156145de576145cc86868381811061456457614564614d9a565b90506020028101906145769190614fea565b8080601f016020809104026020016040519081016040528093929190818152602001838380828437600092019190915250889250879150869050858181106145c0576145c0614d9a565b905060200201356145e6565b806145d681614db0565b915050614547565b505050505050565b6145ee610f07565b60006145f86129b5565b6001600160a01b03166304f86f3c856040518263ffffffff1660e01b81526004016146239190614874565b602060405180830381865afa158015614640573d6000803e3d6000fd5b505050506040513d601f19601f820116820180604052508101906146649190614d25565b6040516370a0823160e01b81523060048201529091506000906001600160a01b038316906370a0823190602401602060405180830381865afa1580156146ae573d6000803e3d6000fd5b505050506040513d601f19601f820116820180604052508101906146d29190614c49565b9050806000036146e3575050505050565b808311156146ef578092505b604080516020808201909252600090528551908601207f3a2db9fe7908dcc36d81824d2338fc3f1aff49ac357dd8c4840527fba27a5b900161476057600061473861044761246b565b90506000818311156147515761474e8284614d87565b90505b8085111561475d578094505b50505b82156147d95760405163a9059cbb60e01b81526001600160a01b0385811660048301526024820185905283169063a9059cbb906044016020604051808303816000875af11580156147b5573d6000803e3d6000fd5b505050506040513d601f19601f820116820180604052508101906145de9190614cc1565b5050505050565b6000602082840312156147f257600080fd5b5035919050565b6001600160a01b038116811461480e57600080fd5b50565b60006020828403121561482357600080fd5b813561423b816147f9565b6000815180845260005b8181101561485457602081850181015186830182015201614838565b506000602082860101526020601f19601f83011685010191505092915050565b60208152600061423b602083018461482e565b60008060006060848603121561489c57600080fd5b83356148a7816147f9565b925060208401356148b7816147f9565b929592945050506040919091013590565b600080604083850312156148db57600080fd5b82356148e6816147f9565b946020939093013593505050565b60008060008060008060c0878903121561490d57600080fd5b505084359660208601359650604086013595606081013595506080810135945060a0013592509050565b600081516060845261494c606085018261482e565b9050602083015160208501526040830151151560408501528091505092915050565b6000602080830181845280855180835260408601915060408160051b870101925083870160005b828110156149c357603f198886030184526149b1858351614937565b94509285019290850190600101614995565b5092979650505050505050565b634e487b7160e01b600052604160045260246000fd5b604051601f8201601f1916810167ffffffffffffffff81118282101715614a0f57614a0f6149d0565b604052919050565b600082601f830112614a2857600080fd5b813567ffffffffffffffff811115614a4257614a426149d0565b614a55601f8201601f19166020016149e6565b818152846020838601011115614a6a57600080fd5b816020850160208301376000918101602001919091529392505050565b600060208284031215614a9957600080fd5b813567ffffffffffffffff811115614ab057600080fd5b614abc84828501614a17565b949350505050565b6000602080830181845280855180835260408601915060408160051b870101925083870160005b828110156149c357603f19888603018452614b07858351614937565b94509285019290850190600101614aeb565b60008060408385031215614b2c57600080fd5b823567ffffffffffffffff811115614b4357600080fd5b614b4f85828601614a17565b95602094909401359450505050565b60008083601f840112614b7057600080fd5b50813567ffffffffffffffff811115614b8857600080fd5b6020830191508360208260051b8501011115614ba357600080fd5b9250929050565b600080600080600080600060a0888a031215614bc557600080fd5b8735614bd0816147f9565b9650602088013595506040880135614be7816147f9565b9450606088013567ffffffffffffffff80821115614c0457600080fd5b614c108b838c01614b5e565b909650945060808a0135915080821115614c2957600080fd5b50614c368a828b01614b5e565b989b979a50959850939692959293505050565b600060208284031215614c5b57600080fd5b5051919050565b634e487b7160e01b600052601160045260246000fd5b6000816000190483118215151615614c9257614c92614c62565b500290565b634e487b7160e01b600052601260045260246000fd5b600082614cbc57614cbc614c97565b500490565b600060208284031215614cd357600080fd5b8151801515811461423b57600080fd5b60208082526022908201527f6f6e6c7952756c65724f72576f726c64417373657446726f6d53616d6545706f6040820152610c6d60f31b606082015260800190565b600060208284031215614d3757600080fd5b815161423b816147f9565b6001600160a01b0384168152606060208201526000614d64606083018561482e565b9050826040830152949350505050565b8082018082111561073857610738614c62565b8181038181111561073857610738614c62565b634e487b7160e01b600052603260045260246000fd5b600060018201614dc257614dc2614c62565b5060010190565b600181811c90821680614ddd57607f821691505b602082108103614dfd57634e487b7160e01b600052602260045260246000fd5b50919050565b60006020808385031215614e1657600080fd5b825167ffffffffffffffff80821115614e2e57600080fd5b818501915085601f830112614e4257600080fd5b815181811115614e5457614e546149d0565b8060051b9150614e658483016149e6565b8181529183018401918481019088841115614e7f57600080fd5b938501935b83851015614ea95784519250614e99836147f9565b8282529385019390850190614e84565b98975050505050505050565b606081526000614ec8606083018661482e565b6001600160a01b039490941660208301525060400152919050565b600082614ef257614ef2614c97565b500690565b600181815b80851115614f32578160001904821115614f1857614f18614c62565b80851615614f2557918102915b93841c9390800290614efc565b509250929050565b600082614f4957506001610738565b81614f5657506000610738565b8160018114614f6c5760028114614f7657614f92565b6001915050610738565b60ff841115614f8757614f87614c62565b50506001821b610738565b5060208310610133831016604e8410600b8410161715614fb5575081810a610738565b614fbf8383614ef7565b8060001904821115614fd357614fd3614c62565b029392505050565b600061423b60ff841683614f3a565b6000808335601e1984360301811261500157600080fd5b83018035915067ffffffffffffffff82111561501c57600080fd5b602001915036819003821315614ba357600080fdfe6f6e6c79576f726c64417373657446726f6d53616d6545706f636800000000006c85b93e587873fbe6712f3b438d42c2945689b262f7bd34b8ea4e3f832a89e7a2646970667358221220e7233c5ecadbc0b12a5105fe6be02b1e5e0f7d54325d1e181537fb4afba2cc9864736f6c63430008100033",
  "libraries": {
    "MathExtension": "0x4485313EDB60A1821FCC0f701175984c33D682D1"
  },
  "devdoc": {
    "kind": "dev",
    "methods": {
      "assetGroup()": {
        "details": "Reads data from proxy's storage",
        "returns": {
          "_0": "World asset group"
        }
      },
      "assetType()": {
        "details": "Reads data from proxy's storage",
        "returns": {
          "_0": "World asset type"
        }
      },
      "buildingName()": {
        "details": "Same value as #assetName",
        "returns": {
          "_0": "Building name"
        }
      },
      "burnTreasury(uint256)": {
        "details": "Can be called by world asset or building owner",
        "params": {
          "amount": "Amount of resources to burn from treasury"
        }
      },
      "calculateFortAdvancedProduction(uint256,uint256,uint256,uint256,uint256,uint256)": {
        "details": "Calculates fort advanced production"
      },
      "decreaseAdditionalWorkersCapacityMultiplier(uint256)": {
        "details": "Even though function is opened, it can be called only by world asset",
        "params": {
          "capacityAmount": "Capacity amount"
        }
      },
      "distributeToAllShareholders()": {
        "details": "Useful to get full produced resources to all shareholders"
      },
      "distributeToSingleShareholder(address)": {
        "details": "Useful to taking part of the resource from the building for single shareholder (to not pay gas for minting for all shareholders)",
        "params": {
          "holder": "Holder"
        }
      },
      "epoch()": {
        "details": "Value is dereferenced from proxy storage and world"
      },
      "epochNumber()": {
        "details": "Reads data from proxy's storage",
        "returns": {
          "_0": "Epoch number"
        }
      },
      "fixDebtAccordingToNewDistributionsAmounts(address,address,uint256)": {
        "details": "Even though function is opened, it can be called only by distributions",
        "params": {
          "amount": "Amount",
          "from": "From address",
          "to": "To address"
        }
      },
      "getAdditionalWorkersFromAdditionalWorkersCapacityMultiplier()": {
        "details": "Return value based on current advancedProduction.additionalWorkersCapacityMultiplier"
      },
      "getAdvancedUpgradeCooldownDuration(uint256)": {
        "details": "If level=1 then returned value will be duration which is taken for upgrading from 1 to 2 level",
        "params": {
          "level": "At which level calculate upgrade duration"
        },
        "returns": {
          "_0": "Upgrade cooldown duration"
        }
      },
      "getBasicUpgradeCooldownDuration(uint256)": {
        "details": "If level=1 then returned value will be duration which is taken for upgrading from 1 to 2 level",
        "params": {
          "level": "At which level calculate upgrade duration"
        },
        "returns": {
          "_0": "Upgrade cooldown duration"
        }
      },
      "getBuildingCoefficient(uint256)": {
        "details": "Used to determine max treasury amount and new production coefficients",
        "params": {
          "level": "Building level"
        },
        "returns": {
          "_0": "Building coefficient"
        }
      },
      "getBuildingLevel()": {
        "details": "Takes into an account if upgrades are finished or not",
        "returns": {
          "_0": "Current building level"
        }
      },
      "getConfig()": {
        "details": "Main config that determines which resources is produced/spend by production of this buildingInitialResourceBlock.perTick is value how much of resource is spend/produced by 1 worker in 1 second of production",
        "returns": {
          "initialResourceBlocks": "Production config for current building"
        }
      },
      "getMaxAvailableForAdvancedProductionWorkers()": {
        "details": "Difference between getMaxWorkers() and getAdditionalWorkersFromAdditionalWorkersCapacityMultiplier()"
      },
      "getMaxHealthOnLevel(uint256)": {
        "details": "Useful to determine maximum amount of health will be available at provided level",
        "params": {
          "level": "Level at which calculate maximum amount of health"
        },
        "returns": {
          "_0": "Maximum amount of health for provided level"
        }
      },
      "getMaxTreasuryByLevel(uint256)": {
        "details": "Can be used to determine maximum amount of treasury by any level",
        "params": {
          "level": "Building level",
          "maxTreasury": "Maximum amount of treasury"
        }
      },
      "getMaxWorkers()": {
        "details": "Useful to determinate maximum amount of workers",
        "returns": {
          "_0": "Maximum amount of workers"
        }
      },
      "getProducingResourceName()": {
        "details": "Return value is value from #getConfig where 'isProduced'=true",
        "returns": {
          "_0": "Name of producing resource"
        }
      },
      "getProductionResult(uint256)": {
        "details": "Useful for determination how much of all production will be burned/produced at the specific time",
        "params": {
          "timestamp": "Time at which calculate amount of resources in building. If timestamp=0 -> calculates as block.timestamp"
        },
        "returns": {
          "res": "Production resources changes at provided time"
        }
      },
      "getResourcesAmount(string,uint256)": {
        "details": "Useful for determination how much of production resource (either producing and spending) at the specific time",
        "params": {
          "resourceName": "Name of resource related to production",
          "timestamp": "Time at which calculate amount of resources in building. If timestamp=0 -> calculates as block.timestamp"
        },
        "returns": {
          "_0": "Real amount of provided resource in building related to its production at provided time"
        }
      },
      "getTreasury(uint256)": {
        "details": "Useful for determination how much treasury will be at specific time",
        "params": {
          "timestamp": "Time at which calculate amount of treasury in building. If timestamp=0 -> calculates as block.timestamp"
        },
        "returns": {
          "_0": "Treasury amount at specified time"
        }
      },
      "getUpgradePrice(uint256)": {
        "details": "Useful for determination how much upgrade will cost at any level",
        "params": {
          "level": "Level at which calculate price"
        },
        "returns": {
          "_0": "Amount of resources needed for upgrade"
        }
      },
      "getWorkers()": {
        "details": "Same as workers.balanceOf(buildingAddress)",
        "returns": {
          "_0": "Amount of workers currently sitting in this building"
        }
      },
      "increaseAdditionalWorkersCapacityMultiplier(uint256)": {
        "details": "Even though function is opened, it can be called only by world asset",
        "params": {
          "capacityAmount": "Capacity amount"
        }
      },
      "init(address)": {
        "details": "Called by factory contract which creates current instance",
        "params": {
          "settlementAddress": "Settlement address"
        }
      },
      "isResourceAcceptable(string)": {
        "details": "Return value based on #getConfig",
        "params": {
          "resourceName": "Name of resource"
        },
        "returns": {
          "_0": "Is building can accept resource"
        }
      },
      "productionResourcesChanged()": {
        "details": "Even though function is opened, it is auto-called by transfer method. Standalone calls provide 0 impact."
      },
      "registry()": {
        "details": "Value is dereferenced from world"
      },
      "removeResourcesAndWorkers(address,uint256,address,string[],uint256[])": {
        "details": "Removes resources+workers from building in single transaction",
        "params": {
          "resourceTypes": "Resource types",
          "resourcesAmounts": "Resources amounts",
          "resourcesReceiverAddress": "Resources receiver address",
          "workersAmount": "Workers amount (in 1e18 precision)",
          "workersReceiverAddress": "Workers receiver address (building or settlement)"
        }
      },
      "resetDistribution()": {
        "details": "Creates new distribution Nft and mints it to current settlement owner"
      },
      "startAdvancedUpgrade(address)": {
        "details": "Resources required for upgrade will be taken either from msg.sender or resourcesOwner (if resource.allowance allows it)If resourcesOwner == address(0) -> resources will be taken from msg.senderIf resourcesOwner != address(0) and resourcesOwner has given allowance to msg.sender >= upgradePrice -> resources will be taken from resourcesOwner",
        "params": {
          "resourcesOwner": "Resources owner"
        }
      },
      "startBasicUpgrade(address)": {
        "details": "Resources required for upgrade will be taken either from msg.sender or resourcesOwner (if resource.allowance allows it)If resourcesOwner == address(0) -> resources will be taken from msg.senderIf resourcesOwner != address(0) and resourcesOwner has given allowance to msg.sender >= upgradePrice -> resources will be taken from resourcesOwner",
        "params": {
          "resourcesOwner": "Resources owner"
        }
      },
      "stealTreasury(address,uint256)": {
        "details": "Called by siege or building owner, in either case part of resources will be burned according to #registry.getRobberyFee",
        "params": {
          "amount": "Amount of resources to steal, 'to' will get only part of specified 'amount', some percent of specified 'amount' will be burned",
          "to": "An address which will get resources"
        },
        "returns": {
          "_0": "Real amount of resources from which stealing occurred (min(amount, treasury))"
        }
      },
      "updateHealth(uint256)": {
        "details": "Even though function is opened, it can be called only by world asset",
        "params": {
          "value": "New fort health"
        }
      },
      "updateState()": {
        "details": "Updates building production minting treasury and increasing #production.readyToBeDistributed"
      },
      "world()": {
        "details": "Value is dereferenced from proxy storage"
      }
    },
    "stateVariables": {
      "health": {
        "details": "Updated when #updateHealth is called"
      }
    },
    "version": 1
  },
  "userdoc": {
    "events": {
      "DistributedToShareHolder(string,address,uint256)": {
        "notice": "Emitted when #distribute is called. When resources from production are distributed to building token holders. Will be deprecated in favor of ERC20 transfer event."
      },
      "NewDistribution(uint256,address[])": {
        "notice": "Emitted when #setDefaultDistribution is called"
      },
      "UpgradeFinish(uint256)": {
        "notice": "Emitted when #startBasicUpgrade or #startAdvancedUpgrade is called"
      }
    },
    "kind": "user",
    "methods": {
      "advancedProduction()": {
        "notice": "Advanced production"
      },
      "assetGroup()": {
        "notice": "Returns world asset group"
      },
      "assetType()": {
        "notice": "Returns world asset type"
      },
      "basicProduction()": {
        "notice": "Basic production"
      },
      "buildingName()": {
        "notice": "Returns building name"
      },
      "burnTreasury(uint256)": {
        "notice": "Burns building treasury"
      },
      "currentSettlement()": {
        "notice": "Settlement address to which this building belongs"
      },
      "decreaseAdditionalWorkersCapacityMultiplier(uint256)": {
        "notice": "Decreases additional workers capacity multiplier"
      },
      "distributeToAllShareholders()": {
        "notice": "Distributes produces resource to all shareholders"
      },
      "distributeToSingleShareholder(address)": {
        "notice": "Distributes produced resource to single shareholder"
      },
      "distributionId()": {
        "notice": "Distribution id"
      },
      "epoch()": {
        "notice": "Epoch"
      },
      "epochNumber()": {
        "notice": "Returns epoch number"
      },
      "fixDebtAccordingToNewDistributionsAmounts(address,address,uint256)": {
        "notice": "Fixes debt from shareholder whenever its share part changes"
      },
      "getAdditionalWorkersFromAdditionalWorkersCapacityMultiplier()": {
        "notice": "Calculates additional workers 'granted' from capacity multiplier"
      },
      "getAdvancedUpgradeCooldownDuration(uint256)": {
        "notice": "Calculates advanced upgrade duration for provided level"
      },
      "getBasicUpgradeCooldownDuration(uint256)": {
        "notice": "Calculates basic upgrade duration for provided level"
      },
      "getBuildingCoefficient(uint256)": {
        "notice": "Calculates building coefficient by provided level"
      },
      "getBuildingLevel()": {
        "notice": "Calculates current level"
      },
      "getConfig()": {
        "notice": "Returns production config for current building"
      },
      "getMaxAvailableForAdvancedProductionWorkers()": {
        "notice": "Calculates max available for advanced production workers"
      },
      "getMaxHealthOnLevel(uint256)": {
        "notice": "Calculates maximum amount of health for provided level"
      },
      "getMaxTreasuryByLevel(uint256)": {
        "notice": "Calculates maximum amount of treasury by provided level"
      },
      "getMaxWorkers()": {
        "notice": "Calculates maximum amount of workers"
      },
      "getProducingResourceName()": {
        "notice": "Calculates producing resource name for this building"
      },
      "getProductionResult(uint256)": {
        "notice": "Calculates production resources changes at provided time"
      },
      "getResourcesAmount(string,uint256)": {
        "notice": "Calculates real amount of provided resource in building related to its production at provided time"
      },
      "getTreasury(uint256)": {
        "notice": "Calculates treasury amount at specified time"
      },
      "getUpgradePrice(uint256)": {
        "notice": "Calculates upgrade price by provided level"
      },
      "getWorkers()": {
        "notice": "Calculates amount of workers currently sitting in this building"
      },
      "health()": {
        "notice": "Fort health"
      },
      "increaseAdditionalWorkersCapacityMultiplier(uint256)": {
        "notice": "Increases additional workers capacity multiplier"
      },
      "init(address)": {
        "notice": "Proxy initializer"
      },
      "isResourceAcceptable(string)": {
        "notice": "Calculates if building is capable to accept resource"
      },
      "producedResourceDebt(address)": {
        "notice": "Produced resource debt"
      },
      "production()": {
        "notice": "Contains current production state of the building"
      },
      "productionResourcesChanged()": {
        "notice": "Callback which recalculates production. Called when resources related to production of this building is transferred from/to this building"
      },
      "prosperity()": {
        "notice": "Buildings prosperity"
      },
      "registry()": {
        "notice": "Registry"
      },
      "removeResourcesAndWorkers(address,uint256,address,string[],uint256[])": {
        "notice": "Transfers game resources and workers from building to provided addresses"
      },
      "resetDistribution()": {
        "notice": "Resets current building distribution"
      },
      "startAdvancedUpgrade(address)": {
        "notice": "Starts advanced building upgrade"
      },
      "startBasicUpgrade(address)": {
        "notice": "Starts basic building upgrade"
      },
      "stealTreasury(address,uint256)": {
        "notice": "Steals resources from treasury"
      },
      "updateHealth(uint256)": {
        "notice": "Updates fort health"
      },
      "updateState()": {
        "notice": "Updates state of this building up to block.timestamp"
      },
      "upgradeCooldownFinishTime()": {
        "notice": "Upgrade cooldown finish time"
      },
      "world()": {
        "notice": "World"
      }
    },
    "version": 1
  },
  "storageLayout": {
    "storage": [
      {
        "astId": 119,
        "contract": "contracts/core/assets/building/impl/Fort.sol:Fort",
        "label": "_initialized",
        "offset": 0,
        "slot": "0",
        "type": "t_uint8"
      },
      {
        "astId": 122,
        "contract": "contracts/core/assets/building/impl/Fort.sol:Fort",
        "label": "_initializing",
        "offset": 1,
        "slot": "0",
        "type": "t_bool"
      },
      {
        "astId": 14705,
        "contract": "contracts/core/assets/building/impl/Fort.sol:Fort",
        "label": "currentSettlement",
        "offset": 2,
        "slot": "0",
        "type": "t_contract(ISettlement)20787"
      },
      {
        "astId": 14710,
        "contract": "contracts/core/assets/building/impl/Fort.sol:Fort",
        "label": "basicProduction",
        "offset": 0,
        "slot": "1",
        "type": "t_struct(BasicProduction)17315_storage"
      },
      {
        "astId": 14715,
        "contract": "contracts/core/assets/building/impl/Fort.sol:Fort",
        "label": "advancedProduction",
        "offset": 0,
        "slot": "3",
        "type": "t_struct(AdvancedProduction)17324_storage"
      },
      {
        "astId": 14719,
        "contract": "contracts/core/assets/building/impl/Fort.sol:Fort",
        "label": "upgradeCooldownFinishTime",
        "offset": 0,
        "slot": "7",
        "type": "t_uint256"
      },
      {
        "astId": 14723,
        "contract": "contracts/core/assets/building/impl/Fort.sol:Fort",
        "label": "prosperity",
        "offset": 0,
        "slot": "8",
        "type": "t_uint256"
      },
      {
        "astId": 14728,
        "contract": "contracts/core/assets/building/impl/Fort.sol:Fort",
        "label": "production",
        "offset": 0,
        "slot": "9",
        "type": "t_struct(Production)17331_storage"
      },
      {
        "astId": 14732,
        "contract": "contracts/core/assets/building/impl/Fort.sol:Fort",
        "label": "distributionId",
        "offset": 0,
        "slot": "12",
        "type": "t_uint256"
      },
      {
        "astId": 14738,
        "contract": "contracts/core/assets/building/impl/Fort.sol:Fort",
        "label": "producedResourceDebt",
        "offset": 0,
        "slot": "13",
        "type": "t_mapping(t_address,t_uint256)"
      },
      {
        "astId": 17734,
        "contract": "contracts/core/assets/building/impl/Fort.sol:Fort",
        "label": "health",
        "offset": 0,
        "slot": "14",
        "type": "t_uint256"
      }
    ],
    "types": {
      "t_address": {
        "encoding": "inplace",
        "label": "address",
        "numberOfBytes": "20"
      },
      "t_bool": {
        "encoding": "inplace",
        "label": "bool",
        "numberOfBytes": "1"
      },
      "t_contract(ISettlement)20787": {
        "encoding": "inplace",
        "label": "contract ISettlement",
        "numberOfBytes": "20"
      },
      "t_mapping(t_address,t_uint256)": {
        "encoding": "mapping",
        "key": "t_address",
        "label": "mapping(address => uint256)",
        "numberOfBytes": "32",
        "value": "t_uint256"
      },
      "t_struct(AdvancedProduction)17324_storage": {
        "encoding": "inplace",
        "label": "struct IBuilding.AdvancedProduction",
        "members": [
          {
            "astId": 17317,
            "contract": "contracts/core/assets/building/impl/Fort.sol:Fort",
            "label": "level",
            "offset": 0,
            "slot": "0",
            "type": "t_uint256"
          },
          {
            "astId": 17319,
            "contract": "contracts/core/assets/building/impl/Fort.sol:Fort",
            "label": "coefficient",
            "offset": 0,
            "slot": "1",
            "type": "t_uint256"
          },
          {
            "astId": 17321,
            "contract": "contracts/core/assets/building/impl/Fort.sol:Fort",
            "label": "additionalWorkersCapacityMultiplier",
            "offset": 0,
            "slot": "2",
            "type": "t_uint256"
          },
          {
            "astId": 17323,
            "contract": "contracts/core/assets/building/impl/Fort.sol:Fort",
            "label": "toBeProducedTicks",
            "offset": 0,
            "slot": "3",
            "type": "t_uint256"
          }
        ],
        "numberOfBytes": "128"
      },
      "t_struct(BasicProduction)17315_storage": {
        "encoding": "inplace",
        "label": "struct IBuilding.BasicProduction",
        "members": [
          {
            "astId": 17312,
            "contract": "contracts/core/assets/building/impl/Fort.sol:Fort",
            "label": "level",
            "offset": 0,
            "slot": "0",
            "type": "t_uint256"
          },
          {
            "astId": 17314,
            "contract": "contracts/core/assets/building/impl/Fort.sol:Fort",
            "label": "coefficient",
            "offset": 0,
            "slot": "1",
            "type": "t_uint256"
          }
        ],
        "numberOfBytes": "64"
      },
      "t_struct(Production)17331_storage": {
        "encoding": "inplace",
        "label": "struct IBuilding.Production",
        "members": [
          {
            "astId": 17326,
            "contract": "contracts/core/assets/building/impl/Fort.sol:Fort",
            "label": "lastUpdateStateTime",
            "offset": 0,
            "slot": "0",
            "type": "t_uint256"
          },
          {
            "astId": 17328,
            "contract": "contracts/core/assets/building/impl/Fort.sol:Fort",
            "label": "lastUpdateStateZoneTime",
            "offset": 0,
            "slot": "1",
            "type": "t_uint256"
          },
          {
            "astId": 17330,
            "contract": "contracts/core/assets/building/impl/Fort.sol:Fort",
            "label": "readyToBeDistributed",
            "offset": 0,
            "slot": "2",
            "type": "t_uint256"
          }
        ],
        "numberOfBytes": "96"
      },
      "t_uint256": {
        "encoding": "inplace",
        "label": "uint256",
        "numberOfBytes": "32"
      },
      "t_uint8": {
        "encoding": "inplace",
        "label": "uint8",
        "numberOfBytes": "1"
      }
    }
  }
}