{
  "address": "0x5525739B1a50110E218c4d2F160f911973778E97",
  "abi": [
    {
      "anonymous": false,
      "inputs": [
        {
          "indexed": true,
          "internalType": "uint256",
          "name": "currentEpoch",
          "type": "uint256"
        },
        {
          "indexed": true,
          "internalType": "address",
          "name": "governorAddress",
          "type": "address"
        },
        {
          "indexed": false,
          "internalType": "bool",
          "name": "status",
          "type": "bool"
        }
      ],
      "name": "GovernorChanged",
      "type": "event"
    },
    {
      "anonymous": false,
      "inputs": [
        {
          "indexed": false,
          "internalType": "uint8",
          "name": "version",
          "type": "uint8"
        }
      ],
      "name": "Initialized",
      "type": "event"
    },
    {
      "anonymous": false,
      "inputs": [
        {
          "indexed": false,
          "internalType": "address",
          "name": "armyAddress",
          "type": "address"
        },
        {
          "indexed": false,
          "internalType": "uint32",
          "name": "position",
          "type": "uint32"
        }
      ],
      "name": "NewArmy",
      "type": "event"
    },
    {
      "anonymous": false,
      "inputs": [
        {
          "indexed": false,
          "internalType": "address",
          "name": "contractAddress",
          "type": "address"
        },
        {
          "indexed": false,
          "internalType": "string",
          "name": "scriptName",
          "type": "string"
        }
      ],
      "name": "NewBuilding",
      "type": "event"
    },
    {
      "anonymous": false,
      "inputs": [
        {
          "indexed": false,
          "internalType": "uint256",
          "name": "currentEpoch",
          "type": "uint256"
        }
      ],
      "name": "NewSettlementEpoch",
      "type": "event"
    },
    {
      "anonymous": false,
      "inputs": [
        {
          "indexed": true,
          "internalType": "address",
          "name": "siegeAddress",
          "type": "address"
        }
      ],
      "name": "SiegeCreated",
      "type": "event"
    },
    {
      "inputs": [
        {
          "internalType": "uint256",
          "name": "timestamp",
          "type": "uint256"
        }
      ],
      "name": "accumulatedCurrentProsperity",
      "outputs": [
        {
          "internalType": "int256",
          "name": "",
          "type": "int256"
        }
      ],
      "stateMutability": "view",
      "type": "function"
    },
    {
      "inputs": [
        {
          "internalType": "address",
          "name": "_governorAddress",
          "type": "address"
        }
      ],
      "name": "addGovernor",
      "outputs": [],
      "stateMutability": "nonpayable",
      "type": "function"
    },
    {
      "inputs": [],
      "name": "army",
      "outputs": [
        {
          "internalType": "contract IArmy",
          "name": "",
          "type": "address"
        }
      ],
      "stateMutability": "view",
      "type": "function"
    },
    {
      "inputs": [],
      "name": "assetGroup",
      "outputs": [
        {
          "internalType": "string",
          "name": "",
          "type": "string"
        }
      ],
      "stateMutability": "view",
      "type": "function"
    },
    {
      "inputs": [],
      "name": "assetType",
      "outputs": [
        {
          "internalType": "string",
          "name": "",
          "type": "string"
        }
      ],
      "stateMutability": "view",
      "type": "function"
    },
    {
      "inputs": [
        {
          "internalType": "address",
          "name": "resourcesOwner",
          "type": "address"
        },
        {
          "internalType": "address",
          "name": "buildingAddress",
          "type": "address"
        },
        {
          "internalType": "uint256",
          "name": "workersAmount",
          "type": "uint256"
        },
        {
          "internalType": "string[]",
          "name": "resourceTypes",
          "type": "string[]"
        },
        {
          "internalType": "uint256[]",
          "name": "resourcesAmounts",
          "type": "uint256[]"
        }
      ],
      "name": "assignResourcesAndWorkersToBuilding",
      "outputs": [],
      "stateMutability": "nonpayable",
      "type": "function"
    },
    {
      "inputs": [
        {
          "internalType": "uint32",
          "name": "position",
          "type": "uint32"
        },
        {
          "internalType": "uint256",
          "name": "prosperityStake",
          "type": "uint256"
        }
      ],
      "name": "beginTileCapture",
      "outputs": [],
      "stateMutability": "nonpayable",
      "type": "function"
    },
    {
      "inputs": [
        {
          "internalType": "string",
          "name": "",
          "type": "string"
        }
      ],
      "name": "buildings",
      "outputs": [
        {
          "internalType": "contract IBuilding",
          "name": "",
          "type": "address"
        }
      ],
      "stateMutability": "view",
      "type": "function"
    },
    {
      "inputs": [
        {
          "internalType": "uint256",
          "name": "timestamp",
          "type": "uint256"
        }
      ],
      "name": "calculateCurrentHealthAndDamage",
      "outputs": [
        {
          "internalType": "uint256",
          "name": "currentHealth",
          "type": "uint256"
        },
        {
          "internalType": "uint256",
          "name": "damage",
          "type": "uint256"
        }
      ],
      "stateMutability": "view",
      "type": "function"
    },
    {
      "inputs": [
        {
          "internalType": "uint32",
          "name": "position",
          "type": "uint32"
        }
      ],
      "name": "cancelTileCapture",
      "outputs": [],
      "stateMutability": "nonpayable",
      "type": "function"
    },
    {
      "inputs": [
        {
          "internalType": "uint32",
          "name": "position",
          "type": "uint32"
        }
      ],
      "name": "claimCapturedTile",
      "outputs": [],
      "stateMutability": "nonpayable",
      "type": "function"
    },
    {
      "inputs": [],
      "name": "createSiege",
      "outputs": [],
      "stateMutability": "nonpayable",
      "type": "function"
    },
    {
      "inputs": [],
      "name": "currentGovernorsEpoch",
      "outputs": [
        {
          "internalType": "uint256",
          "name": "",
          "type": "uint256"
        }
      ],
      "stateMutability": "view",
      "type": "function"
    },
    {
      "inputs": [],
      "name": "currentZone",
      "outputs": [
        {
          "internalType": "contract IZone",
          "name": "",
          "type": "address"
        }
      ],
      "stateMutability": "view",
      "type": "function"
    },
    {
      "inputs": [],
      "name": "epoch",
      "outputs": [
        {
          "internalType": "contract IEpoch",
          "name": "",
          "type": "address"
        }
      ],
      "stateMutability": "view",
      "type": "function"
    },
    {
      "inputs": [],
      "name": "epochNumber",
      "outputs": [
        {
          "internalType": "uint256",
          "name": "",
          "type": "uint256"
        }
      ],
      "stateMutability": "view",
      "type": "function"
    },
    {
      "inputs": [
        {
          "internalType": "uint256",
          "name": "prosperityAmount",
          "type": "uint256"
        }
      ],
      "name": "extendProsperity",
      "outputs": [],
      "stateMutability": "nonpayable",
      "type": "function"
    },
    {
      "inputs": [],
      "name": "extraProsperity",
      "outputs": [
        {
          "internalType": "uint256",
          "name": "",
          "type": "uint256"
        }
      ],
      "stateMutability": "view",
      "type": "function"
    },
    {
      "inputs": [],
      "name": "getCurrentSiegePower",
      "outputs": [
        {
          "internalType": "uint256",
          "name": "",
          "type": "uint256"
        }
      ],
      "stateMutability": "view",
      "type": "function"
    },
    {
      "inputs": [],
      "name": "getSettlementOwner",
      "outputs": [
        {
          "internalType": "address",
          "name": "",
          "type": "address"
        }
      ],
      "stateMutability": "view",
      "type": "function"
    },
    {
      "inputs": [
        {
          "internalType": "uint32",
          "name": "position",
          "type": "uint32"
        }
      ],
      "name": "giveUpCapturedTile",
      "outputs": [],
      "stateMutability": "nonpayable",
      "type": "function"
    },
    {
      "inputs": [
        {
          "internalType": "uint256",
          "name": "",
          "type": "uint256"
        },
        {
          "internalType": "address",
          "name": "",
          "type": "address"
        }
      ],
      "name": "governors",
      "outputs": [
        {
          "internalType": "bool",
          "name": "",
          "type": "bool"
        }
      ],
      "stateMutability": "view",
      "type": "function"
    },
    {
      "inputs": [
        {
          "internalType": "uint256",
          "name": "createdWithOwnerTokenId",
          "type": "uint256"
        },
        {
          "internalType": "address",
          "name": "zoneAddress",
          "type": "address"
        },
        {
          "internalType": "uint32",
          "name": "settlementPosition",
          "type": "uint32"
        }
      ],
      "name": "init",
      "outputs": [],
      "stateMutability": "nonpayable",
      "type": "function"
    },
    {
      "inputs": [
        {
          "internalType": "address",
          "name": "_address",
          "type": "address"
        }
      ],
      "name": "isRuler",
      "outputs": [
        {
          "internalType": "bool",
          "name": "",
          "type": "bool"
        }
      ],
      "stateMutability": "view",
      "type": "function"
    },
    {
      "inputs": [],
      "name": "massUpdate",
      "outputs": [],
      "stateMutability": "nonpayable",
      "type": "function"
    },
    {
      "inputs": [
        {
          "internalType": "string",
          "name": "buildingName",
          "type": "string"
        }
      ],
      "name": "newBuilding",
      "outputs": [
        {
          "internalType": "address",
          "name": "",
          "type": "address"
        }
      ],
      "stateMutability": "nonpayable",
      "type": "function"
    },
    {
      "inputs": [],
      "name": "ownerTokenId",
      "outputs": [
        {
          "internalType": "uint256",
          "name": "",
          "type": "uint256"
        }
      ],
      "stateMutability": "view",
      "type": "function"
    },
    {
      "inputs": [],
      "name": "position",
      "outputs": [
        {
          "internalType": "uint32",
          "name": "",
          "type": "uint32"
        }
      ],
      "stateMutability": "view",
      "type": "function"
    },
    {
      "inputs": [],
      "name": "registry",
      "outputs": [
        {
          "internalType": "contract IRegistry",
          "name": "",
          "type": "address"
        }
      ],
      "stateMutability": "view",
      "type": "function"
    },
    {
      "inputs": [
        {
          "internalType": "address",
          "name": "_governorAddress",
          "type": "address"
        }
      ],
      "name": "removeGovernor",
      "outputs": [],
      "stateMutability": "nonpayable",
      "type": "function"
    },
    {
      "inputs": [],
      "name": "removeGovernors",
      "outputs": [],
      "stateMutability": "nonpayable",
      "type": "function"
    },
    {
      "inputs": [],
      "name": "siege",
      "outputs": [
        {
          "internalType": "contract ISiege",
          "name": "",
          "type": "address"
        }
      ],
      "stateMutability": "view",
      "type": "function"
    },
    {
      "inputs": [
        {
          "internalType": "uint256",
          "name": "_workersToBuy",
          "type": "uint256"
        },
        {
          "internalType": "uint256",
          "name": "_maxProsperityToSell",
          "type": "uint256"
        }
      ],
      "name": "swapProsperityForExactWorkers",
      "outputs": [],
      "stateMutability": "nonpayable",
      "type": "function"
    },
    {
      "inputs": [],
      "name": "updateCurrentHealth",
      "outputs": [],
      "stateMutability": "nonpayable",
      "type": "function"
    },
    {
      "inputs": [
        {
          "internalType": "uint256",
          "name": "_healthDiff",
          "type": "uint256"
        },
        {
          "internalType": "bool",
          "name": "_isProduced",
          "type": "bool"
        }
      ],
      "name": "updateFortHealth",
      "outputs": [],
      "stateMutability": "nonpayable",
      "type": "function"
    },
    {
      "inputs": [
        {
          "internalType": "string",
          "name": "_resourceName",
          "type": "string"
        },
        {
          "internalType": "address",
          "name": "_to",
          "type": "address"
        },
        {
          "internalType": "uint256",
          "name": "_amount",
          "type": "uint256"
        }
      ],
      "name": "withdrawResources",
      "outputs": [],
      "stateMutability": "nonpayable",
      "type": "function"
    },
    {
      "inputs": [],
      "name": "world",
      "outputs": [
        {
          "internalType": "contract IWorld",
          "name": "",
          "type": "address"
        }
      ],
      "stateMutability": "view",
      "type": "function"
    }
  ],
  "transactionHash": "0x96c8df0ced20b75788ef55a1da3637167108c5b65368f7265010dca6d9e7a8d5",
  "args": [],
  "numDeployments": 1,
  "solcInputHash": "b1c7bcf5e8b291fa6a4245de9495ee46",
  "bytecode": "0x608060405234801561001057600080fd5b5061497d806100206000396000f3fe608060405234801561001057600080fd5b50600436106102275760003560e01c80638aecc34311610130578063b942d2c1116100b8578063eecdac881161007c578063eecdac88146104a8578063f10e38af146104bb578063f174d312146104ce578063f4145a83146104e1578063f61de1b4146104f657600080fd5b8063b942d2c114610443578063baff7ae714610471578063c4ff5f8114610484578063ccd371601461048c578063d1469d711461049557600080fd5b806399258aef116100ff57806399258aef146103d95780639abb3cae1461040d578063ac7c50ed14610415578063ac98f5d614610428578063b5acd4561461043b57600080fd5b80638aecc3431461038e578063900cf0cf146103b65780639254803a146103be578063966e614c146103c657600080fd5b80633133f7d9116101b35780633fe3347a116101825780633fe3347a1461034857806341c525531461035d5780635c8872071461037657806363e575b11461037e5780637b1039991461038657600080fd5b80633133f7d9146103115780633908b4ee146103195780633c4a25d0146103225780633fa95a4a1461033557600080fd5b806320284baf116101fa57806320284baf146102a157806323d2a489146102b45780632434675f146102c75780632de7e9b0146102de57806330b67baa1461030957600080fd5b806309218e911461022c57806316e8d7ff146102565780631b0b969d1461026b5780631fe11b631461028e575b600080fd5b60085461023c9063ffffffff1681565b60405163ffffffff90911681526020015b60405180910390f35b610269610264366004613ebd565b610509565b005b61027e610279366004613ef7565b61075c565b604051901515815260200161024d565b61026961029c366004613f2d565b6107b0565b6102696102af3660046140e3565b6109d6565b6102696102c23660046141e8565b610ded565b6102d060045481565b60405190815260200161024d565b6002546102f1906001600160a01b031681565b6040516001600160a01b03909116815260200161024d565b6102f16110b3565b6102696110eb565b6102d060015481565b610269610330366004613ef7565b611239565b610269610343366004614242565b611337565b6103506115b7565b60405161024d91906142ab565b6000546102f1906201000090046001600160a01b031681565b61026961166b565b6102696116e8565b6102f1611961565b6103a161039c366004614242565b6119cc565b6040805192835260208301919091520161024d565b6102f1611d8d565b610269611df6565b6102696103d43660046142be565b611f91565b6102f16103e73660046142fc565b80516020818301810180516003825292820191909301209152546001600160a01b031681565b6103506120fd565b6102d0610423366004614242565b61212e565b610269610436366004613f2d565b612851565b6102f1612a45565b61027e610451366004614339565b600560209081526000928352604080842090915290825290205460ff1681565b6102f161047f3660046142fc565b612adf565b6102d0612dc0565b6102d060075481565b6102696104a3366004614369565b612ec0565b6102696104b6366004613ef7565b6130e4565b6006546102f1906001600160a01b031681565b6102696104dc366004613f2d565b613240565b600080516020614928833981519152546102d0565b6102696105043660046143a1565b613434565b60006105136110b3565b6001600160a01b0316637aa873346040518163ffffffff1660e01b8152600401602060405180830381865afa158015610550573d6000803e3d6000fd5b505050506040513d601f19601f8201168201806040525081019061057491906143c6565b905080158061058257508042105b6105a75760405162461bcd60e51b815260040161059e906143df565b60405180910390fd5b6105b03361075c565b8061064d575060006105c06110b3565b6001600160a01b031663ebbe80346105e46000805160206149288339815191525490565b6040516001600160e01b031960e084901b1681526004810191909152336024820152604401602060405180830381865afa158015610626573d6000803e3d6000fd5b505050506040513d601f19601f8201168201806040525081019061064a91906143c6565b14155b6106695760405162461bcd60e51b815260040161059e90614404565b60008060029054906101000a90046001600160a01b03166001600160a01b0316638ee6bc116040518163ffffffff1660e01b8152600401602060405180830381865afa1580156106bd573d6000803e3d6000fd5b505050506040513d601f19601f820116820180604052508101906106e1919061443b565b6040516316e8d7ff60e01b815260048101869052602481018590526001600160a01b0391909116906316e8d7ff906044016020604051808303816000875af1158015610731573d6000803e3d6000fd5b505050506040513d601f19601f8201168201806040525081019061075591906143c6565b5050505050565b6000816001600160a01b0316610770612a45565b6001600160a01b031614806107aa575060045460009081526005602090815260408083206001600160a01b038616845290915290205460ff165b92915050565b60006107ba6110b3565b6001600160a01b0316637aa873346040518163ffffffff1660e01b8152600401602060405180830381865afa1580156107f7573d6000803e3d6000fd5b505050506040513d601f19601f8201168201806040525081019061081b91906143c6565b905080158061082957508042105b6108455760405162461bcd60e51b815260040161059e906143df565b61084e3361075c565b806108eb5750600061085e6110b3565b6001600160a01b031663ebbe80346108826000805160206149288339815191525490565b6040516001600160e01b031960e084901b1681526004810191909152336024820152604401602060405180830381865afa1580156108c4573d6000803e3d6000fd5b505050506040513d601f19601f820116820180604052508101906108e891906143c6565b14155b6109075760405162461bcd60e51b815260040161059e90614404565b61090f611d8d565b6001600160a01b0316632c4613dc6040518163ffffffff1660e01b8152600401602060405180830381865afa15801561094c573d6000803e3d6000fd5b505050506040513d601f19601f82011682018060405250810190610970919061443b565b604051637ae4fb7360e01b815263ffffffff841660048201526001600160a01b039190911690637ae4fb73906024015b600060405180830381600087803b1580156109ba57600080fd5b505af11580156109ce573d6000803e3d6000fd5b505050505050565b60006109e06110b3565b6001600160a01b0316637aa873346040518163ffffffff1660e01b8152600401602060405180830381865afa158015610a1d573d6000803e3d6000fd5b505050506040513d601f19601f82011682018060405250810190610a4191906143c6565b9050801580610a4f57508042105b610a6b5760405162461bcd60e51b815260040161059e906143df565b610a743361075c565b80610b1157506000610a846110b3565b6001600160a01b031663ebbe8034610aa86000805160206149288339815191525490565b6040516001600160e01b031960e084901b1681526004810191909152336024820152604401602060405180830381865afa158015610aea573d6000803e3d6000fd5b505050506040513d601f19601f82011682018060405250810190610b0e91906143c6565b14155b610b2d5760405162461bcd60e51b815260040161059e90614404565b8315610b3d57610b3d85856136ee565b60005b8351811015610de4576000610b53611d8d565b6001600160a01b03166304f86f3c868481518110610b7357610b73614458565b60200260200101516040518263ffffffff1660e01b8152600401610b9791906142ab565b602060405180830381865afa158015610bb4573d6000803e3d6000fd5b505050506040513d601f19601f82011682018060405250810190610bd8919061443b565b90506001600160a01b038816610c9457806001600160a01b03166323b872dd3389878681518110610c0b57610c0b614458565b60209081029190910101516040516001600160e01b031960e086901b1681526001600160a01b03938416600482015292909116602483015260448201526064016020604051808303816000875af1158015610c6a573d6000803e3d6000fd5b505050506040513d601f19601f82011682018060405250810190610c8e919061446e565b50610dd1565b806001600160a01b031663dd8aaa4f8933878681518110610cb757610cb7614458565b60209081029190910101516040516001600160e01b031960e086901b1681526001600160a01b0393841660048201529290911660248301526044820152606401600060405180830381600087803b158015610d1157600080fd5b505af1158015610d25573d6000803e3d6000fd5b50505050806001600160a01b03166323b872dd8989878681518110610d4c57610d4c614458565b60209081029190910101516040516001600160e01b031960e086901b1681526001600160a01b03938416600482015292909116602483015260448201526064016020604051808303816000875af1158015610dab573d6000803e3d6000fd5b505050506040513d601f19601f82011682018060405250810190610dcf919061446e565b505b5080610ddc816144a1565b915050610b40565b50505050505050565b6000610df76110b3565b6001600160a01b0316637aa873346040518163ffffffff1660e01b8152600401602060405180830381865afa158015610e34573d6000803e3d6000fd5b505050506040513d601f19601f82011682018060405250810190610e5891906143c6565b9050801580610e6657508042105b610e825760405162461bcd60e51b815260040161059e906143df565b610e8b3361075c565b80610f2857506000610e9b6110b3565b6001600160a01b031663ebbe8034610ebf6000805160206149288339815191525490565b6040516001600160e01b031960e084901b1681526004810191909152336024820152604401602060405180830381865afa158015610f01573d6000803e3d6000fd5b505050506040513d601f19601f82011682018060405250810190610f2591906143c6565b14155b610f445760405162461bcd60e51b815260040161059e90614404565b6000610f4e611d8d565b6001600160a01b03166304f86f3c866040518263ffffffff1660e01b8152600401610f7991906142ab565b602060405180830381865afa158015610f96573d6000803e3d6000fd5b505050506040513d601f19601f82011682018060405250810190610fba919061443b565b6040516370a0823160e01b81523060048201529091506000906001600160a01b038316906370a0823190602401602060405180830381865afa158015611004573d6000803e3d6000fd5b505050506040513d601f19601f8201168201806040525081019061102891906143c6565b9050816001600160a01b031663a9059cbb8661104487856139bc565b6040516001600160e01b031960e085901b1681526001600160a01b03909216600483015260248201526044016020604051808303816000875af115801561108f573d6000803e3d6000fd5b505050506040513d601f19601f82011682018060405250810190610de4919061446e565b60006110e67f6c85b93e587873fbe6712f3b438d42c2945689b262f7bd34b8ea4e3f832a89e6546001600160a01b031690565b905090565b6110f3612a45565b6001600160a01b0316336001600160a01b031614806111a4575060006111176110b3565b6001600160a01b031663ebbe803461113b6000805160206149288339815191525490565b6040516001600160e01b031960e084901b1681526004810191909152336024820152604401602060405180830381865afa15801561117d573d6000803e3d6000fd5b505050506040513d601f19601f820116820180604052508101906111a191906143c6565b14155b6111e75760405162461bcd60e51b81526020600482015260146024820152736f776e6572206f722073797374656d206f6e6c7960601b604482015260640161059e565b600480549060006111f7836144a1565b91905055507f725f0edcee7af6ca61ea0d6b6f14fb89a37197316ea0f307a6f46c94d94a4cce60045460405161122f91815260200190565b60405180910390a1565b611241612a45565b6001600160a01b0316336001600160a01b0316148061127c5750600454600090815260056020908152604080832033845290915290205460ff165b6112c85760405162461bcd60e51b815260206004820152601660248201527f6f6e6c79206f776e6572206f7220676f7665726e6f7200000000000000000000604482015260640161059e565b6004805460009081526005602090815260408083206001600160a01b03861680855290835292819020805460ff191660019081179091559354905193845291927fc981efa43d8e31b4b3e803e78542af2a3b030d950b4b5586d64c1e207639884391015b60405180910390a350565b60006113416110b3565b6001600160a01b0316637aa873346040518163ffffffff1660e01b8152600401602060405180830381865afa15801561137e573d6000803e3d6000fd5b505050506040513d601f19601f820116820180604052508101906113a291906143c6565b90508015806113b057508042105b6113cc5760405162461bcd60e51b815260040161059e906143df565b6113d46110b3565b6001600160a01b0316336001600160a01b03161480611485575060006113f86110b3565b6001600160a01b031663ebbe803461141c6000805160206149288339815191525490565b6040516001600160e01b031960e084901b1681526004810191909152336024820152604401602060405180830381865afa15801561145e573d6000803e3d6000fd5b505050506040513d601f19601f8201168201806040525081019061148291906143c6565b14155b6114d15760405162461bcd60e51b815260206004820152601b60248201527f6f6e6c79576f726c64417373657446726f6d53616d6545706f63680000000000604482015260640161059e565b6114d9611d8d565b6001600160a01b031663c91b95666040518163ffffffff1660e01b8152600401602060405180830381865afa158015611516573d6000803e3d6000fd5b505050506040513d601f19601f8201168201806040525081019061153a919061443b565b6040516340c10f1960e01b8152306004820152602481018490526001600160a01b0391909116906340c10f1990604401600060405180830381600087803b15801561158457600080fd5b505af1158015611598573d6000803e3d6000fd5b5050505081600760008282546115ae91906144ba565b90915550505050565b60607f6c85b93e587873fbe6712f3b438d42c2945689b262f7bd34b8ea4e3f832a89e660040180546115e8906144cd565b80601f0160208091040260200160405190810160405280929190818152602001828054611614906144cd565b80156116615780601f1061163657610100808354040283529160200191611661565b820191906000526020600020905b81548152906001019060200180831161164457829003601f168201915b5050505050905090565b604051631193d49560e21b81526003906004015b9081526040805191829003602001822054631d8557d760e01b835290516001600160a01b0390911691631d8557d791600480830192600092919082900301818387803b1580156116ce57600080fd5b505af11580156116e2573d6000803e3d6000fd5b50505050565b60006116f26110b3565b6001600160a01b0316637aa873346040518163ffffffff1660e01b8152600401602060405180830381865afa15801561172f573d6000803e3d6000fd5b505050506040513d601f19601f8201168201806040525081019061175391906143c6565b905080158061176157508042105b61177d5760405162461bcd60e51b815260040161059e906143df565b6002546001600160a01b0316156117d65760405162461bcd60e51b815260206004820152601560248201527f736965676520616c726561647920637265617465640000000000000000000000604482015260640161059e565b60006117e0611961565b6040805180820182526005815264736965676560d81b602090910152516350b345b560e01b81527f97c6863e562673ade7ccd0833cdfbe9a6f3e5b44141e7e5501350c90323ec82960048201526001600160a01b0391909116906350b345b590602401602060405180830381865afa158015611860573d6000803e3d6000fd5b505050506040513d601f19601f82011682018060405250810190611884919061443b565b90506000816001600160a01b0316633ddd5a8261189f6110b3565b60008051602061492883398151915254306040518463ffffffff1660e01b81526004016118ce93929190614501565b6020604051808303816000875af11580156118ed573d6000803e3d6000fd5b505050506040513d601f19601f82011682018060405250810190611911919061443b565b600280546001600160a01b0319166001600160a01b038316908117909155604051919250907f58b4f8ad26597f458102aedd40d93d4b024f8865cf7eef74ceb74c76892221db90600090a2505050565b600061196b6110b3565b6001600160a01b0316637b1039996040518163ffffffff1660e01b8152600401602060405180830381865afa1580156119a8573d6000803e3d6000fd5b505050506040513d601f19601f820116820180604052508101906110e6919061443b565b600080826000036119db574292505b600060036040516119f690631193d49560e21b815260040190565b908152604051908190036020018120546345f55c3f60e11b82526001600160a01b031691506000908290638beab87e90611a3890889060040190815260200190565b600060405180830381865afa158015611a55573d6000803e3d6000fd5b505050506040513d6000823e601f3d908101601f19168201604052611a7d9190810190614586565b905060008060005b8351811015611b51576040805180820190915260068152650908a8298a8960d31b60209091015283517f88ad4e672f8c8ca6cce86b10b118764bf098c06bb02cd6691dfb6641799afaa090859083908110611ae257611ae2614458565b6020026020010151600001518051906020012003611b3f57838181518110611b0c57611b0c614458565b6020026020010151602001519250838181518110611b2c57611b2c614458565b6020026020010151604001519150611b51565b80611b49816144a1565b915050611a85565b5081600003611bca57836001600160a01b0316637633a22c6040518163ffffffff1660e01b8152600401602060405180830381865afa158015611b98573d6000803e3d6000fd5b505050506040513d601f19601f82011682018060405250810190611bbc91906143c6565b976000975095505050505050565b8015611c3d5781846001600160a01b0316637633a22c6040518163ffffffff1660e01b8152600401602060405180830381865afa158015611c0f573d6000803e3d6000fd5b505050506040513d601f19601f82011682018060405250810190611c3391906143c6565b611bbc91906144ba565b81846001600160a01b0316637633a22c6040518163ffffffff1660e01b8152600401602060405180830381865afa158015611c7c573d6000803e3d6000fd5b505050506040513d601f19601f82011682018060405250810190611ca091906143c6565b10611d125781846001600160a01b0316637633a22c6040518163ffffffff1660e01b8152600401602060405180830381865afa158015611ce4573d6000803e3d6000fd5b505050506040513d601f19601f82011682018060405250810190611d0891906143c6565b611bbc919061468a565b6000846001600160a01b0316637633a22c6040518163ffffffff1660e01b8152600401602060405180830381865afa158015611d52573d6000803e3d6000fd5b505050506040513d601f19601f82011682018060405250810190611d7691906143c6565b611d80908461468a565b9550955050505050915091565b6000611d976110b3565b6001600160a01b031663c6b61e4c611dbb6000805160206149288339815191525490565b6040518263ffffffff1660e01b8152600401611dd991815260200190565b602060405180830381865afa1580156119a8573d6000803e3d6000fd5b604051634641524d60e01b81526003906004019081526040805191829003602001822054631d8557d760e01b835290516001600160a01b0390911691631d8557d791600480830192600092919082900301818387803b158015611e5857600080fd5b505af1158015611e6c573d6000803e3d6000fd5b505050506003604051611e8f90691315535091549352531360b21b8152600a0190565b9081526040805191829003602001822054631d8557d760e01b835290516001600160a01b0390911691631d8557d791600480830192600092919082900301818387803b158015611ede57600080fd5b505af1158015611ef2573d6000803e3d6000fd5b505050506003604051611f0f90634d494e4560e01b815260040190565b9081526040805191829003602001822054631d8557d760e01b835290516001600160a01b0390911691631d8557d791600480830192600092919082900301818387803b158015611f5e57600080fd5b505af1158015611f72573d6000803e3d6000fd5b50505050600360405161167f9065534d4954485960d01b815260060190565b600054610100900460ff1615808015611fb15750600054600160ff909116105b80611fcb5750303b158015611fcb575060005460ff166001145b61202e5760405162461bcd60e51b815260206004820152602e60248201527f496e697469616c697a61626c653a20636f6e747261637420697320616c72656160448201526d191e481a5b9a5d1a585b1a5e995960921b606482015260840161059e565b6000805460ff191660011790558015612051576000805461ff0019166101001790555b6000805475ffffffffffffffffffffffffffffffffffffffff00001916620100006001600160a01b0386160217905560018490556008805463ffffffff191663ffffffff84161790556120a26139d4565b6120aa613a86565b6120b2613c2e565b80156116e2576000805461ff0019169055604051600181527f7f26b83ff96e1f2b6a682f133852f6798a09c465da95921460cefb38474024989060200160405180910390a150505050565b60607f6c85b93e587873fbe6712f3b438d42c2945689b262f7bd34b8ea4e3f832a89e660030180546115e8906144cd565b60008160000361213c574291505b6000612146611961565b90506000612152611d8d565b6001600160a01b031663c91b95666040518163ffffffff1660e01b8152600401602060405180830381865afa15801561218f573d6000803e3d6000fd5b505050506040513d601f19601f820116820180604052508101906121b3919061443b565b604051633365906960e21b81523060048201526001600160a01b03919091169063cd9641a490602401602060405180830381865afa1580156121f9573d6000803e3d6000fd5b505050506040513d601f19601f8201168201806040525081019061221d91906143c6565b60075460408051691315535091549352531360b21b81526003600a8201819052915190819003602a01812054634d494e4560e01b825293945091926001600160a01b03169160009190600401908152604051908190036020018120546001600160a01b031691506000906003906122a09065534d4954485960d01b815260060190565b908152604080519182900360209081018320546310a8b78b60e31b845291516001600160a01b0392831694509186169263e91bde76928492638545bc5892600480820193918290030181865afa1580156122fe573d6000803e3d6000fd5b505050506040513d601f19601f8201168201806040525081019061232291906143c6565b6040518263ffffffff1660e01b815260040161234091815260200190565b602060405180830381865afa15801561235d573d6000803e3d6000fd5b505050506040513d601f19601f8201168201806040525081019061238191906143c6565b6040516377641f0760e01b81526001600160a01b038816906377641f07906123c49060040160208082526004908201526315d3d3d160e21b604082015260600190565b602060405180830381865afa1580156123e1573d6000803e3d6000fd5b505050506040513d601f19601f8201168201806040525081019061240591906143c6565b6040516302b734a560e61b8152600481018b90526001600160a01b0386169063adcd294090602401602060405180830381865afa15801561244a573d6000803e3d6000fd5b505050506040513d601f19601f8201168201806040525081019061246e91906143c6565b612478919061469d565b61248291906146bc565b61248c90856144ba565b9350816001600160a01b031663e91bde76836001600160a01b0316638545bc586040518163ffffffff1660e01b8152600401602060405180830381865afa1580156124db573d6000803e3d6000fd5b505050506040513d601f19601f820116820180604052508101906124ff91906143c6565b6040518263ffffffff1660e01b815260040161251d91815260200190565b602060405180830381865afa15801561253a573d6000803e3d6000fd5b505050506040513d601f19601f8201168201806040525081019061255e91906143c6565b6040516377641f0760e01b81526020600482015260036024820152624f524560e81b60448201526001600160a01b038816906377641f0790606401602060405180830381865afa1580156125b6573d6000803e3d6000fd5b505050506040513d601f19601f820116820180604052508101906125da91906143c6565b6040516302b734a560e61b8152600481018b90526001600160a01b0385169063adcd294090602401602060405180830381865afa15801561261f573d6000803e3d6000fd5b505050506040513d601f19601f8201168201806040525081019061264391906143c6565b61264d919061469d565b61265791906146bc565b61266190856144ba565b9350806001600160a01b031663e91bde76826001600160a01b0316638545bc586040518163ffffffff1660e01b8152600401602060405180830381865afa1580156126b0573d6000803e3d6000fd5b505050506040513d601f19601f820116820180604052508101906126d491906143c6565b6040518263ffffffff1660e01b81526004016126f291815260200190565b602060405180830381865afa15801561270f573d6000803e3d6000fd5b505050506040513d601f19601f8201168201806040525081019061273391906143c6565b6040516377641f0760e01b81526020600482015260066024820152652ba2a0a827a760d11b60448201526001600160a01b038816906377641f0790606401602060405180830381865afa15801561278e573d6000803e3d6000fd5b505050506040513d601f19601f820116820180604052508101906127b291906143c6565b6040516302b734a560e61b8152600481018b90526001600160a01b0384169063adcd294090602401602060405180830381865afa1580156127f7573d6000803e3d6000fd5b505050506040513d601f19601f8201168201806040525081019061281b91906143c6565b612825919061469d565b61282f91906146bc565b61283990856144ba565b935061284585856146de565b98975050505050505050565b600061285b6110b3565b6001600160a01b0316637aa873346040518163ffffffff1660e01b8152600401602060405180830381865afa158015612898573d6000803e3d6000fd5b505050506040513d601f19601f820116820180604052508101906128bc91906143c6565b90508015806128ca57508042105b6128e65760405162461bcd60e51b815260040161059e906143df565b6128ef3361075c565b8061298c575060006128ff6110b3565b6001600160a01b031663ebbe80346129236000805160206149288339815191525490565b6040516001600160e01b031960e084901b1681526004810191909152336024820152604401602060405180830381865afa158015612965573d6000803e3d6000fd5b505050506040513d601f19601f8201168201806040525081019061298991906143c6565b14155b6129a85760405162461bcd60e51b815260040161059e90614404565b6129b0611d8d565b6001600160a01b0316632c4613dc6040518163ffffffff1660e01b8152600401602060405180830381865afa1580156129ed573d6000803e3d6000fd5b505050506040513d601f19601f82011682018060405250810190612a11919061443b565b6040516304ac651d60e01b815263ffffffff841660048201526001600160a01b0391909116906304ac651d906024016109a0565b6000612a4f6110b3565b6001600160a01b031663183100fa6040518163ffffffff1660e01b8152600401602060405180830381865afa158015612a8c573d6000803e3d6000fd5b505050506040513d601f19601f82011682018060405250810190612ab0919061443b565b6001600160a01b0316636352211e6001546040518263ffffffff1660e01b8152600401611dd991815260200190565b600080612aea6110b3565b6001600160a01b0316637aa873346040518163ffffffff1660e01b8152600401602060405180830381865afa158015612b27573d6000803e3d6000fd5b505050506040513d601f19601f82011682018060405250810190612b4b91906143c6565b9050801580612b5957508042105b612b755760405162461bcd60e51b815260040161059e906143df565b60006001600160a01b0316600384604051612b909190614705565b908152604051908190036020019020546001600160a01b031614612bf65760405162461bcd60e51b815260206004820152601860248201527f6275696c64696e6720616c726561647920637265617465640000000000000000604482015260640161059e565b6000612c00611961565b60408051808201825260088152676275696c64696e6760c01b602090910152516350b345b560e01b81527f010b6fd4eff8a0ca8c7925f2d29e6173e90462d56ae99e39fa817c79f402851860048201526001600160a01b0391909116906350b345b590602401602060405180830381865afa158015612c83573d6000803e3d6000fd5b505050506040513d601f19601f82011682018060405250810190612ca7919061443b565b90506000816001600160a01b0316633ddd5a82612cc26110b3565b6000805160206149288339815191525488306040518563ffffffff1660e01b8152600401612cf39493929190614721565b6020604051808303816000875af1158015612d12573d6000803e3d6000fd5b505050506040513d601f19601f82011682018060405250810190612d36919061443b565b9050600081905080600387604051612d4e9190614705565b90815260405190819003602001812080546001600160a01b03939093166001600160a01b0319909316929092179091557fe3c8a2c1a60ceee43beb7ffb4f0c738ac116879eb3713517a9ec2d03c76e2e7190612dad908490899061475e565b60405180910390a1509250505b50919050565b6002546000906001600160a01b031615612eba576002546040805163314a366960e11b815281516000936001600160a01b0316926362946cd292600480820193918290030181865afa158015612e1a573d6000803e3d6000fd5b505050506040513d601f19601f82011682018060405250810190612e3e9190614780565b509050612e49611961565b6001600160a01b031663781e0efe6040518163ffffffff1660e01b8152600401602060405180830381865afa158015612e86573d6000803e3d6000fd5b505050506040513d601f19601f82011682018060405250810190612eaa91906143c6565b612eb4908261469d565b91505090565b50600090565b6000612eca6110b3565b6001600160a01b0316637aa873346040518163ffffffff1660e01b8152600401602060405180830381865afa158015612f07573d6000803e3d6000fd5b505050506040513d601f19601f82011682018060405250810190612f2b91906143c6565b9050801580612f3957508042105b612f555760405162461bcd60e51b815260040161059e906143df565b612f5e3361075c565b80612ffb57506000612f6e6110b3565b6001600160a01b031663ebbe8034612f926000805160206149288339815191525490565b6040516001600160e01b031960e084901b1681526004810191909152336024820152604401602060405180830381865afa158015612fd4573d6000803e3d6000fd5b505050506040513d601f19601f82011682018060405250810190612ff891906143c6565b14155b6130175760405162461bcd60e51b815260040161059e90614404565b61301f611d8d565b6001600160a01b0316632c4613dc6040518163ffffffff1660e01b8152600401602060405180830381865afa15801561305c573d6000803e3d6000fd5b505050506040513d601f19601f82011682018060405250810190613080919061443b565b60405163db024dbb60e01b815263ffffffff85166004820152602481018490526001600160a01b03919091169063db024dbb90604401600060405180830381600087803b1580156130d057600080fd5b505af1158015610de4573d6000803e3d6000fd5b6130ec612a45565b6001600160a01b0316336001600160a01b0316148061319d575060006131106110b3565b6001600160a01b031663ebbe80346131346000805160206149288339815191525490565b6040516001600160e01b031960e084901b1681526004810191909152336024820152604401602060405180830381865afa158015613176573d6000803e3d6000fd5b505050506040513d601f19601f8201168201806040525081019061319a91906143c6565b14155b6131e05760405162461bcd60e51b81526020600482015260146024820152736f776e6572206f722073797374656d206f6e6c7960601b604482015260640161059e565b6004805460009081526005602090815260408083206001600160a01b038616808552908352818420805460ff1916905593549051928352917fc981efa43d8e31b4b3e803e78542af2a3b030d950b4b5586d64c1e2076398843910161132c565b600061324a6110b3565b6001600160a01b0316637aa873346040518163ffffffff1660e01b8152600401602060405180830381865afa158015613287573d6000803e3d6000fd5b505050506040513d601f19601f820116820180604052508101906132ab91906143c6565b90508015806132b957508042105b6132d55760405162461bcd60e51b815260040161059e906143df565b6132de3361075c565b8061337b575060006132ee6110b3565b6001600160a01b031663ebbe80346133126000805160206149288339815191525490565b6040516001600160e01b031960e084901b1681526004810191909152336024820152604401602060405180830381865afa158015613354573d6000803e3d6000fd5b505050506040513d601f19601f8201168201806040525081019061337891906143c6565b14155b6133975760405162461bcd60e51b815260040161059e90614404565b61339f611d8d565b6001600160a01b0316632c4613dc6040518163ffffffff1660e01b8152600401602060405180830381865afa1580156133dc573d6000803e3d6000fd5b505050506040513d601f19601f82011682018060405250810190613400919061443b565b604051637841bc0d60e11b815263ffffffff841660048201526001600160a01b03919091169063f083781a906024016109a0565b61343c6110b3565b6001600160a01b0316336001600160a01b031614806134ed575060006134606110b3565b6001600160a01b031663ebbe80346134846000805160206149288339815191525490565b6040516001600160e01b031960e084901b1681526004810191909152336024820152604401602060405180830381865afa1580156134c6573d6000803e3d6000fd5b505050506040513d601f19601f820116820180604052508101906134ea91906143c6565b14155b6135395760405162461bcd60e51b815260206004820152601b60248201527f6f6e6c79576f726c64417373657446726f6d53616d6545706f63680000000000604482015260640161059e565b6000600360405161355490631193d49560e21b815260040190565b908152602001604051809103902060009054906101000a90046001600160a01b031690506000816001600160a01b0316637633a22c6040518163ffffffff1660e01b8152600401602060405180830381865afa1580156135b8573d6000803e3d6000fd5b505050506040513d601f19601f820116820180604052508101906135dc91906143c6565b90508215613653576001600160a01b038216639976d2206135fd86846144ba565b6040518263ffffffff1660e01b815260040161361b91815260200190565b600060405180830381600087803b15801561363557600080fd5b505af1158015613649573d6000803e3d6000fd5b5050505050505050565b838110613673576001600160a01b038216639976d2206135fd868461468a565b6040516304cbb69160e51b8152600060048201526001600160a01b03831690639976d22090602401600060405180830381600087803b1580156136b557600080fd5b505af11580156136c9573d6000803e3d6000fd5b50506002546001600160a01b0316915063fd4aa87990506135fd838761468a565b5050565b6040516314188b1d60e11b815260048101829052670de0b6b3a76400006024820152734485313EDB60A1821FCC0f701175984c33D682D190632831163a90604401602060405180830381865af415801561374c573d6000803e3d6000fd5b505050506040513d601f19601f82011682018060405250810190613770919061446e565b6137bc5760405162461bcd60e51b815260206004820152601860248201527f776f726b6572732063616e206265206f6e6c792063656c6c0000000000000000604482015260640161059e565b816001600160a01b031663575bceda6040518163ffffffff1660e01b8152600401602060405180830381865afa1580156137fa573d6000803e3d6000fd5b505050506040513d601f19601f8201168201806040525081019061381e91906143c6565b81836001600160a01b031663c1499f716040518163ffffffff1660e01b8152600401602060405180830381865afa15801561385d573d6000803e3d6000fd5b505050506040513d601f19601f8201168201806040525081019061388191906143c6565b61388b91906144ba565b11156138d95760405162461bcd60e51b815260206004820152601f60248201527f736574746c656d656e742062616c616e636520657863656564206c696d697400604482015260640161059e565b6138e1611d8d565b6001600160a01b031663cabb62f06040518163ffffffff1660e01b8152600401602060405180830381865afa15801561391e573d6000803e3d6000fd5b505050506040513d601f19601f82011682018060405250810190613942919061443b565b60405163a9059cbb60e01b81526001600160a01b03848116600483015260248201849052919091169063a9059cbb906044016020604051808303816000875af1158015613993573d6000803e3d6000fd5b505050506040513d601f19601f820116820180604052508101906139b7919061446e565b505050565b60008183106139cb57816139cd565b825b9392505050565b60006139de611961565b6001600160a01b031663d9cf6a266040518163ffffffff1660e01b8152600401600060405180830381865afa158015613a1b573d6000803e3d6000fd5b505050506040513d6000823e601f3d908101601f19168201604052613a4391908101906147a4565b905060005b81518110156136ea57613a73828281518110613a6657613a66614458565b6020026020010151612adf565b5080613a7e816144a1565b915050613a48565b6000613a90611961565b60408051808201825260048082526361726d7960e01b60209092019190915290516350b345b560e01b81526001600160a01b0392909216916350b345b591613afe917f1dfa95949f0b18e5ee916f85d0296148ce2f94b82b74404d6a5d6e64ed9b8c5f910190815260200190565b602060405180830381865afa158015613b1b573d6000803e3d6000fd5b505050506040513d601f19601f82011682018060405250810190613b3f919061443b565b9050806001600160a01b0316633ddd5a82613b586110b3565b60008051602061492883398151915254306040518463ffffffff1660e01b8152600401613b8793929190614501565b6020604051808303816000875af1158015613ba6573d6000803e3d6000fd5b505050506040513d601f19601f82011682018060405250810190613bca919061443b565b600680546001600160a01b0319166001600160a01b039290921691821790556008546040805192835263ffffffff90911660208301527fec05a2dbd9fbc8c1d8c9bfb9901ea5fccc05d98119e223dc59d17e11bf1a7d5b910160405180910390a150565b6000613c38612a45565b9050613c42611d8d565b6001600160a01b031663cabb62f06040518163ffffffff1660e01b8152600401602060405180830381865afa158015613c7f573d6000803e3d6000fd5b505050506040513d601f19601f82011682018060405250810190613ca3919061443b565b6040516340c10f1960e01b8152306004820152676124fee993bc000060248201526001600160a01b0391909116906340c10f1990604401600060405180830381600087803b158015613cf457600080fd5b505af1158015613d08573d6000803e3d6000fd5b505050506000613d16611961565b6001600160a01b0316631245cbee6040518163ffffffff1660e01b8152600401600060405180830381865afa158015613d53573d6000803e3d6000fd5b505050506040513d6000823e601f3d908101601f19168201604052613d7b9190810190614848565b905060005b81518110156139b757613d91611d8d565b6001600160a01b03166304f86f3c838381518110613db157613db1614458565b6020026020010151600001516040518263ffffffff1660e01b8152600401613dd991906142ab565b602060405180830381865afa158015613df6573d6000803e3d6000fd5b505050506040513d601f19601f82011682018060405250810190613e1a919061443b565b6001600160a01b03166340c10f1984848481518110613e3b57613e3b614458565b6020026020010151602001516040518363ffffffff1660e01b8152600401613e789291906001600160a01b03929092168252602082015260400190565b600060405180830381600087803b158015613e9257600080fd5b505af1158015613ea6573d6000803e3d6000fd5b505050508080613eb5906144a1565b915050613d80565b60008060408385031215613ed057600080fd5b50508035926020909101359150565b6001600160a01b0381168114613ef457600080fd5b50565b600060208284031215613f0957600080fd5b81356139cd81613edf565b803563ffffffff81168114613f2857600080fd5b919050565b600060208284031215613f3f57600080fd5b6139cd82613f14565b634e487b7160e01b600052604160045260246000fd5b6040516060810167ffffffffffffffff81118282101715613f8157613f81613f48565b60405290565b6040805190810167ffffffffffffffff81118282101715613f8157613f81613f48565b604051601f8201601f1916810167ffffffffffffffff81118282101715613fd357613fd3613f48565b604052919050565b600067ffffffffffffffff821115613ff557613ff5613f48565b5060051b60200190565b600067ffffffffffffffff82111561401957614019613f48565b50601f01601f191660200190565b600082601f83011261403857600080fd5b813561404b61404682613fff565b613faa565b81815284602083860101111561406057600080fd5b816020850160208301376000918101602001919091529392505050565b600082601f83011261408e57600080fd5b8135602061409e61404683613fdb565b82815260059290921b840181019181810190868411156140bd57600080fd5b8286015b848110156140d857803583529183019183016140c1565b509695505050505050565b600080600080600060a086880312156140fb57600080fd5b853561410681613edf565b945060208681013561411781613edf565b945060408701359350606087013567ffffffffffffffff8082111561413b57600080fd5b818901915089601f83011261414f57600080fd5b813561415d61404682613fdb565b81815260059190911b8301840190848101908c83111561417c57600080fd5b8585015b838110156141b4578035858111156141985760008081fd5b6141a68f89838a0101614027565b845250918601918601614180565b509650505060808901359250808311156141cd57600080fd5b50506141db8882890161407d565b9150509295509295909350565b6000806000606084860312156141fd57600080fd5b833567ffffffffffffffff81111561421457600080fd5b61422086828701614027565b935050602084013561423181613edf565b929592945050506040919091013590565b60006020828403121561425457600080fd5b5035919050565b60005b8381101561427657818101518382015260200161425e565b50506000910152565b6000815180845261429781602086016020860161425b565b601f01601f19169290920160200192915050565b6020815260006139cd602083018461427f565b6000806000606084860312156142d357600080fd5b8335925060208401356142e581613edf565b91506142f360408501613f14565b90509250925092565b60006020828403121561430e57600080fd5b813567ffffffffffffffff81111561432557600080fd5b61433184828501614027565b949350505050565b6000806040838503121561434c57600080fd5b82359150602083013561435e81613edf565b809150509250929050565b6000806040838503121561437c57600080fd5b61438583613f14565b946020939093013593505050565b8015158114613ef457600080fd5b600080604083850312156143b457600080fd5b82359150602083013561435e81614393565b6000602082840312156143d857600080fd5b5051919050565b6020808252600b908201526a19d85b594818db1bdcd95960aa1b604082015260600190565b60208082526015908201527f6f6e6c7952756c65724f72576f726c6441737365740000000000000000000000604082015260600190565b60006020828403121561444d57600080fd5b81516139cd81613edf565b634e487b7160e01b600052603260045260246000fd5b60006020828403121561448057600080fd5b81516139cd81614393565b634e487b7160e01b600052601160045260246000fd5b6000600182016144b3576144b361448b565b5060010190565b808201808211156107aa576107aa61448b565b600181811c908216806144e157607f821691505b602082108103612dba57634e487b7160e01b600052602260045260246000fd5b6001600160a01b039384168152602081019290925260806040830181905260059083015264424153494360d81b60a0830152909116606082015260c00190565b600082601f83011261455257600080fd5b815161456061404682613fff565b81815284602083860101111561457557600080fd5b61433182602083016020870161425b565b6000602080838503121561459957600080fd5b825167ffffffffffffffff808211156145b157600080fd5b818501915085601f8301126145c557600080fd5b81516145d361404682613fdb565b81815260059190911b830184019084810190888311156145f257600080fd5b8585015b8381101561467d5780518581111561460e5760008081fd5b86016060818c03601f19018113156146265760008081fd5b61462e613f5e565b89830151888111156146405760008081fd5b61464e8e8c83870101614541565b8252506040838101518b830152928201519261466984614393565b8101929092525083529186019186016145f6565b5098975050505050505050565b818103818111156107aa576107aa61448b565b60008160001904831182151516156146b7576146b761448b565b500290565b6000826146d957634e487b7160e01b600052601260045260246000fd5b500490565b81810360008312801583831316838312821617156146fe576146fe61448b565b5092915050565b6000825161471781846020870161425b565b9190910192915050565b60006001600160a01b0380871683528560208401526080604084015261474a608084018661427f565b915080841660608401525095945050505050565b6001600160a01b0383168152604060208201526000614331604083018461427f565b6000806040838503121561479357600080fd5b505080516020909101519092909150565b600060208083850312156147b757600080fd5b825167ffffffffffffffff808211156147cf57600080fd5b818501915085601f8301126147e357600080fd5b81516147f161404682613fdb565b81815260059190911b8301840190848101908883111561481057600080fd5b8585015b8381101561467d5780518581111561482c5760008081fd5b61483a8b89838a0101614541565b845250918601918601614814565b6000602080838503121561485b57600080fd5b825167ffffffffffffffff8082111561487357600080fd5b818501915085601f83011261488757600080fd5b815161489561404682613fdb565b81815260059190911b830184019084810190888311156148b457600080fd5b8585015b8381101561467d578051858111156148d05760008081fd5b86016040818c03601f19018113156148e85760008081fd5b6148f0613f87565b89830151888111156149025760008081fd5b6149108e8c83870101614541565b8252509101518882015283529186019186016148b856fe6c85b93e587873fbe6712f3b438d42c2945689b262f7bd34b8ea4e3f832a89e7a264697066735822122051c27bd0865df387d1810b82850189bf7a287557a4eaa5068e08570ed7d1e8c064736f6c63430008100033",
  "deployedBytecode": "0x608060405234801561001057600080fd5b50600436106102275760003560e01c80638aecc34311610130578063b942d2c1116100b8578063eecdac881161007c578063eecdac88146104a8578063f10e38af146104bb578063f174d312146104ce578063f4145a83146104e1578063f61de1b4146104f657600080fd5b8063b942d2c114610443578063baff7ae714610471578063c4ff5f8114610484578063ccd371601461048c578063d1469d711461049557600080fd5b806399258aef116100ff57806399258aef146103d95780639abb3cae1461040d578063ac7c50ed14610415578063ac98f5d614610428578063b5acd4561461043b57600080fd5b80638aecc3431461038e578063900cf0cf146103b65780639254803a146103be578063966e614c146103c657600080fd5b80633133f7d9116101b35780633fe3347a116101825780633fe3347a1461034857806341c525531461035d5780635c8872071461037657806363e575b11461037e5780637b1039991461038657600080fd5b80633133f7d9146103115780633908b4ee146103195780633c4a25d0146103225780633fa95a4a1461033557600080fd5b806320284baf116101fa57806320284baf146102a157806323d2a489146102b45780632434675f146102c75780632de7e9b0146102de57806330b67baa1461030957600080fd5b806309218e911461022c57806316e8d7ff146102565780631b0b969d1461026b5780631fe11b631461028e575b600080fd5b60085461023c9063ffffffff1681565b60405163ffffffff90911681526020015b60405180910390f35b610269610264366004613ebd565b610509565b005b61027e610279366004613ef7565b61075c565b604051901515815260200161024d565b61026961029c366004613f2d565b6107b0565b6102696102af3660046140e3565b6109d6565b6102696102c23660046141e8565b610ded565b6102d060045481565b60405190815260200161024d565b6002546102f1906001600160a01b031681565b6040516001600160a01b03909116815260200161024d565b6102f16110b3565b6102696110eb565b6102d060015481565b610269610330366004613ef7565b611239565b610269610343366004614242565b611337565b6103506115b7565b60405161024d91906142ab565b6000546102f1906201000090046001600160a01b031681565b61026961166b565b6102696116e8565b6102f1611961565b6103a161039c366004614242565b6119cc565b6040805192835260208301919091520161024d565b6102f1611d8d565b610269611df6565b6102696103d43660046142be565b611f91565b6102f16103e73660046142fc565b80516020818301810180516003825292820191909301209152546001600160a01b031681565b6103506120fd565b6102d0610423366004614242565b61212e565b610269610436366004613f2d565b612851565b6102f1612a45565b61027e610451366004614339565b600560209081526000928352604080842090915290825290205460ff1681565b6102f161047f3660046142fc565b612adf565b6102d0612dc0565b6102d060075481565b6102696104a3366004614369565b612ec0565b6102696104b6366004613ef7565b6130e4565b6006546102f1906001600160a01b031681565b6102696104dc366004613f2d565b613240565b600080516020614928833981519152546102d0565b6102696105043660046143a1565b613434565b60006105136110b3565b6001600160a01b0316637aa873346040518163ffffffff1660e01b8152600401602060405180830381865afa158015610550573d6000803e3d6000fd5b505050506040513d601f19601f8201168201806040525081019061057491906143c6565b905080158061058257508042105b6105a75760405162461bcd60e51b815260040161059e906143df565b60405180910390fd5b6105b03361075c565b8061064d575060006105c06110b3565b6001600160a01b031663ebbe80346105e46000805160206149288339815191525490565b6040516001600160e01b031960e084901b1681526004810191909152336024820152604401602060405180830381865afa158015610626573d6000803e3d6000fd5b505050506040513d601f19601f8201168201806040525081019061064a91906143c6565b14155b6106695760405162461bcd60e51b815260040161059e90614404565b60008060029054906101000a90046001600160a01b03166001600160a01b0316638ee6bc116040518163ffffffff1660e01b8152600401602060405180830381865afa1580156106bd573d6000803e3d6000fd5b505050506040513d601f19601f820116820180604052508101906106e1919061443b565b6040516316e8d7ff60e01b815260048101869052602481018590526001600160a01b0391909116906316e8d7ff906044016020604051808303816000875af1158015610731573d6000803e3d6000fd5b505050506040513d601f19601f8201168201806040525081019061075591906143c6565b5050505050565b6000816001600160a01b0316610770612a45565b6001600160a01b031614806107aa575060045460009081526005602090815260408083206001600160a01b038616845290915290205460ff165b92915050565b60006107ba6110b3565b6001600160a01b0316637aa873346040518163ffffffff1660e01b8152600401602060405180830381865afa1580156107f7573d6000803e3d6000fd5b505050506040513d601f19601f8201168201806040525081019061081b91906143c6565b905080158061082957508042105b6108455760405162461bcd60e51b815260040161059e906143df565b61084e3361075c565b806108eb5750600061085e6110b3565b6001600160a01b031663ebbe80346108826000805160206149288339815191525490565b6040516001600160e01b031960e084901b1681526004810191909152336024820152604401602060405180830381865afa1580156108c4573d6000803e3d6000fd5b505050506040513d601f19601f820116820180604052508101906108e891906143c6565b14155b6109075760405162461bcd60e51b815260040161059e90614404565b61090f611d8d565b6001600160a01b0316632c4613dc6040518163ffffffff1660e01b8152600401602060405180830381865afa15801561094c573d6000803e3d6000fd5b505050506040513d601f19601f82011682018060405250810190610970919061443b565b604051637ae4fb7360e01b815263ffffffff841660048201526001600160a01b039190911690637ae4fb73906024015b600060405180830381600087803b1580156109ba57600080fd5b505af11580156109ce573d6000803e3d6000fd5b505050505050565b60006109e06110b3565b6001600160a01b0316637aa873346040518163ffffffff1660e01b8152600401602060405180830381865afa158015610a1d573d6000803e3d6000fd5b505050506040513d601f19601f82011682018060405250810190610a4191906143c6565b9050801580610a4f57508042105b610a6b5760405162461bcd60e51b815260040161059e906143df565b610a743361075c565b80610b1157506000610a846110b3565b6001600160a01b031663ebbe8034610aa86000805160206149288339815191525490565b6040516001600160e01b031960e084901b1681526004810191909152336024820152604401602060405180830381865afa158015610aea573d6000803e3d6000fd5b505050506040513d601f19601f82011682018060405250810190610b0e91906143c6565b14155b610b2d5760405162461bcd60e51b815260040161059e90614404565b8315610b3d57610b3d85856136ee565b60005b8351811015610de4576000610b53611d8d565b6001600160a01b03166304f86f3c868481518110610b7357610b73614458565b60200260200101516040518263ffffffff1660e01b8152600401610b9791906142ab565b602060405180830381865afa158015610bb4573d6000803e3d6000fd5b505050506040513d601f19601f82011682018060405250810190610bd8919061443b565b90506001600160a01b038816610c9457806001600160a01b03166323b872dd3389878681518110610c0b57610c0b614458565b60209081029190910101516040516001600160e01b031960e086901b1681526001600160a01b03938416600482015292909116602483015260448201526064016020604051808303816000875af1158015610c6a573d6000803e3d6000fd5b505050506040513d601f19601f82011682018060405250810190610c8e919061446e565b50610dd1565b806001600160a01b031663dd8aaa4f8933878681518110610cb757610cb7614458565b60209081029190910101516040516001600160e01b031960e086901b1681526001600160a01b0393841660048201529290911660248301526044820152606401600060405180830381600087803b158015610d1157600080fd5b505af1158015610d25573d6000803e3d6000fd5b50505050806001600160a01b03166323b872dd8989878681518110610d4c57610d4c614458565b60209081029190910101516040516001600160e01b031960e086901b1681526001600160a01b03938416600482015292909116602483015260448201526064016020604051808303816000875af1158015610dab573d6000803e3d6000fd5b505050506040513d601f19601f82011682018060405250810190610dcf919061446e565b505b5080610ddc816144a1565b915050610b40565b50505050505050565b6000610df76110b3565b6001600160a01b0316637aa873346040518163ffffffff1660e01b8152600401602060405180830381865afa158015610e34573d6000803e3d6000fd5b505050506040513d601f19601f82011682018060405250810190610e5891906143c6565b9050801580610e6657508042105b610e825760405162461bcd60e51b815260040161059e906143df565b610e8b3361075c565b80610f2857506000610e9b6110b3565b6001600160a01b031663ebbe8034610ebf6000805160206149288339815191525490565b6040516001600160e01b031960e084901b1681526004810191909152336024820152604401602060405180830381865afa158015610f01573d6000803e3d6000fd5b505050506040513d601f19601f82011682018060405250810190610f2591906143c6565b14155b610f445760405162461bcd60e51b815260040161059e90614404565b6000610f4e611d8d565b6001600160a01b03166304f86f3c866040518263ffffffff1660e01b8152600401610f7991906142ab565b602060405180830381865afa158015610f96573d6000803e3d6000fd5b505050506040513d601f19601f82011682018060405250810190610fba919061443b565b6040516370a0823160e01b81523060048201529091506000906001600160a01b038316906370a0823190602401602060405180830381865afa158015611004573d6000803e3d6000fd5b505050506040513d601f19601f8201168201806040525081019061102891906143c6565b9050816001600160a01b031663a9059cbb8661104487856139bc565b6040516001600160e01b031960e085901b1681526001600160a01b03909216600483015260248201526044016020604051808303816000875af115801561108f573d6000803e3d6000fd5b505050506040513d601f19601f82011682018060405250810190610de4919061446e565b60006110e67f6c85b93e587873fbe6712f3b438d42c2945689b262f7bd34b8ea4e3f832a89e6546001600160a01b031690565b905090565b6110f3612a45565b6001600160a01b0316336001600160a01b031614806111a4575060006111176110b3565b6001600160a01b031663ebbe803461113b6000805160206149288339815191525490565b6040516001600160e01b031960e084901b1681526004810191909152336024820152604401602060405180830381865afa15801561117d573d6000803e3d6000fd5b505050506040513d601f19601f820116820180604052508101906111a191906143c6565b14155b6111e75760405162461bcd60e51b81526020600482015260146024820152736f776e6572206f722073797374656d206f6e6c7960601b604482015260640161059e565b600480549060006111f7836144a1565b91905055507f725f0edcee7af6ca61ea0d6b6f14fb89a37197316ea0f307a6f46c94d94a4cce60045460405161122f91815260200190565b60405180910390a1565b611241612a45565b6001600160a01b0316336001600160a01b0316148061127c5750600454600090815260056020908152604080832033845290915290205460ff165b6112c85760405162461bcd60e51b815260206004820152601660248201527f6f6e6c79206f776e6572206f7220676f7665726e6f7200000000000000000000604482015260640161059e565b6004805460009081526005602090815260408083206001600160a01b03861680855290835292819020805460ff191660019081179091559354905193845291927fc981efa43d8e31b4b3e803e78542af2a3b030d950b4b5586d64c1e207639884391015b60405180910390a350565b60006113416110b3565b6001600160a01b0316637aa873346040518163ffffffff1660e01b8152600401602060405180830381865afa15801561137e573d6000803e3d6000fd5b505050506040513d601f19601f820116820180604052508101906113a291906143c6565b90508015806113b057508042105b6113cc5760405162461bcd60e51b815260040161059e906143df565b6113d46110b3565b6001600160a01b0316336001600160a01b03161480611485575060006113f86110b3565b6001600160a01b031663ebbe803461141c6000805160206149288339815191525490565b6040516001600160e01b031960e084901b1681526004810191909152336024820152604401602060405180830381865afa15801561145e573d6000803e3d6000fd5b505050506040513d601f19601f8201168201806040525081019061148291906143c6565b14155b6114d15760405162461bcd60e51b815260206004820152601b60248201527f6f6e6c79576f726c64417373657446726f6d53616d6545706f63680000000000604482015260640161059e565b6114d9611d8d565b6001600160a01b031663c91b95666040518163ffffffff1660e01b8152600401602060405180830381865afa158015611516573d6000803e3d6000fd5b505050506040513d601f19601f8201168201806040525081019061153a919061443b565b6040516340c10f1960e01b8152306004820152602481018490526001600160a01b0391909116906340c10f1990604401600060405180830381600087803b15801561158457600080fd5b505af1158015611598573d6000803e3d6000fd5b5050505081600760008282546115ae91906144ba565b90915550505050565b60607f6c85b93e587873fbe6712f3b438d42c2945689b262f7bd34b8ea4e3f832a89e660040180546115e8906144cd565b80601f0160208091040260200160405190810160405280929190818152602001828054611614906144cd565b80156116615780601f1061163657610100808354040283529160200191611661565b820191906000526020600020905b81548152906001019060200180831161164457829003601f168201915b5050505050905090565b604051631193d49560e21b81526003906004015b9081526040805191829003602001822054631d8557d760e01b835290516001600160a01b0390911691631d8557d791600480830192600092919082900301818387803b1580156116ce57600080fd5b505af11580156116e2573d6000803e3d6000fd5b50505050565b60006116f26110b3565b6001600160a01b0316637aa873346040518163ffffffff1660e01b8152600401602060405180830381865afa15801561172f573d6000803e3d6000fd5b505050506040513d601f19601f8201168201806040525081019061175391906143c6565b905080158061176157508042105b61177d5760405162461bcd60e51b815260040161059e906143df565b6002546001600160a01b0316156117d65760405162461bcd60e51b815260206004820152601560248201527f736965676520616c726561647920637265617465640000000000000000000000604482015260640161059e565b60006117e0611961565b6040805180820182526005815264736965676560d81b602090910152516350b345b560e01b81527f97c6863e562673ade7ccd0833cdfbe9a6f3e5b44141e7e5501350c90323ec82960048201526001600160a01b0391909116906350b345b590602401602060405180830381865afa158015611860573d6000803e3d6000fd5b505050506040513d601f19601f82011682018060405250810190611884919061443b565b90506000816001600160a01b0316633ddd5a8261189f6110b3565b60008051602061492883398151915254306040518463ffffffff1660e01b81526004016118ce93929190614501565b6020604051808303816000875af11580156118ed573d6000803e3d6000fd5b505050506040513d601f19601f82011682018060405250810190611911919061443b565b600280546001600160a01b0319166001600160a01b038316908117909155604051919250907f58b4f8ad26597f458102aedd40d93d4b024f8865cf7eef74ceb74c76892221db90600090a2505050565b600061196b6110b3565b6001600160a01b0316637b1039996040518163ffffffff1660e01b8152600401602060405180830381865afa1580156119a8573d6000803e3d6000fd5b505050506040513d601f19601f820116820180604052508101906110e6919061443b565b600080826000036119db574292505b600060036040516119f690631193d49560e21b815260040190565b908152604051908190036020018120546345f55c3f60e11b82526001600160a01b031691506000908290638beab87e90611a3890889060040190815260200190565b600060405180830381865afa158015611a55573d6000803e3d6000fd5b505050506040513d6000823e601f3d908101601f19168201604052611a7d9190810190614586565b905060008060005b8351811015611b51576040805180820190915260068152650908a8298a8960d31b60209091015283517f88ad4e672f8c8ca6cce86b10b118764bf098c06bb02cd6691dfb6641799afaa090859083908110611ae257611ae2614458565b6020026020010151600001518051906020012003611b3f57838181518110611b0c57611b0c614458565b6020026020010151602001519250838181518110611b2c57611b2c614458565b6020026020010151604001519150611b51565b80611b49816144a1565b915050611a85565b5081600003611bca57836001600160a01b0316637633a22c6040518163ffffffff1660e01b8152600401602060405180830381865afa158015611b98573d6000803e3d6000fd5b505050506040513d601f19601f82011682018060405250810190611bbc91906143c6565b976000975095505050505050565b8015611c3d5781846001600160a01b0316637633a22c6040518163ffffffff1660e01b8152600401602060405180830381865afa158015611c0f573d6000803e3d6000fd5b505050506040513d601f19601f82011682018060405250810190611c3391906143c6565b611bbc91906144ba565b81846001600160a01b0316637633a22c6040518163ffffffff1660e01b8152600401602060405180830381865afa158015611c7c573d6000803e3d6000fd5b505050506040513d601f19601f82011682018060405250810190611ca091906143c6565b10611d125781846001600160a01b0316637633a22c6040518163ffffffff1660e01b8152600401602060405180830381865afa158015611ce4573d6000803e3d6000fd5b505050506040513d601f19601f82011682018060405250810190611d0891906143c6565b611bbc919061468a565b6000846001600160a01b0316637633a22c6040518163ffffffff1660e01b8152600401602060405180830381865afa158015611d52573d6000803e3d6000fd5b505050506040513d601f19601f82011682018060405250810190611d7691906143c6565b611d80908461468a565b9550955050505050915091565b6000611d976110b3565b6001600160a01b031663c6b61e4c611dbb6000805160206149288339815191525490565b6040518263ffffffff1660e01b8152600401611dd991815260200190565b602060405180830381865afa1580156119a8573d6000803e3d6000fd5b604051634641524d60e01b81526003906004019081526040805191829003602001822054631d8557d760e01b835290516001600160a01b0390911691631d8557d791600480830192600092919082900301818387803b158015611e5857600080fd5b505af1158015611e6c573d6000803e3d6000fd5b505050506003604051611e8f90691315535091549352531360b21b8152600a0190565b9081526040805191829003602001822054631d8557d760e01b835290516001600160a01b0390911691631d8557d791600480830192600092919082900301818387803b158015611ede57600080fd5b505af1158015611ef2573d6000803e3d6000fd5b505050506003604051611f0f90634d494e4560e01b815260040190565b9081526040805191829003602001822054631d8557d760e01b835290516001600160a01b0390911691631d8557d791600480830192600092919082900301818387803b158015611f5e57600080fd5b505af1158015611f72573d6000803e3d6000fd5b50505050600360405161167f9065534d4954485960d01b815260060190565b600054610100900460ff1615808015611fb15750600054600160ff909116105b80611fcb5750303b158015611fcb575060005460ff166001145b61202e5760405162461bcd60e51b815260206004820152602e60248201527f496e697469616c697a61626c653a20636f6e747261637420697320616c72656160448201526d191e481a5b9a5d1a585b1a5e995960921b606482015260840161059e565b6000805460ff191660011790558015612051576000805461ff0019166101001790555b6000805475ffffffffffffffffffffffffffffffffffffffff00001916620100006001600160a01b0386160217905560018490556008805463ffffffff191663ffffffff84161790556120a26139d4565b6120aa613a86565b6120b2613c2e565b80156116e2576000805461ff0019169055604051600181527f7f26b83ff96e1f2b6a682f133852f6798a09c465da95921460cefb38474024989060200160405180910390a150505050565b60607f6c85b93e587873fbe6712f3b438d42c2945689b262f7bd34b8ea4e3f832a89e660030180546115e8906144cd565b60008160000361213c574291505b6000612146611961565b90506000612152611d8d565b6001600160a01b031663c91b95666040518163ffffffff1660e01b8152600401602060405180830381865afa15801561218f573d6000803e3d6000fd5b505050506040513d601f19601f820116820180604052508101906121b3919061443b565b604051633365906960e21b81523060048201526001600160a01b03919091169063cd9641a490602401602060405180830381865afa1580156121f9573d6000803e3d6000fd5b505050506040513d601f19601f8201168201806040525081019061221d91906143c6565b60075460408051691315535091549352531360b21b81526003600a8201819052915190819003602a01812054634d494e4560e01b825293945091926001600160a01b03169160009190600401908152604051908190036020018120546001600160a01b031691506000906003906122a09065534d4954485960d01b815260060190565b908152604080519182900360209081018320546310a8b78b60e31b845291516001600160a01b0392831694509186169263e91bde76928492638545bc5892600480820193918290030181865afa1580156122fe573d6000803e3d6000fd5b505050506040513d601f19601f8201168201806040525081019061232291906143c6565b6040518263ffffffff1660e01b815260040161234091815260200190565b602060405180830381865afa15801561235d573d6000803e3d6000fd5b505050506040513d601f19601f8201168201806040525081019061238191906143c6565b6040516377641f0760e01b81526001600160a01b038816906377641f07906123c49060040160208082526004908201526315d3d3d160e21b604082015260600190565b602060405180830381865afa1580156123e1573d6000803e3d6000fd5b505050506040513d601f19601f8201168201806040525081019061240591906143c6565b6040516302b734a560e61b8152600481018b90526001600160a01b0386169063adcd294090602401602060405180830381865afa15801561244a573d6000803e3d6000fd5b505050506040513d601f19601f8201168201806040525081019061246e91906143c6565b612478919061469d565b61248291906146bc565b61248c90856144ba565b9350816001600160a01b031663e91bde76836001600160a01b0316638545bc586040518163ffffffff1660e01b8152600401602060405180830381865afa1580156124db573d6000803e3d6000fd5b505050506040513d601f19601f820116820180604052508101906124ff91906143c6565b6040518263ffffffff1660e01b815260040161251d91815260200190565b602060405180830381865afa15801561253a573d6000803e3d6000fd5b505050506040513d601f19601f8201168201806040525081019061255e91906143c6565b6040516377641f0760e01b81526020600482015260036024820152624f524560e81b60448201526001600160a01b038816906377641f0790606401602060405180830381865afa1580156125b6573d6000803e3d6000fd5b505050506040513d601f19601f820116820180604052508101906125da91906143c6565b6040516302b734a560e61b8152600481018b90526001600160a01b0385169063adcd294090602401602060405180830381865afa15801561261f573d6000803e3d6000fd5b505050506040513d601f19601f8201168201806040525081019061264391906143c6565b61264d919061469d565b61265791906146bc565b61266190856144ba565b9350806001600160a01b031663e91bde76826001600160a01b0316638545bc586040518163ffffffff1660e01b8152600401602060405180830381865afa1580156126b0573d6000803e3d6000fd5b505050506040513d601f19601f820116820180604052508101906126d491906143c6565b6040518263ffffffff1660e01b81526004016126f291815260200190565b602060405180830381865afa15801561270f573d6000803e3d6000fd5b505050506040513d601f19601f8201168201806040525081019061273391906143c6565b6040516377641f0760e01b81526020600482015260066024820152652ba2a0a827a760d11b60448201526001600160a01b038816906377641f0790606401602060405180830381865afa15801561278e573d6000803e3d6000fd5b505050506040513d601f19601f820116820180604052508101906127b291906143c6565b6040516302b734a560e61b8152600481018b90526001600160a01b0384169063adcd294090602401602060405180830381865afa1580156127f7573d6000803e3d6000fd5b505050506040513d601f19601f8201168201806040525081019061281b91906143c6565b612825919061469d565b61282f91906146bc565b61283990856144ba565b935061284585856146de565b98975050505050505050565b600061285b6110b3565b6001600160a01b0316637aa873346040518163ffffffff1660e01b8152600401602060405180830381865afa158015612898573d6000803e3d6000fd5b505050506040513d601f19601f820116820180604052508101906128bc91906143c6565b90508015806128ca57508042105b6128e65760405162461bcd60e51b815260040161059e906143df565b6128ef3361075c565b8061298c575060006128ff6110b3565b6001600160a01b031663ebbe80346129236000805160206149288339815191525490565b6040516001600160e01b031960e084901b1681526004810191909152336024820152604401602060405180830381865afa158015612965573d6000803e3d6000fd5b505050506040513d601f19601f8201168201806040525081019061298991906143c6565b14155b6129a85760405162461bcd60e51b815260040161059e90614404565b6129b0611d8d565b6001600160a01b0316632c4613dc6040518163ffffffff1660e01b8152600401602060405180830381865afa1580156129ed573d6000803e3d6000fd5b505050506040513d601f19601f82011682018060405250810190612a11919061443b565b6040516304ac651d60e01b815263ffffffff841660048201526001600160a01b0391909116906304ac651d906024016109a0565b6000612a4f6110b3565b6001600160a01b031663183100fa6040518163ffffffff1660e01b8152600401602060405180830381865afa158015612a8c573d6000803e3d6000fd5b505050506040513d601f19601f82011682018060405250810190612ab0919061443b565b6001600160a01b0316636352211e6001546040518263ffffffff1660e01b8152600401611dd991815260200190565b600080612aea6110b3565b6001600160a01b0316637aa873346040518163ffffffff1660e01b8152600401602060405180830381865afa158015612b27573d6000803e3d6000fd5b505050506040513d601f19601f82011682018060405250810190612b4b91906143c6565b9050801580612b5957508042105b612b755760405162461bcd60e51b815260040161059e906143df565b60006001600160a01b0316600384604051612b909190614705565b908152604051908190036020019020546001600160a01b031614612bf65760405162461bcd60e51b815260206004820152601860248201527f6275696c64696e6720616c726561647920637265617465640000000000000000604482015260640161059e565b6000612c00611961565b60408051808201825260088152676275696c64696e6760c01b602090910152516350b345b560e01b81527f010b6fd4eff8a0ca8c7925f2d29e6173e90462d56ae99e39fa817c79f402851860048201526001600160a01b0391909116906350b345b590602401602060405180830381865afa158015612c83573d6000803e3d6000fd5b505050506040513d601f19601f82011682018060405250810190612ca7919061443b565b90506000816001600160a01b0316633ddd5a82612cc26110b3565b6000805160206149288339815191525488306040518563ffffffff1660e01b8152600401612cf39493929190614721565b6020604051808303816000875af1158015612d12573d6000803e3d6000fd5b505050506040513d601f19601f82011682018060405250810190612d36919061443b565b9050600081905080600387604051612d4e9190614705565b90815260405190819003602001812080546001600160a01b03939093166001600160a01b0319909316929092179091557fe3c8a2c1a60ceee43beb7ffb4f0c738ac116879eb3713517a9ec2d03c76e2e7190612dad908490899061475e565b60405180910390a1509250505b50919050565b6002546000906001600160a01b031615612eba576002546040805163314a366960e11b815281516000936001600160a01b0316926362946cd292600480820193918290030181865afa158015612e1a573d6000803e3d6000fd5b505050506040513d601f19601f82011682018060405250810190612e3e9190614780565b509050612e49611961565b6001600160a01b031663781e0efe6040518163ffffffff1660e01b8152600401602060405180830381865afa158015612e86573d6000803e3d6000fd5b505050506040513d601f19601f82011682018060405250810190612eaa91906143c6565b612eb4908261469d565b91505090565b50600090565b6000612eca6110b3565b6001600160a01b0316637aa873346040518163ffffffff1660e01b8152600401602060405180830381865afa158015612f07573d6000803e3d6000fd5b505050506040513d601f19601f82011682018060405250810190612f2b91906143c6565b9050801580612f3957508042105b612f555760405162461bcd60e51b815260040161059e906143df565b612f5e3361075c565b80612ffb57506000612f6e6110b3565b6001600160a01b031663ebbe8034612f926000805160206149288339815191525490565b6040516001600160e01b031960e084901b1681526004810191909152336024820152604401602060405180830381865afa158015612fd4573d6000803e3d6000fd5b505050506040513d601f19601f82011682018060405250810190612ff891906143c6565b14155b6130175760405162461bcd60e51b815260040161059e90614404565b61301f611d8d565b6001600160a01b0316632c4613dc6040518163ffffffff1660e01b8152600401602060405180830381865afa15801561305c573d6000803e3d6000fd5b505050506040513d601f19601f82011682018060405250810190613080919061443b565b60405163db024dbb60e01b815263ffffffff85166004820152602481018490526001600160a01b03919091169063db024dbb90604401600060405180830381600087803b1580156130d057600080fd5b505af1158015610de4573d6000803e3d6000fd5b6130ec612a45565b6001600160a01b0316336001600160a01b0316148061319d575060006131106110b3565b6001600160a01b031663ebbe80346131346000805160206149288339815191525490565b6040516001600160e01b031960e084901b1681526004810191909152336024820152604401602060405180830381865afa158015613176573d6000803e3d6000fd5b505050506040513d601f19601f8201168201806040525081019061319a91906143c6565b14155b6131e05760405162461bcd60e51b81526020600482015260146024820152736f776e6572206f722073797374656d206f6e6c7960601b604482015260640161059e565b6004805460009081526005602090815260408083206001600160a01b038616808552908352818420805460ff1916905593549051928352917fc981efa43d8e31b4b3e803e78542af2a3b030d950b4b5586d64c1e2076398843910161132c565b600061324a6110b3565b6001600160a01b0316637aa873346040518163ffffffff1660e01b8152600401602060405180830381865afa158015613287573d6000803e3d6000fd5b505050506040513d601f19601f820116820180604052508101906132ab91906143c6565b90508015806132b957508042105b6132d55760405162461bcd60e51b815260040161059e906143df565b6132de3361075c565b8061337b575060006132ee6110b3565b6001600160a01b031663ebbe80346133126000805160206149288339815191525490565b6040516001600160e01b031960e084901b1681526004810191909152336024820152604401602060405180830381865afa158015613354573d6000803e3d6000fd5b505050506040513d601f19601f8201168201806040525081019061337891906143c6565b14155b6133975760405162461bcd60e51b815260040161059e90614404565b61339f611d8d565b6001600160a01b0316632c4613dc6040518163ffffffff1660e01b8152600401602060405180830381865afa1580156133dc573d6000803e3d6000fd5b505050506040513d601f19601f82011682018060405250810190613400919061443b565b604051637841bc0d60e11b815263ffffffff841660048201526001600160a01b03919091169063f083781a906024016109a0565b61343c6110b3565b6001600160a01b0316336001600160a01b031614806134ed575060006134606110b3565b6001600160a01b031663ebbe80346134846000805160206149288339815191525490565b6040516001600160e01b031960e084901b1681526004810191909152336024820152604401602060405180830381865afa1580156134c6573d6000803e3d6000fd5b505050506040513d601f19601f820116820180604052508101906134ea91906143c6565b14155b6135395760405162461bcd60e51b815260206004820152601b60248201527f6f6e6c79576f726c64417373657446726f6d53616d6545706f63680000000000604482015260640161059e565b6000600360405161355490631193d49560e21b815260040190565b908152602001604051809103902060009054906101000a90046001600160a01b031690506000816001600160a01b0316637633a22c6040518163ffffffff1660e01b8152600401602060405180830381865afa1580156135b8573d6000803e3d6000fd5b505050506040513d601f19601f820116820180604052508101906135dc91906143c6565b90508215613653576001600160a01b038216639976d2206135fd86846144ba565b6040518263ffffffff1660e01b815260040161361b91815260200190565b600060405180830381600087803b15801561363557600080fd5b505af1158015613649573d6000803e3d6000fd5b5050505050505050565b838110613673576001600160a01b038216639976d2206135fd868461468a565b6040516304cbb69160e51b8152600060048201526001600160a01b03831690639976d22090602401600060405180830381600087803b1580156136b557600080fd5b505af11580156136c9573d6000803e3d6000fd5b50506002546001600160a01b0316915063fd4aa87990506135fd838761468a565b5050565b6040516314188b1d60e11b815260048101829052670de0b6b3a7640000602482015273__$b96f6cc754b665f2373f69c32648f7914e$__90632831163a90604401602060405180830381865af415801561374c573d6000803e3d6000fd5b505050506040513d601f19601f82011682018060405250810190613770919061446e565b6137bc5760405162461bcd60e51b815260206004820152601860248201527f776f726b6572732063616e206265206f6e6c792063656c6c0000000000000000604482015260640161059e565b816001600160a01b031663575bceda6040518163ffffffff1660e01b8152600401602060405180830381865afa1580156137fa573d6000803e3d6000fd5b505050506040513d601f19601f8201168201806040525081019061381e91906143c6565b81836001600160a01b031663c1499f716040518163ffffffff1660e01b8152600401602060405180830381865afa15801561385d573d6000803e3d6000fd5b505050506040513d601f19601f8201168201806040525081019061388191906143c6565b61388b91906144ba565b11156138d95760405162461bcd60e51b815260206004820152601f60248201527f736574746c656d656e742062616c616e636520657863656564206c696d697400604482015260640161059e565b6138e1611d8d565b6001600160a01b031663cabb62f06040518163ffffffff1660e01b8152600401602060405180830381865afa15801561391e573d6000803e3d6000fd5b505050506040513d601f19601f82011682018060405250810190613942919061443b565b60405163a9059cbb60e01b81526001600160a01b03848116600483015260248201849052919091169063a9059cbb906044016020604051808303816000875af1158015613993573d6000803e3d6000fd5b505050506040513d601f19601f820116820180604052508101906139b7919061446e565b505050565b60008183106139cb57816139cd565b825b9392505050565b60006139de611961565b6001600160a01b031663d9cf6a266040518163ffffffff1660e01b8152600401600060405180830381865afa158015613a1b573d6000803e3d6000fd5b505050506040513d6000823e601f3d908101601f19168201604052613a4391908101906147a4565b905060005b81518110156136ea57613a73828281518110613a6657613a66614458565b6020026020010151612adf565b5080613a7e816144a1565b915050613a48565b6000613a90611961565b60408051808201825260048082526361726d7960e01b60209092019190915290516350b345b560e01b81526001600160a01b0392909216916350b345b591613afe917f1dfa95949f0b18e5ee916f85d0296148ce2f94b82b74404d6a5d6e64ed9b8c5f910190815260200190565b602060405180830381865afa158015613b1b573d6000803e3d6000fd5b505050506040513d601f19601f82011682018060405250810190613b3f919061443b565b9050806001600160a01b0316633ddd5a82613b586110b3565b60008051602061492883398151915254306040518463ffffffff1660e01b8152600401613b8793929190614501565b6020604051808303816000875af1158015613ba6573d6000803e3d6000fd5b505050506040513d601f19601f82011682018060405250810190613bca919061443b565b600680546001600160a01b0319166001600160a01b039290921691821790556008546040805192835263ffffffff90911660208301527fec05a2dbd9fbc8c1d8c9bfb9901ea5fccc05d98119e223dc59d17e11bf1a7d5b910160405180910390a150565b6000613c38612a45565b9050613c42611d8d565b6001600160a01b031663cabb62f06040518163ffffffff1660e01b8152600401602060405180830381865afa158015613c7f573d6000803e3d6000fd5b505050506040513d601f19601f82011682018060405250810190613ca3919061443b565b6040516340c10f1960e01b8152306004820152676124fee993bc000060248201526001600160a01b0391909116906340c10f1990604401600060405180830381600087803b158015613cf457600080fd5b505af1158015613d08573d6000803e3d6000fd5b505050506000613d16611961565b6001600160a01b0316631245cbee6040518163ffffffff1660e01b8152600401600060405180830381865afa158015613d53573d6000803e3d6000fd5b505050506040513d6000823e601f3d908101601f19168201604052613d7b9190810190614848565b905060005b81518110156139b757613d91611d8d565b6001600160a01b03166304f86f3c838381518110613db157613db1614458565b6020026020010151600001516040518263ffffffff1660e01b8152600401613dd991906142ab565b602060405180830381865afa158015613df6573d6000803e3d6000fd5b505050506040513d601f19601f82011682018060405250810190613e1a919061443b565b6001600160a01b03166340c10f1984848481518110613e3b57613e3b614458565b6020026020010151602001516040518363ffffffff1660e01b8152600401613e789291906001600160a01b03929092168252602082015260400190565b600060405180830381600087803b158015613e9257600080fd5b505af1158015613ea6573d6000803e3d6000fd5b505050508080613eb5906144a1565b915050613d80565b60008060408385031215613ed057600080fd5b50508035926020909101359150565b6001600160a01b0381168114613ef457600080fd5b50565b600060208284031215613f0957600080fd5b81356139cd81613edf565b803563ffffffff81168114613f2857600080fd5b919050565b600060208284031215613f3f57600080fd5b6139cd82613f14565b634e487b7160e01b600052604160045260246000fd5b6040516060810167ffffffffffffffff81118282101715613f8157613f81613f48565b60405290565b6040805190810167ffffffffffffffff81118282101715613f8157613f81613f48565b604051601f8201601f1916810167ffffffffffffffff81118282101715613fd357613fd3613f48565b604052919050565b600067ffffffffffffffff821115613ff557613ff5613f48565b5060051b60200190565b600067ffffffffffffffff82111561401957614019613f48565b50601f01601f191660200190565b600082601f83011261403857600080fd5b813561404b61404682613fff565b613faa565b81815284602083860101111561406057600080fd5b816020850160208301376000918101602001919091529392505050565b600082601f83011261408e57600080fd5b8135602061409e61404683613fdb565b82815260059290921b840181019181810190868411156140bd57600080fd5b8286015b848110156140d857803583529183019183016140c1565b509695505050505050565b600080600080600060a086880312156140fb57600080fd5b853561410681613edf565b945060208681013561411781613edf565b945060408701359350606087013567ffffffffffffffff8082111561413b57600080fd5b818901915089601f83011261414f57600080fd5b813561415d61404682613fdb565b81815260059190911b8301840190848101908c83111561417c57600080fd5b8585015b838110156141b4578035858111156141985760008081fd5b6141a68f89838a0101614027565b845250918601918601614180565b509650505060808901359250808311156141cd57600080fd5b50506141db8882890161407d565b9150509295509295909350565b6000806000606084860312156141fd57600080fd5b833567ffffffffffffffff81111561421457600080fd5b61422086828701614027565b935050602084013561423181613edf565b929592945050506040919091013590565b60006020828403121561425457600080fd5b5035919050565b60005b8381101561427657818101518382015260200161425e565b50506000910152565b6000815180845261429781602086016020860161425b565b601f01601f19169290920160200192915050565b6020815260006139cd602083018461427f565b6000806000606084860312156142d357600080fd5b8335925060208401356142e581613edf565b91506142f360408501613f14565b90509250925092565b60006020828403121561430e57600080fd5b813567ffffffffffffffff81111561432557600080fd5b61433184828501614027565b949350505050565b6000806040838503121561434c57600080fd5b82359150602083013561435e81613edf565b809150509250929050565b6000806040838503121561437c57600080fd5b61438583613f14565b946020939093013593505050565b8015158114613ef457600080fd5b600080604083850312156143b457600080fd5b82359150602083013561435e81614393565b6000602082840312156143d857600080fd5b5051919050565b6020808252600b908201526a19d85b594818db1bdcd95960aa1b604082015260600190565b60208082526015908201527f6f6e6c7952756c65724f72576f726c6441737365740000000000000000000000604082015260600190565b60006020828403121561444d57600080fd5b81516139cd81613edf565b634e487b7160e01b600052603260045260246000fd5b60006020828403121561448057600080fd5b81516139cd81614393565b634e487b7160e01b600052601160045260246000fd5b6000600182016144b3576144b361448b565b5060010190565b808201808211156107aa576107aa61448b565b600181811c908216806144e157607f821691505b602082108103612dba57634e487b7160e01b600052602260045260246000fd5b6001600160a01b039384168152602081019290925260806040830181905260059083015264424153494360d81b60a0830152909116606082015260c00190565b600082601f83011261455257600080fd5b815161456061404682613fff565b81815284602083860101111561457557600080fd5b61433182602083016020870161425b565b6000602080838503121561459957600080fd5b825167ffffffffffffffff808211156145b157600080fd5b818501915085601f8301126145c557600080fd5b81516145d361404682613fdb565b81815260059190911b830184019084810190888311156145f257600080fd5b8585015b8381101561467d5780518581111561460e5760008081fd5b86016060818c03601f19018113156146265760008081fd5b61462e613f5e565b89830151888111156146405760008081fd5b61464e8e8c83870101614541565b8252506040838101518b830152928201519261466984614393565b8101929092525083529186019186016145f6565b5098975050505050505050565b818103818111156107aa576107aa61448b565b60008160001904831182151516156146b7576146b761448b565b500290565b6000826146d957634e487b7160e01b600052601260045260246000fd5b500490565b81810360008312801583831316838312821617156146fe576146fe61448b565b5092915050565b6000825161471781846020870161425b565b9190910192915050565b60006001600160a01b0380871683528560208401526080604084015261474a608084018661427f565b915080841660608401525095945050505050565b6001600160a01b0383168152604060208201526000614331604083018461427f565b6000806040838503121561479357600080fd5b505080516020909101519092909150565b600060208083850312156147b757600080fd5b825167ffffffffffffffff808211156147cf57600080fd5b818501915085601f8301126147e357600080fd5b81516147f161404682613fdb565b81815260059190911b8301840190848101908883111561481057600080fd5b8585015b8381101561467d5780518581111561482c5760008081fd5b61483a8b89838a0101614541565b845250918601918601614814565b6000602080838503121561485b57600080fd5b825167ffffffffffffffff8082111561487357600080fd5b818501915085601f83011261488757600080fd5b815161489561404682613fdb565b81815260059190911b830184019084810190888311156148b457600080fd5b8585015b8381101561467d578051858111156148d05760008081fd5b86016040818c03601f19018113156148e85760008081fd5b6148f0613f87565b89830151888111156149025760008081fd5b6149108e8c83870101614541565b8252509101518882015283529186019186016148b856fe6c85b93e587873fbe6712f3b438d42c2945689b262f7bd34b8ea4e3f832a89e7a264697066735822122051c27bd0865df387d1810b82850189bf7a287557a4eaa5068e08570ed7d1e8c064736f6c63430008100033",
  "libraries": {
    "MathExtension": "0x4485313EDB60A1821FCC0f701175984c33D682D1"
  },
  "devdoc": {
    "kind": "dev",
    "methods": {
      "accumulatedCurrentProsperity(uint256)": {
        "details": "Uses buildings productions to forecast amount of prosperity will settlement will have at specified time",
        "params": {
          "timestamp": "Time at which calculate current prosperity"
        },
        "returns": {
          "_0": "Amount of prosperity at specified time"
        }
      },
      "addGovernor(address)": {
        "details": "Settlement owner and other governor can add governor",
        "params": {
          "_governorAddress": "Address to add as the governor"
        }
      },
      "assetGroup()": {
        "details": "Reads data from proxy's storage",
        "returns": {
          "_0": "World asset group"
        }
      },
      "assetType()": {
        "details": "Reads data from proxy's storage",
        "returns": {
          "_0": "World asset type"
        }
      },
      "assignResourcesAndWorkersToBuilding(address,address,uint256,string[],uint256[])": {
        "details": "Assigns resources+workers to building in single transactionIf resourcesOwner == address(0) -> resources will be taken from msg.senderIf resourcesOwner != address(0) and resourcesOwner has given allowance to msg.sender >= resourcesAmount -> resources will be taken from resourcesOwner",
        "params": {
          "buildingAddress": "Building address",
          "resourceTypes": "Resource types",
          "resourcesAmounts": "Resources amounts",
          "workersAmount": "Workers amount (in 1e18 precision)"
        }
      },
      "beginTileCapture(uint32,uint256)": {
        "params": {
          "position": "Position",
          "prosperityStake": "Prosperity stake"
        }
      },
      "calculateCurrentHealthAndDamage(uint256)": {
        "details": "Uses fort production and siege parameters to forecast health and damage will be dealt at specified time",
        "params": {
          "timestamp": "Time at which calculate parameters"
        },
        "returns": {
          "currentHealth": "Health value at specified time",
          "damage": "Amount of damage dealt from fort.production.lastUpdateState to specified timestamp"
        }
      },
      "cancelTileCapture(uint32)": {
        "params": {
          "position": "Position"
        }
      },
      "claimCapturedTile(uint32)": {
        "params": {
          "position": "Position"
        }
      },
      "createSiege()": {
        "details": "Can be called by everyone"
      },
      "epoch()": {
        "details": "Value is dereferenced from proxy storage and world"
      },
      "epochNumber()": {
        "details": "Reads data from proxy's storage",
        "returns": {
          "_0": "Epoch number"
        }
      },
      "extendProsperity(uint256)": {
        "details": "Even though function is opened it can be called only by world or world asset",
        "params": {
          "prosperityAmount": "Amount of prosperity to which extend current prosperity"
        }
      },
      "getCurrentSiegePower()": {
        "details": "Updated when army add/remove units from siege",
        "returns": {
          "_0": "Amount of total siege power at current time"
        }
      },
      "getSettlementOwner()": {
        "details": "Settlements owner is considered an address, which holds ownerTokenId NFT",
        "returns": {
          "_0": "Settlement owner"
        }
      },
      "giveUpCapturedTile(uint32)": {
        "params": {
          "position": "Position"
        }
      },
      "init(uint256,address,uint32)": {
        "details": "Called by factory contract which creates current instance",
        "params": {
          "createdWithOwnerTokenId": "Banner token id to which current settlement belongs",
          "settlementPosition": "Position on which settlement is created",
          "zoneAddress": "Zone address to which this settlement belongs"
        }
      },
      "isRuler(address)": {
        "details": "Settlements ruler is an address which owns settlement or an address(es) by which settlement is/are governed",
        "params": {
          "potentialRuler": "Address to check"
        },
        "returns": {
          "_0": "Banner, whether specified address is ruler or not"
        }
      },
      "massUpdate()": {
        "details": "Can be used by everyone"
      },
      "newBuilding(string)": {
        "details": "All buildings are created on settlement creation",
        "params": {
          "buildingName": "Building name"
        },
        "returns": {
          "_0": "Address of created building"
        }
      },
      "registry()": {
        "details": "Value is dereferenced from world"
      },
      "removeGovernor(address)": {
        "details": "Only settlement owner can remove governor",
        "params": {
          "_governorAddress": "Address to remove from governors"
        }
      },
      "removeGovernors()": {
        "details": "Only settlement owner can remove all governors"
      },
      "swapProsperityForExactWorkers(uint256,uint256)": {
        "details": "Only ruler or world asset can perform swap",
        "params": {
          "_maxProsperityToSell": "Maximum amount of prosperity to spend for exact workers",
          "_workersToBuy": "Exact amount of workers to buy"
        }
      },
      "updateCurrentHealth()": {
        "details": "Can be called by everyone"
      },
      "updateFortHealth(uint256,bool)": {
        "details": "Even though function is opened it can be called only by world or world asset",
        "params": {
          "healthDiff": "Health delta between current value and new value",
          "isProduced": "Banner, whether health is produced or removed"
        }
      },
      "withdrawResources(string,address,uint256)": {
        "details": "In case if someone accidentally transfers game resource to the settlement",
        "params": {
          "amount": "Amount to transfer",
          "resourceName": "Game resource name",
          "to": "Address that will receive resources"
        }
      },
      "world()": {
        "details": "Value is dereferenced from proxy storage"
      }
    },
    "stateVariables": {
      "buildings": {
        "details": "Types of buildings supported can be queried from registry"
      },
      "currentGovernorsEpoch": {
        "details": "Modified when #removeGovernors is called"
      },
      "currentZone": {
        "details": "Immutable, initialized on the settlement creation"
      },
      "extraProsperity": {
        "details": "Used for determination amount of real prosperity this settlement has"
      },
      "governors": {
        "details": "Modified when #addGovernor or #removeGovernor is called"
      },
      "ownerTokenId": {
        "details": "Immutable, initialized on the settlement creation"
      },
      "position": {
        "details": "Immutable, initialized on the settlement creation"
      },
      "siege": {
        "details": "If any army is sieging settlement not address(0), otherwise address(0)"
      }
    },
    "version": 1
  },
  "userdoc": {
    "events": {
      "GovernorChanged(uint256,address,bool)": {
        "notice": "Emitted when #addGovernor or #removeGovernor is called"
      },
      "NewArmy(address,uint32)": {
        "notice": "Emitted when settlements army is created, is it created on settlement creation"
      },
      "NewBuilding(address,string)": {
        "notice": "Emitted when new building is placed, all building are placed on settlement creation"
      },
      "NewSettlementEpoch(uint256)": {
        "notice": "Emitted when #removeGovernors is called"
      },
      "SiegeCreated(address)": {
        "notice": "Emitted when siege is created on settlement if not present. During settlements lifetime multiple sieges can be created (one after another, not multiple simultaneously)"
      }
    },
    "kind": "user",
    "methods": {
      "accumulatedCurrentProsperity(uint256)": {
        "notice": "Calculates current prosperity at specified timestamp"
      },
      "addGovernor(address)": {
        "notice": "Adds settlement governor"
      },
      "army()": {
        "notice": "Settlements army Immutable, initialized on the settlement creation"
      },
      "assetGroup()": {
        "notice": "Returns world asset group"
      },
      "assetType()": {
        "notice": "Returns world asset type"
      },
      "assignResourcesAndWorkersToBuilding(address,address,uint256,string[],uint256[])": {
        "notice": "Transfers game resources from msg.sender and workers from settlement to building"
      },
      "beginTileCapture(uint32,uint256)": {
        "notice": "Begins tile capture"
      },
      "buildings(string)": {
        "notice": "Mapping containing settlements buildings"
      },
      "calculateCurrentHealthAndDamage(uint256)": {
        "notice": "Calculates current fort health and damage dealt at specified timestamp"
      },
      "cancelTileCapture(uint32)": {
        "notice": "Cancels tile capture"
      },
      "claimCapturedTile(uint32)": {
        "notice": "Claims captured tile"
      },
      "createSiege()": {
        "notice": "Creates empty siege"
      },
      "currentGovernorsEpoch()": {
        "notice": "Current governors epoch"
      },
      "currentZone()": {
        "notice": "Zone to which this settlement belongs"
      },
      "epoch()": {
        "notice": "Epoch"
      },
      "epochNumber()": {
        "notice": "Returns epoch number"
      },
      "extendProsperity(uint256)": {
        "notice": "Extends current settlement prosperity by specified amount"
      },
      "extraProsperity()": {
        "notice": "Extra prosperity amount gained from demilitarization of any army on this settlement"
      },
      "getCurrentSiegePower()": {
        "notice": "Calculates total siege power presented at current time"
      },
      "getSettlementOwner()": {
        "notice": "Calculates current settlement owner"
      },
      "giveUpCapturedTile(uint32)": {
        "notice": "Gives up captured tile"
      },
      "governors(uint256,address)": {
        "notice": "Current settlements governors"
      },
      "init(uint256,address,uint32)": {
        "notice": "Proxy initializer"
      },
      "isRuler(address)": {
        "notice": "Calculates whether provided address is settlement ruler or not"
      },
      "massUpdate()": {
        "notice": "Applies production of every building which produces prosperity"
      },
      "newBuilding(string)": {
        "notice": "Creates new building"
      },
      "ownerTokenId()": {
        "notice": "Banner token id to which current settlement belongs"
      },
      "position()": {
        "notice": "Position on which settlement is created"
      },
      "registry()": {
        "notice": "Registry"
      },
      "removeGovernor(address)": {
        "notice": "Removes settlement governor"
      },
      "removeGovernors()": {
        "notice": "Removes all settlement governors"
      },
      "siege()": {
        "notice": "Siege of the settlement"
      },
      "swapProsperityForExactWorkers(uint256,uint256)": {
        "notice": "Swaps current settlement prosperity for exact workers"
      },
      "updateCurrentHealth()": {
        "notice": "Updates settlement health to current block"
      },
      "updateFortHealth(uint256,bool)": {
        "notice": "Updates fort health"
      },
      "withdrawResources(string,address,uint256)": {
        "notice": "Withdraws game resources from settlement to specified address"
      },
      "world()": {
        "notice": "World"
      }
    },
    "version": 1
  },
  "storageLayout": {
    "storage": [
      {
        "astId": 119,
        "contract": "contracts/core/assets/settlement/Settlement.sol:Settlement",
        "label": "_initialized",
        "offset": 0,
        "slot": "0",
        "type": "t_uint8"
      },
      {
        "astId": 122,
        "contract": "contracts/core/assets/settlement/Settlement.sol:Settlement",
        "label": "_initializing",
        "offset": 1,
        "slot": "0",
        "type": "t_bool"
      },
      {
        "astId": 20829,
        "contract": "contracts/core/assets/settlement/Settlement.sol:Settlement",
        "label": "currentZone",
        "offset": 2,
        "slot": "0",
        "type": "t_contract(IZone)29387"
      },
      {
        "astId": 20833,
        "contract": "contracts/core/assets/settlement/Settlement.sol:Settlement",
        "label": "ownerTokenId",
        "offset": 0,
        "slot": "1",
        "type": "t_uint256"
      },
      {
        "astId": 20838,
        "contract": "contracts/core/assets/settlement/Settlement.sol:Settlement",
        "label": "siege",
        "offset": 0,
        "slot": "2",
        "type": "t_contract(ISiege)22927"
      },
      {
        "astId": 20845,
        "contract": "contracts/core/assets/settlement/Settlement.sol:Settlement",
        "label": "buildings",
        "offset": 0,
        "slot": "3",
        "type": "t_mapping(t_string_memory_ptr,t_contract(IBuilding)17651)"
      },
      {
        "astId": 20849,
        "contract": "contracts/core/assets/settlement/Settlement.sol:Settlement",
        "label": "currentGovernorsEpoch",
        "offset": 0,
        "slot": "4",
        "type": "t_uint256"
      },
      {
        "astId": 20857,
        "contract": "contracts/core/assets/settlement/Settlement.sol:Settlement",
        "label": "governors",
        "offset": 0,
        "slot": "5",
        "type": "t_mapping(t_uint256,t_mapping(t_address,t_bool))"
      },
      {
        "astId": 20862,
        "contract": "contracts/core/assets/settlement/Settlement.sol:Settlement",
        "label": "army",
        "offset": 0,
        "slot": "6",
        "type": "t_contract(IArmy)12387"
      },
      {
        "astId": 20866,
        "contract": "contracts/core/assets/settlement/Settlement.sol:Settlement",
        "label": "extraProsperity",
        "offset": 0,
        "slot": "7",
        "type": "t_uint256"
      },
      {
        "astId": 20870,
        "contract": "contracts/core/assets/settlement/Settlement.sol:Settlement",
        "label": "position",
        "offset": 0,
        "slot": "8",
        "type": "t_uint32"
      }
    ],
    "types": {
      "t_address": {
        "encoding": "inplace",
        "label": "address",
        "numberOfBytes": "20"
      },
      "t_bool": {
        "encoding": "inplace",
        "label": "bool",
        "numberOfBytes": "1"
      },
      "t_contract(IArmy)12387": {
        "encoding": "inplace",
        "label": "contract IArmy",
        "numberOfBytes": "20"
      },
      "t_contract(IBuilding)17651": {
        "encoding": "inplace",
        "label": "contract IBuilding",
        "numberOfBytes": "20"
      },
      "t_contract(ISiege)22927": {
        "encoding": "inplace",
        "label": "contract ISiege",
        "numberOfBytes": "20"
      },
      "t_contract(IZone)29387": {
        "encoding": "inplace",
        "label": "contract IZone",
        "numberOfBytes": "20"
      },
      "t_mapping(t_address,t_bool)": {
        "encoding": "mapping",
        "key": "t_address",
        "label": "mapping(address => bool)",
        "numberOfBytes": "32",
        "value": "t_bool"
      },
      "t_mapping(t_string_memory_ptr,t_contract(IBuilding)17651)": {
        "encoding": "mapping",
        "key": "t_string_memory_ptr",
        "label": "mapping(string => contract IBuilding)",
        "numberOfBytes": "32",
        "value": "t_contract(IBuilding)17651"
      },
      "t_mapping(t_uint256,t_mapping(t_address,t_bool))": {
        "encoding": "mapping",
        "key": "t_uint256",
        "label": "mapping(uint256 => mapping(address => bool))",
        "numberOfBytes": "32",
        "value": "t_mapping(t_address,t_bool)"
      },
      "t_string_memory_ptr": {
        "encoding": "bytes",
        "label": "string",
        "numberOfBytes": "32"
      },
      "t_uint256": {
        "encoding": "inplace",
        "label": "uint256",
        "numberOfBytes": "32"
      },
      "t_uint32": {
        "encoding": "inplace",
        "label": "uint32",
        "numberOfBytes": "4"
      },
      "t_uint8": {
        "encoding": "inplace",
        "label": "uint8",
        "numberOfBytes": "1"
      }
    }
  }
}