{
  "address": "0x1223d8D014820AAd2d5C8732D0E5595614698112",
  "abi": [
    {
      "anonymous": false,
      "inputs": [
        {
          "indexed": false,
          "internalType": "uint8",
          "name": "version",
          "type": "uint8"
        }
      ],
      "name": "Initialized",
      "type": "event"
    },
    {
      "anonymous": false,
      "inputs": [
        {
          "indexed": false,
          "internalType": "address",
          "name": "buyer",
          "type": "address"
        },
        {
          "indexed": false,
          "internalType": "uint256",
          "name": "workersBought",
          "type": "uint256"
        },
        {
          "indexed": false,
          "internalType": "uint256",
          "name": "prosperitySpent",
          "type": "uint256"
        }
      ],
      "name": "WorkersBought",
      "type": "event"
    },
    {
      "inputs": [],
      "name": "assetGroup",
      "outputs": [
        {
          "internalType": "string",
          "name": "",
          "type": "string"
        }
      ],
      "stateMutability": "view",
      "type": "function"
    },
    {
      "inputs": [],
      "name": "assetType",
      "outputs": [
        {
          "internalType": "string",
          "name": "",
          "type": "string"
        }
      ],
      "stateMutability": "view",
      "type": "function"
    },
    {
      "inputs": [],
      "name": "currentZone",
      "outputs": [
        {
          "internalType": "contract IZone",
          "name": "",
          "type": "address"
        }
      ],
      "stateMutability": "view",
      "type": "function"
    },
    {
      "inputs": [],
      "name": "epoch",
      "outputs": [
        {
          "internalType": "contract IEpoch",
          "name": "",
          "type": "address"
        }
      ],
      "stateMutability": "view",
      "type": "function"
    },
    {
      "inputs": [],
      "name": "epochNumber",
      "outputs": [
        {
          "internalType": "uint256",
          "name": "",
          "type": "uint256"
        }
      ],
      "stateMutability": "view",
      "type": "function"
    },
    {
      "inputs": [
        {
          "internalType": "uint256",
          "name": "unitsToBuy",
          "type": "uint256"
        }
      ],
      "name": "getAmountIn",
      "outputs": [
        {
          "internalType": "uint256",
          "name": "",
          "type": "uint256"
        },
        {
          "internalType": "uint256",
          "name": "",
          "type": "uint256"
        }
      ],
      "stateMutability": "view",
      "type": "function"
    },
    {
      "inputs": [
        {
          "internalType": "address",
          "name": "zoneAddress",
          "type": "address"
        }
      ],
      "name": "init",
      "outputs": [],
      "stateMutability": "nonpayable",
      "type": "function"
    },
    {
      "inputs": [],
      "name": "lastPurchaseTime",
      "outputs": [
        {
          "internalType": "uint256",
          "name": "",
          "type": "uint256"
        }
      ],
      "stateMutability": "view",
      "type": "function"
    },
    {
      "inputs": [],
      "name": "registry",
      "outputs": [
        {
          "internalType": "contract IRegistry",
          "name": "",
          "type": "address"
        }
      ],
      "stateMutability": "view",
      "type": "function"
    },
    {
      "inputs": [],
      "name": "startingPrice",
      "outputs": [
        {
          "internalType": "uint256",
          "name": "",
          "type": "uint256"
        }
      ],
      "stateMutability": "view",
      "type": "function"
    },
    {
      "inputs": [
        {
          "internalType": "uint256",
          "name": "workersToBuy",
          "type": "uint256"
        },
        {
          "internalType": "uint256",
          "name": "maxProsperityToSell",
          "type": "uint256"
        }
      ],
      "name": "swapProsperityForExactWorkers",
      "outputs": [
        {
          "internalType": "uint256",
          "name": "",
          "type": "uint256"
        }
      ],
      "stateMutability": "nonpayable",
      "type": "function"
    },
    {
      "inputs": [],
      "name": "world",
      "outputs": [
        {
          "internalType": "contract IWorld",
          "name": "",
          "type": "address"
        }
      ],
      "stateMutability": "view",
      "type": "function"
    }
  ],
  "transactionHash": "0xad363ea26299d8ae87fbdb8ce4d2570d5060a2e67f8126329de7c9fa559b2ccf",
  "args": [],
  "numDeployments": 1,
  "solcInputHash": "b1c7bcf5e8b291fa6a4245de9495ee46",
  "bytecode": "0x608060405234801561001057600080fd5b506114dd806100206000396000f3fe608060405234801561001057600080fd5b50600436106100d45760003560e01c8063900cf0cf11610081578063c14bafb11161005b578063c14bafb1146101a2578063d6fbf202146101ab578063f4145a83146101b457600080fd5b8063900cf0cf1461016a5780639abb3cae146101725780639b4faa801461017a57600080fd5b80633fe3347a116100b25780633fe3347a1461013457806341c52553146101495780637b1039991461016257600080fd5b806316e8d7ff146100d957806319ab453c146100ff57806330b67baa14610114575b600080fd5b6100ec6100e73660046112e8565b6101db565b6040519081526020015b60405180910390f35b61011261010d366004611322565b610645565b005b61011c61078e565b6040516001600160a01b0390911681526020016100f6565b61013c6107c6565b6040516100f6919061133f565b60005461011c906201000090046001600160a01b031681565b61011c61087a565b61011c6108e5565b61013c610960565b61018d61018836600461138d565b610991565b604080519283526020830191909152016100f6565b6100ec60015481565b6100ec60025481565b7f6c85b93e587873fbe6712f3b438d42c2945689b262f7bd34b8ea4e3f832a89e7546100ec565b6000670de0b6b3a764000083101561023a5760405162461bcd60e51b815260206004820152601f60248201527f496e73756666696369656e7420776f726b6572732062757920616d6f756e740060448201526064015b60405180910390fd5b6040516314188b1d60e11b815260048101849052670de0b6b3a76400006024820152734485313EDB60A1821FCC0f701175984c33D682D190632831163a90604401602060405180830381865af4158015610298573d6000803e3d6000fd5b505050506040513d601f19601f820116820180604052508101906102bc91906113a6565b61031f5760405162461bcd60e51b815260206004820152602e60248201527f4e6f7420696e746567657220616d6f756e74206f6620776f726b65727320746f60448201526d08189d5e481cdc1958da599a595960921b6064820152608401610231565b600082116103835760405162461bcd60e51b815260206004820152602b60248201527f496e73756666696369656e74206d6178696d756d2070726f737065726974792060448201526a1cd95b1b08185b5bdd5b9d60aa1b6064820152608401610231565b336001600160a01b0316639254803a6040518163ffffffff1660e01b8152600401600060405180830381600087803b1580156103be57600080fd5b505af11580156103d2573d6000803e3d6000fd5b505050506000806103f0670de0b6b3a76400008661018891906113de565b915091508382111561045c5760405162461bcd60e51b815260206004820152602f60248201527f50726f7370657269747920746f2073656c6c206973206d6f7265207468616e2060448201526e1cdc1958da599a5959081b1a5b5a5d608a1b6064820152608401610231565b60006104666109ba565b90506000610472610a01565b6040516370a0823160e01b815233600482015290915084906001600160a01b038416906370a0823190602401602060405180830381865afa1580156104bb573d6000803e3d6000fd5b505050506040513d601f19601f820116820180604052508101906104df9190611400565b101561052d5760405162461bcd60e51b815260206004820152601a60248201527f6e6f7420656e6f75676820616d6f756e7420746f207370656e640000000000006044820152606401610231565b60405163af7d6ca360e01b8152336004820152602481018590526001600160a01b0383169063af7d6ca390604401600060405180830381600087803b15801561057557600080fd5b505af1158015610589573d6000803e3d6000fd5b50506040516340c10f1960e01b8152336004820152602481018a90526001600160a01b03841692506340c10f199150604401600060405180830381600087803b1580156105d557600080fd5b505af11580156105e9573d6000803e3d6000fd5b5050506002849055504260015560408051338152602081018990529081018590527f342c134ff513e129f43ac7bed5ba83a44ae5101933f0f2471d8e2817a2d38e269060600160405180910390a1869450505050505b92915050565b600054610100900460ff16158080156106655750600054600160ff909116105b8061067f5750303b15801561067f575060005460ff166001145b6106e25760405162461bcd60e51b815260206004820152602e60248201527f496e697469616c697a61626c653a20636f6e747261637420697320616c72656160448201526d191e481a5b9a5d1a585b1a5e995960921b6064820152608401610231565b6000805460ff191660011790558015610705576000805461ff0019166101001790555b6000805475ffffffffffffffffffffffffffffffffffffffff00001916620100006001600160a01b0385160217905542600155674563918244f40000600255801561078a576000805461ff0019169055604051600181527f7f26b83ff96e1f2b6a682f133852f6798a09c465da95921460cefb38474024989060200160405180910390a15b5050565b60006107c17f6c85b93e587873fbe6712f3b438d42c2945689b262f7bd34b8ea4e3f832a89e6546001600160a01b031690565b905090565b60607f6c85b93e587873fbe6712f3b438d42c2945689b262f7bd34b8ea4e3f832a89e660040180546107f790611419565b80601f016020809104026020016040519081016040528092919081815260200182805461082390611419565b80156108705780601f1061084557610100808354040283529160200191610870565b820191906000526020600020905b81548152906001019060200180831161085357829003601f168201915b5050505050905090565b600061088461078e565b6001600160a01b0316637b1039996040518163ffffffff1660e01b8152600401602060405180830381865afa1580156108c1573d6000803e3d6000fd5b505050506040513d601f19601f820116820180604052508101906107c19190611453565b60006108ef61078e565b6001600160a01b031663c6b61e4c6109257f6c85b93e587873fbe6712f3b438d42c2945689b262f7bd34b8ea4e3f832a89e75490565b6040518263ffffffff1660e01b815260040161094391815260200190565b602060405180830381865afa1580156108c1573d6000803e3d6000fd5b60607f6c85b93e587873fbe6712f3b438d42c2945689b262f7bd34b8ea4e3f832a89e660030180546107f790611419565b60008060006109a46103ec6103e8610a48565b90506109b08482610a89565b9250925050915091565b60006109c46108e5565b6001600160a01b031663c91b95666040518163ffffffff1660e01b8152600401602060405180830381865afa1580156108c1573d6000803e3d6000fd5b6000610a0b6108e5565b6001600160a01b031663cabb62f06040518163ffffffff1660e01b8152600401602060405180830381865afa1580156108c1573d6000803e3d6000fd5b600081600003610a5757600080fd5b6000610a638484610b26565b905060016001607f1b036001600160801b0382161115610a8257600080fd5b9392505050565b6000806000610a96610c8b565b90506000610aa48587610d75565b90506000610acc610abe83610ab96001610fa1565b610fbf565b610ac788610ff3565b61102d565b90506000610ada8483611084565b90506000610ae88585611084565b90506000610afe83670de0b6b3a76400006110ba565b90506000610b1483670de0b6b3a76400006110ba565b919b919a509098505050505050505050565b600081600003610b3557600080fd5b60006001600160c01b038411610b605782604085901b81610b5857610b586113c8565b049050610c77565b60c084811c6401000000008110610b79576020918201911c5b620100008110610b8b576010918201911c5b6101008110610b9c576008918201911c5b60108110610bac576004918201911c5b60048110610bbc576002918201911c5b60028110610bcb576001820191505b60bf820360018603901c6001018260ff0387901b81610bec57610bec6113c8565b0492506001600160801b03831115610c0357600080fd5b608085901c83026001600160801b038616840260c088901c604089901b82811015610c2f576001820391505b608084901b92900382811015610c46576001820391505b829003608084901c8214610c5c57610c5c611470565b888181610c6b57610c6b6113c8565b04870196505050505050505b6001600160801b03811115610a8257600080fd5b600080610d02600154610c9c61078e565b6001600160a01b0316630252b9956040518163ffffffff1660e01b8152600401602060405180830381865afa158015610cd9573d6000803e3d6000fd5b505050506040513d601f19601f82011682018060405250810190610cfd9190611400565b611187565b90506000610d1a600254670de0b6b3a7640000610a48565b9050428210610d295792915050565b6000610d358342611486565b90506000610d51662386ec6c5bd116662386f26fc10000610a48565b90506000610d5f8284610d75565b9050610d6b8482611084565b9550505050505090565b600080600084600f0b128015610d8e5750826001166001145b905060008085600f0b12610da25784610da7565b846000035b6001600160801b03169050600160801b600160401b8211610e3c57603f82901b91505b8415610e34576001851615610ddf578102607f1c5b908002607f1c906002851615610df5578102607f1c5b908002607f1c906004851615610e0b578102607f1c5b908002607f1c906008851615610e21578102607f1c5b60049490941c93908002607f1c90610dca565b60401c610f5b565b603f6c01000000000000000000000000831015610e5f5760209290921b91601f19015b600160701b831015610e775760109290921b91600f19015b600160781b831015610e8f5760089290921b91600719015b6001607c1b831015610ea75760049290921b91600319015b6001607e1b831015610ebf5760029290921b91600119015b6001607f1b831015610ed75760019290921b91600019015b60005b8615610f445760408210610eed57600080fd5b6001871615610f1357918302607f1c918101600160801b831115610f1357600192831c92015b928002607f1c9260019190911b90600160801b8410610f3857600193841c9391909101905b600187901c9650610eda565b60408110610f5157600080fd5b6040039190911c90505b600083610f685781610f6d565b816000035b905060016001607f1b03198112801590610f8e575060016001607f1b038113155b610f9757600080fd5b9695505050505050565b6000677fffffffffffffff821115610fb857600080fd5b5060401b90565b6000600f82810b9084900b0360016001607f1b03198112801590610fea575060016001607f1b038113155b610a8257600080fd5b60008082600f0b1361100457600080fd5b608061100f8361119e565b600f0b6fb17217f7d1cf79abc9e3b39803f2f6af02901c9050919050565b600081600f0b60000361103f57600080fd5b600082600f0b604085600f0b901b8161105a5761105a6113c8565b05905060016001607f1b03198112801590610fea575060016001607f1b03811315610a8257600080fd5b6000600f83810b9083900b0260401d60016001607f1b03198112801590610fea575060016001607f1b03811315610a8257600080fd5b60006001607f1b600f84900b0161110f5777fffffffffffffffffffffffffffffffffffffffffffffffe1982121580156110f85750600160c01b8213155b61110157600080fd5b506000819003603f1b61063f565b60008084600f0b121561112757836000039350600190505b60008312156111395760009290920391155b6000611145858561127d565b9050811561116a57600160ff1b81111561115e57600080fd5b600003915061063f9050565b6001600160ff1b0381111561117e57600080fd5b915061063f9050565b6000818310156111975781610a82565b5090919050565b60008082600f0b136111af57600080fd5b6000600f83900b600160401b81126111c9576040918201911d5b64010000000081126111dd576020918201911d5b6201000081126111ef576010918201911d5b6101008112611200576008918201911d5b60108112611210576004918201911d5b60048112611220576002918201911d5b6002811261122f576001820191505b603f19820160401b600f85900b607f8490031b6780000000000000005b60008113156112725790800260ff81901c8281029390930192607f011c9060011d61124c565b509095945050505050565b60008160000361128f5750600061063f565b600083600f0b12156112a057600080fd5b600f83900b6001600160801b038316810260401c90608084901c026001600160c01b038111156112cf57600080fd5b60401b81198111156112e057600080fd5b019392505050565b600080604083850312156112fb57600080fd5b50508035926020909101359150565b6001600160a01b038116811461131f57600080fd5b50565b60006020828403121561133457600080fd5b8135610a828161130a565b600060208083528351808285015260005b8181101561136c57858101830151858201604001528201611350565b506000604082860101526040601f19601f8301168501019250505092915050565b60006020828403121561139f57600080fd5b5035919050565b6000602082840312156113b857600080fd5b81518015158114610a8257600080fd5b634e487b7160e01b600052601260045260246000fd5b6000826113fb57634e487b7160e01b600052601260045260246000fd5b500490565b60006020828403121561141257600080fd5b5051919050565b600181811c9082168061142d57607f821691505b60208210810361144d57634e487b7160e01b600052602260045260246000fd5b50919050565b60006020828403121561146557600080fd5b8151610a828161130a565b634e487b7160e01b600052600160045260246000fd5b8181038181111561063f57634e487b7160e01b600052601160045260246000fdfea2646970667358221220b1ff1ee84bb050505995cd6ab0f9bba706433ff504ad447fc05baf1a09bce82464736f6c63430008100033",
  "deployedBytecode": "0x608060405234801561001057600080fd5b50600436106100d45760003560e01c8063900cf0cf11610081578063c14bafb11161005b578063c14bafb1146101a2578063d6fbf202146101ab578063f4145a83146101b457600080fd5b8063900cf0cf1461016a5780639abb3cae146101725780639b4faa801461017a57600080fd5b80633fe3347a116100b25780633fe3347a1461013457806341c52553146101495780637b1039991461016257600080fd5b806316e8d7ff146100d957806319ab453c146100ff57806330b67baa14610114575b600080fd5b6100ec6100e73660046112e8565b6101db565b6040519081526020015b60405180910390f35b61011261010d366004611322565b610645565b005b61011c61078e565b6040516001600160a01b0390911681526020016100f6565b61013c6107c6565b6040516100f6919061133f565b60005461011c906201000090046001600160a01b031681565b61011c61087a565b61011c6108e5565b61013c610960565b61018d61018836600461138d565b610991565b604080519283526020830191909152016100f6565b6100ec60015481565b6100ec60025481565b7f6c85b93e587873fbe6712f3b438d42c2945689b262f7bd34b8ea4e3f832a89e7546100ec565b6000670de0b6b3a764000083101561023a5760405162461bcd60e51b815260206004820152601f60248201527f496e73756666696369656e7420776f726b6572732062757920616d6f756e740060448201526064015b60405180910390fd5b6040516314188b1d60e11b815260048101849052670de0b6b3a7640000602482015273__$b96f6cc754b665f2373f69c32648f7914e$__90632831163a90604401602060405180830381865af4158015610298573d6000803e3d6000fd5b505050506040513d601f19601f820116820180604052508101906102bc91906113a6565b61031f5760405162461bcd60e51b815260206004820152602e60248201527f4e6f7420696e746567657220616d6f756e74206f6620776f726b65727320746f60448201526d08189d5e481cdc1958da599a595960921b6064820152608401610231565b600082116103835760405162461bcd60e51b815260206004820152602b60248201527f496e73756666696369656e74206d6178696d756d2070726f737065726974792060448201526a1cd95b1b08185b5bdd5b9d60aa1b6064820152608401610231565b336001600160a01b0316639254803a6040518163ffffffff1660e01b8152600401600060405180830381600087803b1580156103be57600080fd5b505af11580156103d2573d6000803e3d6000fd5b505050506000806103f0670de0b6b3a76400008661018891906113de565b915091508382111561045c5760405162461bcd60e51b815260206004820152602f60248201527f50726f7370657269747920746f2073656c6c206973206d6f7265207468616e2060448201526e1cdc1958da599a5959081b1a5b5a5d608a1b6064820152608401610231565b60006104666109ba565b90506000610472610a01565b6040516370a0823160e01b815233600482015290915084906001600160a01b038416906370a0823190602401602060405180830381865afa1580156104bb573d6000803e3d6000fd5b505050506040513d601f19601f820116820180604052508101906104df9190611400565b101561052d5760405162461bcd60e51b815260206004820152601a60248201527f6e6f7420656e6f75676820616d6f756e7420746f207370656e640000000000006044820152606401610231565b60405163af7d6ca360e01b8152336004820152602481018590526001600160a01b0383169063af7d6ca390604401600060405180830381600087803b15801561057557600080fd5b505af1158015610589573d6000803e3d6000fd5b50506040516340c10f1960e01b8152336004820152602481018a90526001600160a01b03841692506340c10f199150604401600060405180830381600087803b1580156105d557600080fd5b505af11580156105e9573d6000803e3d6000fd5b5050506002849055504260015560408051338152602081018990529081018590527f342c134ff513e129f43ac7bed5ba83a44ae5101933f0f2471d8e2817a2d38e269060600160405180910390a1869450505050505b92915050565b600054610100900460ff16158080156106655750600054600160ff909116105b8061067f5750303b15801561067f575060005460ff166001145b6106e25760405162461bcd60e51b815260206004820152602e60248201527f496e697469616c697a61626c653a20636f6e747261637420697320616c72656160448201526d191e481a5b9a5d1a585b1a5e995960921b6064820152608401610231565b6000805460ff191660011790558015610705576000805461ff0019166101001790555b6000805475ffffffffffffffffffffffffffffffffffffffff00001916620100006001600160a01b0385160217905542600155674563918244f40000600255801561078a576000805461ff0019169055604051600181527f7f26b83ff96e1f2b6a682f133852f6798a09c465da95921460cefb38474024989060200160405180910390a15b5050565b60006107c17f6c85b93e587873fbe6712f3b438d42c2945689b262f7bd34b8ea4e3f832a89e6546001600160a01b031690565b905090565b60607f6c85b93e587873fbe6712f3b438d42c2945689b262f7bd34b8ea4e3f832a89e660040180546107f790611419565b80601f016020809104026020016040519081016040528092919081815260200182805461082390611419565b80156108705780601f1061084557610100808354040283529160200191610870565b820191906000526020600020905b81548152906001019060200180831161085357829003601f168201915b5050505050905090565b600061088461078e565b6001600160a01b0316637b1039996040518163ffffffff1660e01b8152600401602060405180830381865afa1580156108c1573d6000803e3d6000fd5b505050506040513d601f19601f820116820180604052508101906107c19190611453565b60006108ef61078e565b6001600160a01b031663c6b61e4c6109257f6c85b93e587873fbe6712f3b438d42c2945689b262f7bd34b8ea4e3f832a89e75490565b6040518263ffffffff1660e01b815260040161094391815260200190565b602060405180830381865afa1580156108c1573d6000803e3d6000fd5b60607f6c85b93e587873fbe6712f3b438d42c2945689b262f7bd34b8ea4e3f832a89e660030180546107f790611419565b60008060006109a46103ec6103e8610a48565b90506109b08482610a89565b9250925050915091565b60006109c46108e5565b6001600160a01b031663c91b95666040518163ffffffff1660e01b8152600401602060405180830381865afa1580156108c1573d6000803e3d6000fd5b6000610a0b6108e5565b6001600160a01b031663cabb62f06040518163ffffffff1660e01b8152600401602060405180830381865afa1580156108c1573d6000803e3d6000fd5b600081600003610a5757600080fd5b6000610a638484610b26565b905060016001607f1b036001600160801b0382161115610a8257600080fd5b9392505050565b6000806000610a96610c8b565b90506000610aa48587610d75565b90506000610acc610abe83610ab96001610fa1565b610fbf565b610ac788610ff3565b61102d565b90506000610ada8483611084565b90506000610ae88585611084565b90506000610afe83670de0b6b3a76400006110ba565b90506000610b1483670de0b6b3a76400006110ba565b919b919a509098505050505050505050565b600081600003610b3557600080fd5b60006001600160c01b038411610b605782604085901b81610b5857610b586113c8565b049050610c77565b60c084811c6401000000008110610b79576020918201911c5b620100008110610b8b576010918201911c5b6101008110610b9c576008918201911c5b60108110610bac576004918201911c5b60048110610bbc576002918201911c5b60028110610bcb576001820191505b60bf820360018603901c6001018260ff0387901b81610bec57610bec6113c8565b0492506001600160801b03831115610c0357600080fd5b608085901c83026001600160801b038616840260c088901c604089901b82811015610c2f576001820391505b608084901b92900382811015610c46576001820391505b829003608084901c8214610c5c57610c5c611470565b888181610c6b57610c6b6113c8565b04870196505050505050505b6001600160801b03811115610a8257600080fd5b600080610d02600154610c9c61078e565b6001600160a01b0316630252b9956040518163ffffffff1660e01b8152600401602060405180830381865afa158015610cd9573d6000803e3d6000fd5b505050506040513d601f19601f82011682018060405250810190610cfd9190611400565b611187565b90506000610d1a600254670de0b6b3a7640000610a48565b9050428210610d295792915050565b6000610d358342611486565b90506000610d51662386ec6c5bd116662386f26fc10000610a48565b90506000610d5f8284610d75565b9050610d6b8482611084565b9550505050505090565b600080600084600f0b128015610d8e5750826001166001145b905060008085600f0b12610da25784610da7565b846000035b6001600160801b03169050600160801b600160401b8211610e3c57603f82901b91505b8415610e34576001851615610ddf578102607f1c5b908002607f1c906002851615610df5578102607f1c5b908002607f1c906004851615610e0b578102607f1c5b908002607f1c906008851615610e21578102607f1c5b60049490941c93908002607f1c90610dca565b60401c610f5b565b603f6c01000000000000000000000000831015610e5f5760209290921b91601f19015b600160701b831015610e775760109290921b91600f19015b600160781b831015610e8f5760089290921b91600719015b6001607c1b831015610ea75760049290921b91600319015b6001607e1b831015610ebf5760029290921b91600119015b6001607f1b831015610ed75760019290921b91600019015b60005b8615610f445760408210610eed57600080fd5b6001871615610f1357918302607f1c918101600160801b831115610f1357600192831c92015b928002607f1c9260019190911b90600160801b8410610f3857600193841c9391909101905b600187901c9650610eda565b60408110610f5157600080fd5b6040039190911c90505b600083610f685781610f6d565b816000035b905060016001607f1b03198112801590610f8e575060016001607f1b038113155b610f9757600080fd5b9695505050505050565b6000677fffffffffffffff821115610fb857600080fd5b5060401b90565b6000600f82810b9084900b0360016001607f1b03198112801590610fea575060016001607f1b038113155b610a8257600080fd5b60008082600f0b1361100457600080fd5b608061100f8361119e565b600f0b6fb17217f7d1cf79abc9e3b39803f2f6af02901c9050919050565b600081600f0b60000361103f57600080fd5b600082600f0b604085600f0b901b8161105a5761105a6113c8565b05905060016001607f1b03198112801590610fea575060016001607f1b03811315610a8257600080fd5b6000600f83810b9083900b0260401d60016001607f1b03198112801590610fea575060016001607f1b03811315610a8257600080fd5b60006001607f1b600f84900b0161110f5777fffffffffffffffffffffffffffffffffffffffffffffffe1982121580156110f85750600160c01b8213155b61110157600080fd5b506000819003603f1b61063f565b60008084600f0b121561112757836000039350600190505b60008312156111395760009290920391155b6000611145858561127d565b9050811561116a57600160ff1b81111561115e57600080fd5b600003915061063f9050565b6001600160ff1b0381111561117e57600080fd5b915061063f9050565b6000818310156111975781610a82565b5090919050565b60008082600f0b136111af57600080fd5b6000600f83900b600160401b81126111c9576040918201911d5b64010000000081126111dd576020918201911d5b6201000081126111ef576010918201911d5b6101008112611200576008918201911d5b60108112611210576004918201911d5b60048112611220576002918201911d5b6002811261122f576001820191505b603f19820160401b600f85900b607f8490031b6780000000000000005b60008113156112725790800260ff81901c8281029390930192607f011c9060011d61124c565b509095945050505050565b60008160000361128f5750600061063f565b600083600f0b12156112a057600080fd5b600f83900b6001600160801b038316810260401c90608084901c026001600160c01b038111156112cf57600080fd5b60401b81198111156112e057600080fd5b019392505050565b600080604083850312156112fb57600080fd5b50508035926020909101359150565b6001600160a01b038116811461131f57600080fd5b50565b60006020828403121561133457600080fd5b8135610a828161130a565b600060208083528351808285015260005b8181101561136c57858101830151858201604001528201611350565b506000604082860101526040601f19601f8301168501019250505092915050565b60006020828403121561139f57600080fd5b5035919050565b6000602082840312156113b857600080fd5b81518015158114610a8257600080fd5b634e487b7160e01b600052601260045260246000fd5b6000826113fb57634e487b7160e01b600052601260045260246000fd5b500490565b60006020828403121561141257600080fd5b5051919050565b600181811c9082168061142d57607f821691505b60208210810361144d57634e487b7160e01b600052602260045260246000fd5b50919050565b60006020828403121561146557600080fd5b8151610a828161130a565b634e487b7160e01b600052600160045260246000fd5b8181038181111561063f57634e487b7160e01b600052601160045260246000fdfea2646970667358221220b1ff1ee84bb050505995cd6ab0f9bba706433ff504ad447fc05baf1a09bce82464736f6c63430008100033",
  "libraries": {
    "MathExtension": "0x4485313EDB60A1821FCC0f701175984c33D682D1"
  },
  "devdoc": {
    "kind": "dev",
    "methods": {
      "assetGroup()": {
        "details": "Reads data from proxy's storage",
        "returns": {
          "_0": "World asset group"
        }
      },
      "assetType()": {
        "details": "Reads data from proxy's storage",
        "returns": {
          "_0": "World asset type"
        }
      },
      "epoch()": {
        "details": "Value is dereferenced from proxy storage and world"
      },
      "epochNumber()": {
        "details": "Reads data from proxy's storage",
        "returns": {
          "_0": "Epoch number"
        }
      },
      "getAmountIn(uint256)": {
        "details": "Returns valid output only for integer workersToBuy value",
        "params": {
          "workersToBuy": "Amount of workers to buy"
        },
        "returns": {
          "_0": "Amount of prosperity needed for workersToBuy",
          "_1": "New starting price"
        }
      },
      "init(address)": {
        "details": "Called by factory contract which creates current instance",
        "params": {
          "zoneAddress": "Zone address"
        }
      },
      "registry()": {
        "details": "Value is dereferenced from world"
      },
      "swapProsperityForExactWorkers(uint256,uint256)": {
        "details": "Even though function is opened, it can be executed only by ISettlement because only ISettlement can have prosperity",
        "params": {
          "maxProsperityToSell": "Maximum amount of prosperity to be taken for exact amount of workers",
          "workersToBuy": "Exact amount of workers"
        },
        "returns": {
          "_0": "Amount of workers bought by prosperity"
        }
      },
      "world()": {
        "details": "Value is dereferenced from proxy storage"
      }
    },
    "stateVariables": {
      "currentZone": {
        "details": "Immutable, initialized on the zone creation"
      },
      "lastPurchaseTime": {
        "details": "Updated every time when #swapProsperityForExactWorkers is called"
      },
      "startingPrice": {
        "details": "Updated every time when #swapProsperityForExactWorkers is called"
      }
    },
    "version": 1
  },
  "userdoc": {
    "events": {
      "WorkersBought(address,uint256,uint256)": {
        "notice": "Emitted when #swapProsperityForExactWorkers or #swapExactProsperityForWorkers is called"
      }
    },
    "kind": "user",
    "methods": {
      "assetGroup()": {
        "notice": "Returns world asset group"
      },
      "assetType()": {
        "notice": "Returns world asset type"
      },
      "currentZone()": {
        "notice": "Zone to which this pool belongs"
      },
      "epoch()": {
        "notice": "Epoch"
      },
      "epochNumber()": {
        "notice": "Returns epoch number"
      },
      "getAmountIn(uint256)": {
        "notice": "Calculates input of prosperity based on output whole amount of workers"
      },
      "init(address)": {
        "notice": "Proxy initializer"
      },
      "lastPurchaseTime()": {
        "notice": "Time at which last purchase is performed"
      },
      "registry()": {
        "notice": "Registry"
      },
      "startingPrice()": {
        "notice": "Starting unit price"
      },
      "swapProsperityForExactWorkers(uint256,uint256)": {
        "notice": "Swaps prosperity() for exact workers()"
      },
      "world()": {
        "notice": "World"
      }
    },
    "version": 1
  },
  "storageLayout": {
    "storage": [
      {
        "astId": 119,
        "contract": "contracts/core/assets/workersPool/WorkersPool.sol:WorkersPool",
        "label": "_initialized",
        "offset": 0,
        "slot": "0",
        "type": "t_uint8"
      },
      {
        "astId": 122,
        "contract": "contracts/core/assets/workersPool/WorkersPool.sol:WorkersPool",
        "label": "_initializing",
        "offset": 1,
        "slot": "0",
        "type": "t_bool"
      },
      {
        "astId": 28795,
        "contract": "contracts/core/assets/workersPool/WorkersPool.sol:WorkersPool",
        "label": "currentZone",
        "offset": 2,
        "slot": "0",
        "type": "t_contract(IZone)29387"
      },
      {
        "astId": 28799,
        "contract": "contracts/core/assets/workersPool/WorkersPool.sol:WorkersPool",
        "label": "lastPurchaseTime",
        "offset": 0,
        "slot": "1",
        "type": "t_uint256"
      },
      {
        "astId": 28803,
        "contract": "contracts/core/assets/workersPool/WorkersPool.sol:WorkersPool",
        "label": "startingPrice",
        "offset": 0,
        "slot": "2",
        "type": "t_uint256"
      }
    ],
    "types": {
      "t_bool": {
        "encoding": "inplace",
        "label": "bool",
        "numberOfBytes": "1"
      },
      "t_contract(IZone)29387": {
        "encoding": "inplace",
        "label": "contract IZone",
        "numberOfBytes": "20"
      },
      "t_uint256": {
        "encoding": "inplace",
        "label": "uint256",
        "numberOfBytes": "32"
      },
      "t_uint8": {
        "encoding": "inplace",
        "label": "uint8",
        "numberOfBytes": "1"
      }
    }
  }
}